:10000000D4C00000F9C00000F7C000000C94170E27
:100010000C94400E0C94690EEFC00000EDC000007F
:10002000EBC00000E9C00000E7C00000E5C0000030
:10003000E3C00000E1C00000DFC00000DDC0000040
:100040000C942211D9C0000071C20000BCC2000093
:10005000D3C00000D1C00000CFC00000CDC0000060
:10006000CBC00000C9C000006B0C7D0C8B0C9E0C3B
:10007000A50CF00CF90C040D0B0D110D110D110D4B
:10008000110D110D110D110D110D110D110D110D80
:10009000110D110D110D110D110D110D110D110D70
:1000A000110D110D110D110D6B0C750C7D0C8B0CC0
:1000B0009E0CA50CB80CBF0CC60C00C201000100C0
:1000C000110011000C0000E100000A0025002500CD
:1000D0002100009600001900390039003600127A1C
:1000E00000001F004600460044008070000022000F
:1000F0004D004D004A00004B0000360075007500B1
:100100007200403800004A009C009C009900802545
:1001100000007200EC00EC00E900C0120000E900F1
:10012000DA01DA01D70160090000D701B603B6038E
:10013000B303B0040000B3036E076E076B072C0116
:100140000000DC0EC11DC11DBE1D0000000024000A
:1001500027002A0000000000250028002B000000D6
:1001600000002300260029000404040404040404FD
:100170000202020202020303030303030102040852
:100180001020408001020408102001020408102001
:100190000000000700020100000304060000000048
:1001A0000000000041014F043C0111241FBECFEFAD
:1001B000D8E0DEBFCDBF12E0A0E0B1E0EEEBF9E2A7
:1001C00002C005900D92AC31B107D9F713E0ACE154
:1001D000B2E001C01D92A23BB107E1F711E0C8EA0D
:1001E000D1E004C02297FE010E94CF14C43AD10787
:1001F000C9F7ABD30C94D31403CFFC0188279927FC
:10020000E89421912032E9F3293010F02E30C8F320
:100210002B3239F02D3231F4689403C00BD0820FA9
:10022000911D219120532A30C8F31EF49095819599
:100230009F4F08957AE0979F902D879F802D910D75
:10024000112408958130910569F46F5F7F4F99F40F
:100250008CE192E0FAD58FE892E06EE04FE020E08A
:100260000C94F610892B39F46F5F7F4F21F48FE8DF
:1002700092E00C94840F089580E090E06FEF7FEFA0
:10028000E1CF81E090E06FEF7FEFDCCF4F925F92A4
:100290006F927F928F929F92AF92BF92CF92DF9296
:1002A000EF92FF920F931F93DF93CF93CDB7DEB7FB
:1002B00028970FB6F894DEBF0FBECDBF8FE892E04F
:1002C0000E94910DB5E04B2E512C4C0E5D1E3E014F
:1002D0000894611C711CE6C08FE892E00E948B0FAD
:1002E000682F8CE192E00E941D0D882309F4DAC08A
:1002F0008CE192E0B301A20120E030E00E94B30A59
:1003000083E493E060E071E09AD449815A816B8183
:100310007C8183E493E025E030E073D583E493E0CF
:100320006BE071E08CD44D815E816F81788583E4D0
:1003300093E025E030E067D58CE192E06BEA72E073
:100340004DEA52E02EEA32E00FEA12E0A0EBEA2E8C
:10035000A2E0FA2EF1EBCF2EF2E0DF2EE2EBAE2E92
:10036000E2E0BE2E88249924EDD783E493E06EE08A
:1003700071E065D483E493E06091AD024AE050E01F
:10038000E1D383E493E065E171E059D483E493E041
:100390006091AE024AE050E0D5D383E493E065E19A
:1003A00071E04DD46091AB027091AC0283E493E0B4
:1003B0004AE050E032D483E493E067E171E03FD457
:1003C00083E493E06091AF024AE050E0BBD383E462
:1003D00093E06FE171E033D483E493E06091B00285
:1003E0004AE050E0AFD383E493E06FE171E027D4BB
:1003F00083E493E06091B1024AE050E0A3D383E448
:1004000093E061E271E01BD483E493E06091B20277
:100410004AE050E0A8D383E493E063E271E00FD4B4
:100420008CE192E0C5D6AB01BC0183E493E022E00D
:1004300030E0E9D483E493E067E371E000D48CE139
:1004400092E0D9D6AB01BC0183E493E022E030E036
:10045000DAD483E493E06AE471E0F1D38CE192E0D2
:10046000EDD6AB01BC0183E493E022E030E0CBD4D5
:1004700083E493E068E571E0E2D360915C027091FF
:100480005D0283E493E04AE050E041D383E493E0EB
:1004900092D28CE192E063EB72E047EB52E029EB01
:1004A00032E020D58FE892E00E94AC0F892B09F052
:1004B00013CF28960FB6F894DEBF0FBECDBFCF91F5
:1004C000DF911F910F91FF90EF90DF90CF90BF9041
:1004D000AF909F908F907F906F905F904F90089516
:1004E0000F931F9303E413E0C80140E052EC61E076
:1004F00070E0A4D08FE892E040EC52E160E070E060
:100500000E94920EC80165E671E08ED4C80166E6CD
:1005100071E08AD4C8016FE871E086D4C80168EA46
:1005200071E082D41F910F91089508951F920F9248
:100530000FB60F9211242F933F934F938F939F9356
:10054000EF93FF938091C00082FD1DC04091C600D3
:100550002091FB023091FC022F5F3F4F2F733070D0
:100560008091FD029091FE022817390771F0E09109
:10057000FB02F091FC02E554FD4F40833093FC02F6
:100580002093FB0202C08091C600FF91EF919F91E2
:100590008F914F913F912F910F900FBE0F901F9011
:1005A0001895E0914F03F0915003E05CFF4F81916B
:1005B000919120813181821B930B8F739070892BD5
:1005C00009F0B3CF08951F920F920FB60F92112426
:1005D0002F933F938F939F93EF93FF9320913F032C
:1005E00030914003809141039091420328173907CD
:1005F00031F48091C1008F7D8093C10014C0E091DF
:100600004103F0914203E150FD4F2081809141036D
:100610009091420301968F73907090934203809360
:1006200041032093C600FF91EF919F918F913F91DD
:100630002F910F900FBE0F901F901895AF92BF9201
:10064000DF92EF92FF920F931F93CF93DF93EC0112
:100650007A018B01DD24403081EE580780E0680785
:1006600080E0780711F0DD24D39491E0A92EB12C1D
:10067000EC89FD89DD2069F0C50108A002C0880F62
:10068000991F0A94E2F7808360E079E08DE390E0BF
:1006900005C0108260E874E88EE190E0A80197013F
:1006A0000E94971421503040404050405695479545
:1006B0003795279580E12030380720F0DD2011F0B4
:1006C000DD24D6CFE889F9893083EA89FB89208344
:1006D00019A2EE89FF89408121E030E0C9010C8C2C
:1006E00002C0880F991F0A94E2F7482B4083EE89D5
:1006F000FF894081C9010D8C02C0880F991F0A949F
:10070000E2F7482B4083EE89FF894081C9010E8CB6
:1007100002C0880F991F0A94E2F7482B4083EE89A4
:10072000FF8980810F8C02C0220F331F0A94E2F7E9
:10073000209528232083DF91CF911F910F91FF9067
:10074000EF90DF90BF90AF900895DC011C96ED9183
:10075000FC911D97E05CFF4F219131918081918147
:10076000281B390B2F733070C9010895DC011C96CA
:10077000ED91FC911D97E05CFF4F20813181E054A9
:10078000F040DF01AE5BBF4F8D919C911197281710
:10079000390719F42FEF3FEF07C08D919C91E80FB7
:1007A000F91F8081282F30E0C9010895DC011C96D3
:1007B000ED91FC911D97E05CFF4F20813181E05469
:1007C000F040DF01AE5BBF4F8D919C9111972817D0
:1007D000390719F42FEF3FEF10C08D919C911197BD
:1007E000E80FF91F20818D919C91119701968F73CD
:1007F000907011969C938E9330E0C9010895DC01AE
:1008000091968C919197882339F05496ED91FC91B3
:100810005597808186FFF9CF91961C920895CF93CA
:10082000DF93EC01EE85FF85E05CFF4F2081318195
:10083000E054F0402F5F3F4F2F733070DF01AE5B0D
:10084000BF4F8D919C91119728173907D1F3E05C28
:10085000FF4F80819181E054F040E80FF91F6083E1
:10086000EE85FF85E05CFF4F31832083EE89FF89B1
:10087000208181E090E00F8C02C0880F991F0A94BC
:10088000E2F7282B208381E089A3EC89FD89808110
:100890008064808381E090E0DF91CF910895109291
:1008A00046031092450388EE93E0A0E0B0E0809309
:1008B000470390934803A0934903B0934A038FEFF3
:1008C00091E090934403809343038BEB92E09093E9
:1008D000500380934F038FEF92E0909352038093E5
:1008E000510385EC90E0909354038093530384EC80
:1008F00090E0909356038093550380EC90E09093A2
:1009000058038093570381EC90E090935A038093AF
:10091000590382EC90E090935C0380935B0386EC38
:1009200090E090935E0380935D0384E080935F0387
:1009300083E08093600387E08093610385E0809388
:10094000620381E0809363030895CF93DF930E9455
:100950007811C6DDC1EDD2E099DC2097E9F321DE04
:10096000FBCFCF92DF92EF92FF920F931F93CF9323
:10097000DF937C016B018A01C0E0D0E00FC0D6019B
:100980006D916D01D701ED91FC910190F081E02D09
:10099000C7010995C80FD91F015010400115110555
:1009A00071F7CE01DF91CF911F910F91FF90EF90E2
:1009B000DF90CF900895EF92FF920F931F938C01D9
:1009C000DC01ED91FC910190F081E02D6DE0099545
:1009D0007C01D801ED91FC910190F081E02DC801DE
:1009E0006AE009959C012E0D3F1DC9011F910F91D1
:1009F000FF90EF900895CF93DF93EC01611571059F
:100A000019F420E030E00FC0DB010D900020E9F781
:100A10001197A61BB70BE881F9810280F381E02DC5
:100A2000AD0109959C01C901DF91CF9108954F92C5
:100A30005F927F928F929F92AF92BF92CF92DF92FE
:100A4000EF92FF920F931F93DF93CF93CDB7DEB753
:100A5000A1970FB6F894DEBF0FBECDBF2C01742E48
:100A6000CB01223008F42AE019A231E2C32ED12CA6
:100A7000CC0EDD1E822E9924AA24BB24672D752F4F
:100A8000A50194010E94971479018A01C801B70158
:100A9000A50194010E946514472D461B0894C108C6
:100AA000D1084A3014F4405D01C0495CF60140832E
:100AB000E114F1040105110521F07E2C5F2DC80120
:100AC000DDCFC201B60197DFA1960FB6F894DEBF65
:100AD0000FBECDBFCF91DF911F910F91FF90EF908F
:100AE000DF90CF90BF90AF909F908F907F905F905E
:100AF0004F900895DC012115310541F4ED91FC91F1
:100B00000190F081E02D642F0995089590CFCF9248
:100B1000DF92EF92FF920F931F936C017B019A017A
:100B200000E010E0B801A701E5DF8C01C60143DF5A
:100B3000080F191FC8011F910F91FF90EF90DF90D0
:100B4000CF900895EF92FF920F931F939A01E62E94
:100B5000FF2400E010E0B801A701CCDF1F910F9146
:100B6000FF90EF900895CF92DF92EF92FF920F9354
:100B70001F936C01E62E9A01FF2400E010E0B801FB
:100B8000A701B8DF8C01C60116DF080F191FC801C5
:100B90001F910F91FF90EF90DF90CF900895CF922B
:100BA000DF92EF92FF920F931F93CF93DF93EC01AD
:100BB0006A017B012115310541F4E881F981019039
:100BC000F081E02D642F09951DC02A303105C9F44C
:100BD00077FF16C0E881F9810190F081E02D6DE288
:100BE00009958C0144275527BA014C195D096E09F6
:100BF0007F09CE012AE01BDF9801280F391F03C0AF
:100C00002AE015DF9C01C901DF91CF911F910F915F
:100C1000FF90EF90DF90CF900895EF92FF920F93A7
:100C20001F937B019A010027F7FC0095102FB80154
:100C3000A701B5DF1F910F91FF90EF900895DBCED4
:100C400008957F928F929F92AF92BF92CF92DF9240
:100C5000EF92FF920F931F93CF93DF934C017A0192
:100C60008B01722ECB01BA01A80197010E94611479
:100C7000882321F0C4016DEA71E021C0C0E0D0E01A
:100C800057016801E894D7F8C601B5012FEF3FEF8F
:100C90004FE75FE70E946114882351F4C601B50154
:100CA0002FEF3FEF4FE75FE70E94AB12181614F0EB
:100CB000C1E0D0E0219731F0C40161EB71E09BDE2F
:100CC000EC0190C0C801B7012FEF3FEF4FE75FE4A1
:100CD0000E94FA13181654F0C801B7012FEF3FEF26
:100CE0004FE75FEC0E94AB12882324F4C40165EB4C
:100CF00071E0E5CFC801B70120E030E040E050E00E
:100D00000E94AB1287FD03C0C0E0D0E00EC0D4014A
:100D1000ED91FC910190F081E02DC4016DE2099507
:100D2000EC0117FB109517F9109520E030E040E03A
:100D30005FE3DD240BC0CA01B90120E030E040E2EE
:100D400051E40E94AF129B01AC01D394D71498F3E5
:100D5000C801B7010E9447125B016C010E941C137D
:100D60007B018C01C401B801A7012AE030E0C2DE9A
:100D7000C80FD91F772031F0C40169EB71E03BDE69
:100D8000C80FD91FC801B7010E9448139B01AC01CD
:100D9000C601B5010E94461223C020E030E040E2C7
:100DA00051E40E94FE137B018C010E9417135B012A
:100DB0006C01CC24B7FCC094DC2CC401B601A501A5
:100DC0002AE030E0ECDEC80FD91FC601B5010E9451
:100DD0004A139B01AC01C801B7010E9446127A94E4
:100DE0007720D9F6CE01DF91CF911F910F91FF901F
:100DF000EF90DF90CF90BF90AF909F908F907F90BB
:100E000008951FCF0895EF92FF920F931F937C01D7
:100E100018DF8C01C701CFDD080F191FC8011F9112
:100E20000F91FF90EF900895EF92FF920F931F9311
:100E30007C01E1DD8C01C701BEDD080F191FC8016F
:100E40001F910F91FF90EF900895FC012FEF3FEF5E
:100E50004FEF5FEF208331834283538310861186E7
:100E6000128613868FEF99ECAAE9BBE3808B918BF6
:100E7000A28BB38B808F918FA28FB38F80A391A30E
:100E8000A2A3B3A380A791A7A2A7B3A780AB91AB5E
:100E9000A2ABB3AB20AF31AF42AF53AFE05CFF4F7B
:100EA0008FEF90E091838083349620833183428357
:100EB000538338962083318342835383389611922B
:100EC0001082709682E08193119211921192119288
:100ED00011921192119211921192118210827997AE
:100EE00010820895CF93DF93FC01EB01611571052A
:100EF00061F0E759FF4F80819181A281B381E9566A
:100F0000F04088839983AA83BB834115510549F03A
:100F1000E359FF4F80819181ED56F040DA018D93C6
:100F20009C932115310539F0E159FF4F8081918162
:100F3000F90191838083DF91CF910895EF92FF9221
:100F40000F931F93CF93DF939C01EE24FC01EA5A89
:100F5000FF4F80818D3231F4EE24E394E901C95AC8
:100F6000DF4F01C0EF018E0120E030E040E050E0B3
:100F700018C0CA01B9012AE030E040E050E00E9408
:100F800065142F2D332727FD3095432F532F2053E2
:100F9000304040405040260F371F481F591F0F5FF9
:100FA0001F4FF801F0808F2D80538A3010F3CA0153
:100FB000B90124E630E040E050E00E9465149B0156
:100FC000AC0101C021969881892F80538A30D0F3DB
:100FD0009E3229F59981892F80538A3000F58AE065
:100FE0009802C0011124805E9140AA2797FDA09528
:100FF000BA2F280F391F4A1F5B1F9A81892F8053F0
:101000008A3068F4892F992787FD9095C097AA2781
:1010100097FDA095BA2F280F391F4A1F5B1FEE209E
:1010200039F050954095309521953F4F4F4F5F4F88
:10103000B901CA01DF91CF911F910F91FF90EF90FD
:1010400008954F925F926F927F928F929F92AF928C
:10105000BF92CF92DF92EF92FF920F931F93CF93A5
:10106000DF9326E5822E912C880E991EE40120E064
:1010700030E040E050E017C0CA01B9012AE030E09A
:1010800040E050E00E946514212F332727FD309562
:10109000432F532F2053304040405040260F371FDE
:1010A000481F591F21961881812F80538A3020F3C1
:1010B000722E632E542E452EB901CA0124E630E06B
:1010C00040E050E00E94971420E137E240E050E019
:1010D0000E9465145B016C0103C00894811C911C83
:1010E000F4019081892F80538A30B8F39E3269F5DC
:1010F00088EEE82E83E0F82E012D112D1DC0332738
:1011000027FD309520533040442737FD4095542F1C
:10111000C801B7010E946514A60EB71EC81ED91ECD
:10112000C801B7012AE030E040E050E00E94971487
:10113000C901DA017C018D010894811C911CF40124
:101140002081822F80538A30D0F2C601B50126E07B
:1011500030E040E050E00E94971479018A01672D49
:10116000762D852D942D24E630E040E050E00E945D
:101170009714CA01B90120EA36E841E050E00E9424
:101180006514E60EF71E081F191FB701C801DF918D
:10119000CF911F910F91FF90EF90DF90CF90BF9074
:1011A000AF909F908F907F906F905F904F90089539
:1011B000FC0160A171A182A193A16F3FF9EC7F07AF
:1011C000FAE98F07FBE39F0729F4E0E074E284E784
:1011D00069E40AC00E944A1320E030E048EC52E47F
:1011E0000E94AF12E62F692F2E2F372F482F562F30
:1011F000B901CA010895FC0160A971A982A993A946
:101200006F3FF9EC7F07FAE98F07FBE39F0729F4AB
:10121000E0E070E08AE764E40AC00E94481320E03E
:1012200030E048EC52E40E94AF12E62F692F2E2FD7
:10123000372F482F562FB901CA010895EF92FF9218
:101240000F931F93FC0160A571A582A593A56F3F25
:10125000F9EC7F07FAE98F07FBE39F07E9F00E94AB
:10126000481320E030E048EC52E40E94AF127B01CA
:101270008C0120E030E040E85FEB0E94AB12882355
:1012800059F0C801B70126E53EE04DEE5FE30E944C
:10129000FE13E62F692F04C0E0E070E080E86FEBFA
:1012A0002E2F372F482F562FB901CA011F910F91AA
:1012B000FF90EF9008950F931F93CF93DF93FC015E
:1012C000EB0189016115710541F080859185A28549
:1012D000B38588839983AA83BB834115510549F05F
:1012E00080819181A281B381EA0188839983AA8355
:1012F000BB830115110509F1EF01CC5BDF4F88813C
:101300009981AA81BB818F5F9F4FAF4FBF4F29F457
:101310002FEF3FEF4FEF5FEF0BC0DCD79B01AC012E
:1013200088819981AA81BB81281B390B4A0B5B0BF1
:10133000E801288339834A835B83DF91CF911F9132
:101340000F9108952F923F924F925F926F927F92EA
:101350008F929F92AF92BF92CF92DF92EF92FF92C5
:101360000F931F93DF93CF93CDB7DEB728970FB6B8
:10137000F894DEBF0FBECDBF3B012A0119019401D5
:10138000BE016F5F7F4FAE014B5F5F4F94DF611413
:101390007104B9F069817A818B819C8124E630E007
:1013A00040E050E00E949714613571051CF420ED77
:1013B00037E002C02CE637E0260F371FF3013183F8
:1013C000208341145104A1F069817A818B819C8131
:1013D00024E630E040E050E00E949714CA01B901D1
:1013E00024E630E040E050E00E949714F201608370
:1013F0002114310461F069817A818B819C8120E123
:1014000037E240E050E00E949714F101208301157B
:10141000110561F06D817E818F81988520E432E431
:101420004FE050E00E949714F8012083E114F1048A
:10143000A1F06D817E818F81988520E137E240E0C7
:1014400050E00E949714CA01B90124E630E040E060
:1014500050E00E949714F7016083C114D104A1F0F9
:101460006D817E818F81988524E630E040E050E0F8
:101470000E949714CA01B90124E630E040E050E030
:101480000E949714F6016083A114B10461F06D818C
:101490007E818F81988524E630E040E050E00E9414
:1014A0009714F501608328960FB6F894DEBF0FBE3F
:1014B000CDBFCF91DF911F910F91FF90EF90DF9003
:1014C000CF90BF90AF909F908F907F906F905F90E4
:1014D0004F903F902F9008950F931F93CF93DF93DA
:1014E000FC01EB0189016115710541F08089918949
:1014F000A289B38988839983AA83BB834115510547
:1015000049F0808D918DA28DB38DEA0188839983F6
:10151000AA83BB830115110509F1EF01C45BDF4FFD
:1015200088819981AA81BB818F5F9F4FAF4FBF4F49
:1015300029F42FEF3FEF4FEF5FEF0BC0CBD69B01AE
:10154000AC0188819981AA81BB81281B390B4A0B88
:101550005B0BE801288339834A835B83DF91CF915A
:101560001F910F910895EF92FF920F931F93DF93B6
:10157000CF93CDB7DEB728970FB6F894DEBF0FBE76
:10158000CDBF8B017A01BE016F5F7F4FAE014B5F14
:101590005F4FA2DF69817A818B819C816F3F29EC4B
:1015A00072072AE982072BE3920729F4E0E070E052
:1015B0008AE764E409C00E944A1320E030E543EC66
:1015C00057E4CDD7E62F692F2E2F372F482F562FD0
:1015D000C901DA01F80180839183A283B3838981F1
:1015E0009A81AB81BC818F5F994CAA49BB4329F496
:1015F000E0E070E08AE764E40DC06D817E818F8158
:1016000098850E944A1320E030E543EC57E4A7D7C1
:10161000E62F692F2E2F372F482F562FC901DA01B9
:10162000F70180839183A283B38328960FB6F89441
:10163000DEBF0FBECDBFCF91DF911F910F91FF9005
:10164000EF900895FF920F931F93CF93DF93EC01D8
:10165000CB5ADF4F8881C555D040882309F4E9C0B3
:10166000CA5ADF4F9881C655D040892F81548630A1
:1016700038F4292F332727FD3095275330400CC0ED
:10168000292F332727FD30959156963018F427558A
:10169000304002C020533040C95ADF4F4881C755FF
:1016A000D040842F8154863030F4842F992787FDD1
:1016B0009095C7970BC0842F992787FD9095415629
:1016C000463018F48755904001C0C09754E0220F6F
:1016D000331F5A95E1F7982F920FCC5ADF4F88812C
:1016E000C455D040981709F09BC0C859DF4F888176
:1016F000C856D040882309F494C1FE01E359FF4F36
:1017000080819181019691838083FE01EC5BFF4F84
:10171000C85BDF4F88819981AA81BB81C854D040C2
:1017200080839183A283B383FE01E45BFF4FC05BA0
:10173000DF4F88819981AA81BB8180839183A283B5
:10174000B38365968881C556D0408823A1F1813046
:1017500009F064C08C819D81AE81BF8188839983AB
:10176000AA83BB838C859D85AE85BF858887998735
:10177000AA87BB878C899D89AE89BF89888B998B05
:10178000AA8BBB8B8C8D9D8DAE8DBF8D888F998FD5
:10179000AA8FBB8F8CA59DA5AEA5BFA588A799A72D
:1017A000AAA7BBA78CA99DA9AEA9BFA988AB99ABD5
:1017B000AAABBBAB33C08CA19DA1AEA1BFA188A336
:1017C00099A3AAA3BBA38C819D81AE81BF8188838D
:1017D0009983AA83BB838C899D89AE89BF89888BB5
:1017E000998BAA8BBB8B8C8D9D8DAE8DBF8D888F79
:1017F000998FAA8FBB8FFE01E05CFF4FCE5BDF4F5E
:1018000088819981C254D040918380838CAD9DADF5
:10181000AEADBFAD88AF99AFAAAFBBAF81E002C19B
:10182000FE01E159FF4F8081918101969183808370
:10183000F8C0CA59DF4F8881C656D040882321F5A9
:101840009E012A5A3F4FD901EBEBF1E002C01196FD
:1018500031969C91992339F080819817C1F3D90171
:10186000E1ECF1E006C0CB59DF4F81E0E4C0119616
:1018700031969C91992321F080819817C1F3D8C0AB
:10188000CB59DF4F1882CDC0CB59DF4F3881C556B9
:10189000D040323009F4C5C0CA5ADF4F2881C6553E
:1018A000D040222309F4BDC0E32FF0E045E0EE0F65
:1018B000FF1F4A95E1F790E0E82BF92B3197E932C9
:1018C000F10508F0AEC0EC5CFF4FEE0FFF1F059076
:1018D000F491E02D0994CE0131DB6C837D838E83FE
:1018E0009F83F8D4C85BDF4F11C0FE01E859FF4F5A
:1018F0001082213409F095C079C0CE01A2DB6C8B37
:101900007D8B8E8B9F8BE6D4C05BDF4F68837983A2
:101910008A839B8386C0233509F083C08C899D8987
:10192000AE89BF89B095A095909581959F4FAF4F97
:10193000BF4F8C8B9D8BAE8BBF8B73C0CE0181DB79
:101940006C8F7D8F8E8F9F8F6CC0273509F069C09B
:101950008C8D9D8DAE8DBF8DB095A0959095819508
:101960009F4FAF4FBF4F8C8F9D8FAE8FBF8F59C092
:10197000CE01E4DA6CA77DA78EA79FA752C0CE0147
:10198000DDDA6CAB7DAB8EAB9FAB4BC08E010A5AE0
:101990001F4F20E030E040E050E017C0CA01B9011D
:1019A0002AE030E040E050E090D72F2D332727FD8C
:1019B0003095432F532F2053304040405040260F46
:1019C000371F481F591F0F5F1F4FF801F0808F2DE1
:1019D00080538A3018F32C873D874E875F8721C05C
:1019E000FE01E859FF4F10822133DCF081E0808353
:1019F00018C0CE018A5A9F4F0E94FD00FE01EE5B87
:101A0000FF4F808311820DC0CE0198DA6CAF7DAF9D
:101A10008EAF9FAF06C0CE0191DA6CA37DA38EA3DB
:101A20009FA380E0DF91CF911F910F91FF900895C8
:101A3000CB59DF4F82E08883F4CF1F93CF93DF939E
:101A4000EC01162FFC01E759FF4F80819181A281A3
:101A5000B3810196A11DB11D80839183A283B383BD
:101A6000643299F1DE01A959BF4F65322CF46A3016
:101A700069F06D30C1F50AC06A3241F06C3299F5F7
:101A8000FE01EC5AFF4F8081862780838C918F3036
:101A900010F090E009C0FE01E80FF11DEA5AFF4F77
:101AA0001082CE01CFDD982FFE01EA59FF4F8081D1
:101AB0008F5F8083C959DF4F1882FE0172971082B1
:101AC0001A3251F581E0808327C0C959DF4F18824F
:101AD0001A9262971882619682E0888360971882D2
:101AE0006396188218C08C918E3040F4FE01E80F86
:101AF000F11DEA5AFF4F10838F5F8C93CB5ADF4F53
:101B00008881C555D040882331F4FE01EC5AFF4F3F
:101B100080818127808390E0892FDF91CF911F9171
:101B20000895FC0180916503909166038E179F07CD
:101B300011F480E00895838D8E7F838F9FB7F89492
:101B40001092A7038091A7038093A803F0936603E4
:101B5000E09365039FBF81E008950F931F93CF9398
:101B6000DF93FC01738D76957170A685B785958599
:101B7000772329F08C91892309F454C004C08C91F7
:101B8000892309F04FC08389948920E001972FEFC2
:101B90008F3F9207D9F7C589D689A685B785158560
:101BA00060E031E040E050E000E0CE01202F0197FE
:101BB0002FEF8F3F9207D9F78C91812311F0632B80
:101BC00003C0832F80956823330F4F5F5F4F4830EA
:101BD000510559F78789908D20E001972FEF8F3FAE
:101BE0009207D9F7711160958091A7032091A803FE
:101BF00090E001968F73907030E08217930779F030
:101C0000E091A703F0E0E959FC4F60838091A703BE
:101C100090E001968F7390708093A70303C0838D2B
:101C20008160838FDF91CF911F910F9108951F9253
:101C30000F920FB60F9211242F933F934F935F9300
:101C40006F937F938F939F93AF93BF93EF93FF9384
:101C50008091650390916603009709F07EDFFF9104
:101C6000EF91BF91AF919F918F917F916F915F9114
:101C70004F913F912F910F900FBE0F901F9018958D
:101C80001F920F920FB60F9211242F933F934F93F1
:101C90005F936F937F938F939F93AF93BF93EF93D4
:101CA000FF938091650390916603009709F055DFDB
:101CB000FF91EF91BF91AF919F918F917F916F9124
:101CC0005F914F913F912F910F900FBE0F901F90FA
:101CD00018951F920F920FB60F9211242F933F93D6
:101CE0004F935F936F937F938F939F93AF93BF9324
:101CF000EF93FF938091650390916603009709F03D
:101D00002CDFFF91EF91BF91AF919F918F917F91C8
:101D10006F915F914F913F912F910F900FBE0F9058
:101D20001F901895CF92DF92EF92FF920F931F931F
:101D3000CF93DF93EC017A018B011A8E198E188EE6
:101D40001F8A1E8A1D8A1C8A1B8A20E030E06901D6
:101D5000CC0CDD1CC20ED31EB601660F771F660FBA
:101D6000771FAB0146545F4FFA0185919591A5917C
:101D7000B4918E159F05A007B107E9F4FB01E25469
:101D8000FF4F859194919C8B8B8BFB01E054FF4F0F
:101D9000859194919E8B8D8BFB01EE53FF4F859126
:101DA0009491988F8F8BFB01EC53FF4F8591949109
:101DB0009A8F898F06C02F5F3F4F2C30310509F075
:101DC000C6CF8F89988D892B09F449C04C8546313F
:101DD00008F03DC090916800483010F484E005C0E0
:101DE0004E3010F082E001C081E0892B80936800C2
:101DF000483028F4EDE6F0E0ADE6B0E00BC04E3040
:101E000028F0ECE6F0E0ACE6B0E004C0EBE6F0E091
:101E1000ABE6B0E05081483040F481E090E002C091
:101E2000880F991F4A95E2F710C0242F30E04E30FA
:101E300018F42850304002C02E50304081E090E02D
:101E400002C0880F991F2A95E2F7852B8C93898D04
:101E50009A8D20E001972FEF8F3F9207D9F780915D
:101E60006503909166038C179D0781F08B8D8E7FA3
:101E70008B8F9FB7F8941092A7038091A70380934C
:101E8000A803D0936603C09365039FBFDF91CF91F2
:101E90001F910F91FF90EF90DF90CF900895FC017C
:101EA0004485463180F5483028F4EDE6F0E0ADE6B3
:101EB000B0E00BC04E3028F4EBE6F0E0ABE6B0E06B
:101EC00004C0ECE6F0E0ACE6B0E05081483040F40D
:101ED00081E090E002C0880F991F4A95E2F710C098
:101EE000242F30E04E3018F42850304002C02E50DD
:101EF000304081E090E002C0880F991F2A95E2F7F8
:101F0000809585238C930895FC018FE092E0918366
:101F10008083CF01C4CF20916503309166032817D9
:101F2000390731F49091A8038091A703981719F409
:101F30002FEF3FEF0FC0E091A803F0E0E959FC4F0D
:101F400020818091A80390E001968F739070809318
:101F5000A80330E0C901089520916503309166031C
:101F60002817390719F020E030E00DC08091A70351
:101F70002091A80390E0805C9F4F821B910960E450
:101F800070E0C2D49C01C90108950F931F93DC0136
:101F900059968D919C915A97892B49F481E090E054
:101FA00013969C938E93129720E030E097C00FB762
:101FB000F8945B968C915B975196ED91FC915297BA
:101FC00050962C91509781FF8DC08081822B808309
:101FD00059968D919C915A97059620E001972FEF85
:101FE0008F3F9207D9F75B968C915B9781FF35C045
:101FF00031E040E050E070E010E0832F90E0862375
:1020000097235196ED91FC91529750962C915097B1
:10201000892B29F0808120952823208303C080818B
:10202000822B808359968D919C915A97212F0197ED
:102030002FEF8F3F9207D9F7330F4F5F5F4F483035
:102040005105D9F65196ED91FC9152979081509699
:102050008C9150978095892333C031E040E050E067
:1020600070E010E0832F90E0862397235196ED9146
:10207000FC91529750962C915097892B21F080819A
:10208000822B808304C08081209528232083599649
:102090008D919C915A97212F01972FEF8F3F920797
:1020A000D9F7330F4F5F5F4F48305105D9F651963E
:1020B000ED91FC915297808150969C915097892B7D
:1020C00080830FBF59968D919C915A9720E001977C
:1020D0002FEF8F3F9207D9F721E030E0C9011F9120
:1020E0000F910895808120952823208371CF20911E
:1020F0006503309166032817390749F49FB7F894B0
:102100001092A7038091A7038093A8039FBF08950F
:1021100020916503309166032817390731F49091B7
:10212000A8038091A703981719F42FEF3FEF0AC077
:10213000E091A803F0E0E959FC4F8081282F332774
:1021400027FD3095C90108951F93CF93DF93EC01CC
:10215000162F862F60E007D18B8D81FD03C0812F64
:1021600061E040D11C87212F30E0C90184589E4F87
:10217000FC0184918D8728593E4FF9016491E62F27
:10218000F0E0EE0FFF1FE25AFE4F859194919F877A
:102190008E87DF91CF911F910895FF920F931F9328
:1021A0008C01F62E862F61E0DED08F2D61E01AD1F2
:1021B0008F2D90E0FC01E458FE4FE491D801509639
:1021C000EC93509788599E4FFC016491E62FF0E004
:1021D000EE0FFF1FEC5AFE4F8591949152969C93FF
:1021E0008E9351971F910F91FF900895FF920F9337
:1021F0001F938C01F62EFC011382128288EE93E06D
:10220000A0E0B0E084839583A683B7838FE092E05B
:1022100091838083148A138A168A158A108E178AEE
:10222000128E118E838D2170220F8C7F822B838FD3
:10223000C801642FB2DFC8016F2D86DF1F910F9197
:10224000FF9008951F920F920FB60F9211242F93B3
:102250003F938F939F93AF93BF938091AD039091E2
:10226000AE03A091AF03B091B0033091B1030196DA
:10227000A11DB11D232F2D5F2D3720F02D57019665
:10228000A11DB11D2093B1038093AD039093AE03C4
:10229000A093AF03B093B0038091A9039091AA03D8
:1022A000A091AB03B091AC030196A11DB11D809329
:1022B000A9039093AA03A093AB03B093AC03BF917F
:1022C000AF919F918F913F912F910F900FBE0F90E3
:1022D0001F9018958FB7F8942091AD033091AE03FD
:1022E0004091AF035091B0038FBFB901CA01089567
:1022F000789484B5826084BD84B5816084BD85B5E1
:10230000826085BD85B5816085BDEEE6F0E08081A7
:1023100081608083E1E8F0E01082808182608083C8
:10232000808181608083E0E8F0E08081816080834B
:10233000E1EBF0E0808184608083E0EBF0E080817D
:1023400081608083EAE7F0E080818460808380811F
:1023500082608083808181608083808180688083C7
:102360001092C1000895CF93DF93482F50E0CA0127
:1023700084589E4FFC01349148595E4FFA01849174
:10238000882369F190E0880F991FFC01E65BFE4FFE
:10239000A591B491FC01EC5AFE4FC591D4916623EE
:1023A00051F42FB7F8948C91932F909589238C93A7
:1023B000888189230BC0623061F42FB7F8948C9127
:1023C000932F909589238C938881832B88832FBFAB
:1023D00006C09FB7F8948C91832B8C939FBFDF919D
:1023E000CF910895482F50E0CA0180579E4FFC01BD
:1023F0002491CA0184589E4FFC01949148595E4F24
:10240000FA013491332309F440C0222351F12330DF
:1024100071F0243028F42130A1F0223011F514C0DD
:102420002630B1F02730C1F02430D9F404C08091B7
:1024300080008F7703C0809180008F7D8093800023
:1024400010C084B58F7702C084B58F7D84BD09C06C
:102450008091B0008F7703C08091B0008F7D809312
:10246000B000E32FF0E0EE0FFF1FEC5AFE4FA591F6
:10247000B4912FB7F894662321F48C919095892319
:1024800002C08C91892B8C932FBF08955058BB2785
:10249000AA270ED075C166D130F06BD120F031F48F
:1024A0009F3F11F41EF45BC10EF4E095E7FB51C1B0
:1024B000E92F77D180F3BA1762077307840795076E
:1024C00018F071F49EF58FC10EF4E0950B2EBA2F23
:1024D000A02D0B01B90190010C01CA01A00111242A
:1024E000FF27591B99F0593F50F4503E68F11A16D6
:1024F000F040A22F232F342F4427585FF3CF469567
:1025000037952795A795F0405395C9F77EF41F1688
:10251000BA0B620B730B840BBAF09150A1F0FF0F52
:10252000BB1F661F771F881FC2F70EC0BA0F621F3E
:10253000731F841F48F4879577956795B795F7952E
:102540009E3F08F0B3CF9395880F08F09927EE0FC0
:10255000979587950895D9D008F481E008950CD017
:102560000FC107D140F0FED030F021F45F3F19F0E9
:10257000F0C0511139C1F3C014D198F39923C9F3B4
:102580005523B1F3951B550BBB27AA276217730779
:10259000840738F09F5F5F4F220F331F441FAA1F2D
:1025A000A9F333D00E2E3AF0E0E830D091505040ED
:1025B000E695001CCAF729D0FE2F27D0660F771F9B
:1025C000881FBB1F261737074807AB07B0E809F07D
:1025D000BB0B802DBF01FF2793585F4F2AF09E3F12
:1025E000510568F0B6C000C15F3FECF3983EDCF3E4
:1025F000869577956795B795F7959F5FC9F7880F8B
:10260000911D9695879597F90895E1E0660F771FDC
:10261000881FBB1F621773078407BA0720F0621B6D
:10262000730B840BBA0BEE1F88F7E095089504D066
:102630006894B111D9C00895BCD088F09F5790F02C
:10264000B92F9927B751A0F0D1F0660F771F881FD7
:10265000991F1AF0BA95C9F712C0B13081F0C3D0F2
:10266000B1E00895C0C0672F782F8827B85F39F090
:10267000B93FCCF3869577956795B395D9F73EF436
:1026800090958095709561957F4F8F4F9F4F0895DE
:10269000E89409C097FB3EF49095809570956195FC
:1026A0007F4F8F4F9F4F9923A9F0F92F96E9BB27B2
:1026B0009395F695879577956795B795F111F8CF2E
:1026C000FAF4BB0F11F460FF1BC06F5F7F4F8F4F99
:1026D0009F4F16C0882311F096E911C0772321F08F
:1026E0009EE8872F762F05C0662371F096E8862F27
:1026F00070E060E02AF09A95660F771F881FDAF77E
:10270000880F9695879597F90895990F0008550FAA
:10271000AA0BE0E8FEEF16161706E807F907C0F067
:1027200012161306E407F50798F0621B730B840B6F
:10273000950B39F40A2661F0232B242B252B21F449
:1027400008950A2609F4A140A6958FEF811D811DE9
:10275000089597F99F6780E870E060E008959FEF23
:1027600080EC089500240A94161617061806090628
:10277000089500240A9412161306140605060895F7
:10278000092E0394000C11F4882352F0BB0F40F47F
:10279000BF2B11F460FF04C06F5F7F4F8F4F9F4FBF
:1027A000089557FD9058440F551F59F05F3F71F041
:1027B0004795880F97FB991F61F09F3F79F08795A8
:1027C0000895121613061406551FF2CF4695F1DF31
:1027D00008C0161617061806991FF1CF86957105C1
:1027E000610508940895E894BB2766277727CB01F5
:1027F00097F908958ADF08F48FEF08950BD0C0CFC2
:10280000B1DF28F0B6DF18F0952309F0A2CFA7CFEB
:102810001124EACFC6DFA0F3959FD1F3950F50E0C6
:10282000551F629FF001729FBB27F00DB11D639F82
:10283000AA27F00DB11DAA1F649F6627B00DA11D28
:10284000661F829F2227B00DA11D621F739FB00DCE
:10285000A11D621F839FA00D611D221F749F33273E
:10286000A00D611D231F849F600D211D822F762FD7
:102870006A2F11249F5750408AF0E1F088234AF0D4
:10288000EE0FFF1FBB1F661F771F881F9150504020
:10289000A9F79E3F510570F05CCFA6CF5F3FECF3E8
:1028A000983EDCF3869577956795B795F795E7950C
:1028B0009F5FC1F7FE2B880F911D9695879597F91D
:1028C000089523DF880B990B0895629FD001739FB1
:1028D000F001829FE00DF11D649FE00DF11D929FBC
:1028E000F00D839FF00D749FF00D659FF00D9927FB
:1028F000729FB00DE11DF91F639FB00DE11DF91F1F
:10290000BD01CF011124089597FB092E07260AD097
:1029100077FD04D02ED006D000201AF47095619572
:102920007F4F0895F6F7909581959F4F0895A1E206
:102930001A2EAA1BBB1BFD010DC0AA1FBB1FEE1F39
:10294000FF1FA217B307E407F50720F0A21BB30B84
:10295000E40BF50B661F771F881F991F1A9469F700
:1029600060957095809590959B01AC01BD01CF015C
:102970000895AA1BBB1B51E107C0AA1FBB1FA617C6
:10298000B70710F0A61BB70B881F991F5A95A9F718
:1029900080959095BC01CD010895EE0FFF1F059025
:1029A000F491E02D099411E0C8EAD1E003C0FE01E2
:0E29B000F6DF2296CA3AD107D1F7F894FFCF8E
:1029BE004C61742F4C6F6E673A20002C20004461DE
:1029CE0074653A20002F002054696D653A20003A54
:1029DE00002E00416C74697475646520286D6574F1
:1029EE00657273293A2000436F75727365202864EF
:1029FE00656772656573293A2000537065656428B2
:102A0E006B6D7068293A2000536174656C6C697443
:102A1E0065733A20000047505320536869656C6413
:102A2E0020517569636B5374617274204578616DC2
:102A3E00706C6520536B65746368207631320020AC
:102A4E002E2E2E77616974696E6720666F72206C08
:102A5E006F636B2E2E2E2000202E2E2E006E616E9A
:102A6E0000696E66006F7666002E004750524D4329
:102A7E00004750474741004E004E4E45004E450020
:102A8E00454E4500450045534500534500535345BB
:102A9E0000530053535700535700575357005700D6
:102AAE00574E57004E57004E4E5700000000000F75
:102ABE0004B104A503D603B603FF0300000000C54E
:0C2ACE000FB104AC0F8B0F8810771000C4
:00000001FF
