:10000000DDC0000002C1000000C100000C94A51278
:100010000C94CE120C94F712F8C00000F6C0000049
:10002000F4C00000F2C00000F0C00000EEC000000C
:10003000ECC00000EAC00000E8C00000E6C000001C
:1000400054C50000E2C0000075C60000C0C6000034
:10005000DCC00000DAC00000D8C00000D6C000003C
:10006000D4C00000D2C00000F610091118112B11E5
:1000700032117E118711921199119F119F119F11B9
:100080009F119F119F119F119F119F119F119F11F0
:100090009F119F119F119F119F119F119F119F11E0
:1000A0009F119F119F119F11F61001110911181135
:1000B0002B11321145114C11531100000000240086
:1000C00027002A0000000000250028002B00000067
:1000D000000023002600290004040404040404048E
:1000E00002020202020203030303030301020408E3
:1000F0001020408001020408102001020408102092
:1001000000000007000201000003040600000000D8
:100110000000000000C201000100110011000C00ED
:1001200000E100000A0025002500210000960000E3
:100130001900390039003600127A00001F0046000D
:10014000460044008070000022004D004D004A002F
:10015000004B00003600750075007200403800004A
:100160004A009C009C009900802500007200EC0071
:10017000EC00E900C0120000E900DA01DA01D70161
:1001800060090000D701B603B603B303B004000052
:10019000B3036E076E076B072C010000DC0EC11D58
:1001A000C11DBE1D7C3C3E5E2B3D3F2F5B5D3B2C4D
:1001B0002A225C007C035308B515770311241FBE67
:1001C000CFEFD8E0DEBFCDBF12E0A0E0B1E0E0E8C5
:1001D000F8E502C005900D92A03AB107D9F716E0F4
:1001E000A0EAB2E001C01D92AE3BB107E1F711E019
:1001F000CAEBD1E004C02297FE010E94F92BC43B58
:10020000D107C9F7A6D70C94342CFACECF93DF933D
:10021000BC018230910510F462E070E0A091BC0650
:10022000B091BD06ED01E0E0F0E040E050E021C01B
:10023000888199818617970769F48A819B81309715
:1002400019F09383828304C09093BD068093BC060B
:10025000FE0134C06817790738F44115510519F0CB
:100260008417950708F4AC01FE018A819B819C01EB
:10027000E9012097E9F641155105A9F1CA01861B4C
:10028000970B049708F4BA01E0E0F0E02AC08D91E2
:100290009C91119784179507F9F46417750781F4F9
:1002A00012968D919C911397309719F093838283C6
:1002B00004C09093BD068093BC06FD0132964CC0ED
:1002C000CA01861B970BFD01E80FF91F619371931B
:1002D00002978D939C9340C0FD01828193819C0184
:1002E000D9011097A1F68091BA069091BB06892B8F
:1002F00041F480915E0290915F029093BB068093DF
:10030000BA0640916002509161024115510541F4D5
:100310004DB75EB780915C0290915D02481B590B0E
:100320002091BA063091BB06CA01821B930B861737
:10033000970780F0AB014E5F5F4F8417950750F031
:10034000420F531F5093BB064093BA06F9016193C5
:10035000719302C0E0E0F0E0CF01DF91CF9108950A
:10036000CF93DF93009709F450C0EC0122971B82D2
:100370001A82A091BC06B091BD06109709F140E029
:1003800050E0AC17BD0708F1BB83AA83FE012191A1
:100390003191E20FF31FAE17BF0779F48D919C9155
:1003A0001197280F391F2E5F3F4F398328831296EC
:1003B0008D919C9113979B838A834115510571F40C
:1003C000D093BD06C093BC0620C012968D919C911F
:1003D0001397AD01009711F0DC01D3CFFA01D3835D
:1003E000C28321913191E20FF31FCE17DF0769F429
:1003F00088819981280F391F2E5F3F4FFA01318381
:1004000020838A819B8193838283DF91CF9108959A
:10041000A0E0B0E0EEE0F2E00C94FF2B6C0100975E
:1004200021F4CB01F3DE6C01BDC08EEF882E8FEF7F
:10043000982E8C0C9D1C8601060F171F0815190598
:1004400008F4AEC0F401A081B181A617B707B0F0DF
:10045000A530B10508F4A6C0CD010497861797070B
:1004600008F4A0C01297A61BB70BF801A193B19393
:10047000D4016D937C93CF0173DF94C07B01EA1AA2
:10048000FB0AEEEFFFEFEE0EFF1E36016A0E7B1E3B
:10049000C091BC06D091BD0644245524AA24BB2497
:1004A0004AC0C615D705E1F5488159814E155F054B
:1004B000B8F1CA0104978E159F05B0F41296A40FE7
:1004C000B51FF401B183A0832A813B8141145104FB
:1004D00031F0D20113963C932E93129763C0309360
:1004E000BD062093BC065EC08A819B81F801938380
:1004F0008283425050404E195F095183408341141A
:10050000510431F0D20113961C930E93129704C03C
:100510001093BD060093BC06F4017183608342C052
:1005200088819981A816B90608F45C012E018A8198
:100530009B819C01E901209709F0B3CF8091BA0615
:100540009091BB0686159705E9F4A616B706D0F478
:1005500020916002309161022115310541F42DB7DF
:100560003EB780915C0290915D02281B390B021707
:100570001307B0F41093BB060093BA06D4016D9331
:100580007C9310C0CB0142DEEC01009749F0F401EE
:1005900040815181B60136D0C601E2DE6E0102C053
:1005A000CC24DD24C601CDB7DEB7E0E10C941B2CD2
:1005B000FC0188279927E89421912032E9F329301A
:1005C00010F02E30C8F32B3239F02D3231F468940C
:1005D00003C042D0820F911D219120532A30C8F3CD
:1005E0001EF4909581959F4F0895FB01DC0104C096
:1005F0008D910190801921F441505040C8F7881B1B
:10060000990B0895FB01DC0102C001900D9241504D
:100610005040D8F70895FC018191861721F0882376
:10062000D9F7992708953197CF010895FB01DC018F
:1006300001900D920020E1F70895FB01DC0141508B
:10064000504048F001900D920020C9F701C01D9262
:1006500041505040E0F708957AE0979F902D879F92
:10066000802D910D112408958130910531F56F5F32
:100670007F4FE1F580EA92E00E94AC0B83E193E0CA
:100680006EE04FE020E00E9489158FE393E060E088
:1006900071E00E948E0B86E493E060E071E00E94BE
:1006A0008E0B8DE493E060E071E00E948E0B84E598
:1006B00093E068E071E00C948E0B892BB9F46F5FC6
:1006C0007F4FA1F484E593E00E94A70B8DE493E0B3
:1006D0000E94A70B86E493E00E94A70B8FE393E0B0
:1006E0000E94A70B83E193E00C941214089580E01C
:1006F00090E06FEF7FEFB8CF81E090E06FEF7FEF9A
:10070000B3CF0F931F93DF93CF93CDB7DEB76B9724
:100710000FB6F894DEBF0FBECDBF8E010F5F1F4F27
:10072000C8016AE574E049E051E023E10E94FB164C
:10073000C8010E94AA18882309F439C01ED2AB014F
:10074000BC01C8012AE030E0D8D5C80162E171E0FF
:1007500079D680EA92E00E945F0DAB01BC01C8012E
:1007600022E030E051D7C80162E171E06BD64091E0
:100770005B0350915C0360915D0370915E03C8015F
:1007800027E030E041D7C80162E171E05BD64091DB
:100790005F03509160036091610370916203C8012F
:1007A00027E030E033D7C8010E94B71805C084EFB6
:1007B00093E064E171E03BD7CE0101960E946D1891
:1007C0006B960FB6F894DEBF0FBECDBFCF91DF9111
:1007D0001F910F9108950F931F93DF93CF93CDB780
:1007E000DEB76B970FB6F894DEBF0FBECDBF8AE5BC
:1007F00094E06AE04FEF2FEF0FEF0E942818882354
:1008000031F484EF93E061E371E011D724C08E01ED
:100810000F5F1F4FC8016AE574E049E051E023E132
:100820000E94FB16C8010E94AA18882359F0C8012B
:100830006EE371E0FCD6C8010E94C818C8010E948E
:10084000B71805C084EF93E064E171E0F0D6CE0103
:1008500001960E946D186B960FB6F894DEBF0FBE1E
:10086000CDBFCF91DF911F910F9108958F929F92ED
:10087000AF92BF92CF92DF92EF92FF920F931F93AE
:1008800083E193E00E941F12F4C083E193E00E9491
:100890001914682F80EA92E00E94AB11882309F4B2
:1008A000E8C080EA92E06BE573E04FE553E020E0BA
:1008B00030E00E943C0F84EF93E060E671E0C2D527
:1008C00040915B0350915C0360915D0370915E0306
:1008D00084EF93E027E030E097D684EF93E06BE677
:1008E00071E0B0D540915F03509160036091610366
:1008F0007091620384EF93E027E030E087D680EACE
:1009000092E06FE273E041E353E022E333E003E37C
:1009100013E0A4E3EA2EA3E0FA2EF5E3CF2EF3E0F2
:10092000DF2EE6E3AE2EE3E0BE2E882499240E945B
:100930002A0E84EF93E06EE671E084D584EF93E0B5
:10094000609131034AE050E000D584EF93E065E721
:1009500071E078D584EF93E0609132034AE050E093
:10096000F4D484EF93E065E771E06CD560912F03D8
:100970007091300384EF93E04AE050E051D584EF6A
:1009800093E067E771E05ED584EF93E06091330315
:100990004AE050E0DAD484EF93E06FE771E052D59B
:1009A00084EF93E0609134034AE050E0CED484EFCA
:1009B00093E06FE771E046D584EF93E060913503F3
:1009C0004AE050E0C2D484EF93E061E871E03AD5A8
:1009D00084EF93E0609136034AE050E0C7D484EF9F
:1009E00093E063E871E02ED580EA92E00E945F0D0B
:1009F000AB01BC0184EF93E022E030E007D684EF46
:100A000093E067E971E01ED580EA92E00E94820DD2
:100A1000AB01BC0184EF93E022E030E0F7D584EF36
:100A200093E06AEA71E00ED580EA92E00E94A50D9B
:100A3000AB01BC0184EF93E022E030E0E7D584EF26
:100A400093E068EB71E0FED46091E0027091E10206
:100A500084EF93E04AE050E05DD484EF93E0AED3BE
:100A600080EA92E067E373E04BE353E02DE333E089
:100A7000C0D683E193E00E943A14892B09F005CF98
:100A800040DE1F910F91FF90EF90DF90CF90BF90CD
:100A9000AF909F908F9008950F931F9304EF13E0F2
:100AA000C80140E052EC61E070E0CCD183E193E01A
:100AB00040EC52E160E070E00E942013C80168E061
:100AC00071E0B5D5C80165EC71E0B1D5C8016EEE35
:100AD00071E0ADD5C80167E072E0A9D58AE061E0B8
:100AE00095D079DE1F910F9108951F920F920FB646
:100AF0000F9211242F933F938F939F93AF93BF93A4
:100B00008091670390916803A0916903B0916A0393
:100B100030916B030196A11DB11D232F2D5F2D3741
:100B200020F02D570196A11DB11D20936B038093DA
:100B3000670390936803A0936903B0936A0380915D
:100B4000630390916403A0916503B09166030196DD
:100B5000A11DB11D8093630390936403A09365036B
:100B6000B0936603BF91AF919F918F913F912F9169
:100B70000F900FBE0F901F9018958FB7F89420918B
:100B80006703309168034091690350916A038FBFF6
:100B9000B901CA010895789484B5826084BD84B592
:100BA000816084BD85B5826085BD85B5816085BD68
:100BB000EEE6F0E0808181608083E1E8F0E0108281
:100BC000808182608083808181608083E0E8F0E0C2
:100BD000808181608083E1EBF0E0808184608083AC
:100BE000E0EBF0E0808181608083EAE7F0E08081E3
:100BF0008460808380818260808380818160808343
:100C00008081806880831092C1000895CF93DF9324
:100C1000482F50E0CA0184519F4FFC013491485243
:100C20005F4FFA018491882369F190E0880F991F42
:100C3000FC01E654FF4FA591B491FC01EC53FF4F2A
:100C4000C591D491662351F42FB7F8948C91932FCA
:100C5000909589238C93888189230BC0623061F43D
:100C60002FB7F8948C91932F909589238C9388813A
:100C7000832B88832FBF06C09FB7F8948C91832B5A
:100C80008C939FBFDF91CF910895482F50E0CA0108
:100C900080509F4FFC012491CA0184519F4FFC0159
:100CA000949148525F4FFA013491332309F440C0C4
:100CB000222351F1233071F0243028F42130A1F0A7
:100CC000223011F514C02630B1F02730C1F02430A5
:100CD000D9F404C0809180008F7703C08091800098
:100CE0008F7D8093800010C084B58F7702C084B55B
:100CF0008F7D84BD09C08091B0008F7703C0809143
:100D0000B0008F7D8093B000E32FF0E0EE0FFF1F67
:100D1000EC53FF4FA591B4912FB7F894662321F4BB
:100D20008C919095892302C08C91892B8C932FBF35
:100D3000089508951F920F920FB60F9211242F93CA
:100D40003F934F938F939F93EF93FF938091C000B6
:100D500082FD1DC04091C6002091AC033091AD03CF
:100D60002F5F3F4F2F7330708091AE039091AF0390
:100D70002817390771F0E091AC03F091AD03E45905
:100D8000FC4F40833093AD032093AC0302C08091AD
:100D9000C600FF91EF919F918F914F913F912F91BD
:100DA0000F900FBE0F901F901895E0910004F091E6
:100DB0000104E05CFF4F8191919120813181821B80
:100DC000930B8F739070892B09F0B3CF08951F9206
:100DD0000F920FB60F9211242F933F938F939F93EF
:100DE000EF93FF932091F0033091F1038091F20390
:100DF0009091F3032817390731F48091C1008F7D5A
:100E00008093C10014C0E091F203F091F303E05528
:100E1000FC4F20818091F2039091F30301968F7330
:100E200090709093F3038093F2032093C600FF9198
:100E3000EF919F918F913F912F910F900FBE0F9047
:100E40001F901895AF92BF92DF92EF92FF920F938F
:100E50001F93CF93DF93EC017A018B01DD244030A7
:100E600081EE580780E0680780E0780711F0DD2404
:100E7000D39491E0A92EB12CEC89FD89DD2069F095
:100E8000C50108A002C0880F991F0A94E2F7808369
:100E900060E079E08DE390E005C0108260E874E8DE
:100EA0008EE190E0A80197010E94C12B21503040B3
:100EB00040405040569547953795279580E1203022
:100EC000380720F0DD2011F0DD24D6CFE889F9893C
:100ED0003083EA89FB89208319A2EE89FF8940814A
:100EE00021E030E0C9010C8C02C0880F991F0A94E0
:100EF000E2F7482B4083EE89FF894081C9010D8CC0
:100F000002C0880F991F0A94E2F7482B4083EE89AC
:100F1000FF894081C9010E8C02C0880F991F0A9475
:100F2000E2F7482B4083EE89FF8980810F8C02C055
:100F3000220F331F0A94E2F7209528232083DF91A4
:100F4000CF911F910F91FF90EF90DF90BF90AF90E6
:100F50000895DC011C96ED91FC911D97E05CFF4F1C
:100F60002191319180819181281B390B2F73307031
:100F7000C9010895DC011C96ED91FC911D97E05C80
:100F8000FF4F20813181E054F040DF01AE5BBF4F65
:100F90008D919C9111972817390719F42FEF3FEF86
:100FA00007C08D919C91E80FF91F8081282F30E0B8
:100FB000C9010895DC011C96ED91FC911D97E05C40
:100FC000FF4F20813181E054F040DF01AE5BBF4F25
:100FD0008D919C9111972817390719F42FEF3FEF46
:100FE00010C08D919C911197E80FF91F20818D9170
:100FF0009C91119701968F73907011969C938E938C
:1010000030E0C9010895DC0191968C919197882375
:1010100039F05496ED91FC915597808186FFF9CF78
:1010200091961C920895CF93DF93EC01EE85FF8596
:10103000E05CFF4F20813181E054F0402F5F3F4F53
:101040002F733070DF01AE5BBF4F8D919C91119774
:1010500028173907D1F3E05CFF4F80819181E0547C
:10106000F040E80FF91F6083EE85FF85E05CFF4FDD
:1010700031832083EE89FF89208181E090E00F8C0D
:1010800002C0880F991F0A94E2F7282B208381E081
:1010900089A3EC89FD8980818064808381E090E070
:1010A000DF91CF9108951092F7031092F60388EE26
:1010B00093E0A0E0B0E08093F8039093F903A0934D
:1010C000FA03B093FB038AE692E09093F5038093D2
:1010D000F4038CE693E0909301048093000480EB8A
:1010E00093E0909303048093020485EC90E0909346
:1010F00005048093040484EC90E0909307048093AB
:10110000060480EC90E0909309048093080481EC3D
:1011100090E090930B0480930A0482EC90E090930B
:101120000D0480930C0486EC90E090930F04809360
:101130000E0484E08093100483E08093110487E020
:101140008093120485E08093130481E0809314045B
:101150000895CF93DF931FDD9FDCC5EDD6E086DBDE
:101160002097E9F322DEFBCFCF92DF92EF92FF923E
:101170000F931F93CF93DF937C016B018A01C0E033
:10118000D0E00FC0D6016D916D01D701ED91FC91BA
:101190000190F081E02DC7010995C80FD91F0150BA
:1011A00010400115110571F7CE01DF91CF911F910C
:1011B0000F91FF90EF90DF90CF900895EF92FF9204
:1011C0000F931F938C01DC01ED91FC910190F08154
:1011D000E02D6DE009957C01D801ED91FC91019025
:1011E000F081E02DC8016AE009959C012E0D3F1D9C
:1011F000C9011F910F91FF90EF900895CF93DF9356
:10120000EC016115710519F420E030E00FC0DB013D
:101210000D900020E9F71197A61BB70BE881F98123
:101220000280F381E02DAD0109959C01C901DF9198
:10123000CF9108954F925F927F928F929F92AF923B
:10124000BF92CF92DF92EF92FF920F931F93DF93A3
:10125000CF93CDB7DEB7A1970FB6F894DEBF0FBE20
:10126000CDBF2C01742ECB01223008F42AE019A244
:1012700031E2C32ED12CCC0EDD1E822E9924AA245D
:10128000BB24672D752FA50194010E94C12B790104
:101290008A01C801B701A50194010E948F2B472D37
:1012A000461B0894C108D1084A3014F4405D01C0BF
:1012B000495CF6014083E114F1040105110521F0B8
:1012C0007E2C5F2DC801DDCFC201B60197DFA1964C
:1012D0000FB6F894DEBF0FBECDBFCF91DF911F9147
:1012E0000F91FF90EF90DF90CF90BF90AF909F90C5
:1012F0008F907F905F904F900895DC01211531050C
:1013000041F4ED91FC910190F081E02D642F09955D
:10131000089590CFCF92DF92EF92FF920F931F9399
:101320006C017B019A0100E010E0B801A701E5DF44
:101330008C01C60143DF080F191FC8011F910F91CF
:10134000FF90EF90DF90CF900895EF92FF920F9370
:101350001F939A01E62EFF2400E010E0B801A701D8
:10136000CCDF1F910F91FF90EF900895CF92DF9205
:10137000EF92FF920F931F936C01E62E9A01FF24C8
:1013800000E010E0B801A701B8DF8C01C60116DF4C
:10139000080F191FC8011F910F91FF90EF90DF9068
:1013A000CF900895CF92DF92EF92FF920F931F9309
:1013B000CF93DF93EC016A017B012115310541F4E4
:1013C000E881F9810190F081E02D642F09951DC01D
:1013D0002A303105C9F477FF16C0E881F981019000
:1013E000F081E02D6DE209958C0144275527BA0163
:1013F0004C195D096E097F09CE012AE01BDF9801B7
:10140000280F391F03C02AE015DF9C01C901DF91B5
:10141000CF911F910F91FF90EF90DF90CF900895A3
:10142000EF92FF920F931F937B019A010027F7FC25
:101430000095102FB801A701B5DF1F910F91FF9004
:10144000EF900895DBCE08957F928F929F92AF9296
:10145000BF92CF92DF92EF92FF920F931F93CF93A1
:10146000DF934C017A018B01722ECB01BA01A801E6
:1014700097010E948B2B882321F0C4016CE072E05D
:1014800021C0C0E0D0E057016801E894D7F8C60158
:10149000B5012FEF3FEF4FE75FE70E948B2B8823CB
:1014A00051F4C601B5012FEF3FEF4FE75FE70E9410
:1014B000D529181614F0C1E0D0E0219731F0C4010D
:1014C00060E172E09BDEEC0190C0C801B7012FEF34
:1014D0003FEF4FE75FE40E94242B181654F0C80139
:1014E000B7012FEF3FEF4FE75FEC0E94D52988232C
:1014F00024F4C40164E172E0E5CFC801B70120E043
:1015000030E040E050E00E94D52987FD03C0C0E0F4
:10151000D0E00EC0D401ED91FC910190F081E02D5E
:10152000C4016DE20995EC0117FB109517F91095B0
:1015300020E030E040E05FE3DD240BC0CA01B901E8
:1015400020E030E040E251E40E94D9299B01AC0147
:10155000D394D71498F3C801B7010E9471295B0195
:101560006C010E94462A7B018C01C401B801A701CD
:101570002AE030E0C2DEC80FD91F772031F0C40165
:1015800068E172E03BDEC80FD91FC801B7010E94B5
:10159000722A9B01AC01C601B5010E94702923C0CB
:1015A00020E030E040E251E40E94282B7B018C01D6
:1015B0000E94412A5B016C01CC24B7FCC094DC2C56
:1015C000C401B601A5012AE030E0ECDEC80FD91F46
:1015D000C601B5010E94742A9B01AC01C801B70184
:1015E0000E9470297A947720D9F6CE01DF91CF91AD
:1015F0001F910F91FF90EF90DF90CF90BF90AF9031
:101600009F908F907F9008951FCF0895EF92FF9243
:101610000F931F937C0118DF8C01C701CFDD080FEA
:10162000191FC8011F910F91FF90EF900895EF923D
:10163000FF920F931F937C01E1DD8C01C701BEDD9A
:10164000080F191FC8011F910F91FF90EF90089587
:101650000F931F93CF93DF93EC018B016F5F7F4F4D
:10166000888199810E940802009711F480E005C0EA
:10167000998388831B830A8381E0DF91CF911F9137
:101680000F910895CF93DF93EC0188819981892B85
:1016900029F08A819B818617970758F4CE01D8DFFD
:1016A000882341F08C819D81892B19F4E881F9818F
:1016B000108281E0DF91CF910895CF93DF93EC0109
:1016C00088819981009711F00E94B00119821882D7
:1016D0001D821C821B821A82DF91CF910895EF92A6
:1016E000FF920F931F93CF93DF93EC017B018A014D
:1016F000BA01C8DF882319F4CE01DFDF07C01D83DC
:101700000C8388819981B7010E941603CE01DF9175
:10171000CF911F910F91FF90EF900895CF93DF939A
:10172000EC01198218821B821A821D821C821E8281
:101730006115710549F0DB010D900020E9F7119763
:10174000A61BB70BAD01CBDFDF91CF910895FC0154
:10175000808191810C94B001FC012FEF3FEF4FEF9E
:101760005FEF208331834283538310861186128674
:1017700013868FEF99ECAAE9BBE3808B918BA28B48
:10178000B38B808F918FA28FB38F80A391A3A2A3DD
:10179000B3A380A791A7A2A7B3A780AB91ABA2AB3D
:1017A000B3AB20AF31AF42AF53AFE05CFF4F8FEF31
:1017B00090E09183808334962083318342835383E6
:1017C0003896208331834283538338961192108256
:1017D000709682E08193119211921192119211925E
:1017E00011921192119211921182108279971082A6
:1017F0000895CF93DF93FC01EB016115710561F052
:10180000E759FF4F80819181A281B381E956F04071
:1018100088839983AA83BB834115510549F0E35915
:10182000FF4F80819181ED56F040DA018D939C93BA
:101830002115310539F0E159FF4F80819181F9017E
:1018400091838083DF91CF910895EF92FF920F9360
:101850001F93CF93DF939C01EE24FC01EA5AFF4FC4
:1018600080818D3231F4EE24E394E901C95ADF4FCF
:1018700001C0EF018E0120E030E040E050E018C0F0
:10188000CA01B9012AE030E040E050E00E948F2B0D
:101890002F2D332727FD3095432F532F20533040D2
:1018A00040405040260F371F481F591F0F5F1F4FE2
:1018B000F801F0808F2D80538A3010F3CA01B901EE
:1018C00024E630E040E050E00E948F2B9B01AC0109
:1018D00001C021969881892F80538A30D0F39E329F
:1018E00029F59981892F80538A3000F58AE0980282
:1018F000C0011124805E9140AA2797FDA095BA2FC0
:10190000280F391F4A1F5B1F9A81892F80538A3005
:1019100068F4892F992787FD9095C097AA2797FD8E
:10192000A095BA2F280F391F4A1F5B1FEE2039F0F0
:1019300050954095309521953F4F4F4F5F4FB901DE
:10194000CA01DF91CF911F910F91FF90EF90089501
:101950004F925F926F927F928F929F92AF92BF92BF
:10196000CF92DF92EF92FF920F931F93CF93DF936B
:1019700026E5822E912C880E991EE40120E030E0AD
:1019800040E050E017C0CA01B9012AE030E040E071
:1019900050E00E948F2B212F332727FD3095432FB6
:1019A000532F2053304040405040260F371F481FD0
:1019B000591F21961881812F80538A3020F3722E6F
:1019C000632E542E452EB901CA0124E630E040E0D2
:1019D00050E00E94C12B20E137E240E050E00E943D
:1019E0008F2B5B016C0103C00894811C911CF401D6
:1019F0009081892F80538A30B8F39E3269F588EE42
:101A0000E82E83E0F82E012D112D1DC0332727FD70
:101A1000309520533040442737FD4095542FC8015E
:101A2000B7010E948F2BA60EB71EC81ED91EC80173
:101A3000B7012AE030E040E050E00E94C12BC9012C
:101A4000DA017C018D010894811C911CF401208134
:101A5000822F80538A30D0F2C601B50126E030E0F3
:101A600040E050E00E94C12B79018A01672D762D5C
:101A7000852D942D24E630E040E050E00E94C12BFB
:101A8000CA01B90120EA36E841E050E00E948F2BFC
:101A9000E60EF71E081F191FB701C801DF91CF918D
:101AA0001F910F91FF90EF90DF90CF90BF90AF907C
:101AB0009F908F907F906F905F904F900895FC0162
:101AC00060A171A182A193A16F3FF9EC7F07FAE9B0
:101AD0008F07FBE39F0729F4E0E074E284E769E401
:101AE0000AC00E94742A20E030E048EC52E40E94D0
:101AF000D929E62F692F2E2F372F482F562FB901BE
:101B0000CA010895FC0160A971A982A993A96F3F38
:101B1000F9EC7F07FAE98F07FBE39F0729F4E0E080
:101B200070E08AE764E40AC00E94722A20E030E094
:101B300048EC52E40E94D929E62F692F2E2F372F27
:101B4000482F562FB901CA010895EF92FF920F93C3
:101B50001F93FC0160A571A582A593A56F3FF9ECC9
:101B60007F07FAE98F07FBE39F07E9F00E94722ADB
:101B700020E030E048EC52E40E94D9297B018C013E
:101B800020E030E040E85FEB0E94D529882359F03F
:101B9000C801B70126E53EE04DEE5FE30E94282B29
:101BA000E62F692F04C0E0E070E080E86FEB2E2F95
:101BB000372F482F562FB901CA011F910F91FF905F
:101BC000EF9008950F931F93CF93DF93FC01EB01E8
:101BD00089016115710541F080859185A285B385E4
:101BE00088839983AA83BB834115510549F080817D
:101BF0009181A281B381EA0188839983AA83BB83FF
:101C00000115110511F1EF01CC5BDF4F888199813E
:101C1000AA81BB818F5F9F4FAF4FBF4F29F42FEF3A
:101C20003FEF4FEF5FEF0CC00E94BD059B01AC0181
:101C300088819981AA81BB81281B390B4A0B5B0BD8
:101C4000E801288339834A835B83DF91CF911F9119
:101C50000F9108952F923F924F925F926F927F92D1
:101C60008F929F92AF92BF92CF92DF92EF92FF92AC
:101C70000F931F93DF93CF93CDB7DEB728970FB69F
:101C8000F894DEBF0FBECDBF3B012A0119019401BC
:101C9000BE016F5F7F4FAE014B5F5F4F93DF6114FB
:101CA0007104B9F069817A818B819C8124E630E0EE
:101CB00040E050E00E94C12B613571051CF420ED1D
:101CC00037E002C02CE637E0260F371FF3013183DF
:101CD000208341145104A1F069817A818B819C8118
:101CE00024E630E040E050E00E94C12BCA01B90177
:101CF00024E630E040E050E00E94C12BF201608316
:101D00002114310461F069817A818B819C8120E109
:101D100037E240E050E00E94C12BF1012083011521
:101D2000110561F06D817E818F81988520E432E418
:101D30004FE050E00E94C12BF8012083E114F10430
:101D4000A1F06D817E818F81988520E137E240E0AE
:101D500050E00E94C12BCA01B90124E630E040E006
:101D600050E00E94C12BF7016083C114D104A1F09F
:101D70006D817E818F81988524E630E040E050E0DF
:101D80000E94C12BCA01B90124E630E040E050E0D6
:101D90000E94C12BF6016083A114B10461F06D8132
:101DA0007E818F81988524E630E040E050E00E94FB
:101DB000C12BF501608328960FB6F894DEBF0FBEE5
:101DC000CDBFCF91DF911F910F91FF90EF90DF90EA
:101DD000CF90BF90AF909F908F907F906F905F90CB
:101DE0004F903F902F9008950F931F93CF93DF93C1
:101DF000FC01EB0189016115710541F08089918930
:101E0000A289B38988839983AA83BB83411551052D
:101E100049F0808D918DA28DB38DEA0188839983DD
:101E2000AA83BB830115110511F1EF01C45BDF4FDC
:101E300088819981AA81BB818F5F9F4FAF4FBF4F30
:101E400029F42FEF3FEF4FEF5FEF0CC00E94BD056D
:101E50009B01AC0188819981AA81BB81281B390B28
:101E60004A0B5B0BE801288339834A835B83DF914C
:101E7000CF911F910F910895EF92FF920F931F93AF
:101E8000DF93CF93CDB7DEB728970FB6F894DEBFB8
:101E90000FBECDBF8B017A01BE016F5F7F4FAE01D8
:101EA0004B5F5F4FA1DF69817A818B819C816F3F9E
:101EB00029EC72072AE982072BE3920729F4E0E074
:101EC00070E08AE764E40AC00E94742A20E030E5EA
:101ED00043EC57E40E94D929E62F692F2E2F372F84
:101EE000482F562FC901DA01F80180839183A2831C
:101EF000B38389819A81AB81BC818F5F994CAA4958
:101F0000BB4329F4E0E070E08AE764E40EC06D8131
:101F10007E818F8198850E94742A20E030E543EC11
:101F200057E40E94D929E62F692F2E2F372F482FEB
:101F3000562FC901DA01F70180839183A283B3830D
:101F400028960FB6F894DEBF0FBECDBFCF91DF91BC
:101F50001F910F91FF90EF900895FF920F931F93A1
:101F6000CF93DF93EC01CB5ADF4F8881C555D0402A
:101F7000882309F4E9C0CA5ADF4F9881C655D0407A
:101F8000892F8154863038F4292F332727FD309547
:101F9000275330400CC0292F332727FD3095915609
:101FA000963018F42755304002C020533040C95AAB
:101FB000DF4F4881C755D040842F8154863030F49C
:101FC000842F992787FD9095C7970BC0842F992759
:101FD00087FD90954156463018F48755904001C0D2
:101FE000C09754E0220F331F5A95E1F7982F920FB4
:101FF000CC5ADF4F8881C455D040981709F09BC058
:10200000C859DF4F8881C856D040882309F497C14A
:10201000FE01E359FF4F8081918101969183808376
:10202000FE01EC5BFF4FC85BDF4F88819981AA817D
:10203000BB81C854D04080839183A283B383FE01C7
:10204000E45BFF4FC05BDF4F88819981AA81BB8130
:1020500080839183A283B38365968881C556D040DF
:102060008823A1F1813009F064C08C819D81AE810B
:10207000BF8188839983AA83BB838C859D85AE8528
:10208000BF8588879987AA87BB878C899D89AE89F8
:10209000BF89888B998BAA8BBB8B8C8D9D8DAE8DC8
:1020A000BF8D888F998FAA8FBB8F8CA59DA5AEA55C
:1020B000BFA588A799A7AAA7BBA78CA99DA9AEA9C8
:1020C000BFA988AB99ABAAABBBAB33C08CA19DA118
:1020D000AEA1BFA188A399A3AAA3BBA38C819D8114
:1020E000AE81BF8188839983AA83BB838C899D89B4
:1020F000AE89BF89888B998BAA8BBB8B8C8D9D8D6C
:10210000AE8DBF8D888F998FAA8FBB8FFE01E05C4B
:10211000FF4FCE5BDF4F88819981C254D0409183BD
:1021200080838CAD9DADAEADBFAD88AF99AFAAAF8A
:10213000BBAF81E005C1FE01E159FF4F8081918174
:10214000019691838083FBC0CA59DF4F8881C656B0
:10215000D040882321F59E012A5A3F4FD901EAE158
:10216000F2E002C0119631969C91992339F080815A
:102170009817C1F3D901E0E2F2E006C0CB59DF4F76
:1021800081E0E7C0119631969C91992321F08081DE
:102190009817C1F3DBC0CB59DF4F1882D0C0CB59A1
:1021A000DF4F3881C556D040323009F4C8C0CA5A12
:1021B000DF4F2881C655D040222309F4C0C0E32F49
:1021C000F0E045E0EE0FFF1F4A95E1F790E0E82BC5
:1021D000F92B3197E932F10508F0B1C0EC5CFF4F03
:1021E000EE0FFF1F0590F491E02D0994CE012DDB39
:1021F0006C837D838E839F830E94BD05C85BDF4F08
:1022000012C0FE01E859FF4F1082213409F097C037
:102210007BC0CE019DDB6C8B7D8B8E8B9F8B0E9458
:10222000BD05C05BDF4F688379838A839B8387C04A
:10223000233509F084C08C899D89AE89BF89B0950A
:10224000A095909581959F4FAF4FBF4F8C8B9D8BE5
:10225000AE8BBF8B74C0CE017BDB6C8F7D8F8E8F7E
:102260009F8F6DC0273509F06AC08C8D9D8DAE8D16
:10227000BF8DB095A095909581959F4FAF4FBF4F63
:102280008C8F9D8FAE8FBF8F5AC0CE01DEDA6CA7C8
:102290007DA78EA79FA753C0CE01D7DA6CAB7DABCD
:1022A0008EAB9FAB4CC08E010A5A1F4F20E030E02E
:1022B00040E050E018C0CA01B9012AE030E040E037
:1022C00050E00E948F2B2F2D332727FD3095432F71
:1022D000532F2053304040405040260F371F481F97
:1022E000591F0F5F1F4FF801F0808F2D80538A30E8
:1022F00010F32C873D874E875F8721C0FE01E85988
:10230000FF4F10822133DCF081E0808318C0CE01C2
:102310008A5A9F4F0E94D802FE01EE5BFF4F8083D6
:1023200011820DC0CE0191DA6CAF7DAF8EAF9FAF41
:1023300006C0CE018ADA6CA37DA38EA39FA380E0A2
:10234000DF91CF911F910F91FF900895CB59DF4FEF
:1023500082E08883F4CF1F93CF93DF93EC01162F95
:10236000FC01E759FF4F80819181A281B3810196E1
:10237000A11DB11D80839183A283B383643299F13F
:10238000DE01A959BF4F65322CF46A3069F06D3017
:10239000C1F50AC06A3241F06C3299F5FE01EC5A7F
:1023A000FF4F8081862780838C918F3010F090E0E2
:1023B00009C0FE01E80FF11DEA5AFF4F1082CE015D
:1023C000CCDD982FFE01EA59FF4F80818F5F80831B
:1023D000C959DF4F1882FE01729710821A3251F5E7
:1023E00081E0808327C0C959DF4F18821A92629713
:1023F0001882619682E088836097188263961882BB
:1024000018C08C918E3040F4FE01E80FF11DEA5A9D
:10241000FF4F10838F5F8C93CB5ADF4F8881C55558
:10242000D040882331F4FE01EC5AFF4F8081812790
:10243000808390E0892FDF91CF911F910895FC0157
:1024400080911604909117048E179F0711F480E075
:102450000895838D8E7F838F9FB7F89410925804D0
:102460008091580480935904F0931704E093160464
:102470009FBF81E008950F931F93CF93DF93FC01DB
:10248000738D76957170A685B7859585772329F02C
:102490008C91892309F454C004C08C91892309F0DC
:1024A0004FC08389948920E001972FEF8F3F9207D7
:1024B000D9F7C589D689A685B785158560E031E04D
:1024C00040E050E000E0CE01202F01972FEF8F3F3A
:1024D0009207D9F78C91812311F0632B03C0832FCE
:1024E00080956823330F4F5F5F4F4830510559F790
:1024F0008789908D20E001972FEF8F3F9207D9F7C2
:1025000071116095809158042091590490E00196D2
:102510008F73907030E08217930779F0E091580440
:10252000F0E0E85EFB4F60838091580490E00196F4
:102530008F7390708093580403C0838D8160838F64
:10254000DF91CF911F910F9108951F920F920FB6B7
:102550000F9211242F933F934F935F936F937F9329
:102560008F939F93AF93BF93EF93FF938091160444
:1025700090911704009709F07EDFFF91EF91BF91D2
:10258000AF919F918F917F916F915F914F913F910B
:102590002F910F900FBE0F901F9018951F920F92C2
:1025A0000FB60F9211242F933F934F935F936F9326
:1025B0007F938F939F93AF93BF93EF93FF938091FC
:1025C000160490911704009709F055DFFF91EF91E1
:1025D000BF91AF919F918F917F916F915F914F913B
:1025E0003F912F910F900FBE0F901F9018951F9243
:1025F0000F920FB60F9211242F933F934F935F9337
:102600006F937F938F939F93AF93BF93EF93FF93BA
:102610008091160490911704009709F02CDFFF9128
:10262000EF91BF91AF919F918F917F916F915F914A
:102630004F913F912F910F900FBE0F901F901895C3
:10264000CF92DF92EF92FF920F931F93CF93DF937E
:10265000EC017A018B011A8E198E188E1F8A1E8A40
:102660001D8A1C8A1B8A20E030E06901CC0CDD1C2D
:10267000C20ED31EB601660F771F660F771FAB0120
:102680004C5E5E4FFA0185919591A591B4918E159E
:102690009F05A007B107E9F4FB01E85EFE4F8591B5
:1026A00094919C8B8B8BFB01E65EFE4F8591949100
:1026B0009E8B8D8BFB01E45EFE4F85919491988FEC
:1026C0008F8BFB01E25EFE4F859194919A8F898FEB
:1026D00006C02F5F3F4F2C30310509F0C6CF8F89E0
:1026E000988D892B09F449C04C85463108F03DC0CE
:1026F00090916800483010F484E005C04E3010F02E
:1027000082E001C081E0892B80936800483028F482
:10271000EDE6F0E0ADE6B0E00BC04E3028F0ECE6C0
:10272000F0E0ACE6B0E004C0EBE6F0E0ABE6B0E031
:102730005081483040F481E090E002C0880F991F3A
:102740004A95E2F710C0242F30E04E3018F428509C
:10275000304002C02E50304081E090E002C0880F2F
:10276000991F2A95E2F7852B8C93898D9A8D20E00D
:1027700001972FEF8F3F9207D9F780911604909120
:1027800017048C179D0781F08B8D8E7F8B8F9FB7E1
:10279000F894109258048091580480935904D0936F
:1027A0001704C09316049FBFDF91CF911F910F9123
:1027B000FF90EF90DF90CF900895FC014485463163
:1027C00080F5483028F4EDE6F0E0ADE6B0E00BC06F
:1027D0004E3028F4EBE6F0E0ABE6B0E004C0ECE607
:1027E000F0E0ACE6B0E05081483040F481E090E0A9
:1027F00002C0880F991F4A95E2F710C0242F30E0DD
:102800004E3018F42850304002C02E50304081E045
:1028100090E002C0880F991F2A95E2F780958523E2
:102820008C930895FC018AE792E091838083CF0125
:10283000C4CF20911604309117042817390731F4BA
:102840009091590480915804981719F42FEF3FEF95
:102850000FC0E0915904F0E0E85EFB4F20818091C9
:10286000590490E001968F7390708093590430E082
:10287000C9010895209116043091170428173907CB
:1028800019F020E030E00EC08091580420915904E6
:1028900090E0805C9F4F821B910960E470E00E9491
:1028A000AE2B9C01C90108950F931F93DC0159962B
:1028B0008D919C915A97892B49F481E090E0139671
:1028C0009C938E93129720E030E097C00FB7F89456
:1028D0005B968C915B975196ED91FC915297509637
:1028E0002C91509781FF8DC08081822B80835996D7
:1028F0008D919C915A97059620E001972FEF8F3F7D
:102900009207D9F75B968C915B9781FF35C031E0D8
:1029100040E050E070E010E0832F90E086239723A2
:102920005196ED91FC91529750962C915097892B8E
:1029300029F0808120952823208303C08081822B69
:10294000808359968D919C915A97212F01972FEF53
:102950008F3F9207D9F7330F4F5F5F4F48305105D4
:10296000D9F65196ED91FC915297908150968C91A9
:1029700050978095892333C031E040E050E070E00B
:1029800010E0832F90E0862397235196ED91FC91E0
:10299000529750962C915097892B21F08081822B51
:1029A000808304C0808120952823208359968D91AF
:1029B0009C915A97212F01972FEF8F3F9207D9F7BC
:1029C000330F4F5F5F4F48305105D9F65196ED9167
:1029D000FC915297808150969C915097892B8083CF
:1029E0000FBF59968D919C915A9720E001972FEF38
:1029F0008F3F9207D9F721E030E0C9011F910F9175
:102A00000895808120952823208371CF209116047A
:102A1000309117042817390749F49FB7F89410929A
:102A2000580480915804809359049FBF08952091C1
:102A30001604309117042817390731F4909159047E
:102A400080915804981719F42FEF3FEF0AC0E091D6
:102A50005904F0E0E85EFB4F8081282F332727FDE3
:102A60003095C90108951F93CF93DF93EC01162F82
:102A7000862F60E00E9406068B8D81FD04C0812FA9
:102A800061E00E9445061C87212F30E0C901845176
:102A90009F4FFC0184918D8728523F4FF90164912B
:102AA000E62FF0E0EE0FFF1FE253FF4F8591949168
:102AB0009F878E87DF91CF911F910895FF920F938B
:102AC0001F938C01F62E862F61E00E9406068F2D43
:102AD00061E00E9445068F2D90E0FC01E451FF4F1C
:102AE000E491D8015096EC93509788529F4FFC0187
:102AF0006491E62FF0E0EE0FFF1FEC53FF4F85913E
:102B0000949152969C938E9351971F910F91FF90A1
:102B10000895FF920F931F938C01F62EFC011382F0
:102B2000128288EE93E0A0E0B0E084839583A683D0
:102B3000B7838AE792E091838083148A138A168A86
:102B4000158A108E178A128E118E838D2170220F96
:102B50008C7F822B838FC801642FB0DFC8016F2D5B
:102B600082DF1F910F91FF90089510925F041092E1
:102B70006004109263041092650482E090E0A0E08B
:102B8000B0E08093670490936804A0936904B093C5
:102B90006A0410927E0410928804109287048CE9D3
:102BA00092E0909386048093850410928B0408959C
:102BB0002F923F924F925F926F927F928F929F924D
:102BC000AF92BF92CF92DF92EF92FF920F931F933B
:102BD000DF93CF93CDB7DEB7C954D0400FB6F8948A
:102BE000DEBF0FBECDBF582E492EFB013A011901A1
:102BF00085A596A5998B888B2CE932E03F872E8797
:102C000087A58A8B80A98B8B81A98C8B82A993A99C
:102C1000A4A9B5A98D8B9E8BAF8BB88F86A997A9D8
:102C2000A0ADB1AD898F9A8FAB8FBC8F82AD93ADC4
:102C3000A4ADB5AD8D8F9E8FAF8FB8A386AD89A3A0
:102C4000FF9681919191A191B1918AA39BA3ACA38D
:102C5000BDA381919191A191B1918EA39FA3A8A7AA
:102C6000B9A7808191819BA78AA71FA61EA63DA711
:102C70002CA71AAA7A018E01025F1F4F3CE2A32EF5
:102C8000B12CAC0EBD1E4E010894811C911C35C0A8
:102C9000D7018C918F3221F40894E11CF11C2DC0D6
:102CA000422F4E194D3008F04CE0C42EDD24C401F3
:102CB000B701A6010E941D03F401EC0DFD1D108259
:102CC000C5010E947C1EC501B801A40121E00E943B
:102CD000B823882351F4E52DF42D138212828CE958
:102CE00092E09183808316826AC0EC0CFD1CC801BF
:102CF0000E947C1EC50158018C01C7016FE270E083
:102D00000E940B039C01009719F6E618F708F101E1
:102D1000F182E082E52DF42DD80112968D919C91DF
:102D20001397938382838CE992E091838083149636
:102D30008C911497848315968C911597858316969C
:102D40008C911697868317962D913D914D915C91AC
:102D50001A9727833087418752871B962D913D9183
:102D60004D915C911E9723873487458756871F9620
:102D70002D913D914D915C9152972787308B418BDE
:102D8000528B53968C915397838B54962D913D91F2
:102D90004D915C915797248B358B468B578B58966A
:102DA0002D913D914D915C915B97208F318F428F9A
:102DB000538F5C968D919C915D97958F848F852D17
:102DC000942DC75BDF4F0FB6F894DEBF0FBECDBFAB
:102DD000CF91DF911F910F91FF90EF90DF90CF90F7
:102DE000BF90AF909F908F907F906F905F904F902B
:102DF0003F902F9008959F92AF92BF92CF92DF9213
:102E0000EF92FF920F931F93DF93CF93CDB7DEB76F
:102E1000CA57D0400FB6F894DEBF0FBECDBFC82E44
:102E2000992E8A01D22E43E0A42EB12CAC0EBD1EE9
:102E3000C501A8019E012F5F3F4FBADEE980FA80ED
:102E4000E00EF11EF70180814CE952E029858823CC
:102E500009F041C08D819E819CA38BA35AA349A3F5
:102E60008F818DA388858EA32FA38A859B85AC85B2
:102E7000BD8588A799A7AAA7BBA78E859F85A88986
:102E8000B9898CA79DA7AEA7BFA78A899B89AC8962
:102E9000BD8988AB99ABAAABBBAB8E898CAB8F8954
:102EA000988DA98DBA8D8DAB9EABAFABB8AF8B8D26
:102EB0009C8DAD8DBE8D89AF9AAFABAFBCAF8F8D02
:102EC00098A19EAF8DAF8C2D992DBE016F5D7F4F68
:102ED0004AE552E0A7C0FE01EF5BFF4F118210826E
:102EE000DE01DF9611965C934E93FE01EB5BFF4F84
:102EF00010822223A9F02250223050F4CD0165E83F
:102F000074E0A7012D2D0E94B823882379F408C00E
:102F1000CD01B501A7012D2D0E94B823882321F4EE
:102F20008C2D992DC7D07FC0C501E6D6F6E0DF22F3
:102F300051F0FE01ED5AFF4F408151816281738152
:102F4000CE01CF96CCD59E01235A3F4FFE01EF5BB9
:102F5000FF4F80819181F901938382838CE992E014
:102F600091838083FE01ED5BFF4F8081F9018483B3
:102F7000FE01EC5BFF4F8081F9018583FE01EB5B75
:102F8000FF4F8081F9018683FE01EA5BFF4F80815C
:102F90009181A281B381F90187839087A187B2874C
:102FA000FE01E65BFF4F80819181A281B381F9012F
:102FB00083879487A587B687FE01E25BFF4F8081F8
:102FC0009181A281B381F9018787908BA18BB28B0C
:102FD000FE01EE5AFF4F8081F901838BFE01ED5A0D
:102FE000FF4F80819181A281B381F901848B958B00
:102FF000A68BB78BFE01E95AFF4F80819181A28198
:10300000B381F901808F918FA28FB38FFE01E55AB2
:10301000FF4F80819181F901958F848F8C2D992D9F
:10302000B901A7012DD18C2D992DC658DF4F0FB6B0
:10303000F894DEBF0FBECDBFCF91DF911F910F91EE
:10304000FF90EF90DF90CF90BF90AF909F9008954A
:10305000EF920F931F93CF93DF93EC01362F542FF2
:10306000722FE02E61E0432F252F072FCFD3882327
:10307000D1F08E01035F1F4FC801BE0141E00E94E5
:103080005125882339F4C801BE0140E00E94512532
:10309000882349F0CE018B96B8010E94A92088238D
:1030A00019F081E001C080E0DF91CF911F910F9175
:1030B000EF900895FC011382128288EE93E0A0E065
:1030C000B0E084839583A683B7838AE892E09183F6
:1030D0008083128E118E14860895FC018AE892E096
:1030E000918380830895FC01A18DB28D109719F40E
:1030F00020E030E009C0ED91FC9111970190F08142
:10310000E02DCD0109959C01C9010895DC01599676
:10311000ED91FC915A97309719F420E030E018C0F7
:10312000248935894689578983859485A585B685FF
:10313000281B390B4A0B5B0B2030B0E83B07B0E093
:103140004B07B0E05B0720F02FEF3FE740E050E097
:10315000C9010895DC015996ED91FC915A97309779
:1031600011F480E008958681811181E00895CF9364
:10317000DF93EC01898D9A8D009739F0BDD5898D4B
:103180009A8D0E94B0011A8E198EDF91CF91089509
:10319000FC01818D928D009709F066C50895DF933B
:1031A000CF930F92CDB7DEB7FC01818D928D009742
:1031B00041F0BE016F5F7F4F41E050E06FD6019755
:1031C00019F02FEF3FEF03C08981282F30E0C901AC
:1031D0000F90CF91DF910895EF92FF920F931F937D
:1031E000DF93CF930F92CDB7DEB77C01DC01599608
:1031F0008D919C915A97009719F400E010E01DC042
:10320000BE016F5F7F4F41E050E048D6019719F053
:103210000FEF1FEF12C08981082F10E0D7015996D8
:10322000ED91FC915A97438554856585768541508B
:10323000504060407040CF0152D4C8010F90CF91F0
:10324000DF911F910F91FF90EF900895FC01818D08
:10325000928D009719F420E030E003C00E948B218A
:103260009C01C9010895FC01818D928D009719F48C
:1032700020E030E003C00E943D239C01C901089575
:10328000EF92FF920F931F93CF93DF93EC01F62EF3
:10329000E72E8A011B821A8288EE93E0A0E0B0E05C
:1032A0008C839D83AE83BF838AE892E09983888371
:1032B0008EE190E00E9406019A8F898F009791F02D
:1032C000DC018F2D9E2D9C01F9018EE101900D9264
:1032D0008150E1F7CE010C96B8014CE050E00E941D
:1032E0001D03188EDF91CF911F910F91FF90EF90EA
:1032F0000895382F8091A5048F3F29F43EBD0DB469
:1033000007FEFDCF0895F894A091A604B091A704FC
:103310005091A804252F2095E091A904F091AA04CA
:103320004091AB04642F609590E08C9182238C9344
:1033300037FF03C08081842B02C080818623808375
:103340008C91852B8C939F5F983011F0330FEDCFCC
:1033500000000000000000008C9128232C9378943A
:1033600008958091A5048F3F19F4C3DF2EB530C0B6
:10337000F894E091A904F091AA0480819091AB04A3
:10338000892B8083E091A604F091A7046091A804A2
:10339000A091AC04B091AD048091AE04482F50E0F0
:1033A000762F709520E030E08081862B8083220F7D
:1033B0008C9190E084239523892B09F021608081F2
:1033C00087238083000000003F5F383069F77894DE
:1033D000822F0895FC01673020F086E1858380E02C
:1033E0000895262F30E060FD02C0663019F48DB5D7
:1033F0008E7F02C08DB581608DBD8CB58C7F8CBDFC
:103400004CB522FD02C090E001C092E036952795B0
:10341000822F8170842B892B8CBD81E008950F93BE
:103420001F93CF93DF938B010E94BD05EB0199DFC2
:103430008F3F11F481E008C00E94BD056C1B7D0B1D
:1034400060177107A0F380E0DF91CF911F910F917A
:103450000895FC01848160E00C944506FC018481A0
:1034600061E00C944506CF92DF92EF92FF920F93AA
:103470001F93CF93DF937C016A01FC01848588232D
:1034800019F40FEF1FEF30C000E010E040E050E013
:10349000212F332727FD3A95F601E40FF51F808190
:1034A00090E0282739273070C901F4E09595879579
:1034B000FA95E1F782279327102F0027082719276D
:1034C0009C01322F22273295307F0227132725E0D7
:1034D000880F991F2A95E1F7082719274F5F5F4F3B
:1034E000F2E040305F07A1F6862F03DFC0E0D0E0B6
:1034F000F601EC0FFD1F8081FCDE219682E0C030DA
:10350000D807B1F7812F992787FD9A95F2DE802F92
:10351000F0DE27DFF70182878F71853011F481E0BB
:1035200006C081E1F7018583C70198DF80E0DF9164
:10353000CF911F910F91FF90EF90DF90CF90089562
:103540000F931F93CF93DF93EC010E94BD058B0176
:1035500009C00E94BD05601B710B6D52714010F0D7
:103560008FE009C0FEDE8A878F3F99F38E3F11F40A
:1035700081E005C08DE08D83CE0170DF80E0DF91BA
:10358000CF911F910F910895CF93DF93EC018E811E
:10359000882311F40DC0E5DE8F8198850196988708
:1035A0008F83019782509240B0F3CE0157DF1E8285
:1035B000DF91CF910895DF92EF92FF920F931F93C7
:1035C000CF93DF93EC01D62E79018A01DDDFCE01A6
:1035D00040DFCE016CE271E022DF8D2D806489DE58
:1035E000812F9927AA27BB2784DEC801AA27BB27DA
:1035F00080DEBB27A12F902F8F2D7BDE8E2D79DED5
:10360000DD2011F485E906C088E0D81611F487E8BA
:1036100001C08FEF6EDE10E0A4DE8A8787FF02C054
:103620001150D1F7DF91CF911F910F91FF90EF9043
:10363000DF900895CF92DF92EF92FF920F931F9346
:10364000CF93DF93EC017A018B016901411551059C
:103650006105710511F482E12EC08B85833039F04C
:1036600039E0EE0CFF1C001F111F3A95D1F7CE0177
:1036700068E1A80197019FDF882311F084E01BC057
:10368000CE016EEFA601EFDE8823B1F0CE0168E532
:1036900072E0C5DE882311F485E10DC0CE016DE036
:1036A00020E030E040E050E086DF882319F459DE66
:1036B000882371F084E18D83CE01D0DE80E0DF913C
:1036C000CF911F910F91FF90EF90DF90CF900895D1
:1036D000CE01C4DE81E0F3CF6F927F928F929F92F2
:1036E000AF92BF92CF92DF92EF92FF920F931F9310
:1036F000CF93DF93EC015A016B01390148010115A9
:10370000110509F464C0C801820F931F81509240D3
:1037100008F059C08E81882371F088819981AA812F
:10372000BB81481759076A077B0729F48F81988561
:103730006816790638F5A882B982CA82DB828B8541
:10374000833039F0E9E0AA0CBB1CCC1CDD1CEA95E7
:10375000D1F7CE0161E1A60195012DDF882319F093
:1037600083E08D8330C0CE01EBDE882361F11886C3
:103770001F8281E08E8306C0F4DD8F8198850196DB
:1037800098878F838F81988586159705A8F300E029
:1037900010E007C0E6DDF701E00FF11F80830F5F47
:1037A0001F4F08151905B0F32F813885280D391DD5
:1037B00038872F838985882319F02050324038F0CC
:1037C000CE01E2DE04C0CE0149DE80E001C081E02E
:1037D000DF91CF911F910F91FF90EF90DF90CF90ED
:1037E000BF90AF909F908F907F906F900895EF92D1
:1037F000FF920F931F93790120E030E000E012E088
:103800006BDF1F910F91FF90EF900895BF92CF92C1
:10381000DF92EF92FF920F931F93CF93DF93EC0110
:10382000B62E1E2D1B8619861E821D821C864C8379
:103830002093AF040093B004E092A5040E94BD055C
:103840006B018C8161E00E940606CE0107DE1F3FFE
:1038500009F462C08091B00460E00E940606809185
:10386000AF0461E00E9406068091A50461E00E9419
:103870000606E091A5042E2F332727FD3095F90188
:10388000E852FF4FE491F0E0EE0FFF1FEC53FF4FC3
:10389000859194919093A7048093A60424513F4F5F
:1038A000F90184918093A804E091AF042E2F33276F
:1038B00027FD3095F901E852FF4FE491F0E0EE0F5B
:1038C000FF1FEC53FF4F859194919093AA0480932E
:1038D000A90424513F4FF90184918093AB04E091F6
:1038E000B0042E2F332727FD3095F901E852FF4F02
:1038F000E491F0E0EE0FFF1FE253FF4F85919491AA
:103900009093AD048093AC0424513F4FF90184910E
:103910008093AE0410E01AC08CE060E00E940606BE
:103920008BE061E00E9406068DE061E00E940606E1
:103930008AE061E00E9406068AE061E00E94450696
:1039400083E58CBD8DB58E7F8DBDE4CF8FEFD1DC4F
:103950001F5F1A30D9F7CE017CDD09C00E94BD057A
:103960006C197D09615D774010F081E054C0CE0193
:1039700060E020E030E040E050E01DDE182F8A8754
:10398000813061F7CE0168E02AEA31E040E050E0A2
:1039900012DE82FF02C01B870CC010E0E2DC8A87C7
:1039A0001F5F1430D9F78A3A11F082E034C082E008
:1039B0008B878B85823021F0EE24FF2487010FC096
:1039C000E12CF12C012DB0E41B2F09C00E94BD0594
:1039D0006C197D09615D774010F088E01CC0CE0154
:1039E00067E320E030E040E050E0E5DDCE0169E251
:1039F000A8019701E0DD8A87882341F78B85823013
:103A0000C1F4CE016AE320E030E040E050E0D3DDD5
:103A1000882331F086E08D83CE0120DD80E014C064
:103A2000A0DC807C803C11F483E08B879ADC99DCFD
:103A300098DCCE0113DD8091A5048F3F11F081E069
:103A400003C0CE016B2DC6DCDF91CF911F910F918A
:103A5000FF90EF90DF90CF90BF900895CF93DF93CA
:103A6000EC01DB0180E090E020E2FD01E80FF91FAE
:103A7000208301968B309105C1F757E040E021C0CB
:103A80002E3219F084EA91E007C05A3019F15AE059
:103A900048E017C03217F1F0FC010196349133234E
:103AA000C9F75417B8F02132A8F02F3798F4822FB5
:103AB00081568A3108F42052FD01E40FF11D208364
:103AC0004F5F29912223E1F690E08C91803219F02A
:103AD00091E001C090E0892FDF91CF9108956F921E
:103AE0007F928F929F92AF92BF92CF92DF92EF928E
:103AF000FF920F931F93CF93DF93EC017A018B0119
:103B00002E81222309F480C08C899D89AE89BF89CA
:103B100084179507A607B70708F476C085C0E11497
:103B2000F1040105110549F41F82188619861A86C9
:103B30001B861C861D861E8665C02B853C854D8593
:103B40005E85EC8DFD8D858590E009962150304095
:103B50004040504039014A01082E04C09694879491
:103B6000779467940A94D2F72F5F3F4F4F4F5F4F80
:103B70000894E108F108010911095701680104C01E
:103B8000D694C794B794A7948A95D2F70894E11C69
:103B9000F11C011D111DA614B704C804D90428F096
:103BA000211531054105510549F4888D998DAA8D5E
:103BB000BB8D8F839887A987BA8716C0A618B708C8
:103BC000C808D90811C04F81588569857A858C8DC0
:103BD0009D8D94010E942E270894A108B108C10868
:103BE000D108882331F410C087E0882E912C8C0EE8
:103BF0009D1EA114B104C104D10429F7EB86FC86F3
:103C00000D871E8781E001C080E0DF91CF911F9179
:103C10000F91FF90EF90DF90CF90BF90AF909F906B
:103C20008F907F906F900895223009F078CFE6CF83
:103C3000CF93DF93EC01462F6F85788989899A8924
:103C4000F6D6882319F420E030E00AC08B89282FAB
:103C500030E095E0220F331F9A95E1F72D543B4F4A
:103C6000C901DF91CF9108950F931F93CF93DF93F5
:103C70008C01FC0186818823C9F1858187FF34C0CE
:103C8000C80161E0D5DFEC01009781F1F801868180
:103C9000823040F484899589A689B7898C8F9D8F5D
:103CA000AE8FBF8FF801808D918D9B8F8A8F808D15
:103CB000918DA28DB38DCD01AA27BB279D8B8C8BB7
:103CC000E091B104F091B204309751F0BE016A5E08
:103CD0007F4FCE0148960995888D998D9B8B8A8B55
:103CE000F80185818F77858344D601C080E0DF911C
:103CF000CF911F910F910895CF93DF93EC01B4DF23
:103D0000882311F01E8281E0DF91CF9108956F9298
:103D10007F928F929F92AF92BF92CF92DF92EF925B
:103D2000FF920F931F93DF93CF9300D000D0CDB7B6
:103D3000DEB77C015A016B01DC0116968C91169757
:103D4000813009F08BC015968C9181FF87C09AC095
:103D50000097A105B10511F481E081C0F7016384EA
:103D6000748485849684C701B601A501B8DE8823D2
:103D700009F474C0D7015C968D919C915D97A11454
:103D8000B104C104D10489F458964D915D916D91AF
:103D90007C915B970E94A027882309F45FC0F701FC
:103DA000108E118E128E138E3CC0D70117964D9136
:103DB0005D916D917C911A979E012F5F3F4F0E94FC
:103DC0002E27882309F44AC0D7015C96ED91FC9117
:103DD0005D9749815A816B817C818789803129F087
:103DE00088EF9FEFAFEFBFE004C088EF9FEFA0E048
:103DF000B0E0481759076A077B0798F4CF010E9483
:103E0000A027882359F1F701478150856185728584
:103E1000848D958D0FEF1FEF2FEF3FE084D7882320
:103E2000E9F0D7015496AD92BD92CD92DC925797AE
:103E300015968C911597806815968C93C70114DFA1
:103E4000882361F0B601A5016A147B048C049D04EB
:103E500010F4B401A301C70142DE01C080E00F905D
:103E60000F900F900F90CF91DF911F910F91FF90C6
:103E7000EF90DF90CF90BF90AF909F908F907F900A
:103E80006F900895F70184899589A689B789841769
:103E90009507A607B70708F05BCFE0CF2F923F92B8
:103EA0004F925F926F927F928F929F92AF92BF924A
:103EB000CF92DF92EF92FF920F931F93CF93DF93F6
:103EC000EC012A018E81882309F4C4C08D8180FF12
:103ED000C1C0D6C025014E185F084B0177E0272EE0
:103EE000312C2C0E3D1E3201AFC02B853C854D85FB
:103EF0005E856FEFA62E61E0B62EA222B3228E81E0
:103F000079018A0199E016950795F794E7949A95B7
:103F1000D1F7EC8DFD8D823049F4428D538D648D47
:103F2000758D4E0D5F1D601F711F3EC0D480DA94E9
:103F3000DE20A114B104D1F4DD20C1F42115310536
:103F40004105510549F4888D998DAA8DBB8D8F83CC
:103F50009887A987BA870AC04F81588569857A856D
:103F6000CF0191017BD7882309F474C0EC8DFD8DBE
:103F70004F81588569857A85425050406040704035
:103F8000058404C0440F551F661F771F0A94D2F79B
:103F900086859785A089B189480F591F6A1F7B1FA5
:103FA0004D0D511D611D711D80E092E08A199B0924
:103FB00063018615970508F46C018D8186FD06C0A6
:103FC00080E0C81682E0D80609F072C080916202D3
:103FD00090916302A0916402B0916502481759075D
:103FE0006A077B0709F464C08091B3069091B40618
:103FF00095018601740170DB882361F18C0C9D1C96
:1040000012C095012D543B4FA9014C0D5D1DD401EB
:10401000F90102C081918D93E417F507D9F7E21BEE
:10402000F30B8E0E9F1E960140E050E08B859C8521
:10403000AD85BE85820F931FA41FB51F8B879C87FC
:10404000AD87BE876C187D086114710409F04DCFEF
:10405000A20102C04FEF5FEFCA01DF91CF911F9124
:104060000F91FF90EF90DF90CF90BF90AF909F9017
:104070008F907F906F905F904F903F902F9008951A
:10408000AC88BD88CE88DF88EB84FC840D851E85D6
:104090009A0140E050E0D601C5018E199F09A00B9E
:1040A000B10B82179307A407B50708F413CF15CFF8
:1040B000CB01BA0140E0BBD4882309F0A2CFCACF1C
:1040C000CF92DF92EF92FF920F931F93DF93CF93E4
:1040D0000F92CDB7DEB76C01FC018681823068F0AB
:1040E000E384F48405851685C601BE016F5F7F4FAA
:1040F00041E050E0D3DE019769F020E030E0C901F3
:104100000F90CF91DF911F910F91FF90EF90DF9073
:10411000CF900895F60183859485A585B6854F9641
:10412000A11DB11D83879487A587B687F5E01695F5
:104130000795F794E794FA95D1F78E2D8F70282F75
:1041400030E0E5E0220F331FEA95E1F72D543B4FB5
:10415000D6CF0F931F93CF93DF93EC018B018E810A
:10416000882309F040C0FB0187898031B1F482E0E7
:104170008E83188E198E1A8E1B8E808D918DA0E0E5
:10418000B0E045E0880F991FAA1FBB1F4A95D1F7E1
:104190008C8B9D8BAE8BBF8B14C0803221F583E05E
:1041A0008E83FB01428D538D648D758D488F598FA1
:1041B0006A8F7B8F9E012C5E3F4FC80118D78823E2
:1041C00091F01D8F0C8F81E08D831F8218861986D8
:1041D0001A861B861C861D861E861F86188A198ACB
:1041E0001A8A1B8A01C080E0DF91CF911F910F9145
:1041F00008951F93CF93DF93EC01142FE62FF0E087
:1042000075E0EE0FFF1F7A95E1F7ED54FB4F8385C4
:10421000817121F0842F827409F052C06B8B8091E0
:10422000620290916302A0916402B09165028F874F
:10423000988BA98BBA8B84899589A0E0B0E0BC01EA
:1042400055274427828D938DA0E0B0E0482B592B51
:104250006A2B7B2B488F598F6A8F7B8F838590E0E9
:1042600088719070009751F4848D958DA68DB78DCF
:104270008C8B9D8BAE8BBF8B81E00BC0409701F583
:104280009E012C5E3F4F8C8D9D8DB1D68823C1F051
:1042900084E08E83812F8F708D831F82188619860C
:1042A0001A861B861C861D861E8616FD02C081E0AE
:1042B00008C0CE0140E050E060E070E028DD01C0C1
:1042C00080E0DF91CF911F910895CF93DF93EC01B0
:1042D0009C01295F3F4F8C8D9D8D41E050E060E057
:1042E00070E0F3D68823A1F0888D998DAA8DBB8DBF
:1042F0000097A105B10559F48F819885A985BA85E4
:10430000888F998FAA8FBB8F8D8180688D8381E084
:10431000DF91CF9108952F923F924F925F927F92BB
:104320008F929F92AF92BF92CF92DF92EF92FF92C5
:104330000F931F93DF93CF9300D000D000D0CDB761
:10434000DEB76C01162F072F5E834D83DC011696B6
:104350008C911697813009F06BC115968C9181FF75
:1043600067C188C1F6014489558966897789838543
:104370009485A585B68584179507A607B70729F004
:10438000C601ADDB882309F453C1812F902F9C0116
:1043900029012D803E8014C1D6015C96ED91FC91DF
:1043A0005D97DA01C90119E0B695A79597958795AC
:1043B0001A95D1F774807A9478227FEF872E71E076
:1043C000972E82229322772009F04EC08114910407
:1043D00009F04AC0D60117964D915D916D917C917F
:1043E0001A97411551056105710581F458968D9113
:1043F0009D910D90BC91A02D0097A105B10551F1A3
:10440000F60187839087A187B2872EC0CF019E01D6
:104410002F5F3F4F23D5882319F41E821D8210C1C0
:1044200029813A814B815C81D6015C96ED91FC91AA
:104430005D978789803129F088EF9FEFAFEFBFE06C
:1044400004C088EF9FEFA0E0B0E0281739074A07C3
:104450005B0728F0C60139DF882331F4E9C0F60193
:10446000278330874187528780E092E08819990935
:1044700051018215930508F45C01D6015C96ED911B
:10448000FC915D971796ED90FD900D911C911A97F8
:104490008EEF9FEFAFEFBFEFE80EF91E0A1F1B1F55
:1044A000058404C0EE0CFF1C001F111F0A94D2F7F4
:1044B00086859785A089B189E80EF91E0A1F1B1F02
:1044C000E70CF11C011D111D90E0A91692E0B90640
:1044D00049F58091620290916302A0916402B091CB
:1044E00065028E159F05A007B10761F48FEF9FEF5E
:1044F000AFEFBFEF8093620290936302A0936402D8
:10450000B09365028091B3069091B406B801A701FB
:10451000920190D8882309F48BC0A0E0B2E04A0E43
:104520005B1E3CC08114910401F5F601238534859E
:104530004585568584899589A689B78928173907BD
:104540004A075B0790F015D2882309F471C0E09206
:104550006202F092630200936402109365028091FC
:10456000B50681608093B50607C0C801B70141E078
:104570005ED2882309F45CC094012D543B4FA901FD
:104580004A0D5B1DD201F90102C08D918193E417A0
:10459000F507D9F7E21BF30B4E0E5F1E2A183B08F6
:1045A000950140E050E0F60183859485A585B685A8
:1045B000820F931FA41FB51F83879487A587B68793
:1045C000D6011B962D913D914D915C911E97211422
:1045D000310409F0E1CE54968D919D910D90BC91DE
:1045E000A02D82179307A407B50748F4F601248B82
:1045F000358B468B578B85818068858311C0809170
:10460000B1049091B204892B59F08D819E81892B40
:1046100039F0D60115968C911597806815968C9374
:10462000F601858183FF0CC0C6011EDB882341F49F
:1046300081E0D60114968C93EFEFFFEFFE83ED83BC
:104640008D819E8126960FB6F894DEBF0FBECDBF3A
:10465000CF91DF911F910F91FF90EF90DF90CF905E
:10466000BF90AF909F908F907F905F904F903F90C2
:104670002F90089582FD76CE88CEDB010D9000202C
:10468000E9F71197A61BB70BAD0145CEDF93CF938A
:104690000F92CDB7DEB76983BE016F5F7F4F41E0F8
:1046A00050E039DE0F90CF91DF910895DF92EF92C5
:1046B000FF920F931F93CF93DF93EC0106DE8823C5
:1046C00009F44DC0EC8DFD8DEF80F88409851A85C5
:1046D0008EEF9FEFAFEFBFEFE80EF91E0A1F1B1F13
:1046E000058404C0EE0CFF1C001F111F0A94D2F7B2
:1046F00086859785A089B189E80EF91E0A1F1B1FC0
:10470000D4800894E108F108010911090AC0C80120
:10471000B7016D0D711D811D911D66D18823F9F0C2
:10472000DA94DD20A1F7EC8DFD8D20E032E040E051
:1047300050E0058404C0220F331F441F551F0A9404
:10474000D2F78C899D89AE89BF89820F931FA41FE0
:10475000B51F8C8B9D8BAE8BBF8B81E001C080E041
:10476000DF91CF911F910F91FF90EF90DF9008950F
:104770006F927F928F929F92AF92BF92CF92DF9271
:10478000EF92FF920F931F93DF93CF93CDB7DEB7D6
:104790002B970FB6F894DEBF0FBECDBF5C016B0147
:1047A000822EDC0116968C91882309F0CCC0CA01B8
:1047B0008E010F5F1F4FB80151D9882309F4C3C080
:1047C000F601848D958DD5015D969C938E935C97B3
:1047D0001782108611861286D6011B961D921D9295
:1047E0001D921C921E979924380140C0C60168DCB6
:1047F000FC01009709F4A7C085E016950795F7948A
:10480000E7948A95D1F71E2D1F708081882311F0BF
:10481000853ED1F4992091F4D50153961C9353977A
:1048200020916202309163024091640250916502CE
:104830001F962D933D934D935C93529780818823CF
:1048400099F49924939421C0C301BF014BE050E037
:104850000E94F502009751F4882D8073803309F48B
:1048600072C0C501612F6CC099249394F601E38452
:10487000F4840585168584899589A689B789E81603
:10488000F9060A071B0708F4B1CF882D827182311F
:1048900009F059C0992039F0C50161E0C9D98C01EE
:1048A000009781F450C0D60116968C91823009F49D
:1048B0004AC0C601FBDE882309F445C0F501138A0E
:1048C00003EB14E080E2D8011D928A95E9F7D80144
:1048D000FE0131968BE001900D928150E1F7E0915D
:1048E000B104F091B204309739F0B801625F7F4FA4
:1048F000C8014096099509C081E298E2F801918BC0
:10490000808B80E098E097878687D80150968D91BC
:104910009C91519753969C938E93529759969C9342
:104920008E9358971E968D919C911F9757969C93A6
:104930008E9356971ED0882331F0C501F501638907
:10494000482D57DC01C080E02B960FB6F894DEBFEF
:104950000FBECDBFCF91DF911F910F91FF90EF90D0
:10496000DF90CF90BF90AF909F908F907F906F908F
:1049700008958091B506882399F140916202509183
:10498000630260916402709165028091B306909118
:10499000B40623EB34E00E941A1B882319F14091DE
:1049A000B6065091B7066091B8067091B9064115E8
:1049B00051056105710591F08091B3069091B4069F
:1049C00023EB34E00E941A1B882361F01092B60694
:1049D0001092B7061092B8061092B9061092B5065A
:1049E00081E0089580E00895EF92FF920F931F9366
:1049F0007B018C01BEDF8823A9F0E3EBF4E0119288
:104A000086E0E33BF807D9F7E0926202F092630296
:104A100000936402109365028091B50681608093D3
:104A2000B50681E01F910F91FF90EF900895DF92FE
:104A3000EF92FF920F931F937B018C01D42E8091F4
:104A4000620290916302A0916402B09165028E159A
:104A50009F05A007B107B9F08CDF8823D9F08091BA
:104A6000B3069091B406B801A70123EB34E00E948D
:104A7000F71B882379F0E0926202F09263020093C0
:104A80006402109365028091B5068D298093B50666
:104A900081E001C080E01F910F91FF90EF90DF90C7
:104AA00008958F929F92AF92BF92CF92DF92EF9232
:104AB000FF920F931F93CF93DF936C01142F70938A
:104AC000B4066093B306442321F488249924540146
:104AD0003FC0453008F019C160E070E080E090E030
:104AE00040E0A5DF882309F410C1C12FD0E0219751
:104AF000FE0174E0EE0FFF1F7A95E1F7ED54FB4FD6
:104B0000E254FE4F8081EE5BF14090E08F77907031
:104B1000892B09F0FAC0E653FE4F80819181A28172
:104B2000B38184369105A105B10508F4EEC064E0B7
:104B3000CC0FDD1F6A95E1F7C758D94F888099805F
:104B4000AA80BB8081149104A104B10409F4DDC0E2
:104B5000C501B40140E06BDF882309F4D6C0809121
:104B6000BE049091BF048050924009F0CEC02091C5
:104B7000C304222309F4C9C08091C1049091C204E6
:104B8000892B09F4C2C08091C004882309F4BDC0F8
:104B9000F601228B8091C0048483158661E070E069
:104BA00007C04F5FF60145874150483008F0ADC05F
:104BB000F6014585848190E09B01042E02C0220FFE
:104BC000331F0A94E2F78217930759F72091C9041B
:104BD0003091CA042115310519F040E050E008C0B9
:104BE0002091D7043091D8044091D9045091DA042F
:104BF000F6012583368347835087E090C104F09007
:104C0000C20400E010E0E80CF91C0A1D1B1DE38A39
:104C1000F48A058B168B8091C4049091C504918F02
:104C2000808F6091C30470E080E090E078D56E0DD5
:104C30007F1D801F911FF601628F738F848F958F68
:104C40002091C4043091C50455E0220F331F5A95BA
:104C5000E1F721503E4F232F3327269540E050E0C7
:104C6000260F371F481F591F26873787408B518BC8
:104C70008091C6049091C704009719F0A0E0B0E0BD
:104C800008C08091D3049091D404A091D504B09130
:104C9000D60485017401E21AF30A040B150BA8016E
:104CA0009701280F391F4A1F5B1FF601058404C0B6
:104CB00056954795379527950A94D2F721873287DD
:104CC00043875487253FFFE03F07F0E04F07F0E0C0
:104CD0005F0710F48CE006C0255F3F4F4040504016
:104CE00028F480E1F601878B81E010C08091DF0419
:104CF0009091E004A091E104B091E204F601828F6A
:104D0000938FA48FB58F80E2EECF80E0DF91CF91BB
:104D10001F910F91FF90EF90DF90CF90BF90AF90D9
:104D20009F908F9008954F925F926F927F928F9293
:104D30009F92AF92BF92CF92DF92EF92FF920F932A
:104D40001F93CF93DF93EC016A017B0128013901A6
:104D5000423051056105710508F46EC089859A8558
:104D6000AB85BC850196A11DB11D84179507A607CB
:104D7000B70708F461C02B893C894D895E898F890A
:104D8000803129F499278F2D7E2D6D2D09C0C70103
:104D9000B60117E096958795779567951A95D1F79F
:104DA0004B015C01820E931EA41EB51E809162020F
:104DB00090916302A0916402B091650288169906F1
:104DC000AA06BB0631F0C501B40140E030DE8823FD
:104DD00099F18F89803149F4F601F070EE0FFF1FD1
:104DE000ED54FB4F518240820DC0F601EF77F07019
:104DF000EE0FFF1FEE0FFF1FED54FB4F408251825D
:104E0000628273828091B50681608093B5068A893B
:104E1000823080F08D819E81AF81B885880E991E89
:104E2000AA1EBB1E8092B6069092B706A092B80644
:104E3000B092B90681E001C080E0DF91CF911F916F
:104E40000F91FF90EF90DF90CF90BF90AF909F9029
:104E50008F907F906F905F904F900895CF92DF92E8
:104E6000EF92FF920F931F93CF93DF93EC017A01A0
:104E70008B01690189859A85AB85BC850196A11D49
:104E8000B11D84179507A607B70708F44FC02B89F3
:104E90003C894D895E898F89803129F49927812F3A
:104EA000702F6F2D09C0C801B701E7E0969587956F
:104EB00077956795EA95D1F7260F371F481F591F39
:104EC0008091620290916302A0916402B0916502A8
:104ED000281739074A075B0731F0CA01B90140E0DA
:104EE000A6DD882319F18F89803159F4F701F0701C
:104EF000EE0FFF1FED54FB4F80819181A0E0B0E0E9
:104F00000EC0F701EF77F070EE0FFF1FEE0FFF1FDF
:104F1000ED54FB4F80819181A281B381BF70F60176
:104F200080839183A283B38381E001C080E0DF911D
:104F3000CF911F910F91FF90EF90DF90CF90089548
:104F4000AF92BF92CF92DF92EF92FF920F931F9397
:104F5000DF93CF9300D000D0CDB7DEB76C017A01DC
:104F60008B0182E090E0A0E0B0E0F60180839183C5
:104F7000A283B3835E010894A11CB11CC601B801D1
:104F8000A70195016BDF882311F1C601B801A701C4
:104F900000E010E020E030E0C6DE8823C1F0E980C8
:104FA000FA800B811C81F6018789803129F088EF16
:104FB0009FEFAFEFBFE004C088EF9FEFA0E0B0E04D
:104FC000E816F9060A071B07C8F281E001C080E075
:104FD0000F900F900F900F90CF91DF911F910F9135
:104FE000FF90EF90DF90CF90BF90AF9008954F92D9
:104FF0005F926F927F928F929F92AF92BF92CF9269
:10500000DF92EF92FF920F931F93DF93CF9300D025
:1050100000D0CDB7DEB76C0149835A836B837C83A4
:105020003901EE24FF2487012E010894411C511CF4
:10503000812CA2E09A2EA12CB12C49815A816B813E
:105040007C81C60192010ADF882351F1D501C40198
:10505000F601058404C0880F991FAA1FBB1F0A947C
:10506000D2F7E80EF91E0A1F1B1F29813A814B81D6
:105070005C818789803129F088EF9FEFAFEFBFE037
:1050800004C088EF9FEFA0E0B0E0281739074A0777
:105090005B0798F2F301E082F1820283138381E0DF
:1050A0000F900F900F900F90CF91DF911F910F9164
:1050B000FF90EF90DF90CF90BF90AF909F908F9038
:1050C0007F906F905F904F9008952F923F924F92F4
:1050D0005F926F927F928F929F92AF92BF92CF9288
:1050E000DF92EF92FF920F931F93DF93CF93CDB791
:1050F000DEB72F970FB6F894DEBF0FBECDBF1C01F1
:105100004A875B876C877D873F872E87D9010D9102
:105110001D912D913C91011511052105310549F095
:10512000480159010894811C911CA11CB11C1986CD
:1051300010C0FC0180809180A280B38019868A858E
:105140009B85AC85BD850197A105B10511F491E062
:105150009987D10119968D919D910D90BC91A02DAB
:105160000196A11DB11D8D839E83AF83B887750104
:1051700064014424552432018E010F5F1F4FF10159
:1051800081859285A385B485481659066A067B06F3
:1051900008F08CC08D819E81AF81B8858C159D05EE
:1051A000AE05BF0550F482E0882E912CA12CB12CC5
:1051B000B2E0CB2ED12CE12CF12CC101B701A6011C
:1051C00098014CDE882309F471C089819A81AB81F2
:1051D000BC81A70196012F5F3F4F4F4F5F4F009754
:1051E000A105B10519F049015A010DC02819390965
:1051F0004A095B098A859B85AC85BD8528173907D7
:105200004A075B0759F00894411C511C611C711C32
:105210000894C11CD11CE11CF11CB1CFC101A60135
:10522000B7010FEF1FEF2FEF3FE07DDD882391F4F3
:105230003DC02601370108944108510861087108F2
:10524000C101B301A201970186016DDD882371F1CF
:10525000730162018C149D04AE04BF0450F3AE854B
:10526000BF854D915D916D917C9141155105610511
:10527000710531F0C1019501840155DD8823B1F03C
:10528000EE85FF8580829182A282B382F985FF2319
:1052900059F00894811C911CA11CB11CD1018D9264
:1052A0009D92AD92BC92139781E001C080E02F9651
:1052B0000FB6F894DEBF0FBECDBFCF91DF911F9127
:1052C0000F91FF90EF90DF90CF90BF90AF909F90A5
:1052D0008F907F906F905F904F903F902F900895A8
:1052E0005058BB27AA270ED075C166D130F06BD1BC
:1052F00020F031F49F3F11F41EF45BC10EF4E095F1
:10530000E7FB51C1E92F77D180F3BA176207730722
:105310008407950718F071F49EF58FC10EF4E0959F
:105320000B2EBA2FA02D0B01B90190010C01CA015F
:10533000A0011124FF27591B99F0593F50F4503E0A
:1053400068F11A16F040A22F232F342F4427585FFC
:10535000F3CF469537952795A795F0405395C9F714
:105360007EF41F16BA0B620B730B840BBAF09150CC
:10537000A1F0FF0FBB1F661F771F881FC2F70EC06B
:10538000BA0F621F731F841F48F48795779567953E
:10539000B795F7959E3F08F0B3CF9395880F08F027
:1053A0009927EE0F979587950895D9D008F481E055
:1053B00008950CD00FC107D140F0FED030F021F499
:1053C0005F3F19F0F0C0511139C1F3C014D198F307
:1053D0009923C9F35523B1F3951B550BBB27AA2776
:1053E00062177307840738F09F5F5F4F220F331FE8
:1053F000441FAA1FA9F333D00E2E3AF0E0E830D0B4
:1054000091505040E695001CCAF729D0FE2F27D0B6
:10541000660F771F881FBB1F261737074807AB0784
:10542000B0E809F0BB0B802DBF01FF2793585F4FF9
:105430002AF09E3F510568F0B6C000C15F3FECF313
:10544000983EDCF3869577956795B795F7959F5FBE
:10545000C9F7880F911D9695879597F90895E1E012
:10546000660F771F881FBB1F621773078407BA0771
:1054700020F0621B730B840BBA0BEE1F88F7E095CC
:10548000089504D06894B111D9C00895BCD088F0B3
:105490009F5790F0B92F9927B751A0F0D1F0660F20
:1054A000771F881F991F1AF0BA95C9F712C0B1303B
:1054B00081F0C3D0B1E00895C0C0672F782F88274E
:1054C000B85F39F0B93FCCF3869577956795B3957A
:1054D000D9F73EF490958095709561957F4F8F4FE9
:1054E0009F4F0895E89409C097FB3EF490958095EE
:1054F000709561957F4F8F4F9F4F9923A9F0F92F9A
:1055000096E9BB279395F695879577956795B79517
:10551000F111F8CFFAF4BB0F11F460FF1BC06F5FFD
:105520007F4F8F4F9F4F16C0882311F096E911C00F
:10553000772321F09EE8872F762F05C0662371F030
:1055400096E8862F70E060E02AF09A95660F771F44
:10555000881FDAF7880F9695879597F90895990F20
:105560000008550FAA0BE0E8FEEF16161706E8072D
:10557000F907C0F012161306E407F50798F0621B4E
:10558000730B840B950B39F40A2661F0232B242B23
:10559000252B21F408950A2609F4A140A6958FEF42
:1055A000811D811D089597F99F6780E870E060E094
:1055B00008959FEF80EC089500240A9416161706AC
:1055C00018060906089500240A94121613061406F4
:1055D00005060895092E0394000C11F4882352F057
:1055E000BB0F40F4BF2B11F460FF04C06F5F7F4F0F
:1055F0008F4F9F4F089557FD9058440F551F59F0F6
:105600005F3F71F04795880F97FB991F61F09F3FAF
:1056100079F087950895121613061406551FF2CFD8
:105620004695F1DF08C0161617061806991FF1CF28
:1056300086957105610508940895E894BB2766274F
:105640007727CB0197F908958ADF08F48FEF089543
:105650000BD0C0CFB1DF28F0B6DF18F0952309F0EA
:10566000A2CFA7CF1124EACFC6DFA0F3959FD1F335
:10567000950F50E0551F629FF001729FBB27F00D00
:10568000B11D639FAA27F00DB11DAA1F649F662755
:10569000B00DA11D661F829F2227B00DA11D621FA4
:1056A000739FB00DA11D621F839FA00D611D221F5E
:1056B000749F3327A00D611D231F849F600D211D42
:1056C000822F762F6A2F11249F5750408AF0E1F0E5
:1056D00088234AF0EE0FFF1FBB1F661F771F881F2E
:1056E00091505040A9F79E3F510570F05CCFA6CF76
:1056F0005F3FECF3983EDCF3869577956795B79519
:10570000F795E7959F5FC1F7FE2B880F911D969542
:10571000879597F9089523DF880B990B0895629F69
:10572000D001739FF001829FE00DF11D649FE00D99
:10573000F11D929FF00D839FF00D749FF00D659FFA
:10574000F00D9927729FB00DE11DF91F639FB00DF9
:10575000E11DF91FBD01CF011124089597FB092E0A
:1057600007260AD077FD04D02ED006D000201AF4E8
:10577000709561957F4F0895F6F7909581959F4FAD
:105780000895A1E21A2EAA1BBB1BFD010DC0AA1F82
:10579000BB1FEE1FFF1FA217B307E407F50720F09A
:1057A000A21BB30BE40BF50B661F771F881F991F15
:1057B0001A9469F760957095809590959B01AC015E
:1057C000BD01CF010895AA1BBB1B51E107C0AA1F51
:1057D000BB1FA617B70710F0A61BB70B881F991F92
:1057E0005A95A9F780959095BC01CD010895EE0FCB
:1057F000FF1F0590F491E02D09942F923F924F9254
:105800005F926F927F928F929F92AF92BF92CF9250
:10581000DF92EF92FF920F931F93CF93DF93CDB759
:10582000DEB7CA1BDB0B0FB6F894DEBF0FBECDBFD1
:1058300009942A88398848885F846E847D848C84A2
:105840009B84AA84B984C884DF80EE80FD800C81AB
:105850001B81AA81B981CE0FD11D0FB6F894DEBF8E
:105860000FBECDBFED01089511E0CAEBD1E003C03A
:10587000FE01BFDF2296CC3BD107D1F7F894FFCFD2
:10588000696E76616C696400004C4F47322E637319
:1058900076002C000A436F756C646E2774206F705D
:1058A000656E20746865206C6F672066696C652181
:1058B0000043617264204661696C757265006E61B7
:1058C0006D652C656C65766174696F6E2C6C6174A6
:1058D00069747564652C6C6F6E67697475646500B6
:1058E0004C61742F4C6F6E673A20002C200044618D
:1058F00074653A20002F002054696D653A20003A03
:10590000002E00416C74697475646520286D65749F
:10591000657273293A2000436F757273652028649D
:10592000656772656573293A200053706565642860
:105930006B6D7068293A2000536174656C6C6974F2
:1059400065733A200047505320536869656C6420A2
:10595000517569636B5374617274204578616D7021
:105960006C6520536B657463682076313200202E9D
:105970002E2E77616974696E6720666F72206C6F76
:10598000636B2E2E2E2000202E2E2E006E616E00B8
:10599000696E66006F7666002E004750524D4300D8
:1059A0004750474741004E004E4E45004E4500458A
:1059B0004E450045004553450053450053534500AF
:1059C000530053535700535700575357005700572E
:1059D0004E57004E57004E4E57002F002000BE0677
:1059E0000000FFFFFFFF000000001308B408A90734
:1059F000DA07BA070308000000005414B4083A1488
:105A000019141715061500000000731826198618BA
:105A1000CF18EC18C8183319000000004623B4084A
:00000001FF
