:10000000E9C000000FC100000DC100000BC10000DD
:1000100009C1000007C1000005C1000003C10000C4
:1000200001C10000FFC00000FDC00000FBC00000D7
:10003000F9C00000F7C00000F5C00000F3C00000E8
:100040000C94400AEFC000000C94650B0C94B20BAA
:10005000E9C00000E7C00000E5C00000E3C0000008
:10006000E1C00000DFC00000000000002400270005
:100070002A0000000000250028002B0000000000DE
:1000800023002600290004040404040404040202DA
:100090000202020203030303030301020408102007
:1000A0004080010204081020010204081020000012
:1000B0000007000201000003040600000000000029
:1000C00000007C3C3E5E2B3D3F2F5B5D3B2C2A229B
:1000D0005C0000407A10F35A00A0724E180900101C
:1000E000A5D4E80000E87648170000E40B540200AD
:1000F00000CA9A3B000000E1F505000080969800D8
:10010000000040420F000000A08601000000102700
:1001100000000000E8030000000064000000000090
:100120000A00000000000100000000002C76D888C2
:10013000DC674F0823DFC1DFAE59E1B1B796E5E3D5
:10014000E453C63AE651997696E8E6C28426EB89EE
:100150008C9B62ED407C6FFCEFBC9C9F40F2BAA58B
:100160006FA5F490055A2AF75C936B6CF9676DC123
:100170001BFCE0E40D47FEF520E6B500D0ED902E27
:100180000300943577050080841E080000204E0A85
:10019000000000C80C333333330F986E12831141C3
:1001A000EF8D2114893BE65516CFFEE6DB18D1848E
:1001B0004B381BF77C1D901DA4BBE42420328472B5
:1001C0005E228100C9F124ECA1E53D2795081E0DB2
:1001D000C00F900811241FBECFEFD8E0DEBFCDBF07
:1001E00012E0A0E0B1E0E0E0FDE402C005900D9275
:1001F000A633B107D9F715E0A6E3B2E001C01D921E
:10020000A338B107E1F711E0C2EDD1E004C02297B5
:10021000FE010E942526CC3CD107C9F70E94740D2F
:100220000C947426EDCEEF92FF920F931F93F22F52
:10023000F02E47FD02C0E4E001C0E4E1242F3327A3
:1002400027FD309537FF03C0309521953F4F4F2D47
:10025000512F0F2FEE2E47D48F2D912F1F910F91DD
:10026000FF90EF900895CF93DF93BC01823091050A
:1002700010F462E070E0A0918105B0918205ED017B
:10028000E0E0F0E040E050E021C0888199818617ED
:10029000970769F48A819B81309719F09383828351
:1002A00004C09093820580938105FE0134C06817D5
:1002B000790738F44115510519F08417950708F4AA
:1002C000AC01FE018A819B819C01E9012097E9F63E
:1002D00041155105A9F1CA01861B970B049708F433
:1002E000BA01E0E0F0E02AC08D919C91119784174B
:1002F0009507F9F46417750781F412968D919C9116
:100300001397309719F09383828304C090938205EA
:1003100080938105FD0132964CC0CA01861B970B64
:10032000FD01E80FF91F6193719302978D939C93E0
:1003300040C0FD01828193819C01D9011097A1F6F3
:1003400080917F0590918005892B41F48091D301A4
:100350009091D4019093800580937F054091D501C1
:100360005091D6014115510541F44DB75EB78091CA
:10037000D1019091D201481B590B20917F053091FA
:100380008005CA01821B930B8617970780F0AB018B
:100390004E5F5F4F8417950750F0420F531F5093E5
:1003A000800540937F05F9016193719302C0E0E0FD
:1003B000F0E0CF01DF91CF910895CF93DF930097C5
:1003C00009F450C0EC0122971B821A82A09181058A
:1003D000B0918205109709F140E050E0AC17BD07DD
:1003E00008F1BB83AA83FE0121913191E20FF31F33
:1003F000AE17BF0779F48D919C911197280F391F83
:100400002E5F3F4F3983288312968D919C911397CD
:100410009B838A834115510571F4D0938205C09363
:10042000810520C012968D919C911397AD01009784
:1004300011F0DC01D3CFFA01D383C2832191319132
:10044000E20FF31FCE17DF0769F488819981280F27
:10045000391F2E5F3F4FFA01318320838A819B81B0
:1004600093838283DF91CF910895A0E0B0E0EBE326
:10047000F2E00C943F266C01009721F4CB01F3DEEF
:100480006C01BDC08EEF882E8FEF982E8C0C9D1CBA
:100490008601060F171F0815190508F4AEC0F401F0
:1004A000A081B181A617B707B0F0A530B10508F457
:1004B000A6C0CD0104978617970708F4A0C012972D
:1004C000A61BB70BF801A193B193D4016D937C9354
:1004D000CF0173DF94C07B01EA1AFB0AEEEFFFEF56
:1004E000EE0EFF1E36016A0E7B1EC0918105D09173
:1004F000820544245524AA24BB244AC0C615D70526
:10050000E1F5488159814E155F05B8F1CA0104979C
:100510008E159F05B0F41296A40FB51FF401B18398
:10052000A0832A813B814114510431F0D2011396FA
:100530003C932E93129763C03093820520938105DC
:100540005EC08A819B81F801938382834250504030
:100550004E195F09518340834114510431F0D20197
:1005600013961C930E93129704C010938205009368
:100570008105F4017183608342C088819981A81646
:10058000B90608F45C012E018A819B819C01E90176
:10059000209709F0B3CF80917F0590918005861553
:1005A0009705E9F4A616B706D0F42091D50130914D
:1005B000D6012115310541F42DB73EB78091D10107
:1005C0009091D201281B390B02171307B0F4109336
:1005D000800500937F05D4016D937C9310C0CB01FF
:1005E00042DEEC01009749F0F40140815181B601EF
:1005F00019D0C601E2DE6E0102C0CC24DD24C601A2
:10060000CDB7DEB7E0E10C945B26FB01DC0104C052
:100610008D910190801921F441505040C8F7881BFA
:10062000990B0895FB01DC0102C001900D9241502D
:100630005040D8F70895FC018191861721F0882356
:10064000D9F7992708953197CF010895FB01DC016F
:1006500001900D920020E1F70895FB01DC0141506B
:10066000504048F001900D920020C9F701C01D9242
:1006700041505040E0F70895FB019F01E89442305B
:10068000C4F04532B4F44A3029F497FB1EF4909537
:1006900081959F4F642F77270E942926805D8A339A
:1006A0000CF0895D8193CB010097A1F716F45DE210
:1006B00051931082C90166C4FA01CF93FF93EF935F
:1006C0002230CCF02532BCF4C22F2C2F3327442704
:1006D0005527FF93EF930E940126EF91FF91605DF4
:1006E0006A330CF0695D6193B901CA0160507040D2
:1006F0008040904051F710828F919F91CF9142C4DA
:10070000AEE0B0E0E6E8F3E00C944B260D891E89DC
:1007100086E08C831A8309838FEF9FE79E838D8306
:100720009E01275E3F4FCE0101966F89788DA9010A
:100730000AD02F813885020F131FF80110822E96E0
:10074000E4E00C946726ABE0B0E0E9EAF3E00C9457
:100750003D263C012B015A01FC0117821682838140
:1007600081FD03C06FEF7FEFB9C19AE0892E1E01B2
:100770000894211C311CF3012381F20123FD859192
:1007800023FF81912F01882309F4A5C1853239F413
:1007900023FD859123FF81912F01853221F490E083
:1007A000B30100D4E8CF982FFF24EE249924FFE171
:1007B000FF15D0F09B3269F09C3228F4903259F04A
:1007C000933291F40EC09D3249F0903369F441E0C8
:1007D00024C052E0F52A84E0F82A28C098E0F92ADB
:1007E00025C0E0E1FE2A22C0F7FC29C0892F8053F2
:1007F0008A3070F4F6FE05C0989C902C1124980E57
:1008000015C0E89CE02C1124E80EF0E2FF2A0EC08F
:100810009E3229F4F6FC5FC140E4F42A07C09C36FE
:1008200019F450E8F52A02C0983649F4F20123FD84
:10083000959123FF91912F01992309F0B8CF892F2A
:100840008554833018F08052833038F444E050E00F
:10085000A40EB51E5FE359830FC0933631F0933772
:1008600079F0933509F052C01FC0F501808189836A
:1008700042E050E0A40EB51E610101E010E011C09D
:10088000F501C080D180F6FC03C06FEF7FEF02C09E
:10089000692D70E042E050E0A40EB51EC60167D39A
:1008A0008C015FE7F52213C0F501C080D180F6FC12
:1008B00003C06FEF7FEF02C0692D70E042E050E0AF
:1008C000A40EB51EC60148D38C0150E8F52AF3FEEC
:1008D00006C018C080E290E0B30164D3EA948E2D84
:1008E00090E008171907B0F30DC0F601F7FC8591E9
:1008F000F7FE81916F0190E0B30154D3E110EA94C7
:10090000015010400115110581F7E2C0943611F035
:10091000993661F5F7FE08C0F501208131814281E9
:10092000538184E090E00AC0F501808191819C01AF
:10093000442737FD4095542F82E090E0A80EB91E61
:100940009FE6F92257FF09C05095409530952195B3
:100950003F4F4F4F5F4FE0E8FE2ACA01B901A101A6
:100960002AE030E04BD3D82ED2183FC0953729F477
:100970001F2D1F7E2AE030E01DC01F2D197F9F36DE
:1009800061F0903720F4983509F0A5C00FC090377A
:1009900039F0983709F09FC004C028E030E00AC061
:1009A000106114FD146020E130E004C014FD1660F5
:1009B00020E132E017FF08C0F5016081718182817A
:1009C000938144E050E008C0F50180819181BC0131
:1009D00080E090E042E050E0A40EB51EA1010ED3ED
:1009E000D82ED2188FE7F82EF122F6FE0BC05EEF5C
:1009F000F522D91438F4F4FE07C0F2FC05C08FEEDE
:100A0000F82202C01D2D01C0192DF4FE0DC0FE01FB
:100A1000ED0DF11D8081803319F499EEF92208C0A3
:100A20001F5FF2FE05C003C08F2D867809F01F5F9F
:100A30000F2DF3FC13C0F0FE0EC01E1510F09D2C00
:100A40000AC09D2C9E0C911A1E2D05C080E290E0DC
:100A5000B301A8D21F5F1E15C8F304C01E1510F401
:100A6000E11A01C0EE2404FF0EC080E390E0B30160
:100A700099D202FF1BC001FD03C088E790E00EC0C1
:100A800088E590E00BC0802F867881F001FF02C0DE
:100A90008BE201C080E2F7FC8DE290E0B30182D2EC
:100AA00005C080E390E0B3017DD29A94D914C8F3D5
:100AB000DA94F101ED0DF11D808190E0B30172D265
:100AC000DD20B1F705C080E290E0B3016BD2EA947B
:100AD000EE20C9F750CEF30166817781CB012B96CA
:100AE000E2E10C945926A9E0B0E0E9E7F5E00C94C6
:100AF00041266A01122FA02EBE2C2BE3201718F4DA
:100B00002CE3922E02C0902E9394AE014F5F5F4F64
:100B100027E0092D49D1BC018981E82EFF24C701B6
:100B200089709070019711F4ADE209C0B1FE02C066
:100B3000ABE205C0B0FC02C0A0E001C0A0E2E3FE51
:100B40003BC0AA2311F423E001C024E0211710F0D8
:100B500020E002C0121B212FEB2CB4FE02C0322F6A
:100B60000AC0F601322F80E202C081933150332354
:100B7000E1F7C20ED11CAA2319F0F601A1936F016F
:100B8000F6013196E2FE05C09EE4D6019C9381E415
:100B900004C09EE6D6019C9381E611968C939183C6
:100BA0003296DF01832F90E202C09D93815088230B
:100BB000E1F7E30FF11D40C0E2FE42C0AA2311F4A9
:100BC00023E001C024E0211710F020E002C0121B36
:100BD000212FEB2CB4FE02C0922F0AC0F601922FF7
:100BE00080E202C0819391509923E1F7C20ED11C9B
:100BF000AA2319F0F601A1936F01F6013196E2FEE6
:100C000008C089E4D6018C938EE411968C9386E417
:100C100007C089E6D6018C938EE611968C9386E602
:100C200081833296DF01892F20E202C02D9381500B
:100C30008823E1F7E90FF11D10822EEF3FEFAFC0DF
:100C4000161617061CF041E050E003C0AB014F5FE1
:100C50005F4FAA2019F480E090E003C08A2D90E055
:100C6000019620E030E0AA2311F021E030E0240FCB
:100C7000351F280F391F812F90E02817390714F0EE
:100C800020E002C0121B212F4B2D50E0CA018071C1
:100C90009070B4FC0DC0B3FC0BC0F601322F40E2E3
:100CA00002C0419331503323E1F7C20ED11C01C081
:100CB000322FAA2319F0F601A1936F01892B11F0AD
:100CC000132F0AC0F601132F80E302C08193115045
:100CD0001123E1F7C30ED11C092D060FBA8090E154
:100CE000892E912C8E209F20E4FE04C0F1E3BF16D4
:100CF00009F40150101614F001E003C0093008F0A7
:100D000008E09B0177FF02C020E030E0CB010196B4
:100D1000821B930BFE013196E80FF91F8EE2F82E2D
:100D20003B01601A71088A2D90E044275527481B23
:100D3000590B8FEF2F3F380719F4D601FD926D0143
:100D4000621773072CF06216730614F4808101C0D9
:100D500080E32150304031962417350724F0D60126
:100D60008D936D01E6CF2617370749F4B5E3BB1520
:100D700028F0BB1621F48114910409F481E3F601F3
:100D80008193D601812F90E202C09C9381501196ED
:100D90008823D9F7E10FF11D108220E030E0C9016E
:100DA0002996EEE00C945D26283008F027E03327E2
:100DB000DA01990F311D87FD91600096610571057B
:100DC00039F432602E5F3D9330E32A95E1F70895C0
:100DD0009F3F30F080387105610509F03C5F3C5F52
:100DE0003D93913008F08068911DDF93CF931F935E
:100DF0000F93FF92EF92192F987F9695E92F969572
:100E00009695E90FFF27E45DFE4F99273327EE24DF
:100E1000FF24A701E70105900894079428F4360FF2
:100E2000E71EF81E491F511D660F771F881F991F67
:100E30000694A1F70590079428F4E70EF81E491FC1
:100E4000561FC11D770F881F991F661F0694A1F7B3
:100E50000590079428F4F80E491F561FC71FD11D8F
:100E6000880F991F661F771F0694A1F705900794B6
:100E700020F4490F561FC71FD81F990F661F771FF1
:100E8000881F0694A9F784911095177041F0D695A4
:100E9000C79557954795F794E7941A95C1F7E2EDF2
:100EA000F0E06894159015913591659195910590B4
:100EB0007FE27395E118F10A430B560BC90BD00979
:100EC000C0F7E10CF11E431F561FC91FD01D7EF451
:100ED000703311F48A95E6CFE894015030F0080F92
:100EE0000AF40027021708F4202F2395022F7A33E3
:100EF00028F079E37D932A95E9F710C07D932A9530
:100F000089F6069497956795379517951794E11884
:100F1000F10A430B560BC90BD00998F023957E912B
:100F200073957A3308F070E37C932013B8F77E91C1
:100F300070617D9330F0839571E37D9370E32A9522
:100F4000E1F71124EF90FF900F911F91CF91DF9166
:100F5000992787FD90950895FC0105906150704098
:100F60000110D8F7809590958E0F9F1F0895FC0172
:100F70006150704001900110D8F7809590958E0FC8
:100F80009F1F0895DC01FC01672F71917723E1F722
:100F9000329704C07C916D9370836291AE17BF0746
:100FA000C8F308950F931F93CF93DF938C01EB0148
:100FB0008B8181FF1BC082FF0DC02E813F818C8100
:100FC0009D812817390764F4E881F9810193F98339
:100FD000E88306C0E885F985802F0995892B31F4CF
:100FE0008E819F8101969F838E8302C00FEF1FEF3A
:100FF000C801DF91CF911F910F910895FA01AA279F
:10100000283051F1203181F1E8946F936E7F6E5F4B
:101010007F4F8F4F9F4FAF4FB1E03ED0B4E03CD0F9
:10102000670F781F891F9A1FA11D680F791F8A1FDC
:10103000911DA11D6A0F711D811D911DA11D20D043
:1010400009F468943F912AE0269F11243019305DFD
:101050003193DEF6CF010895462F4770405D4193EE
:10106000B3E00FD0C9F7F6CF462F4F70405D4A333B
:1010700018F0495D31FD4052419302D0A9F7EACF03
:10108000B4E0A6959795879577956795BA95C9F732
:1010900000976105710508959B01AC010A2E069425
:1010A0005795479537952795BA95C9F7620F731FDE
:1010B000841F951FA01D089581309105E1F46F5F95
:1010C0007F4F69F588E392E060E071E0E7D68FE357
:1010D00092E060E071E0E2D686E492E060E071E0E8
:1010E000DDD68DE492E068E071E0D8D684E592E048
:1010F00069E071E0D3C6892B91F46F5F7F4F79F47B
:1011000084E592E0FBD68DE492E0F8D686E492E0A6
:10111000F5D68FE392E0F2D688E392E0EFC6089529
:1011200080E090E06FEF7FEFC7CF81E090E06FEF5E
:101130007FEFC2CF0F931F93DF93CF93CDB7DEB76F
:101140006B970FB6F894DEBF0FBECDBF80915B02E8
:1011500090915C02019690935C0280935B02609197
:10116000F5017091F6018091F7019091F8012DEB56
:1011700037E346E855E30E942C256093F501709310
:10118000F6018093F7019093F8018DE492E068E016
:1011900071E09DD660915B0270915C028DE492E0FB
:1011A0000ED68DE492E06BE271E039D6B1D1AB019D
:1011B000BC018DE492E0D2D58DE492E06BE271E067
:1011C0002ED66091F5017091F6018091F701909112
:1011D000F80143E026E00DE512E025D8BC018DE4DE
:1011E00092E01DD68E010F5F1F4FC8016FE173E0C3
:1011F00047ED51E023E10E94D911C8010E94B613C6
:10120000882369F0C8016DE472E024D58DEF92E087
:101210006DE472E01FD5C8010E94C31305C08DEFB5
:1012200092E06DE271E0D3D4CE0101960E94791371
:101230006B960FB6F894DEBF0FBECDBFCF91DF9196
:101240001F910F91089576CF08955F926F927F92CC
:101250008F929F92AF92BF92CF92DF92EF92FF92C6
:101260000F931F93DF93CF93CDB7DEB76B970FB676
:10127000F894DEBF0FBECDBF8FE193E06AE04FEF81
:101280002FEF0FEF0E940613882331F48DEF92E0C9
:101290006AE471E09CD4C9C08DEF92E06BE571E027
:1012A00096D48FE193E069EF71E04CD7882351F039
:1012B0008DEF92E060E771E088D48DEF92E069EF06
:1012C00071E085D42DB73EB72C5030400FB6F8945E
:1012D0003EBF0FBE2DBFEDB7FEB7319607ED11E053
:1012E000ADB7BEB712961C930E93119736E8E32E56
:1012F00031E0F32EF382E28229EFC22E21E0D22EDA
:10130000D582C4829EEF892E91E0992E97828682A3
:1013100080913602909137029187808783E0A82ED2
:1013200082E0B82EB386A286EBD92DB73EB7245FF4
:101330003F4F0FB6F8943EBF0FBE2DBF702E012F4A
:101340005E2C6F2CEC2CCD2CF82C892C1A2DAB2C70
:1013500041C08DEF92E062E971E037D48DEF92E009
:1013600067ED71E034D48091360290913702019696
:101370009093370280933602ADB7BEB71C970FB675
:10138000F894BEBF0FBEADBFEDB7FEB73196119654
:101390007C92119712960C9352826382E482C582EA
:1013A000F6828782918780871287A386A9D92DB775
:1013B0003EB7245F3F4F0FB6F8943EBF0FBE2DBF20
:1013C0008DEF92E066EA71E000D48DEF92E0672D38
:1013D000702FFDD38FE193E067ED71E0BDD68823D8
:1013E00009F0B7CF8E010F5F1F4FC8016FE173E0A7
:1013F00047ED51E023E1DDD7C8010E94B6138823F1
:1014000059F0C80164E572E025D4C8010E94D413E4
:10141000C8010E94C31305C08DEF92E06DE271E038
:10142000D6D3CE0101960E9479136B960FB6F8942D
:10143000DEBF0FBECDBFCF91DF911F910F91FF9007
:10144000EF90DF90CF90BF90AF909F908F907F9064
:101450006F905F9008950F931F930DEF12E0C801F6
:1014600040E052EC61E070E0B8D18AE061E099D0F0
:10147000C8016AEB71E0ABD3E8DE1F910F910895CC
:101480001F920F920FB60F9211242F933F938F93B9
:101490009F93AF93BF938091700290917102A0913E
:1014A0007202B0917302309174020196A11DB11DB8
:1014B000232F2D5F2D3720F02D570196A11DB11D33
:1014C000209374028093700290937102A093720231
:1014D000B093730280916C0290916D02A0916E02A4
:1014E000B0916F020196A11DB11D80936C02909383
:1014F0006D02A0936E02B0936F02BF91AF919F9166
:101500008F913F912F910F900FBE0F901F901895C4
:101510008FB7F8942091700230917102409172025D
:10152000509173028FBFB901CA010895789484B5B0
:10153000826084BD84B5816084BD85B5826085BDCF
:1015400085B5816085BDEEE6F0E0808181608083B5
:10155000E1E8F0E010828081826080838081816098
:101560008083E0E8F0E0808181608083E1EBF0E05F
:10157000808184608083E0EBF0E080818160808303
:10158000EAE7F0E0808184608083808182608083EC
:101590008081816080838081806880831092C10017
:1015A0000895CF93DF93482F50E0CA0186569F4F8E
:1015B000FC0134914A575F4FFA018491882369F105
:1015C00090E0880F991FFC01E859FF4FA591B49155
:1015D000FC01EE58FF4FC591D491662351F42FB70B
:1015E000F8948C91932F909589238C9388818923EB
:1015F0000BC0623061F42FB7F8948C91932F9095C3
:1016000089238C938881832B88832FBF06C09FB743
:10161000F8948C91832B8C939FBFDF91CF91089589
:10162000482F50E0CA0182559F4FFC012491CA0106
:1016300086569F4FFC0194914A575F4FFA013491AF
:10164000332309F440C0222351F1233071F02430B8
:1016500028F42130A1F0223011F514C02630B1F069
:101660002730C1F02430D9F404C0809180008F77F6
:1016700003C0809180008F7D8093800010C084B56E
:101680008F7702C084B58F7D84BD09C08091B00082
:101690008F7703C08091B0008F7D8093B000E32FDF
:1016A000F0E0EE0FFF1FEE58FF4FA591B4912FB75A
:1016B000F894662321F48C919095892302C08C9133
:1016C000892B8C932FBF089508951F920F920FB608
:1016D0000F9211242F933F934F938F939F93EF93E8
:1016E000FF938091C00082FD1DC04091C6002091F3
:1016F000B5023091B6022F5F3F4F2F73307080914B
:10170000B7029091B8022817390771F0E091B5023D
:10171000F091B602EB58FD4F40833093B602209310
:10172000B50202C08091C600FF91EF919F918F9109
:101730004F913F912F910F900FBE0F901F901895D2
:10174000E0910903F0910A03E05CFF4F81919191D0
:1017500020813181821B930B8F739070892B09F04C
:10176000B3CF08951F920F920FB60F9211242F93AB
:101770003F938F939F93EF93FF932091F9023091C2
:10178000FA028091FB029091FC022817390731F48C
:101790008091C1008F7D8093C10014C0E091FB0255
:1017A000F091FC02E754FD4F20818091FB02909163
:1017B000FC0201968F7390709093FC028093FB0261
:1017C0002093C600FF91EF919F918F913F912F91B0
:1017D0000F900FBE0F901F901895AF92BF92DF929F
:1017E000EF92FF920F931F93CF93DF93EC017A0157
:1017F0008B01DD24403081EE580780E0680780E0EF
:10180000780711F0DD24D39491E0A92EB12CEC8956
:10181000FD89DD2069F0C50108A002C0880F991F6D
:101820000A94E2F7808360E079E08DE390E005C000
:10183000108260E874E88EE190E0A80197010E94B0
:1018400001262150304040405040569547953795ED
:10185000279580E12030380720F0DD2011F0DD24CD
:10186000D6CFE889F9893083EA89FB89208319A2D8
:10187000EE89FF89408121E030E0C9010C8C02C073
:10188000880F991F0A94E2F7482B4083EE89FF895D
:101890004081C9010D8C02C0880F991F0A94E2F79C
:1018A000482B4083EE89FF894081C9010E8C02C01C
:1018B000880F991F0A94E2F7482B4083EE89FF892D
:1018C00080810F8C02C0220F331F0A94E2F720950B
:1018D00028232083DF91CF911F910F91FF90EF90EC
:1018E000DF90BF90AF900895DC011C96ED91FC91C4
:1018F0001D97E05CFF4F2191319180819181281BE0
:10190000390B2F733070C9010895DC011C96ED91DD
:10191000FC911D97E05CFF4F20813181E054F04045
:10192000DF01AE5BBF4F8D919C911197281739074E
:1019300019F42FEF3FEF07C08D919C91E80FF91F2D
:101940008081282F30E0C9010895DC011C96ED91BB
:10195000FC911D97E05CFF4F20813181E054F04005
:10196000DF01AE5BBF4F8D919C911197281739070E
:1019700019F42FEF3FEF10C08D919C911197E80F54
:10198000F91F20818D919C91119701968F73907012
:1019900011969C938E9330E0C9010895DC019196D5
:1019A0008C919197882339F05496ED91FC9155973D
:1019B000808186FFF9CF91961C920895CF93DF9393
:1019C000EC01EE85FF85E05CFF4F20813181E05422
:1019D000F0402F5F3F4F2F733070DF01AE5BBF4F82
:1019E0008D919C91119728173907D1F3E05CFF4F37
:1019F00080819181E054F040E80FF91F6083EE850B
:101A0000FF85E05CFF4F31832083EE89FF892081D1
:101A100081E090E00F8C02C0880F991F0A94E2F7D2
:101A2000282B208381E089A3EC89FD898081806453
:101A3000808381E090E0DF91CF91089510920003C0
:101A40001092FF0288EE93E0A0E0B0E080930103E3
:101A500090930203A0930303B093040380E192E008
:101A60009093FE028093FD0285E792E090930A0333
:101A70008093090389EB92E090930C0380930B030E
:101A800085EC90E090930E0380930D0384EC90E03E
:101A90009093100380930F0380EC90E090931203D7
:101AA0008093110381EC90E09093140380931303CF
:101AB00082EC90E0909316038093150386EC90E0FF
:101AC000909318038093170384E08093190383E0B5
:101AD00080931A0387E080931B0385E080931C03A7
:101AE00081E080931D030895CF93DF931FDDB3DC66
:101AF000C0EADBE0A8DB2097E9F322DEFBCFCF9240
:101B0000DF92EF92FF920F931F93CF93DF937C01AD
:101B10006B018A01C0E0D0E00FC0D6016D916D016C
:101B2000D701ED91FC910190F081E02DC70109955D
:101B3000C80FD91F015010400115110571F7CE01D2
:101B4000DF91CF911F910F91FF90EF90DF90CF9099
:101B50000895EF92FF920F931F938C01DC01ED919A
:101B6000FC910190F081E02D6DE009957C01D80198
:101B7000ED91FC910190F081E02DC8016AE009959A
:101B80009C012E0D3F1DC9011F910F91FF90EF90F9
:101B90000895CF93DF93EC016115710519F420E0EE
:101BA00030E00FC0DB010D900020E9F71197A61B74
:101BB000B70BE881F9810280F381E02DAD01099531
:101BC0009C01C901DF91CF910895E3CF0895EF9271
:101BD000FF920F931F937C01DCDF8C01C701B9DFFB
:101BE000080F191FC8011F910F91FF90EF900895E2
:101BF000AF92BF92CF92DF92EF92FF920F931F931B
:101C0000CF93DF935C016B01EE24FF24C0E0D0E0B2
:101C10000FC0D501ED91FC9100811181C601BE017B
:101C20002BD0682FC501F8010995E80EF91E219601
:101C3000F60184819581C817D90758F3C701DF9150
:101C4000CF911F910F91FF90EF90DF90CF90BF90B9
:101C5000AF900895EF92FF920F931F937C01C8DF1E
:101C60008C01C70176DF9C01200F311FC9011F9134
:101C70000F91FF90EF900895FC0184819581681782
:101C8000790748F40190F081E02D309721F0E60FBC
:101C9000F71F8081089580E008950F931F93CF93DD
:101CA000DF93EC018B016F5F7F4F888199810E94E8
:101CB0003502009711F480E005C0998388831B8367
:101CC0000A8381E0DF91CF911F910F910895CF9307
:101CD000DF93EC0188819981892B29F08A819B818E
:101CE0008617970758F4CE01D8DF882341F08C81FE
:101CF0009D81892B19F4E881F981108281E0DF91BF
:101D0000CF910895EF92FF920F931F93CF93DF939C
:101D1000EC017B016C817D81E114F104B9F0411586
:101D2000510591F08A01060F171FB801D0DF8823F3
:101D300069F0888199812C813D81820F931FB701C1
:101D40000E9426031D830C8381E001C080E0DF91A7
:101D5000CF911F910F91FF90EF900895EF92FF9216
:101D60000F931F93DF93CF93CDB7DEB72B970FB6AB
:101D7000F894DEBF0FBECDBF7C01CB01BA018E014E
:101D80000F5F1F4FA8012AE030E00E945C03F801BA
:101D900001900020E9F73197E01BF10BC701B80172
:101DA000AF01B0DF2B960FB6F894DEBF0FBECDBFEC
:101DB000CF91DF911F910F91FF90EF900895EF92D7
:101DC000FF920F931F93DF93CF93CDB7DEB7279783
:101DD0000FB6F894DEBF0FBECDBF7C01CB018E01E4
:101DE0000F5F1F4FB8014AE050E00E943C03F8012A
:101DF00001900020E9F73197E01BF10BC701B80112
:101E0000AF0180DF27960FB6F894DEBF0FBECDBFBF
:101E1000CF91DF911F910F91FF90EF900895611581
:101E2000710511F480E00895DB010D900020E9F7C1
:101E30001197A61BB70BAD0165CFCF93DF93EC01D4
:101E400088819981009711F00E94DD011982188222
:101E50001D821C821B821A82DF91CF910895EF921E
:101E6000FF920F931F93CF93DF93EC017B018A01C5
:101E7000BA012DDF882319F4CE01DFDF07C01D83EF
:101E80000C8388819981B7010E942603CE01DF91DE
:101E9000CF911F910F91FF90EF900895CF93DF9313
:101EA000EC01198218821B821A821D821C821E82FA
:101EB0006115710549F0DB010D900020E9F71197DC
:101EC000A61BB70BAD01CBDFDF91CF9108950F9328
:101ED0001F93182F092F6115710551F0DB010D902B
:101EE0000020E9F71197A61BB70BAD01B8DF01C0C1
:101EF000A4DF812F902F1F910F910895FC01808105
:101F000091810C94DD010F931F93CF93DF938C018C
:101F1000FB01C081D181FC01EC0FFD1F80818F325C
:101F200009F4219698012C0F3D1FA0E0B0E00BC0F2
:101F3000FA01EA0FFB1F8083119621962F5F3F4F16
:101F4000AC30B10531F0F90180818F3211F0882376
:101F500079F7A40FB51F1C92F801EC0FFD1F8081CB
:101F60008F3209F42196FB01D183C083C00FD11FAA
:101F70008881811181E0DF91CF911F910F910895A8
:101F800010922403109225031092280310922A0322
:101F900082E090E0A0E0B0E080932C0390932D03CA
:101FA000A0932E03B0932F031092430310924D037E
:101FB00010924C0382E392E090934B0380934A0388
:101FC000109250030895EF92FF921F93DF93CF93E7
:101FD000CDB7DEB76E970FB6F894DEBF0FBECDBF9C
:101FE0009C01AB011C821B8282E392E09A8389836D
:101FF0001F827E010894E11CF11CC701B90121E098
:102000000E94C61E182F882319F0C7010E94881944
:10201000812F6E960FB6F894DEBF0FBECDBFCF9165
:10202000DF911F91FF90EF9008952F923F924F9272
:102030005F926F927F928F929F92BF92CF92DF9228
:10204000EF92FF920F931F93DF93CF93CDB7DEB73D
:10205000CB54D0400FB6F894DEBF0FBECDBF1C01ED
:102060007B012A0139011B8A1A8A82E392E0998B4B
:10207000888B1E8A19AA18AA9FA78EA71CAA1A8243
:1020800019828B0120E1C22ED12CCC0EDD1E93E0F3
:10209000892E912C8C0E9D1E03C0C80186016C01F7
:1020A000C101BE016F5F7F4FA4012DDFB82E40E05C
:1020B000882309F441E0C801B4019301F2010995B4
:1020C000882339F40E151F0519F1C8010E948819DB
:1020D0001FC0BB20A9F0C601B801A40121E00E94E5
:1020E000C61EB82E0E151F0519F0C8010E948819CA
:1020F000BB2071F00E151F0581F6CE018E96CECF56
:102100000E151F0519F0C8010E94881981E001C051
:1021100080E0C55BDF4F0FB6F894DEBF0FBECDBFCA
:10212000CF91DF911F910F91FF90EF90DF90CF90B3
:10213000BF909F908F907F906F905F904F903F9057
:102140002F9008959B01BC01655D7F4FC90148E355
:1021500053E120E030E069CF9B01BC01655D7F4F1A
:10216000C90143EE5FE020E030E05FCF2F923F9265
:102170004F925F926F927F928F929F92AF92BF9297
:10218000CF92DF92EF92FF920F931F93DF93CF9343
:10219000CDB7DEB7C954D0400FB6F894DEBF0FBE3E
:1021A000CDBF582E492EFB013A01190185A596A5F0
:1021B000998B888B22E332E03F872E8787A58A8B15
:1021C00080A98B8B81A98C8B82A993A9A4A9B5A97D
:1021D0008D8B9E8BAF8BB88F86A997A9A0ADB1AD23
:1021E000898F9A8FAB8FBC8F82AD93ADA4ADB5AD07
:1021F0008D8F9E8FAF8FB8A386AD89A3FF968191F7
:102200009191A191B1918AA39BA3ACA3BDA381910C
:102210009191A191B1918EA39FA3A8A7B9A7808105
:1022200091819BA78AA71FA61EA63DA72CA71AAA25
:102230007A018E01025F1F4F3CE2A32EB12CAC0E3F
:10224000BD1E4E010894811C911C35C0D7018C9194
:102250008F3221F40894E11CF11C2DC0422F4E193D
:102260004D3008F04CE0C42EDD24C401B701A601B6
:102270000E942D03F401EC0DFD1D1082C5010E948A
:102280008819C501B801A40121E00E94C61E882357
:1022900051F4E52DF42D1382128282E392E09183B2
:1022A000808316826AC0EC0CFD1CC8010E9488194C
:1022B000C50158018C01C7016FE270E00E941B0349
:1022C0009C01009719F6E618F708F101F182E08207
:1022D000E52DF42DD80112968D919C91139793833F
:1022E000828382E392E09183808314968C91149789
:1022F000848315968C911597858316968C911697E5
:10230000868317962D913D914D915C911A97278365
:102310003087418752871B962D913D914D915C915D
:102320001E9723873487458756871F962D913D91A9
:102330004D915C9152972787308B418B528B5396EE
:102340008C915397838B54962D913D914D915C9137
:102350005797248B358B468B578B58962D913D91F3
:102360004D915C915B97208F318F428F538F5C969C
:102370008D919C915D97958F848F852D942DC75B52
:10238000DF4F0FB6F894DEBF0FBECDBFCF91DF9108
:102390001F910F91FF90EF90DF90CF90BF90AF9083
:1023A0009F908F907F906F905F904F903F902F9075
:1023B00008959F92AF92BF92CF92DF92EF92FF92D9
:1023C0000F931F93DF93CF93CDB7DEB7CA57D0409B
:1023D0000FB6F894DEBF0FBECDBFC82E992E8A016E
:1023E000D22E43E0A42EB12CAC0EBD1EC501A80117
:1023F0009E012F5F3F4FBADEE980FA80E00EF11EAA
:10240000F701808142E352E02985882309F041C029
:102410008D819E819CA38BA35AA349A38F818DA3F9
:1024200088858EA32FA38A859B85AC85BD8588A7CB
:1024300099A7AAA7BBA78E859F85A889B9898CA7CC
:102440009DA7AEA7BFA78A899B89AC89BD8988ABA8
:1024500099ABAAABBBAB8E898CAB8F89988DA98DBC
:10246000BA8D8DAB9EABAFABB8AF8B8D9C8DAD8D68
:10247000BE8D89AF9AAFABAFBCAF8F8D98A19EAF29
:102480008DAF8C2D992DBE016F5D7F4F4FEC51E0CC
:10249000A7C0FE01EF5BFF4F11821082DE01DF96C5
:1024A00011965C934E93FE01EB5BFF4F108222234B
:1024B000A9F02250223050F4CD016AE473E0A70164
:1024C0002D2D0E94C61E882379F408C0CD01B501C8
:1024D000A7012D2D0E94C61E882321F48C2D992D35
:1024E000F5D07FC0C50114D7F6E0DF2251F0FE0120
:1024F000ED5AFF4F4081518162817381CE01CF96A9
:10250000FAD59E01235A3F4FFE01EF5BFF4F8081BA
:102510009181F9019383828382E392E091838083A6
:10252000FE01ED5BFF4F8081F9018483FE01EC5BCE
:10253000FF4F8081F9018583FE01EB5BFF4F8081B6
:10254000F9018683FE01EA5BFF4F80819181A281C0
:10255000B381F90187839087A187B287FE01E65B8B
:10256000FF4F80819181A281B381F9018387948794
:10257000A587B687FE01E25BFF4F80819181A28132
:10258000B381F9018787908BA18BB28BFE01EE5A44
:10259000FF4F8081F901838BFE01ED5AFF4F80814F
:1025A0009181A281B381F901848B958BA68BB78B26
:1025B000FE01E95AFF4F80819181A281B381F90127
:1025C000808F918FA28FB38FFE01E55AFF4F8081DC
:1025D0009181F901958F848F8C2D992DB901A701D7
:1025E0005BD18C2D992DC658DF4F0FB6F894DEBF06
:1025F0000FBECDBFCF91DF911F910F91FF90EF9054
:10260000DF90CF90BF90AF909F900895EF920F937F
:102610001F93CF93DF93EC01362F542F722FE02EB0
:1026200061E0432F252F072FFDD38823D1F08E01A2
:10263000035F1F4FC801BE0141E00E940D218823A6
:1026400039F4C801BE0140E00E940D21882349F001
:10265000CE018B96B8010E94B71B882319F081E048
:1026600001C080E0DF91CF911F910F91EF9008950D
:10267000EF92FF920F931F93DF93CF93CDB7DEB707
:102680006E970FB6F894DEBF0FBECDBF8C017B01F5
:102690001C821B8282E392E09A8389831F82C80195
:1026A00092DC882331F4CE010196B801A7010E9483
:1026B000C71F6E960FB6F894DEBF0FBECDBFCF9189
:1026C000DF911F910F91FF90EF900895FC0113820D
:1026D000128288EE93E0A0E0B0E084839583A68325
:1026E000B78380E292E091838083128E118E1486EC
:1026F0000895FC0180E292E0918380830895FC01BB
:10270000A18DB28D109719F420E030E009C0ED9151
:10271000FC9111970190F081E02DCD0109959C016C
:10272000C9010895DC015996ED91FC915A973097B3
:1027300019F420E030E018C024893589468957898A
:1027400083859485A585B685281B390B4A0B5B0BC1
:102750002030B0E83B07B0E04B07B0E05B0720F06B
:102760002FEF3FE740E050E0C9010895DC015996A2
:10277000ED91FC915A97309711F480E0089586818D
:10278000811181E00895CF93DF93EC01898D9A8DBB
:10279000009739F0BDD5898D9A8D0E94DD011A8E82
:1027A000198EDF91CF910895FC01818D928D009754
:1027B00009F066C50895DF93CF930F92CDB7DEB7CA
:1027C000FC01818D928D009741F0BE016F5F7F4FBC
:1027D00041E050E070D6019719F02FEF3FEF03C0B2
:1027E0008981282F30E0C9010F90CF91DF910895A2
:1027F000EF92FF920F931F93DF93CF930F92CDB77A
:10280000DEB77C01DC0159968D919C915A97009717
:1028100019F400E010E01DC0BE016F5F7F4F41E082
:1028200050E049D6019719F00FEF1FEF12C08981D0
:10283000082F10E0D7015996ED91FC915A974385E6
:102840005485658576854150504060407040CF0189
:1028500052D4C8010F90CF91DF911F910F91FF903B
:10286000EF900895FC01818D928D009719F420E07E
:1028700030E003C00E94991C9C01C9010895FC012D
:10288000818D928D009719F420E030E003C00E9402
:102890004B1E9C01C9010895EF92FF920F931F9365
:1028A000CF93DF93EC01F62EE72E8A011B821A826A
:1028B00088EE93E0A0E0B0E08C839D83AE83BF837D
:1028C00080E292E0998388838EE190E00E94330158
:1028D0009A8F898F009791F0DC018F2D9E2D9C019E
:1028E000F9018EE101900D928150E1F7CE010C9635
:1028F000B8014CE050E00E942D03188EDF91CF917B
:102900001F910F91FF90EF900895382F80916A03E7
:102910008F3F29F43EBD0DB407FEFDCF0895F89416
:10292000A0916B03B0916C0350916D03252F2095FE
:10293000E0916E03F0916F0340917003642F6095F6
:1029400090E08C9182238C9337FF03C08081842B8D
:1029500002C08081862380838C91852B8C939F5F1E
:10296000983011F0330FEDCF0000000000000000A0
:102970008C9128232C937894089580916A038F3F3B
:1029800019F4C3DF2EB530C0F894E0916E03F091D6
:102990006F03808190917003892B8083E0916B039A
:1029A000F0916C0360916D03A0917103B09172037B
:1029B00080917303482F50E0762F709520E030E02F
:1029C0008081862B8083220F8C9190E08423952335
:1029D000892B09F02160808187238083000000001B
:1029E0003F5F383069F77894822F0895FC01673093
:1029F00020F086E1858380E00895262F30E060FD99
:102A000002C0663019F48DB58E7F02C08DB581602D
:102A10008DBD8CB58C7F8CBD4CB522FD02C090E085
:102A200001C092E036952795822F8170842B892BE7
:102A30008CBD81E008950F931F93CF93DF938B019B
:102A40000E94880AEB0199DF8F3F11F481E008C0F2
:102A50000E94880A6C1B7D0B60177107A0F380E051
:102A6000DF91CF911F910F910895FC01848160E067
:102A70000C94100BFC01848161E00C94100BCF923C
:102A8000DF92EF92FF920F931F93CF93DF937C011E
:102A90006A01FC018485882319F40FEF1FEF30C011
:102AA00000E010E040E050E0212F332727FD3A9569
:102AB000F601E40FF51F808190E028273927307058
:102AC000C901F4E095958795FA95E1F78227932758
:102AD000102F0027082719279C01322F2227329513
:102AE000307F0227132725E0880F991F2A95E1F7E9
:102AF000082719274F5F5F4FF2E040305F07A1F6CC
:102B0000862F03DFC0E0D0E0F601EC0FFD1F8081CF
:102B1000FCDE219682E0C030D807B1F7812F9927DB
:102B200087FD9A95F2DE802FF0DE27DFF70182879E
:102B30008F71853011F481E006C081E1F701858352
:102B4000C70198DF80E0DF91CF911F910F91FF9037
:102B5000EF90DF90CF9008950F931F93CF93DF9363
:102B6000EC010E94880A8B0109C00E94880A601B40
:102B7000710B6D52714010F08FE009C0FEDE8A8744
:102B80008F3F99F38E3F11F481E005C08DE08D8376
:102B9000CE0170DF80E0DF91CF911F910F910895FA
:102BA000CF93DF93EC018E81882311F40DC0E5DE15
:102BB0008F819885019698878F83019782509240E4
:102BC000B0F3CE0157DF1E82DF91CF910895DF92DF
:102BD000EF92FF920F931F93CF93DF93EC01D62ECA
:102BE00079018A01DDDFCE0140DFCE016CE271E0C8
:102BF00022DF8D2D806489DE812F9927AA27BB27AC
:102C000084DEC801AA27BB2780DEBB27A12F902F17
:102C10008F2D7BDE8E2D79DEDD2011F485E906C057
:102C200088E0D81611F487E801C08FEF6EDE10E05F
:102C3000A4DE8A8787FF02C01150D1F7DF91CF91C0
:102C40001F910F91FF90EF90DF900895CF92DF9248
:102C5000EF92FF920F931F93CF93DF93EC017A01D2
:102C60008B016901411551056105710511F482E17E
:102C70002EC08B85833039F039E0EE0CFF1C001F2D
:102C8000111F3A95D1F7CE0168E1A80197019FDFA6
:102C9000882311F084E01BC0CE016EEFA601EFDEA9
:102CA0008823B1F0CE0168E572E0C5DE882311F417
:102CB00085E10DC0CE016DE020E030E040E050E065
:102CC00086DF882319F459DE882371F084E18D832F
:102CD000CE01D0DE80E0DF91CF911F910F91FF9068
:102CE000EF90DF90CF900895CE01C4DE81E0F3CF66
:102CF0006F927F928F929F92AF92BF92CF92DF920C
:102D0000EF92FF920F931F93CF93DF93EC015A0141
:102D10006B01390148010115110509F464C0C801AE
:102D2000820F931F8150924008F059C08E818823F2
:102D300071F088819981AA81BB81481759076A0778
:102D40007B0729F48F8198856816790638F5A88263
:102D5000B982CA82DB828B85833039F0E9E0AA0C24
:102D6000BB1CCC1CDD1CEA95D1F7CE0161E1A601AC
:102D700095012DDF882319F083E08D8330C0CE01CB
:102D8000EBDE882361F118861F8281E08E8306C006
:102D9000F4DD8F819885019698878F838F81988540
:102DA00086159705A8F300E010E007C0E6DDF701FF
:102DB000E00FF11F80830F5F1F4F08151905B0F357
:102DC0002F813885280D391D38872F8389858823E1
:102DD00019F02050324038F0CE01E2DE04C0CE01BE
:102DE00049DE80E001C081E0DF91CF911F910F911A
:102DF000FF90EF90DF90CF90BF90AF909F908F901B
:102E00007F906F900895EF92FF920F931F93790137
:102E100020E030E000E012E06BDF1F910F91FF90A7
:102E2000EF900895BF92CF92DF92EF92FF920F93AF
:102E30001F93CF93DF93EC01B62E1E2D1B861986B0
:102E40001E821D821C864C8320937403009375039D
:102E5000E0926A030E94880A6B018C8161E00E9403
:102E6000D10ACE0107DE1F3F09F462C080917503CD
:102E700060E00E94D10A8091740361E00E94D10A4F
:102E800080916A0361E00E94D10AE0916A032E2FCB
:102E9000332727FD3095F901EA57FF4FE491F0E021
:102EA000EE0FFF1FEE58FF4F8591949190936C03A6
:102EB00080936B0326563F4FF901849180936D03F5
:102EC000E09174032E2F332727FD3095F901EA573F
:102ED000FF4FE491F0E0EE0FFF1FEE58FF4F85919A
:102EE000949190936F0380936E0326563F4FF901A0
:102EF000849180937003E09175032E2F332727FD73
:102F00003095F901EA57FF4FE491F0E0EE0FFF1F13
:102F1000E458FF4F859194919093720380937103CD
:102F200026563F4FF90184918093730310E01AC035
:102F30008CE060E00E94D10A8BE061E00E94D10A3F
:102F40008DE061E00E94D10A8AE061E00E94D10A2E
:102F50008AE061E00E94100B83E58CBD8DB58E7F09
:102F60008DBDE4CF8FEFD1DC1F5F1A30D9F7CE01D2
:102F70007CDD09C00E94880A6C197D09615D77407B
:102F800010F081E054C0CE0160E020E030E040E08D
:102F900050E01DDE182F8A87813061F7CE0168E08E
:102FA0002AEA31E040E050E012DE82FF02C01B87D7
:102FB0000CC010E0E2DC8A871F5F1430D9F78A3A30
:102FC00011F082E034C082E08B878B85823021F063
:102FD000EE24FF2487010FC0E12CF12C012DB0E479
:102FE0001B2F09C00E94880A6C197D09615D77401A
:102FF00010F088E01CC0CE0167E320E030E040E044
:1030000050E0E5DDCE0169E2A8019701E0DD8A87A5
:10301000882341F78B858230C1F4CE016AE320E03A
:1030200030E040E050E0D3DD882331F086E08D834E
:10303000CE0120DD80E014C0A0DC807C803C11F457
:1030400083E08B879ADC99DC98DCCE0113DD8091DC
:103050006A038F3F11F081E003C0CE016B2DC6DC07
:10306000DF91CF911F910F91FF90EF90DF90CF9064
:10307000BF900895CF93DF93EC01DB0180E090E0F7
:1030800020E2FD01E80FF91F208301968B309105A6
:10309000C1F757E040E021C02E3219F082EC90E0F9
:1030A00007C05A3019F15AE048E017C03217F1F062
:1030B000FC01019634913323C9F75417B8F021323B
:1030C000A8F02F3798F4822F81568A3108F42052C5
:1030D000FD01E40FF11D20834F5F29912223E1F6CA
:1030E00090E08C91803219F091E001C090E0892F3E
:1030F000DF91CF9108956F927F928F929F92AF92BE
:10310000BF92CF92DF92EF92FF920F931F93CF93D4
:10311000DF93EC017A018B012E81222309F480C018
:103120008C899D89AE89BF8984179507A607B70743
:1031300008F476C085C0E114F1040105110549F4D5
:103140001F82188619861A861B861C861D861E8677
:1031500065C02B853C854D855E85EC8DFD8D858517
:1031600090E00996215030404040504039014A01DA
:10317000082E04C096948794779467940A94D2F7A3
:103180002F5F3F4F4F4F5F4F0894E108F10801094F
:1031900011095701680104C0D694C794B794A79445
:1031A0008A95D2F70894E11CF11C011D111DA6148B
:1031B000B704C804D90428F021153105410551058B
:1031C00049F4888D998DAA8DBB8D8F839887A987A7
:1031D000BA8716C0A618B708C808D90811C04F8109
:1031E000588569857A858C8D9D8D94010E94EA228F
:1031F0000894A108B108C108D108882331F410C08F
:1032000087E0882E912C8C0E9D1EA114B104C10460
:10321000D10429F7EB86FC860D871E8781E001C06B
:1032200080E0DF91CF911F910F91FF90EF90DF90A1
:10323000CF90BF90AF909F908F907F906F900895A8
:10324000223009F078CFE6CFCF93DF93EC01462F01
:103250006F85788989899A89A6D7882319F420E00F
:1032600030E00AC08B89282F30E095E0220F331F11
:103270009A95E1F728583C4FC901DF91CF91089505
:103280000F931F93CF93DF938C01FC0186818823DA
:10329000C9F1858187FF34C0C80161E0D5DFEC0149
:1032A000009781F1F8018681823040F48489958904
:1032B000A689B7898C8F9D8FAE8FBF8FF801808DC7
:1032C000918D9B8F8A8F808D918DA28DB38DCD0135
:1032D000AA27BB279D8B8C8BE0917603F091770317
:1032E000309751F0BE016A5E7F4FCE014896099536
:1032F000888D998D9B8B8A8BF80185818F7785834B
:10330000F4D601C080E0DF91CF911F910F91089515
:10331000CF93DF93EC01B4DF882311F01E8281E0AC
:10332000DF91CF9108956F927F928F929F92AF928B
:10333000BF92CF92DF92EF92FF920F931F93DF9392
:10334000CF9300D000D0CDB7DEB77C015A016B011E
:10335000DC0116968C911697813009F08CC0159679
:103360008C9181FF88C09BC00097A105B10511F425
:1033700081E082C0F7016384748485849684C701E8
:10338000B601A501B8DE882309F475C0D7015C96A3
:103390008D919C915D97A114B104C104D10489F46D
:1033A00058964D915D916D917C915B970E945C2345
:1033B000882309F460C0F701108E118E128E138ECF
:1033C0003DC0D70117964D915D916D917C911A97F3
:1033D0009E012F5F3F4F0E94EA22882309F44BC0D1
:1033E000D7015C96ED91FC915D9749815A816B8183
:1033F0007C818789803129F088EF9FEFAFEFBFE0B4
:1034000004C088EF9FEFA0E0B0E0481759076A07B3
:103410007B07A0F4CF010E945C23882361F1F701B0
:103420004781508561857285848D958D0FEF1FEFE3
:103430002FEF3FE00E944F228823E9F0D7015496F6
:10344000AD92BD92CD92DC92579715968C911597BF
:10345000806815968C93C70113DF882361F0B6014D
:10346000A5016A147B048C049D0410F4B401A3012B
:10347000C70141DE01C080E00F900F900F900F90C8
:10348000CF91DF911F910F91FF90EF90DF90CF9040
:10349000BF90AF909F908F907F906F900895F701AD
:1034A00084899589A689B78984179507A607B707E0
:1034B00008F05ACFE0CF2F923F924F925F926F92D7
:1034C0007F928F929F92AF92BF92CF92DF92EF92B4
:1034D000FF920F931F93CF93DF93EC012A018E810C
:1034E000882309F4C5C08D8180FFC2C0D7C02501E3
:1034F0004E185F084B0177E0272E312C2C0E3D1E15
:103500003201B0C02B853C854D855E856FEFA62EC0
:1035100061E0B62EA222B3228E8179018A0199E060
:1035200016950795F794E7949A95D1F7EC8DFD8D54
:10353000823049F4428D538D648D758D4E0D5F1D23
:10354000601F711F3FC0D480DA94DE20A114B10443
:10355000D9F4DD20C9F4211531054105510549F49F
:10356000888D998DAA8DBB8D8F839887A987BA87FF
:103570000BC04F81588569857A85CF0191010E94E2
:10358000EA22882309F474C0EC8DFD8D4F815885A3
:1035900069857A854250504060407040058404C07F
:1035A000440F551F661F771F0A94D2F786859785AB
:1035B000A089B189480F591F6A1F7B1F4D0D511DEE
:1035C000611D711D80E092E08A199B0963018615D7
:1035D000970508F46C018D8186FD06C080E0C81651
:1035E00082E0D80609F072C0809108029091090229
:1035F000A0910A02B0910B02481759076A077B078E
:1036000009F464C08091780590917905950186014F
:1036100074016EDB882361F18C0C9D1C12C0950136
:1036200028583C4FA9014C0D5D1DD401F90102C081
:1036300081918D93E417F507D9F7E21BF30B8E0EFA
:103640009F1E960140E050E08B859C85AD85BE8530
:10365000820F931FA41FB51F8B879C87AD87BE87E2
:103660006C187D086114710409F04CCFA20102C0EE
:103670004FEF5FEFCA01DF91CF911F910F91FF9044
:10368000EF90DF90CF90BF90AF909F908F907F9002
:103690006F905F904F903F902F900895AC88BD88B9
:1036A000CE88DF88EB84FC840D851E859A0140E07E
:1036B00050E0D601C5018E199F09A00BB10B8217EE
:1036C0009307A407B50708F412CF14CFCB01BA01B2
:1036D00040E069D5882309F0A2CFCACFCF92DF920C
:1036E000EF92FF920F931F93DF93CF930F92CDB77B
:1036F000DEB76C01FC018681823068F0E384F484DB
:1037000005851685C601BE016F5F7F4F41E050E021
:10371000D2DE019769F020E030E0C9010F90CF912F
:10372000DF911F910F91FF90EF90DF90CF90089560
:10373000F60183859485A585B6854F96A11DB11D9B
:1037400083879487A587B687F5E016950795F79444
:10375000E794FA95D1F78E2D8F70282F30E0E5E0B1
:10376000220F331FEA95E1F728583C4FD6CF0F932D
:103770001F93CF93DF93EC018B018E81882309F097
:1037800040C0FB0187898031B1F482E08E83188EBE
:10379000198E1A8E1B8E808D918DA0E0B0E045E0D1
:1037A000880F991FAA1FBB1F4A95D1F78C8B9D8B41
:1037B000AE8BBF8B14C0803221F583E08E83FB017A
:1037C000428D538D648D758D488F598F6A8F7B8F95
:1037D0009E012C5E3F4FC801C6D7882391F01D8FF4
:1037E0000C8F81E08D831F82188619861A861B86AE
:1037F0001C861D861E861F86188A198A1A8A1B8AAD
:1038000001C080E0DF91CF911F910F9108951F9328
:10381000CF93DF93EC01142FE62FF0E075E0EE0F6D
:10382000FF1F7A95E1F7E858FC4F8385817121F0FD
:10383000842F827409F052C06B8B809108029091A2
:103840000902A0910A02B0910B028F87988BA98B75
:10385000BA8B84899589A0E0B0E0BC015527442744
:10386000828D938DA0E0B0E0482B592B6A2B7B2BE7
:10387000488F598F6A8F7B8F838590E08871907015
:10388000009751F4848D958DA68DB78D8C8B9D8B73
:10389000AE8BBF8B81E00BC0409701F59E012C5E83
:1038A0003F4F8C8D9D8D5FD78823C1F084E08E8340
:1038B000812F8F708D831F82188619861A861B862A
:1038C0001C861D861E8616FD02C081E008C0CE0142
:1038D00040E050E060E070E026DD01C080E0DF9174
:1038E000CF911F910895CF93DF93EC019C01295F45
:1038F0003F4F8C8D9D8D41E050E060E070E0A1D79E
:103900008823A1F0888D998DAA8DBB8D0097A10584
:10391000B10559F48F819885A985BA85888F998FCB
:10392000AA8FBB8F8D8180688D8381E0DF91CF91DD
:1039300008952F923F924F925F927F928F929F9223
:10394000AF92BF92CF92DF92EF92FF920F931F93AD
:10395000DF93CF9300D000D000D0CDB7DEB76C019D
:10396000162F072F5E834D83DC0116968C911697D8
:10397000813009F06BC115968C9181FF67C188C1B8
:10398000F601448955896689778983859485A5855B
:10399000B68584179507A607B70729F0C601ABDBE4
:1039A000882309F453C1812F902F9C0129012D8078
:1039B0003E8014C1D6015C96ED91FC915D97DA01D1
:1039C000C90119E0B695A795979587951A95D1F7EE
:1039D00074807A9478227FEF872E71E0972E82226E
:1039E0009322772009F04EC08114910409F04AC057
:1039F000D60117964D915D916D917C911A97411565
:103A000051056105710581F458968D919D910D9038
:103A1000BC91A02D0097A105B10551F1F601878356
:103A20009087A187B2872EC0CF019E012F5F3F4FA5
:103A3000D1D5882319F41E821D8210C129813A81B3
:103A40004B815C81D6015C96ED91FC915D978789F5
:103A5000803129F088EF9FEFAFEFBFE004C088EF1F
:103A60009FEFA0E0B0E0281739074A075B0728F06E
:103A7000C60139DF882331F4E9C0F6012783308796
:103A80004187528780E092E0881999095101821597
:103A9000930508F45C01D6015C96ED91FC915D976D
:103AA0001796ED90FD900D911C911A978EEF9FEF58
:103AB000AFEFBFEFE80EF91E0A1F1B1F058404C0FD
:103AC000EE0CFF1C001F111F0A94D2F78685978504
:103AD000A089B189E80EF91E0A1F1B1FE70CF11C13
:103AE000011D111D90E0A91692E0B90649F58091DB
:103AF000080290910902A0910A02B0910B028E1562
:103B00009F05A007B10761F48FEF9FEFAFEFBFEF05
:103B10008093080290930902A0930A02B0930B02CB
:103B20008091780590917905B801A70192018ED80E
:103B3000882309F48BC0A0E0B2E04A0E5B1E3CC0B3
:103B40008114910401F5F601238534854585568558
:103B500084899589A689B789281739074A075B0799
:103B600090F0C3D2882309F471C0E0920802F09269
:103B7000090200930A0210930B0280917A0581607A
:103B800080937A0507C0C801B70141E00CD38823B0
:103B900009F45CC0940128583C4FA9014A0D5B1DF3
:103BA000D201F90102C08D918193E417F507D9F78D
:103BB000E21BF30B4E0E5F1E2A183B08950140E0F6
:103BC00050E0F60183859485A585B685820F931F05
:103BD000A41FB51F83879487A587B687D6011B9638
:103BE0002D913D914D915C911E972114310409F066
:103BF000E1CE54968D919D910D90BC91A02D821790
:103C00009307A407B50748F4F601248B358B468B40
:103C1000578B85818068858311C080917603909150
:103C20007703892B59F08D819E81892B39F0D6013C
:103C300015968C911597806815968C93F601858161
:103C400083FF0CC0C6011CDB882341F481E0D60150
:103C500014968C93EFEFFFEFFE83ED838D819E81B1
:103C600026960FB6F894DEBF0FBECDBFCF91DF9181
:103C70001F910F91FF90EF90DF90CF90BF90AF908A
:103C80009F908F907F905F904F903F902F900895DE
:103C900082FD76CE88CEDB010D900020E9F71197EA
:103CA000A61BB70BAD0145CEDF93CF930F92CDB7D7
:103CB000DEB76983BE016F5F7F4F41E050E039DEC0
:103CC0000F90CF91DF910895DF92EF92FF920F93C3
:103CD0001F93CF93DF93EC0106DE882309F44DC0D8
:103CE000EC8DFD8DEF80F88409851A858EEF9FEFAE
:103CF000AFEFBFEFE80EF91E0A1F1B1F058404C0BB
:103D0000EE0CFF1C001F111F0A94D2F786859785C1
:103D1000A089B189E80EF91E0A1F1B1FD4800894E0
:103D2000E108F108010911090AC0C801B7016D0DC8
:103D3000711D811D911D14D28823F9F0DA94DD20C4
:103D4000A1F7EC8DFD8D20E032E040E050E00584ED
:103D500004C0220F331F441F551F0A94D2F78C89C9
:103D60009D89AE89BF89820F931FA41FB51F8C8BBD
:103D70009D8BAE8BBF8B81E001C080E0DF91CF9146
:103D80001F910F91FF90EF90DF9008956F927F92B7
:103D90008F929F92AF92BF92CF92DF92EF92FF925B
:103DA0000F931F93DF93CF93CDB7DEB72B970FB64B
:103DB000F894DEBF0FBECDBF5C016B01822EDC012B
:103DC00016968C91882309F0CCC0CA018E010F5F32
:103DD0001F4FB8014FD9882309F4C3C0F601848D61
:103DE000958DD5015D969C938E935C971782108676
:103DF00011861286D6011B961D921D921D921C9251
:103E00001E979924380140C0C60168DCFC01009768
:103E100009F4A7C085E016950795F794E7948A956D
:103E2000D1F71E2D1F708081882311F0853ED1F4BB
:103E3000992091F4D50153961C9353972091080231
:103E40003091090240910A0250910B021F962D9366
:103E50003D934D935C9352978081882399F49924E4
:103E6000939421C0C301BF014BE050E00E940503C1
:103E7000009751F4882D8073803309F472C0C50116
:103E8000612F6CC099249394F601E384F484058532
:103E9000168584899589A689B789E816F9060A07DF
:103EA0001B0708F4B1CF882D8271823109F059C007
:103EB000992039F0C50161E0C7D98C01009781F4E0
:103EC00050C0D60116968C91823009F44AC0C601C2
:103ED000FBDE882309F445C0F501138A08E713E0E7
:103EE00080E2D8011D928A95E9F7D801FE0131964A
:103EF0008BE001900D928150E1F7E0917603F09113
:103F00007703309739F0B801625F7F4FC801409660
:103F1000099509C081E298E2F801918B808B80E0DD
:103F200098E097878687D80150968D919C915197FC
:103F300053969C938E93529759969C938E93589731
:103F40001E968D919C911F9757969C938E93569792
:103F5000CCD0882331F0C501F5016389482D57DCA9
:103F600001C080E02B960FB6F894DEBF0FBECDBF28
:103F7000CF91DF911F910F91FF90EF90DF90CF9045
:103F8000BF90AF909F908F907F906F900895EF9229
:103F9000FF920F931F93DF93CF93CDB7DEB7A09718
:103FA0000FB6F894DEBF0FBECDBF8C017B0123E3BB
:103FB000EDDE882309F48BC081E0D80115968C933F
:103FC000159784E016968C93C8017EDE882309F449
:103FD0007EC0C80155D9882309F479C0C80161E0C1
:103FE00033D9FC01009709F472C080E18387DE01B8
:103FF000119680E201900D928150E1F7FE01329618
:1040000020E2CE010C962193E817F907E1F78EE242
:104010008983D8015C96ED91FC915D9758966D91DE
:104020007D918D919C915B97625070408040904053
:10403000058404C0660F771F881F991F0A94D2F762
:104040002685378540895189620F731F841F951F0C
:1040500041E0A9D08823D9F1A8E7B3E0FE01319669
:1040600080E201900D928150E1F78EE28A83F701A0
:1040700086818250823028F41C8E1B8E1E8A1D8AF7
:1040800012C0D70158968D919C9159979C8F8B8F18
:1040900058968D919D910D90BC91A02DCD01AA2790
:1040A000BB279E8B8D8BA8E9B3E0FE01319680E2A1
:1040B00001900D928150E1F780E490E0A0E0B0E043
:1040C000F80183879487A587B6870FD001C080E069
:1040D000A0960FB6F894DEBF0FBECDBFCF91DF9193
:1040E0001F910F91FF90EF90089580917A0588239A
:1040F00099F1409108025091090260910A02709171
:104100000B02809178059091790528E733E00E94B1
:104110002616882319F140917B0550917C0560910A
:104120007D0570917E05411551056105710591F080
:10413000809178059091790528E733E00E94261652
:10414000882361F010927B0510927C0510927D050A
:1041500010927E0510927A0581E0089580E008951E
:10416000EF92FF920F931F937B018C01BEDF882398
:10417000A9F0E8E7F3E0119285E0E837F807D9F70E
:10418000E0920802F092090200930A0210930B02D7
:1041900080917A05816080937A0581E01F910F916B
:1041A000FF90EF900895DF92EF92FF920F931F938D
:1041B0007B018C01D42E8091080290910902A0917C
:1041C0000A02B0910B028E159F05A007B107B9F046
:1041D0008CDF8823D9F08091780590917905B8011A
:1041E000A70128E733E00E940317882379F0E092C3
:1041F0000802F092090200930A0210930B028091C8
:104200007A058D2980937A0581E001C080E01F91B5
:104210000F91FF90EF90DF9008958F929F92AF9251
:10422000BF92CF92DF92EF92FF920F931F93CF93A3
:10423000DF936C01142F7093790560937805442304
:1042400021F48824992454013FC0453008F019C155
:1042500060E070E080E090E040E0A5DF882309F4B2
:1042600010C1C12FD0E02197FE0174E0EE0FFF1FB7
:104270007A95E1F7E858FC4FE254FE4F8081EE5BFF
:10428000F14090E08F779070892B09F0FAC0E653E7
:10429000FE4F80819181A281B38184369105A10571
:1042A000B10508F4EEC064E0CC0FDD1F6A95E1F7BC
:1042B000C25CDA4F88809980AA80BB808114910407
:1042C000A104B10409F4DDC0C501B40140E06BDF15
:1042D000882309F4D6C08091830390918403805091
:1042E000924009F0CEC020918803222309F4C9C06E
:1042F0008091860390918703892B09F4C2C0809135
:104300008503882309F4BDC0F601228B80918503C3
:104310008483158661E070E007C04F5FF601458732
:104320004150483008F0ADC0F6014585848190E0E9
:104330009B01042E02C0220F331F0A94E2F782175A
:10434000930759F720918E0330918F032115310582
:1043500019F040E050E008C020919C0330919D038B
:1043600040919E0350919F03F60125833683478336
:104370005087E0908603F090870300E010E0E80C9F
:10438000F91C0A1D1B1DE38AF48A058B168B80918C
:10439000890390918A03918F808F6091880370E0E8
:1043A00080E090E00FD46E0D7F1D801F911FF601FD
:1043B000628F738F848F958F2091890330918A0348
:1043C00055E0220F331F5A95E1F721503E4F232F1E
:1043D0003327269540E050E0260F371F481F591F0E
:1043E00026873787408B518B80918B0390918C036C
:1043F000009719F0A0E0B0E008C080919803909178
:104400009903A0919A03B0919B0385017401E21A6C
:10441000F30A040B150BA8019701280F391F4A1F37
:104420005B1FF601058404C056954795379527957F
:104430000A94D2F72187328743875487253FFFE0CC
:104440003F07F0E04F07F0E05F0710F48CE006C094
:10445000255F3F4F4040504028F480E1F601878BB4
:1044600081E010C08091A4039091A503A091A603C0
:10447000B091A703F601828F938FA48FB58F80E24E
:10448000EECF80E0DF91CF911F910F91FF90EF90E1
:10449000DF90CF90BF90AF909F908F9008954F92F4
:1044A0005F926F927F928F929F92AF92BF92CF92C4
:1044B000DF92EF92FF920F931F93CF93DF93EC0164
:1044C0006A017B01280139014230510561057105FE
:1044D00008F46EC089859A85AB85BC850196A11DBF
:1044E000B11D84179507A607B70708F461C02B898B
:1044F0003C894D895E898F89803129F499278F2DD8
:104500007E2D6D2D09C0C701B60117E096958795E0
:10451000779567951A95D1F74B015C01820E931E32
:10452000A41EB51E8091080290910902A0910A0272
:10453000B0910B0288169906AA06BB0631F0C50198
:10454000B40140E030DE882399F18F89803149F44D
:10455000F601F070EE0FFF1FE858FC4F51824082C9
:104560000DC0F601EF77F070EE0FFF1FEE0FFF1F8B
:10457000E858FC4F408251826282738280917A05B2
:10458000816080937A058A89823080F08D819E8156
:10459000AF81B885880E991EAA1EBB1E80927B052E
:1045A00090927C05A0927D05B0927E0581E001C0CD
:1045B00080E0DF91CF911F910F91FF90EF90DF90FE
:1045C000CF90BF90AF909F908F907F906F905F90B3
:1045D0004F900895CF92DF92EF92FF920F931F9327
:1045E000CF93DF93EC017A018B01690189859A856C
:1045F000AB85BC850196A11DB11D84179507A60743
:10460000B70708F44FC02B893C894D895E898F8993
:10461000803129F49927812F702F6F2D09C0C8018F
:10462000B701E7E09695879577956795EA95D1F775
:10463000260F371F481F591F8091080290910902C9
:10464000A0910A02B0910B02281739074A075B07AD
:1046500031F0CA01B90140E0A6DD882319F18F8944
:10466000803159F4F701F070EE0FFF1FE858FC4F4E
:1046700080819181A0E0B0E00EC0F701EF77F0708B
:10468000EE0FFF1FEE0FFF1FE858FC4F8081918156
:10469000A281B381BF70F60180839183A283B3832B
:1046A00081E001C080E0DF91CF911F910F91FF90D9
:1046B000EF90DF90CF900895AF92BF92CF92DF92AC
:1046C000EF92FF920F931F93DF93CF9300D000D010
:1046D000CDB7DEB76C017A018B0182E090E0A0E0FB
:1046E000B0E0F60180839183A283B3835E010894D6
:1046F000A11CB11CC601B801A70195016BDF88237D
:1047000011F1C601B801A70100E010E020E030E09F
:10471000C6DE8823C1F0E980FA800B811C81F60196
:104720008789803129F088EF9FEFAFEFBFE004C0A9
:1047300088EF9FEFA0E0B0E0E816F9060A071B0734
:10474000C8F281E001C080E00F900F900F900F90B1
:10475000CF91DF911F910F91FF90EF90DF90CF905D
:10476000BF90AF9008954F925F926F927F928F9219
:104770009F92AF92BF92CF92DF92EF92FF920F93F0
:104780001F93DF93CF9300D000D0CDB7DEB76C017D
:1047900049835A836B837C833901EE24FF2487018C
:1047A0002E010894411C511C812CA2E09A2EA12CB0
:1047B000B12C49815A816B817C81C60192010ADF4B
:1047C000882351F1D501C401F601058404C0880F86
:1047D000991FAA1FBB1F0A94D2F7E80EF91E0A1FE1
:1047E0001B1F29813A814B815C818789803129F0A7
:1047F00088EF9FEFAFEFBFE004C088EF9FEFA0E02E
:10480000B0E0281739074A075B0798F2F301E08206
:10481000F1820283138381E00F900F900F900F902D
:10482000CF91DF911F910F91FF90EF90DF90CF908C
:10483000BF90AF909F908F907F906F905F904F90C0
:1048400008952F923F924F925F926F927F928F9234
:104850009F92AF92BF92CF92DF92EF92FF920F930F
:104860001F93DF93CF93CDB7DEB72F970FB6F89492
:10487000DEBF0FBECDBF1C014A875B876C877D877B
:104880003F872E87D9010D911D912D913C910115E6
:1048900011052105310549F0480159010894811C91
:1048A000911CA11CB11C198610C0FC018080918054
:1048B000A280B38019868A859B85AC85BD850197CA
:1048C000A105B10511F491E09987D10119968D9157
:1048D0009D910D90BC91A02D0196A11DB11D8D83C0
:1048E0009E83AF83B8877501640144245524320147
:1048F0008E010F5F1F4FF10181859285A385B485DD
:10490000481659066A067B0608F08CC08D819E8188
:10491000AF81B8858C159D05AE05BF0550F482E0CA
:10492000882E912CA12CB12CB2E0CB2ED12CE12CD5
:10493000F12CC101B701A60198014CDE882309F4CE
:1049400071C089819A81AB81BC81A70196012F5FDB
:104950003F4F4F4F5F4F0097A105B10519F0490137
:104960005A010DC0281939094A095B098A859B85B6
:10497000AC85BD85281739074A075B0759F00894AD
:10498000411C511C611C711C0894C11CD11CE11CF0
:10499000F11CB1CFC101A601B7010FEF1FEF2FEF3F
:1049A0003FE07DDD882391F43DC026013701089466
:1049B0004108510861087108C101B301A2019701C2
:1049C00086016DDD882371F1730162018C149D04F1
:1049D000AE04BF0450F3AE85BF854D915D916D91DE
:1049E0007C91411551056105710531F0C1019501B9
:1049F000840155DD8823B1F0EE85FF8580829182A8
:104A0000A282B382F985FF2359F00894811C911C7E
:104A1000A11CB11CD1018D929D92AD92BC921397B5
:104A200081E001C080E02F960FB6F894DEBF0FBE84
:104A3000CDBFCF91DF911F910F91FF90EF90DF904D
:104A4000CF90BF90AF909F908F907F906F905F902E
:104A50004F903F902F9008955058BB27AA270ED013
:104A600077C068D030F06DD020F031F49F3F11F462
:104A70001EF45DC00EF4E095E7FB53C0E92F79D03A
:104A800080F3BA17620773078407950718F071F46B
:104A90009EF591C00EF4E0950B2EBA2FA02D0B01C0
:104AA000B90190010C01CA01A0011124FF27591B73
:104AB00099F0593F50F4503E68F11A16F040A22F79
:104AC000232F342F4427585FF3CF469537952795EA
:104AD000A795F0405395C9F77EF41F16BA0B620BE9
:104AE000730B840BBAF09150A1F0FF0FBB1F661F30
:104AF000771F881FC2F70EC0BA0F621F731F841F73
:104B000048F4879577956795B795F7959E3F08F098
:104B1000B3CF9395880F08F09927EE0F9795879557
:104B2000089597F99F6780E870E060E008959FEF2F
:104B300080EC089500240A94161617061806090634
:104B4000089500240A941216130614060506089503
:104B5000092E0394000C11F4882352F0BB0F40F48B
:104B6000BF2B11F460FF04C06F5F7F4F8F4F9F4FCB
:104B7000089557FD9058440F551F59F05F3F71F04D
:104B80004795880F97FB991F61F09F3F79F08795B4
:104B90000895121613061406551FF2CF4695F1DF3D
:104BA00008C0161617061806991FF1CF86957105CD
:104BB000610508940895E894BB2766277727CB0101
:104BC00097F90895629FD001739FF001829FE00DD5
:104BD000F11D649FE00DF11D929FF00D839FF00D7C
:104BE000749FF00D659FF00D9927729FB00DE11D28
:104BF000F91F639FB00DE11DF91FBD01CF01112405
:104C00000895A1E21A2EAA1BBB1BFD010DC0AA1F0D
:104C1000BB1FEE1FFF1FA217B307E407F50720F025
:104C2000A21BB30BE40BF50B661F771F881F991FA0
:104C30001A9469F760957095809590959B01AC01E9
:104C4000BD01CF010895EE0FFF1F0590F491E02DF7
:104C50000994AA1BBB1B51E107C0AA1FBB1FA617C3
:104C6000B70710F0A61BB70B881F991F5A95A9F715
:104C700080959095BC01CD0108952F923F924F925F
:104C80005F926F927F928F929F92AF92BF92CF92DC
:104C9000DF92EF92FF920F931F93CF93DF93CDB7E5
:104CA000DEB7CA1BDB0B0FB6F894DEBF0FBECDBF5D
:104CB00009942A88398848885F846E847D848C842E
:104CC0009B84AA84B984C884DF80EE80FD800C8137
:104CD0001B81AA81B981CE0FD11D0FB6F894DEBF1A
:104CE0000FBECDBFED01089511E0C2EDD1E003C0CC
:104CF000FE01ABDF2296C43DD107D1F7F894FFCF78
:104D0000696E76616C696400006E616D652C656C1E
:104D100065766174696F6E2C6C6174697475646515
:104D20002C6C6F6E676974756465002C000A436FA4
:104D3000756C646E2774206F70656E2074686520D2
:104D40006C6F672066696C65210046616C68612044
:104D50006E6F2063617274616F2100437269616ECE
:104D6000646F2044697265746F72696F2E2E2E0015
:104D700044697265746F72696F206A612065786931
:104D80007374653A200025732F257325303364250D
:104D900073004172717569766F206A612045786988
:104DA0007374653A2000437269616E646F206F20EE
:104DB0004172717569766F3A2000496E6369616E60
:104DC000646F206F2063617274616F205344002F01
:104DD000002000830500000000000000000000002B
:104DE00000000000000000000000000000000000C3
:104DF0000000000000010020C16C6F6773004C4F81
:104E0000472D002E63737600FFFFFFFF00000000B8
:104E1000DE0C7F0D740CA50C850CCE0C0000000080
:104E20007F1332149213DB13F813D4133F140000D2
:064E30000000541E7F0D7E
:00000001FF
