:10000000A8C10000CEC10000CCC100000C94DD1AD4
:100010000C94061B0C942F1BC4C10000C2C100002D
:10002000C0C10000BEC10000BCC10000BAC10000D8
:10003000B8C10000B6C10000B4C10000B2C10000E8
:100040000C94490CAEC100000C94C70D0C94140E16
:10005000A8C10000A6C10000A4C10000A2C1000008
:10006000A0C100009EC100002E194119501963194A
:100070006A19B619BF19CA19D119D719D719D719B9
:10008000D719D719D719D719D719D719D719D719F0
:10009000D719D719D719D719D719D719D719D719E0
:1000A000D719D719D719D7192E1939194119501934
:1000B00063196A197D1984198B194E616F20636F5A
:1000C0006E7365677569206162726972206F206165
:1000D00072717569766F206465206C6F67210053BB
:1000E0006174656C6C697465733A20005370656562
:1000F00064286B6D7068293A2000436F75727365D0
:10010000202864656772656573293A2000416C7424
:10011000697475646520286D6574657273293A2069
:10012000002E003A003A002054696D653A20002FF5
:10013000002F00446174653A20002C20004C61744B
:100140002F4C6F6E673A200047505320496E696309
:100150006961646F210000000000240027002A006C
:1001600000000000250028002B00000000002300F4
:100170002600290004040404040404040202020208
:10018000020203030303030301020408102040805A
:1001900001020408102001020408102000000007DA
:1001A000000201000003040600000000000000003F
:1001B00000C201000100110011000C0000E100006C
:1001C0000A002500250021000096000019003900D2
:1001D00039003600127A00001F0046004600440035
:1001E0008070000022004D004D004A00004B0000CE
:1001F0003600750075007200403800004A009C000F
:100200009C009900802500007200EC00EC00E900E1
:10021000C0120000E900DA01DA01D701600900002C
:10022000D701B603B603B303B0040000B3036E07EF
:100230006E076B072C010000DC0EC11DC11DBE1D29
:100240007C3C3E5E2B3D3F2F5B5D3B2C2A225C00BD
:1002500000407A10F35A00A0724E18090010A5D47D
:10026000E80000E87648170000E40B54020000CADA
:100270009A3B000000E1F505000080969800000020
:1002800040420F000000A08601000000102700007F
:100290000000E803000000006400000000000A0005
:1002A000000000000100000000002C76D888DC6708
:1002B0004F0823DFC1DFAE59E1B1B796E5E3E45360
:1002C000C63AE651997696E8E6C28426EB898C9B7D
:1002D00062ED407C6FFCEFBC9C9F40F2BAA56FA51D
:1002E000F490055A2AF75C936B6CF9676DC11BFC9F
:1002F000E0E40D47FEF520E6B500D0ED902E0300BA
:10030000943577050080841E080000204E0A000006
:1003100000C80C333333330F986E12831141EF8DC5
:100320002114893BE65516CFFEE6DB18D1844B3805
:100330001BF77C1D901DA4BBE424203284725E2236
:100340008100C9F124ECA1E53D274609800F2A1E52
:10035000410911241FBECFEFD8E0DEBFCDBF12E0B0
:10036000A0E0B1E0ECECFCE602C005900D92AC3AE6
:10037000B107D9F716E0ACEAB2E001C01D92A63D84
:10038000B107E1F713E0C0E5D3E004C02297FE0116
:100390000E941F36CA34D107C9F70E94D60F0C94A9
:1003A0005A362ECEEF92FF920F931F93F22FF02E1C
:1003B00047FD02C0E4E001C0E4E1242F332727FD1C
:1003C000309537FF03C0309521953F4F4F2D512F6A
:1003D0000F2FEE2E48D48F2D912F1F910F91FF904C
:1003E000EF900895CF93DF93BC018230910510F414
:1003F00062E070E0A091D406B091D506ED01E0E096
:10040000F0E040E050E021C088819981861797078D
:1004100069F48A819B81309719F09383828304C0A9
:100420009093D5068093D406FE0134C068177907EF
:1004300038F44115510519F08417950708F4AC01FB
:10044000FE018A819B819C01E9012097E9F6411513
:100450005105A9F1CA01861B970B049708F4BA014C
:10046000E0E0F0E02AC08D919C91119784179507E8
:10047000F9F46417750781F412968D919C91139786
:10048000309719F09383828304C09093D5068093AC
:10049000D406FD0132964CC0CA01861B970BFD01A4
:1004A000E80FF91F6193719302978D939C9340C05D
:1004B000FD01828193819C01D9011097A1F6809161
:1004C000D2069091D306892B41F480911A02909123
:1004D0001B029093D3068093D20640911C02509148
:1004E0001D024115510541F44DB75EB780911802C8
:1004F00090911902481B590B2091D2063091D306D6
:10050000CA01821B930B8617970780F0AB014E5FE1
:100510005F4F8417950750F0420F531F5093D30637
:100520004093D206F9016193719302C0E0E0F0E0DC
:10053000CF01DF91CF910895CF93DF93009709F416
:1005400050C0EC0122971B821A82A091D406B09170
:10055000D506109709F140E050E0AC17BD0708F14F
:10056000BB83AA83FE0121913191E20FF31FAE17E5
:10057000BF0779F48D919C911197280F391F2E5F39
:100580003F4F3983288312968D919C9113979B83BB
:100590008A834115510571F4D093D506C093D406D2
:1005A00020C012968D919C911397AD01009711F088
:1005B000DC01D3CFFA01D383C28321913191E20FC1
:1005C000F31FCE17DF0769F488819981280F391F3F
:1005D0002E5F3F4FFA01318320838A819B81938371
:1005E0008283DF91CF910895A0E0B0E0EAEFF2E0DE
:1005F0000C9425366C01009721F4CB01F3DE6C01DD
:10060000BDC08EEF882E8FEF982E8C0C9D1C86011E
:10061000060F171F0815190508F4AEC0F401A081D4
:10062000B181A617B707B0F0A530B10508F4A6C090
:10063000CD0104978617970708F4A0C01297A61B50
:10064000B70BF801A193B193D4016D937C93CF01C3
:1006500073DF94C07B01EA1AFB0AEEEFFFEFEE0EA8
:10066000FF1E36016A0E7B1EC091D406D091D506BE
:1006700044245524AA24BB244AC0C615D705E1F555
:10068000488159814E155F05B8F1CA0104978E154E
:100690009F05B0F41296A40FB51FF401B183A08397
:1006A0002A813B814114510431F0D20113963C93CD
:1006B0002E93129763C03093D5062093D4065EC064
:1006C0008A819B81F80193838283425050404E1966
:1006D0005F09518340834114510431F0D2011396D4
:1006E0001C930E93129704C01093D5060093D40662
:1006F000F4017183608342C088819981A816B9068C
:1007000008F45C012E018A819B819C01E9012097FC
:1007100009F0B3CF8091D2069091D3068615970544
:10072000E9F4A616B706D0F420911C0230911D0200
:100730002115310541F42DB73EB7809118029091F3
:100740001902281B390B02171307B0F41093D306B4
:100750000093D206D4016D937C9310C0CB0142DE8E
:10076000EC01009749F0F40140815181B60136D087
:10077000C601E2DE6E0102C0CC24DD24C601CDB785
:10078000DEB7E0E10C944136FC0188279927E89414
:1007900021912032E9F3293010F02E30C8F32B32AA
:1007A00039F02D3231F4689403C062D0820F911D6C
:1007B000219120532A30C8F31EF4909581959F4FC4
:1007C0000895FB01DC0104C08D910190801921F492
:1007D00041505040C8F7881B990B0895FB01DC017C
:1007E00002C001900D9241505040D8F70895FC018D
:1007F0008191861721F08823D9F799270895319799
:10080000CF010895FB01DC0101900D920020E1F77A
:100810000895FB01DC014150504048F001900D92D9
:100820000020C9F701C01D9241505040E0F70895E3
:10083000FB019F01E8944230C4F04532B4F44A30E1
:1008400029F497FB1EF4909581959F4F642F77278D
:100850000E940936805D8A330CF0895D8193CB015B
:100860000097A1F716F45DE251931082C9014AC4C2
:100870007AE0979F902D879F802D910D11240895E8
:10088000AEE0B0E0E6E4F4E00C9431360D891E8968
:1008900086E08C831A8309838FEF9FE79E838D8385
:1008A0009E01275E3F4FCE0101966F89788DA90189
:1008B0000AD02F813885020F131FF80110822E965F
:1008C000E4E00C944D36ABE0B0E0E9E6F4E00C94E3
:1008D00023363C012B015A01FC01178216828381C9
:1008E00081FD03C06FEF7FEFB9C19AE0892E1E0131
:1008F0000894211C311CF3012381F20123FD859111
:1009000023FF81912F01882309F4A5C1853239F491
:1009100023FD859123FF81912F01853221F490E001
:10092000B30100D4E8CF982FFF24EE249924FFE1EF
:10093000FF15D0F09B3269F09C3228F4903259F0C8
:10094000933291F40EC09D3249F0903369F441E046
:1009500024C052E0F52A84E0F82A28C098E0F92A59
:1009600025C0E0E1FE2A22C0F7FC29C0892F805370
:100970008A3070F4F6FE05C0989C902C1124980ED5
:1009800015C0E89CE02C1124E80EF0E2FF2A0EC00E
:100990009E3229F4F6FC5FC140E4F42A07C09C367D
:1009A00019F450E8F52A02C0983649F4F20123FD03
:1009B000959123FF91912F01992309F0B8CF892FA9
:1009C0008554833018F08052833038F444E050E08E
:1009D000A40EB51E5FE359830FC0933631F09337F1
:1009E00079F0933509F052C01FC0F50180818983E9
:1009F00042E050E0A40EB51E610101E010E011C01C
:100A0000F501C080D180F6FC03C06FEF7FEF02C01C
:100A1000692D70E042E050E0A40EB51EC60167D318
:100A20008C015FE7F52213C0F501C080D180F6FC90
:100A300003C06FEF7FEF02C0692D70E042E050E02D
:100A4000A40EB51EC60148D38C0150E8F52AF3FE6A
:100A500006C018C080E290E0B30164D3EA948E2D02
:100A600090E008171907B0F30DC0F601F7FC859167
:100A7000F7FE81916F0190E0B30154D3E110EA9445
:100A8000015010400115110581F7E2C0943611F0B4
:100A9000993661F5F7FE08C0F50120813181428168
:100AA000538184E090E00AC0F501808191819C012E
:100AB000442737FD4095542F82E090E0A80EB91EE0
:100AC0009FE6F92257FF09C0509540953095219532
:100AD0003F4F4F4F5F4FE0E8FE2ACA01B901A10125
:100AE0002AE030E04BD3D82ED2183FC0953729F4F6
:100AF0001F2D1F7E2AE030E01DC01F2D197F9F365D
:100B000061F0903720F4983509F0A5C00FC09037F8
:100B100039F0983709F09FC004C028E030E00AC0DF
:100B2000106114FD146020E130E004C014FD166073
:100B300020E132E017FF08C0F501608171818281F8
:100B4000938144E050E008C0F50180819181BC01AF
:100B500080E090E042E050E0A40EB51EA1010ED36B
:100B6000D82ED2188FE7F82EF122F6FE0BC05EEFDA
:100B7000F522D91438F4F4FE07C0F2FC05C08FEE5C
:100B8000F82202C01D2D01C0192DF4FE0DC0FE017A
:100B9000ED0DF11D8081803319F499EEF92208C022
:100BA0001F5FF2FE05C003C08F2D867809F01F5F1E
:100BB0000F2DF3FC13C0F0FE0EC01E1510F09D2C7F
:100BC0000AC09D2C9E0C911A1E2D05C080E290E05B
:100BD000B301A8D21F5F1E15C8F304C01E1510F480
:100BE000E11A01C0EE2404FF0EC080E390E0B301DF
:100BF00099D202FF1BC001FD03C088E790E00EC040
:100C000088E590E00BC0802F867881F001FF02C05C
:100C10008BE201C080E2F7FC8DE290E0B30182D26A
:100C200005C080E390E0B3017DD29A94D914C8F353
:100C3000DA94F101ED0DF11D808190E0B30172D2E3
:100C4000DD20B1F705C080E290E0B3016BD2EA94F9
:100C5000EE20C9F750CEF30166817781CB012B9648
:100C6000E2E10C943F36A9E0B0E0E9E3F6E00C9451
:100C700027366A01122FA02EBE2C2BE3201718F462
:100C80002CE3922E02C0902E9394AE014F5F5F4FE3
:100C900027E0092D49D1BC018981E82EFF24C70135
:100CA00089709070019711F4ADE209C0B1FE02C0E5
:100CB000ABE205C0B0FC02C0A0E001C0A0E2E3FED0
:100CC0003BC0AA2311F423E001C024E0211710F057
:100CD00020E002C0121B212FEB2CB4FE02C0322FE9
:100CE0000AC0F601322F80E202C0819331503323D3
:100CF000E1F7C20ED11CAA2319F0F601A1936F01EE
:100D0000F6013196E2FE05C09EE4D6019C9381E493
:100D100004C09EE6D6019C9381E611968C93918344
:100D20003296DF01832F90E202C09D938150882389
:100D3000E1F7E30FF11D40C0E2FE42C0AA2311F427
:100D400023E001C024E0211710F020E002C0121BB4
:100D5000212FEB2CB4FE02C0922F0AC0F601922F75
:100D600080E202C0819391509923E1F7C20ED11C19
:100D7000AA2319F0F601A1936F01F6013196E2FE64
:100D800008C089E4D6018C938EE411968C9386E496
:100D900007C089E6D6018C938EE611968C9386E681
:100DA00081833296DF01892F20E202C02D9381508A
:100DB0008823E1F7E90FF11D10822EEF3FEFAFC05E
:100DC000161617061CF041E050E003C0AB014F5F60
:100DD0005F4FAA2019F480E090E003C08A2D90E0D4
:100DE000019620E030E0AA2311F021E030E0240F4A
:100DF000351F280F391F812F90E02817390714F06D
:100E000020E002C0121B212F4B2D50E0CA0180713F
:100E10009070B4FC0DC0B3FC0BC0F601322F40E261
:100E200002C0419331503323E1F7C20ED11C01C0FF
:100E3000322FAA2319F0F601A1936F01892B11F02B
:100E4000132F0AC0F601132F80E302C081931150C3
:100E50001123E1F7C30ED11C092D060FBA8090E1D2
:100E6000892E912C8E209F20E4FE04C0F1E3BF1652
:100E700009F40150101614F001E003C0093008F025
:100E800008E09B0177FF02C020E030E0CB01019633
:100E9000821B930BFE013196E80FF91F8EE2F82EAC
:100EA0003B01601A71088A2D90E044275527481BA2
:100EB000590B8FEF2F3F380719F4D601FD926D01C2
:100EC000621773072CF06216730614F4808101C058
:100ED00080E32150304031962417350724F0D601A5
:100EE0008D936D01E6CF2617370749F4B5E3BB159F
:100EF00028F0BB1621F48114910409F481E3F60172
:100F00008193D601812F90E202C09C93815011966B
:100F10008823D9F7E10FF11D108220E030E0C901EC
:100F20002996EEE00C944336283008F027E033276A
:100F3000DA01990F311D87FD9160009661057105F9
:100F400039F432602E5F3D9330E32A95E1F708953E
:100F50009F3F30F080387105610509F03C5F3C5FD0
:100F60003D93913008F08068911DDF93CF931F93DC
:100F70000F93FF92EF92192F987F9695E92F9695F0
:100F80009695E90FFF27E655FD4F99273327EE2465
:100F9000FF24A701E70105900894079428F4360F71
:100FA000E71EF81E491F511D660F771F881F991FE6
:100FB0000694A1F70590079428F4E70EF81E491F40
:100FC000561FC11D770F881F991F661F0694A1F732
:100FD0000590079428F4F80E491F561FC71FD11D0E
:100FE000880F991F661F771F0694A1F70590079435
:100FF00020F4490F561FC71FD81F990F661F771F70
:10100000881F0694A9F784911095177041F0D69522
:10101000C79557954795F794E7941A95C1F7E0E57A
:10102000F2E0689415901591359165919591059030
:101030007FE27395E118F10A430B560BC90BD009F7
:10104000C0F7E10CF11E431F561FC91FD01D7EF4CF
:10105000703311F48A95E6CFE894015030F0080F10
:101060000AF40027021708F4202F2395022F7A3361
:1010700028F079E37D932A95E9F710C07D932A95AE
:1010800089F6069497956795379517951794E11803
:10109000F10A430B560BC90BD00998F023957E91AA
:1010A00073957A3308F070E37C932013B8F77E9140
:1010B00070617D9330F0839571E37D9370E32A95A1
:1010C000E1F71124EF90FF900F911F91CF91DF91E5
:1010D000992787FD90950895FC0105906150704017
:1010E0000110D8F7809590958E0F9F1F0895FC01F1
:1010F0006150704001900110D8F7809590958E0F47
:101100009F1F0895DC01FC01672F71917723E1F7A0
:10111000329704C07C916D9370836291AE17BF07C4
:10112000C8F308950F931F93CF93DF938C01EB01C6
:101130008B8181FF1BC082FF0DC02E813F818C817E
:101140009D812817390764F4E881F9810193F983B7
:10115000E88306C0E885F985802F0995892B31F44D
:101160008E819F8101969F838E8302C00FEF1FEFB8
:10117000C801DF91CF911F910F910895FA01AA271D
:10118000283051F1203181F1E8946F936E7F6E5FCA
:101190007F4F8F4F9F4FAF4FB1E03ED0B4E03CD078
:1011A000670F781F891F9A1FA11D680F791F8A1F5B
:1011B000911DA11D6A0F711D811D911DA11D20D0C2
:1011C00009F468943F912AE0269F11243019305D7C
:1011D0003193DEF6CF010895462F4770405D41936D
:1011E000B3E00FD0C9F7F6CF462F4F70405D4A33BA
:1011F00018F0495D31FD4052419302D0A9F7EACF82
:10120000B4E0A6959795879577956795BA95C9F7B0
:1012100000976105710508959B01AC010A2E0694A3
:101220005795479537952795BA95C9F7620F731F5C
:10123000841F951FA01D089581309105A1F46F5F53
:101240007F4FF1F48CEA92E00E94E4138FE193E087
:101250006EE04FE020E00E94C11D84E793E060E073
:1012600071E00C94AF13892B59F46F5F7F4F41F4F9
:1012700084E793E00E94DF138FE193E00C944A1C13
:10128000089580E090E06FEF7FEFD6CF81E090E0AF
:101290006FEF7FEFD1CF0F931F93DF93CF93CDB736
:1012A000DEB76B970FB6F894DEBF0FBECDBF80914F
:1012B0003B0390913C03019690933C0380933B0346
:1012C00084E793E060E071E00E94C81360913B0303
:1012D00070913C0384E793E00E94401384E793E01D
:1012E00061E071E00E94701360916803709169037E
:1012F00080916A0390916B0344E022E00DE313E0D8
:1013000051D8BC0184E793E00E94701384E793E016
:1013100061E071E00E94701360916C0370916D0345
:1013200080916E0390916F0343E026E03BD8BC01AF
:1013300084E793E00E94701384E793E061E071E03A
:101340000E94701360917003709171038091720319
:101350009091730343E026E025D8BC0184E793E035
:101360000E9470138E010F5F1F4FC80162E774E087
:101370004EE152E023E10E944320C8010E94202256
:10138000882391F0C80164E773E00E94BC128CE0EE
:1013900094E064E773E00E94BC12C8010E943E2200
:1013A000C8010E942D2205C08CE094E06AEB70E039
:1013B00075D6CE0101960E94E3216B960FB6F89484
:1013C000DEBF0FBECDBFCF91DF911F910F9108956A
:1013D0005F926F927F928F929F92AF92BF92CF92C5
:1013E000DF92EF92FF920F931F93DF93CF93CDB7CE
:1013F000DEB76B970FB6F894DEBF0FBECDBF82E7A6
:1014000094E06AE04FEF2FEF0FEF0E9470218823E6
:1014100039F48CE094E063E071E00E947912E2C05C
:101420008CE094E064E171E00E9479128CE094E039
:101430006FE171E00E94791282E794E06CE372E060
:101440000E940C1F882359F08CE094E064E371E063
:101450005BD78CE094E06CE372E00E9479122DB7C8
:101460003EB72C5030400FB6F8943EBF0FBE2DBF94
:10147000EDB7FEB731960EE112E0ADB7BEB71296EA
:101480001C930E9311973AE4E32E31E0F32EF3828E
:10149000E2822CE3C22E22E0D22ED582C48291E4D5
:1014A000892E92E0992E978286828091580390919E
:1014B00059039187808786E4A82E82E0B82EB386F0
:1014C000A286DED92DB73EB7245F3F4F0FB6F89402
:1014D0003EBF0FBE2DBF8CE094E066E571E014D7EF
:1014E0008CE094E0B8010E947912702E012F5E2CDE
:1014F0006F2CEC2CCD2CF82C892C1A2DAB2C41C048
:101500008CE094E068E671E0FFD68CE094E06EE158
:1015100072E0EFD780915803909159030196909310
:10152000590380935803ADB7BEB71C970FB6F89414
:10153000BEBF0FBEADBFEDB7FEB7319611967C9220
:10154000119712960C9352826382E482C582F682CE
:101550008782918780871287A38692D92DB73EB75D
:10156000245F3F4F0FB6F8943EBF0FBE2DBF8CE0F7
:1015700094E06CE771E0C8D68CE094E0672D702FA2
:10158000B8D782E794E06EE172E00E94161F8823CC
:1015900009F0B6CF8E010F5F1F4FC80162E774E0FC
:1015A0004EE152E023E10E944320C8010E94202224
:1015B000882379F0C8016BE472E09BD7C8010E94D0
:1015C0003E22C8010E942D228CE094E060E971E087
:1015D00004C08CE094E063EA71E08BD7CE01019601
:1015E0000E94E3216B960FB6F894DEBF0FBECDBF0D
:1015F000CF91DF911F910F91FF90EF90DF90CF90EF
:10160000BF90AF909F908F907F906F905F90089564
:101610008F929F92AF92BF92CF92DF92EF92FF9202
:101620000F931F938FE193E00E94571AFDC08FE143
:1016300093E00E94511C682F8CEA92E00E94E3190B
:10164000882309F4F1C08CEA92E06CE673E040E78D
:1016500053E020E030E00E9474178CE094E06DE3EA
:1016600071E0D9D440916C0350916D0360916E0389
:1016700070916F038CE094E027E030E027D78CE096
:1016800094E06AE371E0C7D4409170035091710314
:1016900060917203709173038CE094E027E030E076
:1016A00017D78CEA92E066E573E04AE553E02BE554
:1016B00033E00CE513E0ADE5EA2EA3E0FA2EFEE5FB
:1016C000CF2EF3E0DF2EEFE5AE2EE3E0BE2E882432
:1016D00099240E9462168CE094E063E371E09BD44D
:1016E0008CE094E060915A034AE050E090D58CE0A1
:1016F00094E061E371E08FD48CE094E060915B034F
:101700004AE050E084D58CE094E06FE271E083D44D
:1017100060915603709157038CE094E04AE050E0EA
:10172000E1D58CE094E067E271E075D48CE094E060
:1017300060915C034AE050E06AD58CE094E065E299
:1017400071E069D48CE094E060915D034AE050E080
:101750005ED58CE094E063E271E05DD48CE094E0CF
:1017600060915E034AE050E052D58CE094E061E283
:1017700071E051D48CE094E060915F034AE050E066
:1017800057D58CE094E06DE071E045D48CEA92E0AE
:101790000E949715AB01BC01409368035093690305
:1017A00060936A0370936B038CE094E022E030E076
:1017B0008FD68CE094E06AEF70E02DD48CEA92E052
:1017C0000E94BA15AB01BC018CE094E022E030E04D
:1017D0007FD68CE094E06CEE70E01DD48CEA92E051
:1017E0000E94DD15AB01BC018CE094E022E030E00A
:1017F0006FD68CE094E06FED70E00DD46091EC0258
:101800007091ED028CE094E04AE050E0E5D48CE089
:1018100094E024D48CEA92E060E673E044E653E07E
:1018200026E633E00E9431148FE193E00E94721C9F
:10183000892B09F0FCCE2FDD6AE070E080E090E0BB
:101840007ED01F910F91FF90EF90DF90CF90BF90CF
:10185000AF909F908F9008950F931F930CE014E02A
:10186000C80140E052EC61E070E019D28FE193E0F2
:1018700040EC52E160E070E00E94581BC80168E44F
:1018800071E00CD48AE061E0EED0A2DD1F910F91EF
:1018900008951F920F920FB60F9211242F933F932A
:1018A0008F939F93AF93BF9380917F039091800319
:1018B000A0918103B0918203309183030196A11D11
:1018C000B11D232F2D5F2D3720F02D570196A11D1F
:1018D000B11D2093830380937F0390938003A09393
:1018E0008103B093820380917B0390917C03A0914C
:1018F0007D03B0917E030196A11DB11D80937B03F2
:1019000090937C03A0937D03B0937E03BF91AF912E
:101910009F918F913F912F910F900FBE0F901F902D
:1019200018958FB7F89420917F03309180034091F0
:101930008103509182038FBFB901CA0108959B01B1
:10194000AC017FB7F89480917B0390917C03A091C8
:101950007D03B0917E0366B5A89B05C06F3F19F06B
:101960000196A11DB11D7FBFBA2FA92F982F8827DF
:10197000860F911DA11DB11D62E0880F991FAA1F3E
:10198000BB1F6A95D1F7BC012DC0FFB7F8948091B9
:101990007B0390917C03A0917D03B0917E03E6B51B
:1019A000A89B05C0EF3F19F00196A11DB11DFFBF17
:1019B000BA2FA92F982F88278E0F911DA11DB11D19
:1019C000E2E0880F991FAA1FBB1FEA95D1F7861B7B
:1019D000970B885E9340C8F2215030404040504001
:1019E00068517C4F211531054105510571F6089567
:1019F000789484B5826084BD84B5816084BD85B5EA
:101A0000826085BD85B5816085BDEEE6F0E08081B0
:101A100081608083E1E8F0E01082808182608083D1
:101A2000808181608083E0E8F0E080818160808354
:101A3000E1EBF0E0808184608083E0EBF0E0808186
:101A400081608083EAE7F0E0808184608083808128
:101A500082608083808181608083808180688083D0
:101A60001092C1000895CF93DF93482F50E0CA0130
:101A700088579E4FFC0134914C585E4FFA01849177
:101A8000882369F190E0880F991FFC01EA5AFE4F04
:101A9000A591B491FC01E05AFE4FC591D491662303
:101AA00051F42FB7F8948C91932F909589238C93B0
:101AB000888189230BC0623061F42FB7F8948C9130
:101AC000932F909589238C938881832B88832FBFB4
:101AD00006C09FB7F8948C91832B8C939FBFDF91A6
:101AE000CF910895482F50E0CA0184569E4FFC01C3
:101AF0002491CA0188579E4FFC0194914C585E4F27
:101B0000FA013491332309F440C0222351F12330E8
:101B100071F0243028F42130A1F0223011F514C0E6
:101B20002630B1F02730C1F02430D9F404C08091C0
:101B300080008F7703C0809180008F7D809380002C
:101B400010C084B58F7702C084B58F7D84BD09C075
:101B50008091B0008F7703C08091B0008F7D80931B
:101B6000B000E32FF0E0EE0FFF1FE05AFE4FA5910B
:101B7000B4912FB7F894662321F48C919095892322
:101B800002C08C91892B8C932FBF089508951F92CA
:101B90000F920FB60F9211242F933F934F938F9371
:101BA0009F93EF93FF938091C00082FD1DC04091F1
:101BB000C6002091C4033091C5032F5F3F4F2F73A0
:101BC00030708091C6039091C7032817390771F0D0
:101BD000E091C403F091C503EC57FC4F4083309370
:101BE000C5032093C40302C08091C600FF91EF910A
:101BF0009F918F914F913F912F910F900FBE0F901A
:101C00001F901895E0911804F0911904E05CFF4FC3
:101C10008191919120813181821B930B8F73907000
:101C2000892B09F0B3CF08951F920F920FB60F9230
:101C300011242F933F938F939F93EF93FF932091C2
:101C400008043091090480910A0490910B0428172C
:101C5000390731F48091C1008F7D8093C10014C099
:101C6000E0910A04F0910B04E853FC4F208180912D
:101C70000A0490910B0401968F73907090930B045B
:101C800080930A042093C600FF91EF919F918F915A
:101C90003F912F910F900FBE0F901F901895AF920C
:101CA000BF92DF92EF92FF920F931F93CF93DF9338
:101CB000EC017A018B01DD24403081EE580780E091
:101CC000680780E0780711F0DD24D39491E0A92E15
:101CD000B12CEC89FD89DD2069F0C50108A002C0A6
:101CE000880F991F0A94E2F7808360E079E08DE322
:101CF00090E005C0108260E874E88EE190E0A801F1
:101D000097010E94E73521503040404050405695A1
:101D100047953795279580E12030380720F0DD2062
:101D200011F0DD24D6CFE889F9893083EA89FB896F
:101D3000208319A2EE89FF89408121E030E0C901AA
:101D40000C8C02C0880F991F0A94E2F7482B40833D
:101D5000EE89FF894081C9010D8C02C0880F991F4F
:101D60000A94E2F7482B4083EE89FF894081C9013C
:101D70000E8C02C0880F991F0A94E2F7482B40830B
:101D8000EE89FF8980810F8C02C0220F331F0A94D5
:101D9000E2F7209528232083DF91CF911F910F91A7
:101DA000FF90EF90DF90BF90AF900895DC011C96FC
:101DB000ED91FC911D97E05CFF4F21913191808165
:101DC0009181281B390B2F733070C9010895DC01F4
:101DD0001C96ED91FC911D97E05CFF4F20813181B5
:101DE000E054F040DF01AE5BBF4F8D919C911197A5
:101DF0002817390719F42FEF3FEF07C08D919C91F9
:101E0000E80FF91F8081282F30E0C9010895DC0117
:101E10001C96ED91FC911D97E05CFF4F2081318174
:101E2000E054F040DF01AE5BBF4F8D919C91119764
:101E30002817390719F42FEF3FEF10C08D919C91AF
:101E40001197E80FF91F20818D919C9111970196B0
:101E50008F73907011969C938E9330E0C901089512
:101E6000DC0191968C919197882339F05496ED91ED
:101E7000FC915597808186FFF9CF91961C92089529
:101E8000CF93DF93EC01EE85FF85E05CFF4F20816F
:101E90003181E054F0402F5F3F4F2F733070DF01EE
:101EA000AE5BBF4F8D919C91119728173907D1F3E5
:101EB000E05CFF4F80819181E054F040E80FF91F12
:101EC0006083EE85FF85E05CFF4F31832083EE89E0
:101ED000FF89208181E090E00F8C02C0880F991F5C
:101EE0000A94E2F7282B208381E089A3EC89FD89FD
:101EF00080818064808381E090E0DF91CF910895BC
:101F000010920F0410920E0488EE93E0A0E0B0E06F
:101F10008093100490931104A0931204B0931304BF
:101F200086E792E090930D0480930C0484E893E09C
:101F3000909319048093180488EC93E090931B0409
:101F400080931A0485EC90E090931D0480931C0408
:101F500084EC90E090931F0480931E0480EC90E04A
:101F6000909321048093200481EC90E090932304CB
:101F70008093220482EC90E09093250480932404C3
:101F800086EC90E0909327048093260484E080936D
:101F9000280483E08093290487E080932A0485E065
:101FA00080932B0481E080932C040895CF93DF93DA
:101FB0001FDD52DCC2E0DEE02BDB2097E9F322DEFE
:101FC000FBCFCF92DF92EF92FF920F931F93CF93AD
:101FD000DF937C016B018A01C0E0D0E00FC0D60125
:101FE0006D916D01D701ED91FC910190F081E02D93
:101FF000C7010995C80FD91F0150104001151105DF
:1020000071F7CE01DF91CF911F910F91FF90EF906B
:10201000DF90CF900895EF92FF920F931F93CF938D
:10202000DF937C018B01C0E0D0E0F8010F5F1F4F10
:102030006491662359F0D701ED91FC910190F081F4
:10204000E02DC7010995C80FD91FEFCFCE01DF9151
:10205000CF911F910F91FF90EF900895EF92FF9213
:102060000F931F938C01DC01ED91FC910190F081A5
:10207000E02D6DE009957C01D801ED91FC91019076
:10208000F081E02DC8016AE009959C012E0D3F1DED
:10209000C9011F910F91FF90EF900895EF92FF9269
:1020A0000F931F937C01B7DF8C01C701D7DF9C0121
:1020B000200F311FC9011F910F91FF90EF900895DC
:1020C000CF93DF93EC016115710519F420E030E046
:1020D0000FC0DB010D900020E9F71197A61BB70B8D
:1020E000E881F9810280F381E02DAD0109959C0121
:1020F000C901DF91CF9108954F925F927F928F92A5
:102100009F92AF92BF92CF92DF92EF92FF920F9386
:102110001F93DF93CF93CDB7DEB7A1970FB6F89497
:10212000DEBF0FBECDBF2C01742ECB01223008F4D0
:102130002AE019A231E2C32ED12CCC0EDD1E822E54
:102140009924AA24BB24672D752FA50194010E9410
:10215000E73579018A01C801B701A50194010E9400
:10216000B535472D461B0894C108D1084A3014F4F0
:10217000405D01C0495CF6014083E114F1040105B2
:10218000110521F07E2C5F2DC801DDCFC201B60103
:1021900097DFA1960FB6F894DEBF0FBECDBFCF91EB
:1021A000DF911F910F91FF90EF90DF90CF90BF9044
:1021B000AF909F908F907F905F904F900895DC013B
:1021C0002115310541F4ED91FC910190F081E02D54
:1021D000642F0995089590CFCF92DF92EF92FF92EE
:1021E0000F931F936C017B019A0100E010E0B8018E
:1021F000A701E5DF8C01C60131DF080F191FC801F7
:102200001F910F91FF90EF90DF90CF900895EF9284
:10221000FF920F931F939A01E62EFF2400E010E037
:10222000B801A701CCDF1F910F91FF90EF900895A7
:10223000CF92DF92EF92FF920F931F936C01E62EE5
:102240009A01FF2400E010E0B801A701B8DF8C017B
:10225000C60104DF080F191FC8011F910F91FF90DD
:10226000EF90DF90CF900895CF92DF92EF92FF92A0
:102270000F931F93CF93DF93EC016A017B0121152C
:10228000310541F4E881F9810190F081E02D642F5E
:1022900009951DC02A303105C9F477FF16C0E881C1
:1022A000F9810190F081E02D6DE209958C014427C0
:1022B0005527BA014C195D096E097F09CE012AE044
:1022C0001BDF9801280F391F03C02AE015DF9C018E
:1022D000C901DF91CF911F910F91FF90EF90DF9097
:1022E000CF900895EF92FF920F931F937B019A0175
:1022F0000027F7FC0095102FB801A701B5DF1F914B
:102300000F91FF90EF900895DBCE08957F928F920A
:102310009F92AF92BF92CF92DF92EF92FF920F9374
:102320001F93CF93DF934C017A018B01722ECB0167
:10233000BA01A80197010E94B135882321F0C40198
:1023400068EC71E021C0C0E0D0E057016801E8947A
:10235000D7F8C601B5012FEF3FEF4FE75FE70E94C7
:10236000B135882351F4C601B5012FEF3FEF4FE798
:102370005FE70E94FB33181614F0C1E0D0E021970C
:1023800031F0C4016CEC71E09BDEEC0190C0C8013F
:10239000B7012FEF3FEF4FE75FE40E944A35181671
:1023A00054F0C801B7012FEF3FEF4FE75FEC0E94F9
:1023B000FB33882324F4C40160ED71E0E5CFC8014C
:1023C000B70120E030E040E050E00E94FB3387FDA1
:1023D00003C0C0E0D0E00EC0D401ED91FC910190AB
:1023E000F081E02DC4016DE20995EC0117FB109519
:1023F00017F9109520E030E040E05FE3DD240BC0EA
:10240000CA01B90120E030E040E251E40E94FF330C
:102410009B01AC01D394D71498F3C801B7010E9473
:1024200097335B016C010E946C347B018C01C40109
:10243000B801A7012AE030E0C2DEC80FD91F77201B
:1024400031F0C40164ED71E03BDEC80FD91FC80153
:10245000B7010E9498349B01AC01C601B5010E94EE
:10246000963323C020E030E040E251E40E944E3534
:102470007B018C010E9467345B016C01CC24B7FCAA
:10248000C094DC2CC401B601A5012AE030E0ECDEEA
:10249000C80FD91FC601B5010E949A349B01AC0137
:1024A000C801B7010E9496337A947720D9F6CE01FD
:1024B000DF91CF911F910F91FF90EF90DF90CF9020
:1024C000BF90AF909F908F907F9008951FCF0895F9
:1024D000EF92FF920F931F937C0118DF8C01C701CD
:1024E000BDDD080F191FC8011F910F91FF90EF90DC
:1024F0000895EF92FF920F931F937C01E1DD8C0111
:10250000C701ACDD080F191FC8011F910F91FF9083
:10251000EF900895AF92BF92CF92DF92EF92FF9229
:102520000F931F93CF93DF935C016B01EE24FF2485
:10253000C0E0D0E00FC0D501ED91FC910081118188
:10254000C601BE012BD0682FC501F8010995E80E20
:10255000F91E2196F60184819581C817D90758F391
:10256000C701DF91CF911F910F91FF90EF90DF9006
:10257000CF90BF90AF900895EF92FF920F931F936B
:102580007C01C8DF8C01C70169DD9C01200F311F70
:10259000C9011F910F91FF90EF900895FC01848174
:1025A00095816817790748F40190F081E02D309704
:1025B00021F0E60FF71F8081089580E008950F93C2
:1025C0001F93CF93DF93EC018B016F5F7F4F888167
:1025D00099810E94F402009711F480E005C099836C
:1025E00088831B830A8381E0DF91CF911F910F9134
:1025F0000895CF93DF93EC0188819981892B29F08D
:102600008A819B818617970758F4CE01D8DF8823EB
:1026100041F08C819D81892B19F4E881F981108228
:1026200081E0DF91CF910895EF92FF920F931F9376
:10263000CF93DF93EC017B016C817D81E114F10488
:10264000B9F04115510591F08A01060F171FB80125
:10265000D0DF882369F0888199812C813D81820FA8
:10266000931FB7010E9402041D830C8381E001C007
:1026700080E0DF91CF911F910F91FF90EF9008952F
:10268000EF92FF920F931F93DF93CF93CDB7DEB7F7
:1026900027970FB6F894DEBF0FBECDBF7C01CB01EC
:1026A0008E010F5F1F4FB8014AE050E00E941804EE
:1026B000F80101900020E9F73197E01BF10BC70109
:1026C000B801AF01B1DF27960FB6F894DEBF0FBE99
:1026D000CDBFCF91DF911F910F91FF90EF900895A3
:1026E0006115710511F480E00895DB010D90002063
:1026F000E9F71197A61BB70BAD0196CFCF93DF93E8
:10270000EC0188819981009711F00E949C02198246
:1027100018821D821C821B821A82DF91CF9108953C
:10272000EF92FF920F931F93CF93DF93EC017B0106
:102730008A01BA015EDF882319F4CE01DFDF07C00A
:102740001D830C8388819981B7010E940204CE0108
:10275000DF91CF911F910F91FF90EF900895CF934C
:10276000DF93EC01198218821B821A821D821C825F
:102770001E826115710549F0DB010D900020E9F71B
:102780001197A61BB70BAD01CBDFDF91CF91089559
:102790000F931F93182F092F6115710551F0DB015D
:1027A0000D900020E9F71197A61BB70BAD01B8DF1C
:1027B00001C0A4DF812F902F1F910F910895FC017C
:1027C000808191810C949C02FC012FEF3FEF4FEF31
:1027D0005FEF2083318342835383108611861286F4
:1027E00013868FEF99ECAAE9BBE3808B918BA28BC8
:1027F000B38B808F918FA28FB38F80A391A3A2A35D
:10280000B3A380A791A7A2A7B3A780AB91ABA2ABBC
:10281000B3AB20AF31AF42AF53AFE05CFF4F8FEFB0
:1028200090E0918380833496208331834283538365
:1028300038962083318342835383389611921082D5
:10284000709682E0819311921192119211921192DD
:102850001192119211921192118210827997108225
:102860000895CF93DF93FC01EB016115710561F0D1
:10287000E759FF4F80819181A281B381E956F040F1
:1028800088839983AA83BB834115510549F0E35995
:10289000FF4F80819181ED56F040DA018D939C933A
:1028A0002115310539F0E159FF4F80819181F901FE
:1028B00091838083DF91CF910895EF92FF920F93E0
:1028C0001F93CF93DF939C01EE24FC01EA5AFF4F44
:1028D00080818D3231F4EE24E394E901C95ADF4F4F
:1028E00001C0EF018E0120E030E040E050E018C070
:1028F000CA01B9012AE030E040E050E00E94B5355D
:102900002F2D332727FD3095432F532F2053304051
:1029100040405040260F371F481F591F0F5F1F4F61
:10292000F801F0808F2D80538A3010F3CA01B9016D
:1029300024E630E040E050E00E94B5359B01AC0158
:1029400001C021969881892F80538A30D0F39E321E
:1029500029F59981892F80538A3000F58AE0980201
:10296000C0011124805E9140AA2797FDA095BA2F3F
:10297000280F391F4A1F5B1F9A81892F80538A3085
:1029800068F4892F992787FD9095C097AA2797FD0E
:10299000A095BA2F280F391F4A1F5B1FEE2039F070
:1029A00050954095309521953F4F4F4F5F4FB9015E
:1029B000CA01DF91CF911F910F91FF90EF90089581
:1029C0004F925F926F927F928F929F92AF92BF923F
:1029D000CF92DF92EF92FF920F931F93CF93DF93EB
:1029E00026E5822E912C880E991EE40120E030E02D
:1029F00040E050E017C0CA01B9012AE030E040E0F1
:102A000050E00E94B535212F332727FD3095432F05
:102A1000532F2053304040405040260F371F481F4F
:102A2000591F21961881812F80538A3020F3722EEE
:102A3000632E542E452EB901CA0124E630E040E051
:102A400050E00E94E73520E137E240E050E00E948C
:102A5000B5355B016C0103C00894811C911CF40125
:102A60009081892F80538A30B8F39E3269F588EEC1
:102A7000E82E83E0F82E012D112D1DC0332727FDF0
:102A8000309520533040442737FD4095542FC801DE
:102A9000B7010E94B535A60EB71EC81ED91EC801C3
:102AA000B7012AE030E040E050E00E94E735C9017C
:102AB000DA017C018D010894811C911CF4012081B4
:102AC000822F80538A30D0F2C601B50126E030E073
:102AD00040E050E00E94E73579018A01672D762DAC
:102AE000852D942D24E630E040E050E00E94E7354B
:102AF000CA01B90120EA36E841E050E00E94B5354C
:102B0000E60EF71E081F191FB701C801DF91CF910C
:102B10001F910F91FF90EF90DF90CF90BF90AF90FB
:102B20009F908F907F906F905F904F900895FC01E1
:102B300060A171A182A193A16F3FF9EC7F07FAE92F
:102B40008F07FBE39F0729F4E0E074E284E769E480
:102B50000AC00E949A3420E030E048EC52E40E941F
:102B6000FF33E62F692F2E2F372F482F562FB9010D
:102B7000CA010895FC0160A971A982A993A96F3FB8
:102B8000F9EC7F07FAE98F07FBE39F0729F4E0E000
:102B900070E08AE764E40AC00E94983420E030E0E4
:102BA00048EC52E40E94FF33E62F692F2E2F372F77
:102BB000482F562FB901CA010895EF92FF920F9343
:102BC0001F93FC0160A571A582A593A56F3FF9EC49
:102BD0007F07FAE98F07FBE39F07E9F00E9498342B
:102BE00020E030E048EC52E40E94FF337B018C018E
:102BF00020E030E040E85FEB0E94FB33882359F08F
:102C0000C801B70126E53EE04DEE5FE30E944E3578
:102C1000E62F692F04C0E0E070E080E86FEB2E2F14
:102C2000372F482F562FB901CA011F910F91FF90DE
:102C3000EF9008950F931F93CF93DF93FC01EB0167
:102C400089016115710541F080859185A285B38563
:102C500088839983AA83BB834115510549F08081FC
:102C60009181A281B381EA0188839983AA83BB837E
:102C70000115110511F1EF01CC5BDF4F88819981BE
:102C8000AA81BB818F5F9F4FAF4FBF4F29F42FEFBA
:102C90003FEF4FEF5FEF0CC00E94910C9B01AC0126
:102CA00088819981AA81BB81281B390B4A0B5B0B58
:102CB000E801288339834A835B83DF91CF911F9199
:102CC0000F9108952F923F924F925F926F927F9251
:102CD0008F929F92AF92BF92CF92DF92EF92FF922C
:102CE0000F931F93DF93CF93CDB7DEB728970FB61F
:102CF000F894DEBF0FBECDBF3B012A01190194013C
:102D0000BE016F5F7F4FAE014B5F5F4F93DF61147A
:102D10007104B9F069817A818B819C8124E630E06D
:102D200040E050E00E94E735613571051CF420ED6C
:102D300037E002C02CE637E0260F371FF30131835E
:102D4000208341145104A1F069817A818B819C8197
:102D500024E630E040E050E00E94E735CA01B901C6
:102D600024E630E040E050E00E94E735F201608365
:102D70002114310461F069817A818B819C8120E189
:102D800037E240E050E00E94E735F1012083011571
:102D9000110561F06D817E818F81988520E432E498
:102DA0004FE050E00E94E735F8012083E114F10480
:102DB000A1F06D817E818F81988520E137E240E02E
:102DC00050E00E94E735CA01B90124E630E040E056
:102DD00050E00E94E735F7016083C114D104A1F0EF
:102DE0006D817E818F81988524E630E040E050E05F
:102DF0000E94E735CA01B90124E630E040E050E026
:102E00000E94E735F6016083A114B10461F06D8181
:102E10007E818F81988524E630E040E050E00E947A
:102E2000E735F501608328960FB6F894DEBF0FBE34
:102E3000CDBFCF91DF911F910F91FF90EF90DF9069
:102E4000CF90BF90AF909F908F907F906F905F904A
:102E50004F903F902F9008950F931F93CF93DF9340
:102E6000FC01EB0189016115710541F080899189AF
:102E7000A289B38988839983AA83BB8341155105AD
:102E800049F0808D918DA28DB38DEA01888399835D
:102E9000AA83BB830115110511F1EF01C45BDF4F5C
:102EA00088819981AA81BB818F5F9F4FAF4FBF4FB0
:102EB00029F42FEF3FEF4FEF5FEF0CC00E94910C12
:102EC0009B01AC0188819981AA81BB81281B390BA8
:102ED0004A0B5B0BE801288339834A835B83DF91CC
:102EE000CF911F910F910895EF92FF920F931F932F
:102EF000DF93CF93CDB7DEB728970FB6F894DEBF38
:102F00000FBECDBF8B017A01BE016F5F7F4FAE0157
:102F10004B5F5F4FA1DF69817A818B819C816F3F1D
:102F200029EC72072AE982072BE3920729F4E0E0F3
:102F300070E08AE764E40AC00E949A3420E030E539
:102F400043EC57E40E94FF33E62F692F2E2F372FD3
:102F5000482F562FC901DA01F80180839183A2839B
:102F6000B38389819A81AB81BC818F5F994CAA49D7
:102F7000BB4329F4E0E070E08AE764E40EC06D81B1
:102F80007E818F8198850E949A3420E030E543EC61
:102F900057E40E94FF33E62F692F2E2F372F482F3B
:102FA000562FC901DA01F70180839183A283B3838D
:102FB00028960FB6F894DEBF0FBECDBFCF91DF913C
:102FC0001F910F91FF90EF900895FF920F931F9321
:102FD000CF93DF93EC01CB5ADF4F8881C555D040AA
:102FE000882309F4E9C0CA5ADF4F9881C655D040FA
:102FF000892F8154863038F4292F332727FD3095C7
:10300000275330400CC0292F332727FD3095915688
:10301000963018F42755304002C020533040C95A2A
:10302000DF4F4881C755D040842F8154863030F41B
:10303000842F992787FD9095C7970BC0842F9927D8
:1030400087FD90954156463018F48755904001C051
:10305000C09754E0220F331F5A95E1F7982F920F33
:10306000CC5ADF4F8881C455D040981709F09BC0D7
:10307000C859DF4F8881C856D040882309F497C1CA
:10308000FE01E359FF4F80819181019691838083F6
:10309000FE01EC5BFF4FC85BDF4F88819981AA81FD
:1030A000BB81C854D04080839183A283B383FE0147
:1030B000E45BFF4FC05BDF4F88819981AA81BB81B0
:1030C00080839183A283B38365968881C556D0405F
:1030D0008823A1F1813009F064C08C819D81AE818B
:1030E000BF8188839983AA83BB838C859D85AE85A8
:1030F000BF8588879987AA87BB878C899D89AE8978
:10310000BF89888B998BAA8BBB8B8C8D9D8DAE8D47
:10311000BF8D888F998FAA8FBB8F8CA59DA5AEA5DB
:10312000BFA588A799A7AAA7BBA78CA99DA9AEA947
:10313000BFA988AB99ABAAABBBAB33C08CA19DA197
:10314000AEA1BFA188A399A3AAA3BBA38C819D8193
:10315000AE81BF8188839983AA83BB838C899D8933
:10316000AE89BF89888B998BAA8BBB8B8C8D9D8DEB
:10317000AE8DBF8D888F998FAA8FBB8FFE01E05CCB
:10318000FF4FCE5BDF4F88819981C254D04091833D
:1031900080838CAD9DADAEADBFAD88AF99AFAAAF0A
:1031A000BBAF81E005C1FE01E159FF4F80819181F4
:1031B000019691838083FBC0CA59DF4F8881C65630
:1031C000D040882321F59E012A5A3F4FD901E6EDD0
:1031D000F1E002C0119631969C91992339F08081DB
:1031E0009817C1F3D901ECEDF1E006C0CB59DF4FE0
:1031F00081E0E7C0119631969C91992321F080815E
:103200009817C1F3DBC0CB59DF4F1882D0C0CB5920
:10321000DF4F3881C556D040323009F4C8C0CA5A91
:10322000DF4F2881C655D040222309F4C0C0E32FC8
:10323000F0E045E0EE0FFF1F4A95E1F790E0E82B44
:10324000F92B3197E932F10508F0B1C0EC5CFF4F82
:10325000EE0FFF1F0590F491E02D0994CE012DDBB8
:103260006C837D838E839F830E94910CC85BDF4FAC
:1032700012C0FE01E859FF4F1082213409F097C0B7
:103280007BC0CE019DDB6C8B7D8B8E8B9F8B0E94D8
:10329000910CC05BDF4F688379838A839B8387C0EF
:1032A000233509F084C08C899D89AE89BF89B0958A
:1032B000A095909581959F4FAF4FBF4F8C8B9D8B65
:1032C000AE8BBF8B74C0CE017BDB6C8F7D8F8E8FFE
:1032D0009F8F6DC0273509F06AC08C8D9D8DAE8D96
:1032E000BF8DB095A095909581959F4FAF4FBF4FE3
:1032F0008C8F9D8FAE8FBF8F5AC0CE01DEDA6CA748
:103300007DA78EA79FA753C0CE01D7DA6CAB7DAB4C
:103310008EAB9FAB4CC08E010A5A1F4F20E030E0AD
:1033200040E050E018C0CA01B9012AE030E040E0B6
:1033300050E00E94B5352F2D332727FD3095432FC0
:10334000532F2053304040405040260F371F481F16
:10335000591F0F5F1F4FF801F0808F2D80538A3067
:1033600010F32C873D874E875F8721C0FE01E85907
:10337000FF4F10822133DCF081E0808318C0CE0142
:103380008A5A9F4F0E94C403FE01EE5BFF4F808369
:1033900011820DC0CE0191DA6CAF7DAF8EAF9FAFC1
:1033A00006C0CE018ADA6CA37DA38EA39FA380E022
:1033B000DF91CF911F910F91FF900895CB59DF4F6F
:1033C00082E08883F4CF1F93CF93DF93EC01162F15
:1033D000FC01E759FF4F80819181A281B381019661
:1033E000A11DB11D80839183A283B383643299F1BF
:1033F000DE01A959BF4F65322CF46A3069F06D3097
:10340000C1F50AC06A3241F06C3299F5FE01EC5AFE
:10341000FF4F8081862780838C918F3010F090E061
:1034200009C0FE01E80FF11DEA5AFF4F1082CE01DC
:10343000CCDD982FFE01EA59FF4F80818F5F80839A
:10344000C959DF4F1882FE01729710821A3251F566
:1034500081E0808327C0C959DF4F18821A92629792
:103460001882619682E0888360971882639618823A
:1034700018C08C918E3040F4FE01E80FF11DEA5A1D
:10348000FF4F10838F5F8C93CB5ADF4F8881C555D8
:10349000D040882331F4FE01EC5AFF4F8081812710
:1034A000808390E0892FDF91CF911F910895FC01D7
:1034B00080912E0490912F048E179F0711F480E0C5
:1034C0000895838D8E7F838F9FB7F8941092700438
:1034D0008091700480937104F0932F04E0932E0484
:1034E0009FBF81E008950F931F93CF93DF93FC015B
:1034F000738D76957170A685B7859585772329F0AC
:103500008C91892309F454C004C08C91892309F05B
:103510004FC08389948920E001972FEF8F3F920756
:10352000D9F7C589D689A685B785158560E031E0CC
:1035300040E050E000E0CE01202F01972FEF8F3FB9
:103540009207D9F78C91812311F0632B03C0832F4D
:1035500080956823330F4F5F5F4F4830510559F70F
:103560008789908D20E001972FEF8F3F9207D9F741
:1035700071116095809170042091710490E0019622
:103580008F73907030E08217930779F0E0917004A8
:10359000F0E0E05DFB4F60838091700490E0019665
:1035A0008F7390708093700403C0838D8160838FCC
:1035B000DF91CF911F910F9108951F920F920FB637
:1035C0000F9211242F933F934F935F936F937F93A9
:1035D0008F939F93AF93BF93EF93FF9380912E04AC
:1035E00090912F04009709F07EDFFF91EF91BF913A
:1035F000AF919F918F917F916F915F914F913F918B
:103600002F910F900FBE0F901F9018951F920F9241
:103610000FB60F9211242F933F934F935F936F93A5
:103620007F938F939F93AF93BF93EF93FF9380917B
:103630002E0490912F04009709F055DFFF91EF9130
:10364000BF91AF919F918F917F916F915F914F91BA
:103650003F912F910F900FBE0F901F9018951F92C2
:103660000F920FB60F9211242F933F934F935F93B6
:103670006F937F938F939F93AF93BF93EF93FF933A
:1036800080912E0490912F04009709F02CDFFF9178
:10369000EF91BF91AF919F918F917F916F915F91CA
:1036A0004F913F912F910F900FBE0F901F90189543
:1036B000CF92DF92EF92FF920F931F93CF93DF93FE
:1036C000EC017A018B011A8E198E188E1F8A1E8AC0
:1036D0001D8A1C8A1B8A20E030E06901CC0CDD1CAD
:1036E000C20ED31EB601660F771F660F771FAB01A0
:1036F00040555E4FFA0185919591A591B4918E1533
:103700009F05A007B107E9F4FB01EC54FE4F85913A
:1037100094919C8B8B8BFB01EA54FE4F8591949185
:103720009E8B8D8BFB01E854FE4F85919491988F71
:103730008F8BFB01E654FE4F859194919A8F898F70
:1037400006C02F5F3F4F2C30310509F0C6CF8F895F
:10375000988D892B09F449C04C85463108F03DC04D
:1037600090916800483010F484E005C04E3010F0AD
:1037700082E001C081E0892B80936800483028F402
:10378000EDE6F0E0ADE6B0E00BC04E3028F0ECE640
:10379000F0E0ACE6B0E004C0EBE6F0E0ABE6B0E0B1
:1037A0005081483040F481E090E002C0880F991FBA
:1037B0004A95E2F710C0242F30E04E3018F428501C
:1037C000304002C02E50304081E090E002C0880FAF
:1037D000991F2A95E2F7852B8C93898D9A8D20E08D
:1037E00001972FEF8F3F9207D9F780912E04909188
:1037F0002F048C179D0781F08B8D8E7F8B8F9FB749
:10380000F894109270048091700480937104D093A6
:103810002F04C0932E049FBFDF91CF911F910F9172
:10382000FF90EF90DF90CF900895FC0144854631E2
:1038300080F5483028F4EDE6F0E0ADE6B0E00BC0EE
:103840004E3028F4EBE6F0E0ABE6B0E004C0ECE686
:10385000F0E0ACE6B0E05081483040F481E090E028
:1038600002C0880F991F4A95E2F710C0242F30E05C
:103870004E3018F42850304002C02E50304081E0C5
:1038800090E002C0880F991F2A95E2F78095852362
:103890008C930895FC0186E892E091838083CF01A8
:1038A000C4CF20912E0430912F042817390731F40A
:1038B0009091710480917004981719F42FEF3FEFE5
:1038C0000FC0E0917104F0E0E05DFB4F208180913A
:1038D000710490E001968F7390708093710430E0D2
:1038E000C901089520912E0430912F04281739071B
:1038F00019F020E030E00EC0809170042091710436
:1039000090E0805C9F4F821B910960E470E00E9410
:10391000D4359C01C90108950F931F93DC0159967A
:103920008D919C915A97892B49F481E090E01396F0
:103930009C938E93129720E030E097C00FB7F894D5
:103940005B968C915B975196ED91FC9152975096B6
:103950002C91509781FF8DC08081822B8083599656
:103960008D919C915A97059620E001972FEF8F3FFC
:103970009207D9F75B968C915B9781FF35C031E058
:1039800040E050E070E010E0832F90E08623972322
:103990005196ED91FC91529750962C915097892B0E
:1039A00029F0808120952823208303C08081822BE9
:1039B000808359968D919C915A97212F01972FEFD3
:1039C0008F3F9207D9F7330F4F5F5F4F4830510554
:1039D000D9F65196ED91FC915297908150968C9129
:1039E00050978095892333C031E040E050E070E08B
:1039F00010E0832F90E0862397235196ED91FC9160
:103A0000529750962C915097892B21F08081822BD0
:103A1000808304C0808120952823208359968D912E
:103A20009C915A97212F01972FEF8F3F9207D9F73B
:103A3000330F4F5F5F4F48305105D9F65196ED91E6
:103A4000FC915297808150969C915097892B80834E
:103A50000FBF59968D919C915A9720E001972FEFB7
:103A60008F3F9207D9F721E030E0C9011F910F91F4
:103A70000895808120952823208371CF20912E04E2
:103A800030912F042817390749F49FB7F894109202
:103A9000700480917004809371049FBF08952091F9
:103AA0002E0430912F042817390731F490917104B6
:103AB00080917004981719F42FEF3FEF0AC0E0913E
:103AC0007104F0E0E05DFB4F8081282F332727FD54
:103AD0003095C90108951F93CF93DF93EC01162F02
:103AE000862F60E00E94330D8B8D81FD04C0812FF5
:103AF00061E00E94720D1C87212F30E0C9018857B8
:103B00009E4FFC0184918D872C583E4FF9016491A2
:103B1000E62FF0E0EE0FFF1FE659FE4F85919491DE
:103B20009F878E87DF91CF911F910895FF920F930A
:103B30001F938C01F62E862F61E00E94330D8F2D8E
:103B400061E00E94720D8F2D90E0FC01E857FE4F5E
:103B5000E491D8015096EC9350978C589E4FFC01FD
:103B60006491E62FF0E0EE0FFF1FE05AFE4F8591C3
:103B7000949152969C938E9351971F910F91FF9021
:103B80000895FF920F931F938C01F62EFC01138270
:103B9000128288EE93E0A0E0B0E084839583A68350
:103BA000B78386E892E091838083148A138A168A09
:103BB000158A108E178A128E118E838D2170220F16
:103BC0008C7F822B838FC801642FB0DFC8016F2DDB
:103BD00082DF1F910F91FF9008950F931F93CF9352
:103BE000DF938C01FB01C081D181FC01EC0FFD1F33
:103BF00080818F3209F4219698012C0F3D1FA0E09F
:103C0000B0E00BC0FA01EA0FFB1F808311962196EA
:103C10002F5F3F4FAC30B10531F0F90180818F3219
:103C200011F0882379F7A40FB51F1C92F801EC0F4F
:103C3000FD1F80818F3209F42196FB01D183C0835F
:103C4000C00FD11F8881811181E0DF91CF911F9139
:103C50000F910895109277041092780410927B04CB
:103C600010927D0482E090E0A0E0B0E080937F04B9
:103C700090938004A0938104B093820410929604E0
:103C80001092A00410929F0488EA92E090939E0400
:103C900080939D041092A3040895EF92FF921F93C6
:103CA000DF93CF93CDB7DEB76E970FB6F894DEBF34
:103CB0000FBECDBF9C01AB011C821B8288EA92E043
:103CC0009A8389831F827E010894E11CF11CC7013D
:103CD000B90121E00E94302D182F882319F0C70167
:103CE0000E94F227812F6E960FB6F894DEBF0FBEAA
:103CF000CDBFCF91DF911F91FF90EF9008952F924C
:103D00003F924F925F926F927F928F929F92BF925B
:103D1000CF92DF92EF92FF920F931F93DF93CF9397
:103D2000CDB7DEB7CB54D0400FB6F894DEBF0FBE90
:103D3000CDBF1C017B012A0139011B8A1A8A88EA3E
:103D400092E0998B888B1E8A19AA18AA9FA78EA722
:103D50001CAA1A8219828B0120E1C22ED12CCC0E12
:103D6000DD1E93E0892E912C8C0E9D1E03C0C80190
:103D700086016C01C101BE016F5F7F4FA4012DDF81
:103D8000B82E40E0882309F441E0C801B401930152
:103D9000F2010995882339F40E151F0519F1C801A0
:103DA0000E94F2271FC0BB20A9F0C601B801A401E0
:103DB00021E00E94302DB82E0E151F0519F0C80104
:103DC0000E94F227BB2071F00E151F0581F6CE016F
:103DD0008E96CECF0E151F0519F0C8010E94F2274E
:103DE00081E001C080E0C55BDF4F0FB6F894DEBF15
:103DF0000FBECDBFCF91DF911F910F91FF90EF903C
:103E0000DF90CF90BF909F908F907F906F905F904A
:103E10004F903F902F9008959B01BC01655D7F4FAF
:103E2000C90142EA51E220E030E069CF9B01BC01C8
:103E3000655D7F4FC9014DE45EE120E030E05FCF7A
:103E40002F923F924F925F926F927F928F929F92AA
:103E5000AF92BF92CF92DF92EF92FF920F931F9398
:103E6000DF93CF93CDB7DEB7C954D0400FB6F894E7
:103E7000DEBF0FBECDBF582E492EFB013A011901FE
:103E800085A596A5998B888B28EA32E03F872E87F7
:103E900087A58A8B80A98B8B81A98C8B82A993A9FA
:103EA000A4A9B5A98D8B9E8BAF8BB88F86A997A936
:103EB000A0ADB1AD898F9A8FAB8FBC8F82AD93AD22
:103EC000A4ADB5AD8D8F9E8FAF8FB8A386AD89A3FE
:103ED000FF9681919191A191B1918AA39BA3ACA3EB
:103EE000BDA381919191A191B1918EA39FA3A8A708
:103EF000B9A7808191819BA78AA71FA61EA63DA76F
:103F00002CA71AAA7A018E01025F1F4F3CE2A32E52
:103F1000B12CAC0EBD1E4E010894811C911C35C005
:103F2000D7018C918F3221F40894E11CF11C2DC033
:103F3000422F4E194D3008F04CE0C42EDD24C40150
:103F4000B701A6010E940904F401EC0DFD1D1082C9
:103F5000C5010E94F227C501B801A40121E00E9419
:103F6000302D882351F4E52DF42D1382128288EA36
:103F700092E09183808316826AC0EC0CFD1CC8011C
:103F80000E94F227C50158018C01C7016FE270E061
:103F90000E94F7039C01009719F6E618F708F10153
:103FA000F182E082E52DF42DD80112968D919C913D
:103FB00013979383828388EA92E091838083149697
:103FC0008C911497848315968C91159785831696FA
:103FD0008C911697868317962D913D914D915C910A
:103FE0001A9727833087418752871B962D913D91E1
:103FF0004D915C911E9723873487458756871F967E
:104000002D913D914D915C9152972787308B418B3B
:10401000528B53968C915397838B54962D913D914F
:104020004D915C915797248B358B468B578B5896C7
:104030002D913D914D915C915B97208F318F428FF7
:10404000538F5C968D919C915D97958F848F852D74
:10405000942DC75BDF4F0FB6F894DEBF0FBECDBF08
:10406000CF91DF911F910F91FF90EF90DF90CF9054
:10407000BF90AF909F908F907F906F905F904F9088
:104080003F902F9008959F92AF92BF92CF92DF9270
:10409000EF92FF920F931F93DF93CF93CDB7DEB7CD
:1040A000CA57D0400FB6F894DEBF0FBECDBFC82EA2
:1040B000992E8A01D22E43E0A42EB12CAC0EBD1E47
:1040C000C501A8019E012F5F3F4FBADEE980FA804B
:1040D000E00EF11EF701808148EA52E0298588232D
:1040E00009F041C08D819E819CA38BA35AA349A353
:1040F0008F818DA388858EA32FA38A859B85AC8510
:10410000BD8588A799A7AAA7BBA78E859F85A889E3
:10411000B9898CA79DA7AEA7BFA78A899B89AC89BF
:10412000BD8988AB99ABAAABBBAB8E898CAB8F89B1
:10413000988DA98DBA8D8DAB9EABAFABB8AF8B8D83
:104140009C8DAD8DBE8D89AF9AAFABAFBCAF8F8D5F
:1041500098A19EAF8DAF8C2D992DBE016F5D7F4FC5
:1041600046E152E0A7C0FE01EF5BFF4F11821082D3
:10417000DE01DF9611965C934E93FE01EB5BFF4FE1
:1041800010822223A9F02250223050F4CD016DE993
:1041900074E0A7012D2D0E94302D882379F408C0EA
:1041A000CD01B501A7012D2D0E94302D882321F4CA
:1041B0008C2D992DF5D07FC0C50114D7F6E0DF22F4
:1041C00051F0FE01ED5AFF4F4081518162817381B0
:1041D000CE01CF96FAD59E01235A3F4FFE01EF5BE9
:1041E000FF4F80819181F9019383828388EA92E075
:1041F00091838083FE01ED5BFF4F8081F901848311
:10420000FE01EC5BFF4F8081F9018583FE01EB5BD2
:10421000FF4F8081F9018683FE01EA5BFF4F8081B9
:104220009181A281B381F90187839087A187B287A9
:10423000FE01E65BFF4F80819181A281B381F9018C
:1042400083879487A587B687FE01E25BFF4F808155
:104250009181A281B381F9018787908BA18BB28B69
:10426000FE01EE5AFF4F8081F901838BFE01ED5A6A
:10427000FF4F80819181A281B381F901848B958B5D
:10428000A68BB78BFE01E95AFF4F80819181A281F5
:10429000B381F901808F918FA28FB38FFE01E55A10
:1042A000FF4F80819181F901958F848F8C2D992DFD
:1042B000B901A7015BD18C2D992DC658DF4F0FB6E0
:1042C000F894DEBF0FBECDBFCF91DF911F910F914C
:1042D000FF90EF90DF90CF90BF90AF909F900895A8
:1042E000EF920F931F93CF93DF93EC01362F542F50
:1042F000722FE02E61E0432F252F072FFDD3882357
:10430000D1F08E01035F1F4FC801BE0141E00E9442
:10431000772F882339F4C801BE0140E00E94772F2F
:10432000882349F0CE018B96B8010E94212A882368
:1043300019F081E001C080E0DF91CF911F910F91D2
:10434000EF900895EF92FF920F931F93DF93CF9317
:10435000CDB7DEB76E970FB6F894DEBF0FBECDBFF8
:104360008C017B011C821B8288EA92E09A838983FC
:104370001F82C80192DC882331F4CE010196B80176
:10438000A7010E94312E6E960FB6F894DEBF0FBEC5
:10439000CDBFCF91DF911F910F91FF90EF900895C6
:1043A000FC011382128288EE93E0A0E0B0E08483E7
:1043B0009583A683B78386E992E091838083128EEA
:1043C000118E14860895FC0186E992E09183808322
:1043D0000895FC01A18DB28D109719F420E030E012
:1043E00009C0ED91FC9111970190F081E02DCD0174
:1043F00009959C01C9010895DC015996ED91FC9144
:104400005A97309719F420E030E018C02489358994
:104410004689578983859485A585B685281B390BE0
:104420004A0B5B0B2030B0E83B07B0E04B07B0E035
:104430005B0720F02FEF3FE740E050E0C90108950F
:10444000DC015996ED91FC915A97309711F480E078
:1044500008958681811181E00895CF93DF93EC0167
:10446000898D9A8D009739F0BDD5898D9A8D0E94DE
:104470009C021A8E198EDF91CF910895FC01818DD7
:10448000928D009709F066C50895DF93CF930F9240
:10449000CDB7DEB7FC01818D928D009741F0BE0152
:1044A0006F5F7F4F41E050E070D6019719F02FEF1A
:1044B0003FEF03C08981282F30E0C9010F90CF91D1
:1044C000DF910895EF92FF920F931F93DF93CF93A5
:1044D0000F92CDB7DEB77C01DC0159968D919C918E
:1044E0005A97009719F400E010E01DC0BE016F5FFD
:1044F0007F4F41E050E049D6019719F00FEF1FEFD1
:1045000012C08981082F10E0D7015996ED91FC91D6
:104510005A97438554856585768541505040604063
:104520007040CF0152D4C8010F90CF91DF911F91FD
:104530000F91FF90EF900895FC01818D928D00976F
:1045400019F420E030E003C00E94032B9C01C90154
:104550000895FC01818D928D009719F420E030E0E0
:1045600003C00E94B52C9C01C9010895EF92FF92EF
:104570000F931F93CF93DF93EC01F62EE72E8A0162
:104580001B821A8288EE93E0A0E0B0E08C839D83CA
:10459000AE83BF8386E992E0998388838EE190E0C1
:1045A0000E94F2019A8F898F009791F0DC018F2D84
:1045B0009E2D9C01F9018EE101900D928150E1F751
:1045C000CE010C96B8014CE050E00E940904188E10
:1045D000DF91CF911F910F91FF90EF900895382FA9
:1045E0008091BD048F3F29F43EBD0DB407FEFDCF81
:1045F0000895F894A091BE04B091BF045091C004F6
:10460000252F2095E091C104F091C2044091C3048C
:10461000642F609590E08C9182238C9337FF03C0C8
:104620008081842B02C08081862380838C91852B9E
:104630008C939F5F983011F0330FEDCF0000000096
:10464000000000008C9128232C9378940895809189
:10465000BD048F3F19F4C3DF2EB530C0F894E0914C
:10466000C104F091C20480819091C304892B80839E
:10467000E091BE04F091BF046091C004A091C40415
:10468000B091C5048091C604482F50E0762F7095F4
:1046900020E030E08081862B8083220F8C9190E097
:1046A00084239523892B09F02160808187238083CF
:1046B000000000003F5F383069F77894822F08953A
:1046C000FC01673020F086E1858380E00895262F85
:1046D00030E060FD02C0663019F48DB58E7F02C0F7
:1046E0008DB581608DBD8CB58C7F8CBD4CB522FDA8
:1046F00002C090E001C092E036952795822F81702C
:10470000842B892B8CBD81E008950F931F93CF9349
:10471000DF938B010E94910CEB0199DF8F3F11F425
:1047200081E008C00E94910C6C1B7D0B6017710723
:10473000A0F380E0DF91CF911F910F910895FC01CC
:10474000848160E00C94720DFC01848161E00C9422
:10475000720DCF92DF92EF92FF920F931F93CF9340
:10476000DF937C016A01FC018485882319F40FEF33
:104770001FEF30C000E010E040E050E0212F332771
:1047800027FD3A95F601E40FF51F808190E0282778
:1047900039273070C901F4E095958795FA95E1F7CE
:1047A00082279327102F0027082719279C01322FD3
:1047B00022273295307F0227132725E0880F991F83
:1047C0002A95E1F7082719274F5F5F4FF2E0403045
:1047D0005F07A1F6862F03DFC0E0D0E0F601EC0F03
:1047E000FD1F8081FCDE219682E0C030D807B1F742
:1047F000812F992787FD9A95F2DE802FF0DE27DF43
:10480000F70182878F71853011F481E006C081E164
:10481000F7018583C70198DF80E0DF91CF911F9179
:104820000F91FF90EF90DF90CF9008950F931F931B
:10483000CF93DF93EC010E94910C8B0109C00E9481
:10484000910C601B710B6D52714010F08FE009C02C
:10485000FEDE8A878F3F99F38E3F11F481E005C019
:104860008DE08D83CE0170DF80E0DF91CF911F91CD
:104870000F910895CF93DF93EC018E81882311F47B
:104880000DC0E5DE8F819885019698878F8301970B
:1048900082509240B0F3CE0157DF1E82DF91CF915C
:1048A0000895DF92EF92FF920F931F93CF93DF93C0
:1048B000EC01D62E79018A01DDDFCE0140DFCE0189
:1048C0006CE271E022DF8D2D806489DE812F9927D3
:1048D000AA27BB2784DEC801AA27BB2780DEBB2707
:1048E000A12F902F8F2D7BDE8E2D79DEDD2011F410
:1048F00085E906C088E0D81611F487E801C08FEF7B
:104900006EDE10E0A4DE8A8787FF02C01150D1F767
:10491000DF91CF911F910F91FF90EF90DF9008955D
:10492000CF92DF92EF92FF920F931F93CF93DF937B
:10493000EC017A018B016901411551056105710591
:1049400011F482E12EC08B85833039F039E0EE0C12
:10495000FF1C001F111F3A95D1F7CE0168E1A80195
:1049600097019FDF882311F084E01BC0CE016EEF1A
:10497000A601EFDE8823B1F0CE0168E572E0C5DE66
:10498000882311F485E10DC0CE016DE020E030E018
:1049900040E050E086DF882319F459DE882371F067
:1049A00084E18D83CE01D0DE80E0DF91CF911F9135
:1049B0000F91FF90EF90DF90CF900895CE01C4DE6D
:1049C00081E0F3CF6F927F928F929F92AF92BF92CE
:1049D000CF92DF92EF92FF920F931F93CF93DF93CB
:1049E000EC015A016B01390148010115110509F467
:1049F00064C0C801820F931F8150924008F059C0D3
:104A00008E81882371F088819981AA81BB814817A2
:104A100059076A077B0729F48F81988568167906FC
:104A200038F5A882B982CA82DB828B85833039F05F
:104A3000E9E0AA0CBB1CCC1CDD1CEA95D1F7CE0129
:104A400061E1A60195012DDF882319F083E08D83B4
:104A500030C0CE01EBDE882361F118861F8281E031
:104A60008E8306C0F4DD8F819885019698878F83A9
:104A70008F81988586159705A8F300E010E007C0A0
:104A8000E6DDF701E00FF11F80830F5F1F4F081570
:104A90001905B0F32F813885280D391D38872F83EC
:104AA0008985882319F02050324038F0CE01E2DEAB
:104AB00004C0CE0149DE80E001C081E0DF91CF91EA
:104AC0001F910F91FF90EF90DF90CF90BF90AF902C
:104AD0009F908F907F906F900895EF92FF920F9329
:104AE0001F93790120E030E000E012E06BDF1F91BE
:104AF0000F91FF90EF900895BF92CF92DF92EF92C7
:104B0000FF920F931F93CF93DF93EC01B62E1E2DD0
:104B10001B8619861E821D821C864C832093C70427
:104B20000093C804E092BD040E94910C6B018C813B
:104B300061E00E94330DCE0107DE1F3F09F462C021
:104B40008091C80460E00E94330D8091C70461E049
:104B50000E94330D8091BD0461E00E94330DE0910D
:104B6000BD042E2F332727FD3095F901EC58FE4F59
:104B7000E491F0E0EE0FFF1FE05AFE4F8591949113
:104B80009093BF048093BE0428573E4FF90184914F
:104B90008093C004E091C7042E2F332727FD309562
:104BA000F901EC58FE4FE491F0E0EE0FFF1FE05AE0
:104BB000FE4F859194919093C2048093C10428572D
:104BC0003E4FF90184918093C304E091C8042E2FD5
:104BD000332727FD3095F901EC58FE4FE491F0E0C2
:104BE000EE0FFF1FE659FE4F859194919093C504F7
:104BF0008093C40428573E4FF90184918093C604E2
:104C000010E01AC08CE060E00E94330D8BE061E0A0
:104C10000E94330D8DE061E00E94330D8AE061E077
:104C20000E94330D8AE061E00E94720D83E58CBD25
:104C30008DB58E7F8DBDE4CF8FEFD1DC1F5F1A3035
:104C4000D9F7CE017CDD09C00E94910C6C197D0959
:104C5000615D774010F081E054C0CE0160E020E05B
:104C600030E040E050E01DDE182F8A87813061F788
:104C7000CE0168E02AEA31E040E050E012DE82FF37
:104C800002C01B870CC010E0E2DC8A871F5F143073
:104C9000D9F78A3A11F082E034C082E08B878B85A5
:104CA000823021F0EE24FF2487010FC0E12CF12C8B
:104CB000012DB0E41B2F09C00E94910C6C197D09D5
:104CC000615D774010F088E01CC0CE0167E320E012
:104CD00030E040E050E0E5DDCE0169E2A801970157
:104CE000E0DD8A87882341F78B858230C1F4CE01CD
:104CF0006AE320E030E040E050E0D3DD882331F08B
:104D000086E08D83CE0120DD80E014C0A0DC807CB5
:104D1000803C11F483E08B879ADC99DC98DCCE012F
:104D200013DD8091BD048F3F11F081E003C0CE01FF
:104D30006B2DC6DCDF91CF911F910F91FF90EF900B
:104D4000DF90CF90BF900895CF93DF93EC01DB010C
:104D500080E090E020E2FD01E80FF91F208301963A
:104D60008B309105C1F757E040E021C02E3219F099
:104D700080E492E007C05A3019F15AE048E017C0C9
:104D80003217F1F0FC01019634913323C9F754171F
:104D9000B8F02132A8F02F3798F4822F81568A314B
:104DA00008F42052FD01E40FF11D20834F5F29918B
:104DB0002223E1F690E08C91803219F091E001C05D
:104DC00090E0892FDF91CF9108956F927F928F921B
:104DD0009F92AF92BF92CF92DF92EF92FF920F938A
:104DE0001F93CF93DF93EC017A018B012E81222355
:104DF00009F480C08C899D89AE89BF898417950785
:104E0000A607B70708F476C085C0E114F1040105D0
:104E1000110549F41F82188619861A861B861C867E
:104E20001D861E8665C02B853C854D855E85EC8D77
:104E3000FD8D858590E009962150304040405040DE
:104E400039014A01082E04C0969487947794679498
:104E50000A94D2F72F5F3F4F4F4F5F4F0894E108FE
:104E6000F108010911095701680104C0D694C794DB
:104E7000B794A7948A95D2F70894E11CF11C011D00
:104E8000111DA614B704C804D90428F02115310552
:104E90004105510549F4888D998DAA8DBB8D8F836D
:104EA0009887A987BA8716C0A618B708C808D9086E
:104EB00011C04F81588569857A858C8D9D8D9401AF
:104EC0000E9454310894A108B108C108D108882370
:104ED00031F410C087E0882E912C8C0E9D1EA114F9
:104EE000B104C104D10429F7EB86FC860D871E8727
:104EF00081E001C080E0DF91CF911F910F91FF9081
:104F0000EF90DF90CF90BF90AF909F908F907F9069
:104F10006F900895223009F078CFE6CFCF93DF93DA
:104F2000EC01462F6F85788989899A89A6D78823CD
:104F300019F420E030E00AC08B89282F30E095E09A
:104F4000220F331F9A95E1F725533B4FC901DF919B
:104F5000CF9108950F931F93CF93DF938C01FC01A2
:104F600086818823C9F1858187FF34C0C80161E04B
:104F7000D5DFEC01009781F1F8018681823040F4A1
:104F800084899589A689B7898C8F9D8FAE8FBF8FB5
:104F9000F801808D918D9B8F8A8F808D918DA28D50
:104FA000B38DCD01AA27BB279D8B8C8BE091C904C3
:104FB000F091CA04309751F0BE016A5E7F4FCE0176
:104FC00048960995888D998D9B8B8A8BF8018581F0
:104FD0008F778583F4D601C080E0DF91CF911F9158
:104FE0000F910895CF93DF93EC01B4DF882311F084
:104FF0001E8281E0DF91CF9108956F927F928F9210
:105000009F92AF92BF92CF92DF92EF92FF920F9357
:105010001F93DF93CF9300D000D0CDB7DEB77C01D4
:105020005A016B01DC0116968C911697813009F0BC
:105030008CC015968C9181FF88C09BC00097A105FC
:10504000B10511F481E082C0F70163847484858422
:105050009684C701B601A501B8DE882309F475C09E
:10506000D7015C968D919C915D97A114B104C10408
:10507000D10489F458964D915D916D917C915B9727
:105080000E94C631882309F460C0F701108E118E8A
:10509000128E138E3DC0D70117964D915D916D9183
:1050A0007C911A979E012F5F3F4F0E9454318823B5
:1050B00009F44BC0D7015C96ED91FC915D97498155
:1050C0005A816B817C818789803129F088EF9FEF3D
:1050D000AFEFBFE004C088EF9FEFA0E0B0E048175B
:1050E00059076A077B07A0F4CF010E94C6318823C5
:1050F00061F1F7014781508561857285848D958DB9
:105100000FEF1FEF2FEF3FE00E94B9308823E9F047
:10511000D7015496AD92BD92CD92DC9257971596D9
:105120008C911597806815968C93C70113DF88239F
:1051300061F0B601A5016A147B048C049D0410F48F
:10514000B401A301C70141DE01C080E00F900F90C0
:105150000F900F90CF91DF911F910F91FF90EF90E3
:10516000DF90CF90BF90AF909F908F907F906F9087
:105170000895F70184899589A689B78984179507C9
:10518000A607B70708F05ACFE0CF2F923F924F9271
:105190005F926F927F928F929F92AF92BF92CF92C7
:1051A000DF92EF92FF920F931F93CF93DF93EC0167
:1051B0002A018E81882309F4C5C08D8180FFC2C079
:1051C000D7C025014E185F084B0177E0272E312C00
:1051D0002C0E3D1E3201B0C02B853C854D855E8571
:1051E0006FEFA62E61E0B62EA222B3228E81790146
:1051F0008A0199E016950795F794E7949A95D1F767
:10520000EC8DFD8D823049F4428D538D648D758D0A
:105210004E0D5F1D601F711F3FC0D480DA94DE20E9
:10522000A114B104D9F4DD20C9F4211531054105DB
:10523000510549F4888D998DAA8DBB8D8F839887F0
:10524000A987BA870BC04F81588569857A85CF01B8
:1052500091010E945431882309F474C0EC8DFD8DB6
:105260004F81588569857A85425050406040704032
:10527000058404C0440F551F661F771F0A94D2F798
:1052800086859785A089B189480F591F6A1F7B1FA2
:105290004D0D511D611D711D80E092E08A199B0921
:1052A00063018615970508F46C018D8186FD06C0A3
:1052B00080E0C81682E0D80609F072C080916E02C4
:1052C00090916F02A0917002B09171024817590736
:1052D0006A077B0709F464C08091CB069091CC06E5
:1052E0009501860174016EDB882361F18C0C9D1C95
:1052F00012C0950125533B4FA9014C0D5D1DD401F2
:10530000F90102C081918D93E417F507D9F7E21BEB
:10531000F30B8E0E9F1E960140E050E08B859C851E
:10532000AD85BE85820F931FA41FB51F8B879C87F9
:10533000AD87BE876C187D086114710409F04CCFED
:10534000A20102C04FEF5FEFCA01DF91CF911F9121
:105350000F91FF90EF90DF90CF90BF90AF909F9014
:105360008F907F906F905F904F903F902F90089517
:10537000AC88BD88CE88DF88EB84FC840D851E85D3
:105380009A0140E050E0D601C5018E199F09A00B9B
:10539000B10B82179307A407B50708F412CF14CFF7
:1053A000CB01BA0140E069D5882309F0A2CFCACF6A
:1053B000CF92DF92EF92FF920F931F93DF93CF93E1
:1053C0000F92CDB7DEB76C01FC018681823068F0A8
:1053D000E384F48405851685C601BE016F5F7F4FA7
:1053E00041E050E0D2DE019769F020E030E0C901F1
:1053F0000F90CF91DF911F910F91FF90EF90DF9071
:10540000CF900895F60183859485A585B6854F963E
:10541000A11DB11D83879487A587B687F5E01695F2
:105420000795F794E794FA95D1F78E2D8F70282F72
:1054300030E0E5E0220F331FEA95E1F725533B4FBB
:10544000D6CF0F931F93CF93DF93EC018B018E8107
:10545000882309F040C0FB0187898031B1F482E0E4
:105460008E83188E198E1A8E1B8E808D918DA0E0E2
:10547000B0E045E0880F991FAA1FBB1F4A95D1F7DE
:105480008C8B9D8BAE8BBF8B14C0803221F583E05B
:105490008E83FB01428D538D648D758D488F598F9E
:1054A0006A8F7B8F9E012C5E3F4FC801C6D7882331
:1054B00091F01D8F0C8F81E08D831F8218861986D5
:1054C0001A861B861C861D861E861F86188A198AC8
:1054D0001A8A1B8A01C080E0DF91CF911F910F9142
:1054E00008951F93CF93DF93EC01142FE62FF0E084
:1054F00075E0EE0FFF1F7A95E1F7E553FB4F8385CB
:10550000817121F0842F827409F052C06B8B8091DD
:105510006E0290916F02A0917002B09171028F871C
:10552000988BA98BBA8B84899589A0E0B0E0BC01E7
:1055300055274427828D938DA0E0B0E0482B592B4E
:105540006A2B7B2B488F598F6A8F7B8F838590E0E6
:1055500088719070009751F4848D958DA68DB78DCC
:105560008C8B9D8BAE8BBF8B81E00BC0409701F580
:105570009E012C5E3F4F8C8D9D8D5FD78823C1F09F
:1055800084E08E83812F8F708D831F821886198609
:105590001A861B861C861D861E8616FD02C081E0AB
:1055A00008C0CE0140E050E060E070E026DD01C0C0
:1055B00080E0DF91CF911F910895CF93DF93EC01AD
:1055C0009C01295F3F4F8C8D9D8D41E050E060E054
:1055D00070E0A1D78823A1F0888D998DAA8DBB8D0D
:1055E0000097A105B10559F48F819885A985BA85E1
:1055F000888F998FAA8FBB8F8D8180688D8381E082
:10560000DF91CF9108952F923F924F925F927F92B8
:105610008F929F92AF92BF92CF92DF92EF92FF92C2
:105620000F931F93DF93CF9300D000D000D0CDB75E
:10563000DEB76C01162F072F5E834D83DC011696B3
:105640008C911697813009F06BC115968C9181FF72
:1056500067C188C1F6014489558966897789838540
:105660009485A585B68584179507A607B70729F001
:10567000C601ABDB882309F453C1812F902F9C0115
:1056800029012D803E8014C1D6015C96ED91FC91DC
:105690005D97DA01C90119E0B695A79597958795A9
:1056A0001A95D1F774807A9478227FEF872E71E073
:1056B000972E82229322772009F04EC08114910404
:1056C00009F04AC0D60117964D915D916D917C917C
:1056D0001A97411551056105710581F458968D9110
:1056E0009D910D90BC91A02D0097A105B10551F1A0
:1056F000F60187839087A187B2872EC0CF019E01D4
:105700002F5F3F4FD1D5882319F41E821D8210C10F
:1057100029813A814B815C81D6015C96ED91FC91A7
:105720005D978789803129F088EF9FEFAFEFBFE069
:1057300004C088EF9FEFA0E0B0E0281739074A07C0
:105740005B0728F0C60139DF882331F4E9C0F60190
:10575000278330874187528780E092E08819990932
:1057600051018215930508F45C01D6015C96ED9118
:10577000FC915D971796ED90FD900D911C911A97F5
:105780008EEF9FEFAFEFBFEFE80EF91E0A1F1B1F52
:10579000058404C0EE0CFF1C001F111F0A94D2F7F1
:1057A00086859785A089B189E80EF91E0A1F1B1FFF
:1057B000E70CF11C011D111D90E0A91692E0B9063D
:1057C00049F580916E0290916F02A0917002B091A4
:1057D00071028E159F05A007B10761F48FEF9FEF4F
:1057E000AFEFBFEF80936E0290936F02A0937002B1
:1057F000B09371028091CB069091CC06B801A701BD
:1058000092018ED8882309F48BC0A0E0B2E04A0E42
:105810005B1E3CC08114910401F5F601238534859B
:105820004585568584899589A689B78928173907BA
:105830004A075B0790F0C3D2882309F471C0E09255
:105840006E02F0926F0200937002109371028091C9
:10585000CD0681608093CD0607C0C801B70141E045
:105860000CD3882309F45CC0940125533B4FA90154
:105870004A0D5B1DD201F90102C08D918193E4179D
:10588000F507D9F7E21BF30B4E0E5F1E2A183B08F3
:10589000950140E050E0F60183859485A585B685A5
:1058A000820F931FA41FB51F83879487A587B68790
:1058B000D6011B962D913D914D915C911E9721141F
:1058C000310409F0E1CE54968D919D910D90BC91DB
:1058D000A02D82179307A407B50748F4F601248B7F
:1058E000358B468B578B85818068858311C080916D
:1058F000C9049091CA04892B59F08D819E81892B0E
:1059000039F0D60115968C911597806815968C9371
:10591000F601858183FF0CC0C6011CDB882341F49E
:1059200081E0D60114968C93EFEFFFEFFE83ED83B9
:105930008D819E8126960FB6F894DEBF0FBECDBF37
:10594000CF91DF911F910F91FF90EF90DF90CF905B
:10595000BF90AF909F908F907F905F904F903F90BF
:105960002F90089582FD76CE88CEDB010D90002029
:10597000E9F71197A61BB70BAD0145CEDF93CF9387
:105980000F92CDB7DEB76983BE016F5F7F4F41E0F5
:1059900050E039DE0F90CF91DF910895DF92EF92C2
:1059A000FF920F931F93CF93DF93EC0106DE8823C2
:1059B00009F44DC0EC8DFD8DEF80F88409851A85C2
:1059C0008EEF9FEFAFEFBFEFE80EF91E0A1F1B1F10
:1059D000058404C0EE0CFF1C001F111F0A94D2F7AF
:1059E00086859785A089B189E80EF91E0A1F1B1FBD
:1059F000D4800894E108F108010911090AC0C8011E
:105A0000B7016D0D711D811D911D14D28823F9F010
:105A1000DA94DD20A1F7EC8DFD8D20E032E040E04E
:105A200050E0058404C0220F331F441F551F0A9401
:105A3000D2F78C899D89AE89BF89820F931FA41FDD
:105A4000B51F8C8B9D8BAE8BBF8B81E001C080E03E
:105A5000DF91CF911F910F91FF90EF90DF9008950C
:105A60006F927F928F929F92AF92BF92CF92DF926E
:105A7000EF92FF920F931F93DF93CF93CDB7DEB7D3
:105A80002B970FB6F894DEBF0FBECDBF5C016B0144
:105A9000822EDC0116968C91882309F0CCC0CA01B5
:105AA0008E010F5F1F4FB8014FD9882309F4C3C07F
:105AB000F601848D958DD5015D969C938E935C97B0
:105AC0001782108611861286D6011B961D921D9292
:105AD0001D921C921E979924380140C0C60168DCB3
