:10000000D1C00000F6C00000F4C00000F2C0000043
:10001000F0C00000EEC00000ECC00000EAC000002C
:10002000E8C00000E6C00000E4C00000E2C000003C
:10003000E0C00000DEC00000DCC00000DAC000004C
:100040004EC30000D6C0000035C4000080C40000CC
:10005000D0C00000CEC00000CCC00000CAC000006C
:100060000C94D60CC6C00000084AD73B3BCE016EAC
:1000700084BCBFFDC12F3D6C74319ABD56833DDAFF
:100080003D00C77F11BED9E4BB4C3E916BAAAABE0E
:10009000000000803F3D3D3D3D3D3D3D3D3D3D3D02
:1000A0003D3D3D3D2046494D20205345545550206F
:1000B0003D3D3D3D3D3D3D3D3D3D3D3D3D3D3D3D70
:1000C0003D004D50553630353020636F6E6E6563A0
:1000D00074696F6E206661696C6564004D505536B9
:1000E00030353020636F6E6E656374696F6E207398
:1000F00075636365737366756C00496E69746961D5
:100100006C697A696E672049324320646576696359
:1001100065732E2E2E003D3D3D3D3D3D3D3D3D3D1B
:100120003D3D3D3D3D3D3D3D3D20205345545550D9
:10013000203D3D3D3D3D3D3D3D3D3D3D3D3D3D3D0C
:100140003D3D0000000000240027002A00000000C0
:1001500000250028002B00000000002300260029B5
:100160000004040404040404040202020202020360
:10017000030303030301020408102040800102046A
:1001800008102001020408102000000007000201EE
:100190000000030406000000000000000000FA0058
:1001A00013067C0B11241FBECFEFD8E0DEBFCDBFFE
:1001B00011E0A0E0B1E0E0EAF3E202C005900D92A8
:1001C000AE36B107D9F713E0AEE6B1E001C01D923B
:1001D000AE30B107E1F711E0C4EAD1E004C02297E4
:1001E000FE010E94CA11CE39D107C9F772D50C940D
:1001F000CE1106CF86E791E069E6C6D780914A0125
:1002000090914B0190938601809385019093880192
:10021000809387010895ABD22091890130918A01A2
:10022000621B730B709388016093870120914A01D0
:1002300030914B0162177307E4F4261B370BB901A9
:10024000882777FD8095982FA0D28CE292E060E01D
:1002500071E0B0D660914A0170914B0180918701A5
:1002600090918801681B790B8CE292E04AE050E0A3
:1002700084D67DD22091890130918A01621B730B53
:10028000709386016093850172D2609389017093A7
:100290008A0180938B0190938C01809185019091CC
:1002A000860108954F925F926F927F928F929F92F4
:1002B000AF92BF92CF92DF92EF92FF920F931F9374
:1002C000DF93CF93CDB7DEB72C970FB6F894DEBF90
:1002D0000FBECDBF4C0186E791E06FE871E041E9C8
:1002E00051E023E931E005E911E0F7E9EF2EF1E013
:1002F000FF2EE9E9CE2EE1E0DE2E49D76091930191
:1003000070919401882777FD8095982F0E943D1069
:100310007B018C0160918F0170919001882777FD9E
:100320008095982F0E943D10A80197010E944B0FC5
:100330002BED3FE049E450E40E94D80E21EE3EE26E
:1003400045E652E40E941D1169837A838B839C8366
:10035000609372017093730180937401909375019F
:100360006091910170919201882777FD8095982F77
:100370000E943D10A80197010E944B0F2BED3FE01A
:1003800049E450E40E94D80E21EE3EE245E652E4F4
:100390000E941D116D837E838F83988760936E0109
:1003A00070936F018093700190937101609195013A
:1003B00070919601882777FD8095982F0E943D10B7
:1003C00020E030E043E053E40E94A20F2B013C0107
:1003D0006091970170919801882777FD8095982FFB
:1003E0000E943D1020E030E043E053EC0E94A20F59
:1003F00069877A878B879C87AA2497FCA094BA2C5C
:10040000C501B4010E943D105B016C0120E030E0A9
:100410004AE754E40E94A20F7B018C01C301B201A0
:10042000A80197010E941D119B01AC0160913A0146
:1004300070913B0180913C0190913D010E94D80E4A
:1004400060933A0170933B0180933C0190933D018E
:1004500069857A858B859C85A80197010E941D116D
:100460009B01AC0160913E0170913F018091400180
:10047000909141010E94D80E60933E0170933F011C
:100480008093400190934101C301B201A6019501FF
:100490000E941D1120E030E04AE754E40E94A20FC0
:1004A0002091420130914301409144015091450116
:1004B0000E94D80E2BE734E14EE65FE30E941D1147
:1004C0007B018C016D817E818F81988529E23CE5DD
:1004D0004FE85DE30E941D119B01AC01C801B7010B
:1004E0000E94D80E609342017093430180934401AF
:1004F0009093450169857A858B859C85A601950138
:100500000E941D1120E030E04AE754E40E94A20F4F
:100510002091460130914701409148015091490195
:100520000E94D80E2BE734E14EE65FE30E941D11D6
:100530007B018C0169817A818B819C8129E23CE578
:100540004FE85DE30E941D119B01AC01C801B7019A
:100550000E94D80E60934601709347018093480132
:10056000909349010CE212E0C8014D815E816F81D8
:10057000788522E030E0F5D58CE0E82E81E0F82E99
:10058000C801B70117D54091720150917301609174
:10059000740170917501C80122E030E0E2D5C80114
:1005A000B70108D540913A0150913B0160913C015F
:1005B00070913D01C80122E030E0D3D5C801B701F8
:1005C000F9D440913E0150913F01609140017091FA
:1005D0004101C80122E030E0C4D5C801B701EAD426
:1005E0004091420150914301609144017091450155
:1005F000C80122E030E0B5D5C801B701DBD4409195
:100600004601509147016091480170914901C8012C
:1006100022E030E0A6D5C801B701CCD461E070E09B
:1006200080E090E0B2D02C960FB6F894DEBF0FBEFB
:10063000CDBFCF91DF911F910F91FF90EF90DF9091
:10064000CF90BF90AF909F908F907F906F905F9072
:100650004F90089560918501709186018CE292E03F
:100660004AE050E08AD480918D0190918E011ADE8B
:10067000D2DD90938E0180938D01089584E992E0FC
:100680000E94140C8CE292E040E052EC61E070E0D9
:1006900099D18CE292E066E171E093D38CE292E032
:1006A0006AEF70E08ED386E791E003D68CE292E0A9
:1006B0006EE071E058D586E791E029D6882329F0CD
:1006C0008CE292E06CED70E004C08CE292E062ECAF
:1006D00070E077D38CE292E065E970E072C31F921C
:1006E0000F920FB60F9211242F933F938F939F93E6
:1006F000AF93BF9380919F019091A001A091A10120
:10070000B091A2013091A3010196A11DB11D232F2B
:100710002D5F2D3720F02D570196A11DB11D20937F
:10072000A30180939F019093A001A093A101B09396
:10073000A20180919B0190919C01A0919D01B0919B
:100740009E010196A11DB11D80939B0190939C0178
:10075000A0939D01B0939E01BF91AF919F918F9106
:100760003F912F910F900FBE0F901F9018958FB74C
:10077000F89420919F013091A0014091A1015091E6
:10078000A2018FBFB901CA0108959B01AC017FB7D7
:10079000F89480919B0190919C01A0919D01B09152
:1007A0009E0166B5A89B05C06F3F19F00196A11D7B
:1007B000B11D7FBFBA2FA92F982F8827860F911DB3
:1007C000A11DB11D62E0880F991FAA1FBB1F6A956A
:1007D000D1F7BC012DC0FFB7F89480919B01909197
:1007E0009C01A0919D01B0919E01E6B5A89B05C01A
:1007F000EF3F19F00196A11DB11DFFBFBA2FA92F20
:10080000982F88278E0F911DA11DB11DE2E0880F42
:10081000991FAA1FBB1FEA95D1F7861B970B885E0D
:100820009340C8F2215030404040504068517C4FC6
:10083000211531054105510571F60895789484B567
:10084000826084BD84B5816084BD85B5826085BDCC
:1008500085B5816085BDEEE6F0E0808181608083B2
:10086000E1E8F0E010828081826080838081816095
:100870008083E0E8F0E0808181608083E1EBF0E05C
:10088000808184608083E0EBF0E080818160808300
:10089000EAE7F0E0808184608083808182608083E9
:1008A0008081816080838081806880831092C10014
:1008B000089508951F920F920FB60F9211242F934F
:1008C0003F934F938F939F93EF93FF938091C0003B
:1008D00082FD1DC04091C6002091E4013091E501E8
:1008E0002F5F3F4F2F7330708091E6019091E701A9
:1008F0002817390771F0E091E401F091E501EC551A
:10090000FE4F40833093E5012093E40102C08091C3
:10091000C600FF91EF919F918F914F913F912F9141
:100920000F900FBE0F901F901895E0913802F09134
:100930003902E05CFF4F8191919120813181821BCE
:10094000930B8F739070892B09F0B3CF08951F928A
:100950000F920FB60F9211242F933F938F939F9373
:10096000EF93FF93209128023091290280912A026F
:1009700090912B022817390731F48091C1008F7DA7
:100980008093C10014C0E0912A02F0912B02E8513B
:10099000FE4F208180912A0290912B0201968F7345
:1009A000907090932B0280932A022093C600FF91AF
:1009B000EF919F918F913F912F910F900FBE0F90CC
:1009C0001F901895AF92BF92DF92EF92FF920F9314
:1009D0001F93CF93DF93EC017A018B01DD2440302C
:1009E00081EE580780E0680780E0780711F0DD2489
:1009F000D39491E0A92EB12CEC89FD89DD2069F01A
:100A0000C50108A002C0880F991F0A94E2F78083ED
:100A100060E079E08DE390E005C0108260E874E862
:100A20008EE190E0A80197010E94A611215030406C
:100A300040405040569547953795279580E12030A6
:100A4000380720F0DD2011F0DD24D6CFE889F989C0
:100A50003083EA89FB89208319A2EE89FF894081CE
:100A600021E030E0C9010C8C02C0880F991F0A9464
:100A7000E2F7482B4083EE89FF894081C9010D8C44
:100A800002C0880F991F0A94E2F7482B4083EE8931
:100A9000FF894081C9010E8C02C0880F991F0A94FA
:100AA000E2F7482B4083EE89FF8980810F8C02C0DA
:100AB000220F331F0A94E2F7209528232083DF9129
:100AC000CF911F910F91FF90EF90DF90BF90AF906B
:100AD0000895DC011C96ED91FC911D97E05CFF4FA1
:100AE0002191319180819181281B390B2F733070B6
:100AF000C9010895DC011C96ED91FC911D97E05C05
:100B0000FF4F20813181E054F040DF01AE5BBF4FE9
:100B10008D919C9111972817390719F42FEF3FEF0A
:100B200007C08D919C91E80FF91F8081282F30E03C
:100B3000C9010895DC011C96ED91FC911D97E05CC4
:100B4000FF4F20813181E054F040DF01AE5BBF4FA9
:100B50008D919C9111972817390719F42FEF3FEFCA
:100B600010C08D919C911197E80FF91F20818D91F4
:100B70009C91119701968F73907011969C938E9310
:100B800030E0C9010895DC0191968C9191978823FA
:100B900039F05496ED91FC915597808186FFF9CFFD
:100BA00091961C920895CF93DF93EC01EE85FF851B
:100BB000E05CFF4F20813181E054F0402F5F3F4FD8
:100BC0002F733070DF01AE5BBF4F8D919C911197F9
:100BD00028173907D1F3E05CFF4F80819181E05401
:100BE000F040E80FF91F6083EE85FF85E05CFF4F62
:100BF00031832083EE89FF89208181E090E00F8C92
:100C000002C0880F991F0A94E2F7282B208381E005
:100C100089A3EC89FD8980818064808381E090E0F4
:100C2000DF91CF91089510922F0210922E0288EE3C
:100C300093E0A0E0B0E08093300290933102A09363
:100C40003202B093330282E591E090932D028093BB
:100C50002C0284EA91E0909339028093380288EE66
:100C600091E090933B0280933A0285EC90E0909360
:100C70003D0280933C0284EC90E090933F0280938D
:100C80003E0280EC90E0909341028093400281EC20
:100C900090E0909343028093420282EC90E0909324
:100CA00045028093440286EC90E090934702809343
:100CB000460284E08093480283E08093490287E003
:100CC00080934A0285E080934B0281E080934C023E
:100CD0000895CF93DF93B2DDD1DCC5E9D4E0BADC6F
:100CE0002097E9F322DEFBCFCF92DF92EF92FF92C3
:100CF0000F931F93CF93DF937C016B018A01C0E0B8
:100D0000D0E00FC0D6016D916D01D701ED91FC913E
:100D10000190F081E02DC7010995C80FD91F01503E
:100D200010400115110571F7CE01DF91CF911F9190
:100D30000F91FF90EF90DF90CF900895EF92FF9288
:100D40000F931F93CF93DF937C018B01C0E0D0E022
:100D5000F8010F5F1F4F6491662359F0D701ED91A1
:100D6000FC910190F081E02DC7010995C80FD91FB2
:100D7000EFCFCE01DF91CF911F910F91FF90EF90B8
:100D80000895EF92FF920F931F938C01DC01ED9178
:100D9000FC910190F081E02D6DE009957C01D80176
:100DA000ED91FC910190F081E02DC8016AE0099578
:100DB0009C012E0D3F1DC9011F910F91FF90EF90D7
:100DC0000895EF92FF920F931F937C01B7DF8C0180
:100DD000C701D7DF9C01200F311FC9011F910F915F
:100DE000FF90EF900895CF93DF93EC0161157105AB
:100DF00019F420E030E00FC0DB010D900020E9F78E
:100E00001197A61BB70BE881F9810280F381E02DD1
:100E1000AD0109959C01C901DF91CF9108954F92D1
:100E20005F927F928F929F92AF92BF92CF92DF920A
:100E3000EF92FF920F931F93DF93CF93CDB7DEB75F
:100E4000A1970FB6F894DEBF0FBECDBF2C01742E54
:100E5000CB01223008F42AE019A231E2C32ED12CB2
:100E6000CC0EDD1E822E9924AA24BB24672D752F5B
:100E7000A50194010E94A61179018A01C801B70158
:100E8000A50194010E948711472D461B0894C108B3
:100E9000D1084A3014F4405D01C0495CF60140833A
:100EA000E114F1040105110521F07E2C5F2DC8012C
:100EB000DDCFC201B60197DFA1960FB6F894DEBF71
:100EC0000FBECDBFCF91DF911F910F91FF90EF909B
:100ED000DF90CF90BF90AF909F908F907F905F906A
:100EE0004F900895DC012115310541F4ED91FC91FD
:100EF0000190F081E02D642F0995089590CFCF9255
:100F0000DF92EF92FF920F931F93CF93DF93EC0149
:100F10006A017B012115310541F4E881F9810190D5
:100F2000F081E02D642F09951DC02A303105C9F4E8
:100F300077FF16C0E881F9810190F081E02D6DE224
:100F400009958C0144275527BA014C195D096E0992
:100F50007F09CE012AE063DF9801280F391F03C003
:100F60002AE05DDF9C01C901DF91CF911F910F91B4
:100F7000FF90EF90DF90CF900895CF92DF92EF92A5
:100F8000FF920F931F936C017B019A010027F7FCDE
:100F90000095102FB801A701B2DF8C01C601F1DE68
:100FA000080F191FC8011F910F91FF90EF90DF905C
:100FB000CF90089518CF08957F928F929F92AF920D
:100FC000BF92CF92DF92EF92FF920F931F93CF9336
:100FD000DF934C017A018B01722ECB01BA01A8017B
:100FE00097010E948311882321F0C4016CE271E013
:100FF00020C0C0E0D0E057016801E894D7F8C601EE
:10100000B5012FEF3FEF4FE75FE70E948311882381
:1010100049F4C601B5012FEF3FEF4FE75FE78ED7E9
:10102000181614F0C1E0D0E0219731F0C40160E35C
:1010300071E0D9DEEC0186C0C801B7012FEF3FEFA8
:101040004FE75FE40E94121118164CF0C801B70177
:101050002FEF3FEF4FE75FEC71D7882324F4C401F3
:1010600064E371E0E6CFC801B70120E030E040E082
:1010700050E064D787FD03C0C0E0D0E00EC0D401CB
:10108000ED91FC910190F081E02DC4016DE2099594
:10109000EC0117FB109517F9109520E030E040E0C7
:1010A0005FE3DD240AC0CA01B90120E030E040E27C
:1010B00051E448D79B01AC01D394D714A0F3C801E5
:1010C000B70176D65B016C01AAD77B018C01C40104
:1010D000B801A7012AE030E005DFC80FD91F77204B
:1010E00031F0C40168E371E07EDEC80FD91FC8018A
:1010F000B701C1D79B01AC01C601B50158D620C0CC
:1011000020E030E040E251E40E941D117B018C019F
:1011100081D75B016C01CC24B7FCC094DC2CC401EA
:10112000B601A5012AE030E0EADEC80FD91FC601EA
:10113000B501A3D79B01AC01C801B70138D67A9499
:101140007720F1F6CE01DF91CF911F910F91FF90A3
:10115000EF90DF90CF90BF90AF909F908F907F9057
:1011600008952ACF0895EF92FF920F931F937C0169
:101170003ADE8C01C70105DE080F191FC8011F9157
:101180000F91FF90EF900895FC01608308952F92D6
:101190003F924F925F926F927F928F929F92AF9207
:1011A000BF92CF92DF92EF92FF920F931F935C0159
:1011B0004B013A01290118019C012F5F3F4F00911B
:1011C0004C0110914D01FC0180816BE34EE0E4D0B5
:1011D000F501918180E0228130E0822B932BF40194
:1011E00091838083F501938180E0248130E0822B1C
:1011F000932BF30191838083F501958180E0268113
:1012000030E0822B932BF20191838083F50191854D
:1012100080E0228530E0822B932BF1019183808343
:10122000F501938580E0248530E0822B932BF70134
:1012300091838083F501958580E0268530E0822BBF
:10124000932BF601918380831F910F91FF90EF9074
:10125000DF90CF90BF90AF909F908F907F906F90D6
:101260005F904F903F902F900895FC01262F808132
:101270006BE646E08EC10F93FC01062F80816BE682
:1012800042E023E03ED10F9108950F93FC01062F19
:1012900080816CE144E022E034D10F9108950F93F6
:1012A000FC01062F80816BE144E022E02AD10F91FE
:1012B00008950F931F938C0161E0DDDFC80160E0AA
:1012C000EEDFC80160E0E1DFC80160E0CEDF1F9122
:1012D0000F910895CF92DF92EF92FF920F931F9399
:1012E0006C018C010F5F1F4FE0904C01F0904D019D
:1012F000FC01808165E746E026E083D1F60181812B
:101300001F910F91FF90EF90DF90CF900895E2DF53
:1013100090E0843309F491E0892F0895EF92FF92D1
:101320000F931F93CF93DF93582F162FE42E022F86
:10133000F32E84E992E0652FA5D184E992E0612F34
:1013400022D2202F3F2DC901EC0110E005C084E915
:1013500092E0699118D21F5F1E15C8F384E992E0EC
:1013600053D290E0882309F491E0892FDF91CF9147
:101370001F910F91FF90EF900895DF93CF930F92FD
:10138000CDB7DEB7498341E09E012F5F3F4FC6DFF7
:101390000F90CF91DF9108952F923F924F925F92DD
:1013A0006F927F928F929F92AF92BF92CF92DF9275
:1013B000EF92FF920F931F93DF93CF9300D000D053
:1013C0000F92CDB7DEB7882E6983942E3B832A8394
:1013D000CED95B016C01FF24EE24292C3324280193
:1013E0006624772443C084E992E0682D4BD184E9D8
:1013F00092E06981C8D184E992E006D284E992E062
:10140000682D40D1A1014E1951094132510514F006
:1014100040E250E084E992E0682D04D22F2D33277A
:1014200027FD30958A819B81280F391F3D832C83AE
:1014300084E992E031D1892B09F44FC001151105DF
:1014400059F095D96A197B098C099D0964157505B0
:101450008605970508F041C084E992E026D1EC8129
:10146000FD818193FD83EC83F394E2CFE91408F4CA
:10147000BACF01151105C1F07AD96A197B098C0917
:101480009D09980140E050E06217730784079507B3
:1014900058F02F2D332727FD3095892D90E0281700
:1014A000390714F4FF24FA948F2D0F900F900F90AA
:1014B0000F900F90CF91DF911F910F91FF90EF90C0
:1014C000DF90CF90BF90AF909F908F907F906F9064
:1014D0005F904F903F902F90089584E992E094D1CF
:1014E000892DF0E2F91508F480E2E80EBFCF0F93E2
:1014F0001F93FA01890141E09F014EDF1F910F9177
:101500000895DF92EF92FF920F931F93DF93CF9393
:101510000F92CDB7DEB7E82ED62EF42E122F2091E3
:101520004C0130914D01AE014F5F5F4FE0DF8823EA
:1015300039F1212F30E04F2D50E04F5F5F4F421BBC
:10154000530B81E090E002C0880F991F1A95E2F7D3
:101550000197042E02C0880F991F0A94E2F7202FEA
:1015600030E002C0220F331F4A95E2F7482F409522
:10157000598145238223482B49838E2D6D2DFDDE15
:101580000F90CF91DF911F910F91FF90EF90DF901F
:101590000895EF92FF920F931F93DF93CF930F92D3
:1015A000CDB7DEB7F82EE62E042F122F20914C0176
:1015B00030914D01AE014F5F5F4F99DF29811123BB
:1015C00051F081E090E002C0880F991F0A95E2F780
:1015D000422F482B0AC081E090E002C0880F991F7B
:1015E0000A95E2F7482F4095422349838F2D6E2DAF
:1015F000C4DE0F90CF91DF911F910F91FF90EF907C
:101600000895CF92DF92EF92FF920F931F93DF9393
:10161000CF930F92CDB7DEB7C42ED22E9701AE0175
:101620004F5F5F4F64DF682F882309F18D2D90E0B5
:101630004C2D50E04F5F5F4F481B590B21E030E0CD
:1016400002C0220F331FDA94E2F721503040042EFB
:1016500002C0220F331F0A94E2F78981822390E0AF
:1016600002C0959587954A95E2F7F8018083862F09
:101670000F90CF91DF911F910F91FF90EF90DF902E
:10168000CF90089581E0809393026093700210924E
:10169000910210929202089520916F0230E08091A1
:1016A0006E02281B3109C901089540916E02809194
:1016B0006F02481718F02FEF3FEF0AC0E42FF0E059
:1016C000E25BFD4F8081282F30E04F5F40936E0238
:1016D000C9010895E0916E0280916F02E81718F039
:1016E000EFEFFFEF06C0F0E0E25BFD4F8081E82FF7
:1016F000F0E0CF010895089510929702109296029B
:1017000088EE93E0A0E0B0E0809398029093990275
:10171000A0939A02B0939B0282E691E09093950287
:10172000809394020895CF92DF92EF92FF920F93ED
:101730001F93CF93DF937C016B018A018091930209
:101740008823A1F0C0E0D0E00DC0D701ED91FC915D
:10175000D601AC0FBD1F0190F081E02DC7016C9147
:1017600009952196C017D10780F303C0CB01642FE0
:1017700002D1C801DF91CF911F910F91FF90EF909F
:10178000DF90CF900895DF93CF930F92CDB7DEB760
:10179000FC016983809193028823C9F080919202B1
:1017A000803238F081E090E09383828320E030E063
:1017B00014C080919102E82FF0E0EF58FD4F99811D
:1017C00090838F5F809391028093920204C0CE0138
:1017D000019661E0D0D021E030E0C9010F90CF91B7
:1017E000DF9108950F93062F8091700261E772E0F8
:1017F0004091920221E06AD01092910210929202DE
:10180000109293020F91089561E0ECCF413208F0FD
:1018100040E2862F6EE472E010D010926E02809348
:101820006F02089521E0F2CF10926E0210926F02C3
:1018300010929102109292024AC2382F413210F057
:1018400040E042C08091A0028823E1F791E09093AC
:10185000A0022093A2028FEF80930D031092C80282
:1018600041504093C9024F5F9093A1028091A10221
:10187000330F832B8093A1028091A302813041F426
:101880001092A3028091A1028093BB0085EC01C05D
:1018900085EE8093BC008091A0028130E1F38091BD
:1018A000C802841710F44091C80220E030E00AC05A
:1018B000FB01E20FF31FD901A855BD4F8C91808326
:1018C0002F5F3F4F2417A0F3842F08950F931F938A
:1018D000582F122F413210F081E04AC08091A002AF
:1018E0008823E1F782E08093A0020093A2028FEFA9
:1018F00080930D031092C8024093C902A8EAB2E097
:10190000FB0102C081918D938E2F861B8417D0F32B
:101910001092A1028091A102550F852B8093A10204
:101920008091A302813041F41092A3028091A10220
:101930008093BB0085EC01C085EE8093BC00112331
:1019400021F08091A0028230E1F380910D038F3F5E
:1019500011F480E00DC080910D03803211F482E01B
:1019600007C080910D03803311F084E001C083E053
:101970001F910F910895482F613210F081E0089572
:101980008091A002843011F082E008956093EB0210
:10199000AAECB2E0842F9C01F90102C081918D93E1
:1019A0008E2F841B8617D0F380E008951F920F922C
:1019B0000FB60F9211242F933F934F935F936F9322
:1019C0007F938F939F93AF93BF93EF93FF938091F8
:1019D000B90090E0887F90708036910509F4F2C0DC
:1019E00081369105CCF58832910509F47BC08932A6
:1019F0009105B4F48031910509F46FC081319105EE
:101A00003CF4009709F447C1089709F04FC165C03D
:101A10008831910509F466C0809709F047C182C0FA
:101A20008034910509F4A4C08134910544F48033D5
:101A3000910509F482C0C89709F038C189C0803582
:101A4000910509F489C08835910509F496C0883458
:101A5000910509F02BC1AEC08839910509F413C175
:101A600089399105ECF48837910509F4ABC08937C1
:101A700091054CF48836910509F4A4C0803791058E
:101A800009F014C19FC08838910509F4FCC0803961
:101A9000910509F49DC08038910509F007C198C0EF
:101AA000803B910509F4C6C0813B91054CF4803A16
:101AB000910509F49FC0883A910509F0F7C0BAC0B2
:101AC000803C910509F4E3C0883C910509F4DFC02E
:101AD000883B910509F0EAC0C2C08091A1028093C1
:101AE000BB00CFC09091C8028091C902981768F4DA
:101AF0009091C802E92FF0E0E855FD4F8081809376
:101B0000BB009F5F9093C802BCC08091A202882353
:101B100009F44BC085ED8093BC008091BC0084FD2E
:101B2000FCCFC2C080E280930D0385ED8093BC00A2
:101B30008091BC0084FDFCCFB7C080E380930D038F
:101B400085ED8093BC008091BC0084FDFCCFACC0CF
:101B500088E380930D039BC08091C8029091BB00E5
:101B6000E82FF0E0E855FD4F90838F5F8093C80227
:101B70009091C8028091C90282C08091C802909160
:101B8000BB00E82FF0E0E855FD4F90838F5F809316
:101B9000C8028091A202882341F085ED8093BC00A9
:101BA0008091BC0084FDFCCF7FC081E08093A302C4
:101BB00084EA6EC085ED8093BC008091BC0084FDFA
:101BC000FCCF72C083E08093A00210920C0359C036
:101BD00080910C03803208F056C080910C039091E4
:101BE000BB00E82FF0E0E451FD4F90838F5F8093BE
:101BF0000C0347C080910C03803230F4E0910C0359
:101C0000F0E0E451FD4F108285ED8093BC0080919F
:101C1000BC0084FDFCCF1092A00260910C03E09107
:101C2000A602F091A7028CEE92E070E00995109266
:101C30000C032DC084E08093A0021092EA0210925F
:101C4000EB02E091A402F091A50209958091EB02CC
:101C5000882329F481E08093EB021092CA029091CC
:101C6000EA02E92FF0E0E653FD4F80818093BB004C
:101C70009F5F9093EA029091EA028091EB0298179D
:101C800010F485EC01C085E88093BC000FC085ECA2
:101C90008093BC0009C010920D0385ED8093BC00B9
:101CA0008091BC0084FDFCCF1092A002FF91EF91C7
:101CB000BF91AF919F918F917F916F915F914F9164
:101CC0003F912F910F900FBE0F901F90189510927B
:101CD000A00281E08093A2021092A30282E161E05F
:101CE00012D083E161E00FD0E9EBF0E080818E7FDC
:101CF000808380818D7F808388E48093B80085E431
:101D00008093BC000895482F50E0CA0187579E4F2A
:101D1000FC012491CA018B589E4FFC0194914F59AC
:101D20005E4FFA013491332309F440C0222351F16C
:101D3000233071F0243028F42130A1F0223011F545
:101D400014C02630B1F02730C1F02430D9F404C0DB
:101D5000809180008F7703C0809180008F7D809379
:101D6000800010C084B58F7702C084B58F7D84BD9C
:101D700009C08091B0008F7703C08091B0008F7D43
:101D80008093B000E32FF0E0EE0FFF1FE35BFE4F08
:101D9000A591B4912FB7F894662321F48C91909576
:101DA000892302C08C91892B8C932FBF08955058A2
:101DB000BB27AA270ED0FCC1EDD130F0F2D120F024
:101DC00031F49F3F11F41EF4BDC10EF4E095E7FB22
:101DD000B3C1E92FFED180F3BA17620773078407F6
:101DE000950718F071F49EF516C20EF4E0950B2ECF
:101DF000BA2FA02D0B01B90190010C01CA01A0015D
:101E00001124FF27591B99F0593F50F4503E68F1B7
:101E10001A16F040A22F232F342F4427585FF3CFF8
:101E2000469537952795A795F0405395C9F77EF4C9
:101E30001F16BA0B620B730B840BBAF09150A1F012
:101E4000FF0FBB1F661F771F881FC2F70EC0BA0F98
:101E5000621F731F841F48F4879577956795B79520
:101E6000F7959E3F08F0B3CF9395880F08F0992718
:101E7000EE0F9795879508958DD158F080E891E001
:101E800009F49EEF8ED128F040E851E059F45EEF5E
:101E900009C058C1C0C1E92FE0789BD168F3092E71
:101EA000052AC1F3261737074807590738F00E2EC1
:101EB00007F8E02569F0E025E0640AC0EF6307F861
:101EC000009407FADB01B9019D01DC01CA01AD01F3
:101ED000EF9347D06DD10AD05F91552331F02BEDB0
:101EE0003FE049E450FD49EC63CF0895DF93DD27DF
:101EF000B92FBF7740E85FE31616170648075B0760
:101F000010F4D92F93D19F938F937F936F93F8D130
:101F1000E8E6F0E01AD14CD12F913F914F915F91BB
:101F200098D1DD2349F09058A2EA2AED3FE049EC30
:101F30005FE3D0785D274DDFDF913AC1D9D008F457
:101F400081E008950CD034C12CD140F023D130F081
:101F500021F45F3F19F0F0C051115EC1F3C039D1D7
:101F600098F39923C9F35523B1F3951B550BBB2760
:101F7000AA2762177307840738F09F5F5F4F220F0D
:101F8000331F441FAA1FA9F333D00E2E3AF0E0E806
:101F900030D091505040E695001CCAF729D0FE2F52
:101FA00027D0660F771F881FBB1F261737074807E4
:101FB000AB07B0E809F0BB0B802DBF01FF2793589A
:101FC0005F4F2AF09E3F510568F0B6C025C15F3FC4
:101FD000ECF3983EDCF3869577956795B795F79582
:101FE0009F5FC9F7880F911D9695879597F908957A
:101FF000E1E0660F771F881FBB1F62177307840716
:10200000BA0720F0621B730B840BBA0BEE1F88F724
:10201000E095089504D06894B111FEC00895E1D010
:1020200088F09F5790F0B92F9927B751A0F0D1F0C1
:10203000660F771F881F991F1AF0BA95C9F712C04B
:10204000B13081F0E8D0B1E00895E5C0672F782F76
:102050008827B85F39F0B93FCCF3869577956795B7
:10206000B395D9F73EF490958095709561957F4F23
:102070008F4F9F4F0895E89409C097FB3EF49095C9
:102080008095709561957F4F8F4F9F4F9923A9F051
:10209000F92F96E9BB279395F695879577956795E0
:1020A000B795F111F8CFFAF4BB0F11F460FF1BC024
:1020B0006F5F7F4F8F4F9F4F16C0882311F096E9B7
:1020C00011C0772321F09EE8872F762F05C0662365
:1020D00071F096E8862F70E060E02AF09A95660F1E
:1020E000771F881FDAF7880F9695879597F90895D7
:1020F000990F0008550FAA0BE0E8FEEF1616170619
:10210000E807F907C0F012161306E407F50798F080
:10211000621B730B840B950B39F40A2661F0232B99
:10212000242B252B21F408950A2609F4A140A69515
:102130008FEF811D811D089597F99F6780E870E0FA
:1021400060E008959FEF80EC0895DF93CF931F9395
:102150000F93FF92EF92DF927B018C01689405C090
:10216000DA2EEF0176D0FE01E894A5912591359104
:1021700045915591AEF3EF012CDEFE019701A801C8
:10218000DA9479F7DF90EF90FF900F911F91CF9144
:10219000DF91089500240A941616170618060906FA
:1021A000089500240A9412161306140605060895CD
:1021B000092E0394000C11F4882352F0BB0F40F455
:1021C000BF2B11F460FF04C06F5F7F4F8F4F9F4F95
:1021D000089557FD9058440F551F59F05F3F71F017
:1021E0004795880F97FB991F61F09F3F79F087957E
:1021F0000895121613061406551FF2CF4695F1DF07
:1022000008C0161617061806991FF1CF8695710596
:10221000610508940895E894BB2766277727CB01CA
:1022200097F9089565DF08F48FEF08959B01AC01DD
:1022300060E070E080E89FE385CE0BD0B9CFAADFE5
:1022400028F0AFDF18F0952309F076CF7BCF11246B
:10225000E3CFBFDFA0F3959FD1F3950F50E0551F5B
:10226000629FF001729FBB27F00DB11D639FAA27EB
:10227000F00DB11DAA1F649F6627B00DA11D661F3A
:10228000829F2227B00DA11D621F739FB00DA11D5B
:10229000621F839FA00D611D221F749F3327A00D15
:1022A000611D231F849F600D211D822F762F6A2FB1
:1022B00011249F5750408AF0E1F088234AF0EE0F36
:1022C000FF1FBB1F661F771F881F91505040A9F743
:1022D0009E3F510570F030CF9FCF5F3FECF3983EAB
:1022E000DCF3869577956795B795F795E7959F5FAA
:1022F000C1F7FE2B880F911D9695879597F9089544
:102300009B01AC019ACFF4DE880B990B0895629F74
:10231000D001739FF001829FE00DF11D649FE00DDD
:10232000F11D929FF00D839FF00D749FF00D659F3E
:10233000F00D9927729FB00DE11DF91F639FB00D3D
:10234000E11DF91FBD01CF0111240895A1E21A2E4C
:10235000AA1BBB1BFD010DC0AA1FBB1FEE1FFF1F49
:10236000A217B307E407F50720F0A21BB30BE40B99
:10237000F50B661F771F881F991F1A9469F76095E0
:102380007095809590959B01AC01BD01CF0108959A
:10239000EE0FFF1F0590F491E02D0994F894FFCF04
:1023A0002020457370657265693A20000900546504
:1023B0007374696E672064657669636520636F6E08
:1023C0006E656374696F6E732E2E2E006E616E00E3
:1023D000696E66006F7666002E00000034430000D0
:1023E000344300003443000034430900E803000094
:1023F0000000D305740669059A057A05C305000037
:0E2400000000C30B930B4C0B550B6A0B7B0BB0
:00000001FF
