:1000000035C300000C94090D0C94360D57C3000045
:1000100055C3000053C3000051C300000C94991055
:100020004DC300004BC3000049C3000047C300009C
:1000300045C3000043C3000041C300003FC30000AC
:1000400040C400003BC3000039C3000037C30000B8
:1000500035C3000033C3000031C300002FC30000CC
:100060000C94C21F2BC3000007634236B79BD8A76E
:100070001A39685618AEBAAB558C1D3CB7CC5763CD
:10008000BD6DEDFD753EF6177231BF000000803F7B
:1000900008000000BE922449123EABAAAA2ABECD97
:1000A000CCCC4C3E00000080BEABAAAAAA3E000009
:1000B0000000BF000000803F000000000008417801
:1000C000D3BB4387D1133D190E3CC3BD4282AD2B38
:1000D0003E68EC8276BED98FE1A93E4C80EFFFBE30
:1000E00001C4FF7F3F00000000004465736C696736
:1000F00061203F0053616C766120416A75737465BD
:10010000733F0053494D7C4E414F004D74730000C6
:10011000000000240027002A00000000002500281D
:10012000002B000000000023002600290004040426
:100130000404040404020202020202030303030390
:10014000030102040810204080010204081020016D
:100150000204081020000000070002010000030450
:100160000600000000000000000200000000003E49
:100170005B4F5B3E3E6B4F6B3E1C3E7C3E1C183C17
:100180007E3C181C577D571C1C5E7F5E1C00183C73
:100190001800FFE7C3E7FF0018241800FFE7DBE7BC
:1001A000FF30483A060E2629792926407F050507A3
:1001B000407F05253F5A3CE73C5A7F3E1C1C0808FF
:1001C0001C1C3E7F14227F22145F5F005F5F0609C4
:1001D0007F017F006689956A606060606094A2FF1D
:1001E000A29408047E040810207E201008082A1C0F
:1001F00008081C2A08081E101010100C1E0C1E0CDB
:1002000030383E3830060E3E0E060000000000007A
:10021000005F00000007000700147F147F14242AE9
:100220007F2A1223130864623649562050000807BB
:100230000300001C2241000041221C002A1C7F1CDC
:100240002A08083E080800807030000808080808DE
:10025000000060600020100804023E5149453E0045
:10026000427F400072494949462141494D331814A3
:10027000127F1027454545393C4A494931412111F2
:1002800009073649494936464949291E00001400E4
:100290000000403400000008142241141414141407
:1002A000004122140802015909063E415D594E7C65
:1002B0001211127C7F494949363E414141227F411A
:1002C00041413E7F494949417F090909013E414178
:1002D00051737F0808087F00417F41002040413F63
:1002E000017F081422417F404040407F021C027F72
:1002F0007F0408107F3E4141413E7F090909063EC7
:100300004151215E7F091929462649494932030195
:100310007F01033F4040403F1F2040201F3F4038A7
:10032000403F631408146303047804036159494D82
:1003300043007F4141410204081020004141417FB8
:10034000040201020440404040400003070800202E
:10035000545478407F28444438384444442838442E
:1003600044287F385454541800087E090218A4A465
:100370009C787F0804047800447D40002040403D84
:10038000007F1028440000417F40007C04780478FE
:100390007C080404783844444438FC182424181891
:1003A000242418FC7C0804040848545454240404ED
:1003B0003F44243C4040207C1C2040201C3C4030DA
:1003C000403C44281028444C9090907C4464544C09
:1003D0004400083641000000770000004136080064
:1003E00002010204023C2623263C1EA1A161123A0E
:1003F0004040207A3854545559215555794121545B
:10040000547841215554784020545579400C1E525F
:100410007212395555555939545454593955545403
:10042000580000457C410002457D420001457C406A
:10043000F0292429F0F0282528F07C545545002087
:1004400054547C547C0A097F493249494932324824
:10045000484832324A4848303A4141217A3A42408B
:100460002078009DA0A07D39444444393D4040405F
:100470003D3C24FF2424487E4943662B2FFC2F2B30
:10048000FF0929F620C0887E0903205454794100D1
:1004900000447D413048484A32384040227A007A50
:1004A0000A0A727D0D19317D2629292F282629292E
:1004B000292630484D402038080808080808080850
:1004C000382F10C8ACBA2F102834FA00007B000077
:1004D00008142A142222142A1408AA005500AAAAD1
:1004E00055AA55AA000000FF00101010FF001414B8
:1004F00014FF001010FF00FF1010F010F01414147F
:10050000FC001414F700FF0000FF00FF1414F404B3
:10051000FC141417101F10101F101F1414141F00A8
:10052000101010F0000000001F101010101F10100D
:100530001010F010000000FF10101010101010101C
:1005400010FF10000000FF140000FF00FF00001F5C
:1005500010170000FC04F414141710171414F404FA
:10056000F40000FF00F714141414141414F700F727
:10057000141414171410101F101F141414F4141052
:1005800010F010F000001F101F0000001F140000EA
:1005900000FC140000F010F01010FF10FF141414F1
:1005A000FF141010101F00000000F010FFFFFFFFED
:1005B000FFF0F0F0F0F0FFFFFF0000000000FFFF91
:1005C0000F0F0F0F0F38444438447C2A2A3E147E04
:1005D00002020606027E027E0263554941633844E8
:1005E000443C04407E201E2006027E020299A5E7BC
:1005F000A5991C2A492A1C4C7201724C304A4D4D57
:10060000303048784830BC625A463D3E494949003E
:100610007E0101017E2A2A2A2A2A44445F4444405A
:10062000514A444040444A51400000FF0103E080E9
:10063000FF000008086B6B083612362436060F09D7
:100640000F06000018180000001010003040FF01D5
:1006500001001F01011E00191D1712003C3C3C3C0B
:100660000000000000009A051A1E950511241FBE07
:10067000CFEFD8E0DEBFCDBF13E0A0E0B1E0E8E10E
:10068000FBE402C005900D92A836B107D9F715E03A
:10069000A8E6B3E001C01D92AA3AB107E1F716E05F
:1006A000CAE6D6E004C02297FE010E947C25C63629
:1006B000D107C9F70E94490E0C948025A1CCCF9395
:1006C000DF93BC018230910510F462E070E0A091EC
:1006D000A805B091A905ED01E0E0F0E040E050E0B0
:1006E00021C0888199818617970769F48A819B8147
:1006F000309719F09383828304C09093A905809367
:10070000A805FE0134C06817790738F44115510572
:1007100019F08417950708F4AC01FE018A819B81CA
:100720009C01E9012097E9F641155105A9F1CA019B
:10073000861B970B049708F4BA01E0E0F0E02AC0AA
:100740008D919C91119784179507F9F4641775079B
:1007500081F412968D919C911397309719F09383A1
:10076000828304C09093A9058093A805FD01329669
:100770004CC0CA01861B970BFD01E80FF91F61935E
:10078000719302978D939C9340C0FD018281938168
:100790009C01D9011097A1F68091A6059091A7051B
:1007A000892B41F480913D0190913E019093A705E2
:1007B0008093A60540913F0150914001411551059C
:1007C00041F44DB75EB780913B0190913C01481BCD
:1007D000590B2091A6053091A705CA01821B930BE6
:1007E0008617970780F0AB014E5F5F4F8417950720
:1007F00050F0420F531F5093A7054093A605F901EF
:100800006193719302C0E0E0F0E0CF01DF91CF91FE
:100810000895CF93DF93009709F450C0EC0122971D
:100820001B821A82A091A805B091A905109709F121
:1008300040E050E0AC17BD0708F1BB83AA83FE017E
:1008400021913191E20FF31FAE17BF0779F48D911B
:100850009C911197280F391F2E5F3F4F39832883B2
:1008600012968D919C9113979B838A834115510514
:1008700071F4D093A905C093A80520C012968D915C
:100880009C911397AD01009711F0DC01D3CFFA01D1
:10089000D383C28321913191E20FF31FCE17DF077B
:1008A00069F488819981280F391F2E5F3F4FFA0123
:1008B000318320838A819B8193838283DF91CF91CF
:1008C00008951F920F920FB60F9211242F933F930A
:1008D0008F939F93AF93BF9380916C0390916D031F
:1008E000A0916E03B0916F033091CC040196A11DCD
:1008F000B11D232F2D5F2D3720F02D570196A11DFF
:10090000B11D2093CC0480936C0390936D03A0934E
:100910006E03B0936F038091680390916903A09177
:100920006A03B0916B030196A11DB11D809368030A
:1009300090936903A0936A03B0936B03BF91AF9147
:100940009F918F913F912F910F900FBE0F901F900D
:1009500018958FB7F89420916C0330916D034091F6
:100960006E0350916F038FBFB901CA0108959B01B7
:10097000AC017FB7F8948091680390916903A091CE
:100980006A03B0916B0366B5A89B05C06F3F19F071
:100990000196A11DB11D7FBFBA2FA92F982F8827BF
:1009A000860F911DA11DB11D62E0880F991FAA1F1E
:1009B000BB1F6A95D1F7BC012DC0FFB7F894809199
:1009C000680390916903A0916A03B0916B03E6B547
:1009D000A89B05C0EF3F19F00196A11DB11DFFBFF7
:1009E000BA2FA92F982F88278E0F911DA11DB11DF9
:1009F000E2E0880F991FAA1FBB1FEA95D1F7861B5B
:100A0000970B885E9340C8F22150304040405040E0
:100A100068517C4F211531054105510571F6089546
:100A2000789484B5826084BD84B5816084BD85B5C9
:100A3000826085BD85B5816085BDEEE6F0E0808190
:100A400081608083E1E8F0E01082808182608083B1
:100A5000808181608083E0E8F0E080818160808334
:100A6000E1EBF0E0808184608083E0EBF0E0808166
:100A700081608083EAE7F0E0808184608083808108
:100A800082608083808181608083808180688083B0
:100A90001092C1000895EF920F9381309105C9F52E
:100AA0006F5F7F4F09F03EC08EEA93E00E949B1378
:100AB0008FEA93E00E94851389E594E00E94EC1888
:100AC00080E794E06AE070E00E94A31D8CE794E068
:100AD00062E070E00E94571C86E894E06CE070E0F1
:100AE0000E94571C80E994E06BE070E00E94571C64
:100AF0008AE994E068E070E00E94571C84EA94E080
:100B000067E046E025E004E0F3E0EF2E0E94D51810
:100B100009C0892B39F46F5F7F4F21F480E794E09F
:100B20000E949E1D0F91EF90089580E090E06FEF7E
:100B30007FEFB1CF81E090E06FEF7FEFACCF80919E
:100B400070034091960350919703609198037091C0
:100B50009903882349F04093920350939303609341
:100B6000940370939503089580E794E00E94211DFB
:100B70008091780390917903019690937903809303
:100B8000780380E794E00E94791D6093920370934C
:100B9000930380939403909395032091780330916D
:100BA000790380914401909145012817390741F458
:100BB000109279031092780380E794E00C94EF1C74
:100BC000089560918E0370918F03809190039091AE
:100BD000910320E836EE45EC57E40E94DA2121EB40
:100BE0003CED42E45EE30E948C239B01AC0160E09B
:100BF00070E080E89FE30E94712120E03AE24DE23C
:100C000057E40C942923DDDF8091920390919303A4
:100C1000A0919403B091950380939A0390939B03C2
:100C2000A0939C03B0939D0380939E0390939F0396
:100C3000A093A003B093A1030895EF92FF920F93A6
:100C40001F9389E594E00E94491960938A03709389
:100C50008B0380938C0390938D0389E594E00E942D
:100C6000281A0E94752260938E0370938F038093DD
:100C7000900390939103E090AA03F090AB0300914E
:100C8000AC031091AD03C801B70120E030E040E0B3
:100C900050E00E94D621882339F489E594E040E8A9
:100CA00056EE65EC77E404C089E594E0B801A7014D
:100CB0000E94EB1B609396037093970380939803B5
:100CC000909399031F910F91FF90EF900895B5DFD6
:100CD0006091A6037091A7038091A8039091A90346
:100CE00020E03AE24DE257E40E94DA2120E030E0D1
:100CF00040E85FE30E94722126EF38E248EA50E4C0
:100D00000E948C239B01AC0160918E0370918F0334
:100D100080919003909191030E9429236093AA03EC
:100D20007093AB038093AC039093AD03089585DF7C
:100D300048DF6093A6037093A7038093A803909362
:100D4000A903C5CF0F931F9304EA14E0C80168E21A
:100D50000E943118C8016EE10E94B617C8010E94B6
:100D60005C171F910F9108958DE061E0EBC68DE057
:100D700061E0A9D68DE060E0E5C684EA94E061E038
:100D80000E94051784EA94E061E070E00E940B176E
:100D9000809174038130A1F0813028F0823081F09D
:100DA000833021F516C084EA94E060E070E040E012
:100DB00050E00E94FF1684EA94E06AEE70E015C0ED
:100DC00084EA94E060E070E040E050E00E94FF16AA
:100DD0000DC084EA94E060E070E040E050E00E94E2
:100DE000FF1684EA94E064EF70E08AD784EA94E026
:100DF00062E00E94051784EA94E060E070E044E15C
:100E000050E00E94FF1684EA94E063E071E078D736
:100E100084EA94E00C94CB176091A2037091A30331
:100E20008091A4039091A50390580E94422224E649
:100E300030E0CB01829FB001839F700D929F700DB7
:100E4000112489E020ED37E040E050E00C94F410EC
:100E500089E060EA7FE024E130E040E050E00C947B
:100E6000F41080914101813049F489E060ED77E030
:100E700024E130E040E050E00C94F410089580E06C
:100E800060E778E040E050E08ED56EDFEADF8EEA82
:100E900093E00C94A21386E894E00E94961C86E8E6
:100EA00094E00E945D1C882331F586E894E00E945E
:100EB000601C882301F180917103882371F0809177
:100EC0007403882319F0833029F402C0D8DF02C0EC
:100ED00010927503109271030EC0809173038823E2
:100EE00051F4809175038F5F80937503843019F4FA
:100EF00081E0809375038CE794E00E94961C8CE758
:100F000094E00E945D1C882369F58CE794E00E94C0
:100F1000601C882319F180917103882351F080911E
:100F20007403833019F403DF109275031092710378
:100F300019C0809173038823A9F4809175038823D5
:100F400031F481E080937103109274030BC081E04F
:100F50008093710383E08093740304C08CE794E072
:100F60000E946D1C80E994E00E94961C80E994E048
:100F70000E945D1C8823B9F080917303882309F0D7
:100F80004CC080917503813009F047C06091A60381
:100F90007091A7038091A8039091A90320E030E00D
:100FA00040E85FE32EC080E994E00E94601C882343
:100FB00071F080917503823081F5809141018F5FDE
:100FC00080934101823049F51092410126C080E9A9
:100FD00094E00E946D1C882301F1809173038823A3
:100FE000E1F4809175038130C1F46091A6037091A2
:100FF000A7038091A8039091A90320E030E040EA84
:1010000050E40E9472216093A6037093A70380931B
:10101000A8039093A9035BDE10DE8AE994E00E94A6
:10102000961C8AE994E00E945D1C882311F180914E
:101030007303882309F053C080917503813009F050
:101040004EC06091A6037091A7038091A803909170
:10105000A90320E030E040E85FE30E947121609343
:10106000A6037093A7038093A8039093A9032FDE90
:10107000E4CD8AE994E00E94601C882351F08091BD
:101080007503823061F58091410181508093410167
:1010900008958AE994E00E946D1C882301F18091F3
:1010A00073038823E1F4809175038130C1F460916A
:1010B000A6037091A7038091A8039091A90320E053
:1010C00030E040EA50E40E9471216093A6037093DF
:1010D000A7038093A8039093A903F9DDAECD0895EB
:1010E0008EEA93E00E949E13882319F080E07ED45C
:1010F000B8CE0895EF92FF920F931F936091A203D1
:101100007091A3038091A4039091A5030E944222B1
:101110007B018C018FEA93E0609142010E940913E8
:101120001E141F047CF488EE93E0B7010E9416257C
:10113000AB01662757FD6095762F8FEA93E028E292
:1011400037E00AC0EF2889F08FEA93E048EE53E0D9
:1011500060E070E02CE037E00E947D13992787FD66
:10116000909590934301809342018091720388236C
:1011700019F481E0809372031F910F91FF90EF901B
:1011800008956F927F928F929F92AF92BF92CF926B
:10119000DF92EF92FF920F931F932FB7F8948091F5
:1011A0006C0390916D03A0916E03B0916F032FBFFC
:1011B000885E9340A040B04008F441C16090820333
:1011C000709083038090840390908503C401B301E1
:1011D00020E030E040E050E00E94D621882381F5F5
:1011E0002FB7F89460916C0370916D0380916E033A
:1011F00090916F032FBF0E947322609382037093BC
:10120000830380938403909385036091920370918C
:101210009303809194039091950320E030E048EC93
:1012200052E40E942923609386037093870380937E
:101230008803909389031092770310927603FFC07E
:101240008FB7F894A0906C03B0906D03C0906E03BC
:10125000D0906F038FBF6091920370919303809140
:1012600094039091950320E030E048EC52EC0E940A
:101270002923209186033091870340918803509160
:1012800089030E9472210E944222882777FD80955F
:10129000982F0E9475227B018C01C601B5010E9426
:1012A0007322A40193010E94712120E030E04AE7FB
:1012B00054E40E94DA219B01AC01C801B7010E94ED
:1012C000DA2120E030E048EC52E40E94DA217B0190
:1012D0008C016093A2037093A3038093A403909363
:1012E000A50360917A0370917B0380917C039091B8
:1012F0007D03A80197010E94D621882344F4E0923F
:101300007A03F0927B0300937C0310937D0360913A
:101310007E0370917F038091800390918103A801E7
:1013200097010E942523181644F4E0927E03F09260
:101330007F030093800310938103C801B70120E06D
:1013400030E040E85FEB0E94D621181654F4C80143
:10135000B70120E030E040E85FE30E9425238823C6
:101360006CF0C801B7010E944222209176033091AF
:1013700077032617370711F1BDDE20C0C801B7017A
:1013800020E030E040E85FEB0E9425231816B4F41B
:10139000C801B70120E030E040E85FE30E94D621B9
:1013A000882364F480917203813011F410927203E7
:1013B0008FEA93E0609142010E9409132FB7F894DD
:1013C00060916C0370916D0380916E0390916F0337
:1013D0002FBF0E94732260938203709383038093D4
:1013E000840390938503609192037091930380919D
:1013F00094039091950320E030E048EC52E40E9481
:1014000029230E944222882777FD8095982F0E94E9
:10141000752260938603709387038093880390936B
:1014200089036091A2037091A3038091A40390911A
:10143000A5030E94422270937703609376031F9165
:101440000F91FF90EF90DF90CF90BF90AF909F9063
:101450008F907F906F900895AF92BF92CF92DF925E
:10146000EF92FF920F931F93A22EC02EB62EBB0CAD
:10147000BB0CB00E641708F4462FD42EDD0CDD0C27
:10148000DC0C11C084EA94E06A2D70E04C2D50E031
:101490002CE030E003E010E0B1E0EB2EF12C0E94F4
:1014A000151584E0C80ECD1468F311C084EA94E0E9
:1014B0006A2D70E04D2D50E02CE030E003E010E0AC
:1014C000A1E0EA2EF12C0E94861484E0D80EDB14F1
:1014D00068F31F910F91FF90EF90DF90CF90BF9036
:1014E000AF900895AF92BF92CF92DF92EF92FF92AA
:1014F0000F931F93A22ED02EB62EBB0CBB0CB00E9A
:10150000641708F4462F440F440FCB2CC41A11C0A3
:1015100084EA94E06A2D70E04D2D50E02CE030E03C
:1015200003E010E0F1E0EF2EF12C0E94861484E03D
:10153000D80EDC1468F311C084EA94E06A2D70E0E0
:101540004C2D50E02CE030E003E010E0E1E0EE2E26
:10155000F12C0E94151584E0C80ECB1468F31F917E
:101560000F91FF90EF90DF90CF90BF90AF900895D4
:10157000AF92BF92CF92DF92EF92FF920F931F93A1
:1015800080917503882391F184EA94E061E00E94E0
:10159000051784EA94E060E070E041E050E00E94CA
:1015A000111784EA94E060E070E040E050E00E94AF
:1015B000FF1680917503813029F484EA94E060E09D
:1015C00071E09DD480917503823029F484EA94E01F
:1015D0006FE071E094D480917503833009F09AC074
:1015E00084EA94E06EE171E08AD494C084EA94E0E5
:1015F00061E00E94051784EA94E061E070E00E94D7
:101600000B1784EA94E068E070E040E050E00E944C
:10161000FF1640917A0350917B0360917C03709197
:101620007D0384EA94E021E030E04BD584EA94E045
:101630006DE270E040E050E00E94FF1660919A0376
:1016400070919B0380919C0390919D030E94422284
:101650009B01AC0184EA94E0B9014AE050E03DD43A
:10166000E090A203F090A3030091A4031091A503BE
:10167000C801B70120E030E040E050E00E9425239F
:10168000882384F0C801B7010E9447229B01AC0166
:1016900081E066E0422F28E400E024DF81E066E09C
:1016A00040E020C0C801B70120E030E040E050E059
:1016B0000E94D6218823CCF481E066E040E028E453
:1016C00000E010DF6091A2037091A3038091A40356
:1016D0009091A50390580E9447229B01AC0181E0A4
:1016E00066E0422F28E408E1B7DE84EA94E064E48F
:1016F00070E04AE150E027E430E007E110E0A4E4C4
:10170000EA2EF12CF4E1CF2ED12CE1E0AE2EB12C5B
:101710000E94651584EA94E060E070E048E050E0E3
:1017200026E430E008E010E0B1E0EB2EF12C0E945E
:10173000DA1384EA94E063E00E94051784EA94E0F7
:1017400061E070E00E940B1784EA94E060E070E0D2
:101750004CE050E00E94FF16609192037091930359
:1017600080919403909195030E9442229B01AC01C9
:1017700084EA94E0B9014AE050E0AFD3609192036B
:1017800070919303809194039091950320E030E051
:101790004AE754E40E94D621882384F484EA94E042
:1017A00061E00E94051784EA94E061E070E00E9425
:1017B0000B1784EA94E06BE071E0A2D284EA94E033
:1017C00060E070E046E250E026E430E006E210E03F
:1017D000A1E0EA2EF12CEED784EA94E061E00E94C9
:1017E000051784EA94E061E070E00E940B1784EA38
:1017F00094E060E070E048E250E00E94FF16409103
:101800007E0350917F03609180037091810384EA8D
:1018100094E021E030E055D484EA94E06BE170E09C
:1018200048E250E00E94FF1680914101813029F486
:1018300084EA94E06EE00E94A41684EA94E065E2F3
:1018400070E048E250E00E94FF1660919E037091A4
:101850009F038091A0039091A1030E9442229B01CB
:10186000AC0184EA94E0B9014AE050E036D384EA5E
:1018700094E00E94CB171F910F91FF90EF90DF90A3
:10188000CF90BF90AF900895EF92FF920F931F9368
:101890008FEA93E0CDD680917503882321F081E013
:1018A0008093700302C010927003809171038823AB
:1018B000B1F5C3D9E0909203F090930300919403A3
:1018C00010919503C801B70120919A0330919B03B1
:1018D00040919C0350919D030E942523181644F4C7
:1018E000E0929A03F0929B0300939C0310939D0354
:1018F000C801B70120919E0330919F034091A0033E
:101900005091A1030E94D621882344F4E0929E03C3
:10191000F0929F030093A0031093A10310D984EACF
:1019200094E00E945C1780917103882311F025DAFE
:1019300001C01EDE1F910F91FF90EF9008950F934D
:101940001F938FDA86E894E00E94DF1C8CE794E016
:101950000E94DF1C80E994E00E94DF1C8AE994E089
:101960000E94DF1C04DAEED989E594E063E00E946E
:101970000C1C49D90FEA13E0C80144EF51E060E0C4
:1019800070E02BE437E0B9D6C8014CE454E060E0E5
:1019900070E021EC38E0B1D680E794E00E94EF1CC3
:1019A0001F910F910895823000F5E82FF0E0EE0FBF
:1019B000FF1FE353FB4F71836083882319F081304D
:1019C000A1F408C0809169008C7F842B809369000A
:1019D000E89A089580916900440F551F440F551FE0
:1019E000837F842B80936900E99A0895823080F484
:1019F000882319F0813021F402C0E89801C0E998E9
:101A0000E82FF0E0EE0FFF1FE353FB4F118210822F
:101A100008951F920F920FB60F9211242F933F93A8
:101A20004F935F936F937F938F939F93AF93BF93E6
:101A3000EF93FF938091CD049091CE04892B29F0F0
:101A4000E091CD04F091CE040995FF91EF91BF9103
:101A5000AF919F918F917F916F915F914F913F9146
:101A60002F910F900FBE0F901F9018951F920F92FD
:101A70000FB60F9211242F933F934F935F936F9361
:101A80007F938F939F93AF93BF93EF93FF93809137
:101A9000CF049091D004892B29F0E091CF04F091EC
:101AA000D0040995FF91EF91BF91AF919F918F91D4
:101AB0007F916F915F914F913F912F910F900FBE4A
:101AC0000F901F901895CF93DF93482F50E0CA01D5
:101AD0008F5B9E4FFC013491435D5E4FFA01849110
:101AE000882369F190E0880F991FFC01E15FFE4FA8
:101AF000A591B491FC01E75EFE4FC591D491662398
:101B000051F42FB7F8948C91932F909589238C934F
:101B1000888189230BC0623061F42FB7F8948C91CF
:101B2000932F909589238C938881832B88832FBF53
:101B300006C09FB7F8948C91832B8C939FBFDF9145
:101B4000CF910895482F50E0CA018B5A9E4FFC0157
:101B50002491CA018F5B9E4FFC019491435D5E4FBF
:101B6000FA013491332309F440C0222351F1233088
:101B700071F0243028F42130A1F0223011F514C086
:101B80002630B1F02730C1F02430D9F404C0809160
:101B900080008F7703C0809180008F7D80938000CC
:101BA00010C084B58F7702C084B58F7D84BD09C015
:101BB0008091B0008F7703C08091B0008F7D8093BB
:101BC000B000E32FF0E0EE0FFF1FE75EFE4FA591A0
:101BD000B4912FB7F894662321F48C9190958923C2
:101BE00002C08C91892B8C932FBF0895682F70E0D1
:101BF000CB018B5A9E4FFC012491CB018F5B9E4FF2
:101C0000FC014491635D7E4FFB019491992319F48B
:101C100020E030E03CC0222351F1233071F0243029
:101C200028F42130A1F0223011F514C02630B1F093
:101C30002730C1F02430D9F404C0809180008F7720
:101C400003C0809180008F7D8093800010C084B598
:101C50008F7702C084B58F7D84BD09C08091B000AC
:101C60008F7703C08091B0008F7D8093B000892F63
:101C700090E0880F991F8D5D9E4FFC01A591B49156
:101C80008C9120E030E0842311F021E030E0C901A4
:101C90000895CF93DF930E94100551DEC0E0D0E09D
:101CA000F3DD2097E9F30E940000FACFCF92DF9294
:101CB000EF92FF920F931F93CF93DF937C016B0101
:101CC0008A01C0E0D0E00FC0D6016D916D01D7014F
:101CD000ED91FC910190F081E02DC7010995C80FAD
:101CE000D91F015010400115110571F7CE01DF9188
:101CF000CF911F910F91FF90EF90DF90CF900895BB
:101D0000EF92FF920F931F93CF93DF937C018B0190
:101D1000C0E0D0E0F8010F5F1F4F6491662359F0D7
:101D2000D701ED91FC910190F081E02DC70109955B
:101D3000C80FD91FEFCFCE01DF91CF911F910F9127
:101D4000FF90EF900895CF93DF93EC01611571053B
:101D500019F420E030E00FC0DB010D900020E9F71E
:101D60001197A61BB70BE881F9810280F381E02D62
:101D7000AD0109959C01C901DF91CF9108954F9262
:101D80005F927F928F929F92AF92BF92CF92DF929B
:101D9000EF92FF920F931F93DF93CF93CDB7DEB7F0
:101DA000A1970FB6F894DEBF0FBECDBF2C01742EE5
:101DB000CB01223008F42AE019A231E2C32ED12C43
:101DC000CC0EDD1E822E9924AA24BB24672D752FEC
:101DD000A50194010E94292579018A01C801B70152
:101DE000A50194010E94F724472D461B0894C108C1
:101DF000D1084A3014F4405D01C0495CF6014083CB
:101E0000E114F1040105110521F07E2C5F2DC801BC
:101E1000DDCFC201B60197DFA1960FB6F894DEBF01
:101E20000FBECDBFCF91DF911F910F91FF90EF902B
:101E3000DF90CF90BF90AF909F908F907F905F90FA
:101E40004F900895DC012115310541F4ED91FC918D
:101E50000190F081E02D642F0995089590CFCF92E5
:101E6000DF92EF92FF920F931F93CF93DF93EC01DA
:101E70006A017B012115310541F4E881F981019066
:101E8000F081E02D642F09951DC02A303105C9F479
:101E900077FF16C0E881F9810190F081E02D6DE2B5
:101EA00009958C0144275527BA014C195D096E0923
:101EB0007F09CE012AE063DF9801280F391F03C094
:101EC0002AE05DDF9C01C901DF91CF911F910F9145
:101ED000FF90EF90DF90CF900895EF92FF920F93D5
:101EE0001F937B019A010027F7FC0095102FB80182
:101EF000A701B5DF1F910F91FF90EF90089523CFB9
:101F000008957F928F929F92AF92BF92CF92DF926D
:101F1000EF92FF920F931F93CF93DF934C017A01BF
:101F20008B01722ECB01BA01A80197010E94D82320
:101F3000882321F0C4016DE271E021C0C0E0D0E04F
:101F400057016801E894D7F8C601B5012FEF3FEFBC
:101F50004FE75FE70E94D823882351F4C601B501FB
:101F60002FEF3FEF4FE75FE70E94D621181614F0DE
:101F7000C1E0D0E0219731F0C40161E371E0E3DE1C
:101F8000EC0190C0C801B7012FEF3FEF4FE75FE4CE
:101F90000E942523181654F0C801B7012FEF3FEF18
:101FA0004FE75FEC0E94D621882324F4C40165E347
:101FB00071E0E5CFC801B70120E030E040E050E03B
:101FC0000E94D62187FD03C0C0E0D0E00EC0D4013E
:101FD000ED91FC910190F081E02DC4016DE2099535
:101FE000EC0117FB109517F9109520E030E040E068
:101FF0005FE3DD240BC0CA01B90120E030E040E21C
:1020000051E40E94DA219B01AC01D394D71498F3D8
:10201000C801B7010E9472215B016C010E94472236
:102020007B018C01C401B801A7012AE030E00ADF7E
:10203000C80FD91F772031F0C40169E371E083DE56
:10204000C80FD91FC801B7010E9473229B01AC01C0
:10205000C601B5010E94712123C020E030E040E2BA
:1020600051E40E9429237B018C010E9442225B01E2
:102070006C01CC24B7FCC094DC2CC401B601A501D2
:102080002AE030E0ECDEC80FD91FC601B5010E947E
:1020900075229B01AC01C801B7010E9471217A949D
:1020A0007720D9F6CE01DF91CF911F910F91FF904C
:1020B000EF90DF90CF90BF90AF909F908F907F90E8
:1020C00008951FCF0895813041F0813018F082309B
:1020D000D1F409C010926E00089580916F008D7F39
:1020E00080936F000895809170008D7F80937000C1
:1020F00081E08093B0008091B100887F84608093FC
:10210000B1001092B30008951F93182F80914601DB
:10211000811711F09FEF06C0E9E6F1E094918FEF8F
:1021200080934601892FCFDF812F60E00BDD1F9167
:1021300008951F920F920FB60F9211242F933F9381
:102140004F935F936F937F938F939F93AF93BF93BF
:10215000EF93FF938091DF049091E004A091E1045C
:10216000B091E2040097A105B10551F1E091E304BB
:10217000F091E40480819091E50489278083809127
:10218000DF049091E004A091E104B091E2041816FC
:1021900019061A061B06BCF48091DF049091E00436
:1021A000A091E104B091E2040197A109B1098093E3
:1021B000DF049093E004A093E104B093E20403C031
:1021C00080914601A1DFFF91EF91BF91AF919F9167
:1021D0008F917F916F915F914F913F912F910F90D0
:1021E0000FBE0F901F9018952F923F925F926F92A3
:1021F0007F928F929F92AF92BF92CF92DF92EF9297
:10220000FF920F931F93DF93CF9300D000D0CDB7F1
:10221000DEB7A82F1B0129833A834B835C8380910F
:1022200046018A1721F4E9E6F1E0549082C08F3F1D
:1022300009F0D9C1A0934601E9E6F1E054902FEFEF
:10224000521609F4D0C181E0581639F192E05916BE
:1022500009F449C0552009F06CC014BC15BC84B504
:10226000826084BD85B5816085BD2A2F30E0F9018B
:10227000E35DFE4FE491F0E0EE0FFF1FE75EFE4FDF
:10228000859194919093D6048093D5042F5B3E4F13
:10229000F90184918093D7044EC01092800010926F
:1022A000810080918100886080938100809181000D
:1022B0008160809381002A2F30E0F901E35DFE4FB9
:1022C000E491F0E0EE0FFF1FE75EFE4F85919491E1
:1022D0009093DD048093DC042F5B3E4FF9018491E1
:1022E0008093DE0428C01092B0001092B10080915B
:1022F000B00082608093B0008091B10081608093D3
:10230000B1002A2F30E0F901E35DFE4FE491F0E0E7
:10231000EE0FFF1FE75EFE4F859194919093E404CA
:102320008093E3042F5B3E4FF90184918093E50491
:1023300002C057FC58C18A2F61E0C5DB552021F04F
:10234000F2E05F1609F0BEC031018824992460E0F4
:1023500072E18AE790E0A40193010E944B255901A4
:102360006A01860175010894E108F1080109110963
:102370002FEFE216F1040105110509F008F499C0E8
:1023800060E472E48FE090E0A40193010E944B2589
:1023900079018A010894E108F1080109110982E034
:1023A0005816C1F49FEFE916F1040105110509F073
:1023B00008F484C060E970ED83E090E0A40193012B
:1023C0000E944B2579018A010894E108F10801096E
:1023D000110983E0AFEFEA16F1040105110509F0D8
:1023E00008F468C068E478EE81E090E0A40193010D
:1023F0000E944B2579018A010894E108F10801093E
:102400001109552011F483E01DC0B2E05B1611F0F4
:1024100084E018C0EFEFEE16F1040105110509F094
:1024200008F4DFC064E274EF80E090E0A40193015F
:102430000E944B2579018A010894E108F1080109FD
:10244000110985E0FFEFEF16F1040105110591F187
:1024500088F162E17AE780E090E0A40193010E94B4
:102460004B2579018A010894E108F1080109110955
:10247000552011F086E001C084E02FEFE216F10450
:1024800001051105B9F0B0F0C601B50120E034E056
:1024900040E050E00E944B2579018A010894E10850
:1024A000F10801091109552011F087E008C085E005
:1024B00003C081E0552019F485BD3AC082E08093C5
:1024C000B10036C05101CC24DD2460E072E18AE71E
:1024D00090E0A60195010E944B2579018A0108949C
:1024E000E108F1080109110980E0E81680E0F8062A
:1024F00081E0080780E0180710F491E010C068E45C
:1025000078EE81E090E0A60195010E944B257901CB
:102510008A010894E108F1080109110993E0A1E09A
:102520005A1631F480918100887F982B9093810016
:1025300089819A81AB81BC810097A105B10529F4FD
:102540008FEF9FEFAFEFBFEF13C0220C331CB10131
:1025500080E090E029813A814B815C810E94F724E0
:1025600028EE33E040E050E00E942925C901DA015D
:10257000E1E05E16A1F0F2E05F1619F1552099F541
:10258000E7BC8093D1049093D204A093D304B0937A
:10259000D40480916E00826080936E0024C0F0921B
:1025A0008900E09288008093D8049093D904A09386
:1025B000DA04B093DB0480916F00826080936F0037
:1025C00012C0E092B3008093DF049093E004A093E4
:1025D000E104B093E2048091700082608093700007
:1025E00002C084E06CCF0F900F900F900F90CF91AE
:1025F000DF911F910F91FF90EF90DF90CF90BF90F0
:10260000AF909F908F907F906F905F903F902F90B2
:102610000895772767FD7095FB0124E0EE0FFF1FFB
:102620002A95E1F7E60FF71FE80FF91F10820895CA
:10263000EF92FF920F931F93CF93DF937C018C0156
:10264000C0E0D0E0F8018081882361F0CE0134E061
:10265000880F991F3A95E1F78C0F9D1F8E0D9F1DD6
:102660000E94BE1E21960F5E1F4FCA30D10551F742
:10267000DF91CF911F910F91FF90EF900895FF92FE
:102680000F931F93CF93DF93DC01E9019801FC01C5
:10269000FF248081882341F0F39471968AE0F81634
:1026A000C1F7FF24FA9422C08F2D992787FD9095BA
:1026B0008C01E4E0000F111FEA95E1F7080F191FE4
:1026C0000A0F1B1F81E0F8018083418352836383DB
:1026D000748336832583D287C1870E94A904F801B9
:1026E0006387748785879687108A17868F2DDF9179
:1026F000CF911F910F91FF9008950F931F930FEFAC
:102700001FEFBDDF1F910F9108950F931F93CF937C
:10271000DF93EC0100E010E0CE01800F911F0E94DA
:10272000BB1E0F5E1F4F0A3A1105B1F7DF91CF9123
:102730001F910F910895FC0110820895FC01808182
:10274000108208950F931F938C0164E670E080E07F
:1027500090E00E94B70483B7817F846083BF81E0EB
:10276000F801808383B7816083BF83B7816083BFB3
:10277000889583B78E7F83BF83B78E7F83BF1F917A
:102780000F910895FC017583648371876087578377
:10279000468353874287158A1586148617861686C0
:1027A00021E0248B8FEF9FEF938B828B918B808B1B
:1027B000268B08952F923F924F925F926F927F9255
:1027C0008F929F92AF92BF92CF92DF92EF92FF9241
:1027D0000F931F93DF93CF9300D000D0CDB7DEB718
:1027E0003C017C836B836A015901FA82E9822224CD
:1027F00033249801241B350B37FF03C030952195F6
:102800003F4FC5014B815C81841B950B97FF03C033
:10281000909581959F4F821793075CF481E0282E55
:10282000312CC601CB80DC809C838B83C801850161
:102830005C018B819C81A816B90644F4C501AB806C
:10284000BC809C838B83C80186016C012501AB8110
:10285000BC814A1A5B0A7801EC18FD08F7FE04C037
:10286000F094E194F108F394C016D10624F0882482
:102870008A94982C03C0B1E08B2E912CC20162E0A7
:1028800070E00E9416258B0125C0D301ED91FC91CB
:102890002114310441F00480F581E02DC301B6011B
:1028A0004B815C8107C00480F581E02DC3016B8101
:1028B0007C81A60129813A8109950E191F0917FF0C
:1028C00004C0C80CD91C040D151DEB81FC81319688
:1028D000FC83EB834B815C81A416B506B4F60F90A4
:1028E0000F900F900F90CF91DF911F910F91FF905C
:1028F000EF90DF90CF90BF90AF909F908F907F90A0
:102900006F905F904F903F902F9008954F925F92FD
:102910006F927F928F929F92AF92BF92CF92DF92EF
:10292000EF92FF920F931F936C015B014A013901F3
:102930002801DC01ED91FC910484F585E02D8701EF
:102940000995D601ED91FC91A40141505040440DF0
:10295000551D0484F585E02DC601B5019301099547
:10296000D601ED91FC910284F385E02DC601B501FD
:10297000A40192010995D601ED91FC910894A1085A
:10298000B108A60CB71C0284F385E02DC601B50181
:10299000A401920109951F910F91FF90EF90DF9094
:1029A000CF90BF90AF909F908F907F906F905F90EF
:1029B0004F900895CF92DF92EF92FF920F931F9363
:1029C000DC016B017801ED91FC918A01015010400E
:1029D000020F131F0084F185E02D960109951F91C8
:1029E0000F91FF90EF90DF90CF900895CF92DF92FC
:1029F000EF92FF920F931F93DC016A01C9017801E6
:102A0000ED91FC9111979B0121503040280F391F07
:102A10000084F185E02DCD01860109951F910F916C
:102A2000FF90EF90DF90CF9008956F927F928F92FA
:102A30009F92AF92BF92CF92DF92EF92FF920F934D
:102A40001F93CF93DF935C013A0169014801EB01C9
:102A5000C60ED71E0DC0D501ED91FC910284F38501
:102A6000E02DC501BE01A3019401870109952196BE
:102A7000CC15DD0584F3DF91CF911F910F91FF906D
:102A8000EF90DF90CF90BF90AF909F908F907F900E
:102A90006F900895EF92FF920F931F93FC017B01BB
:102AA000A081B181208531850285138550960D90D6
:102AB000BC91A02D60E070E040E050E0FD01099580
:102AC0001F910F91FF90EF9008952F923F924F9298
:102AD0005F926F927F928F929F92AF92BF92CF92AE
:102AE000DF92EF92FF920F931F93DF93CF9300D06B
:102AF00000D0CDB7DEB74C017C836B835A8349830A
:102B0000390128011701DC01ED91FC910084F18568
:102B1000E02D75010995D401ED91FC910084F185BA
:102B2000E02DC401B301A201910186010995D401F0
:102B3000ED91FC910084F185E02DC401B101A60165
:102B40002B813C8109811A8109950F900F900F907C
:102B50000F90CF91DF911F910F91FF90EF90DF9039
:102B6000CF90BF90AF909F908F907F906F905F902D
:102B70004F903F902F9008952F923F924F925F92E7
:102B80006F927F928F929F92AF92BF92CF92DF927D
:102B9000EF92FF920F931F93DF93CF93CDB7DEB7E2
:102BA0002F970FB6F894DEBF0FBECDBF5C015E83DA
:102BB0004D8318870F83FA86E986CB86DC01189649
:102BC0008D919C911997681779070CF0A4C01A96FB
:102BD0008D919C911B97481759070CF09CC0EC2DC8
:102BE000F0E0FF87EE87CF01880F991F880F991FAC
:102BF0008E0F9F1F860F971F181619060CF08BC09B
:102C0000CF01F3E0880F991FFA95E1F7840F951F24
:102C1000181619060CF07FC085E0289FA00111242A
:102C20005A8349832B011B011C825C81553011F4AE
:102C300080E005C0E981FA81E659FE4F84912C8637
:102C40003D866D807E8043011B82C82EDD2480FF7F
:102C50001CC0D501ED91FC91BB85B13049F40480D5
:102C6000F581E02DC501B201A3012F81388522C075
:102C70000088F189E02DC5016C857D85A4012E8534
:102C80003F858901EF80F88423C0E985FA852F818B
:102C90003885E217F307E9F0D501ED91FC91BB858A
:102CA000B13051F40480F581E02DC501B201A301DA
:102CB00029853A8509950DC00088F189E02DC50167
:102CC0006C857D85A4012E853F858901E984FA8480
:102CD0000995EB81EF5FEB832E853F85820E931E76
:102CE0000894611C711CE83021F0D594C7948C2D98
:102CF000ACCF3C813F5F3C834E855F85240E351E03
:102D00000894411C511C89819A8101969A83898378
:102D1000363009F08ACF2F960FB6F894DEBF0FBE7B
:102D2000CDBFCF91DF911F910F91FF90EF90DF907A
:102D3000CF90BF90AF909F908F907F906F905F905B
:102D40004F903F902F900895CF92EF92FF920F9364
:102D50001F93CF93DF93EC01262F6A3061F42C8907
:102D600030E013E0220F331F1A95E1F78E859F851F
:102D7000820F931F36C06D30C1F16C857D854E8505
:102D80005F8508891989EA88FB88CC88F5DE2C895B
:102D900086E0289FB00111248C859D85680F791FDE
:102DA0007D876C878E89882301F1422F50E08AEF5E
:102DB0009FEF9C01429FC001439F900D529F900D39
:102DC000112428853985820F931F861797076CF485
:102DD000B3E0440F551FBA95E1F78E859F85840FA8
:102DE000951F9F878E871D861C8681E090E0DF916E
:102DF000CF911F910F91FF90EF90CF900895FC011C
:102E000075876487578746870895FC01662309F410
:102E100061E0648B0895FC01718B608B738B628B16
:102E20000895FC01718B608B538B428B089508953C
:102E30006435710508F03FC057FD3DC04033510572
:102E4000D4F5DA0183E0B595A7958A95E1F7477047
:102E50005070232BC1F084E590E0A89FF001A99F5A
:102E6000F00DB89FF00D1124E60FF71FE95BFE4F40
:102E700081E090E002C0880F991F4A95E2F7208117
:102E8000282B2083089584E590E0A89FF001A99F56
:102E9000F00DB89FF00D1124E60FF71FE95BFE4F10
:102EA00081E090E002C0880F991F4A95E2F7809573
:102EB0002081282320830895CF93DF93DC0188EFBE
:102EC00091E0E7E4F1E0EF019C01199221503040DC
:102ED000E1F71D961C921E921C971F961C921E9243
:102EE0001E97DF91CF9108951F93CF93DF93EC014D
:102EF000162F898D60E00E94A20D8B8D18161CF490
:102F000060E00E94A20D30E840E050E0612F70E0E8
:102F1000EE8DFF8D90818DA1809589238083832FF5
:102F200090E086239723EC8DFD8D2CA1892B21F039
:102F30008081822B808304C0808120952823208378
:102F4000EE8DFF8D80819DA1892B808336954F5F0B
:102F50005F4F48305105E1F68B8D18161CF461E087
:102F60000E94A20DDF91CF911F9108951F93CF93DF
:102F7000DF93EC01162F67FD1FE7CE0161E2B4DF9E
:102F80001068CE01612FB0DFCE0160E2ADDFDF91CE
:102F9000CF911F910895CF92DF92FF920F931F93CD
:102FA000CF93DF93EC01FF2400E010E06F2D60640D
:102FB000CE019ADFCE0160E897DF898D61E00E9443
:102FC000A20D8B8D18161CF460E00E94A20DD80192
:102FD000A95BBE4F60E08C9130E840E050E0C82E25
:102FE000DD24EE8DFF8D90818DA1809589238083D6
:102FF000832F90E08C219D21EC8DFD8D2CA1892BC0
:1030000021F08081822B808304C080812095282339
:103010002083EE8DFF8D80819DA1892B8083369545
:103020004F5F5F4F48305105E1F66F5F1196643591
:1030300091F68B8D18161CF461E00E94A20DF3949A
:103040000C5A1F4F86E0F81609F0B0CFCE0160E4AD
:103050004BDFDF91CF911F910F91FF90DF90CF90C9
:1030600008951F93CF93DF93EC01162F8F8961E0B2
:103070000E94630D888D61E00E94630D898D61E07F
:103080000E94630D8A8D18161CF461E00E94630D86
:103090008B8D18161CF461E00E94630D8A8D181642
:1030A00084F460E00E94A20D88E893E120E931E019
:1030B000F9013197F1F70197D9F78A8D61E00E9404
:1030C000A20DE88D2E2F332727FD3095F901E35D02
:1030D000FE4FE491F0E0EE0FFF1FE75EFE4F85919B
:1030E00094919F8F8E8F2F5B3E4FF90184918DA31A
:1030F000EF892E2F332727FD3095F901E35DFE4F31
:10310000E491F0E0EE0FFF1FE75EFE4F8591949192
:103110009D8F8C8F2F5B3E4FF90184918CA3EB8D9B
:103120002E2F332727FD3095F901E35DFE4FE49103
:10313000F0E0EE0FFF1FE75EFE4F8591949199A39B
:1031400088A32F5B3E4FF90184918EA3E98D2E2F2A
:10315000332727FD3095F901E35DFE4FE491F0E060
:10316000EE0FFF1FE75EFE4F859194919BA38AA30C
:103170002F5B3E4FF90184918FA3CE0161E2B4DE53
:10318000CE0164E1B1DE17FD1FE71068CE01612FAB
:10319000ABDECE0160E2A8DECE016CE0A5DECE01A2
:1031A000FADEDF91CF911F910895EF920F93FC010A
:1031B0001382128283E493E091838083478B608F34
:1031C000218FE28E038FCF0164E570E040E350E091
:1031D000D9DA0F91EF9008950895EF92FF920F932F
:1031E0001F93162F042F8CE2E82E85E0F82EC701DE
:1031F00067E770E0E5D4C701612F63D5C701602F91
:1032000060D5C7019FD51F910F91FF90EF90089552
:10321000CF92DF92EF92FF920F931F93162F9CE2B3
:10322000E92E95E0F92EC70167E770E0C9D4C70120
:10323000612F47D5C70186D5C70167E770E0C0D4C5
:10324000C70167E770E042E050E08AD5C701CBD400
:10325000182F00E0C701C7D46C01C70173D50C2932
:103260001D29C8011F910F91FF90EF90DF90CF9023
:1032700008950F931F938C0164EF4EE2AEDF80E25E
:103280009EE40197F1F7C80166EFC2DF1F910F912D
:103290000895CF92DF92EF92FF920F931F936C01EC
:1032A000E8DFA0E0B0E0F6012589368940E050E093
:1032B000821B930BA40BB50B2389348940E050E0AB
:1032C000BC01CD010E94F7247B018C01FFE0159524
:1032D0000795F794E794FA95D1F7D6011D966D916D
:1032E0007C911E97882777FD8095982FEBE0660FDD
:1032F000771F881F991FEA95D1F71F962D913C9152
:103300005097442737FD4095542F2E0D3F1D401FE9
:10331000511F0E944B2588E090E0A0E0B0E0E80E4D
:10332000F91E0A1F1B1F2E0D3F1D401F511F64E079
:1033300055954795379527956A95D1F7CA01B901F3
:103340000E94752220E030E040E251E40E94DA2140
:103350001F910F91FF90EF90DF90CF900895EF9223
:10336000FF921F93162FACE2EA2EA5E0FA2EC701BA
:1033700067E770E025D4C701612FA3D4C701E2D469
:10338000C70167E770E01CD4C70167E770E041E060
:1033900050E0E6D4C70127D4182FC701D3D4812F1A
:1033A0001F91FF90EF900895EF92FF920F931F935C
:1033B000CF93DF93EC0148814295440F440F407C4A
:1033C0004C5C64EF0ADF8881882319F480E29EE474
:1033D00009C0813019F480E09DE704C0823029F4EF
:1033E00080EC9AED0197F1F709C084E091E020E9C3
:1033F00031E0F9013197F1F70197D9F7CE0166EF86
:1034000007DF7C0100E010E0102F0F2DFE2CEE24D2
:10341000CE0168EFA4DF282F30E040E050E02E29F5
:103420003F29402B512B688188E090E0861B910951
:1034300004C056954795379527958A95D2F7B901D7
:10344000CA01DF91CF911F910F91FF90EF900895E6
:103450003F924F925F926F927F928F929F92AF9224
:10346000BF92CF92DF92EF92FF920F931F93DF9361
:10347000CF93CDB7DEB728970FB6F894DEBF0FBE57
:10348000CDBF4C01F6DE7C01C4018EDF6D837E83EF
:103490008F83988700E010E0D40155968D919C9120
:1034A0005697A0E0B0E0E81AF90A0A0B1B0BF401EA
:1034B0002389348940E050E0C801B7010E94F72415
:1034C0005B016C01FFE0D594C794B794A794FA957B
:1034D000D1F7D4011F96ED90FC9050970027F7FC90
:1034E0000095102FEA0CFB1C0C1D1D1DC801B70117
:1034F00022E030E040E050E00E944B25F401658579
:103500007685882777FD8095982FEBE0660F771FEB
:10351000881F991FEA95D1F7621B730B840B950BDB
:1035200020E630EF4FEF5FEFA20EB31EC41ED51E94
:10353000A80197010E944B25A20EB31EC41ED51EE2
:10354000C601B501A60195010E94F7242B013C019B
:103550001CE075946794579447941A95D1F7D40159
:103560003C9015962D913C911697442737FD409538
:10357000542FC601B5010E94F7247B018C01BDE0E8
:1035800015950795F794E794BA95D1F722E030E0C6
:1035900040E050E0E20EF31E041F151FD401179601
:1035A0002D913C911897442737FD4095542FC30126
:1035B000B2010E94F724BC01992777FD9095892FCD
:1035C000E60EF71E081F191FF2E015950795F794F0
:1035D000E794FA95D1F720E030E840E050E0E20EC1
:1035E000F31E041F151FD40151962D913C91529743
:1035F00040E050E0C801B7010E94F7249B01AC01F4
:10360000EFE05695479537952795EA95D1F72983A9
:103610003A834B835C83D40113962D913C9114978C
:10362000442737FD4095542FC601B5010E94F72469
:103630007B018C017BE015950795F794E7947A95CB
:10364000D1F7F40181819281AA2797FDA095BA2F25
:1036500062E0880F991FAA1FBB1F6A95D1F7E80E79
:10366000F91E0A1F1B1F21853285442737FD40950F
:10367000542FC301B2010E94F7245BE09595879512
:10368000779567955A95D1F7E60EF71E081F191F13
:10369000032C04C0EE0CFF1C001F111F0A94D2F76C
:1036A00022E030E040E050E0E20EF31E041F151F60
:1036B000C801B70124E030E040E050E00E944B2513
:1036C0008D819E81AF81B885821B930BA40BB50BB6
:1036D0008D839E83AF83B88720E533EC40E050E0D4
:1036E00004C056954795379527953A94D2F7BC0173
:1036F000CD010E94F72497FD0FC0660F771F881F2A
:10370000991F29813A814B815C810E942925C90139
:10371000DA015C016D010CC029813A814B815C8129
:103720000E94292559016A01AA0CBB1CCC1CDD1C76
:103730005527D7FC5A954D2D3C2D2B2DCA01B9018B
:103740000E94F7242EED3BE040E050E00E94F72479
:103750007B018C01C601B50123E433EE4FEF5FEF2F
:103760000E94F7249B01AC019A01552737FD509523
:10377000452F2153314F4F4F5F4F78011127F7FCF1
:103780001095012F2E0D3F1D401F511F14E0559520
:103790004795379527951A95D1F72A0D3B1D4C1D56
:1037A0005D1DB901CA0128960FB6F894DEBF0FBEA1
:1037B000CDBFCF91DF911F910F91FF90EF90DF90E0
:1037C000CF90BF90AF909F908F907F906F905F90C1
:1037D0004F903F900895EF92FF920F931F937A01BD
:1037E0008B0136DE82D6A8019701E4D521E03EEDBB
:1037F00042E45EE391D79B01AC0160E070E080E8B9
:103800009FE36FD520E03AE24DE257E422D71F91C3
:103810000F91FF90EF900895CF93DF93EC01643008
:1038200008F063E068838CE295E09CD2CE0160ED05
:1038300096DD853511F080E037C0CE016AEAE8DC1C
:103840009A838983CE016CEAE3DC9C838B83CE016F
:103850006EEADEDC9E838D83CE0160EBD9DC9A8B31
:10386000898BCE0162EBD4DC9C8B8B8BCE0164EB1D
:10387000CFDC9E8B8D8BCE0166EBCADC98878F8365
:10388000CE0168EBC5DC9A878987CE016AEBC0DC84
:103890009C878B87CE016CEBBBDC9E878D87CE012E
:1038A0006EEBB6DC988B8F87DF91CF910895FC018A
:1038B00010821182778366830895FC0180850895C4
:1038C000FC019185992339F08181882321F481E0DD
:1038D0008183892F089580E00895FC0181858823E4
:1038E00001F408950F931F93CF93DF93062F862F34
:1038F0000E94F60D182FC0E0D0E061E070E080E09B
:1039000090E00E94B704802F0E94F60D811711F0FD
:10391000C0E0D0E02196182FCA30D10574F3811190
:1039200081E0DF91CF911F910F910895EF92FF9267
:103930000F931F93CF93DF93EC010E94A9047B01A7
:103940008C016E817F81CE01CDDF30E0882309F4C8
:1039500031E08881381741F0332329F0EA82FB8275
:103960000C831D8301C019821986188620E08A8184
:103970009B81AC81BD81E81AF90A0A0B1B0B88EE0A
:10398000E81683E0F80680E0080780E0180708F0F2
:1039900021E0332329F0222351F081E0898707C0F9
:1039A0008881882321F0222311F481E088873883DD
:1039B000DF91CF911F910F91FF90EF9008950F939A
:1039C0001F938C01FC01868160E00E94630DF80169
:1039D000868161E00E94A20D1F910F910895EF92E0
:1039E000FF920F931F93CF93DF93EC011B821A82F8
:1039F0001D821C8280E090E0A0E0B0E08E839F8377
:103A0000A887B98740E050E020E030E07C018D01DC
:103A10000CC0EA85FB85E20FF31FE082F18202838E
:103A200013834F5F5F4F2C5F3F4F88819981481709
:103A300059077CF3DF91CF911F910F91FF90EF9089
:103A40000895AF92BF92CF92DF92EF92FF920F93C1
:103A50001F93CF93DF93EC015A016B01EC80FD8043
:103A6000C701880F991F880F991F0A851B85080FAA
:103A7000191F6E817F8188859985F80120813181A8
:103A8000428153812ED46E837F8388879987F80182
:103A9000A082B182C282D3826E817F81888599851E
:103AA000A60195011FD46E837F8388879987089428
:103AB000E11CF11CFD82EC8288819981E816F906EF
:103AC00011F41D821C822A813B81888199812817EB
:103AD000390724F42F5F3F4F3B832A83DF91CF9137
:103AE0001F910F91FF90EF90DF90CF90BF90AF901C
:103AF0000895CF93DF93EC012A813B812115310595
:103B000029F4E0E070E080E060E00FC0B9018827B0
:103B100077FD8095982FE9D49B01AC016E817F8160
:103B20008885998547D4E62F692F2E2F372F482F68
:103B3000562FB901CA01DF91CF910895FC0182850A
:103B400093850C940904EF92FF920F931F93CF93E8
:103B5000DF93EC01CB0179836883880F991F880F6D
:103B6000991F0E945F038A879B871B821A821D828E
:103B70001C8280E090E0A0E0B0E08E839F83A88765
:103B8000B98740E050E020E030E07C018D010CC0BE
:103B9000EA85FB85E20FF31FE082F1820283138343
:103BA0004F5F5F4F2C5F3F4F8881998148175907BE
:103BB0007CF3DF91CF911F910F91FF90EF900895CB
:103BC00081E080932B0560930805109229051092DF
:103BD0002A0508952091070530E080910605281BED
:103BE0003109C901089540910605809107054817DC
:103BF00018F02FEF3FEF0AC0E42FF0E0EA51FB4F3F
:103C00008081282F30E04F5F40930605C901089559
:103C1000E091060580910705E81718F0EFEFFFEF38
:103C200006C0F0E0EA51FB4F8081E82FF0E0CF01C1
:103C30000895089510922F0510922E0588EE93E0B6
:103C4000A0E0B0E08093300590933105A093320559
:103C5000B09333058BE593E090932D0580932C056D
:103C60000895CF92DF92EF92FF920F931F93CF931D
:103C7000DF937C016B018A0180912B058823A1F0E1
:103C8000C0E0D0E00DC0D701ED91FC91D601AC0FA2
:103C9000BD1F0190F081E02DC7016C91099521961F
:103CA000C017D10780F303C0CB01642F50D1C801E6
:103CB000DF91CF911F910F91FF90EF90DF90CF9008
:103CC0000895DF93CF930F92CDB7DEB7FC016983E0
:103CD00080912B058823C9F080912A05803238F025
:103CE00081E090E09383828320E030E014C08091F3
:103CF0002905E82FF0E0E75FFA4F998190838F5F05
:103D00008093290580932A0504C0CE01019661E0C5
:103D10001ED121E030E0C9010F90CF91DF910895CD
:103D20000F93062F8091080569E075E040912A0500
:103D300021E0B8D01092290510922A0510922B0587
:103D40000F91089561E0ECCF413208F040E2862FF8
:103D500066EE74E05ED01092060580930705089524
:103D600021E0F2CF10920605109207051092290566
:103D700010922A0598C2FC0110820895EF92FF92DA
:103D80000F931F93CF93DF93EC010E94A9047B0153
:103D90008C018B859C85AD85BE85A8019701281B6C
:103DA000390B4A0B5B0B89819A81AB81BC81281747
:103DB00039074A075B07E0F08881813019F08230CB
:103DC00071F404C0E985FA85099509C060E0888529
:103DD000882309F461E068878F810E94A20DEB8639
:103DE000FC860D871E878F8598890196988B8F8713
:103DF0002D813E8137FD06C08F85988982179307F4
:103E00000CF01882DF91CF911F910F91FF90EF90EE
:103E10000895382F413210F040E042C080913805BB
:103E20008823E1F791E09093380520933A058FEFCE
:103E30008093A505109260054150409361054F5F46
:103E40009093390580913905330F832B8093390581
:103E500080913B05813041F410923B0580913905FA
:103E60008093BB0085EC01C085EE8093BC008091FF
:103E700038058130E1F380916005841710F440919A
:103E8000600520E030E00AC0FB01E20FF31FD9011A
:103E9000A05CBA4F8C9180832F5F3F4F2417A0F313
:103EA000842F08950F931F93582F122F413210F033
:103EB00081E04AC0809138058823E1F782E0809351
:103EC000380500933A058FEF8093A50510926005A1
:103ED00040936105A0E4B5E0FB0102C081918D93A0
:103EE0008E2F861B8417D0F31092390580913905E7
:103EF000550F852B8093390580913B05813041F426
:103F000010923B05809139058093BB0085EC01C080
:103F100085EE8093BC00112321F08091380582301A
:103F2000E1F38091A5058F3F11F480E00DC08091F1
:103F3000A505803211F482E007C08091A505803389
:103F400011F084E001C083E01F910F910895482F84
:103F5000613210F081E0089580913805843011F0CD
:103F600082E0089560938305A2E6B5E0842F9C016A
:103F7000F90102C081918D938E2F841B8617D0F397
:103F800080E008951F920F920FB60F9211242F9385
:103F90003F934F935F936F937F938F939F93AF93D1
:103FA000BF93EF93FF938091B90090E0887F90706A
:103FB0008036910509F4F2C081369105CCF588323E
:103FC000910509F47BC089329105B4F480319105E3
:103FD00009F46FC0813191053CF4009709F447C1A1
:103FE000089709F04FC165C08831910509F466C092
:103FF000809709F047C182C08034910509F4A4C0BC
:104000008134910544F48033910509F482C0C89746
:1040100009F038C189C08035910509F489C0883517
:10402000910509F496C08834910509F02BC1AEC002
:104030008839910509F413C189399105ECF4883761
:10404000910509F4ABC0893791054CF48836910588
:1040500009F4A4C08037910509F014C19FC08838C5
:10406000910509F4FCC08039910509F49DC08038A0
:10407000910509F007C198C0803B910509F4C6C0BD
:10408000813B91054CF4803A910509F49FC0883A30
:10409000910509F0F7C0BAC0803C910509F4E3C06E
:1040A000883C910509F4DFC0883B910509F0EAC01E
:1040B000C2C0809139058093BB00CFC0909160054C
:1040C00080916105981768F490916005E92FF0E000
:1040D000E05CFA4F80818093BB009F5F9093600506
:1040E000BCC080913A05882309F44BC085ED8093CC
:1040F000BC008091BC0084FDFCCFC2C080E28093F4
:10410000A50585ED8093BC008091BC0084FDFCCFAB
:10411000B7C080E38093A50585ED8093BC008091B6
:10412000BC0084FDFCCFACC088E38093A5059BC098
:10413000809160059091BB00E82FF0E0E05CFA4FC1
:1041400090838F5F809360059091600580916105F9
:1041500082C0809160059091BB00E82FF0E0E05CA8
:10416000FA4F90838F5F8093600580913A05882392
:1041700041F085ED8093BC008091BC0084FDFCCFB4
:104180007FC081E080933B0584EA6EC085ED80931B
:10419000BC008091BC0084FDFCCF72C083E08093A2
:1041A00038051092A40559C08091A405803208F00A
:1041B00056C08091A4059091BB00E82FF0E0EC5729
:1041C000FA4F90838F5F8093A40547C08091A40528
:1041D000803230F4E091A405F0E0EC57FA4F108201
:1041E00085ED8093BC008091BC0084FDFCCF1092D3
:1041F00038056091A405E0913E05F0913F0584E803
:1042000095E070E009951092A4052DC084E080939C
:1042100038051092820510928305E0913C05F091DB
:104220003D05099580918305882329F481E08093D9
:1042300083051092620590918205E92FF0E0EE5916
:10424000FA4F80818093BB009F5F9093820590918D
:10425000820580918305981710F485EC01C085E8EC
:104260008093BC000FC085EC8093BC0009C0109205
:10427000A50585ED8093BC008091BC0084FDFCCF3A
:1042800010923805FF91EF91BF91AF919F918F915F
:104290007F916F915F914F913F912F910F900FBE42
:1042A0000F901F9018951092380581E080933A0581
:1042B00010923B0582E161E00E94A20D83E161E082
:1042C0000E94A20DE9EBF0E080818E7F80838081E7
:1042D0008D7F808388E48093B80085E48093BC0060
:1042E00008955058BB27AA270ED075C166D130F06B
:1042F0006BD120F031F49F3F11F41EF45BC10EF43A
:10430000E095E7FB51C1E92F77D180F3BA17620737
:1043100073078407950718F071F49EF58FC10EF4AA
:10432000E0950B2EBA2FA02D0B01B90190010C01C5
:10433000CA01A0011124FF27591B99F0593F50F4DD
:10434000503E68F11A16F040A22F232F342F442735
:10435000585FF3CF469537952795A795F04053952D
:10436000C9F77EF41F16BA0B620B730B840BBAF0FD
:104370009150A1F0FF0FBB1F661F771F881FC2F768
:104380000EC0BA0F621F731F841F48F4879577957C
:104390006795B795F7959E3F08F0B3CF9395880F33
:1043A00008F09927EE0F979587950895D9D008F4CE
:1043B00081E008950CD00FC107D140F0FED030F05D
:1043C00021F45F3F19F0F0C0511139C1F3C014D18D
:1043D00098F39923C9F35523B1F3951B550BBB27CC
:1043E000AA2762177307840738F09F5F5F4F220F79
:1043F000331F441FAA1FA9F333D00E2E3AF0E0E872
:1044000030D091505040E695001CCAF729D0FE2FBD
:1044100027D0660F771F881FBB1F2617370748074F
:10442000AB07B0E809F0BB0B802DBF01FF27935805
:104430005F4F2AF09E3F510568F0B6C000C15F3F54
:10444000ECF3983EDCF3869577956795B795F795ED
:104450009F5FC9F7880F911D9695879597F90895E5
:10446000E1E0660F771F881FBB1F62177307840781
:10447000BA0720F0621B730B840BBA0BEE1F88F790
:10448000E095089504D06894B111D9C00895BCD0C6
:1044900088F09F5790F0B92F9927B751A0F0D1F02D
:1044A000660F771F881F991F1AF0BA95C9F712C0B7
:1044B000B13081F0C3D0B1E00895C0C0672F782F2C
:1044C0008827B85F39F0B93FCCF386957795679523
:1044D000B395D9F73EF490958095709561957F4F8F
:1044E0008F4F9F4F0895E89409C097FB3EF4909535
:1044F0008095709561957F4F8F4F9F4F9923A9F0BD
:10450000F92F96E9BB279395F6958795779567954B
:10451000B795F111F8CFFAF4BB0F11F460FF1BC08F
:104520006F5F7F4F8F4F9F4F16C0882311F096E922
:1045300011C0772321F09EE8872F762F05C06623D0
:1045400071F096E8862F70E060E02AF09A95660F89
:10455000771F881FDAF7880F9695879597F9089542
:10456000990F0008550FAA0BE0E8FEEF1616170684
:10457000E807F907C0F012161306E407F50798F0EC
:10458000621B730B840B950B39F40A2661F0232B05
:10459000242B252B21F408950A2609F4A140A69581
:1045A0008FEF811D811D089597F99F6780E870E066
:1045B00060E008959FEF80EC089500240A94161699
:1045C000170618060906089500240A941216130601
:1045D000140605060895092E0394000C11F488238F
:1045E00052F0BB0F40F4BF2B11F460FF04C06F5FAB
:1045F0007F4F8F4F9F4F089557FD9058440F551F81
:1046000059F05F3F71F04795880F97FB991F61F054
:104610009F3F79F087950895121613061406551FCB
:10462000F2CF4695F1DF08C0161617061806991F37
:10463000F1CF86957105610508940895E894BB272C
:1046400066277727CB0197F908958ADF08F48FEF63
:1046500008950BD0C0CFB1DF28F0B6DF18F0952356
:1046600009F0A2CFA7CF1124EACFC6DFA0F3959F10
:10467000D1F3950F50E0551F629FF001729FBB2749
:10468000F00DB11D639FAA27F00DB11DAA1F649FF5
:104690006627B00DA11D661F829F2227B00DA11DA8
:1046A000621F739FB00DA11D621F839FA00D611D2E
:1046B000221F749F3327A00D611D231F849F600D4F
:1046C000211D822F762F6A2F11249F5750408AF088
:1046D000E1F088234AF0EE0FFF1FBB1F661F771F14
:1046E000881F91505040A9F79E3F510570F05CCF54
:1046F000A6CF5F3FECF3983EDCF386957795679500
:10470000B795F795E7959F5FC1F7FE2B880F911D31
:104710009695879597F90895FA01EE0FFF1F309649
:104720002105310599F16115710561F48038BFE308
:104730009B0749F168949038810561F08038BFEF9C
:104740009B0741F0992342F5FF3FE1053105210523
:1047500011F1E8940894E795D901AA2329F4AB2F25
:10476000BE2FF85FD0F310C0FF5F70F4A695E0F79E
:10477000F73950F019F0FF3A38F49F779F930CD037
:104780000F9007FC905808953EF014CF60E070E061
:1047900080E89FE308954FE79F775F934F933F93A0
:1047A0002F93A2D02F913F914F915F9152DF09C07B
:1047B000D7DE880B990B089519F40EF0F5CE3ECF95
:1047C000F9CE22DFC8F39638C0F707F80F92E894C5
:1047D0002BE33AEA48EB5FE74ADF0F920F920F9222
:1047E0004DB75EB70F92C0D0E8E6F0E016D04F911B
:1047F0005F91EF91FF91E595EE1FFF1F49F0FE5786
:10480000E0684427EE0F441FFA95E1F74195550BF8
:1048100032D00F9007FE26C00895DF93CF931F93E9
:104820000F93FF92EF92DF927B018C01689405C099
:10483000DA2EEF011ADFFE01E894A591259135915A
:1048400045915591AEF3EF015EDDFE019701A801A0
:10485000DA9479F7DF90EF90FF900F911F91CF914D
:10486000DF9108959B01AC0160E070E080E89FE378
:10487000A1CD9ACEACC0C8DEE8F39923D9F3940F4A
:10488000511DBBF39150504094F059F0882332F001
:10489000660F771F881F91505040C1F79E3F51050A
:1048A00044F7880F911D9695879597F908955F3F76
:1048B000ACF0983E9CF0BB27869577956795B795A9
:1048C00008F4B1609395C1F7BB0F58F711F460FF7E
:1048D000E8CF6F5F7F4F8F4F9F4FE3CFB0CE0EF08B
:1048E00076C068CE689460CE8FDEC8F39923D1F38A
:1048F000C6F3DF93CF931F930F93FF92C92FDD274A
:1049000088232AF02197660F771F881FDAF720E0A7
:1049100030E040E85FEB9FE3883920F0803E30F0E4
:1049200021968F77DFDCE0E9F0E003C0DBDCEDEB24
:10493000F0E073DF8B01BE01EC01FB2E6F577109B4
:104940007595771F880B990BD0DD28E132E741E39D
:104950005FE38BDEAF2D9801AE01FF900F911F91A9
:10496000CF91DF91D0DC37CEFA01DC01AA0FBB1F5B
:104970009B01AC01BF5728F42227332744275078E6
:104980001FC0B75188F4AB2F002446953795279563
:10499000011CA395D2F3002069F0220F331F441F9E
:1049A000B395DAF30DD09DCC61307105A0E88A078C
:1049B000B94630F49B01AC016627772788279078A9
:1049C000309621F0208331834283538308959F3FA3
:1049D00049F0915028F4869577956795B7959F5F34
:1049E00080389F4F880F9695879597F90895629F15
:1049F000D001739FF001829FE00DF11D649FE00DD7
:104A0000F11D929FF00D839FF00D749FF00D659F37
:104A1000F00D9927729FB00DE11DF91F639FB00D36
:104A2000E11DF91FBD01CF011124089597FB092E47
:104A300007260AD077FD04D049D006D000201AF40A
:104A4000709561957F4F0895F6F7909581959F4FEA
:104A50000895A1E21A2EAA1BBB1BFD010DC0AA1FBF
:104A6000BB1FEE1FFF1FA217B307E407F50720F0D7
:104A7000A21BB30BE40BF50B661F771F881F991F52
:104A80001A9469F760957095809590959B01AC019B
:104A9000BD01CF01089597FB092E05260ED057FDC5
:104AA00004D0D7DF0AD0001C38F4509540953095DB
:104AB00021953F4F4F4F5F4F0895F6F790958095A2
:104AC000709561957F4F8F4F9F4F0895AA1BBB1B19
:104AD00051E107C0AA1FBB1FA617B70710F0A61BFE
:104AE000B70B881F991F5A95A9F780959095BC011F
:104AF000CD010895EE0FFF1F0590F491E02D09946C
:104B000016E0CAE6D6E003C0FE01F6DF2296CC36F8
:084B1000D107D1F7F894FFCFA3
:104B1800416A7573746120416C747572613F00411C
:104B28006A7573746120566F6C756D653F00416AD4
:104B3800757374612053656E73692E3F006E616EE4
:104B480000696E66006F7666002E002000AA0500D8
:104B58000001FFFF2C01FF00000000000000000022
:104B6800000000000000000000000000000000003D
:104B780000000000000000000000000000C0E0F09D
:104B8800F8FCFCFEFFFCE000000000000000000054
:104B9800000000000000000000000000000000000D
:104BA80000000000000000000000000000000000FD
:104BB800000000000000000000000000F8F8F8F80D
:104BC800F8F8F8F8F8F8F8F8F0F0E0E0C080C0FC81
:104BD800FFFFFFFF7F3F7FFFFFFFFFFF0000000099
:104BE80000000000000000000000000000000000BD
:104BF80000000000000000000000000000000000AD
:104C0800000000000000000000000000000000009C
:104C1800000F1F3F7FFFFFFFFFFFFFFFFFE7C7C733
:104C2800878F9F9FFFFFFFC1C0E0FCFFFFFFFFFFD3
:104C3800FCFCFCFCFEFEFEFCFCF8F8F0E0C0C0004A
:104C4800000000000000000000000000000000005C
:104C5800000000000000000000000000000000004C
:104C6800000000000000000080C0E0F1FBFFFFFF33
:104C7800FFFF7F1F0F0F87E7FFFFFF1F1F3FF9F899
:104C8800F8F8F8F8F8FDFFFFFFFFFFFFFFFFFF7FD1
:104C98003F0F0701000000000000000000000000B6
:104CA80000000000000000000000000000000000FC
:104CB80000000000000000000000F0FEFFFFFFFF02
:104CC800FFFFFFFFFFFFFE7E3F3F0F1FFFFFFFFCC1
:104CD800F0E0F1FFFFFFFFFFFCF00101010101011E
:104CE80001010000000000000000000000000000BA
:104CF80000000000000000000000000000000000AC
:104D08000000000000000000000000000000030395
:104D18000303030303030101010100000000000075
:104D280000030F1F3F7F7FFFFFFFFF7F7F1F0300F1
:104D3800000000000000000000000000000000006B
:104D4800000000000000000000000000000000005B
:104D5800000000A416560E18171717DA13DA14F6FF
:104D680014861415154A1500000000611E311EEA4C
:084D78001DF31D081E191E00A9
:00000001FF
