:100000008FC00000B4C00000B2C00000B0C000004B
:10001000AEC00000ACC00000AAC00000A8C0000034
:10002000A6C00000A4C00000A2C00000A0C0000044
:100030009EC000009CC000009AC0000098C0000054
:100040005AC3000094C0000054C500009FC50000C2
:100050008EC000008CC000008AC0000088C0000074
:1000600086C0000084C000003D3D3D3D3D3D3D3D1E
:100070003D3D3D3D3D3D3D2046494D2020534554AD
:100080005550203D3D3D3D3D3D3D3D3D3D3D3D3D92
:100090003D3D3D3D003D3D3D3D3D3D3D3D3D3D3DCD
:1000A0003D3D3D3D3D3D3D3D202053455455502077
:1000B0003D3D3D3D3D3D3D3D3D3D3D3D3D3D3D3D70
:1000C0003D0000000000240027002A00000000007E
:1000D000250028002B000000000023002600290036
:1000E00004040404040404040202020202020303DE
:1000F00003030303010204081020408001020408E6
:100100001020010204081020000000070002010076
:100110000003040600000000000000008101310718
:1001200011241FBECFEFD8E0DEBFCDBF11E0A0E0AD
:10013000B1E0E2E0F7E102C005900D92AA33B10709
:10014000D9F712E0AAE3B1E001C01D92A331B107D3
:10015000E1F711E0C0E2D1E004C02297FE010E9465
:100160007B0BCC31D107C9F7D2D60C947F0B48CF8B
:10017000AF92BF92CF92DF92EF92FF920F931F93B5
:10018000CF93DF93EC01C61BD70BD0934901C093EB
:1001900048018091220190912301C89F5001C99F7D
:1001A000B00CD89FB00C1124B0925B01A0925A0100
:1001B00060915801709159016C0F7D1F7093590126
:1001C00060935801C0902401D0902501882777FDC5
:1001D0008095982F0E94DF097B018C0120E030E0A0
:1001E00040EA51EC0E94A80988235CF40F2EF0E04D
:1001F000EF2EF0E0FF2EF0EA0F2FF1EC1F2FF02D85
:1002000014C0C801B70120E030E040EA51E40E9488
:100210008F0A181654F40F2EF0E0EF2EF0E0FF2EA8
:10022000F0EA0F2FF1E41F2FF02DB601882777FD9C
:100230008095982F0E94DF09A80197010E94930AD8
:100240000E94AC097B018C0170935D0160935C019D
:1002500080915601909157019E01281B390B809186
:10026000260190912701289FB001299F700D389F8A
:10027000700D112470935F0160935E01D09357015C
:10028000C09356016A0D7B1D6E0D7F1D882777FD7B
:100290008095982F0E94DF0920911E0130911F0147
:1002A00040912001509121010E94930A7B018C0111
:1002B00020E030E04FE753EC0E94A80988231CF4AB
:1002C0006FEF70E012C0C801B70120E030E04FE7E7
:1002D00053E40E948F0A18161CF461E07FEF05C0FA
:1002E000C801B70190580E94AC09CB01DF91CF91B2
:1002F0001F910F91FF90EF90DF90CF90BF90AF9044
:10030000089580911C0190911D0190934F0180935D
:100310004E0190935101809350010895AF92BF9286
:10032000CF92DF92EF92FF920F931F93CF93DF93C1
:10033000EC0197FD0DC086E060E086D387E061E0C8
:1003400083D388E060E080D389E061E07DD30FC093
:1003500086E061E079D387E060E076D388E061E011
:1003600073D389E060E070D3D095C195DF4FC6307C
:10037000D10524F100D000D0BE01882777FD8095FB
:10038000982F2FEF30E040E050E0EDB7FEB721832B
:1003900032834383548320E030E040E050E0FFEFBD
:1003A000EF2EF12C012D112DEEE1AE2EB12CC12C32
:1003B000D12C22D70F900F900F900F90BE0188275D
:1003C00077FD8095982FFBD77B018C012091180138
:1003D0003091190140911A0150911B010E94930A1A
:1003E000BBD79B01AC018AE0B90191D2C801B7012A
:1003F000209114013091150140911601509117017F
:100400000E94930AA9D79B01AC018BE0B9017FD26E
:10041000DF91CF911F910F91FF90EF90DF90CF90E0
:10042000BF90AF9008950F931F93CF93DF931092D7
:100430003D0110923C01C1E0D0E000913C011091DF
:100440003D0180E042D2080F191F10933D01009337
:100450003C0165E070E080E090E0A3D12196CF31CF
:10046000D10559F780913C0190913D016EE170E01A
:100470000E94150B882777FD8095982FA0D722EC36
:1004800035EF48EA53E4FFD667D770933D01609398
:100490003C018BE794E1AEE2B3E480934401909396
:1004A0004501A0934601B093470187E491EEAAEF7E
:1004B000B3E48093400190934101A0934201B09333
:1004C0004301DF91CF911F910F9108952F923F9299
:1004D0004F925F926F927F928F929F92AF92BF9254
:1004E000CF92DF92EF92FF920F931F93CF93DF9300
:1004F00010923F0110923E01C1E0D0E080E0E5D1D2
:100500005C0190933B0180933A0140903E015090F2
:100510003F0100D000D02DB63EB60894211C311CFE
:1005200080913C0190913D01A81AB90ACC24B7FCF6
:10053000C094DC2C6091440170914501809146018A
:100540009091470109D73B014C01609140017091A6
:1005500041018091420190914301FED67B018C01C3
:1005600086EA9FEFAFEFBFEFF10180839183A28313
:10057000B383C601B501A4019301AAE5AA2EB12C4B
:10058000C12CD12C39D6460E571E50923F014092B5
:100590003E010F900F900F900F9061E070E080E0AF
:1005A00090E0FFD02196CB30D10509F0A7CF809104
:1005B0003E0190913F016AE070E00E94150B60934C
:1005C0003E0170933F0181EF91E04AE050E0E4D5B5
:1005D000DF91CF911F910F91FF90EF90DF90CF901F
:1005E000BF90AF909F908F907F906F905F904F9053
:1005F0003F902F9008956ADF60913E0170913F0116
:1006000080914A0190914B01B3DD90934D0180930D
:100610004C0120914A0130914B0140913E01509193
:100620003F01C901879748175907C4F0295D3F4F1B
:10063000241735079CF081EF91E068E071E0C9D59F
:1006400060914C0170914D0181EF91E04AE050E0E2
:10065000A3D580914C0190914D0107C081EF91E0AD
:100660006DE071E0B8D580E090E058DE8CD020914C
:10067000520130915301621B730B709351016093CF
:10068000500120911C0130911D016217730744F441
:10069000261B370BB901882777FD8095982F81D0CD
:1006A00072D02091520130915301621B730B7093F1
:1006B0004F0160934E0167D06093520170935301D4
:1006C000809354019093550108950F931F9301EF68
:1006D00011E0C80140E855E260E070E092D2C80144
:1006E00065E970E08CD49FDEC80168E670E087D4CD
:1006F0001F910F9108951F920F920FB60F92112420
:100700002F933F938F939F93AF93BF9380916401F7
:1007100090916501A0916601B091670130916801E7
:100720000196A11DB11D232F2D5F2D3720F02D57D0
:100730000196A11DB11D20936801809364019093DF
:100740006501A0936601B09367018091600190916B
:100750006101A0916201B09163010196A11DB11DDB
:100760008093600190936101A0936201B093630153
:10077000BF91AF919F918F913F912F910F900FBE9D
:100780000F901F9018958FB7F894209164013091C5
:10079000650140916601509167018FBFB901CA019F
:1007A00008959B01AC017FB7F8948091600190910E
:1007B0006101A0916201B091630166B5A89B05C07B
:1007C0006F3F19F00196A11DB11D7FBFBA2FA92F50
:1007D000982F8827860F911DA11DB11D62E0880FFB
:1007E000991FAA1FBB1F6A95D1F7BC012DC0FFB787
:1007F000F8948091600190916101A0916201B091A3
:100800006301E6B5A89B05C0EF3F19F00196A11D55
:10081000B11DFFBFBA2FA92F982F88278E0F911DCA
:10082000A11DB11DE2E0880F991FAA1FBB1FEA9509
:10083000D1F7861B970B885E9340C8F22150304059
:100840004040504068517C4F21153105410551050C
:1008500071F60895789484B5826084BD84B5816012
:1008600084BD85B5826085BD85B5816085BDEEE6B8
:10087000F0E0808181608083E1E8F0E01082808197
:1008800082608083808181608083E0E8F0E0808105
:1008900081608083E1EBF0E0808184608083E0EB25
:1008A000F0E0808181608083EAE7F0E0808184600D
:1008B0008083808182608083808181608083808169
:1008C000806880831092C1000895982F8E3008F0C0
:1008D0009E509770809128018295880F880F807CA8
:1008E000892B80937C0080917A00806480937A00C9
:1008F00080917A0086FDFCCF2091780040917900AC
:10090000942F80E030E0282B392BC90108951F93E4
:10091000CF93DF93182FEB0161E057D0209709F4B4
:100920004AC0CF3FD10509F449C0E12FF0E0E85FAC
:10093000FE4F84918330C1F0843028F4813051F02F
:100940008230B1F50CC0863019F1873049F184301E
:1009500079F514C084B5806884BDC7BD32C084B544
:10096000806284BDC8BD2DC0809180008068809366
:100970008000D0938900C093880023C080918000BC
:10098000806280938000D0938B00C0938A0019C04E
:100990008091B00080688093B000C093B30011C014
:1009A0008091B00080628093B000C093B40009C011
:1009B000C038D1051CF4812F60E002C0812F61E0B6
:1009C00043D0DF91CF911F910895CF93DF93482FAC
:1009D00050E0CA018C509F4FFC01349140525F4F50
:1009E000FA018491882369F190E0880F991FFC0136
:1009F000EE53FF4FA591B491FC01E453FF4FC59115
:100A0000D491662351F42FB7F8948C91932F90953D
:100A100089238C93888189230BC0623061F42FB7BE
:100A2000F8948C91932F909589238C938881832BB4
:100A300088832FBF06C09FB7F8948C91832B8C932B
:100A40009FBFDF91CF910895482F50E0CA01885F82
:100A50009E4FFC012491CA018C509F4FFC01949140
:100A600040525F4FFA013491332309F440C02223EE
:100A700051F1233071F0243028F42130A1F02230DC
:100A800011F514C02630B1F02730C1F02430D9F46C
:100A900004C0809180008F7703C0809180008F7D9B
:100AA0008093800010C084B58F7702C084B58F7D9D
:100AB00084BD09C08091B0008F7703C08091B000E1
:100AC0008F7D8093B000E32FF0E0EE0FFF1FE45323
:100AD000FF4FA591B4912FB7F894662321F48C9120
:100AE0009095892302C08C91892B8C932FBF0895F8
:100AF00008951F920F920FB60F9211242F933F93D8
:100B00004F938F939F93EF93FF938091C00082FD4B
:100B10001DC04091C6002091A9013091AA012F5F0C
:100B20003F4F2F7330708091AB019091AC0128172B
:100B3000390771F0E091A901F091AA01E759FE4F40
:100B400040833093AA012093A90102C08091C6007E
:100B5000FF91EF919F918F914F913F912F910F9026
:100B60000FBE0F901F901895E091FD01F091FE01CE
:100B7000E05CFF4F8191919120813181821B930B29
:100B80008F739070892B09F0B3CF08951F920F9245
:100B90000FB60F9211242F933F938F939F93EF9350
:100BA000FF932091ED013091EE018091EF01909142
:100BB000F0012817390731F48091C1008F7D8093AF
:100BC000C10014C0E091EF01F091F001E355FE4F38
:100BD00020818091EF019091F00101968F739070C8
:100BE0009093F0018093EF012093C600FF91EF9165
:100BF0009F918F913F912F910F900FBE0F901F905B
:100C00001895AF92BF92DF92EF92FF920F931F93CE
:100C1000CF93DF93EC017A018B01DD24403081EE2C
:100C2000580780E0680780E0780711F0DD24D3944E
:100C300091E0A92EB12CEC89FD89DD2069F0C50178
:100C400008A002C0880F991F0A94E2F7808360E031
:100C500079E08DE390E005C0108260E874E88EE1F1
:100C600090E0A8019701F4D421503040404050401A
:100C7000569547953795279580E12030380720F025
:100C8000DD2011F0DD24D7CFE889F9893083EA89A6
:100C9000FB89208319A2EE89FF89408121E030E0A1
:100CA000C9010C8C02C0880F991F0A94E2F7482BE7
:100CB0004083EE89FF894081C9010D8C02C0880FF5
:100CC000991F0A94E2F7482B4083EE89FF894081FF
:100CD000C9010E8C02C0880F991F0A94E2F7482BB5
:100CE0004083EE89FF8980810F8C02C0220F331F61
:100CF0000A94E2F7209528232083DF91CF911F915A
:100D00000F91FF90EF90DF90BF90AF900895DC01BE
:100D10001C96ED91FC911D97E05CFF4F2191319164
:100D200080819181281B390B2F733070C901089580
:100D3000DC011C96ED91FC911D97E05CFF4F20813A
:100D40003181E054F040DF01AE5BBF4F8D919C914B
:100D500011972817390719F42FEF3FEF07C08D912E
:100D60009C91E80FF91F8081282F30E0C901089578
:100D7000DC011C96ED91FC911D97E05CFF4F2081FA
:100D80003181E054F040DF01AE5BBF4F8D919C910B
:100D900011972817390719F42FEF3FEF10C08D91E5
:100DA0009C911197E80FF91F20818D919C911197CB
:100DB00001968F73907011969C938E9330E0C901C9
:100DC0000895DC0191968C919197882339F054967F
:100DD000ED91FC915597808186FFF9CF91961C92F9
:100DE0000895CF93DF93EC01EE85FF85E05CFF4F24
:100DF00020813181E054F0402F5F3F4F2F733070DE
:100E0000DF01AE5BBF4F8D919C9111972817390779
:100E1000D1F3E05CFF4F80819181E054F040E80F16
:100E2000F91F6083EE85FF85E05CFF4F31832083EF
:100E3000EE89FF89208181E090E00F8C02C0880F4D
:100E4000991F0A94E2F7282B208381E089A3EC897B
:100E5000FD8980818064808381E090E0DF91CF9183
:100E600008951092F4011092F30188EE93E0A0E04F
:100E7000B0E08093F5019093F601A093F701B09351
:100E8000F8018DE291E09093F2018093F10189E6FF
:100E900091E09093FE018093FD018DEA91E09093A3
:100EA00000028093FF0185EC90E090930202809312
:100EB000010284EC90E0909304028093030280ECA2
:100EC00090E0909306028093050281EC90E090936D
:100ED00008028093070282EC90E090930A028093CC
:100EE000090286EC90E090930C0280930B0284E060
:100EF00080930D0283E080930E0287E080930F02BF
:100F000085E08093100281E0809311020895CF93D1
:100F1000DF93A0DCDADBC4EBD5E06DDB2097E9F3EF
:100F200023DEFBCFCF92DF92EF92FF920F931F93BE
:100F3000CF93DF937C016B018A01C0E0D0E00FC04A
:100F4000D6016D916D01D701ED91FC910190F08179
:100F5000E02DC7010995C80FD91F01501040011598
:100F6000110571F7CE01DF91CF911F910F91FF9085
:100F7000EF90DF90CF900895EF92FF920F931F9321
:100F8000CF93DF937C018B01C0E0D0E0F8010F5FCD
:100F90001F4F6491662359F0D701ED91FC910190A8
:100FA000F081E02DC7010995C80FD91FEFCFCE0101
:100FB000DF91CF911F910F91FF90EF900895EF92E5
:100FC000FF920F931F938C01DC01ED91FC91019036
:100FD000F081E02D6DE009957C01D801ED91FC9147
:100FE0000190F081E02DC8016AE009959C012E0D69
:100FF0003F1DC9011F910F91FF90EF900895EF924F
:10100000FF920F931F937C01B7DF8C01C701D7DFDD
:101010009C01200F311FC9011F910F91FF90EF908C
:101020000895CF93DF93EC016115710519F420E069
:1010300030E00FC0DB010D900020E9F71197A61BEF
:10104000B70BE881F9810280F381E02DAD010995AC
:101050009C01C901DF91CF9108954F925F927F92D9
:101060008F929F92AF92BF92CF92DF92EF92FF92B8
:101070000F931F93DF93CF93CDB7DEB7A1970FB632
:10108000F894DEBF0FBECDBF2C01742ECB012230F1
:1010900008F42AE019A231E2C32ED12CCC0EDD1EB9
:1010A000822E9924AA24BB24672D752FA5019401B3
:1010B000CFD279018A01C801B701A501940196D266
:1010C000472D461B0894C108D1084A3014F4405DEE
:1010D00001C0495CF6014083E114F10401051105EA
:1010E00021F07E2C5F2DC801DFCFC201B60199DF50
:1010F000A1960FB6F894DEBF0FBECDBFCF91DF91A2
:101100001F910F91FF90EF90DF90CF90BF90AF9025
:101110009F908F907F905F904F900895CF92DF9235
:10112000EF92FF920F931F93CF93DF93EC016A012D
:101130007B012115310541F4E881F9810190F081AD
:10114000E02D642F09951DC02A303105C9F477FFC1
:1011500016C0E881F9810190F081E02D6DE20995DA
:101160008C0144275527BA014C195D096E097F0986
:10117000CE012AE072DF9801280F391F03C02AE050
:101180006CDF9C01C901DF91CF911F910F91FF90FE
:10119000EF90DF90CF900895CF92DF92EF92FF9281
:1011A0000F931F936C017B019A010027F7FC0095B8
:1011B000102FB801A701B2DF8C01C60100DF080FB4
:1011C000191FC8011F910F91FF90EF90DF90CF90F2
:1011D000089527CF0895EF92FF920F931F937C01FC
:1011E00020DF8C01C701EBDE080F191FC8011F911A
:1011F0000F91FF90EF9008952F923F924F925F9240
:101200006F927F928F929F92AF92BF92CF92DF9216
:10121000EF92FF920F931F93DF93CF93CDB7DEB77B
:101220003B014C0119012A016D897E898F89988DB6
:101230006A197B098C099D09621A730A840A950A46
:10124000A4019301D3D1E218F30804091509A801F8
:10125000970120D22A0D3B1D4C1D5D1DB901CA010D
:10126000CF91DF911F910F91FF90EF90DF90CF9082
:10127000BF90AF909F908F907F906F905F904F90B6
:101280003F902F9008955058BB27AA270ED00DC12C
:10129000FED030F003D120F031F49F3F11F41EF462
:1012A000F3C00EF4E095E7FBE9C0E92F0FD180F31E
:1012B000BA17620773078407950718F071F49EF553
:1012C00027C10EF4E0950B2EBA2FA02D0B01B9010A
:1012D00090010C01CA01A0011124FF27591B99F0AC
:1012E000593F50F4503E68F11A16F040A22F232FB8
:1012F000342F4427585FF3CF469537952795A79508
:10130000F0405395C9F77EF41F16BA0B620B730BAE
:10131000840BBAF09150A1F0FF0FBB1F661F771F1F
:10132000881FC2F70EC0BA0F621F731F841F48F4D4
:10133000879577956795B795F7959E3F08F0B3CF5A
:101340009395880F08F09927EE0F97958795089544
:1013500071D008F481E0089504D06894B111D9C027
:101360000895BCD088F09F5790F0B92F9927B751B6
:10137000A0F0D1F0660F771F881F991F1AF0BA9559
:10138000C9F712C0B13081F0C3D0B1E00895C0C038
:10139000672F782F8827B85F39F0B93FCCF386954F
:1013A00077956795B395D9F73EF4909580957095AC
:1013B00061957F4F8F4F9F4F0895E89409C097FB29
:1013C0003EF490958095709561957F4F8F4F9F4F1C
:1013D0009923A9F0F92F96E9BB279395F695879560
:1013E00077956795B795F111F8CFFAF4BB0F11F423
:1013F00060FF1BC06F5F7F4F8F4F9F4F16C08823CA
:1014000011F096E911C0772321F09EE8872F762FFF
:1014100005C0662371F096E8862F70E060E02AF040
:101420009A95660F771F881FDAF7880F969587952C
:1014300097F90895990F0008550FAA0BE0E8FEEF01
:1014400016161706E807F907C0F012161306E40788
:10145000F50798F0621B730B840B950B39F40A2681
:1014600061F0232B242B252B21F408950A2609F45F
:10147000A140A6958FEF811D811D089597F99F6763
:1014800080E870E060E008959FEF80EC089500240C
:101490000A941616170618060906089500240A94D9
:1014A00012161306140605060895092E0394000C5F
:1014B00011F4882352F0BB0F40F4BF2B11F460FFEE
:1014C00004C06F5F7F4F8F4F9F4F089557FD905817
:1014D000440F551F59F05F3F71F04795880F97FBF8
:1014E000991F61F09F3F79F08795089512161306B2
:1014F0001406551FF2CF4695F1DF08C016161706E1
:101500001806991FF1CF8695710561050894089515
:10151000E894BB2766277727CB0197F908958ADFE0
:1015200008F48FEF08950BD0C0CFB1DF28F0B6DFFD
:1015300018F0952309F0A2CFA7CF1124EACFC6DF78
:10154000A0F3959FD1F3950F50E0551F629FF001D6
:10155000729FBB27F00DB11D639FAA27F00DB11D2F
:10156000AA1F649F6627B00DA11D661F829F2227B8
:10157000B00DA11D621F739FB00DA11D621F839F3F
:10158000A00D611D221F749F3327A00D611D231F15
:10159000849F600D211D822F762F6A2F11249F5763
:1015A00050408AF0E1F088234AF0EE0FFF1FBB1F86
:1015B000661F771F881F91505040A9F79E3F510525
:1015C00070F05CCFA6CF5F3FECF3983EDCF38695DE
:1015D00077956795B795F795E7959F5FC1F7FE2BD0
:1015E000880F911D9695879597F90895629FD00170
:1015F000739FF001829FE00DF11D649FE00DF11DCE
:10160000929FF00D839FF00D749FF00D659FF00D7C
:101610009927729FB00DE11DF91F639FB00DE11D69
:10162000F91FBD01CF011124089597FB092E07264C
:101630000AD077FD04D049D006D000201AF4709566
:1016400061957F4F0895F6F7909581959F4F089586
:10165000A1E21A2EAA1BBB1BFD010DC0AA1FBB1FB6
:10166000EE1FFF1FA217B307E407F50720F0A21B28
:10167000B30BE40BF50B661F771F881F991F1A9495
:1016800069F760957095809590959B01AC01BD01BF
:10169000CF01089597FB092E05260ED057FD04D0E3
:1016A000D7DF0AD0001C38F450954095309521952D
:1016B0003F4F4F4F5F4F0895F6F790958095709587
:1016C00061957F4F8F4F9F4F0895AA1BBB1B51E120
:1016D00007C0AA1FBB1FA617B70710F0A61BB70BA2
:1016E000881F991F5A95A9F780959095BC01CD0147
:1016F0000895EE0FFF1F0590F491E02D0994F894E2
:02170000FFCF19
:101702002C000A00203A20005049443A00506172ED
:1017120061646F000000803F0000803F09003333A6
:10172200B33F0300010006000100000000F1069231
:0A173200078706B8069806E10600D6
:00000001FF
