:1000000035C000005BC0000059C0000057C00000B0
:1000100055C0000053C0000051C000004FC0000098
:100020004DC000004BC0000049C0000047C00000A8
:1000300045C0000043C0000041C000003FC00000B8
:100040000C94250F3BC0000066C70000B1C700003C
:1000500035C0000033C0000031C000002FC00000D8
:100060002DC000002BC000005204440911241FBE03
:10007000CFEFD8E0DEBFCDBF13E0A0E0B1E0E4EC0D
:10008000F4E202C005900D92A236B107D9F714E050
:10009000A2E6B3E001C01D92A436B107E1F710E07B
:1000A000CCE6D0E004C02297FE010E942512C8369B
:1000B000D107C9F70E949A090C946012A1CFCF937F
:1000C000DF93BC018230910510F462E070E0A091F2
:1000D0006204B0916304ED01E0E0F0E040E050E044
:1000E00021C0888199818617970769F48A819B814D
:1000F000309719F09383828304C0909363048093B4
:100100006204FE0134C06817790738F441155105BF
:1001100019F08417950708F4AC01FE018A819B81D0
:100120009C01E9012097E9F641155105A9F1CA01A1
:10013000861B970B049708F4BA01E0E0F0E02AC0B0
:100140008D919C91119784179507F9F464177507A1
:1001500081F412968D919C911397309719F09383A7
:10016000828304C09093630480936204FD013296FD
:100170004CC0CA01861B970BFD01E80FF91F619364
:10018000719302978D939C9340C0FD01828193816E
:100190009C01D9011097A1F68091600490916104AF
:1001A000892B41F48091490390914A039093610413
:1001B0008093600440914B0350914C0341155105CD
:1001C00041F44DB75EB78091470390914803481BB7
:1001D000590B2091600430916104CA01821B930B7A
:1001E0008617970780F0AB014E5F5F4F8417950726
:1001F00050F0420F531F5093610440936004F90183
:100200006193719302C0E0E0F0E0CF01DF91CF9104
:100210000895CF93DF93009709F450C0EC01229723
:100220001B821A82A0916204B0916304109709F1B5
:1002300040E050E0AC17BD0708F1BB83AA83FE0184
:1002400021913191E20FF31FAE17BF0779F48D9121
:100250009C911197280F391F2E5F3F4F39832883B8
:1002600012968D919C9113979B838A83411551051A
:1002700071F4D0936304C093620420C012968D91F0
:100280009C911397AD01009711F0DC01D3CFFA01D7
:10029000D383C28321913191E20FF31FCE17DF0781
:1002A00069F488819981280F391F2E5F3F4FFA0129
:1002B000318320838A819B8193838283DF91CF91D5
:1002C0000895A0E0B0E0E7E6F1E00C943112EC0113
:1002D000A880B980CA80DB80A114B104C104D10414
:1002E00041F484E2A82E89EDB82E8BE5C82E87E074
:1002F000D82EC601B5012DE133EF41E050E00E9458
:10030000081227EA31E440E050E00E94C7117B0167
:100310008C01C601B5012DE133EF41E050E00E94B0
:100320000812CA01B9012CEE34EF4FEF5FEF0E94C3
:10033000C7116E0D7F1D801F911F97FF04C0615074
:10034000704080409048688379838A839B839B01B7
:10035000AC015F77B901CA01CDB7DEB7EAE00C9412
:100360004D12AFCF8DE493E0ACCF60934D0370930B
:100370004E0380934F03909350030895AEE0B0E096
:10038000E4ECF1E00C9437120D891E8986E08C8331
:100390001A8309838FEF9FE79E838D839E01275EDB
:1003A0003F4FCE0101966F89788DA9010AD02F8128
:1003B0003885020F131FF80110822E96E4E00C948A
:1003C0005312ABE0B0E0E7EEF1E00C9429123C01EF
:1003D0002B015A01FC0117821682838181FD03C023
:1003E0006FEF7FEFB9C19AE0892E1E010894211C9E
:1003F000311CF3012381F20123FD859123FF8191BB
:100400002F01882309F4A5C1853239F423FD859194
:1004100023FF81912F01853221F490E0B301B7D100
:10042000E8CF982FFF24EE249924FFE1FF15D0F0A8
:100430009B3269F09C3228F4903259F0933291F457
:100440000EC09D3249F0903369F441E024C052E07F
:10045000F52A84E0F82A28C098E0F92A25C0E0E1CE
:10046000FE2A22C0F7FC29C0892F80538A3070F4FD
:10047000F6FE05C0989C902C1124980E15C0E89C9F
:10048000E02C1124E80EF0E2FF2A0EC09E3229F47F
:10049000F6FC5FC140E4F42A07C09C3619F450E82A
:1004A000F52A02C0983649F4F20123FD959123FF05
:1004B00091912F01992309F0B8CF892F855483306A
:1004C00018F08052833038F444E050E0A40EB51E9A
:1004D0005FE359830FC0933631F0933779F093354A
:1004E00009F052C01FC0F5018081898342E050E0CD
:1004F000A40EB51E610101E010E011C0F501C0803D
:10050000D180F6FC03C06FEF7FEF02C0692D70E071
:1005100042E050E0A40EB51EC6012ED18C015FE76B
:10052000F52213C0F501C080D180F6FC03C06FEF47
:100530007FEF02C0692D70E042E050E0A40EB51ECE
:10054000C6010FD18C0150E8F52AF3FE06C018C091
:1005500080E290E0B3011BD1EA948E2D90E0081761
:100560001907B0F30DC0F601F7FC8591F7FE8191F4
:100570006F0190E0B3010BD1E110EA9401501040FB
:100580000115110581F7E2C0943611F0993661F535
:10059000F7FE08C0F501208131814281538184E05A
:1005A00090E00AC0F501808191819C01442737FDCC
:1005B0004095542F82E090E0A80EB91E9FE6F922E4
:1005C00057FF09C050954095309521953F4F4F4FAB
:1005D0005F4FE0E8FE2ACA01B901A1012AE030E03C
:1005E00002D1D82ED2183FC0953729F41F2D1F7E77
:1005F0002AE030E01DC01F2D197F9F3661F0903733
:1006000020F4983509F0A5C00FC0903739F098371D
:1006100009F09FC004C028E030E00AC0106114FD5A
:10062000146020E130E004C014FD166020E132E0E7
:1006300017FF08C0F501608171818281938144E0D8
:1006400050E008C0F50180819181BC0180E090E01C
:1006500042E050E0A40EB51EA101C5D0D82ED2189C
:100660008FE7F82EF122F6FE0BC05EEFF522D914CB
:1006700038F4F4FE07C0F2FC05C08FEEF82202C089
:100680001D2D01C0192DF4FE0DC0FE01ED0DF11D53
:100690008081803319F499EEF92208C01F5FF2FEC1
:1006A00005C003C08F2D867809F01F5F0F2DF3FC66
:1006B00013C0F0FE0EC01E1510F09D2C0AC09D2C1C
:1006C0009E0C911A1E2D05C080E290E0B3015FD010
:1006D0001F5F1E15C8F304C01E1510F4E11A01C0F7
:1006E000EE2404FF0EC080E390E0B30150D002FF7F
:1006F0001BC001FD03C088E790E00EC088E590E0D4
:100700000BC0802F867881F001FF02C08BE201C010
:1007100080E2F7FC8DE290E0B30139D005C080E3C0
:1007200090E0B30134D09A94D914C8F3DA94F1016B
:10073000ED0DF11D808190E0B30129D0DD20B1F7EE
:1007400005C080E290E0B30122D0EA94EE20C9F720
:1007500050CEF30166817781CB012B96E2E10C94B8
:100760004512FC010590615070400110D8F780954A
:1007700090958E0F9F1F0895FC016150704001906D
:100780000110D8F7809590958E0F9F1F08950F93B5
:100790001F93CF93DF938C01EB018B8181FF1BC0F3
:1007A00082FF0DC02E813F818C819D8128173907E2
:1007B00064F4E881F9810193F983E88306C0E88550
:1007C000F985802F0995892B31F48E819F810196BF
:1007D0009F838E8302C00FEF1FEFC801DF91CF917F
:1007E0001F910F910895FA01AA27283051F1203165
:1007F00081F1E8946F936E7F6E5F7F4F8F4F9F4FB5
:10080000AF4FB1E03ED0B4E03CD0670F781F891FF6
:100810009A1FA11D680F791F8A1F911DA11D6A0FC4
:10082000711D811D911DA11D20D009F468943F9177
:100830002AE0269F11243019305D3193DEF6CF0176
:100840000895462F4770405D4193B3E00FD0C9F73C
:10085000F6CF462F4F70405D4A3318F0495D31FDA9
:100860004052419302D0A9F7EACFB4E0A6959795FC
:10087000879577956795BA95C9F7009761057105D2
:1008800008959B01AC010A2E06945795479537951C
:100890002795BA95C9F7620F731F841F951FA01D76
:1008A0000895089586E993E06DE577E047E557E020
:1008B0000C94DD0CCF93DF93EC0184E394E060E0D3
:1008C00071E0B2D6C130D10519F0229759F405C0B4
:1008D00084E394E068E071E009C084E394E06BE1B4
:1008E00071E004C084E394E066E271E083D7DF91B5
:1008F000CF9108950F931F938C0184E394E069E2F4
:1009000071E092D6109363030093620386E993E04B
:1009100062E673E00E949D0D009709F0CBDF84E34F
:1009200094E06DE371E066D71F910F910895EF9207
:10093000FF920F931F937C0184E394E062E471E0E3
:1009400073D684E394E0B7014AE050E03ED684E3F6
:1009500094E06EE571E068D6F0926303E092620382
:100960000027F7FC0095102F86E993E0B801A70156
:1009700022E633E00E94170E009709F09BDF84E324
:1009800094E06DE371E036D71F910F91FF90EF90E7
:100990000895EF92FF920F931F937C0184E394E0FC
:1009A00062E671E041D684E394E0B7014AE050E0AA
:1009B0000CD684E394E06EE571E036D682ED94E0E7
:1009C00090936303809362030027F7FC0095102F38
:1009D00086E993E0B801A70122E633E00E948A0D80
:1009E000009709F067DF84E394E06DE371E002D7DC
:1009F0001F910F91FF90EF900895EF92FF920F9348
:100A00001F9381E0E82EF12C012D112D85C086E980
:100A100093E0B801A70122E633E00E94430D00975E
:100A200009F074C084E394E06DE771E0FDD584E3E0
:100A300094E0B7014AE050E0DAD584E394E065E859
:100A400071E0F2D5609162037091630384E394E0F6
:100A50004AE050E0CCD584E394E06BE871E0E4D563
:100A600084E394E064E673E0C5D684E394E06BE944
:100A700071E0DAD584E394E068E773E0BBD684E301
:100A800094E069EA71E0D0D560918C0370918D0398
:100A900084E394E04AE050E0AAD584E394E06AEB72
:100AA00071E0C2D560918E0370918F0384E394E06E
:100AB0004AE050E09CD584E394E06BEC71E0B4D55F
:100AC00084E394E0609190034AE050E024D584E30D
:100AD00094E062EE71E0A8D584E394E06091910324
:100AE0004AE050E018D584E394E06AEF71E09CD5C9
:100AF00040919203509193036091940370919503F8
:100B000084E394E026E030E064D601C0D3DE0894AC
:100B1000E11CF11C011D111D86E993E00E94E00D0E
:100B20006E157F058007910708F071CF1F910F9117
:100B3000FF90EF9008952F923F924F925F926F92A5
:100B40007F928F929F92AF92BF92CF92DF92EF925D
:100B5000FF920F931F93DF93CF9300D000D0CDB7B8
:100B6000DEB79A83898384E394E069E072E05CD520
:100B700021E030E03C832B83BAC061E070E080E08C
:100B800090E02CE030E040E050E066D65B016C0184
:100B900061E070E080E090E02FE130E040E050E084
:100BA0005BD67B018C0160EB74E080E090E024EA8E
:100BB00036E040E050E050D61B012C0164E670E0C6
:100BC00080E090E028EC30E040E050E045D63B018A
:100BD0004C0162E070E080E090E027E030E040E02F
:100BE00050E03AD6062F63E070E080E090E020E02D
:100BF00030E040E050E030D6162F8B819C819093FE
:100C0000630380936203ADB7BEB718970FB6F8942D
:100C1000BEBF0FBEADBFEDB7FEB7319624E633E0E1
:100C200012963C932E9311978DE192E093838283E9
:100C3000B582A482F782E682A1DBEDB7FEB73196DA
:100C400028E733E0ADB7BEB712963C932E931197C9
:100C50008DE192E093838283B582A482F782E6825B
:100C60008DDB30928D0320928C0370928F03609203
:100C70008E03009390031093910381E596E0AEE913
:100C8000BFEB8093920390939303A0939403B0934C
:100C90009503ADB7BEB718960FB6F894BEBF0FBE9A
:100CA000ADBF84E394E06CE272E0A4D5409192037E
:100CB00050919303609194037091950384E394E0C1
:100CC00026E030E084D584E394E06CE272E092D5D3
:100CD00086E993E064E673E0625070402ED7009797
:100CE00009F0E8DDEB81FC813196FC83EB832B81FD
:100CF0003C8189819A81281739070CF43ECF84E31F
:100D000094E06DE371E076D50F900F900F900F9007
:100D1000CF91DF911F910F91FF90EF90DF90CF90D7
:100D2000BF90AF909F908F907F906F905F904F900B
:100D30003F902F9008950F931F9304E314E0C80190
:100D40006FE672E071D486E993E03AD7AB01BC015B
:100D5000C8012AE030E0CDD31F910F9108950F9381
:100D60001F9304E314E0C8016EE772E05DD486E9E6
:100D700093E041D7C8016DE371E03CD51F910F911D
:100D80000895CF92DF92EF92FF920F931F937C0111
:100D900094E3C92E94E0D92EC60162E972E044D4EE
:100DA000C601B7014AE050E022D40027F7FC0095C5
:100DB000102F86E993E0B801A701D3D71F910F91B7
:100DC000FF90EF90DF90CF9008950F931F9304E36F
:100DD00014E0C80163EA72E027D486E993E0F6D60E
:100DE000AB01BC01C8012AE030E083D31F910F9111
:100DF0000895CF93DF9384E394E040E052EC61E008
:100E000070E011D184E394E062EB72E0F3D484E308
:100E100094E0C5D280E05CD03CD584E394E06BEEF6
:100E200072E002D486E993E040E050E060E070E0D8
:100E3000EDD584E394E06DE371E0DCD4C6DF7BDFC5
:100E4000DCDD8AE090E077DE76DFD7DD85E090E0DC
:100E500098DF71DFD2DD8BE090E04CDD6CDFCDDD23
:100E600085E090E064DD67DFC8DD8AE090E091DD39
:100E7000C4DD61DF74DF84E394E06DEF72E0BAD427
:100E80005ADF81E090E053DD81E090E050DD53DFF8
:100E9000B4DDC1E0D0E081E090E073DF2196C531A0
:100EA000D105C9F748DFA9DDDF91CF9108959B01F6
:100EB000AC0186E594E0B901B5C70F931F938B0190
:100EC0009C0186E594E0B801B4D71F910F91089575
:100ED000982F8E3008F09E50977080915103829524
:100EE000880F880F807C892B80937C0080917A000A
:100EF000806480937A0080917A0086FDFCCF2091F7
:100F0000780040917900942F80E030E0282B392B35
:100F1000C901089508951F920F920FB60F921124E0
:100F20002F933F934F938F939F93EF93FF938091D2
:100F3000C00082FD1DC04091C6002091EC0330919D
:100F4000ED032F5F3F4F2F7330708091EE03909130
:100F5000EF032817390771F0E091EC03F091ED03EE
:100F6000E455FC4F40833093ED032093EC0302C023
:100F70008091C600FF91EF919F918F914F913F918A
:100F80002F910F900FBE0F901F901895E091400485
:100F9000F0914104E05CFF4F81919191208131817A
:100FA000821B930B8F739070892B09F0B3CF089538
:100FB0001F920F920FB60F9211242F933F938F938E
:100FC0009F93EF93FF9320913004309131048091EF
:100FD0003204909133042817390731F48091C1000D
:100FE0008F7D8093C10014C0E0913204F0913304EE
:100FF000E051FC4F2081809132049091330401969E
:101000008F73907090933304809332042093C600C2
:10101000FF91EF919F918F913F912F910F900FBE74
:101020000F901F901895AF92BF92DF92EF92FF92B0
:101030000F931F93CF93DF93EC017A018B01DD2493
:10104000403081EE580780E0680780E0780711F0B3
:10105000DD24D39491E0A92EB12CEC89FD89DD200B
:1010600069F0C50108A002C0880F991F0A94E2F731
:10107000808360E079E08DE390E005C0108260E855
:1010800074E88EE190E0A80197010E94E6112150DA
:10109000304040405040569547953795279580E120
:1010A0002030380720F0DD2011F0DD24D6CFE8898C
:1010B000F9893083EA89FB89208319A2EE89FF89A7
:1010C000408121E030E0C9010C8C02C0880F991FDB
:1010D0000A94E2F7482B4083EE89FF894081C901D9
:1010E0000D8C02C0880F991F0A94E2F7482B4083A9
:1010F000EE89FF894081C9010E8C02C0880F991FBB
:101100000A94E2F7482B4083EE89FF8980810F8C97
:1011100002C0220F331F0A94E2F720952823208370
:10112000DF91CF911F910F91FF90EF90DF90BF90D3
:10113000AF900895DC011C96ED91FC911D97E05C49
:10114000FF4F2191319180819181281B390B2F73A1
:101150003070C9010895DC011C96ED91FC911D973A
:10116000E05CFF4F20813181E054F040DF01AE5B55
:10117000BF4F8D919C9111972817390719F42FEFC4
:101180003FEF07C08D919C91E80FF91F8081282FB8
:1011900030E0C9010895DC011C96ED91FC911D978A
:1011A000E05CFF4F20813181E054F040DF01AE5B15
:1011B000BF4F8D919C9111972817390719F42FEF84
:1011C0003FEF10C08D919C911197E80FF91F20817E
:1011D0008D919C91119701968F73907011969C93AD
:1011E0008E9330E0C9010895DC0191968C9191971E
:1011F000882339F05496ED91FC915597808186FFB4
:10120000F9CF91961C920895CF93DF93EC01EE8570
:10121000FF85E05CFF4F20813181E054F0402F5F7B
:101220003F4F2F733070DF01AE5BBF4F8D919C91AC
:10123000119728173907D1F3E05CFF4F8081918126
:10124000E054F040E80FF91F6083EE85FF85E05C15
:10125000FF4F31832083EE89FF89208181E090E078
:101260000F8C02C0880F991F0A94E2F7282B208365
:1012700081E089A3EC89FD8980818064808381E09D
:1012800090E0DF91CF9108951092370410923604C8
:1012900088EE93E0A0E0B0E08093380490933904A6
:1012A000A0933A04B0933B0486E593E09093350411
:1012B000809334048CEA93E090934104809340043B
:1012C00080EF93E0909343048093420485EC90E098
:1012D000909345048093440484EC90E090934704F9
:1012E0008093460480EC90E09093490480934804F6
:1012F00081EC90E090934B0480934A0482EC90E060
:1013000090934D0480934C0486EC90E090934F04AE
:1013100080934E0484E08093500483E080935104D2
:1013200087E08093520485E08093530481E08093AA
:1013300054040895CF93DF93D0D55BDDC6ECD7E09E
:10134000B0DA2097E9F322DEFBCFCF92DF92EF9263
:10135000FF920F931F93CF93DF937C016B018A0160
:10136000C0E0D0E00FC0D6016D916D01D701ED91C5
:10137000FC910190F081E02DC7010995C80FD91F9C
:10138000015010400115110571F7CE01DF91CF9189
:101390001F910F91FF90EF90DF90CF900895EF9203
:1013A000FF920F931F938C01DC01ED91FC91019052
:1013B000F081E02D6DE009957C01D801ED91FC9163
:1013C0000190F081E02DC8016AE009959C012E0D85
:1013D0003F1DC9011F910F91FF90EF900895CF938A
:1013E000DF93EC016115710519F420E030E00FC0C6
:1013F000DB010D900020E9F71197A61BB70BE881E0
:10140000F9810280F381E02DAD0109959C01C901AC
:10141000DF91CF9108954F925F927F928F929F922A
:10142000AF92BF92CF92DF92EF92FF920F931F93F2
:10143000DF93CF93CDB7DEB7A1970FB6F894DEBF99
:101440000FBECDBF2C01742ECB01223008F42AE050
:1014500019A231E2C32ED12CCC0EDD1E822E99248E
:10146000AA24BB24672D752FA5019401AFD779015C
:101470008A01C801B701A501940189D7472D461BF0
:101480000894C108D1084A3014F4405D01C0495C99
:10149000F6014083E114F1040105110521F07E2CD1
:1014A0005F2DC801DFCFC201B60199DFA1960FB64B
:1014B000F894DEBF0FBECDBFCF91DF911F910F918A
:1014C000FF90EF90DF90CF90BF90AF909F908F9064
:1014D0007F905F904F900895DC012115310541F414
:1014E000ED91FC910190F081E02D642F0995089514
:1014F00092CFEF92FF920F931F937C01EDDF8C014F
:10150000C7014DDF9C01200F311FC9011F910F91B1
:10151000FF90EF900895CF92DF92EF92FF920F939A
:101520001F936C01E62E9A01FF2400E010E0B80141
:10153000A701D2DF8C01C60132DF080F191FC801D5
:101540001F910F91FF90EF90DF90CF900895CF9271
:10155000DF92EF92FF920F931F93CF93DF93EC01F3
:101560006A017B012115310541F4E881F98101907F
:10157000F081E02D642F09951DC02A303105C9F492
:1015800077FF16C0E881F9810190F081E02D6DE2CE
:1015900009958C0144275527BA014C195D096E093C
:1015A0007F09CE012AE037DF9801280F391F03C0D9
:1015B0002AE031DF9C01C901DF91CF911F910F918A
:1015C000FF90EF90DF90CF900895EF92FF920F93EE
:1015D0001F937B019A010027F7FC0095102FB8019B
:1015E000A701B5DF1F910F91FF90EF900895CF9263
:1015F000DF92EF92FF920F931F936C017B019A0190
:101600000027F7FC0095102FB801A701A0DF8C017F
:10161000C601C5DE080F191FC8011F910F91FF9069
:10162000EF90DF90CF900895DACE08957F928F9259
:101630009F92AF92BF92CF92DF92EF92FF920F9361
:101640001F93CF93DF934C017A018B01722ECB0154
:10165000BA01A801970197D6882321F0C40169E354
:1016600073E01FC0C0E0D0E057016801E894D7F8EC
:10167000C601B5012FEF3FEF4FE75FE784D6882320
:1016800049F4C601B5012FEF3FEF4FE75FE7C5D43F
:10169000181614F0C1E0D0E0219731F0C4016DE3D9
:1016A00073E09DDEEC0184C0C801B7012FEF3FEF6E
:1016B0004FE75FE401D618164CF0C801B7012FEFD1
:1016C0003FEF4FE75FECA9D4882324F4C40161E421
:1016D00073E0E7CFC801B70120E030E040E050E020
:1016E0009CD487FD03C0C0E0D0E00EC0D401ED91D2
:1016F000FC910190F081E02DC4016DE20995EC01AF
:1017000017FB109517F9109520E030E040E05FE3FB
:10171000DD240AC0CA01B90120E030E040E251E412
:1017200080D49B01AC01D394D714A0F3C801B701B6
:1017300010D45B016C01E2D47B018C01C401B801BF
:10174000A7012AE030E0C8DEC80FD91F772031F0AA
:10175000C40165E473E043DEC80FD91FC801B701B7
:10176000F9D49B01AC01C601B501F2D31FC020E042
:1017700030E040E251E4A4D57B018C01BAD45B0196
:101780006C01CC24B7FCC094DC2CC401B601A501CB
:101790002AE030E0DCDEC80FD91FC601B501DCD479
:1017A0009B01AC01C801B701D3D37A947720F9F635
:1017B000CE01DF91CF911F910F91FF90EF90DF90BD
:1017C000CF90BF90AF909F908F907F9008952ECF35
:1017D0000895EF92FF920F931F937C0127DF8C01F6
:1017E000C701DDDD080F191FC8011F910F91FF9080
:1017F000EF900895EF92FF920F931F937C01EFDD1E
:101800008C01C701CCDD080F191FC8011F910F9172
:10181000FF90EF900895EF92FF920F931F937B013B
:101820008C01611571058105910529F420E030E0F6
:1018300040E050E00AC00E94B201A8019701E8D53B
:10184000AC01CB01DA019C01AD01B901CA011F91C4
:101850000F91FF90EF900895EF92FF920F931F93D7
:101860007B018C0162177307840795075CF4261BC4
:10187000370B480B590BCA01B901CDDFE60EF71E35
:10188000081F191FB701C8011F910F91FF90EF901A
:101890000895009729F0BC0180E090E00C94B50118
:1018A00008958F929F92AF92BF92CF92DF92EF9264
:1018B000FF920F931F93CF93DF934C01CB01BA019B
:1018C00069015801C0E0D0E013C07B018C0108948D
:1018D000E11CF11C011D111DD6014D916D01D401BA
:1018E0001896ED91FC91199709952196C801B701B9
:1018F000CA15DB0550F3DF91CF911F910F91FF9037
:10190000EF90DF90CF90BF90AF909F908F90089511
:101910008F929F92AF92BF92CF92DF92EF92FF92FF
:101920000F931F93CF93DF934C0169015801C0E0DF
:10193000D0E015C07A018B010894E11CF11C011D57
:10194000111DD4011A96ED91FC911B97CB01BA01A0
:101950000995F60181936F012196B801A701CA1577
:10196000DB0540F3DF91CF911F910F91FF90EF9036
:10197000DF90CF90BF90AF909F908F9008950F937E
:101980001F93FC0140815181628173813C969F01CC
:101990000AE010E086DF1F910F9108950F931F93C7
:1019A000FC0140815181628173813C969F010AE074
:1019B00010E0AEDF1F910F910895FC0171876087E1
:1019C000538742870895EF92FF920F931F93FC0174
:1019D0004083518362837383465F5F4F6F4F7F4FB6
:1019E0004483558366837783148615861686178607
:1019F000F18AE08A028B138B248B358BC0DF80E069
:101A000090E01F910F91FF90EF900895FC0180816D
:101A10009181A281B3810A96A11DB11D8483958312
:101A2000A683B783CF01BADF80E090E00895CF921C
:101A3000DF92EF92FF920F931F937C01CB01BA01CB
:101A40006901F70100891189615070408040904020
:101A5000980140E050E09BD4DC01CB01F7014481C8
:101A6000558166817781480F591F6A1F7B1FC70107
:101A7000960117DF80E090E01F910F91FF90EF90AB
:101A8000DF90CF900895AF92BF92CF92DF92EF9206
:101A9000FF920F931F93CF93DF93EC016A017B01B9
:101AA0005901411551056105710531F18C859D85FF
:101AB000AE85BF8584179507A607B707E8F00889A4
:101AC00019890894C108D108E108F108980140E09B
:101AD00050E0C701B6015BD4DC01CB014C815D81D4
:101AE0006E817F81480F591F6A1F7B1FCE019501B0
:101AF0000FDF20E030E002C021E030E0C901DF91DB
:101B0000CF911F910F91FF90EF90DF90CF90BF90FA
:101B1000AF900895FC0184859585A685B7858417C7
:101B20009507A607B70718F421E030E004C0CF01FD
:101B30007EDF20E030E0C9010895CF92DF92EF927E
:101B4000FF920F931F93CF93DF93EC016B01EC8413
:101B5000FD840E851F850894E11CF11C011D111DDB
:101B60006A897B898C899D892C813D814E815F8129
:101B7000621B730B840B950B2889398940E050E078
:101B800025D42E153F054007510718F422E030E018
:101B90000DC0EC86FD860E871F87CE01B801A70118
:101BA000960145DFCE01EBDE20E030E0C901DF9198
:101BB000CF911F910F91FF90EF90DF90CF900895FC
:101BC000FC0164857585868597850895FC01628989
:101BD0007389848995892481358146815781621B67
:101BE000730B840B950B2089318940E050E0EED3D4
:101BF000CA01B9010895CF92DF92EF92FF920F933D
:101C00001F936C01CBDEF6014081518162817381AB
:101C10000289138924893589E088F188C601D3DED9
:101C20001F910F91FF90EF90DF90CF9008956F92EA
:101C30007F928F929F92AF92BF92CF92DF92EF925C
:101C4000FF920F931F93CF93DF93EC015A016B0127
:101C50003901EC84FD840E851F85888899886A89FE
:101C60007B898C899D892C813D814E815F81621B9E
:101C7000730B840B950B940140E050E0A7D3E21660
:101C8000F3060407150719F422E030E050C0E11410
:101C9000F1040105110549F0EA14FB040C051D05CA
:101CA00008F055C021E030E042C081E0A816B10440
:101CB000C104D10409F04BC0CE01B3013EDF9C0149
:101CC00036C0CE01B801A701292D382DDCDE0894DD
:101CD000E11CF11C011D111DCE01B801A701292D28
:101CE000382DA5DE8EEF9FEFAFEFBFEFE80EF91EA8
:101CF0000A1F1B1FEA14FB040C051D0510F7892D94
:101D0000982D0E940901CE01B601A50193018FDE35
:101D10008C859D85AE85BF850196A11DB11D8C87E3
:101D20009D87AE87BF87CE012ADE20E030E0C90163
:101D3000DF91CF911F910F91FF90EF90DF90CF90A7
:101D4000BF90AF909F908F907F906F900895C40147
:101D50000E945F00982E892EEC84FD840E851F85DD
:101D6000C9CF8F929F92AF92BF92CF92DF92EF92A4
:101D7000FF920F931F93CF93DF93EC015A016B01F6
:101D80008C859D85AE85BF8584179507A607B70707
:101D900018F421E030E038C0888999890E945F00FA
:101DA000982E892E0EC0CE01B801A701292D382DFD
:101DB0006ADECE01B601A501292D382D38DE570186
:101DC0006801860175010894E11CF11C011D111DBB
:101DD0008C859D85AE85BF858E159F05A007B107B3
:101DE00010F7892D982D0E9409018C859D85AE855F
:101DF000BF850197A109B1098C879D87AE87BF87F1
:101E0000CE01BDDD20E030E0C901DF91CF911F910F
:101E10000F91FF90EF90DF90CF90BF90AF909F9089
:101E20008F900895F999FECF72BD61BDF89A80B583
:101E30000895F999FECF1FBA72BD61BD40BD0FB6BE
:101E4000F894FA9AF99A0FBE08951F920F920FB65E
:101E50000F9211242F933F938F939F93AF93BF9330
:101E600080915B0490915C04A0915D04B0915E044C
:101E700030915F040196A11DB11D232F2D5F2D37D9
:101E800020F02D570196A11DB11D20935F04809372
:101E90005B0490935C04A0935D04B0935E04809116
:101EA000570490915804A0915904B0915A04019696
:101EB000A11DB11D8093570490935804A093590419
:101EC000B0935A04BF91AF919F918F913F912F9101
:101ED0000F900FBE0F901F901895789484B5826074
:101EE00084BD84B5816084BD85B5826085BD85B5BE
:101EF000816085BDEEE6F0E0808181608083E1E86D
:101F0000F0E01082808182608083808181608083A4
:101F1000E0E8F0E0808181608083E1EBF0E08081A7
:101F200084608083E0EBF0E0808181608083EAE779
:101F3000F0E0808184608083808182608083808102
:101F4000816080838081806880831092C1000895C1
:101F50005058BB27AA270ED075C166D130F06BD17F
:101F600020F031F49F3F11F41EF45BC10EF4E095B4
:101F7000E7FB51C1E92F77D180F3BA1762077307E6
:101F80008407950718F071F49EF58FC10EF4E09563
:101F90000B2EBA2FA02D0B01B90190010C01CA0123
:101FA000A0011124FF27591B99F0593F50F4503ECE
:101FB00068F11A16F040A22F232F342F4427585FC0
:101FC000F3CF469537952795A795F0405395C9F7D8
:101FD0007EF41F16BA0B620B730B840BBAF0915090
:101FE000A1F0FF0FBB1F661F771F881FC2F70EC02F
:101FF000BA0F621F731F841F48F487957795679502
:10200000B795F7959E3F08F0B3CF9395880F08F0EA
:102010009927EE0F979587950895D9D008F481E018
:1020200008950CD00FC107D140F0FED030F021F45C
:102030005F3F19F0F0C0511139C1F3C014D198F3CA
:102040009923C9F35523B1F3951B550BBB27AA2739
:1020500062177307840738F09F5F5F4F220F331FAB
:10206000441FAA1FA9F333D00E2E3AF0E0E830D077
:1020700091505040E695001CCAF729D0FE2F27D07A
:10208000660F771F881FBB1F261737074807AB0748
:10209000B0E809F0BB0B802DBF01FF2793585F4FBD
:1020A0002AF09E3F510568F0B6C000C15F3FECF3D7
:1020B000983EDCF3869577956795B795F7959F5F82
:1020C000C9F7880F911D9695879597F90895E1E0D6
:1020D000660F771F881FBB1F621773078407BA0735
:1020E00020F0621B730B840BBA0BEE1F88F7E09590
:1020F000089504D06894B111D9C00895BCD088F077
:102100009F5790F0B92F9927B751A0F0D1F0660FE3
:10211000771F881F991F1AF0BA95C9F712C0B130FE
:1021200081F0C3D0B1E00895C0C0672F782F882711
:10213000B85F39F0B93FCCF3869577956795B3953D
:10214000D9F73EF490958095709561957F4F8F4FAC
:102150009F4F0895E89409C097FB3EF490958095B1
:10216000709561957F4F8F4F9F4F9923A9F0F92F5D
:1021700096E9BB279395F695879577956795B795DB
:10218000F111F8CFFAF4BB0F11F460FF1BC06F5FC1
:102190007F4F8F4F9F4F16C0882311F096E911C0D3
:1021A000772321F09EE8872F762F05C0662371F0F4
:1021B00096E8862F70E060E02AF09A95660F771F08
:1021C000881FDAF7880F9695879597F90895990FE4
:1021D0000008550FAA0BE0E8FEEF16161706E807F1
:1021E000F907C0F012161306E407F50798F0621B12
:1021F000730B840B950B39F40A2661F0232B242BE7
:10220000252B21F408950A2609F4A140A6958FEF05
:10221000811D811D089597F99F6780E870E060E057
:1022200008959FEF80EC089500240A94161617066F
:1022300018060906089500240A94121613061406B7
:1022400005060895092E0394000C11F4882352F01A
:10225000BB0F40F4BF2B11F460FF04C06F5F7F4FD2
:102260008F4F9F4F089557FD9058440F551F59F0B9
:102270005F3F71F04795880F97FB991F61F09F3F73
:1022800079F087950895121613061406551FF2CF9C
:102290004695F1DF08C0161617061806991FF1CFEC
:1022A00086957105610508940895E894BB27662713
:1022B0007727CB0197F908958ADF08F48FEF089507
:1022C0000BD0C0CFB1DF28F0B6DF18F0952309F0AE
:1022D000A2CFA7CF1124EACFC6DFA0F3959FD1F3F9
:1022E000950F50E0551F629FF001729FBB27F00DC4
:1022F000B11D639FAA27F00DB11DAA1F649F662719
:10230000B00DA11D661F829F2227B00DA11D621F67
:10231000739FB00DA11D621F839FA00D611D221F21
:10232000749F3327A00D611D231F849F600D211D05
:10233000822F762F6A2F11249F5750408AF0E1F0A8
:1023400088234AF0EE0FFF1FBB1F661F771F881FF1
:1023500091505040A9F79E3F510570F05CCFA6CF39
:102360005F3FECF3983EDCF3869577956795B795DC
:10237000F795E7959F5FC1F7FE2B880F911D969506
:10238000879597F9089523DF880B990B0895629F2D
:10239000D001739FF001829FE00DF11D649FE00D5D
:1023A000F11D929FF00D839FF00D749FF00D659FBE
:1023B000F00D9927729FB00DE11DF91F639FB00DBD
:1023C000E11DF91FBD01CF0111240895A1E21A2ECC
:1023D000AA1BBB1BFD010DC0AA1FBB1FEE1FFF1FC9
:1023E000A217B307E407F50720F0A21BB30BE40B19
:1023F000F50B661F771F881F991F1A9469F7609560
:102400007095809590959B01AC01BD01CF01089519
:1024100097FB092E05260ED057FD04D0D7DF0AD032
:10242000001C38F450954095309521953F4F4F4F03
:102430005F4F0895F6F790958095709561957F4F61
:102440008F4F9F4F0895EE0FFF1F0590F491E02DE1
:1024500009942F923F924F925F926F927F928F9248
:102460009F92AF92BF92CF92DF92EF92FF920F9323
:102470001F93CF93DF93CDB7DEB7CA1BDB0B0FB62D
:10248000F894DEBF0FBECDBF09942A8839884888EA
:102490005F846E847D848C849B84AA84B984C88480
:1024A000DF80EE80FD800C811B81AA81B981CE0F77
:1024B000D11D0FB6F894DEBF0FBECDBFED0108955C
:0424C000F894FFCFBE
:1024C4004552524F523A20005265636E6F206F7529
:1024D40074206F662072616E6765005461626C657A
:1024E4002066756C6C004F4B00417070656E6469BA
:1024F4006E67207265636F72642E2E2E00444F4EF9
:102504004500496E73657274696E67207265636F06
:102514007264206174207265636E6F3A20002E2EFF
:102524002E005570646174696E67207265636F7202
:1025340064206174207265636E6F3A200052656393
:102544006E6F3A20002049443A20002044617461AF
:1025540020496E696369616C3A20002044617461AA
:102564002046696E616C3A2000206D61696F72418A
:102574006C7469747564653A2000206D656E6F72C1
:10258400416C7469747564653A2000206D61696FEB
:10259400724163656C65726163616F417363653A2F
:1025A4002000206D61696F724163656C65726163BF
:1025B400616F44657363653A20002054656D7065EE
:1025C4007261747572613A20004372656174696E58
:1025D40067205265636F7264732E2E2E0032303082
:1025E400392D253032642D25303264002D2D2D2DCA
:1025F4002D2D2D2D2D2D2D2D2D2D2D2D2D2D2D2D07
:102604002D2D2D2D2D2D2D2D2D2D2D2D2D2D2D2DF6
:102614002D2D2D2D2D2D2D2D2D2D2D2D2D2D2D2DE6
:102624002D2D2D2D2D2D2D2D2D2D2D2D2D2D0052DE
:1026340065636F726420436F756E743A2000547240
:10264400756E636174696E67207461626C652E2EA9
:102654002E0044656C6574696E67207265636E6FE5
:102664003A20005265636F7264204C696D69743A54
:102674002000457874656E64656420446174616209
:10268400617365204C696272617279202B204172FA
:102694006475696E6F20496E7465726E616C204555
:1026A4004550524F4D2044656D6F0043726561740F
:1026B400696E67207461626C652E2E2E00557365F9
:1026C40020696E73657274526563282920616E6493
:1026D4002064656C657465526563282920636172A2
:1026E4006566756C6C792C20746865792063616EFD
:1026F40020626520736C6F77006E616E00696E6690
:10270400006F7666002E00200064040000010000C3
:102714000001000000000409A5099A08CB08AB08D1
:02272400F408B7
:00000001FF
