:100000001EC4000044C4000042C400000C94FA1B4B
:100010000C94231C0C944C1C3AC4000038C40000FF
:1000200036C4000034C4000032C4000030C40000F4
:100030002EC400002CC400002AC4000028C4000004
:100040000C946C2524C400000C94930F0C94E00FC6
:100050001EC400001CC400001AC4000018C4000024
:1000600016C4000014C400004B1A5E1A6D1A801AE0
:10007000871AD31ADC1AE71AEE1AF41AF41AF41AC9
:10008000F41AF41AF41AF41AF41AF41AF41AF41A00
:10009000F41AF41AF41AF41AF41AF41AF41AF41AF0
:1000A000F41AF41AF41AF41A4B1A561A5E1A6D1A44
:1000B000801A871A9A1AA11AA81A204C6F6E6769BB
:1000C000747564653A2000204C61746974756465C8
:1000D0003A200020416C7469747564653A200020F0
:1000E0004461746120496E696369616C3A20002043
:1000F00049443A20005265636E6F3A20004C6F6E9F
:100100006769747564653A20004C6174697475643C
:10011000653A2000416C7469747564653A20004E3C
:100120006F6D6520576179706F696E743A20002099
:1001300049443A2000496E646963653A2000417081
:1001400061676172205455444F21004F4B00546148
:10015000626C652066756C6C005265636E6F206F13
:100160007574206F662072616E6765004552524F4C
:10017000523A200042616E636F20576179706F6957
:100180006E742063726961646F210042616E636FF7
:1001900020576179706F696E742061626572746F47
:1001A0002100206D73004E6F2044617461004C6F1C
:1001B0006E3A20004C61743A200020004B6D70684C
:1001C000004D74730020003A00536174656C6C69D3
:1001D0007465733A20005370656564286B6D7068B0
:1001E000293A2000436F7572736520286465677231
:1001F000656573293A2000416C74697475646520E3
:10020000286D6574657273293A20002E003A003A11
:10021000002054696D653A20002F002F004461745E
:10022000653A20002C20004C61742F4C6F6E673AA9
:100230002000496E696369616E646F2044422E2E0E
:100240002E00496E696369616E646F204750532EBA
:100250002E2E0000000000240027002A00000000CD
:1002600000250028002B00000000002300260029A4
:10027000000404040404040404020202020202034F
:100280000303030303010204081020408001020459
:1002900008102001020408102000000007000201DD
:1002A0000000030406000000000000000000C2017E
:1002B000000100110011000C0000E100000A0025FF
:1002C0000025002100009600001900390039003691
:1002D00000127A00001F00460046004400807000B3
:1002E0000022004D004D004A00004B000036007512
:1002F0000075007200403800004A009C009C009984
:1003000000802500007200EC00EC00E900C0120043
:1003100000E900DA01DA01D70160090000D701B66F
:1003200003B603B303B0040000B3036E076E076B9C
:10033000072C010000DC0EC11DC11DBE1D00000008
:1003400000003E5B4F5B3E3E6B4F6B3E1C3E7C3E77
:100350001C183C7E3C181C577D571C1C5E7F5E1C85
:1003600000183C1800FFE7C3E7FF0018241800FF3F
:10037000E7DBE7FF30483A060E2629792926407F39
:10038000050507407F05253F5A3CE73C5A7F3E1C48
:100390001C08081C1C3E7F14227F22145F5F005F34
:1003A0005F06097F017F006689956A606060606012
:1003B00094A2FFA29408047E040810207E20100856
:1003C000082A1C08081C2A08081E101010100C1EF1
:1003D0000C1E0C30383E3830060E3E0E0600000073
:1003E000000000005F00000007000700147F147F7A
:1003F00014242A7F2A122313086462364956205097
:100400000008070300001C2241000041221C002AB2
:100410001C7F1C2A08083E0808008070300008086D
:10042000080808000060600020100804023E5149DE
:10043000453E00427F400072494949462141494DAD
:10044000331814127F1027454545393C4A49493134
:1004500041211109073649494936464949291E00B3
:10046000001400000040340000000814224114145D
:10047000141414004122140802015909063E415D7A
:10048000594E7C1211127C7F494949363E41414107
:10049000227F4141413E7F494949417F0909090184
:1004A0003E414151737F0808087F00417F41002091
:1004B00040413F017F081422417F404040407F027D
:1004C0001C027F7F0408107F3E4141413E7F0909A5
:1004D00009063E4151215E7F0919294626494949AD
:1004E0003203017F01033F4040403F1F2040201F57
:1004F0003F4038403F6314081463030478040361E9
:1005000059494D43007F41414102040810200041F8
:1005100041417F0402010204404040404000030783
:10052000080020545478407F2844443838444444D8
:1005300028384444287F385454541800087E09024F
:1005400018A4A49C787F0804047800447D4000200F
:1005500040403D007F1028440000417F40007C0463
:100560007804787C080404783844444438FC18241F
:10057000241818242418FC7C0804040848545454F3
:100580002404043F44243C4040207C1C2040201C88
:100590003C4030403C44281028444C9090907C448F
:1005A00064544C44000836410000007700000041CC
:1005B00036080002010204023C2623263C1EA1A1AB
:1005C00061123A4040207A38545455592155557992
:1005D0004121545478412155547840205455794054
:1005E0000C1E5272123955555559395454545939B3
:1005F000555454580000457C410002457D4200019D
:10060000457C40F0292429F0F0282528F07C545519
:1006100045002054547C547C0A097F493249494999
:10062000323248484832324A4848303A4141217AC9
:100630003A42402078009DA0A07D39444444393D91
:100640004040403D3C24FF2424487E4943662B2FF4
:10065000FC2F2BFF0929F620C0887E090320545463
:1006600079410000447D413048484A3238404022B8
:100670007A007A0A0A727D0D19317D2629292F28E0
:10068000262929292630484D40203808080808081E
:10069000080808382F10C8ACBA2F102834FA000008
:1006A0007B000008142A142222142A1408AA0055D8
:1006B00000AAAA55AA55AA000000FF00101010FFBA
:1006C00000141414FF001010FF00FF1010F010F0C1
:1006D000141414FC001414F700FF0000FF00FF14B2
:1006E00014F404FC141417101F10101F101F1414FE
:1006F000141F00101010F0000000001F1010101048
:100700001F10101010F010000000FF10101010103B
:1007100010101010FF10000000FF140000FF00FF79
:1007200000001F10170000FC04F414141710171415
:1007300014F404F40000FF00F71414141414141437
:10074000F700F7141414171410101F101F141414AA
:10075000F4141010F010F000001F101F0000001F14
:1007600014000000FC140000F010F01010FF10FF47
:10077000141414FF141010101F00000000F010FFDC
:10078000FFFFFFFFF0F0F0F0F0FFFFFF00000000C0
:1007900000FFFF0F0F0F0F0F38444438447C2A2A04
:1007A0003E147E02020606027E027E026355494125
:1007B000633844443C04407E201E2006027E020230
:1007C00099A5E7A5991C2A492A1C4C7201724C3044
:1007D0004A4D4D303048784830BC625A463D3E491B
:1007E0004949007E0101017E2A2A2A2A2A44445FBF
:1007F000444440514A444040444A51400000FF01B3
:1008000003E080FF000008086B6B083612362436C0
:10081000060F090F06000018180000001010003025
:1008200040FF0101001F01011E00191D1712003CAD
:100830003C3C3C000000000023094C111E0911241F
:100840001FBECFEFD8E0DEBFCDBF13E0A0E0B1E028
:10085000EAE9F1E502C005900D92A83CB107D9F78D
:1008600015E0A8ECB3E001C01D92A63EB107E1F788
:1008700018E0CCE3D8E004C02297FE010E9486284D
:10088000C833D107C9F70E94A2110C94C128B8CB74
:10089000CF93DF93BC018230910510F462E070E0E9
:1008A000A091E405B091E505ED01E0E0F0E040E065
:1008B00050E021C0888199818617970769F48A8161
:1008C0009B81309719F09383828304C09093E50550
:1008D0008093E405FE0134C06817790738F44115A8
:1008E000510519F08417950708F4AC01FE018A81BF
:1008F0009B819C01E9012097E9F641155105A9F179
:10090000CA01861B970B049708F4BA01E0E0F0E0F7
:100910002AC08D919C91119784179507F9F464175B
:10092000750781F412968D919C911397309719F069
:100930009383828304C09093E5058093E405FD01D1
:1009400032964CC0CA01861B970BFD01E80FF91FB8
:100950006193719302978D939C9340C0FD018281B6
:1009600093819C01D9011097A1F68091E2059091A5
:10097000E305892B41F4809168019091690190937E
:10098000E3058093E20540916A0150916B014115A6
:10099000510541F44DB75EB78091660190916701B2
:1009A000481B590B2091E2053091E305CA01821BD7
:1009B000930B8617970780F0AB014E5F5F4F84174C
:1009C000950750F0420F531F5093E3054093E20503
:1009D000F9016193719302C0E0E0F0E0CF01DF9193
:1009E000CF910895CF93DF93009709F450C0EC01A5
:1009F00022971B821A82A091E405B091E505109719
:100A000009F140E050E0AC17BD0708F1BB83AA83B1
:100A1000FE0121913191E20FF31FAE17BF0779F468
:100A20008D919C911197280F391F2E5F3F4F39836D
:100A3000288312968D919C9113979B838A834115ED
:100A4000510571F4D093E505C093E40520C01296DA
:100A50008D919C911397AD01009711F0DC01D3CFDC
:100A6000FA01D383C28321913191E20FF31FCE1794
:100A7000DF0769F488819981280F391F2E5F3F4F66
:100A8000FA01318320838A819B8193838283DF9162
:100A9000CF910895A0E0B0E0E0E5F5E00C948C285B
:100AA0006C01009721F4CB01F3DE6C01BDC08EEF29
:100AB000882E8FEF982E8C0C9D1C8601060F171F19
:100AC0000815190508F4AEC0F401A081B181A6177C
:100AD000B707B0F0A530B10508F4A6C0CD01049762
:100AE0008617970708F4A0C01297A61BB70BF8014A
:100AF000A193B193D4016D937C93CF0173DF94C024
:100B00007B01EA1AFB0AEEEFFFEFEE0EFF1E360145
:100B10006A0E7B1EC091E405D091E505442455245E
:100B2000AA24BB244AC0C615D705E1F548815981DE
:100B30004E155F05B8F1CA0104978E159F05B0F4F4
:100B40001296A40FB51FF401B183A0832A813B81C3
:100B50004114510431F0D20113963C932E93129715
:100B600063C03093E5052093E4055EC08A819B81D4
:100B7000F80193838283425050404E195F0951839C
:100B800040834114510431F0D20113961C930E930B
:100B9000129704C01093E5050093E405F4017183F6
:100BA000608342C088819981A816B90608F45C0167
:100BB0002E018A819B819C01E901209709F0B3CF26
:100BC0008091E2059091E30586159705E9F4A61654
:100BD000B706D0F420916A0130916B0121153105DF
:100BE00041F42DB73EB78091660190916701281BB3
:100BF000390B02171307B0F41093E3050093E205D5
:100C0000D4016D937C9310C0CB0142DEEC010097C0
:100C100049F0F40140815181B60129D0C601E2DEDC
:100C20006E0102C0CC24DD24C601CDB7DEB7E0E101
:100C30000C94A828FC0188279927E8942191203258
:100C4000E9F3293010F02E30C8F32B3239F02D3271
:100C500031F4689403C01BD0820F911D2191205361
:100C60002A30C8F31EF4909581959F4F0895FB019B
:100C7000DC0102C001900D9241505040D8F7089518
:100C8000FB01DC0101900D920020E1F708957AE06C
:100C9000979F902D879F802D910D11240895AEE090
:100CA000B0E0E5E5F6E00C9498280D891E8986E011
:100CB0008C831A8309838FEF9FE79E838D839E0128
:100CC000275E3F4FCE0101966F89788DA9010AD02A
:100CD0002F813885020F131FF80110822E96E4E051
:100CE0000C94B428ABE0B0E0E8E7F6E00C948A2876
:100CF0003C012B015A01FC0117821682838181FD80
:100D000003C06FEF7FEFB9C19AE0892E1E010894EE
:100D1000211C311CF3012381F20123FD859123FF66
:100D200081912F01882309F4A5C1853239F423FD6F
:100D3000859123FF81912F01853221F490E0B30149
:100D4000B7D1E8CF982FFF24EE249924FFE1FF15B7
:100D5000D0F09B3269F09C3228F4903259F09332F3
:100D600091F40EC09D3249F0903369F441E024C003
:100D700052E0F52A84E0F82A28C098E0F92A25C034
:100D8000E0E1FE2A22C0F7FC29C0892F80538A3077
:100D900070F4F6FE05C0989C902C1124980E15C096
:100DA000E89CE02C1124E80EF0E2FF2A0EC09E32EF
:100DB00029F4F6FC5FC140E4F42A07C09C3619F41C
:100DC00050E8F52A02C0983649F4F20123FD9591C6
:100DD00023FF91912F01992309F0B8CF892F8554D2
:100DE000833018F08052833038F444E050E0A40E91
:100DF000B51E5FE359830FC0933631F0933779F016
:100E0000933509F052C01FC0F5018081898342E00B
:100E100050E0A40EB51E610101E010E011C0F50123
:100E2000C080D180F6FC03C06FEF7FEF02C0692D58
:100E300070E042E050E0A40EB51EC6012ED18C0138
:100E40005FE7F52213C0F501C080D180F6FC03C036
:100E50006FEF7FEF02C0692D70E042E050E0A40E1A
:100E6000B51EC6010FD18C0150E8F52AF3FE06C06D
:100E700018C080E290E0B3011BD1EA948E2D90E07F
:100E800008171907B0F30DC0F601F7FC8591F7FEBE
:100E900081916F0190E0B3010BD1E110EA94015010
:100EA00010400115110581F7E2C0943611F0993612
:100EB00061F5F7FE08C0F50120813181428153813F
:100EC00084E090E00AC0F501808191819C01442773
:100ED00037FD4095542F82E090E0A80EB91E9FE6A2
:100EE000F92257FF09C050954095309521953F4F05
:100EF0004F4F5F4FE0E8FE2ACA01B901A1012AE085
:100F000030E002D1D82ED2183FC0953729F41F2DDA
:100F10001F7E2AE030E01DC01F2D197F9F3661F033
:100F2000903720F4983509F0A5C00FC0903739F0FC
:100F3000983709F09FC004C028E030E00AC0106173
:100F400014FD146020E130E004C014FD166020E1BF
:100F500032E017FF08C0F5016081718182819381C1
:100F600044E050E008C0F50180819181BC0180E03F
:100F700090E042E050E0A40EB51EA101C5D0D82EED
:100F8000D2188FE7F82EF122F6FE0BC05EEFF522A5
:100F9000D91438F4F4FE07C0F2FC05C08FEEF82235
:100FA00002C01D2D01C0192DF4FE0DC0FE01ED0D76
:100FB000F11D8081803319F499EEF92208C01F5F7A
:100FC000F2FE05C003C08F2D867809F01F5F0F2D3C
:100FD000F3FC13C0F0FE0EC01E1510F09D2C0AC0CD
:100FE0009D2C9E0C911A1E2D05C080E290E0B3014D
:100FF0005FD01F5F1E15C8F304C01E1510F4E11A60
:1010000001C0EE2404FF0EC080E390E0B30150D095
:1010100002FF1BC001FD03C088E790E00EC088E519
:1010200090E00BC0802F867881F001FF02C08BE238
:1010300001C080E2F7FC8DE290E0B30139D005C039
:1010400080E390E0B30134D09A94D914C8F3DA94D1
:10105000F101ED0DF11D808190E0B30129D0DD207B
:10106000B1F705C080E290E0B30122D0EA94EE200F
:10107000C9F750CEF30166817781CB012B96E2E16F
:101080000C94A628FC010590615070400110D8F71F
:10109000809590958E0F9F1F0895FC0161507040C0
:1010A00001900110D8F7809590958E0F9F1F08959D
:1010B0000F931F93CF93DF938C01EB018B8181FF03
:1010C0001BC082FF0DC02E813F818C819D8128171E
:1010D000390764F4E881F9810193F983E88306C054
:1010E000E885F985802F0995892B31F48E819F81C0
:1010F00001969F838E8302C00FEF1FEFC801DF911F
:10110000CF911F910F910895FA01AA27283051F12C
:10111000203181F1E8946F936E7F6E5F7F4F8F4F28
:101120009F4FAF4FB1E03ED0B4E03CD0670F781F87
:10113000891F9A1FA11D680F791F8A1F911DA11D6C
:101140006A0F711D811D911DA11D20D009F46894A5
:101150003F912AE0269F11243019305D3193DEF64D
:10116000CF010895462F4770405D4193B3E00FD003
:10117000C9F7F6CF462F4F70405D4A3318F0495DEE
:1011800031FD4052419302D0A9F7EACFB4E0A695D1
:101190009795879577956795BA95C9F700976105F3
:1011A000710508959B01AC010A2E06945795479549
:1011B00037952795BA95C9F7620F731F841F951F3E
:1011C000A01D0895EF920F938130910539F56F5F5F
:1011D0007F4F89F586E194E060E071E00E94C714DA
:1011E0008DE194E063EF7EE04CEE5EE00E946324CC
:1011F00083E394E00E94E51486EA94E06EE04FE019
:1012000020E00E94DE1E82EC94E067E046E025E0EC
:1012100004E033E0E32E0E94C0230DC0892B59F473
:101220006F5F7F4F41F486EA94E00E94671D86E17C
:1012300094E00E94E0140F91EF90089580E090E018
:101240006FEF7FEFBFCF81E090E06FEF7FEFBACF1E
:10125000CF93DF93EC0182E795E06CE671E00E94AA
:10126000D811C130D10519F0229759F405C082E791
:1012700095E069E571E009C082E795E06EE471E010
:1012800004C082E795E06BE471E00E942312DF91D5
:10129000CF910895EF92FF920F931F9341E0E42EB8
:1012A000F12C012D112D77C08DE194E0B801A7013B
:1012B00028EF33E00E94C924009709F066C082E756
:1012C00095E065EF70E00E94D81182E795E0B701E4
:1012D0004AE050E00E943E1382E795E06FEE70E036
:1012E0000E94D8116091F8037091F90382E795E0AC
:1012F0004AE050E00E943E1382E795E06FED70E017
:101300000E94D81182E795E06AEF73E00E945014C2
:1013100082E795E063ED70E00E94D81140910904E6
:1013200050910A0460910B0470910C0482E795E0DF
:1013300022E030E00E943F1482E795E067EC70E025
:101340000E94D81140910D0450910E0460910F0439
:101350007091100482E795E022E030E00E943F1493
:1013600082E795E06AEB70E00E94D8114091110489
:1013700050911204609113047091140482E795E077
:1013800022E030E00E943F1401C062DF0894E11CBB
:10139000F11C011D111D8DE194E00E9453256E1575
:1013A0007F058007910708F07FCF1F910F91FF9075
:1013B000EF9008951F93182F482F50E060E070E0E1
:1013C0008DE194E028EF33E00E94C924009709F0F2
:1013D00060C082E795E065E371E0EAD782E795E0D7
:1013E000612F4AE050E00E94D21282E795E06FE25E
:1013F00071E0DED76091F8037091F90382E795E020
:101400004AE050E00E943E1382E795E06FE171E010
:10141000CFD782E795E06AEF73E00E94501482E72D
:1014200095E064E171E0C4D74091090450910A0449
:1014300060910B0470910C0482E795E025E030E0A8
:101440000E943F1482E795E069E071E0B1D74091D6
:101450000D0450910E0460910F047091100482E706
:1014600095E027E030E00E943F1482E795E06DEFC1
:1014700070E09ED7409111045091120460911304C2
:101480007091140482E795E027E030E00E943F1459
:1014900001C0DEDE1F9108958DE194E00E94532586
:1014A0006F5F7F4F7093F9036093F8038AEF93E0C7
:1014B00061E071E0E5DB8091E8039091E903A091A0
:1014C000EA03B091EB038093090490930A04A0937C
:1014D0000B04B0930C048091E0039091E103A09180
:1014E000E203B091E30380930D0490930E04A09364
:1014F0000F04B09310048091E4039091E503A09150
:10150000E603B091E7038093110490931204A09333
:101510001304B09314048DE194E068EF73E00E942B
:101520001025009709F094CE0895EF92FF920F9343
:101530001F938DE194E040E050E060E070E00E9495
:101540008C2482E795E06BE871E07DD78DE194E033
:101550000E9453256115710581059105A9F48DE15E
:1015600094E040E050E060E070E000E014E020E053
:1015700030E0EDE1EE2EF12C0E94692482E795E047
:1015800064E771E060D708C08DE194E00E945325C4
:10159000862F609315040EDF1F910F91FF90EF903F
:1015A00008950DC086EA94E00E946E1D682F83E3C3
:1015B00094E00E94001B882311F081E0089586EAE0
:1015C00094E00E948F1D892B69F780E00895CF92E7
:1015D000DF92EF92FF920F931F93DF93CF93CDB7DC
:1015E000DEB7A0970FB6F894DEBF0FBECDBF6B017C
:1015F0007C01CE010196C216D306E406F50621F45D
:1016000067E071E03DDB23C02DB73EB72850304086
:101610000FB6F8943EBF0FBE2DBFEDB7FEB73196A3
:10162000ADB7BEB712969C938E9311978FE091E061
:1016300093838283C482D582E682F78230DBEDB762
:10164000FEB738960FB6F894FEBF0FBEEDBFDE01B1
:101650001196FD01E00FF11F1082FD0101900020A5
:10166000E9F73197EA1BFB0BAE0FBF1F80E202C008
:101670008D933196E017F107DCF3101611062CF468
:101680000C0F1D1F80E2D8018C9382EC94E0BE0108
:101690006F5F7F4F0E945B1384DFA0960FB6F894B4
:1016A000DEBF0FBECDBFCF91DF911F910F91FF9095
:1016B000EF90DF90CF9008956F927F928F929F92DC
:1016C000AF92BF92CF92DF92EF92FF920F931F9350
:1016D000DF93CF93CDB7DEB7A0970FB6F894DEBFF8
:1016E0000FBECDBF5B016C01480137010E9462262D
:1016F000882331F58E010F5F1F4FC80167E071E04D
:10170000BFDA080D191DF8011082181419042CF401
:10171000FE01E80DF91D80E2808387E090E0BE01C4
:101720006F5F7F4F20E205C0FB01E80FF91F2083A8
:10173000019688159905C4F382EC94E0BCD749C0A2
:1017400082EC94E0B601A50197010E943D14C60108
:10175000B5010E94CE268B0177FF03C0109501953D
:101760001F4FC601B50120E030E040E050E00E948C
:101770006226E82EFF24E7FCF094EE24FF0CEE1C1A
:10178000FF240894E11CF11CF3E0083E1F071CF045
:1017900044E050E00EC0043611051CF043E050E078
:1017A00008C00A3011051CF441E050E002C042E0DC
:1017B00050E0E60CF71CE40EF51E08C082EC94E045
:1017C0006AEB71E0F5D50894E11CF11CE814F9040A
:1017D000ACF3E7DEA0960FB6F894DEBF0FBECDBF28
:1017E000CF91DF911F910F91FF90EF90DF90CF90FD
:1017F000BF90AF909F908F907F906F900895CF9201
:10180000DF92EF92FF920F931F93CF93DF937C01B0
:101810006B01DC010D900020E9F78D0101501040B3
:10182000081B190BC0E0D0E00DC0C017D10714F0A1
:1018300060E204C0F701EC0FFD1F608182EC94E0D0
:10184000DAD52196CC15DD0584F3ABDEDF91CF919F
:101850001F910F91FF90EF90DF90CF900895AF927E
:10186000BF92CF92DF92EF92FF920F931F9382EC81
:1018700094E061E00E94F62182EC94E061E070E087
:101880000E94FC2182EC94E060E070E040E050E0D7
:101890000E94F0216091F4037091F5038091F603AA
:1018A0009091F7030E94D3262FEF30E040E050E004
:1018B00003E010E08CDE82EC94E06091D0034AE01B
:1018C00050E05FD682EC94E067EC71E071D582EC79
:1018D00094E06091D1034AE050E053D682EC94E06A
:1018E00065EC71E065D56091CB037091CC038827DE
:1018F00077FD8095982F2FEF3FEF4FEF5FEF05E0DB
:1019000010E065DE82EC94E060E070E048E050E0DA
:1019100024E530E008E010E0A1E0EA2EF12C0E947E
:10192000221F82EC94E061E00E94F62182EC94E0B8
:1019300061E070E00E94FC2182EC94E06AE070E0DB
:101940004EE050E00E94F0216091E8037091E903BD
:101950008091EA039091EB03209178033091790311
:1019600040917A0350917B0306E010E0F2E0EF2E05
:10197000F12CA2DE82EC94E061EC71E019D582ECEE
:1019800094E06AE070E048E150E00E94F02160914C
:10199000F0037091F1038091F2039091F303209191
:1019A0007C0330917D0340917E0350917F0384DE60
:1019B00082EC94E061E00E94F62182EC94E06CEB12
:1019C00071E0F6D482EC94E060E070E04CE150E02D
:1019D0000E94F02182EC94E060E070E046E250E08A
:1019E00024E530E006E210E0E1E0EE2EF12C0E946A
:1019F000221F82EC94E061E00E94F62182EC94E0E8
:101A000061E070E00E94FC2182EC94E060E070E014
:101A100048E250E00E94F021A0907403B09075035A
:101A2000C0907603D09077036091EC037091ED0342
:101A30008091EE039091EF03A601950107E010E07D
:101A4000B2E0EB2EF12C38DE6091EC037091ED03E7
:101A50008091EE039091EF03A60195010E9462260A
:101A6000882319F483E191E006C083E394E00E94A7
:101A7000D7160E94981665E070E0C1DE82EC94E013
:101A80000E94B6221F910F91FF90EF90DF90CF90B0
:101A9000BF90AF9008950F931F9302EC14E0C8011C
:101AA00068E20E941C23C8016EE10E94A122C801C5
:101AB0000E9447221F910F91089589E061E09FD114
:101AC00089E060E0DBC10F931F9302E715E0C801D6
:101AD00067E272E06DD44091E0035091E1036091C0
:101AE000E2037091E303C80125E030E0C6D6C801E7
:101AF00064E272E05DD44091E4035091E5036091AB
:101B0000E6037091E703C80125E030E0B8D6C801CC
:101B10006DE172E04DD4C8016091CD034AE050E020
:101B200030D5C8016BE172E043D4C8016091CE03A7
:101B30004AE050E026D5C80169E172E039D46091ED
:101B4000C9037091CA03C8014AE050E085D5C801B5
:101B500061E172E02DD4C8016091D0034AE050E009
:101B600010D5C8016FE072E023D4C8016091D103A1
:101B70004AE050E006D5C8016DE072E019D4C80112
:101B80006091D2034AE050E0FCD4C8016BE072E0FF
:101B90000FD4C8016091D3034AE050E003D5C801D7
:101BA00067EF71E005D44091E8035091E90360913B
:101BB000EA037091EB03C80122E030E060D6C8016F
:101BC00064EE71E0F5D383E394E00E94D716AB0195
:101BD000BC01C80122E030E052D6C80166ED71E0D8
:101BE000E7D34091F0035091F1036091F2037091BB
:101BF000F303C80122E030E042D6C80169EC71E08D
:101C0000D7D34091F4035091F5036091F60370919E
:101C1000F703C80122E030E032D6C801F4D31F91A7
:101C20000F9108957F928F929F92AF92BF92CF9221
:101C3000DF92EF92FF920F931F9386EA94E00E9447
:101C4000741B772473948CC086EA94E00E946E1D06
:101C5000682F83E394E00E94001B882309F480C06E
:101C600080916B0490916C049093CC038093CB0390
:101C700083E394E060EE73E044EE53E028ED33E05C
:101C80000E9491188091D8039091D903A091DA0312
:101C9000B091DB038F5F9F4FAF4FBF4F19F410928E
:101CA000C80302C07092C80383E394E069EC73E058
:101CB0004DEC53E02EEC33E00FEC13E0F1EDEF2EA2
:101CC000F3E0FF2EE2EDCE2EE3E0DE2EB3EDAB2E01
:101CD000B3E0BB2E882499240E947F178091CF0304
:101CE00083508093D00383E394E00E94B416609302
:101CF000E8037093E9038093EA039093EB0383E393
:101D000094E00E94D7166093EC037093ED038093E8
:101D1000EE039093EF0383E394E00E94FA1660933E
:101D2000F0037093F1038093F2039093F3036091B7
:101D300073047091740480E090E00E94FF26609329
:101D4000F4037093F5038093F6039093F70383E312
:101D500094E064ED73E04CED53E02EED33E082D679
:101D600086EA94E00E948F1D892B09F06DCF1F91A8
:101D70000F91FF90EF90DF90CF90BF90AF909F902A
:101D80008F907F9008954EDF9EDE82EC94E00E945B
:101D9000472265CD0F931F9302E715E0C80140E08D
:101DA00052EC61E070E047D186EA94E040EC52E109
:101DB00060E070E00E94751CC80162E472E043D3E9
:101DC0007CDE69DEC80162E372E03DD3AEDB64DB3A
:101DD00061DA1F910F9108959B01AC0188ED95E0A8
:101DE000B9010C9459250F931F938B019C0188ED29
:101DF00095E0B8010E9460251F910F910895CF933F
:101E0000DF93482F50E0CA018B579D4FFC0134915E
:101E10004F585D4FFA018491882369F190E0880F53
:101E2000991FFC01ED5AFD4FA591B491FC01E35AB5
:101E3000FD4FC591D491662351F42FB7F8948C913E
:101E4000932F909589238C93888189230BC06230CE
:101E500061F42FB7F8948C91932F909589238C93EC
:101E60008881832B88832FBF06C09FB7F8948C91FD
:101E7000832B8C939FBFDF91CF910895482F50E023
:101E8000CA0187569D4FFC012491CA018B579D4F73
:101E9000FC0194914F585D4FFA013491332309F4BA
:101EA00040C0222351F1233071F0243028F4213036
:101EB000A1F0223011F514C02630B1F02730C1F066
:101EC0002430D9F404C0809180008F7703C08091C2
:101ED00080008F7D8093800010C084B58F7702C012
:101EE00084B58F7D84BD09C08091B0008F7703C019
:101EF0008091B0008F7D8093B000E32FF0E0EE0F73
:101F0000FF1FE35AFD4FA591B4912FB7F8946623B4
:101F100021F48C919095892302C08C91892B8C930C
:101F20002FBF089508951F920F920FB60F9211249C
:101F30002F933F934F938F939F93EF93FF938091B2
:101F4000C00082FD1DC04091C60020912A0530913D
:101F50002B052F5F3F4F2F73307080912C05909190
:101F60002D052817390771F0E0912A05F0912B050E
:101F7000E651FB4F408330932B0520932A0502C086
:101F80008091C600FF91EF919F918F914F913F916A
:101F90002F910F900FBE0F901F901895E0917E0526
:101FA000F0917F05E05CFF4F81919191208131811B
:101FB000821B930B8F739070892B09F0B3CF089518
:101FC0001F920F920FB60F9211242F933F938F936E
:101FD0009F93EF93FF9320916E0530916F05809151
:101FE0007005909171052817390731F48091C1006F
:101FF0008F7D8093C10014C0E0917005F091710550
:10200000E25DFA4F208180917005909171050196F3
:102010008F73907090937105809370052093C60024
:10202000FF91EF919F918F913F912F910F900FBE54
:102030000F901F901895AF92BF92DF92EF92FF9290
:102040000F931F93CF93DF93EC017A018B01DD2473
:10205000403081EE580780E0680780E0780711F093
:10206000DD24D39491E0A92EB12CEC89FD89DD20EB
:1020700069F0C50108A002C0880F991F0A94E2F711
:10208000808360E079E08DE390E005C0108260E835
:1020900074E88EE190E0A80197010E944E2821503B
:1020A000304040405040569547953795279580E100
:1020B0002030380720F0DD2011F0DD24D6CFE8896C
:1020C000F9893083EA89FB89208319A2EE89FF8987
:1020D000408121E030E0C9010C8C02C0880F991FBB
:1020E0000A94E2F7482B4083EE89FF894081C901B9
:1020F0000D8C02C0880F991F0A94E2F7482B408389
:10210000EE89FF894081C9010E8C02C0880F991F9A
:102110000A94E2F7482B4083EE89FF8980810F8C77
:1021200002C0220F331F0A94E2F720952823208350
:10213000DF91CF911F910F91FF90EF90DF90BF90B3
:10214000AF900895DC011C96ED91FC911D97E05C29
:10215000FF4F2191319180819181281B390B2F7381
:102160003070C9010895DC011C96ED91FC911D971A
:10217000E05CFF4F20813181E054F040DF01AE5B35
:10218000BF4F8D919C9111972817390719F42FEFA4
:102190003FEF07C08D919C91E80FF91F8081282F98
:1021A00030E0C9010895DC011C96ED91FC911D976A
:1021B000E05CFF4F20813181E054F040DF01AE5BF5
:1021C000BF4F8D919C9111972817390719F42FEF64
:1021D0003FEF10C08D919C911197E80FF91F20815E
:1021E0008D919C91119701968F73907011969C938D
:1021F0008E9330E0C9010895DC0191968C919197FE
:10220000882339F05496ED91FC915597808186FF93
:10221000F9CF91961C920895CF93DF93EC01EE8550
:10222000FF85E05CFF4F20813181E054F0402F5F5B
:102230003F4F2F733070DF01AE5BBF4F8D919C918C
:10224000119728173907D1F3E05CFF4F8081918106
:10225000E054F040E80FF91F6083EE85FF85E05CF5
:10226000FF4F31832083EE89FF89208181E090E058
:102270000F8C02C0880F991F0A94E2F7282B208345
:1022800081E089A3EC89FD8980818064808381E07D
:1022900090E0DF91CF91089510927505109274052A
:1022A00088EE93E0A0E0B0E0809376059093770508
:1022B000A0937805B093790588E693E09093730531
:1022C000809372058AEE94E090937F0580937E055B
:1022D0008EE295E0909381058093800585EC90E0F7
:1022E000909383058093820584EC90E0909385051C
:1022F0008093840580EC90E0909387058093860519
:1023000081EC90E0909389058093880582EC90E0C1
:1023100090938B0580938A0586EC90E090938D05D1
:1023200080938C0584E080938E0583E080938F05F5
:1023300087E08093900585E08093910581E080930C
:1023400092050895CF93DF930E94C22523DDCEEC42
:10235000DFE019DD2097E9F321DEFBCFCF92DF929A
:10236000EF92FF920F931F93CF93DF937C016B014A
:102370008A01C0E0D0E00FC0D6016D916D01D70198
:10238000ED91FC910190F081E02DC7010995C80FF6
:10239000D91F015010400115110571F7CE01DF91D1
:1023A000CF911F910F91FF90EF90DF90CF90089504
:1023B000EF92FF920F931F93CF93DF937C018B01DA
:1023C000C0E0D0E0F8010F5F1F4F6491662359F021
:1023D000D701ED91FC910190F081E02DC7010995A5
:1023E000C80FD91FEFCFCE01DF91CF911F910F9171
:1023F000FF90EF900895DC01ED91FC910190F08148
:10240000E02D09950895EF92FF920F931F938C0191
:10241000DC01ED91FC910190F081E02D6DE00995DA
:102420007C01D801ED91FC910190F081E02DC80173
:102430006AE009959C012E0D3F1DC9011F910F9166
:10244000FF90EF900895EF92FF920F931F937C01FE
:10245000AFDF8C01C701D7DF9C01200F311FC901FD
:102460001F910F91FF90EF900895CF93DF93EC01B0
:102470006115710519F420E030E00FC0DB010D900B
:102480000020E9F71197A61BB70BE881F9810280BC
:10249000F381E02DAD0109959C01C901DF91CF9138
:1024A00008954F925F927F928F929F92AF92BF92C8
:1024B000CF92DF92EF92FF920F931F93DF93CF9310
:1024C000CDB7DEB7A1970FB6F894DEBF0FBECDBF74
:1024D0002C01742ECB01223008F42AE019A231E23B
:1024E000C32ED12CCC0EDD1E822E9924AA24BB240F
:1024F000672D752FA50194010E944E2879018A014C
:10250000C801B701A50194010E941C28472D461B54
:102510000894C108D1084A3014F4405D01C0495CF8
:10252000F6014083E114F1040105110521F07E2C30
:102530005F2DC801DDCFC201B60197DFA1960FB6AE
:10254000F894DEBF0FBECDBFCF91DF911F910F91E9
:10255000FF90EF90DF90CF90BF90AF909F908F90C3
:102560007F905F904F900895DC012115310541F473
:10257000ED91FC910190F081E02D642F0995089573
:1025800090CFEF92FF920F931F939A01E62EFF24B4
:1025900000E010E0B801A701E7DF1F910F91FF9065
:1025A000EF900895CF92DF92EF92FF920F931F93D7
:1025B0006C01E62E9A01FF2400E010E0B801A701AB
:1025C000D3DF8C01C6011FDF080F191FC8011F913F
:1025D0000F91FF90EF90DF90CF900895CF92DF9210
:1025E000EF92FF920F931F93CF93DF93EC016A0159
:1025F0007B012115310541F4E881F9810190F081D9
:10260000E02D642F09951DC02A303105C9F477FFEC
:1026100016C0E881F9810190F081E02D6DE2099505
:102620008C0144275527BA014C195D096E097F09B1
:10263000CE012AE036DF9801280F391F03C02AE0B7
:1026400030DF9C01C901DF91CF911F910F91FF9065
:10265000EF90DF90CF900895EF92FF920F931F932A
:102660007B019A010027F7FC0095102FB801A70104
:10267000B5DF1F910F91FF90EF900895CF92DF92F9
:10268000EF92FF920F931F936C017B019A01002739
:10269000F7FC0095102FB801A701A0DF8C01C6013F
:1026A000B2DE080F191FC8011F910F91FF90EF9024
:1026B000DF90CF900895D9CE08957F928F929F9208
:1026C000AF92BF92CF92DF92EF92FF920F931F9340
:1026D000CF93DF934C017A018B01722ECB01BA01AB
:1026E000A80197010E941828882321F0C40168E1FD
:1026F00071E021C0C0E0D0E057016801E894D7F84C
:10270000C601B5012FEF3FEF4FE75FE70E941828A2
:10271000882351F4C601B5012FEF3FEF4FE75FE784
:102720000E946226181614F0C1E0D0E0219731F023
:10273000C4016CE171E099DEEC0190C0C801B70101
:102740002FEF3FEF4FE75FE40E94B127181654F0D8
:10275000C801B7012FEF3FEF4FE75FEC0E94622601
:10276000882324F4C40160E271E0E5CFC801B70119
:1027700020E030E040E050E00E94622687FD03C088
:10278000C0E0D0E00EC0D401ED91FC910190F08149
:10279000E02DC4016DE20995EC0117FB109517F9C6
:1027A000109520E030E040E05FE3DD240BC0CA017B
:1027B000B90120E030E040E251E40E9466269B012E
:1027C000AC01D394D71498F3C801B7010E94FE2539
:1027D0005B016C010E94D3267B018C01C401B8010E
:1027E000A7012AE030E0C0DEC80FD91F772031F002
:1027F000C40164E271E039DEC80FD91FC801B70116
:102800000E94FF269B01AC01C601B5010E94FD2577
:1028100023C020E030E040E251E40E94B5277B0174
:102820008C010E94CE265B016C01CC24B7FCC094C5
:10283000DC2CC401B601A5012AE030E0CFDEC80FD0
:10284000D91FC601B5010E9401279B01AC01C80137
:10285000B7010E94FD257A947720D9F6CE01DF9149
:10286000CF911F910F91FF90EF90DF90CF90BF908D
:10287000AF909F908F907F9008951FCF0895EF9213
:10288000FF920F931F937C0118DF8C01C701BBDD02
:10289000080F191FC8011F910F91FF90EF90089525
:1028A000EF92FF920F931F937C01DFDD8C01C70134
:1028B000AADD080F191FC8011F910F91FF90EF901B
:1028C00008950F931F93CF93DF93EC018B016F5FFC
:1028D0007F4F888199810E944A05009711F480E01A
:1028E00005C0998388831B830A8381E0DF91CF91A0
:1028F0001F910F910895CF93DF93EC018881998107
:10290000892B29F08A819B818617970758F4CE017D
:10291000D8DF882341F08C819D81892B19F4E881CF
:10292000F981108281E0DF91CF910895CF93DF93F9
:10293000EC0188819981009711F00E94F2041982BC
:1029400018821D821C821B821A82DF91CF9108950A
:10295000EF92FF920F931F93CF93DF93EC017B01D4
:102960008A01BA01C8DF882319F4CE01DFDF07C06E
:102970001D830C8388819981B7010E944006CE0196
:10298000DF91CF911F910F91FF90EF900895CF931A
:10299000DF93EC01198218821B821A821D821C822D
:1029A0001E826115710549F0DB010D900020E9F7E9
:1029B0001197A61BB70BAD01CBDFDF91CF91089527
:1029C000FC01808191810C94F204FC012FEF3FEF18
:1029D0004FEF5FEF2083318342835383108611864C
:1029E000128613868FEF99ECAAE9BBE3808B918B5B
:1029F000A28BB38B808F918FA28FB38F80A391A373
:102A0000A2A3B3A380A791A7A2A7B3A780AB91ABC2
:102A1000A2ABB3AB20AF31AF42AF53AFE05CFF4FDF
:102A20008FEF90E0918380833496208331834283BB
:102A3000538338962083318342835383389611928F
:102A40001082709682E081931192119211921192EC
:102A50001192119211921192119211821082799712
:102A600010820895CF93DF93FC01EB01611571058E
:102A700061F0E759FF4F80819181A281B381E956CE
:102A8000F04088839983AA83BB834115510549F09F
:102A9000E359FF4F80819181ED56F040DA018D932B
:102AA0009C932115310539F0E159FF4F80819181C7
:102AB000F90191838083DF91CF910895EF92FF9286
:102AC0000F931F93CF93DF939C01EE24FC01EA5AEE
:102AD000FF4F80818D3231F4EE24E394E901C95A2D
:102AE000DF4F01C0EF018E0120E030E040E050E018
:102AF00018C0CA01B9012AE030E040E050E00E946D
:102B00001C282F2D332727FD3095432F532F20537B
:102B1000304040405040260F371F481F591F0F5F5D
:102B20001F4FF801F0808F2D80538A3010F3CA01B7
:102B3000B90124E630E040E050E00E941C289B01EF
:102B4000AC0101C021969881892F80538A30D0F33F
:102B50009E3229F59981892F80538A3000F58AE0C9
:102B60009802C0011124805E9140AA2797FDA0958C
:102B7000BA2F280F391F4A1F5B1F9A81892F805354
:102B80008A3068F4892F992787FD9095C097AA27E6
:102B900097FDA095BA2F280F391F4A1F5B1FEE2003
:102BA00039F050954095309521953F4F4F4F5F4FED
:102BB000B901CA01DF91CF911F910F91FF90EF9062
:102BC00008954F925F926F927F928F929F92AF92F1
:102BD000BF92CF92DF92EF92FF920F931F93CF930A
:102BE000DF9326E5822E912C880E991EE40120E0C9
:102BF00030E040E050E017C0CA01B9012AE030E0FF
:102C000040E050E00E941C28212F332727FD3095FB
:102C1000432F532F2053304040405040260F371F42
:102C2000481F591F21961881812F80538A3020F325
:102C3000722E632E542E452EB901CA0124E630E0CF
:102C400040E050E00E944E2820E137E240E050E0B2
:102C50000E941C285B016C0103C00894811C911C1C
:102C6000F4019081892F80538A30B8F39E3269F540
:102C700088EEE82E83E0F82E012D112D1DC033279C
:102C800027FD309520533040442737FD4095542F81
:102C9000C801B7010E941C28A60EB71EC81ED91E67
:102CA000C801B7012AE030E040E050E00E944E2821
:102CB000C901DA017C018D010894811C911CF40189
:102CC0002081822F80538A30D0F2C601B50126E0E0
:102CD00030E040E050E00E944E2879018A01672DE3
:102CE000762D852D942D24E630E040E050E00E94C2
:102CF0004E28CA01B90120EA36E841E050E00E94BE
:102D00001C28E60EF71E081F191FB701C801DF9126
:102D1000CF911F910F91FF90EF90DF90CF90BF90D8
:102D2000AF909F908F907F906F905F904F9008959D
:102D300020E030E044E351E40E94FE2520E030E052
:102D400044EB51E40E9466260E94CE26DC01CB01B2
:102D500060E170E00E943B28FC01EE0FFF1FE0588D
:102D6000FC4F808191810895FC0160A171A182A135
:102D700093A16F3FF9EC7F07FAE98F07FBE39F0709
:102D800029F4E0E074E284E769E40AC00E940127C4
:102D900020E030E048EC52E40E946626E62F692FDE
:102DA0002E2F372F482F562FB901CA010895FC0145
:102DB00060A971A982A993A96F3FF9EC7F07FAE98D
:102DC0008F07FBE39F0729F4E0E070E08AE764E403
:102DD0000AC00E94FF2620E030E048EC52E40E9446
:102DE0006626E62F692F2E2F372F482F562FB90131
:102DF000CA010895EF92FF920F931F93FC0160A503
:102E000071A582A593A56F3FF9EC7F07FAE98F07BB
:102E1000FBE39F07E9F00E94FF2620E030E048EC4A
:102E200052E40E9466267B018C0120E030E040E8FD
:102E30005FEB0E946226882359F0C801B70126E59E
:102E40003EE04DEE5FE30E94B527E62F692F04C0F8
:102E5000E0E070E080E86FEB2E2F372F482F562FE1
:102E6000B901CA011F910F91FF90EF9008950F9340
:102E70001F93CF93DF93FC01EB018901611571056D
:102E800041F080859185A285B38588839983AA8343
:102E9000BB834115510549F080819181A281B381A5
:102EA000EA0188839983AA83BB830115110511F177
:102EB000EF01CC5BDF4F88819981AA81BB818F5F55
:102EC0009F4FAF4FBF4F29F42FEF3FEF4FEF5FEF13
:102ED0000CC00E94B4259B01AC0188819981AA8114
:102EE000BB81281B390B4A0B5B0BE8012883398314
:102EF0004A835B83DF91CF911F910F9108952F92A9
:102F00003F924F925F926F927F928F929F92AF9279
:102F1000BF92CF92DF92EF92FF920F931F93DF93B6
:102F2000CF93CDB7DEB728970FB6F894DEBF0FBEAC
:102F3000CDBF3B012A0119019401BE016F5F7F4F94
:102F4000AE014B5F5F4F93DF61147104B9F069818B
:102F50007A818B819C8124E630E040E050E00E9441
:102F60004E28613571051CF420ED37E002C02CE6D7
:102F700037E0260F371FF3013183208341145104BA
:102F8000A1F069817A818B819C8124E630E040E068
:102F900050E00E944E28CA01B90124E630E040E02A
:102FA00050E00E944E28F20160832114310461F048
:102FB00069817A818B819C8120E137E240E050E099
:102FC0000E944E28F10120830115110561F06D81E9
:102FD0007E818F81988520E432E44FE050E00E94AA
:102FE0004E28F8012083E114F104A1F06D817E8167
:102FF0008F81988520E137E240E050E00E944E2822
:10300000CA01B90124E630E040E050E00E944E28B9
:10301000F7016083C114D104A1F06D817E818F819D
:10302000988524E630E040E050E00E944E28CA0136
:10303000B90124E630E040E050E00E944E28F6015D
:103040006083A114B10461F06D817E818F819885C8
:1030500024E630E040E050E00E944E28F501608315
:1030600028960FB6F894DEBF0FBECDBFCF91DF918B
:103070001F910F91FF90EF90DF90CF90BF90AF9096
:103080009F908F907F906F905F904F903F902F9088
:1030900008950F931F93CF93DF93FC01EB018901F8
:1030A0006115710541F080899189A289B38988836E
:1030B0009983AA83BB834115510549F0808D918D79
:1030C000A28DB38DEA0188839983AA83BB830115FE
:1030D000110511F1EF01C45BDF4F88819981AA814D
:1030E000BB818F5F9F4FAF4FBF4F29F42FEF3FEF53
:1030F0004FEF5FEF0CC00E94B4259B01AC018881AB
:103100009981AA81BB81281B390B4A0B5B0BE80113
:10311000288339834A835B83DF91CF911F910F917D
:103120000895EF92FF920F931F93DF93CF93CDB744
:10313000DEB728970FB6F894DEBF0FBECDBF8B0168
:103140007A01BE016F5F7F4FAE014B5F5F4FA1DF22
:1031500069817A818B819C816F3F29EC72072AE912
:1031600082072BE3920729F4E0E070E08AE764E449
:103170000AC00E94012720E030E543EC57E40E949A
:103180006626E62F692F2E2F372F482F562FC9017D
:10319000DA01F80180839183A283B38389819A81C4
:1031A000AB81BC818F5F994CAA49BB4329F4E0E015
:1031B00070E08AE764E40EC06D817E818F8198851E
:1031C0000E94012720E030E543EC57E40E94662688
:1031D000E62F692F2E2F372F482F562FC901DA01DE
:1031E000F70180839183A283B38328960FB6F89466
:1031F000DEBF0FBECDBFCF91DF911F910F91FF902A
:10320000EF900895FF920F931F93CF93DF93EC01FC
:10321000CB5ADF4F8881C555D040882309F4E9C0D7
:10322000CA5ADF4F9881C655D040892F81548630C5
:1032300038F4292F332727FD3095275330400CC011
:10324000292F332727FD30959156963018F42755AE
:10325000304002C020533040C95ADF4F4881C75523
:10326000D040842F8154863030F4842F992787FDF5
:103270009095C7970BC0842F992787FD909541564D
:10328000463018F48755904001C0C09754E0220F93
:10329000331F5A95E1F7982F920FCC5ADF4F888150
:1032A000C455D040981709F09BC0C859DF4F88819A
:1032B000C856D040882309F497C1FE01E359FF4F57
:1032C00080819181019691838083FE01EC5BFF4FA9
:1032D000C85BDF4F88819981AA81BB81C854D040E7
:1032E00080839183A283B383FE01E45BFF4FC05BC5
:1032F000DF4F88819981AA81BB8180839183A283DA
:10330000B38365968881C556D0408823A1F181306A
:1033100009F064C08C819D81AE81BF8188839983CF
:10332000AA83BB838C859D85AE85BF858887998759
:10333000AA87BB878C899D89AE89BF89888B998B29
:10334000AA8BBB8B8C8D9D8DAE8DBF8D888F998FF9
:10335000AA8FBB8F8CA59DA5AEA5BFA588A799A751
:10336000AAA7BBA78CA99DA9AEA9BFA988AB99ABF9
:10337000AAABBBAB33C08CA19DA1AEA1BFA188A35A
:1033800099A3AAA3BBA38C819D81AE81BF818883B1
:103390009983AA83BB838C899D89AE89BF89888BD9
:1033A000998BAA8BBB8B8C8D9D8DAE8DBF8D888F9D
:1033B000998FAA8FBB8FFE01E05CFF4FCE5BDF4F82
:1033C00088819981C254D040918380838CAD9DAD1A
:1033D000AEADBFAD88AF99AFAAAFBBAF81E005C1BD
:1033E000FE01E159FF4F8081918101969183808395
:1033F000FBC0CA59DF4F8881C656D040882321F5CB
:103400009E012A5A3F4FD901E6E2F1E002C011962F
:1034100031969C91992339F080819817C1F3D90195
:10342000ECE2F1E006C0CB59DF4F81E0E7C0119636
:1034300031969C91992321F080819817C1F3DBC0CC
:10344000CB59DF4F1882D0C0CB59DF4F3881C556DA
:10345000D040323009F4C8C0CA5ADF4F2881C6555F
:10346000D040222309F4C0C0E32FF0E045E0EE0F86
:10347000FF1F4A95E1F790E0E82BF92B3197E932ED
:10348000F10508F0B1C0EC5CFF4FEE0FFF1F059097
:10349000F491E02D0994CE0111DB6C837D838E8342
:1034A0009F830E94B425C85BDF4F12C0FE01E8591C
:1034B000FF4F1082213409F097C07BC0CE0181DB21
:1034C0006C8B7D8B8E8B9F8B0E94B425C05BDF4FF6
:1034D000688379838A839B8387C0233509F084C0FE
:1034E0008C899D89AE89BF89B095A095909581956D
:1034F0009F4FAF4FBF4F8C8B9D8BAE8BBF8B74C0DC
:10350000CE015FDB6C8F7D8F8E8F9F8F6DC02735D7
:1035100009F06AC08C8D9D8DAE8DBF8DB095A09544
:10352000909581959F4FAF4FBF4F8C8F9D8FAE8FE2
:10353000BF8F5AC0CE01C2DA6CA77DA78EA79FA706
:1035400053C0CE01BBDA6CAB7DAB8EAB9FAB4CC036
:103550008E010A5A1F4F20E030E040E050E018C0D2
:10356000CA01B9012AE030E040E050E00E941C2886
:103570002F2D332727FD3095432F532F20533040D5
:1035800040405040260F371F481F591F0F5F1F4FE5
:10359000F801F0808F2D80538A3010F32C873D87FF
:1035A0004E875F8721C0FE01E859FF4F108221330B
:1035B000DCF081E0808318C0CE018A5A9F4F0E94C0
:1035C0001A06FE01EE5BFF4F808311820DC0CE0113
:1035D00075DA6CAF7DAF8EAF9FAF06C0CE016EDAED
:1035E0006CA37DA38EA39FA380E0DF91CF911F9159
:1035F0000F91FF900895CB59DF4F82E08883F4CF7D
:103600001F93CF93DF93EC01162FFC01E759FF4F77
:1036100080819181A281B3810196A11DB11D80831A
:103620009183A283B383643299F1DE01A959BF4F1C
:1036300065322CF46A3069F06D30C1F50AC06A3227
:1036400041F06C3299F5FE01EC5AFF4F80818627DC
:1036500080838C918F3010F090E009C0FE01E80F5C
:10366000F11DEA5AFF4F1082CE01CCDD982FFE01EA
:10367000EA59FF4F80818F5F8083C959DF4F1882DD
:10368000FE01729710821A3251F581E0808327C0C3
:10369000C959DF4F18821A9262971882619682E0A8
:1036A0008883609718826396188218C08C918E3038
:1036B00040F4FE01E80FF11DEA5AFF4F10838F5FBF
:1036C0008C93CB5ADF4F8881C555D040882331F485
:1036D000FE01EC5AFF4F80818127808390E0892F83
:1036E000DF91CF911F910895FC01809194059091F5
:1036F00095058E179F0711F480E00895838D8E7FC6
:10370000838F9FB7F8941092D6058091D605809349
:10371000D705F0939505E09394059FBF81E0089548
:103720000F931F93CF93DF93FC01738D7695717088
:10373000A685B7859585772329F08C91892309F48F
:1037400054C004C08C91892309F04FC083899489A7
:1037500020E001972FEF8F3F9207D9F7C589D689CF
:10376000A685B785158560E031E040E050E000E0D7
:10377000CE01202F01972FEF8F3F9207D9F78C9121
:10378000812311F0632B03C0832F80956823330FAF
:103790004F5F5F4F4830510559F78789908D20E082
:1037A00001972FEF8F3F9207D9F7711160958091A4
:1037B000D6052091D70590E001968F73907030E088
:1037C0008217930779F0E091D605F0E0EA56FA4FB8
:1037D00060838091D60590E001968F7390708093FE
:1037E000D60503C0838D8160838FDF91CF911F91B8
:1037F0000F9108951F920F920FB60F9211242F93DD
:103800003F934F935F936F937F938F939F93AF9368
:10381000BF93EF93FF938091940590919505009746
:1038200009F07EDFFF91EF91BF91AF919F918F9152
:103830007F916F915F914F913F912F910F900FBEAC
:103840000F901F9018951F920F920FB60F92112490
:103850002F933F934F935F936F937F938F939F9398
:10386000AF93BF93EF93FF9380919405909195054B
:10387000009709F055DFFF91EF91BF91AF919F91B4
:103880008F917F916F915F914F913F912F910F9009
:103890000FBE0F901F9018951F920F920FB60F92A8
:1038A00011242F933F934F935F936F937F938F9345
:1038B0009F93AF93BF93EF93FF9380919405909163
:1038C0009505009709F02CDFFF91EF91BF91AF9123
:1038D0009F918F917F916F915F914F913F912F9128
:1038E0000F900FBE0F901F901895CF92DF92EF921E
:1038F000FF920F931F93CF93DF93EC017A018B011B
:103900001A8E198E188E1F8A1E8A1D8A1C8A1B8A7F
:1039100020E030E06901CC0CDD1CC20ED31EB601E4
:10392000660F771F660F771FAB0143555D4FFA0196
:1039300085919591A591B4918E159F05A007B1072A
:10394000E9F4FB01EF54FD4F859194919C8B8B8B97
:10395000FB01ED54FD4F859194919E8B8D8BFB0166
:10396000EB54FD4F85919491988F8F8BFB01E95417
:10397000FD4F859194919A8F898F06C02F5F3F4F9D
:103980002C30310509F0C6CF8F89988D892B09F429
:1039900049C04C85463108F03DC0909168004830E0
:1039A00010F484E005C04E3010F082E001C081E0E8
:1039B000892B80936800483028F4EDE6F0E0ADE60E
:1039C000B0E00BC04E3028F0ECE6F0E0ACE6B0E042
:1039D00004C0EBE6F0E0ABE6B0E05081483040F4E4
:1039E00081E090E002C0880F991F4A95E2F710C06D
:1039F000242F30E04E3018F42850304002C02E50B2
:103A0000304081E090E002C0880F991F2A95E2F7CC
:103A1000852B8C93898D9A8D20E001972FEF8F3F16
:103A20009207D9F780919405909195058C179D0781
:103A300081F08B8D8E7F8B8F9FB7F8941092D60577
:103A40008091D6058093D705D0939505C0939405B2
:103A50009FBFDF91CF911F910F91FF90EF90DF906B
:103A6000CF900895FC014485463180F5483028F414
:103A7000EDE6F0E0ADE6B0E00BC04E3028F4EBE64A
:103A8000F0E0ABE6B0E004C0ECE6F0E0ACE6B0E0BD
:103A90005081483040F481E090E002C0880F991FC7
:103AA0004A95E2F710C0242F30E04E3018F4285029
:103AB000304002C02E50304081E090E002C0880FBC
:103AC000991F2A95E2F7809585238C930895FC0130
:103AD00084EA93E091838083CF01C4CF2091940541
:103AE000309195052817390731F49091D7058091C9
:103AF000D605981719F42FEF3FEF0FC0E091D705C7
:103B0000F0E0EA56FA4F20818091D70590E00196C7
:103B10008F7390708093D70530E0C901089520918C
:103B20009405309195052817390719F020E030E009
:103B30000EC08091D6052091D70590E0805C9F4F04
:103B4000821B910960E470E00E943B289C01C9013E
:103B500008950F931F93DC0159968D919C915A976C
:103B6000892B49F481E090E013969C938E931297F1
:103B700020E030E097C00FB7F8945B968C915B978C
:103B80005196ED91FC91529750962C91509781FF50
:103B90008DC08081822B808359968D919C915A97FC
:103BA000059620E001972FEF8F3F9207D9F75B969C
:103BB0008C915B9781FF35C031E040E050E070E0D0
:103BC00010E0832F90E0862397235196ED91FC918E
:103BD000529750962C915097892B29F080812095EF
:103BE0002823208303C08081822B808359968D9166
:103BF0009C915A97212F01972FEF8F3F9207D9F76A
:103C0000330F4F5F5F4F48305105D9F65196ED9114
:103C1000FC915297908150968C9150978095892372
:103C200033C031E040E050E070E010E0832F90E0DE
:103C3000862397235196ED91FC91529750962C91A3
:103C40005097892B21F08081822B808304C0808152
:103C500020952823208359968D919C915A97212F46
:103C600001972FEF8F3F9207D9F7330F4F5F5F4FC9
:103C700048305105D9F65196ED91FC9152978081CB
:103C800050969C915097892B80830FBF59968D91A8
:103C90009C915A9720E001972FEF8F3F9207D9F719
:103CA00021E030E0C9011F910F9108958081209596
:103CB0002823208371CF20919405309195052817F2
:103CC000390749F49FB7F8941092D6058091D6052C
:103CD0008093D7059FBF0895209194053091950555
:103CE0002817390731F49091D7058091D605981798
:103CF00019F42FEF3FEF0AC0E091D705F0E0EA5644
:103D0000FA4F8081282F332727FD3095C901089568
:103D10001F93CF93DF93EC01162F862F60E00E9454
:103D2000FF0E8B8D81FD04C0812F61E00E943E0F4C
:103D30001C87212F30E0C9018B579D4FFC018491D6
:103D40008D872F583D4FF9016491E62FF0E0EE0F7B
:103D5000FF1FE959FD4F859194919F878E87DF91D1
:103D6000CF911F910895FF920F931F938C01F62E10
:103D7000862F61E00E94FF0E8F2D61E00E943E0FB2
:103D80008F2D90E0FC01EB57FD4FE491D801509648
:103D9000EC9350978F589D4FFC016491E62FF0E013
:103DA000EE0FFF1FE35AFD4F8591949152969C931D
:103DB0008E9351971F910F91FF900895FF920F934B
:103DC0001F938C01F62EFC011382128288EE93E081
:103DD000A0E0B0E084839583A683B78384EA93E070
:103DE00091838083148A138A168A158A108E178A03
:103DF000128E118E838D2170220F8C7F822B838FE8
:103E0000C801642FB0DFC8016F2D82DF1F910F91B1
:103E1000FF900895FC0175836483718760875783E1
:103E2000468353874287158A158614861786168619
:103E300021E0248B8FEF9FEF938B828B918B808B74
:103E4000268B08952F923F924F925F926F927F92AE
:103E50008F929F92AF92BF92CF92DF92EF92FF929A
:103E60000F931F93DF93CF9300D000D0CDB7DEB771
:103E70003C017C836B836A015901FA82E982222426
:103E800033249801241B350B37FF03C0309521954F
:103E90003F4FC5014B815C81841B950B97FF03C08D
:103EA000909581959F4F821793075CF481E0282EAF
:103EB000312CC601CB80DC809C838B83C8018501BB
:103EC0005C018B819C81A816B90644F4C501AB80C6
:103ED000BC809C838B83C80186016C012501AB816A
:103EE000BC814A1A5B0A7801EC18FD08F7FE04C091
:103EF000F094E194F108F394C016D10624F08824DC
:103F00008A94982C03C0B1E08B2E912CC20162E000
:103F100070E00E943B288B0125C0D301ED91FC91FC
:103F20002114310441F00480F581E02DC301B60174
:103F30004B815C8107C00480F581E02DC3016B815A
:103F40007C81A60129813A8109950E191F0917FF65
:103F500004C0C80CD91C040D151DEB81FC813196E1
:103F6000FC83EB834B815C81A416B506B4F60F90FD
:103F70000F900F900F90CF91DF911F910F91FF90B5
:103F8000EF90DF90CF90BF90AF909F908F907F90F9
:103F90006F905F904F903F902F9008954F925F9257
:103FA0006F927F928F929F92AF92BF92CF92DF9249
:103FB000EF92FF920F931F936C015B014A0139014D
:103FC0002801DC01ED91FC910484F585E02D870149
:103FD0000995D601ED91FC91A40141505040440D4A
:103FE000551D0484F585E02DC601B50193010995A1
:103FF000D601ED91FC910284F385E02DC601B50157
:10400000A40192010995D601ED91FC910894A108B3
:10401000B108A60CB71C0284F385E02DC601B501DA
:10402000A401920109951F910F91FF90EF90DF90ED
:10403000CF90BF90AF909F908F907F906F905F9048
:104040004F900895CF92DF92EF92FF920F931F93BC
:10405000DC016B017801ED91FC918A010150104067
:10406000020F131F0084F185E02D960109951F9121
:104070000F91FF90EF90DF90CF900895CF92DF9255
:10408000EF92FF920F931F93DC016A01C90178013F
:10409000ED91FC9111979B0121503040280F391F61
:1040A0000084F185E02DCD01860109951F910F91C6
:1040B000FF90EF90DF90CF9008956F927F928F9254
:1040C0009F92AF92BF92CF92DF92EF92FF920F93A7
:1040D0001F93CF93DF935C013A0169014801EB0123
:1040E000C60ED71E0DC0D501ED91FC910284F3855B
:1040F000E02DC501BE01A301940187010995219618
:10410000CC15DD0584F3DF91CF911F910F91FF90C6
:10411000EF90DF90CF90BF90AF909F908F907F9067
:104120006F900895EF92FF920F931F93FC017B0114
:10413000A081B181208531850285138550960D902F
:10414000BC91A02D60E070E040E050E0FD010995D9
:104150001F910F91FF90EF9008952F923F924F92F1
:104160005F926F927F928F929F92AF92BF92CF9207
:10417000DF92EF92FF920F931F93DF93CF93CDB710
:10418000DEB72F970FB6F894DEBF0FBECDBF5C0130
:104190005E834D8318870F83FA86E986CB86DC0120
:1041A00018968D919C911997681779070CF0A4C007
:1041B0001A968D919C911B97481759070CF09CC03B
:1041C000EC2DF0E0FF87EE87CF01880F991F880F55
:1041D000991F8E0F9F1F860F971F181619060CF038
:1041E0008BC0CF01F3E0880F991FFA95E1F7840F98
:1041F000951F181619060CF07FC085E0289FA001B6
:1042000011245A8349832B011B011C825C81553088
:1042100011F480E005C0E981FA81E35CFC4F8491F0
:104220002C863D866D807E8043011B82C82EDD2456
:1042300080FF1CC0D501ED91FC91BB85B13049F4E4
:104240000480F581E02DC501B201A3012F813885DD
:1042500022C00088F189E02DC5016C857D85A4010F
:104260002E853F858901EF80F88423C0E985FA8592
:104270002F813885E217F307E9F0D501ED91FC9124
:10428000BB85B13051F40480F581E02DC501B20148
:10429000A30129853A8509950DC00088F189E02D93
:1042A000C5016C857D85A4012E853F858901E98442
:1042B000FA840995EB81EF5FEB832E853F85820EB3
:1042C000931E0894611C711CE83021F0D594C794AA
:1042D0008C2DACCF3C813F5F3C834E855F85240EA7
:1042E000351E0894411C511C89819A8101969A833C
:1042F0008983363009F08ACF2F960FB6F894DEBF47
:104300000FBECDBFCF91DF911F910F91FF90EF9026
:10431000DF90CF90BF90AF909F908F907F906F90E5
:104320005F904F903F902F900895CF92EF92FF9221
:104330000F931F93CF93DF93EC01262F6A3061F424
:104340002C8930E013E0220F331F1A95E1F78E8598
:104350009F85820F931F36C06D30C1F16C857D85BE
:104360004E855F8508891989EA88FB88CC88F5DE47
:104370002C8986E0289FB00111248C859D85680FCB
:10438000791F7D876C878E89882301F1422F50E049
:104390008AEF9FEF9C01429FC001439F900D529F67
:1043A000900D112428853985820F931F8617970752
:1043B0006CF4B3E0440F551FBA95E1F78E859F85E5
:1043C000840F951F9F878E871D861C8681E090E055
:1043D000DF91CF911F910F91FF90EF90CF900895B3
:1043E000FC0175876487578746870895FC0166231B
:1043F00009F461E0648B0895FC01718B608B738B11
:10440000628B089508956435710508F03FC057FD2B
:104410003DC040335105D4F5DA0183E0B595A79549
:104420008A95E1F747705070232BC1F084E590E046
:10443000A89FF001A99FF00DB89FF00D1124E60F81
:10444000F71FE459FE4F81E090E002C0880F991FEA
:104450004A95E2F72081282B2083089584E590E097
:10446000A89FF001A99FF00DB89FF00D1124E60F51
:10447000F71FE459FE4F81E090E002C0880F991FBA
:104480004A95E2F780952081282320830895CF93D1
:10449000DF93DC0188EF91E0ECE6F1E0EF019C01B5
:1044A000199221503040E1F71D961C921E921C97E4
:1044B0001F961C921E921E97DF91CF9108951F9315
:1044C000CF93DF93EC01162F898D60E00E943E0FA1
:1044D0008B8D18161CF460E00E943E0F30E840E01F
:1044E00050E0612F70E0EE8DFF8D90818DA1809561
:1044F00089238083832F90E086239723EC8DFD8D85
:104500002CA1892B21F08081822B808304C08081A3
:10451000209528232083EE8DFF8D80819DA1892BFE
:10452000808336954F5F5F4F48305105E1F68B8DA4
:1045300018161CF461E00E943E0FDF91CF911F918D
:1045400008951F93CF93DF93EC01162F67FD1FE7AC
:10455000CE0161E2B4DF1068CE01612FB0DFCE0181
:1045600060E2ADDFDF91CF911F910895CF92DF928E
:10457000FF920F931F93CF93DF93EC01FF2400E092
:1045800010E06F2D6064CE019ADFCE0160E897DF06
:10459000898D61E00E943E0F8B8D18161CF460E03F
:1045A0000E943E0FD801A459BE4F60E08C9130E8C4
:1045B00040E050E0C82EDD24EE8DFF8D90818DA16E
:1045C000809589238083832F90E08C219D21EC8D21
:1045D000FD8D2CA1892B21F08081822B808304C04A
:1045E0008081209528232083EE8DFF8D80819DA1E1
:1045F000892B808336954F5F5F4F48305105E1F638
:104600006F5F1196643591F68B8D18161CF461E07E
:104610000E943E0FF3940C5A1F4F86E0F81609F0E3
:10462000B0CFCE0160E44BDFDF91CF911F910F91AE
:10463000FF90DF90CF9008951F93CF93DF93EC010D
:10464000162F8F8961E00E94FF0E888D61E00E9425
:10465000FF0E898D61E00E94FF0E8A8D18161CF4F2
:1046600061E00E94FF0E8B8D18161CF461E00E9421
:10467000FF0E8A8D181684F460E00E943E0F88E8D1
:1046800093E120E931E0F9013197F1F70197D9F78A
:104690008A8D61E00E943E0FE88D2E2F332727FD83
:1046A0003095F901EF58FD4FE491F0E0EE0FFF1F58
:1046B000E35AFD4F859194919F8F8E8F2B573D4FDD
:1046C000F90184918DA3EF892E2F332727FD309593
:1046D000F901EF58FD4FE491F0E0EE0FFF1FE35AB0
:1046E000FD4F859194919D8F8C8F2B573D4FF901F4
:1046F00084918CA3EB8D2E2F332727FD3095F90164
:10470000EF58FD4FE491F0E0EE0FFF1FE35AFD4F2D
:104710008591949199A388A32B573D4FF9018491DA
:104720008EA3E98D2E2F332727FD3095F901EF5801
:10473000FD4FE491F0E0EE0FFF1FE35AFD4F85912E
:1047400094919BA38AA32B573D4FF90184918FA38A
:10475000CE0161E2B4DECE0164E1B1DE17FD1FE7F8
:104760001068CE01612FABDECE0160E2A8DECE0183
:104770006CE0A5DECE01FADEDF91CF911F910895A6
:10478000EF920F93FC011382128284EB93E09183EA
:104790008083478B608F218FE28E038FCF0164E58A
:1047A00070E040E350E036DB0F91EF9008958F9278
:1047B0009F92AF92BF92CF92DF92EF92FF920F93B0
:1047C0001F93CF93DF934C01CB01BA0169015801CC
:1047D000C0E0D0E013C07B018C010894E11CF11C07
:1047E000011D111DD6014D916D01D4011896ED9159
:1047F000FC91199709952196C801B701CA15DB05E7
:1048000050F3DF91CF911F910F91FF90EF90DF90C8
:10481000CF90BF90AF909F908F9008958F929F926E
:10482000AF92BF92CF92DF92EF92FF920F931F93BE
:10483000CF93DF934C0169015801C0E0D0E015C06F
:104840007A018B010894E11CF11C011D111DD4019A
:104850001A96ED91FC911B97CB01BA010995F601CF
:1048600081936F012196B801A701CA15DB0540F3BA
:10487000DF91CF911F910F91FF90EF90DF90CF903C
:10488000BF90AF909F908F9008950F931F93FC015E
:1048900040815181628173813C969F010AE010E062
:1048A00086DF1F910F9108950F931F93FC014081A4
:1048B0005181628173813C969F010AE010E0AEDF76
:1048C0001F910F910895FC0171876087538742877C
:1048D0000895EF92FF920F931F93FC014083518341
:1048E00062837383465F5F4F6F4F7F4F448355836F
:1048F000668377831486158616861786F18AE08A82
:10490000028B138B248B358BC0DF80E090E01F91EE
:104910000F91FF90EF900895FC0180819181A28119
:10492000B3810A96A11DB11D84839583A683B783A5
:10493000CF01BADF80E090E00895CF92DF92EF924E
:10494000FF920F931F937C01CB01BA016901F7011C
:10495000008911896150704080409040980140E08A
:1049600050E06AD3DC01CB01F701448155816681B7
:104970007781480F591F6A1F7B1FC701960117DFF8
:1049800080E090E01F910F91FF90EF90DF90CF902B
:104990000895AF92BF92CF92DF92EF92FF920F9362
:1049A0001F93CF93DF93EC016A017B0159014115FD
:1049B00051056105710531F18C859D85AE85BF85F9
:1049C00084179507A607B707E8F00889198908949E
:1049D000C108D108E108F108980140E050E0C701A2
:1049E000B6012AD3DC01CB014C815D816E817F81D0
:1049F000480F591F6A1F7B1FCE0195010FDF20E072
:104A000030E002C021E030E0C901DF91CF911F9179
:104A10000F91FF90EF90DF90CF90BF90AF900895EF
:104A2000CF92DF92EF92FF920F931F93CF93DF937A
:104A3000EC016B01EC84FD840E851F850894E11C5C
:104A4000F11C011D111D6A897B898C899D892C812E
:104A50003D814E815F81621B730B840B950B28890E
:104A6000398940E050E01AD32E153F054007510721
:104A700018F422E030E00DC0EC86FD860E871F871B
:104A8000CE01B801A701960158DFCE01FEDE20E07D
:104A900030E0C901DF91CF911F910F91FF90EF900E
:104AA000DF90CF900895FC01648575858685978594
:104AB0000895F999FECF72BD61BDF89A80B5089549
:104AC000F999FECF1FBA72BD61BD40BD0FB6F89413
:104AD000FA9AF99A0FBE08951F920F920FB60F928D
:104AE00011242F933F938F939F93AF93BF93809104
:104AF000DD059091DE05A091DF05B091E0053091D4
:104B0000E1050196A11DB11D232F2D5F2D3720F04A
:104B10002D570196A11DB11D2093E1058093DD0560
:104B20009093DE05A093DF05B093E0058091D90551
:104B30009091DA05A091DB05B091DC050196A11DED
:104B4000B11D8093D9059093DA05A093DB05B0934E
:104B5000DC05BF91AF919F918F913F912F910F9065
:104B60000FBE0F901F9018958FB7F8942091DD0518
:104B70003091DE054091DF055091E0058FBFB9010E
:104B8000CA010895789484B5826084BD84B581603B
:104B900084BD85B5826085BD85B5816085BDEEE645
:104BA000F0E0808181608083E1E8F0E01082808124
:104BB00082608083808181608083E0E8F0E0808192
:104BC00081608083E1EBF0E0808184608083E0EBB2
:104BD000F0E0808181608083EAE7F0E0808184609A
:104BE00080838081826080838081816080838081F6
:104BF000806880831092C10008955058BB27AA276F
:104C00000ED075C166D130F06BD120F031F49F3FEA
:104C100011F41EF45BC10EF4E095E7FB51C1E92FDE
:104C200077D180F3BA17620773078407950718F0E6
:104C300071F49EF58FC10EF4E0950B2EBA2FA02DC6
:104C40000B01B90190010C01CA01A0011124FF2739
:104C5000591B99F0593F50F4503E68F11A16F04034
:104C6000A22F232F342F4427585FF3CF4695379533
:104C70002795A795F0405395C9F77EF41F16BA0BF8
:104C8000620B730B840BBAF09150A1F0FF0FBB1FA6
:104C9000661F771F881FC2F70EC0BA0F621F731FEF
:104CA000841F48F4879577956795B795F7959E3F4C
:104CB00008F0B3CF9395880F08F09927EE0F9795DA
:104CC00087950895D9D008F481E008950CD00FC1DC
:104CD00007D140F0FED030F021F45F3F19F0F0C072
:104CE000511139C1F3C014D198F39923C9F3552355
:104CF000B1F3951B550BBB27AA27621773078407CF
:104D000038F09F5F5F4F220F331F441FAA1FA9F384
:104D100033D00E2E3AF0E0E830D091505040E69576
:104D2000001CCAF729D0FE2F27D0660F771F881FD7
:104D3000BB1F261737074807AB07B0E809F0BB0BC6
:104D4000802DBF01FF2793585F4F2AF09E3F5105EA
:104D500068F0B6C000C15F3FECF3983EDCF3869587
:104D600077956795B795F7959F5FC9F7880F911D60
:104D70009695879597F90895E1E0660F771F881F4C
:104D8000BB1F621773078407BA0720F0621B730BFF
:104D9000840BBA0BEE1F88F7E095089504D0689451
:104DA000B111D9C00895BCD088F09F5790F0B92FA9
:104DB0009927B751A0F0D1F0660F771F881F991F70
:104DC0001AF0BA95C9F712C0B13081F0C3D0B1E082
:104DD0000895C0C0672F782F8827B85F39F0B93F92
:104DE000CCF3869577956795B395D9F73EF4909572
:104DF0008095709561957F4F8F4F9F4F0895E894F0
:104E000009C097FB3EF490958095709561957F4F12
:104E10008F4F9F4F9923A9F0F92F96E9BB279395C0
:104E2000F695879577956795B795F111F8CFFAF4D0
:104E3000BB0F11F460FF1BC06F5F7F4F8F4F9F4F01
:104E400016C0882311F096E911C0772321F09EE85F
:104E5000872F762F05C0662371F096E8862F70E0C5
:104E600060E02AF09A95660F771F881FDAF7880F9F
:104E70009695879597F90895990F0008550FAA0BF5
:104E8000E0E8FEEF16161706E807F907C0F012165D
:104E90001306E407F50798F0621B730B840B950B60
:104EA00039F40A2661F0232B242B252B21F40895B5
:104EB0000A2609F4A140A6958FEF811D811D089552
:104EC00097F99F6780E870E060E008959FEF80ECBD
:104ED000089500240A941616170618060906089560
:104EE00000240A9412161306140605060895092EC6
:104EF0000394000C11F4882352F0BB0F40F4BF2B35
:104F000011F460FF04C06F5F7F4F8F4F9F4F089574
:104F100057FD9058440F551F59F05F3F71F047956A
:104F2000880F97FB991F61F09F3F79F0879508954F
:104F3000121613061406551FF2CF4695F1DF08C06E
:104F4000161617061806991FF1CF8695710561058B
:104F500008940895E894BB2766277727CB0197F933
:104F600008958ADF08F48FEF08950BD0C0CFB1DF2A
:104F700028F0B6DF18F0952309F0A2CFA7CF1124AF
:104F8000EACFC6DFA0F3959FD1F3950F50E0551FF0
:104F9000629FF001729FBB27F00DB11D639FAA278E
:104FA000F00DB11DAA1F649F6627B00DA11D661FDD
:104FB000829F2227B00DA11D621F739FB00DA11DFE
:104FC000621F839FA00D611D221F749F3327A00DB8
:104FD000611D231F849F600D211D822F762F6A2F54
:104FE00011249F5750408AF0E1F088234AF0EE0FD9
:104FF000FF1FBB1F661F771F881F91505040A9F7E6
:105000009E3F510570F05CCFA6CF5F3FECF3983E1A
:10501000DCF3869577956795B795F795E7959F5F4C
:10502000C1F7FE2B880F911D9695879597F90895E6
:1050300023DF880B990B0895629FD001739FF001C5
:10504000829FE00DF11D649FE00DF11D929FF00D18
:10505000839FF00D749FF00D659FF00D9927729F4F
:10506000B00DE11DF91F639FB00DE11DF91FBD01DA
:10507000CF011124089597FB092E07260AD077FD4A
:1050800004D02ED006D000201AF4709561957F4F81
:105090000895F6F7909581959F4F0895A1E21A2EF5
:1050A000AA1BBB1BFD010DC0AA1FBB1FEE1FFF1FCC
:1050B000A217B307E407F50720F0A21BB30BE40B1C
:1050C000F50B661F771F881F991F1A9469F7609563
:1050D0007095809590959B01AC01BD01CF0108951D
:1050E000AA1BBB1B51E107C0AA1FBB1FA617B7070E
:1050F00010F0A61BB70B881F991F5A95A9F780952A
:105100009095BC01CD010895EE0FFF1F0590F4911D
:10511000E02D09942F923F924F925F926F927F926F
:105120008F929F92AF92BF92CF92DF92EF92FF92B7
:105130000F931F93CF93DF93CDB7DEB7CA1BDB0B63
:105140000FB6F894DEBF0FBECDBF09942A88398808
:1051500048885F846E847D848C849B84AA84B9840F
:10516000C884DF80EE80FD800C811B81AA81B9811B
:10517000CE0FD11D0FB6F894DEBF0FBECDBFED012F
:10518000089518E0CCE3D8E003C0FE01BFDF22960B
:0A519000CE33D107D1F7F894FFCF1A
:10519A00005465737465002A2A2A2A2A2A2A0025B5
:1051AA006C64002A2A2A20006E616E00696E66000D
:1051BA006F7666002E004750524D430047504747CE
:1051CA0041004E004E4E45004E4500454E450045B5
:1051DA00004553450053450053534500530053536C
:1051EA005700535700575357005700574E57004E12
:1051FA0057004E4E57002000E60500000000000050
:10520A000000000000000000000000000000000094
:10521A000000000000000000000000000000000084
:10522A000000C0E0F0F8FCFCFEFFFCE0000000001B
:10523A000000000000000000000000000000000064
:10524A000000000000000000000000000000000054
:10525A000000000000000000000000000000000044
:10526A0000F8F8F8F8F8F8F8F8F8F8F8F8F0F0E0D4
:10527A00E0C080C0FCFFFFFFFF7F3F7FFFFFFFFF13
:10528A00FF00000000000000000000000000000015
:10529A000000000000000000000000000000000004
:1052AA0000000000000000000000000000000000F4
:1052BA000000000000000F1F3F7FFFFFFFFFFFFFFE
:1052CA00FFFFE7C7C7878F9F9FFFFFFFC1C0E0FCB3
:1052DA00FFFFFFFFFFFCFCFCFCFEFEFEFCFCF8F8F7
:1052EA00F0E0C0C000000000000000000000000064
:1052FA0000000000000000000000000000000000A4
:10530A000000000000000000000000000080C0E073
:10531A00F1FBFFFFFFFFFF7F1F0F0F87E7FFFFFF75
:10532A001F1F3FF9F8F8F8F8F8F8FDFFFFFFFFFF35
:10533A00FFFFFFFF7F3F0F07010000000000000092
:10534A000000000000000000000000000000000053
:10535A00000000000000000000000000000000F053
:10536A00FEFFFFFFFFFFFFFFFFFFFFFE7E3F3F0F36
:10537A001FFFFFFFFCF0E0F1FFFFFFFFFFFCF00162
:10538A00010101010101010000000000000000000C
:10539A000000000000000000000000000000000003
:1053AA0000000000000000000000000000000000F3
:1053BA0000000003030303030303030101010100C7
:1053CA00000000000000030F1F3F7F7FFFFFFFFF69
:1053DA007F7F1F03000000000000000000000000A3
:1053EA0000000000000000000000000000000000B3
:1053FA0000000000000000000C11AE11A210D31032
:10540A00B310FC1000007A4400247449000080BFE5
:10541A003201340138013B013F0141014501480194
:10542A004C014E015201550159015B015F016201B4
:10543A0000000000A91DAE118F1D6E1D6C1E5B1EA3
:10544A00000000009521AE1103220222221F222011
:08545A003E20CE1F5D209220D0
:00000001FF
