:1000000045C300000C94CC140C94F91467C3000091
:1000100065C3000063C3000061C300000C94B718FF
:100020005DC300005BC3000059C3000057C300005C
:1000300055C3000053C3000051C300004FC300006C
:100040000C9426154BC3000049C3000047C30000B1
:1000500045C3000043C3000041C300003FC300008C
:100060000C94EE2D3BC3000007634236B79BD8A724
:100070001A39685618AEBAAB558C1D3CB7CC5763CD
:10008000BD6DEDFD753EF6177231BF000000803F7B
:1000900008000000BE922449123EABAAAA2ABECD97
:1000A000CCCC4C3E00000080BEABAAAAAA3E000009
:1000B0000000BF000000803F000000000008417801
:1000C000D3BB4387D1133D190E3CC3BD4282AD2B38
:1000D0003E68EC8276BED98FE1A93E4C80EFFFBE30
:1000E00001C4FF7F3F00000000004465736C696736
:1000F00061203F0053616C766120416A75737465BD
:10010000733F004170616761204C6F67626F6F6B76
:100110003F0053616C766120416A75737465733F6B
:100120000053494D7C4E414F004D74730000000058
:1001300000240027002A0000000000250028002BD2
:100140000000000000230026002900040404040429
:100150000404040202020202020303030303030174
:10016000020408102040800102040810200102044B
:100170000810200000000700020100000304060030
:10018000000000000000000200000000003E5B4F85
:100190005B3E3E6B4F6B3E1C3E7C3E1C183C7E3CE7
:1001A000181C577D571C1C5E7F5E1C00183C1800F5
:1001B000FFE7C3E7FF0018241800FFE7DBE7FF3085
:1001C000483A060E2629792926407F050507407FF3
:1001D00005253F5A3CE73C5A7F3E1C1C08081C1C66
:1001E0003E7F14227F22145F5F005F5F06097F015C
:1001F0007F006689956A606060606094A2FFA29447
:1002000008047E040810207E201008082A1C080814
:100210001C2A08081E101010100C1E0C1E0C303862
:100220003E3830060E3E0E06000000000000005F63
:1002300000000007000700147F147F14242A7F2A7F
:100240001223130864623649562050000807030041
:10025000001C2241000041221C002A1C7F1C2A088D
:10026000083E0808008070300008080808080000F0
:1002700060600020100804023E5149453E00427F64
:10028000400072494949462141494D331814127FB3
:100290001027454545393C4A494931412111090753
:1002A0003649494936464949291E000014000000D4
:1002B00040340000000814224114141414140041A6
:1002C00022140802015909063E415D594E7C121163
:1002D000127C7F494949363E414141227F4141419B
:1002E0003E7F494949417F090909013E4141517316
:1002F0007F0808087F00417F41002040413F017F87
:10030000081422417F404040407F021C027F7F044E
:1003100008107F3E4141413E7F090909063E415197
:10032000215E7F09192946264949493203017F0187
:10033000033F4040403F1F2040201F3F4038403F88
:10034000631408146303047804036159494D43009E
:100350007F4141410204081020004141417F0402D5
:10036000010204404040404000030708002054546C
:1003700078407F284444383844444428384444284A
:100380007F385454541800087E090218A4A49C789D
:100390007F0804047800447D40002040403D007FF9
:1003A0001028440000417F40007C047804787C08D9
:1003B0000404783844444438FC18242418182424AD
:1003C00018FC7C08040408485454542404043F4492
:1003D000243C4040207C1C2040201C3C4030403CC1
:1003E00044281028444C9090907C4464544C440021
:1003F0000836410000007700000041360800020185
:100400000204023C2623263C1EA1A161123A404070
:10041000207A3854545559215555794121545478EE
:1004200041215554784020545579400C1E52721287
:10043000395555555939545454593955545458000F
:1004400000457C410002457D420001457C40F02989
:100450002429F0F0282528F07C54554500205454D8
:100460007C547C0A097F493249494932324848481C
:1004700032324A4848303A4141217A3A4240207863
:10048000009DA0A07D39444444393D4040403D3C5E
:1004900024FF2424487E4943662B2FFC2F2BFF0981
:1004A00029F620C0887E0903205454794100004475
:1004B0007D413048484A32384040227A007A0A0A60
:1004C000727D0D19317D2629292F282629292926D3
:1004D00030484D4020380808080808080808382F18
:1004E00010C8ACBA2F102834FA00007B00000814A2
:1004F0002A142222142A1408AA005500AAAA55AACE
:1005000055AA000000FF00101010FF00141414FF83
:10051000001010FF00FF1010F010F0141414FC0075
:100520001414F700FF0000FF00FF1414F404FC147F
:100530001417101F10101F101F1414141F00101078
:1005400010F0000000001F101010101F10101010ED
:10055000F010000000FF101010101010101010FF0D
:1005600010000000FF140000FF00FF00001F101724
:100570000000FC04F414141710171414F404F4000D
:1005800000FF00F714141414141414F700F71414D3
:1005900014171410101F101F141414F4141010F05A
:1005A00010F000001F101F0000001F14000000FCCE
:1005B000140000F010F01010FF10FF141414FF14BA
:1005C0001010101F00000000F010FFFFFFFFFFF0F1
:1005D000F0F0F0F0FFFFFF0000000000FFFF0F0F42
:1005E0000F0F0F38444438447C2A2A3E147E0202FE
:1005F0000606027E027E0263554941633844443C4C
:1006000004407E201E2006027E020299A5E7A599DD
:100610001C2A492A1C4C7201724C304A4D4D303014
:1006200048784830BC625A463D3E494949007E01FF
:1006300001017E2A2A2A2A2A44445F444440514A1E
:10064000444040444A51400000FF0103E080FF0065
:100650000008086B6B083612362436060F090F06A1
:10066000000018180000001010003040FF010100C9
:100670001F01011E00191D1712003C3C3C3C0000EC
:10068000000000008008F62B462C7B0811241FBEBA
:10069000CFEFD8E0DEBFCDBF14E0A0E0B1E0EEEEDA
:1006A000F7E602C005900D92A232B107D9F716E025
:1006B000A2E2B4E001C01D92A23FB107E1F716E04B
:1006C000CAE8D6E004C02297FE010E94B033C438C5
:1006D000D107C9F70E9418170C94EB3391CCCF9334
:1006E000DF93BC018230910510F462E070E0A091CC
:1006F000F006B091F106ED01E0E0F0E040E050E0FE
:1007000021C0888199818617970769F48A819B8126
:10071000309719F09383828304C09093F1068093FD
:10072000F006FE0134C06817790738F44115510509
:1007300019F08417950708F4AC01FE018A819B81AA
:100740009C01E9012097E9F641155105A9F1CA017B
:10075000861B970B049708F4BA01E0E0F0E02AC08A
:100760008D919C91119784179507F9F4641775077B
:1007700081F412968D919C911397309719F0938381
:10078000828304C09093F1068093F006FD013296B7
:100790004CC0CA01861B970BFD01E80FF91F61933E
:1007A000719302978D939C9340C0FD018281938148
:1007B0009C01D9011097A1F68091EE069091EF0669
:1007C000892B41F48091EB019091EC019093EF061D
:1007D0008093EE064091ED015091EE0141155105D7
:1007E00041F44DB75EB78091E9019091EA01481B51
:1007F000590B2091EE063091EF06CA01821B930B34
:100800008617970780F0AB014E5F5F4F84179507FF
:1008100050F0420F531F5093EF064093EE06F9013C
:100820006193719302C0E0E0F0E0CF01DF91CF91DE
:100830000895CF93DF93009709F450C0EC012297FD
:100840001B821A82A091F006B091F106109709F16F
:1008500040E050E0AC17BD0708F1BB83AA83FE015E
:1008600021913191E20FF31FAE17BF0779F48D91FB
:100870009C911197280F391F2E5F3F4F3983288392
:1008800012968D919C9113979B838A8341155105F4
:1008900071F4D093F106C093F00620C012968D91AA
:1008A0009C911397AD01009711F0DC01D3CFFA01B1
:1008B000D383C28321913191E20FF31FCE17DF075B
:1008C00069F488819981280F391F2E5F3F4FFA0103
:1008D000318320838A819B8193838283DF91CF91AF
:1008E0000895A0E0B0E0E7E7F4E00C94B6336C01C3
:1008F000009721F4CB01F3DE6C01BDC08EEF882E92
:100900008FEF982E8C0C9D1C8601060F171F081563
:10091000190508F4AEC0F401A081B181A617B7078C
:10092000B0F0A530B10508F4A6C0CD010497861734
:10093000970708F4A0C01297A61BB70BF801A19364
:10094000B193D4016D937C93CF0173DF94C07B018D
:10095000EA1AFB0AEEEFFFEFEE0EFF1E36016A0EFB
:100960007B1EC091F006D091F10644245524AA24A0
:10097000BB244AC0C615D705E1F5488159814E15FB
:100980005F05B8F1CA0104978E159F05B0F4129661
:10099000A40FB51FF401B183A0832A813B814114C8
:1009A000510431F0D20113963C932E93129763C0F9
:1009B0003093F1062093F0065EC08A819B81F80196
:1009C00093838283425050404E195F095183408384
:1009D0004114510431F0D20113961C930E931297D7
:1009E00004C01093F1060093F006F4017183608354
:1009F00042C088819981A816B90608F45C012E01CD
:100A00008A819B819C01E901209709F0B3CF8091F5
:100A1000EE069091EF0686159705E9F4A616B7063F
:100A2000D0F42091ED013091EE012115310541F412
:100A30002DB73EB78091E9019091EA01281B390B4F
:100A400002171307B0F41093EF060093EE06D401DB
:100A50006D937C9310C0CB0142DEEC01009749F00E
:100A6000F40140815181B6010CD0C601E2DE6E0175
:100A700002C0CC24DD24C601CDB7DEB7E0E10C9482
:100A8000D233FB01DC0102C001900D924150504075
:100A9000D8F70895FB01DC0101900D920020E1F7E9
:100AA0000895FB019F01E8944230C4F04532B4F44C
:100AB0004A3029F497FB1EF4909581959F4F642F3F
:100AC00077270E949A33805D8A330CF0895D819389
:100AD000CB010097A1F716F45DE251931082C90192
:100AE00009C2AEE0B0E0E7E7F5E00C94C2330D894F
:100AF0001E8986E08C831A8309838FEF9FE79E838C
:100B00008D839E01275E3F4FCE0101966F89788DC0
:100B1000A9010AD02F813885020F131FF801108216
:100B20002E96E4E00C94DE33ABE0B0E0EAE9F5E0C9
:100B30000C94B4333C012B015A01FC01178216823C
:100B4000838181FD03C06FEF7FEFB9C19AE0892EE9
:100B50001E010894211C311CF3012381F20123FDA5
:100B6000859123FF81912F01882309F4A5C1853246
:100B700039F423FD859123FF81912F01853221F4E2
:100B800090E0B301C7D1E8CF982FFF24EE24992439
:100B9000FFE1FF15D0F09B3269F09C3228F49032CF
:100BA00059F0933291F40EC09D3249F0903369F4BC
:100BB00041E024C052E0F52A84E0F82A28C098E0F9
:100BC000F92A25C0E0E1FE2A22C0F7FC29C0892FBE
:100BD00080538A3070F4F6FE05C0989C902C112446
:100BE000980E15C0E89CE02C1124E80EF0E2FF2AD4
:100BF0000EC09E3229F4F6FC5FC140E4F42A07C01F
:100C00009C3619F450E8F52A02C0983649F4F201EE
:100C100023FD959123FF91912F01992309F0B8CFDE
:100C2000892F8554833018F08052833038F444E0A3
:100C300050E0A40EB51E5FE359830FC0933631F028
:100C4000933779F0933509F052C01FC0F5018081C8
:100C5000898342E050E0A40EB51E610101E010E07E
:100C600011C0F501C080D180F6FC03C06FEF7FEFAB
:100C700002C0692D70E042E050E0A40EB51EC6012E
:100C80002ED18C015FE7F52213C0F501C080D18021
:100C9000F6FC03C06FEF7FEF02C0692D70E042E009
:100CA00050E0A40EB51EC6010FD18C0150E8F52A04
:100CB000F3FE06C018C080E290E0B3012BD1EA94A5
:100CC0008E2D90E008171907B0F30DC0F601F7FC60
:100CD0008591F7FE81916F0190E0B3011BD1E11086
:100CE000EA94015010400115110581F7E2C09436D5
:100CF00011F0993661F5F7FE08C0F50120813181C8
:100D00004281538184E090E00AC0F50180819181A5
:100D10009C01442737FD4095542F82E090E0A80EB7
:100D2000B91E9FE6F92257FF09C0509540953095AE
:100D300021953F4F4F4F5F4FE0E8FE2ACA01B901AE
:100D4000A1012AE030E012D1D82ED2183FC0953749
:100D500029F41F2D1F7E2AE030E01DC01F2D197FB2
:100D60009F3661F0903720F4983509F0A5C00FC088
:100D7000903739F0983709F09FC004C028E030E080
:100D80000AC0106114FD146020E130E004C014FDBD
:100D9000166020E132E017FF08C0F5016081718123
:100DA0008281938144E050E008C0F5018081918107
:100DB000BC0180E090E042E050E0A40EB51EA1012D
:100DC000D5D0D82ED2188FE7F82EF122F6FE0BC020
:100DD0005EEFF522D91438F4F4FE07C0F2FC05C02A
:100DE0008FEEF82202C01D2D01C0192DF4FE0DC09A
:100DF000FE01ED0DF11D8081803319F499EEF92289
:100E000008C01F5FF2FE05C003C08F2D867809F071
:100E10001F5F0F2DF3FC13C0F0FE0EC01E1510F067
:100E20009D2C0AC09D2C9E0C911A1E2D05C080E29F
:100E300090E0B3016FD01F5F1E15C8F304C01E15EC
:100E400010F4E11A01C0EE2404FF0EC080E390E02C
:100E5000B30160D002FF1BC001FD03C088E790E032
:100E60000EC088E590E00BC0802F867881F001FFEE
:100E700002C08BE201C080E2F7FC8DE290E0B3019A
:100E800049D005C080E390E0B30144D09A94D914CE
:100E9000C8F3DA94F101ED0DF11D808190E0B3010A
:100EA00039D0DD20B1F705C080E290E0B30132D047
:100EB000EA94EE20C9F750CEF30166817781CB0129
:100EC0002B96E2E10C94D033FC0105906150704008
:100ED0000110D8F7809590958E0F9F1F0895FC0103
:100EE0006150704001900110D8F7809590958E0F59
:100EF0009F1F0895DC01FC01672F71917723E1F7B3
:100F0000329704C07C916D9370836291AE17BF07D6
:100F1000C8F308950F931F93CF93DF938C01EB01D8
:100F20008B8181FF1BC082FF0DC02E813F818C8190
:100F30009D812817390764F4E881F9810193F983C9
:100F4000E88306C0E885F985802F0995892B31F45F
:100F50008E819F8101969F838E8302C00FEF1FEFCA
:100F6000C801DF91CF911F910F910895FA01AA272F
:100F7000283051F1203181F1E8946F936E7F6E5FDC
:100F80007F4F8F4F9F4FAF4FB1E03ED0B4E03CD08A
:100F9000670F781F891F9A1FA11D680F791F8A1F6D
:100FA000911DA11D6A0F711D811D911DA11D20D0D4
:100FB00009F468943F912AE0269F11243019305D8E
:100FC0003193DEF6CF010895462F4770405D41937F
:100FD000B3E00FD0C9F7F6CF462F4F70405D4A33CC
:100FE00018F0495D31FD4052419302D0A9F7EACF94
:100FF000B4E0A6959795879577956795BA95C9F7C3
:1010000000976105710508959B01AC010A2E0694B5
:101010005795479537952795BA95C9F7620F731F6E
:10102000841F951FA01D0895EF920F9381309105A5
:1010300009F04DC06F5F7F4F09F05AC08BE794E015
:1010400060E071E00E94571C82E894E060E071E08B
:101050000E94571C89E894E060E071E00E94571CF0
:1010600088EC94E06AE874E143E854E10E94DE1DF4
:101070008EED94E00E942C1D8FED94E00E94161DD1
:1010800089E895E00E94C62380EA95E062E070E07E
:101090000E9445278AEA95E06CE070E00E944527AF
:1010A00084EB95E06BE070E00E9445278EEB95E0C5
:1010B00068E070E00E94452788EC95E067E046E034
:1010C00025E004E033E0E32E0E94AF2311C0892B1A
:1010D00079F46F5F7F4F61F489E894E00E94A51C6A
:1010E00082E894E00E94A51C8BE794E00E94A51C76
:1010F0000F91EF90089580E090E06FEF7FEF94CF35
:1011000081E090E06FEF7FEF8FCFAF92BF92CF92F1
:10111000DF92EF92FF920F931F93A22EC02EB62E56
:10112000BB0CBB0CB00E641708F4462FD42EDD0C9C
:10113000DD0CDC0C11C088EC95E06A2D70E04C2DC4
:1011400050E02CE030E003E010E0F1E0EF2EF12C75
:101150000E94462084E0C80ECD1468F311C088ECCC
:1011600095E06A2D70E04D2D50E02CE030E003E07A
:1011700010E0E1E0EE2EF12C0E94B71F84E0D80EC3
:10118000DB1468F31F910F91FF90EF90DF90CF90E9
:10119000BF90AF900895AF92BF92CF92DF92EF923F
:1011A000FF920F931F93A22ED02EB62EBB0CBB0C1A
:1011B000B00E641708F4462F440F440FCB2CC41A0A
:1011C00011C088EC95E06A2D70E04D2D50E02CE0C8
:1011D00030E003E010E0B1E0EB2EF12C0E94B71FED
:1011E00084E0D80EDC1468F311C088EC95E06A2D19
:1011F00070E04C2D50E02CE030E003E010E0A1E086
:10120000EA2EF12C0E94462084E0C80ECB1468F32D
:101210001F910F91FF90EF90DF90CF90BF90AF9014
:101220000895AF92BF92CF92DF92EF92FF920F9309
:101230001F9381E160E00E94321681E10E94101646
:1012400000D000D0AA2797FDA095BA2F27E030E064
:1012500040E050E0EDB7FEB72183328343835483EF
:10126000BC01CD0120E030E040E050E0E12CF4E0B2
:10127000FF2E012D112DE9EFAE2EEFEFBE2EEFEF79
:10128000CE2EEFEFDE2E0E94271B0E94A1307B01A5
:101290008C0160935A0470935B0480935C04909378
:1012A0005D040F900F900F900F9020E030E040E031
:1012B00050E00E9451311816C4F460912A047091D4
:1012C0002B04882777FD8095982F0E94A130A801D4
:1012D00097010E940230882344F4C801B7010E949C
:1012E0006E3070932B0460932A04C801B70120E08C
:1012F00030E040E050E00E9402308823C4F4609166
:101300002C0470912D04882777FD8095982F0E94DA
:10131000A130A80197010E945131181644F4C80168
:10132000B7010E946E3070932D0460932C041F91BE
:101330000F91FF90EF90DF90CF90BF90AF90089506
:1013400060914A0470914B0480914C0490914D043B
:101350000E94A13020E836EE45EC57E40E940630AA
:1013600021EB3CED42E45EE30E94B8319B01AC010D
:1013700060E070E080E89FE30E949D2F20E03AE269
:101380004DE257E40C945531EF92FF920F931F9367
:1013900089E895E00E942F240E946E3060934604F5
:1013A00070934704809348049093490489E895E03A
:1013B0000E94112560934A0470934B0480934C045F
:1013C00090934D04E0906204F090630400916404F3
:1013D00010916504C801B70120E030E040E050E022
:1013E0000E940230882339F489E895E040E856EEFF
:1013F00065EC77E404C089E895E0B801A7010E9494
:10140000D4260E946E3060934E0470934F048093F4
:1014100050049093510420914E0430914F04409118
:101420005004509151048091520490915304A09122
:101430005404B091550482179307A407B50744F4E8
:101440002093520430935304409354045093550412
:101450008091560490915704A0915804B09159047A
:10146000281739074A075B0744F420935604309342
:10147000570440935804509359041F910F91FF90C3
:10148000EF900895EF92FF920F931F937DDF60918D
:101490005E0470915F04809160049091610420E08B
:1014A0003AE24DE257E40E94063020E030E040E8A6
:1014B0005FE30E949E2F26EF38E248EA50E40E9444
:1014C000B8317B018C0160914A0470914B0480918A
:1014D0004C0490914D040E94A130A80197010E94F4
:1014E0005531609362047093630480936404909315
:1014F00065041F910F91FF90EF90089545DF20DF65
:1015000060935E0470935F04809360049093610421
:10151000B9CFF4DF80914E0490914F04A091500414
:10152000B09151048093520490935304A0935404B7
:10153000B09355048093560490935704A093580495
:10154000B093590408950F931F93CF93DF938C01A9
:10155000EB018BE794E060E071E00E94701CCA3000
:10156000D10534F48BE794E061E071E00E94121C35
:101570008BE794E0BE010E94E21BC8016BE774E0B8
:101580000E949C1CC801DF91CF911F910F9108957B
:10159000CF92DF92EF92FF920F931F93DF93CF933F
:1015A000CDB7DEB72E970FB6F894DEBF0FBECDBF16
:1015B0001092390410923804B2E8EB2EB4E0FB2EFE
:1015C00000E011E0C701B8010E94701CA9E8CA2E12
:1015D000A4E0DA2EC601B8010E94701C0E94E52A20
:1015E00090932F0480932E040E94DF2A909331045D
:1015F000809330040E94D92A90933304809332045C
:101600000E94D32A90933504809334040E94CD2AFB
:1016100090933704809336040E94CB2A9093390428
:101620008093380460912E0470912F048E010F5F17
:101630001F4FC80188DFC701B8010E94201CC801E4
:101640000E94A51CC70163E071E00E94121C8E017C
:10165000085F1F4F6091300470913104C80173DF3F
:10166000C701B8010E94201CC8010E94A51C6091FE
:10167000340470913504C6010E94E21B05E011E0BC
:10168000C601B8010E94121C6091360470913704A3
:10169000C6010E94E21BC601B8010E94121C6091A3
:1016A000380470913904C6010E94E21B2E960FB6D1
:1016B000F894DEBF0FBECDBFCF91DF911F910F9188
:1016C000FF90EF90DF90CF900895809126048823BB
:1016D00021F488ED9BE20C94B62A08950E94442AD6
:1016E0000E94B22BF2CF6F927F928F929F92AF9215
:1016F000BF92CF92DF92EF92FF920F931F930E94BF
:101700006E1528EE33E040E050E00E945D33922EEB
:10171000832E742E652E209342043093430440930D
:10172000440450934504622F732F842F952F20E893
:1017300031E541E050E00E945D3330933B0420935B
:101740003A04692D782D872D962D20E831E541E06A
:1017500050E00E945D3320E13EE040E050E00E9416
:101760005D3359016A0130933D0420933C04692D97
:10177000782D872D962D2CE330E040E050E00E943C
:101780005D33CA01B9012CE330E040E050E00E9433
:101790005D337B018C0170933F0460933E04692D9F
:1017A000782D872D962D2CE330E040E050E00E940C
:1017B0005D3370934104609340048DB79EB70897E2
:1017C0000FB6F8949EBF0FBE8DBFEDB7FEB7319632
:1017D00085E794E0ADB7BEB712969C938E931197B0
:1017E00087E091E093838283B582A482F782E682C8
:1017F00078D98DB79EB708960FB6F8949EBF0FBEE6
:101800008DBF1F910F91FF90EF90DF90CF90BF9011
:10181000AF909F908F907F906F9008951F93CF937C
:10182000DF93A0912E04B0912F0460913004709149
:1018300031044091340450913504209136043091A4
:1018400037048091380490913904E7E0803D9E0789
:101850001CF4182F1C5602C0182F105D8DB79EB7B0
:101860000E970FB6F8949EBF0FBE8DBFEDB7FEB7B3
:10187000319686E694E0CDB7DEB79A83898381E11D
:1018800091E093838283B583A483778366835187B2
:101890004087338722871487158623D980914E0489
:1018A00090914F0490932904809328048DB79EB79C
:1018B0000E960FB6F8949EBF0FBE8DBFDF91CF91ED
:1018C0001F91089588E060E00C9471168DE061E04E
:1018D0000C9471168DE061E00E9432168DE060E09C
:1018E0000C9471160F931F9308EC15E0C80168E281
:1018F0000E940B23C80162E30E949022C8010E944B
:1019000036221F910F91089588EC95E061E00E94C6
:10191000DF2188EC95E061E070E00E94E521809194
:1019200024048130A1F0813028F08230E9F0833046
:10193000B1F527C088EC95E060E070E040E050E051
:101940000E94D92188EC95E06AEE70E026C088EC10
:1019500095E060E070E040E050E00E94D92188EC22
:1019600095E064EF70E019C088EC95E060E070E00D
:1019700040E050E00E94D92188EC95E063E071E0FE
:101980000CC088EC95E060E070E040E050E00E9420
:10199000D92188EC95E062E171E00E944E1788EC55
:1019A00095E062E00E94DF2188EC95E060E070E065
:1019B00044E150E00E94D92188EC95E061E271E0B9
:1019C0000E944E1788EC95E00C94A522EF92FF92AE
:1019D0000F931F9388EC95E061E00E94DF2188EC73
:1019E00095E061E070E00E94E52188EC95E060E020
:1019F00070E040E050E00E94D92188EC95E06EE371
:101A000071E00E944D1888EC94E00E94D11E61158F
:101A100071058105910569F488EC95E060E070E05E
:101A200044E150E00E94D92188EC95E068E471E03F
:101A3000A5C0609190047091910488EC95E04AE013
:101A400050E00E943B1888EC95E065E071E00E9450
:101A50004D1888EC94E00E94D11EAB01BC0188ECCB
:101A600095E02AE030E00E94F01788EC95E060E015
:101A700070E048E050E024E530E008E010E0E1E00C
:101A8000EE2EF12C0E940B1F88EC95E060E070E0D8
:101A90004AE050E00E94D92188EC95E062E974E0C8
:101AA0000E944D1888EC95E068E070E042E150E05B
:101AB0000E94D92188EC95E061EA74E00E944D18FB
:101AC00088EC95E068E070E04AE150E00E94D9219E
:101AD00088EC95E067E571E00E944D1888EC95E090
:101AE00060EB74E00E944D1888EC95E06AE270E0CB
:101AF0004AE150E00E94D92188EC95E06CE571E064
:101B00000E944D1888EC95E062EB74E00E944D183D
:101B100088EC95E068E070E042E250E00E94D92154
:101B200088EC95E064EB74E00E944D1888EC95E039
:101B30006AE270E042E250E00E94D92188EC95E030
:101B400069EB74E00E944D1888EC95E068E070E065
:101B50004AE250E00E94D92188EC95E06EEB74E0F7
:101B60000E944D1888EC95E06AE270E04AE250E08D
:101B70000E94D92188EC95E063EC74E00E944D1836
:101B800088EC95E00E94A5221F910F91FF90EF90A5
:101B90000895EF92FF920F931F938091260488235C
:101BA00009F44CC088EC95E061E00E94DF2188ECEC
:101BB00095E060E070E041E050E00E94EB2188ECAD
:101BC00095E060E070E040E050E00E94D92188ECB0
:101BD00095E06FEA0E947E2180912604813031F4E5
:101BE00088EC95E062E671E00E944D188091260431
:101BF000823031F488EC95E060E771E00E944D1886
:101C000080912604833031F488EC95E06CE771E034
:101C10000E944D1880912604843031F488EC95E0C0
:101C200067E871E00E944D1880912604853009F024
:101C30003FC088EC95E062E971E038C088EC95E03F
:101C400061E00E94DF2188EC95E061E070E00E9495
:101C5000E52188EC95E060E070E040E050E00E9413
:101C6000D92188EC95E065E774E00E944D1888EC76
:101C700095E066E270E040E050E00E94D92140919A
:101C8000460450914704609148047091490488ECDF
:101C900095E02AE030E00E94FD1788EC95E067EFC0
:101CA0000E947E2188EC95E06DE971E00E944D185C
:101CB00088EC95E060E070E048E050E024E530E03A
:101CC00008E010E0F1E0EF2EF12C0E940B1F88ECF1
:101CD00095E062E00E94DF2188EC95E061E070E031
:101CE0000E94E52188EC95E06DE070E04DE050E069
:101CF0000E94D92188EC95E062E874E00E944F18B8
:101D000088EC95E061E00E94DF2188EC95E061E0DD
:101D100070E00E94E52188EC95E066E470E04EE119
:101D200050E00E94D921609132047091330488EC14
:101D300095E04AE050E00E943B1888EC95E060E0B6
:101D400070E046E250E024E530E006E210E00E9458
:101D50000B1F88EC95E061E00E94DF2188EC95E0A4
:101D600061E070E00E94E52188EC95E060E070E0C1
:101D700048E250E00E94D92188EC94E00E94D11EF4
:101D8000AB01BC0188EC95E02AE030E00E94F0173E
:101D900088EC95E068E170E048E250E00E94D921CB
:101DA00088EC95E069E874E00E944F1888EC95E0B3
:101DB0000E94A5221F910F91FF90EF900895EF923E
:101DC000FF920F931F93809127048823A9F188EC39
:101DD00095E061E00E94DF2188EC95E060E070E032
:101DE00041E050E00E94EB2188EC95E060E070E07B
:101DF00040E050E00E94D92180912704813031F4E5
:101E000088EC95E06FE971E00E944D1880912704FD
:101E1000823031F488EC95E06EEA71E00E944D1852
:101E200080912704833009F07BC088EC95E06DEB4E
:101E300071E00E944D1874C088EC95E061E00E944A
:101E4000DF2188EC95E061E070E00E94E52188ECFC
:101E500095E060E070E040E050E00E94D92188EC1D
:101E600095E065E774E00E944D1888EC95E06DE21E
:101E700070E040E050E00E94D9214091520450911E
:101E80005304609154047091550488EC95E02AE065
:101E900030E00E94FD17E0905A04F0905B0400913E
:101EA0005C0410915D04C801B70120E030E040E01F
:101EB00050E00E945131181684F4C801B7010E9405
:101EC00073309B01AC0181E066E0422F28E400E022
:101ED00062D981E066E040E020C0C801B70120E09F
:101EE00030E040E050E00E9402308823CCF481E0F2
:101EF00066E040E028E400E04ED960915A04709119
:101F00005B0480915C0490915D0490580E94733052
:101F10009B01AC0181E066E0422F28E408E1F5D89E
:101F200088EC95E060E070E048E050E026E430E0C6
:101F300008E010E0B1E0EB2EF12C0E940B1F88ECC2
:101F400095E063E00E94DF2188EC95E061E070E0BD
:101F50000E94E52188EC95E060E070E04CE050E004
:101F60000E94D92140914E0450914F046091500439
:101F70007091510488EC95E02AE030E00E94FD1752
:101F800080914E0490914F04A0915004B09151045F
:101F9000885E9340A040B04084F488EC95E061E016
:101FA0000E94DF2188EC95E061E070E00E94E5216D
:101FB00088EC95E069E271E071D788EC95E060E02B
:101FC00070E046E250E026E430E006E210E0A1E0F6
:101FD000EA2EF12C0E940B1F88EC95E061E00E9434
:101FE000DF2188EC95E061E070E00E94E52188EC5B
:101FF00095E060E070E048E250E00E94D9218091D5
:10200000EF01813029F488EC95E06EE00E947E219A
:1020100088EC95E06AE070E048E250E00E94D92147
:1020200088EC95E062E874E00E944F1888EC95E037
:102030006DE270E048E250E00E94D92140915604E0
:1020400050915704609158047091590488EC95E0C0
:102050002AE030E0D2D788EC95E00E94A5221F91BB
:102060000F91FF90EF900895482F50E060E070E0EE
:1020700088EC94E020E934E00C94451E88EC94E070
:102080000C94D71ECF92DF92EF92FF920F931F9383
:1020900028ECC22E24E0D22EC6010E94D11E00E9F7
:1020A00014E06F5F7F4F7093910460939004C801B8
:1020B000029666E674E00E944A058DB79EB70C97BB
:1020C0000FB6F8949EBF0FBE8DBFEDB7FEB7319629
:1020D0000F5E1F4FADB7BEB712961C930E931197AC
:1020E0008CEC91E09383828380913A0490913B043D
:1020F0009583848380913C0490913D0497838683EB
:1021000080913E0490913F049187808780914004A4
:1021100090914104938782870E9471058DB79EB785
:1021200006960FB6F8949EBF0FBE8DBFEDB7FEB7F3
:102130003196015F1F4FADB7BEB712961C930E9339
:10214000119791EEE92E91E0F92EF382E2828091CF
:102150002A0490912B04958384830E947105EDB726
:10216000FEB731960E5F1F4FADB7BEB712961C93E8
:102170000E931197F382E28280912C0490912D04AA
:10218000909581959F4F958384830E947105EDB74B
:10219000FEB731960E5F1F4FADB7BEB712961C93B8
:1021A0000E93119786EEE82E81E0F82EF382E282FC
:1021B0008091280490912904958384830E9471055D
:1021C000EDB7FEB731960B5F1F4FADB7BEB7129696
:1021D0001C930E931197F382E28280914E049091AA
:1021E0004F04958384830E947105EDB7FEB7319645
:1021F0000B5F1F4FADB7BEB712961C930E9311978E
:10220000F382E282809152049091530495838483F7
:102210000E947105EDB7FEB731960B5F1F4FADB74A
:10222000BEB712961C930E93119703531040F3827E
:10223000E2828091560490915704958384830E9492
:1022400071058DB79EB706960FB6F8949EBF0FBE68
:102250008DBFC601B8010E948D1E1F910F91FF9086
:10226000EF90DF90CF900895EF92FF920F931F931E
:1022700088EC94E040E050E060E070E00E94071ECF
:1022800088EC94E00E94D11E6115710581059105CD
:1022900081F488EC94E040E050E060E070E000E021
:1022A00014E020E030E0E8E3EE2EF12C0E94E41D83
:1022B00008C088EC94E00E94D11E862F609325040C
:1022C000D3DE1F910F91FF90EF9008958091EF0161
:1022D000813041F489E060ED77E024E130E040E0D6
:1022E00050E0A0C70895CEDE80E06AEF73E140E0E1
:1022F00050E01CD3EBDAEADF8EED94E00C94331D52
:10230000EF92FF920F931F938AEA95E00E94842731
:102310008AEA95E00E944B27882309F03EC08AEAAA
:1023200095E00E944E278823C1F1809122048823E2
:10233000D1F080912404813049F0813028F082303E
:1023400049F0833069F408C0CEDF0AC0C7D91092C3
:10235000260406C093DE04C01092230410922704C2
:10236000109222041AC090912304992359F4809169
:1023700027048F5F80932704843079F481E0809371
:1023800027040BC0913049F4809126048F5F80931D
:102390002604863010F09093260480EA95E00E948F
:1023A000842780EA95E00E944B27882381F0809162
:1023B0002604882309F050C0809123048F5F809306
:1023C0002304833008F448C01092230445C080EAF7
:1023D00095E00E944E278823D9F18091220488231A
:1023E00089F080912404813019F0833041F404C0D5
:1023F000109226046AD903C081D810922704109243
:1024000022042AC090912304992389F480912704FF
:10241000882331F481E080932204109224041CC0AC
:1024200081E08093220483E08093240415C09130DE
:1024300039F480912604882379F09093220405C012
:10244000923051F481E0809322049093240404C0DC
:1024500080EA95E00E945B2784EB95E00E94842748
:1024600084EB95E00E944B27882381F1809123041F
:10247000882391F480912704813009F0D6C06091BF
:102480005E0470915F04809160049091610420E08B
:1024900030E040E85FE34CC0823009F0C6C0E09015
:1024A0002504E394E092250488EC94E00E94D11E78
:1024B000FF2400E010E06E157F058007910710F4FF
:1024C0001092250480912504CFDDAFC084EB95E008
:1024D0000E944E27882381F080912704823009F0E2
:1024E000A4C08091EF018F5F8093EF01823009F0EB
:1024F0009CC01092EF0199C084EB95E00E945B278D
:10250000882309F492C080912304882301F58091E7
:102510002704813009F089C060915E0470915F04E6
:10252000809160049091610420E030E040EA50E442
:102530000E949E2F60935E0470935F0480936004FA
:10254000909361040E94420A0E94C4096EC08130C7
:1025500009F06BC0809126048330D1F0843030F4D0
:10256000813051F0823009F05EC00BC08430A9F098
:10257000853009F058C036C06CE370E080E090E030
:1025800004C060E17EE080E090E00E94E3294BC05F
:1025900060E871E581E090E0F8CF80913604909199
:1025A00037040C9721F410923704109236040091EE
:1025B0003604109137040F5F1F4F109337040093B8
:1025C000360460913004709131044091320450918E
:1025D00033042091340430913504E0903804F090B5
:1025E00039041BC0E0903804F09039040894E11CD1
:1025F000F11CF0923904E09238046091300470913B
:1026000031044091320450913304209134043091CC
:102610003504009136041091370480912E04909176
:102620002F040E94252A0E94C80A8EEB95E00E9482
:1026300084278EEB95E00E944B27882351F18091EF
:102640002304882391F480912704813009F0CDC0C0
:1026500060915E0470915F048091600490916104C8
:1026600020E030E040E85FE341C0823009F0BDC0C7
:1026700080912504815080932504882331F488ECCF
:1026800094E00E94D11E6093250480912504ECDC27
:10269000ACC08EEB95E00E944E27882359F08091C4
:1026A0002704823009F0A1C08091EF01815080930E
:1026B000EF019BC08EEB95E00E945B27882309F415
:1026C00094C080912304882301F5809127048130F0
:1026D00009F08BC060915E0470915F04809160048A
:1026E0009091610420E030E040EA50E40E949D2F88
:1026F00060935E0470935F04809360049093610420
:102700000E94420A0E94C40970C0813009F06DC065
:10271000809126048330D1F0843030F4813051F040
:10272000823009F060C00BC08430A9F0853009F018
:102730005AC038C064EC7FEF8FEF9FEF04C060EFAA
:1027400071EF8FEF9FEF0E94E3294DC060E87EEAB2
:102750008EEF9FEFF8CF8091360490913704019768
:1027600031F48DE090E0909337048093360400912B
:102770003604109137040150104010933704009331
:1027800036046091300470913104409132045091CC
:1027900033042091340430913504E0903804F090F3
:1027A00039041BC0E0903804F09039040894E10823
:1027B000F108F0923904E09238046091300470918D
:1027C000310440913204509133042091340430910B
:1027D0003504009136041091370480912E049091B5
:1027E0002F040E94252A0E94C80A1F910F91FF9072
:1027F000EF9008958EED94E00E942F1D882321F024
:1028000080E0B7D063DD5EC808958FED94E00E944C
:10281000AA1C88EC95E00E9436228091220488232D
:1028200009F072C880912304813031F0813018F0B2
:10283000823021F402C0C3CAACC9C8C808950F933E
:102840001F9388E061E04DD288E061E00BD23EDD6D
:102850008AEA95E00E94CD2780EA95E00E94CD2784
:1028600084EB95E00E94CD278EEB95E00E94CD276A
:102870000E94650B2FD836D80E94C80AF5DC89E87B
:1028800095E063E00E94FA260E94890A0FED14E0A9
:10289000C80148EE53E060E070E028EC3AE00E94A6
:1028A0000E1DC80148EE53E060E070E024EC39E012
:1028B0000E940E1DC80148EE53E060E070E023E77F
:1028C0003BE00E940E1DC80148EE53E060E070E05E
:1028D00021E139E00E940E1DC80144EF51E060E0A3
:1028E00070E020E831E10E940E1DC80140E65AEE7A
:1028F00060E070E025E63BE00E940E1D0E940E0C99
:102900001F910F9108959B01AC018DE296E0B901F2
:102910000C94F92B0F931F938B019C018DE296E091
:10292000B8010E94002C1F910F910895823000F58C
:10293000E82FF0E0EE0FFF1FE051FA4F7183608344
:10294000882319F08130A1F408C0809169008C7F40
:10295000842B80936900E89A089580916900440F60
:10296000551F440F551F837F842B80936900E99A7C
:102970000895823080F4882319F0813021F402C058
:10298000E89801C0E998E82FF0E0EE0FFF1FE05152
:10299000FA4F1182108208951F920F920FB60F9274
:1029A00011242F933F934F935F936F937F938F9354
:1029B0009F93AF93BF93EF93FF938091F005909116
:1029C000F105892B29F0E091F005F091F1050995C9
:1029D000FF91EF91BF91AF919F918F917F916F91F7
:1029E0005F914F913F912F910F900FBE0F901F90CD
:1029F00018951F920F920FB60F9211242F933F93A9
:102A00004F935F936F937F938F939F93AF93BF93F6
:102A1000EF93FF938091F2059091F305892B29F0B4
:102A2000E091F205F091F3050995FF91EF91BF91C7
:102A3000AF919F918F917F916F915F914F913F9156
:102A40002F910F900FBE0F901F9018951F920F920D
:102A50000FB60F9211242F933F938F939F93AF93B1
:102A6000BF938091F8059091F905A091FA05B09176
:102A7000FB053091FC050196A11DB11D232F2D5F93
:102A80002D3720F02D570196A11DB11D2093FC0577
:102A90008093F8059093F905A093FA05B093FB0590
:102AA0008091F4059091F505A091F605B091F70598
:102AB0000196A11DB11D8093F4059093F505A09397
:102AC000F605B093F705BF91AF919F918F913F911C
:102AD0002F910F900FBE0F901F9018958FB7F894FD
:102AE0002091F8053091F9054091FA055091FB05C8
:102AF0008FBFB901CA0108959B01AC017FB7F8945B
:102B00008091F4059091F505A091F605B091F70537
:102B100066B5A89B05C06F3F19F00196A11DB11DB8
:102B20007FBFBA2FA92F982F8827860F911DA11D2F
:102B3000B11D62E0880F991FAA1FBB1F6A95D1F7CC
:102B4000BC012DC0FFB7F8948091F4059091F50574
:102B5000A091F605B091F705E6B5A89B05C0EF3F3B
:102B600019F00196A11DB11DFFBFBA2FA92F982FF3
:102B700088278E0F911DA11DB11DE2E0880F991FBE
:102B8000AA1FBB1FEA95D1F7861B970B885E93405F
:102B9000C8F2215030404040504068517C4F2115D0
:102BA00031054105510571F60895789484B5826028
:102BB00084BD84B5816084BD85B5826085BD85B5E1
:102BC000816085BDEEE6F0E0808181608083E1E890
:102BD000F0E01082808182608083808181608083C8
:102BE000E0E8F0E0808181608083E1EBF0E08081CB
:102BF00084608083E0EBF0E0808181608083EAE79D
:102C0000F0E0808184608083808182608083808125
:102C1000816080838081806880831092C1000895E4
:102C2000982F8E3008F09E5097708091F001829519
:102C3000880F880F807C892B80937C0080917A009C
:102C4000806480937A0080917A0086FDFCCF209189
:102C5000780040917900942F80E030E0282B392BC8
:102C6000C9010895CF93DF93482F50E0CA01815ADC
:102C70009E4FFC013491455B5E4FFA01849188239D
:102C800069F190E0880F991FFC01E35DFE4FA5916B
:102C9000B491FC01E95CFE4FC591D491662351F4D7
:102CA0002FB7F8948C91932F909589238C938881DA
:102CB00089230BC0623061F42FB7F8948C91932F65
:102CC000909589238C938881832B88832FBF06C09E
:102CD0009FB7F8948C91832B8C939FBFDF91CF91FA
:102CE0000895482F50E0CA018D589E4FFC01249151
:102CF000CA01815A9E4FFC019491455B5E4FFA01D7
:102D00003491332309F440C0222351F1233071F070
:102D1000243028F42130A1F0223011F514C02630DF
:102D2000B1F02730C1F02430D9F404C08091800084
:102D30008F7703C0809180008F7D8093800010C0CA
:102D400084B58F7702C084B58F7D84BD09C0809122
:102D5000B0008F7703C08091B0008F7D8093B0006A
:102D6000E32FF0E0EE0FFF1FE95CFE4FA591B49159
:102D70002FB7F894662321F48C919095892302C093
:102D80008C91892B8C932FBF0895682F70E0CB0115
:102D90008D589E4FFC012491CB01815A9E4FFC011E
:102DA0004491655B7E4FFB019491992319F420E0D7
:102DB00030E03CC0222351F1233071F0243028F45C
:102DC0002130A1F0223011F514C02630B1F02730A7
:102DD000C1F02430D9F404C0809180008F7703C003
:102DE000809180008F7D8093800010C084B58F77A4
:102DF00002C084B58F7D84BD09C08091B0008F77FB
:102E000003C08091B0008F7D8093B000892F90E047
:102E1000880F991F8F5B9E4FFC01A591B4918C91F7
:102E200020E030E0842311F021E030E0C901089572
:102E3000CF93DF93BADE03DDC0E0D0E0E6DC20977D
:102E4000E9F30E940000FACFCF92DF92EF92FF9257
:102E50000F931F93CF93DF937C016B018A01C0E036
:102E6000D0E00FC0D6016D916D01D701ED91FC91BD
:102E70000190F081E02DC7010995C80FD91F0150BD
:102E800010400115110571F7CE01DF91CF911F910F
:102E90000F91FF90EF90DF90CF900895EF92FF9207
:102EA0000F931F93CF93DF937C018B01C0E0D0E0A1
:102EB000F8010F5F1F4F6491662359F0D701ED9120
:102EC000FC910190F081E02DC7010995C80FD91F31
:102ED000EFCFCE01DF91CF911F910F91FF90EF9037
:102EE0000895CF93DF93EC016115710519F420E08B
:102EF00030E00FC0DB010D900020E9F71197A61B11
:102F0000B70BE881F9810280F381E02DAD010995CD
:102F10009C01C901DF91CF9108954F925F927F92FA
:102F20008F929F92AF92BF92CF92DF92EF92FF92D9
:102F30000F931F93DF93CF93CDB7DEB7A1970FB653
:102F4000F894DEBF0FBECDBF2C01742ECB01223012
:102F500008F42AE019A231E2C32ED12CCC0EDD1EDA
:102F6000822E9924AA24BB24672D752FA5019401D4
:102F70000E945D3379018A01C801B701A50194015E
:102F80000E941F33472D461B0894C108D1084A30C0
:102F900014F4405D01C0495CF6014083E114F10482
:102FA0000105110521F07E2C5F2DC801DDCFC20186
:102FB000B60197DFA1960FB6F894DEBF0FBECDBF66
:102FC000CF91DF911F910F91FF90EF90DF90CF9005
:102FD000BF90AF909F908F907F905F904F9008959B
:102FE000DC012115310541F4ED91FC910190F08156
:102FF000E02D642F0995089590CFCF92DF92EF9244
:10300000FF920F931F93CF93DF93EC016A017B0133
:103010002115310541F4E881F9810190F081E02D1D
:10302000642F09951DC02A303105C9F477FF16C0F9
:10303000E881F9810190F081E02D6DE209958C0124
:1030400044275527BA014C195D096E097F09CE0145
:103050002AE063DF9801280F391F03C02AE05DDFF3
:103060009C01C901DF91CF911F910F91FF90EF90CB
:10307000DF90CF900895EF92FF920F931F937B0103
:103080009A010027F7FC0095102FB801A701B5DFC2
:103090001F910F91FF90EF90089523CF0895AF9265
:1030A000BF92CF92DF92EF92FF920F931F93CF9335
:1030B000DF935C016B01EE24FF24C0E0D0E00FC081
:1030C000D501ED91FC9100811181C601BE0108D3AB
:1030D000682FC501F8010995E80EF91E2196F60141
:1030E00084819581C817D90758F3C701DF91CF9123
:1030F0001F910F91FF90EF90DF90CF90BF90AF9016
:103100000895813041F0813018F08230D1F409C047
:1031100010926E00089580916F008D7F80936F00F4
:103120000895809170008D7F8093700081E080937E
:10313000B0008091B100887F84608093B1001092CC
:10314000B30008951F93182F8091F101811711F09A
:103150009FEF06C0E7E8F1E094918FEF8093F101D3
:10316000892FCFDF812F60E0BCDD1F9108951F9272
:103170000F920FB60F9211242F933F934F935F93AB
:103180006F937F938F939F93AF93BF93EF93FF932F
:1031900080910B0690910C06A0910D06B0910E0641
:1031A0000097A105B10551F1E0910F06F0911006CD
:1031B0008081909111068927808380910B069091E0
:1031C0000C06A0910D06B0910E06181619061A06E7
:1031D0001B06BCF480910B0690910C06A0910D0685
:1031E000B0910E060197A109B10980930B06909347
:1031F0000C06A0930D06B0930E0603C08091F1015A
:10320000A1DFFF91EF91BF91AF919F918F917F913E
:103210006F915F914F913F912F910F900FBE0F9043
:103220001F9018952F923F925F926F927F928F928C
:103230009F92AF92BF92CF92DF92EF92FF920F9345
:103240001F93DF93CF9300D000D0CDB7DEB7A82F68
:103250001B0129833A834B835C838091F1018A1798
:1032600021F4E7E8F1E0549082C08F3F09F0D9C122
:10327000A093F101E7E8F1E054902FEF521609F422
:10328000D0C181E0581639F192E0591609F449C0CD
:10329000552009F06CC014BC15BC84B5826084BD97
:1032A00085B5816085BD2A2F30E0F901E55BFE4FD1
:1032B000E491F0E0EE0FFF1FE95CFE4F85919491E1
:1032C0009093020680930106215A3E4FF9018491A2
:1032D000809303064EC0109280001092810080916E
:1032E000810088608093810080918100816080935B
:1032F00081002A2F30E0F901E55BFE4FE491F0E018
:10330000EE0FFF1FE95CFE4F8591949190930906A3
:1033100080930806215A3E4FF901849180930A0652
:1033200028C01092B0001092B1008091B00082606D
:103330008093B0008091B10081608093B1002A2F0A
:1033400030E0F901E55BFE4FE491F0E0EE0FFF1F86
:10335000E95CFE4F859194919093100680930F063F
:10336000215A3E4FF90184918093110602C057FC07
:1033700058C18A2F61E076DC552021F0F2E05F161B
:1033800009F0BEC031018824992460E072E18AE727
:1033900090E0A40193010E947F3359016A018601E4
:1033A00075010894E108F108010911092FEFE216EF
:1033B000F1040105110509F008F499C060E472E414
:1033C0008FE090E0A40193010E947F3379018A018C
:1033D0000894E108F1080109110982E05816C1F4C6
:1033E0009FEFE916F1040105110509F008F484C006
:1033F00060E970ED83E090E0A40193010E947F33C7
:1034000079018A010894E108F1080109110983E0B2
:10341000AFEFEA16F1040105110509F008F468C0E0
:1034200068E478EE81E090E0A40193010E947F338C
:1034300079018A010894E108F10801091109552070
:1034400011F483E01DC0B2E05B1611F084E018C0F7
:10345000EFEFEE16F1040105110509F008F4DFC0E5
:1034600064E274EF80E090E0A40193010E947F3356
:1034700079018A010894E108F1080109110985E040
:10348000FFEFEF16F1040105110591F188F162E1FA
:103490007AE780E090E0A40193010E947F337901F4
:1034A0008A010894E108F10801091109552011F079
:1034B00086E001C084E02FEFE216F104010511055A
:1034C000B9F0B0F0C601B50120E034E040E050E0D2
:1034D0000E947F3379018A010894E108F10801090B
:1034E0001109552011F087E008C085E003C081E094
:1034F000552019F485BD3AC082E08093B10036C0F2
:103500005101CC24DD2460E072E18AE790E0A6015D
:1035100095010E947F3379018A010894E108F1083E
:103520000109110980E0E81680E0F80681E008074B
:1035300080E0180710F491E010C068E478EE81E0B4
:1035400090E0A60195010E947F3379018A010894D9
:10355000E108F1080109110993E0A1E05A1631F4DC
:1035600080918100887F982B9093810089819A8136
:10357000AB81BC810097A105B10529F48FEF9FEFC6
:10358000AFEFBFEF13C0220C331CB10180E090E01D
:1035900029813A814B815C810E941F3328EE33E000
:1035A00040E050E00E945D33C901DA01E1E05E16BF
:1035B000A1F0F2E05F1619F1552099F5E7BC809370
:1035C000FD059093FE05A093FF05B0930006809142
:1035D0006E00826080936E0024C0F0928900E092B9
:1035E00088008093040690930506A0930606B09386
:1035F000070680916F00826080936F0012C0E09296
:10360000B30080930B0690930C06A0930D06B09325
:103610000E068091700082608093700002C084E08A
:103620006CCF0F900F900F900F90CF91DF911F9163
:103630000F91FF90EF90DF90CF90BF90AF909F9051
:103640008F907F906F905F903F902F9008952F9272
:103650003F924F925F926F927F928F929F92AF9222
:10366000BF92CF92DF92EF92FF920F931F93DF935F
:10367000CF93CDB7DEB73B014C0119012A016D890B
:103680007E898F89988D6A197B098C099D09621A38
:10369000730A840A950AA40193010E941F33E21859
:1036A000F30804091509A80197010E947F332A0D28
:1036B0003B1D4C1D5D1DB901CA01CF91DF911F91CA
:1036C0000F91FF90EF90DF90CF90BF90AF909F90C1
:1036D0008F907F906F905F904F903F902F900895C4
:1036E000FC01848195816817790748F40190F08185
:1036F000E02D309721F0E60FF71F8081089580E0DC
:1037000008950F931F93CF93DF93EC018B016F5FAD
:103710007F4F888199810E947104009711F480E0A5
:1037200005C0998388831B830A8381E0DF91CF9151
:103730001F910F910895CF93DF93EC0188819981B8
:10374000892B29F08A819B818617970758F4CE012F
:10375000D8DF882341F08C819D81892B19F4E88181
:10376000F981108281E0DF91CF910895EF92FF926D
:103770000F931F93CF93DF93EC017B016C817D81CD
:10378000E114F104B9F04115510591F08A01060FD9
:10379000171FB801D0DF882369F0888199812C81B7
:1037A0003D81820F931FB7010E944A051D830C8340
:1037B00081E001C080E0DF91CF911F910F91FF90D8
:1037C000EF900895EF92FF920F931F93DF93CF93A3
:1037D000CDB7DEB727970FB6F894DEBF0FBECDBFCB
:1037E0007C01CB018E010F5F1F4FB8014AE050E012
:1037F0000E945105F80101900020E9F73197E01B84
:10380000F10BC701B801AF01B1DF27960FB6F894ED
:10381000DEBF0FBECDBFCF91DF911F910F91FF9003
:10382000EF9008956115710511F480E00895DB01B2
:103830000D900020E9F71197A61BB70BAD0196CFAD
:10384000FB01608171814481558190CFCF93DF93DB
:10385000EC0188819981009711F00E941904198266
:1038600018821D821C821B821A82DF91CF910895DB
:10387000EF92FF920F931F93CF93DF93EC017B01A5
:103880008A01BA0158DF882319F4CE01DFDF07C0AF
:103890001D830C8388819981B7010E944A05CE015E
:1038A000DF91CF911F910F91FF90EF900895CF93EB
:1038B000DF93EC01198218821B821A821D821C82FE
:1038C0001E826115710549F0DB010D900020E9F7BA
:1038D0001197A61BB70BAD01CBDFDF91CF910895F8
:1038E0000F931F93182F092F6115710551F0DB01FC
:1038F0000D900020E9F71197A61BB70BAD01B8DFBB
:1039000001C0A4DF812F902F1F910F910895CF93B5
:10391000DF93EC01FB018617970751F060817181FD
:103920006115710521F044815581A2DF01C08EDF50
:10393000CE01DF91CF910895FC0111821082138294
:103940001282158214821682E2CFFC01808191815D
:103950000C941904EF92FF920F931F93CF93DF9370
:103960007C018C01C0E0D0E0F8018081882361F007
:10397000CE0134E0880F991F3A95E1F78C0F9D1F17
:103980008E0D9F1D0E94EA2C21960F5E1F4FCA309C
:10399000D10551F7DF91CF911F910F91FF90EF90DB
:1039A0000895FF920F931F93CF93DF93DC01E901FA
:1039B0009801FC01FF248081882341F0F3947196E3
:1039C0008AE0F816C1F7FF24FA9421C08F2D9927B9
:1039D00087FD90958C01E4E0000F111FEA95E1F757
:1039E000080F191F0A0F1B1F81E0F8018083418314
:1039F00052836383748336832583D287C1876ED8CD
:103A0000F8016387748785879687108A17868F2DBC
:103A1000DF91CF911F910F91FF9008950F931F9306
:103A20000FEF1FEFBEDF1F910F9108950F931F93AC
:103A3000CF93DF93EC0100E010E0CE01800F911FE7
:103A40000E94E72C0F5E1F4F0A3A1105B1F7DF9174
:103A5000CF911F910F910895FC0110820895FC01F0
:103A60008081108208950F931F938C0164E670E0AB
:103A700080E090E041D883B7817F846083BF81E09C
:103A8000F801808383B7816083BF83B7816083BF80
:103A9000889583B78E7F83BF83B78E7F83BF1F9147
:103AA0000F9108958F929F92AF92BF92CF92DF9223
:103AB000EF92FF920F931F93CF93DF934C01CB01B3
:103AC000BA0169015801C0E0D0E013C07B018C014C
:103AD0000894E11CF11C011D111DD6014D916D01D1
:103AE000D4011896ED91FC91199709952196C8017A
:103AF000B701CA15DB0550F3DF91CF911F910F91EC
:103B0000FF90EF90DF90CF90BF90AF909F908F90FD
:103B100008958F929F92AF92BF92CF92DF92EF92D1
:103B2000FF920F931F93CF93DF934C0169015801CC
:103B3000C0E0D0E015C07A018B010894E11CF11CB3
:103B4000011D111DD4011A96ED91FC911B97CB011B
:103B5000BA010995F60181936F012196B801A70179
:103B6000CA15DB0540F3DF91CF911F910F91FF90B4
:103B7000EF90DF90CF90BF90AF909F908F9008957F
:103B80000F931F93FC0140815181628173813C96A8
:103B90009F010AE010E086DF1F910F9108950F93B7
:103BA0001F93FC0140815181628173813C969F018A
:103BB0000AE010E0AEDF1F910F910895FC017187BC
:103BC0006087538742870895EF92FF920F931F9368
:103BD000FC014083518362837383465F5F4F6F4F65
:103BE0007F4F4483558366837783148615861686B4
:103BF0001786F18AE08A028B138B248B358BC0DF0A
:103C000080E090E01F910F91FF90EF900895FC01EC
:103C100080819181A281B3810A96A11DB11D848307
:103C20009583A683B783CF01BADF80E090E0089543
:103C3000CF92DF92EF92FF920F931F937C01CB0103
:103C4000BA016901F7010089118961507040804013
:103C50009040980140E050E00E941F33DC01CB010E
:103C6000F7014481558166817781480F591F6A1F8A
:103C70007B1FC701960116DF80E090E01F910F9136
:103C8000FF90EF90DF90CF900895AF92BF92CF92C8
:103C9000DF92EF92FF920F931F93CF93DF93EC018C
:103CA0006A017B015901411551056105710539F121
:103CB0008C859D85AE85BF8584179507A607B707B8
:103CC000F0F0088919890894C108D108E108F108C1
:103CD000980140E050E0C701B6010E941F33DC01AB
:103CE000CB014C815D816E817F81480F591F6A1F16
:103CF0007B1FCE0195010DDF20E030E002C021E006
:103D000030E0C901DF91CF911F910F91FF90EF90AB
:103D1000DF90CF90BF90AF900895CF92DF92EF9257
:103D2000FF920F931F93CF93DF93EC016B01EC8411
:103D3000FD840E851F850894E11CF11C011D111DD9
:103D40006A897B898C899D892C813D814E815F8127
:103D5000621B730B840B950B2889398940E050E076
:103D60000E945D332E153F054007510718F422E0ED
:103D700030E00DC0EC86FD860E871F87CE01B801AE
:103D8000A701960155DFCE01FBDE20E030E0C9013E
:103D9000DF91CF911F910F91FF90EF90DF90CF9027
:103DA0000895FC0164857585868597850895CF9271
:103DB000DF92EF92FF920F931F936C01F0DEF601FA
:103DC00040815181628173810289138924893589F7
:103DD000E088F188C601F8DE1F910F91FF90EF9007
:103DE000DF90CF900895FC017583648371876087AD
:103DF0005783468353874287158A1586148617860C
:103E0000168621E0248B8FEF9FEF938B828B918B13
:103E1000808B268B08952F923F924F925F926F92E4
:103E20007F928F929F92AF92BF92CF92DF92EF924A
:103E3000FF920F931F93DF93CF9300D000D0CDB7A5
:103E4000DEB73C017C836B836A015901FA82E98207
:103E5000222433249801241B350B37FF03C03095EF
:103E600021953F4FC5014B815C81841B950B97FFCA
:103E700003C0909581959F4F821793075CF481E072
:103E8000282E312CC601CB80DC809C838B83C8011B
:103E900085015C018B819C81A816B90644F4C5019B
:103EA000AB80BC809C838B83C80186016C0125019B
:103EB000AB81BC814A1A5B0A7801EC18FD08F7FE59
:103EC00004C0F094E194F108F394C016D10624F0F4
:103ED00088248A94982C03C0B1E08B2E912CC201C7
:103EE00062E070E00E944A338B0125C0D301ED915E
:103EF000FC912114310441F00480F581E02DC301CF
:103F0000B6014B815C8107C00480F581E02DC301BF
:103F10006B817C81A60129813A8109950E191F09BF
:103F200017FF04C0C80CD91C040D151DEB81FC81C2
:103F30003196FC83EB834B815C81A416B506B4F605
:103F40000F900F900F900F90CF91DF911F910F91D5
:103F5000FF90EF90DF90CF90BF90AF909F908F90A9
:103F60007F906F905F904F903F902F9008954F9269
:103F70005F926F927F928F929F92AF92BF92CF92F9
:103F8000DF92EF92FF920F931F936C015B014A0146
:103F900039012801DC01ED91FC910484F585E02DC7
:103FA00087010995D601ED91FC91A4014150504043
:103FB000440D551D0484F585E02DC601B50193011E
:103FC0000995D601ED91FC910284F385E02DC6019F
:103FD000B501A40192010995D601ED91FC910894D7
:103FE000A108B108A60CB71C0284F385E02DC60118
:103FF000B501A401920109951F910F91FF90EF90D7
:10400000DF90CF90BF90AF909F908F907F906F90F8
:104010005F904F900895CF92DF92EF92FF920F93AF
:104020001F93DC016B017801ED91FC918A01015035
:104030001040020F131F0084F185E02D96010995B1
:104040001F910F91FF90EF90DF90CF900895CF9246
:10405000DF92EF92FF920F931F93DC016A01C90177
:104060007801ED91FC9111979B0121503040280F70
:10407000391F0084F185E02DCD01860109951F913E
:104080000F91FF90EF90DF90CF9008956F927F9205
:104090008F929F92AF92BF92CF92DF92EF92FF9258
:1040A0000F931F93CF93DF935C013A01690148019D
:1040B000EB01C60ED71E0DC0D501ED91FC91028417
:1040C000F385E02DC501BE01A30194018701099587
:1040D0002196CC15DD0584F3DF91CF911F910F91CF
:1040E000FF90EF90DF90CF90BF90AF909F908F9018
:1040F0007F906F900895EF92FF920F931F93FC01B2
:104100007B01A081B1812085318502851385509680
:104110000D90BC91A02D60E070E040E050E0FD010A
:1041200009951F910F91FF90EF9008952F923F9264
:104130004F925F926F927F928F929F92AF92BF92B7
:10414000CF92DF92EF92FF920F931F93DF93CF9363
:10415000CDB7DEB72F970FB6F894DEBF0FBECDBF39
:104160005C015E834D8318870F83FA86E986CB86D0
:10417000DC0118968D919C911997681779070CF0BE
:10418000A4C01A968D919C911B97481759070CF063
:104190009CC0EC2DF0E0FF87EE87CF01880F991FC0
:1041A000880F991F8E0F9F1F860F971F18161906CD
:1041B0000CF08BC0CF01F3E0880F991FFA95E1F75F
:1041C000840F951F181619060CF07FC085E0289FF4
:1041D000A00111245A8349832B011B011C825C819D
:1041E000553011F480E005C0E981FA81E857FE4FAF
:1041F00084912C863D866D807E8043011B82C82E73
:10420000DD2480FF1CC0D501ED91FC91BB85B13050
:1042100049F40480F581E02DC501B201A3012F818D
:10422000388522C00088F189E02DC5016C857D8527
:10423000A4012E853F858901EF80F88423C0E9859C
:10424000FA852F813885E217F307E9F0D501ED9162
:10425000FC91BB85B13051F40480F581E02DC5019E
:10426000B201A30129853A8509950DC00088F1891D
:10427000E02DC5016C857D85A4012E853F858901D2
:10428000E984FA840995EB81EF5FEB832E853F8506
:10429000820E931E0894611C711CE83021F0D594A5
:1042A000C7948C2DACCF3C813F5F3C834E855F85AE
:1042B000240E351E0894411C511C89819A81019657
:1042C0009A838983363009F08ACF2F960FB6F894F7
:1042D000DEBF0FBECDBFCF91DF911F910F91FF9039
:1042E000EF90DF90CF90BF90AF909F908F907F9096
:1042F0006F905F904F903F902F900895CF92EF92E4
:10430000FF920F931F93CF93DF93EC01262F6A3018
:1043100061F42C8930E013E0220F331F1A95E1F786
:104320008E859F85820F931F36C06D30C1F16C85DD
:104330007D854E855F8508891989EA88FB88CC8848
:10434000F5DE2C8986E0289FB00111248C859D859F
:10435000680F791F7D876C878E89882301F1422F32
:1043600050E08AEF9FEF9C01429FC001439F900D58
:10437000529F900D112428853985820F931F86172F
:1043800097076CF4B3E0440F551FBA95E1F78E859B
:104390009F85840F951F9F878E871D861C8681E0D1
:1043A00090E0DF91CF911F910F91FF90EF90CF9010
:1043B0000895FC0175876487578746870895FC0137
:1043C000662309F461E0648B0895FC01718B608BB6
:1043D000738B628B0895FC01718B608B538B428BC6
:1043E000089508956435710508F03FC057FD3DC03C
:1043F00040335105D4F5DA0183E0B595A7958A9548
:10440000E1F747705070232BC1F084E590E0A89F3E
:10441000F001A99FF00DB89FF00D1124E60FF71FD2
:10442000EE50FE4F81E090E002C0880F991F4A9540
:10443000E2F72081282B2083089584E590E0A89F4F
:10444000F001A99FF00DB89FF00D1124E60FF71FA2
:10445000EE50FE4F81E090E002C0880F991F4A9510
:10446000E2F780952081282320830895CF93DF935E
:10447000DC0188EF91E0E2EFF1E0EF019C0119929D
:1044800021503040E1F71D961C921E921C971F96FA
:104490001C921E921E97DF91CF9108951F93CF9388
:1044A000DF93EC01162F898D60E00E9471168B8DD1
:1044B00018161CF460E00E94711630E840E050E0ED
:1044C000612F70E0EE8DFF8D90818DA18095892305
:1044D0008083832F90E086239723EC8DFD8D2CA184
:1044E000892B21F08081822B808304C080812095DC
:1044F00028232083EE8DFF8D80819DA1892B8083D1
:1045000036954F5F5F4F48305105E1F68B8D181699
:104510001CF461E00E947116DF91CF911F91089504
:104520001F93CF93DF93EC01162F67FD1FE7CE019A
:1045300061E2B4DF1068CE01612FB0DFCE0160E22E
:10454000ADDFDF91CF911F910895CF92DF92FF925F
:104550000F931F93CF93DF93EC01FF2400E010E053
:104560006F2D6064CE019ADFCE0160E897DF898D00
:1045700061E00E9471168B8D18161CF460E00E9499
:104580007116D801AE50BE4F60E08C9130E840E02B
:1045900050E0C82EDD24EE8DFF8D90818DA1809599
:1045A00089238083832F90E08C219D21EC8DFD8DCC
:1045B0002CA1892B21F08081822B808304C08081F3
:1045C000209528232083EE8DFF8D80819DA1892B4E
:1045D000808336954F5F5F4F48305105E1F66F5F3E
:1045E0001196643591F68B8D18161CF461E00E94CB
:1045F0007116F3940C5A1F4F86E0F81609F0B0CFED
:10460000CE0160E44BDFDF91CF911F910F91FF90BE
:10461000DF90CF9008951F93CF93DF93EC01162F77
:104620008F8961E00E943216888D61E00E94321607
:10463000898D61E00E9432168A8D18161CF461E0A3
:104640000E9432168B8D18161CF461E00E943216FF
:104650008A8D181684F460E00E94711688E893E150
:1046600020E931E0F9013197F1F70197D9F78A8D07
:1046700061E00E947116E88D2E2F332727FD3095BB
:10468000F901E55BFE4FE491F0E0EE0FFF1FE95CFE
:10469000FE4F859194919F8F8E8F215A3E4FF90145
:1046A00084918DA3EF892E2F332727FD3095F901B3
:1046B000E55BFE4FE491F0E0EE0FFF1FE95CFE4F7B
:1046C000859194919D8F8C8F215A3E4FF901849151
:1046D0008CA3EB8D2E2F332727FD3095F901E55B59
:1046E000FE4FE491F0E0EE0FFF1FE95CFE4F859175
:1046F000949199A388A3215A3E4FF90184918EA3E6
:10470000E98D2E2F332727FD3095F901E55BFE4F0C
:10471000E491F0E0EE0FFF1FE95CFE4F859194916C
:104720009BA38AA3215A3E4FF90184918FA3CE0106
:1047300061E2B4DECE0164E1B1DE17FD1FE710686F
:10474000CE01612FABDECE0160E2A8DECE016CE0CF
:10475000A5DECE01FADEDF91CF911F910895EF9291
:104760000F93FC011382128282EF93E09183808386
:10477000478B608F218FE28E038FCF0164E570E05D
:1047800040E350E030DB0F91EF9008950895EF92F1
:10479000FF920F931F93162F042F84E7E82E86E0D5
:1047A000F82EC70167E770E00E940C2CC701612F4B
:1047B0000E948D2CC701602F0E948D2CC7010E9482
:1047C000CE2C1F910F91FF90EF900895CF92DF9222
:1047D000EF92FF920F931F93162F94E7E92E96E026
:1047E000F92EC70167E770E00E940C2CC701612F0A
:1047F0000E948D2CC7010E94CE2CC70167E770E094
:104800000E940C2CC70167E770E042E050E00E9474
:10481000DC2CC7010E941F2C182F00E0C7010E944A
:104820001F2C6C01C7010E94CE2C0C291D29C80128
:104830001F910F91FF90EF90DF90CF9008950F930D
:104840001F938C0164EF4EE2A2DF80E29EE40197A9
:10485000F1F7C80166EFBADF1F910F910895CF926B
:10486000DF92EF92FF920F931F936C01E8DFA0E0BD
:10487000B0E0F6012589368940E050E0821B930BB9
:10488000A40BB50B2389348940E050E0BC01CD0175
:104890000E941F337B018C01FFE015950795F7946B
:1048A000E794FA95D1F7D6011D966D917C911E97EC
:1048B000882777FD8095982FEBE0660F771F881F7C
:1048C000991FEA95D1F71F962D913C915097442757
:1048D00037FD4095542F2E0D3F1D401F511F0E9444
:1048E0007F3388E090E0A0E0B0E0E80EF91E0A1FF8
:1048F0001B1F2E0D3F1D401F511F64E0559547950E
:10490000379527956A95D1F7CA01B9010E94A13060
:1049100020E030E040E251E40E9406301F910F9108
:10492000FF90EF90DF90CF900895EF92FF921F934A
:10493000162FA4E7EA2EA6E0FA2EC70167E770E07B
:104940006BD7C701612FE9D7C7010E94CE2CC701E1
:1049500067E770E061D7C70167E770E041E050E0CA
:104960000E94DC2CC7016BD7182FC7010E94CE2CE8
:10497000812F1F91FF90EF900895EF92FF920F9378
:104980001F93CF93DF93EC0148814295440F440F6E
:10499000407C4C5C64EFFBDE8881882319F480E264
:1049A0009EE409C0813019F480E09DE704C08230A4
:1049B00029F480EC9AED0197F1F709C084E091E0C9
:1049C00020E931E0F9013197F1F70197D9F7CE01EC
:1049D00066EFFCDE7C0100E010E0102F0F2DFE2CB6
:1049E000EE24CE0168EFA1DF282F30E040E050E058
:1049F0002E293F29402B512B688188E090E0861BAF
:104A0000910904C056954795379527958A95D2F711
:104A1000B901CA01DF91CF911F910F91FF90EF90E3
:104A200008953F924F925F926F927F928F929F92E2
:104A3000AF92BF92CF92DF92EF92FF920F931F93AC
:104A4000DF93CF93CDB7DEB728970FB6F894DEBFCC
:104A50000FBECDBF4C01F3DE7C01C4018EDF6D8340
:104A60007E838F83988700E010E0D40155968D9166
:104A70009C915697A0E0B0E0E81AF90A0A0B1B0BCC
:104A8000F4012389348940E050E0C801B7010E9455
:104A90001F335B016C01FFE0D594C794B794A794D2
:104AA000FA95D1F7D4011F96ED90FC90509700270E
:104AB000F7FC0095102FEA0CFB1C0C1D1D1DC801F6
:104AC000B70122E030E040E050E00E947F33F40183
:104AD00065857685882777FD8095982FEBE0660FB2
:104AE000771F881F991FEA95D1F7621B730B840B00
:104AF000950B20E630EF4FEF5FEFA20EB31EC41E02
:104B0000D51EA80197010E947F33A20EB31EC41EBA
:104B1000D51EC601B501A60195010E941F332B01C8
:104B20003C011CE075946794579447941A95D1F70B
:104B3000D4013C9015962D913C911697442737FD52
:104B40004095542FC601B5010E941F337B018C0193
:104B5000BDE015950795F794E794BA95D1F722E053
:104B600030E040E050E0E20EF31E041F151FD401B8
:104B700017962D913C911897442737FD4095542F57
:104B8000C301B2010E941F33BC01992777FD9095A4
:104B9000892FE60EF71E081F191FF2E015950795DD
:104BA000F794E794FA95D1F720E030E840E050E040
:104BB000E20EF31E041F151FD40151962D913C9156
:104BC000529740E050E0C801B7010E941F339B019B
:104BD000AC01EFE05695479537952795EA95D1F7C3
:104BE00029833A834B835C83D40113962D913C91A6
:104BF0001497442737FD4095542FC601B5010E94F4
:104C00001F337B018C017BE015950795F794E794A2
:104C10007A95D1F7F40181819281AA2797FDA09519
:104C2000BA2F62E0880F991FAA1FBB1F6A95D1F7A0
:104C3000E80EF91E0A1F1B1F21853285442737FD08
:104C40004095542FC301B2010E941F335BE095953C
:104C50008795779567955A95D1F7E60EF71E081F49
:104C6000191F032C04C0EE0CFF1C001F111F0A9417
:104C7000D2F722E030E040E050E0E20EF31E041FE5
:104C8000151FC801B70124E030E040E050E00E9469
:104C90007F338D819E81AF81B885821B930BA40BDE
:104CA000B50B8D839E83AF83B88720E533EC40E05E
:104CB00050E004C056954795379527953A94D2F71A
:104CC000BC01CD010E941F3397FD0FC0660F771FF7
:104CD000881F991F29813A814B815C810E945D3335
:104CE000C901DA015C016D010CC029813A814B8157
:104CF0005C810E945D3359016A01AA0CBB1CCC1C6B
:104D0000DD1C5527D7FC5A954D2D3C2D2B2DCA0166
:104D1000B9010E941F332EED3BE040E050E00E94BD
:104D20001F337B018C01C601B50123E433EE4FEF45
:104D30005FEF0E941F339B01AC019A01552737FD9D
:104D40005095452F2153314F4F4F5F4F7801112719
:104D5000F7FC1095012F2E0D3F1D401F511F14E031
:104D600055954795379527951A95D1F72A0D3B1DEF
:104D70004C1D5D1DB901CA0128960FB6F894DEBF1F
:104D80000FBECDBFCF91DF911F910F91FF90EF909C
:104D9000DF90CF90BF90AF909F908F907F906F905B
:104DA0005F904F903F900895EF92FF920F931F9363
:104DB0007A018B0136DE0E94A130A80197010E9482
:104DC000063021E03EED42E45EE30E94B8319B01F3
:104DD000AC0160E070E080E89FE30E949D2F20E03E
:104DE0003AE24DE257E40E9455311F910F91FF9036
:104DF000EF900895CF93DF93EC01643008F063E007
:104E0000688384E796E0DAD5CE0160ED8EDD8535E6
:104E100011F080E037C0CE016AEAD8DC9A8389833A
:104E2000CE016CEAD3DC9C838B83CE016EEACEDCB0
:104E30009E838D83CE0160EBC9DC9A8B898BCE017A
:104E400062EBC4DC9C8B8B8BCE0164EBBFDC9E8B56
:104E50008D8BCE0166EBBADC98878F83CE0168EB31
:104E6000B5DC9A878987CE016AEBB0DC9C878B879B
:104E7000CE016CEBABDC9E878D87CE016EEBA6DCA2
:104E8000988B8F87DF91CF910895FC01108211825A
:104E9000778366830895FC0180850895FC019185E0
:104EA000992339F08181882321F481E08183892F3E
:104EB000089580E00895FC018185882301F4089518
:104EC0000F931F93CF93DF93062F862F0E94C51653
:104ED000182FC0E0D0E061E070E080E090E00E9438
:104EE0007C15802F0E94C516811711F0C0E0D0E01C
:104EF0002196182FCA30D10574F3811181E0DF911A
:104F0000CF911F910F910895EF92FF920F931F93EE
:104F1000CF93DF93EC010E946E157B018C016E81B3
:104F20007F81CE01CDDF30E0882309F431E0888134
:104F3000381741F0332329F0EA82FB820C831D836A
:104F400001C019821986188620E08A819B81AC8174
:104F5000BD81E81AF90A0A0B1B0B88EEE81683E0FC
:104F6000F80680E0080780E0180708F021E0332306
:104F700029F0222351F081E0898707C088818823A6
:104F800021F0222311F481E088873883DF91CF91CB
:104F90001F910F91FF90EF9008950F931F938C0135
:104FA000FC01868160E00E943216F801868161E092
:104FB0000E9471161F910F9108958F929F92AF9248
:104FC000BF92CF92DF92EF92FF920F931F93CF93F6
:104FD000DF937B018C01EA012CE330E040E050E0FC
:104FE0000E945D336883C801B7012CE330E040E0E4
:104FF00050E00E945D33122F032FF42EE52E622F16
:10500000732F842F952F2CE330E040E050E00E9476
:105010005D336983612F702F8F2D9E2D2CE330E03F
:1050200040E050E00E945D33122F032FF42EE52E56
:10503000622F732F842F952F28E130E040E050E05D
:105040000E945D336A83612F702F8F2D9E2D28E182
:1050500030E040E050E00E945D3379018A01C801F0
:10506000B7016C5F7F4F8F4F9F4F27E030E040E0EC
:1050700050E00E945D336F5F6B8320E0AA24BB2465
:10508000650101C02F5F822E9924F401EE54F84F80
:10509000CF0183709070892B99F4CF0164E670E0A2
:1050A0000E944A33892B39F4CF0160E971E00E94F4
:1050B0004A33892B29F48EE691E0A0E0B0E004C0E9
:1050C0008DE691E0A0E0B0E0A80EB91ECA1EDB1E7E
:1050D000C501A0E0B0E0E816F9060A071B0790F644
:1050E0002E83F401EE54F84F83E0882E912C8E220B
:1050F0009F228114910499F4CF0164E670E00E942C
:105100004A33892B39F4CF0160E971E00E944A33B8
:10511000892B29F48EE691E0A0E0B0E004C08DE692
:1051200091E0A0E0B0E0A81AB90ACA0ADB0A980127
:1051300087010A191B092C093D09CF0164E670E0BB
:105140000E944A337C01CF0160E971E00E944A333A
:10515000AC01E6E0F4E060E0613051F481149104C8
:1051600049F4E114F10441F44115510529F002C05C
:10517000808103C08CE101C08DE190E0A0E0B0E04F
:10518000081719072A073B0740F0081B190B2A0BC1
:105190003B0B6F5F31966C30F9F66F5F6D83802F3C
:1051A0008F5F8C83DF91CF911F910F91FF90EF90D4
:1051B000DF90CF90BF90AF909F908F900895EF9227
:1051C000FF920F931F937B018C0180912906909190
:1051D0002A06A0912B06B0912C06E816F9060A07BC
:1051E0001B0769F0C801B7014EE156E0E6DEE09228
:1051F0002906F0922A0600932B0610932C061F9185
:105200000F91FF90EF900895DADF2091240630E0AF
:105210002E54384FC90108954F925F926F927F923A
:105220008F929F92AF92BF92CF92DF92EF92FF92B6
:105230000F931F93CF93DF934C01DC0116961C91C3
:10524000612F70E080E090E020E833E341EE51E030
:105250000E941F335B016C0122EB37E0E12FF0E08D
:10526000EE54F84F1DC0C90183709070892BB1F4C2
:10527000C90164E670E00E944A33892B39F4C90100
:1052800060E971E00E944A33892B41F480E891E59E
:10529000A1E0B0E0A80EB91ECA1EDB1E2F5F3F4F73
:1052A0002E173F0701F7D40115968C91482E5524EF
:1052B000C90164E670E00E944A337C01C90160E9DB
:1052C00071E00E944A338C01C1E0D0E093E0692E86
:1052D000712C6222732227C0C230D10591F461146F
:1052E000710479F4E114F10419F40115110549F47C
:1052F00080E89BE3A6E2B0E0A80EB91ECA1EDB1E42
:1053000011C0FE01EB5FFB4F608170E080E090E038
:1053100020E831E541E050E00E941F33A60EB71EA1
:10532000C81ED91E2196C415D505B4F2D401129613
:105330006C9170E080E090E020E13EE040E050E0E1
:105340000E941F337B018C01F401618170E080E0D9
:1053500090E02CE330E040E050E00E941F33E60E86
:10536000F71E081F191FD4018C91E80EF11C011DB6
:10537000111D14966C9170E061507040882777FD84
:105380008095982F20E831E541E050E00E941F33DE
:10539000E60EF71E081F191FEA0CFB1C0C1D1D1D35
:1053A000B701C801DF91CF911F910F91FF90EF904E
:1053B000DF90CF90BF90AF909F908F907F906F9035
:1053C0005F904F90089520911406309115064091FA
:1053D000160650911706260F371F481F591F209396
:1053E0001406309315064093160650931706089539
:1053F0006093140670931506809316069093170613
:105400002091EA033091EB034091EC035091ED03BE
:10541000260F371F481F591F20931806309319066F
:1054200040931A0650931B0682E090E090931D066D
:1054300080931C060E946E156093250670932606C5
:1054400080932706909328060895EF92FF920F937A
:10545000F701E436F1051CF0E25BF74001C07E96EF
:10546000E0932406009323062093220680932006CF
:1054700060931F0640931E068EE196E0CDDEB8DFF6
:105480000F91FF90EF900895EF92FF920F931F936B
:105490001CC02F5F3F4F4F4F5F4F20931406309338
:1054A0001506409316065093170688EE93E0A0E089
:1054B000B0E0E80EF91E0A1F1B1FE0922506F092CD
:1054C000260600932706109328060E946E15E0908A
:1054D0002506F090260600912706109128066E19E1
:1054E0007F09800B910B2091140630911506409195
:1054F000160650911706685E73408040904048F64B
:105500008091180690911906A0911A06B0911B0679
:10551000281739074A075B07E0F0E0911206F0917F
:1055200013063097B1F00995611571058105910554
:1055300011F05EDF0EC020E030E080911C069091FB
:105540001D06892B11F021E030E030931D062093D9
:105550001C066091140670911506809116069091B4
:1055600017061F910F91FF90EF90089590931306E7
:10557000809312068091140690911506A09116064C
:10558000B09117068093180690931906A0931A06F7
:10559000B0931B0679CF78DF37CE76DF10DE8091AF
:1055A000230690E0089570DF0ADE8091220690E0E5
:1055B00008956ADF04DE80911E0690E0089564DF9E
:1055C000FEDD80911F0690E008955EDFF8DD80919A
:1055D000200690E00895482F6AE00E943E33282F6D
:1055E00030E084E0220F331F8A95E1F7842F0E9478
:1055F0003E33892F820F0895EF92FF920F931F93EE
:105600007C0104E716E0C80168E670E005D1C80136
:1056100060E083D1F7018081DEDF682FC8017DD192
:10562000F7018181D8DF682FC80177D1F701828126
:10563000D2DF682FC80171D1F7018381CCDF682FD9
:10564000C8016BD1F7018481C6DF682FC80165D11D
:10565000F7018581C0DF682FC8015FD1F70186811E
:105660008E51B9DF682FC80158D1C80197D11F9159
:105670000F91FF90EF900895DF92EF92FF920F93BA
:105680001F937C0104E716E0C80168E670E0C4D00F
:10569000C80160E042D1C80181D1C80168E670E06C
:1056A00047E050E089D1C801CAD0282F2F77229532
:1056B0002F709AE0D92E2D9D900111248F70820FAA
:1056C000F7018083C801BBD0282F22952F702D9D14
:1056D000900111248F70820FF7018183C801AFD030
:1056E000282F2F7322952F702D9D900111248F70DC
:1056F000820FF7018283C801A2D0282F22952F7034
:105700002D9D900111248F70820FF7018383C801B2
:1057100096D0282F22952F702D9D900111248F70E7
:10572000820FF7018483C8018AD0282F22952F7019
:105730002D9D900111248F70820FF7018583C80180
:105740007ED0282F2F70225E82958F708D9DC00194
:105750001124280FF70126831F910F91FF90EF90DE
:10576000DF9008950F931F93DF93CF93CDB7DEB7EC
:1057700027970FB6F894DEBF0FBECDBF8E010F5F27
:105780001F4FA8011ADC898180688983C80134DF32
:1057900089818F778983C8012FDF27960FB6F89408
:1057A000DEBF0FBECDBFCF91DF911F910F91089546
:1057B0000F931F93DF93CF93CDB7DEB727970FB625
:1057C000F894DEBF0FBECDBF8E010F5F1F4FC80123
:1057D00053DFC80121DD27960FB6F894DEBF0FBE58
:1057E000CDBFCF91DF911F910F91089584E796E08F
:1057F000E5C0F999FECF72BD61BDF89A80B50895F4
:10580000F999FECF1FBA72BD61BD40BD0FB6F894C5
:10581000FA9AF99A0FBE089581E080937306609317
:1058200050061092710610927206089520914F064C
:1058300030E080914E06281B3109C901089540913E
:105840004E0680914F06481718F02FEF3FEF0AC021
:10585000E42FF0E0E25DF94F8081282F30E04F5FC8
:1058600040934E06C9010895E0914E0680914F067F
:10587000E81718F0EFEFFFEF06C0F0E0E25DF94F38
:105880008081E82FF0E0CF01089508951092770607
:105890001092760688EE93E0A0E0B0E08093780660
:1058A00090937906A0937A06B0937B0686E194E004
:1058B00090937506809374060895CF92DF92EF92CD
:1058C000FF920F931F93CF93DF937C016B018A01AB
:1058D000809173068823A1F0C0E0D0E00DC0D7010D
:1058E000ED91FC91D601AC0FBD1F0190F081E02D30
:1058F000C7016C9109952196C017D10780F303C0A9
:10590000CB01642F50D1C801DF91CF911F910F912E
:10591000FF90EF90DF90CF900895DF93CF930F9299
:10592000CDB7DEB7FC016983809173068823C9F087
:1059300080917206803238F081E090E09383828318
:1059400020E030E014C080917106E82FF0E0EF5ABB
:10595000F94F998190838F5F8093710680937206CF
:1059600004C0CE01019661E01ED121E030E0C90102
:105970000F90CF91DF9108950F93062F80915006DD
:1059800061E576E04091720621E0B8D01092710690
:1059900010927206109273060F91089561E0ECCF99
:1059A000413208F040E2862F6EE276E05ED010923F
:1059B0004E0680934F06089521E0F2CF10924E06D6
:1059C00010924F06109271061092720698C2FC0156
:1059D00010820895EF92FF920F931F93CF93DF935E
:1059E000EC010E946E157B018C018B859C85AD8539
:1059F000BE85A8019701281B390B4A0B5B0B8981D7
:105A00009A81AB81BC81281739074A075B07E0F010
:105A10008881813019F0823071F404C0E985FA85FB
:105A2000099509C060E08885882309F461E06887EA
:105A30008F810E947116EB86FC860D871E878F85ED
:105A400098890196988B8F872D813E8137FD06C0FE
:105A50008F859889821793070CF01882DF91CF9178
:105A60001F910F91FF90EF900895382F413210F061
:105A700040E042C0809180068823E1F791E0909356
:105A80008006209382068FEF8093ED061092A80681
:105A900041504093A9064F5F909381068091810603
:105AA000330F832B8093810680918306813041F4EC
:105AB00010928306809181068093BB0085EC01C023
:105AC00085EE8093BC00809180068130E1F3809167
:105AD000A806841710F44091A80620E030E00AC020
