:1000000091C00000B6C00000B4C00000B2C0000043
:10001000B0C00000AEC00000ACC00000AAC000002C
:10002000A8C00000A6C00000A4C00000A2C000003C
:10003000A0C000009EC000009CC000009AC000004C
:100040009FC2000096C00000A8C30000F3C30000D8
:1000500090C000008EC000008CC000008AC000006C
:1000600088C0000086C00000084AD73B3BCE016E26
:1000700084BCBFFDC12F3D6C74319ABD56833DDAFF
:100080003D00C77F11BED9E4BB4C3E916BAAAABE0E
:10009000000000803F072C7AA5BA6CC590DA3B932C
:1000A00065FC8BBC53F810FD3C5692834DBD879D7B
:1000B0003AB63DCBC9BF5BBE73DA0FC93F706974F6
:1000C00063683A20003D3D3D3D3D3D3D3D3D3D3D6C
:1000D0003D3D3D3D2046494D20205345545550203F
:1000E0003D3D3D3D3D3D3D3D3D3D3D3D3D3D3D3D40
:1000F0003D003D3D3D3D3D3D3D3D3D3D3D3D3D3D6D
:100100003D3D3D3D3D20205345545550203D3D3D16
:100110003D3D3D3D3D3D3D3D3D3D3D3D3D3D000089
:10012000BA00850511241FBECFEFD8E0DEBFCDBFDA
:1001300011E0A0E0B1E0E0EAF7E102C005900D9225
:10014000AE32B107D9F712E0AEE2B1E001C01D92C4
:10015000A531B107E1F711E0C4E2D1E004C0229774
:10016000FE010E94CA0BC032D107C9F724D50C94F6
:10017000CE0B46CF80911A0190911B0190935B01A9
:1001800080935A0190935D0180935C0108956F9272
:100190007F928F929F92AF92BF92CF92DF92EF9217
:1001A000FF920F931F93CF93DF936091340170916F
:1001B0003501882777FD8095982F0E94A20920E0BD
:1001C00030E040EA5BE30E949D0A2DEC3CEC4CE4FD
:1001D0005FE30E9407093B014C0160933A01709371
:1001E0003B0180933C0190933D01609136017091F9
:1001F0003701882777FD8095982F0E94A20920E07B
:1002000030E040EA5BE30E949D0A2DEC3CEC4CE4BC
:100210005FE3FDD75B016C0160933E0170933F018A
:1002200080934001909341016091380170913901B0
:10023000882777FD8095982F0E94A20920E030E062
:1002400040EA5BE30E949D0A2DEC3CEC4CE45FE34A
:10025000DED77B018C016093420170934301809350
:10026000440190934501C401B301A801970178D7D7
:1002700020EE3EE245E652E40E949D0A6093520160
:10028000709353018093540190935501C601B501B9
:10029000A801970165D720EE3EE245E652E40E94B0
:1002A0009D0A609356017093570180935801909373
:1002B0005901C401B301A40193010E949D0A3B01AD
:1002C0004C01C601B501A60195010E949D0A5B0182
:1002D0006C01C801B701A80197010E949D0A7B012A
:1002E0008C01C401B301A6019501C7D6A8019701ED
:1002F000C4D60E94040B6B017C01C0E0D0E0FE017B
:10030000E65CFE4F6081718182819381A701960135
:100310007ED7A4D68E010A5B1E4F20EE3EE245E654
:1003200052E40E949D0AF801608371838283938363
:100330002496CC30D10519F7DF91CF911F910F9101
:10034000FF90EF90DF90CF90BF90AF909F908F90F5
:100350007F906F9008958F929F92AF92BF92CF92AD
:10036000DF92EF92FF920F93DF93CF9300D0CDB740
:10037000DEB7AA24BB2400E030C0802FEBD1AA272F
:1003800097FDA095BA2FC80ED91EEA1EFB1E089431
:10039000811C911C8AE08816910479F7F501EC5CC8
:1003A000FE4FFA83E983C701B6012AE030E040E05E
:1003B00050E00E94AD0BF501E25DFE4F808191811E
:1003C000281B390BE981FA813183208382E090E098
:1003D000A80EB91E0F5F033031F0CC24DD24760166
:1003E00088249924CACF0F900F90CF91DF910F915D
:1003F000FF90EF90DF90CF90BF90AF909F908F9045
:1004000008958F929F92AF92BF92DF92EF92FF92E8
:100410000F931F93CF93DF939EE2A92E91E0B92E05
:10042000DD248CE2882E81E0982E22C08D2D92D181
:10043000AA2797FDA095BA2FE80EF91E0A1F1B1FC9
:100440002196C233D10591F7C801B70122E330E00C
:1004500040E050E00E94AD0BF501219331935F0124
:100460009092330180923201D394F2E0DF1631F0A2
:10047000EE24FF248701C0E0D0E0D8CFDF91CF91F8
:100480001F910F91FF90EF90DF90BF90AF909F90E2
:100490008F90089560915A0170915B0183EF91E014
:1004A0004AE050E0DAD457DF72DE83EF91E06DEB83
:1004B00070E0B6D3409152015091530160915401C4
:1004C0007091550183EF91E022E030E0B6D5A0D0E5
:1004D00020915E0130915F01621B730B70935D018F
:1004E00060935C0120911A0130911B016217730720
:1004F000E4F4261B370BB901882777FD8095982FE8
:1005000095D083EF91E060E071E0C4D460911A016E
:1005100070911B0180915C0190915D01681B790BCA
:1005200083EF91E04AE050E098D472D020915E01D0
:1005300030915F01621B730B70935B0160935A01F2
:1005400067D060935E0170935F0180936001909328
:10055000610108950F931F9303EF11E0C80140E874
:1005600055E260E070E0A1D1C80162EF70E09BD37A
:1005700048DFC80165EC70E096D31F910F91089594
:100580001F920F920FB60F9211242F933F938F93C8
:100590009F93AF93BF938091660190916701A09163
:1005A0006801B091690130916A010196A11DB11DE8
:1005B000232F2D5F2D3720F02D570196A11DB11D42
:1005C00020936A018093660190936701A09368016C
:1005D000B09369018091620190916301A0916401DF
:1005E000B09165010196A11DB11D809362019093A8
:1005F0006301A0936401B0936501BF91AF919F9196
:100600008F913F912F910F900FBE0F901F901895D3
:100610008FB7F8942091660130916701409168018D
:10062000509169018FBFB901CA0108959B01AC01C6
:100630007FB7F8948091620190916301A091640169
:10064000B091650166B5A89B05C06F3F19F0019692
:10065000A11DB11D7FBFBA2FA92F982F8827860F04
:10066000911DA11DB11D62E0880F991FAA1FBB1F1C
:100670006A95D1F7BC012DC0FFB7F8948091620153
:1006800090916301A0916401B0916501E6B5A89BCA
:1006900005C0EF3F19F00196A11DB11DFFBFBA2F94
:1006A000A92F982F88278E0F911DA11DB11DE2E063
:1006B000880F991FAA1FBB1FEA95D1F7861B970BBE
:1006C000885E9340C8F2215030404040504068510D
:1006D0007C4F211531054105510571F60895789437
:1006E00084B5826084BD84B5816084BD85B5826037
:1006F00085BD85B5816085BDEEE6F0E080818160D5
:100700008083E1E8F0E010828081826080838081D4
:1007100081608083E0E8F0E0808181608083E1EBAC
:10072000F0E0808184608083E0EBF0E08081816094
:100730008083EAE7F0E0808184608083808182604A
:100740008083808181608083808180688083109233
:10075000C1000895982F8E3008F09E5097708091B8
:100760001C018295880F880F807C892B80937C00E8
:1007700080917A00806480937A0080917A0086FD6F
:10078000FCCF2091780040917900942F80E030E0F8
:10079000282B392BC901089508951F920F920FB687
:1007A0000F9211242F933F934F938F939F93EF9327
:1007B000FF938091C00082FD1DC04091C600209132
:1007C000AB013091AC012F5F3F4F2F7330708091A0
:1007D000AD019091AE012817390771F0E091AB019E
:1007E000F091AC01E559FE4F40833093AC0120936A
:1007F000AB0102C08091C600FF91EF919F918F9154
:100800004F913F912F910F900FBE0F901F90189511
:10081000E091FF01F0910002E05CFF4F8191919126
:1008200020813181821B930B8F739070892B09F08B
:10083000B3CF08951F920F920FB60F9211242F93EA
:100840003F938F939F93EF93FF932091EF0130910C
:10085000F0018091F1019091F2012817390731F4EC
:100860008091C1008F7D8093C10014C0E091F1019F
:10087000F091F201E155FE4F20818091F1019091BC
:10088000F20101968F7390709093F2018093F101C1
:100890002093C600FF91EF919F918F913F912F91EF
:1008A0000F900FBE0F901F901895AF92BF92DF92DE
:1008B000EF92FF920F931F93CF93DF93EC017A0196
:1008C0008B01DD24403081EE580780E0680780E02E
:1008D000780711F0DD24D39491E0A92EB12CEC8996
:1008E000FD89DD2069F0C50108A002C0880F991FAD
:1008F0000A94E2F7808360E079E08DE390E005C040
:10090000108260E874E88EE190E0A801970103D7B7
:100910002150304040405040569547953795279597
:1009200080E12030380720F0DD2011F0DD24D7CF22
:10093000E889F9893083EA89FB89208319A2EE8945
:10094000FF89408121E030E0C9010C8C02C0880F92
:10095000991F0A94E2F7482B4083EE89FF89408172
:10096000C9010D8C02C0880F991F0A94E2F7482B29
:100970004083EE89FF894081C9010E8C02C0880F37
:10098000991F0A94E2F7482B4083EE89FF89808102
:100990000F8C02C0220F331F0A94E2F72095282300
:1009A0002083DF91CF911F910F91FF90EF90DF9007
:1009B000BF90AF900895DC011C96ED91FC911D97BE
:1009C000E05CFF4F2191319180819181281B390B8F
:1009D0002F733070C9010895DC011C96ED91FC91D4
:1009E0001D97E05CFF4F20813181E054F040DF0132
:1009F000AE5BBF4F8D919C9111972817390719F461
:100A00002FEF3FEF07C08D919C91E80FF91F808178
:100A1000282F30E0C9010895DC011C96ED91FC916E
:100A20001D97E05CFF4F20813181E054F040DF01F1
:100A3000AE5BBF4F8D919C9111972817390719F420
:100A40002FEF3FEF10C08D919C911197E80FF91F88
:100A500020818D919C91119701968F7390701196C2
:100A60009C938E9330E0C9010895DC0191968C919E
:100A70009197882339F05496ED91FC915597808198
:100A800086FFF9CF91961C920895CF93DF93EC01E6
:100A9000EE85FF85E05CFF4F20813181E054F0401E
:100AA0002F5F3F4F2F733070DF01AE5BBF4F8D91D3
:100AB0009C91119728173907D1F3E05CFF4F808193
:100AC0009181E054F040E80FF91F6083EE85FF85C7
:100AD000E05CFF4F31832083EE89FF89208181E034
:100AE00090E00F8C02C0880F991F0A94E2F7282B20
:100AF000208381E089A3EC89FD89808180648083E3
:100B000081E090E0DF91CF9108951092F60110926C
:100B1000F50188EE93E0A0E0B0E08093F7019093B8
:100B2000F801A093F901B093FA0181E291E090936A
:100B3000F4018093F3018BE691E09093000280939F
:100B4000FF018FEA91E0909302028093010285EC0D
:100B500090E0909304028093030284EC90E09093E1
:100B600006028093050280EC90E090930802809347
:100B7000070281EC90E090930A028093090282ECD4
:100B800090E090930C0280930B0286EC90E090939F
:100B90000E0280930D0284E080930F0283E0809325
:100BA000100287E08093110285E08093120281E0B9
:100BB000809313020895CF93DF9391DDCBDCC8E0DF
:100BC000D4E068DC2097E9F323DEFBCFCF92DF92FD
:100BD000EF92FF920F931F93CF93DF937C016B01F2
:100BE0008A01C0E0D0E00FC0D6016D916D01D70140
:100BF000ED91FC910190F081E02DC7010995C80F9E
:100C0000D91F015010400115110571F7CE01DF9178
:100C1000CF911F910F91FF90EF90DF90CF900895AB
:100C2000EF92FF920F931F93CF93DF937C018B0181
:100C3000C0E0D0E0F8010F5F1F4F6491662359F0C8
:100C4000D701ED91FC910190F081E02DC70109954C
:100C5000C80FD91FEFCFCE01DF91CF911F910F9118
:100C6000FF90EF900895EF92FF920F931F938C01E6
:100C7000DC01ED91FC910190F081E02D6DE0099592
:100C80007C01D801ED91FC910190F081E02DC8012B
:100C90006AE009959C012E0D3F1DC9011F910F911E
:100CA000FF90EF900895EF92FF920F931F937C01B6
:100CB000B7DF8C01C701D7DF9C01200F311FC901AD
:100CC0001F910F91FF90EF900895CF93DF93EC0168
:100CD0006115710519F420E030E00FC0DB010D90C3
:100CE0000020E9F71197A61BB70BE881F981028074
:100CF000F381E02DAD0109959C01C901DF91CF91F0
:100D000008954F925F927F928F929F92AF92BF927F
:100D1000CF92DF92EF92FF920F931F93DF93CF93C7
:100D2000CDB7DEB7A1970FB6F894DEBF0FBECDBF2B
:100D30002C01742ECB01223008F42AE019A231E2F2
:100D4000C32ED12CCC0EDD1E822E9924AA24BB24C6
:100D5000672D752FA5019401DED479018A01C801A0
:100D6000B701A5019401B8D4472D461B0894C108CA
:100D7000D1084A3014F4405D01C0495CF60140835B
:100D8000E114F1040105110521F07E2C5F2DC8014D
:100D9000DFCFC201B60199DFA1960FB6F894DEBF8E
:100DA0000FBECDBFCF91DF911F910F91FF90EF90BC
:100DB000DF90CF90BF90AF909F908F907F905F908B
:100DC0004F900895DC012115310541F4ED91FC911E
:100DD0000190F081E02D642F0995089592CFCF9274
:100DE000DF92EF92FF920F931F93CF93DF93EC016B
:100DF0006A017B012115310541F4E881F9810190F7
:100E0000F081E02D642F09951DC02A303105C9F409
:100E100077FF16C0E881F9810190F081E02D6DE245
:100E200009958C0144275527BA014C195D096E09B3
:100E30007F09CE012AE065DF9801280F391F03C022
:100E40002AE05FDF9C01C901DF91CF911F910F91D3
:100E5000FF90EF90DF90CF900895CF92DF92EF92C6
:100E6000FF920F931F936C017B019A010027F7FCFF
:100E70000095102FB801A701B2DF8C01C601F3DE87
:100E8000080F191FC8011F910F91FF90EF90DF907D
:100E9000CF9008951ACF08957F928F929F92AF922C
:100EA000BF92CF92DF92EF92FF920F931F93CF9357
:100EB000DF934C017A018B01722ECB01BA01A8019C
:100EC0009701EFD3882321F0C4016CE071E01FC0CB
:100ED000C0E0D0E057016801E894D7F8C601B50139
:100EE0002FEF3FEF4FE75FE7DCD3882349F4C601DC
:100EF000B5012FEF3FEF4FE75FE785D1181614F0EC
:100F0000C1E0D0E0219731F0C40160E171E0DDDEA5
:100F1000EC0184C0C801B7012FEF3FEF4FE75FE45A
:100F200001D318164CF0C801B7012FEF3FEF4FE780
:100F30005FEC69D1882324F4C40164E171E0E7CF58
:100F4000C801B70120E030E040E050E05CD187FD0F
:100F500003C0C0E0D0E00EC0D401ED91FC9101903F
:100F6000F081E02DC4016DE20995EC0117FB1095AD
:100F700017F9109520E030E040E05FE3DD240AC07F
:100F8000CA01B90120E030E040E251E440D19B01C8
:100F9000AC01D394D714A0F3C801B7016ED05B01A4
:100FA0006C01A2D17B018C01C401B801A7012AE028
:100FB00030E008DFC80FD91F772031F0C40168E1A5
:100FC00071E083DEC80FD91FC801B701B9D19B01F9
:100FD000AC01C601B50150D01FC020E030E040E2B6
:100FE00051E4ABD27B018C017AD15B016C01CC2442
:100FF000B7FCC094DC2CC401B601A5012AE030E0A6
:10100000EEDEC80FD91FC601B5019CD19B01AC0112
:10101000C801B70131D07A947720F9F6CE01DF917B
:10102000CF911F910F91FF90EF90DF90CF90BF90E5
:10103000AF909F908F907F900895EF92FF920F93C3
:101040001F937C0129DF8C01C7010DDE080F191FDA
:10105000C8011F910F91FF90EF9008959F939F7784
:10106000ACD10F9000203AF49058A2EA2AED3FE06C
:1010700049E450E413D01CC25058BB27AA270ED015
:1010800017C208D230F00DD220F031F49F3F11F496
:101090001EF4D8C10EF4E095E7FBCEC1E92F19D2BA
:1010A00080F3BA17620773078407950718F071F485
:1010B0009EF531C20EF4E0950B2EBA2FA02D0B0138
:1010C000B90190010C01CA01A0011124FF27591B8D
:1010D00099F0593F50F4503E68F11A16F040A22F93
:1010E000232F342F4427585FF3CF46953795279504
:1010F000A795F0405395C9F77EF41F16BA0B620B03
:10110000730B840BBAF09150A1F0FF0FBB1F661F49
:10111000771F881FC2F70EC0BA0F621F731F841F8C
:1011200048F4879577956795B795F7959E3F08F0B2
:10113000B3CF9395880F08F09927EE0F9795879571
:101140000895A8D158F080E891E009F49EEFA9D164
:1011500028F040E851E059F45EEF09C073C1DBC1EB
:10116000E92FE078B6D168F3092E052AC1F32617D6
:1011700037074807590738F00E2E07F8E02569F0C1
:10118000E025E0640AC0EF6307F8009407FADB018A
:10119000B9019D01DC01CA01AD01EF9347D088D1AF
:1011A0000AD05F91552331F02BED3FE049E450FD2B
:1011B00049EC63CF0895DF93DD27B92FBF7740E86F
:1011C0005FE31616170648075B0710F4D92FAED158
:1011D0009F938F937F936F9361D2E8E6F0E035D1D0
:1011E00067D12F913F914F915F91B3D1DD2349F0AA
:1011F0009058A2EA2AED3FE049EC5FE3D0785D2702
:101200004DDFDF9155C1F4D008F481E008950CD092
:101210004FC147D140F03ED130F021F45F3F19F08B
:101220000BC1511179C10EC154D198F39923C9F35F
:101230005523B1F3951B550BBB27AA2762177307DC
:10124000840738F09F5F5F4F220F331F441FAA1F90
:10125000A9F333D00E2E3AF0E0E830D09150504050
:10126000E695001CCAF729D0FE2F27D0660F771FFE
:10127000881FBB1F261737074807AB07B0E809F0E0
:10128000BB0B802DBF01FF2793585F4F2AF09E3F75
:10129000510568F0D1C040C15F3FECF3983EDCF3EC
:1012A000869577956795B795F7959F5FC9F7880FEE
:1012B000911D9695879597F90895E1E0660F771F40
:1012C000881FBB1F621773078407BA0720F0621BD1
:1012D000730B840BBA0BEE1F88F7E095089504D0CA
:1012E0006894B11119C10895FCD088F09F5790F00F
:1012F000B92F9927B751A0F0D1F0660F771F881F3B
:10130000991F1AF0BA95C9F712C0B13081F003D114
:10131000B1E0089500C1672F782F8827B85F39F0B2
:10132000B93FCCF3869577956795B395D9F73EF499
:1013300090958095709561957F4F8F4F9F4F089541
:10134000E89409C097FB3EF490958095709561955F
:101350007F4F8F4F9F4F9923A9F0F92F96E9BB2715
:101360009395F695879577956795B795F111F8CF91
:10137000FAF4BB0F11F460FF1BC06F5F7F4F8F4FFC
:101380009F4F16C0882311F096E911C0772321F0F2
:101390009EE8872F762F05C0662371F096E8862F8A
:1013A00070E060E02AF09A95660F771F881FDAF7E1
:1013B000880F9695879597F90895DF93CF931F939C
:1013C0000F938B01EC01E5E9F0E03FD071D098017B
:1013D000AE018B01EC0160E070E080E89FE34CDE41
:1013E00013D19801AE010F911F91CF91DF91B1C040
:1013F000990F0008550FAA0BE0E8FEEF1616170626
:10140000E807F907C0F012161306E407F50798F08D
:10141000621B730B840B950B39F40A2661F0232BA6
:10142000242B252B21F408950A2609F4A140A69522
:101430008FEF811D811D089597F99F6780E870E007
:1014400060E008959FEF80EC0895DF93CF931F93A2
:101450000F93FF92EF92DF927B018C01689405C09D
:10146000DA2EEF0176D0FE01E894A5912591359111
:1014700045915591AEF3EF0111DEFE019701A801F0
:10148000DA9479F7DF90EF90FF900F911F91CF9151
:10149000DF91089500240A94161617061806090607
:1014A000089500240A9412161306140605060895DA
:1014B000092E0394000C11F4882352F0BB0F40F462
:1014C000BF2B11F460FF04C06F5F7F4F8F4F9F4FA2
:1014D000089557FD9058440F551F59F05F3F71F024
:1014E0004795880F97FB991F61F09F3F79F087958B
:1014F0000895121613061406551FF2CF4695F1DF14
:1015000008C0161617061806991FF1CF86957105A3
:10151000610508940895E894BB2766277727CB01D7
:1015200097F9089565DF08F48FEF08959B01AC01EA
:1015300060E070E080E89FE36ACE0BD0B9CFAADF0D
:1015400028F0AFDF18F0952309F076CF7BCF112478
:10155000E3CFBFDFA0F3959FD1F3950F50E0551F68
:10156000629FF001729FBB27F00DB11D639FAA27F8
:10157000F00DB11DAA1F649F6627B00DA11D661F47
:10158000829F2227B00DA11D621F739FB00DA11D68
:10159000621F839FA00D611D221F749F3327A00D22
:1015A000611D231F849F600D211D822F762F6A2FBE
:1015B00011249F5750408AF0E1F088234AF0EE0F43
:1015C000FF1FBB1F661F771F881F91505040A9F750
:1015D0009E3F510570F030CF9FCF5F3FECF3983EB8
:1015E000DCF3869577956795B795F795E7959F5FB7
:1015F000C1F7FE2B880F911D9695879597F9089551
:1016000011F40EF41FCF51C06CDFD0F39923D9F33E
:10161000CEF39F57550B87FF58D056959795B0E05E
:1016200020F4660F771F881FBB1F1F930F930024A2
:101630009001A0018001F001A0E80E0F1F1F0A1EFB
:10164000511D601B710B8009B50B48F4600F711FB1
:10165000801DB51F0E1B1F0B0A0A510907C02E0F54
:101660003F1F4A1F0E0F1F1F0A1E511D660F771FB7
:10167000881FBB1FA695F795E795F8F6061717077D
:1016800008065B07211D311D411D0F911F91B901F6
:10169000842F9158880F9695879508959B01AC01EA
:1016A0004CCFA6DE880B990B08959F3F49F09150CF
:1016B00028F4869577956795B7959F5F80389F4FFB
:1016C000880F9695879597F9089591505040660F29
:1016D000771F881FD2F70895629FD001739FF00192
:1016E000829FE00DF11D649FE00DF11D929FF00DB2
:1016F000839FF00D749FF00D659FF00D9927729FE9
:10170000B00DE11DF91F639FB00DE11DF91FBD0173
:10171000CF0111240895A1E21A2EAA1BBB1BFD01C3
:101720000DC0AA1FBB1FEE1FFF1FA217B307E407C0
:10173000F50720F0A21BB30BE40BF50B661F771F18
:10174000881F991F1A9469F76095709580959095F8
:101750009B01AC01BD01CF01089597FB092E052621
:101760000ED057FD04D0D7DF0AD0001C38F45095B6
:101770004095309521953F4F4F4F5F4F0895F6F7B5
:1017800090958095709561957F4F8F4F9F4F0895ED
:10179000EE0FFF1F0590F491E02D0994F894FFCF10
:1017A0002020457370657265693A20006E616E0095
:1017B000696E66006F7666002E0009000100000069
:0E17C000004505E605DB040C05EC04350500CC
:00000001FF
