:10000000FAC0000020C100001EC100000C944D1574
:100010000C9476150C949F1516C1000014C10000B5
:1000200012C1000010C100000EC100000CC1000090
:100030000AC1000008C1000006C1000004C10000A0
:10004000A1C7000000C100000C9454080C94A10842
:10005000FAC00000F8C00000F6C00000F4C00000C4
:10006000F2C00000F0C00000BA13CD13DC13EF1390
:10007000F61342144B1456145D1463146314631482
:1000800063146314631463146314631463146314B8
:1000900063146314631463146314631463146314A8
:1000A0006314631463146314BA13C513CD13DC1300
:1000B000EF13F613091410141714084AD73B3BCE5C
:1000C000016E84BCBFFDC12F3D6C74319ABD568357
:1000D0003DDA3D00C77F11BED9E4BB4C3E916BAA0F
:1000E000AABE000000803F05A84CCDB2D44EB9385E
:1000F00036A9020C50B9918688083CA6AAAA2ABE45
:10010000000000803F00C201000100110011000C3E
:100110000000E100000A00250025002100009600F3
:10012000001900390039003600127A00001F00461D
:1001300000460044008070000022004D004D004A3F
:1001400000004B000036007500750072004038005A
:10015000004A009C009C009900802500007200EC81
:1001600000EC00E900C0120000E900DA01DA01D772
:100170000160090000D701B603B603B303B0040061
:1001800000B3036E076E076B072C010000DC0EC185
:100190001DC11DBE1D00000000240027002A000014
:1001A000000000250028002B00000000002300268E
:1001B00000290004040404040404040202020202EC
:1001C000020303030303030102040810204080011B
:1001D000020408102001020408102000000007009B
:1001E00002010000030406000000000000000000FF
:1001F00003040D0AFE0311241FBECFEFD8E0DEBFBB
:10020000CDBF13E0A0E0B1E0EAE1FAE302C005905F
:100210000D92A63BB107D9F715E0A6EBB3E001C0FC
:100220001D92AC33B107E1F711E0C4EFD1E004C097
:100230002297FE010E94C61CC03FD107C9F70E9449
:10024000630A0C94011DDCCEFC0188279927E894F1
:1002500021912032E9F3293010F02E30C8F32B32EF
:1002600039F02D3231F4689403C012D0820F911D01
:10027000219120532A30C8F31EF4909581959F4F09
:100280000895FB01DC0101900D920020E1F7089533
:100290007AE0979F902D879F802D910D11240895CE
:1002A000AEE0B0E0E6E5F1E00C94D81C0D891E89C3
:1002B00086E08C831A8309838FEF9FE79E838D836B
:1002C0009E01275E3F4FCE0101966F89788DA9016F
:1002D0000AD02F813885020F131FF80110822E9645
:1002E000E4E00C94F41CABE0B0E0E9E7F1E00C943E
:1002F000CA1C3C012B015A01FC0117821682838122
:1003000081FD03C06FEF7FEFB9C19AE0892E1E0116
:100310000894211C311CF3012381F20123FD8591F6
:1003200023FF81912F01882309F4A5C1853239F477
:1003300023FD859123FF81912F01853221F490E0E7
:10034000B301B7D1E8CF982FFF24EE249924FFE121
:10035000FF15D0F09B3269F09C3228F4903259F0AE
:10036000933291F40EC09D3249F0903369F441E02C
:1003700024C052E0F52A84E0F82A28C098E0F92A3F
:1003800025C0E0E1FE2A22C0F7FC29C0892F805356
:100390008A3070F4F6FE05C0989C902C1124980EBB
:1003A00015C0E89CE02C1124E80EF0E2FF2A0EC0F4
:1003B0009E3229F4F6FC5FC140E4F42A07C09C3663
:1003C00019F450E8F52A02C0983649F4F20123FDE9
:1003D000959123FF91912F01992309F0B8CF892F8F
:1003E0008554833018F08052833038F444E050E074
:1003F000A40EB51E5FE359830FC0933631F09337D7
:1004000079F0933509F052C01FC0F50180818983CE
:1004100042E050E0A40EB51E610101E010E011C001
:10042000F501C080D180F6FC03C06FEF7FEF02C002
:10043000692D70E042E050E0A40EB51EC6012ED139
:100440008C015FE7F52213C0F501C080D180F6FC76
:1004500003C06FEF7FEF02C0692D70E042E050E013
:10046000A40EB51EC6010FD18C0150E8F52AF3FE8B
:1004700006C018C080E290E0B3011BD1EA948E2D33
:1004800090E008171907B0F30DC0F601F7FC85914D
:10049000F7FE81916F0190E0B3010BD1E110EA9476
:1004A000015010400115110581F7E2C0943611F09A
:1004B000993661F5F7FE08C0F5012081318142814E
:1004C000538184E090E00AC0F501808191819C0114
:1004D000442737FD4095542F82E090E0A80EB91EC6
:1004E0009FE6F92257FF09C0509540953095219518
:1004F0003F4F4F4F5F4FE0E8FE2ACA01B901A1010B
:100500002AE030E002D1D82ED2183FC0953729F426
:100510001F2D1F7E2AE030E01DC01F2D197F9F3642
:1005200061F0903720F4983509F0A5C00FC09037DE
:1005300039F0983709F09FC004C028E030E00AC0C5
:10054000106114FD146020E130E004C014FD166059
:1005500020E132E017FF08C0F501608171818281DE
:10056000938144E050E008C0F50180819181BC0195
:1005700080E090E042E050E0A40EB51EA101C5D09D
:10058000D82ED2188FE7F82EF122F6FE0BC05EEFC0
:10059000F522D91438F4F4FE07C0F2FC05C08FEE42
:1005A000F82202C01D2D01C0192DF4FE0DC0FE0160
:1005B000ED0DF11D8081803319F499EEF92208C008
:1005C0001F5FF2FE05C003C08F2D867809F01F5F04
:1005D0000F2DF3FC13C0F0FE0EC01E1510F09D2C65
:1005E0000AC09D2C9E0C911A1E2D05C080E290E041
:1005F000B3015FD01F5F1E15C8F304C01E1510F4B1
:10060000E11A01C0EE2404FF0EC080E390E0B301C4
:1006100050D002FF1BC001FD03C088E790E00EC070
:1006200088E590E00BC0802F867881F001FF02C042
:100630008BE201C080E2F7FC8DE290E0B30139D09B
:1006400005C080E390E0B30134D09A94D914C8F384
:10065000DA94F101ED0DF11D808190E0B30129D014
:10066000DD20B1F705C080E290E0B30122D0EA942A
:10067000EE20C9F750CEF30166817781CB012B962E
:10068000E2E10C94E61CFC01059061507040011001
:10069000D8F7809590958E0F9F1F0895FC016150AB
:1006A000704001900110D8F7809590958E0F9F1F94
:1006B00008950F931F93CF93DF938C01EB018B81F0
:1006C00081FF1BC082FF0DC02E813F818C819D81E7
:1006D0002817390764F4E881F9810193F983E883E5
:1006E00006C0E885F985802F0995892B31F48E8124
:1006F0009F8101969F838E8302C00FEF1FEFC80179
:10070000DF91CF911F910F910895FA01AA27283008
:1007100051F1203181F1E8946F936E7F6E5F7F4FCE
:100720008F4F9F4FAF4FB1E03ED0B4E03CD0670F4A
:10073000781F891F9A1FA11D680F791F8A1F911D9D
:10074000A11D6A0F711D811D911DA11D20D009F4ED
:1007500068943F912AE0269F11243019305D31932F
:10076000DEF6CF010895462F4770405D4193B3E018
:100770000FD0C9F7F6CF462F4F70405D4A3318F0BF
:10078000495D31FD4052419302D0A9F7EACFB4E070
:10079000A6959795879577956795BA95C9F7009728
:1007A0006105710508959B01AC010A2E06945795C9
:1007B000479537952795BA95C9F7620F731F841F20
:1007C000951FA01D08958130910571F46F5F7F4FD3
:1007D000A1F486EB93E00E94B70C89E294E069E013
:1007E0004AE020E00C942C18892B39F46F5F7F4F7E
:1007F00021F489E294E00C94BA16089580E090E028
:100800006FEF7FEFE0CF81E090E06FEF7FEFDBCF26
:100810000DC089E294E00E94C116682F86EB93E038
:100820000E946F14882311F081E0089589E294E01A
:100830000E94E216892B69F780E008956F927F92FB
:100840008F929F92AF92BF92CF92DF92EF92FF92E0
:100850000F931F93DF93CF93CDB7DEB7A0970FB65B
:10086000F894DEBF0FBECDBF5B016C0148013701BC
:100870000E94B219882331F58E010F5F1F4FC80106
:1008800060E071E0FEDC080D191DF80110821814FB
:1008900019042CF4FE01E80DF91D80E2808387E045
:1008A00090E0BE016F5F7F4F20E205C0FB01E80FC3
:1008B000F91F2083019688159905C4F386ED94E00D
:1008C00061D749C086ED94E0B601A50197010E9469
:1008D000A40CC601B5010E94211A8B0177FF03C049
:1008E000109501951F4FC601B50120E030E040E0B2
:1008F00050E00E94B219E82EFF24E7FCF094EE24A9
:10090000FF0CEE1CFF240894E11CF11CF3E0083EF0
:100910001F071CF044E050E00EC0043611051CF027
:1009200043E050E008C00A3011051CF441E050E0FB
:1009300002C042E050E0E60CF71CE40EF51E08C0D1
:1009400086ED94E068E071E01DD70894E11CF11C8D
:10095000E814F904ACF35CDFA0960FB6F894DEBFA0
:100960000FBECDBFCF91DF911F910F91FF90EF9000
:10097000DF90CF90BF90AF909F908F907F906F90BF
:100980000895CF92DF92EF92FF920F931F93DF9320
:10099000CF93CDB7DEB7A0970FB6F894DEBF0FBEEA
:1009A000CDBF6B017C01CE010196C216D306E406D1
:1009B000F50621F460E071E064DC23C02DB73EB79A
:1009C000285030400FB6F8943EBF0FBE2DBFEDB794
:1009D000FEB73196ADB7BEB712969C938E93119722
:1009E0008AE091E093838283C482D582E682F78293
:1009F00057DCEDB7FEB738960FB6F894FEBF0FBEC2
:100A0000EDBFDE011196FD01E00FF11F1082FD0127
:100A100001900020E9F73197EA1BFB0BAE0FBF1FD7
:100A200080E202C08D933196E017F107DCF31016D7
:100A300011062CF40C0F1D1F80E2D8018C9386ED5B
:100A400094E0BE016F5F7F4F9DD6E2DEA0960FB6A9
:100A5000F894DEBF0FBECDBFCF91DF911F910F91F4
:100A6000FF90EF90DF90CF900895CF92DF92EF92BA
:100A7000FF920F931F93CF93DF937C016B01DC01F7
:100A80000D900020E9F78D0101501040081B190B53
:100A9000C0E0D0E00DC0C017D10714F060E204C080
:100AA000F701EC0FFD1F608186ED94E041D52196A2
:100AB000CC15DD0584F3ACDEDF91CF911F910F9152
:100AC000FF90EF90DF90CF9008954F925F926F92DA
:100AD0007F928F929F92AF92BF92CF92DF92EF92CE
:100AE000FF920F931F93DF93CF93CDB7DEB7C05420
:100AF000D0400FB6F894DEBF0FBECDBF8BD27B01C6
:100B00008C0101C085DE86D26E197F09800B910BA6
:100B1000685E734080409040A8F3198E1A8E1B8E39
:100B20001C8E18861F821A8619866091F6037091B2
:100B3000F70380E090E02FEF30E040E050E005E088
:100B400010E01FDF6091EE037091EF038091F003DE
:100B50009091F1032FEF3FEF4FEF5FEF12DF86EB46
:100B600093E0BE01635F7F4FAE014F5E5F4F9E011A
:100B70002B5E3F4F0E9462104090790350907A03A1
:100B800060907B0370907C036D857E858F8598894E
:100B9000A301920109E010E0A5E0EA2EF12C4EDE5F
:100BA00069897A898B899C89A30192010AE010E006
:100BB00045DE6D897E898F89988D2FEF3FEF4FEF4E
:100BC0005FEF05E010E0DDDE86EB93E0BE01655FE0
:100BD0007F4FAE014F5F5F4F9E012E5F3F4F8E01F3
:100BE0000D5F1F4FF4E0EF2EF12CEC0EFD1EE5E043
:100BF000CE2ED12CCC0EDD1EB6E0AB2EB12CAC0E21
:100C0000BD1EADE18A2E912C8C0E9D1E0E94500FB0
:100C10008D8D9E8DAF8DB8A18F5F9F4FAF4FBF4F12
:100C200029F486ED94E06EE071E037C08DB79EB791
:100C300040970FB6F8949EBF0FBE8DBFEDB7FEB7BD
:100C400031968E010F5D1F4FADB7BEB712961C9344
:100C50000E93119785E291E0938382838981848347
:100C600015828A81868317828B859C8591878087F0
:100C70008B81828713868C81848715868D818687F8
:100C800017860EDB8DB79EB740960FB6F8949EBFC1
:100C90000FBE8DBF86ED94E0B80174D56D8D7E8D4D
:100CA0008F8D98A12FEF3FEF4FEF5FEF05E010E042
:100CB00068DEAEDD86EB93E00E94860E20917D0318
:100CC00030917E0340917F035091800308E010E053
:100CD000F2E0EF2EF12CB2DD86EB93E00E94A90E3C
:100CE000A301920107E010E0A9DD86EB93E00E94EA
:100CF000CC0E209181033091820340918303509167
:100D0000840306E010E09ADD86EB93E00E94A90ED2
:100D1000A30192010E94B219882319F486E491E09C
:100D200005C086EB93E00E94A90ED4D766E070E080
:100D30009CDEED84FE840F851889C801B701A301EC
:100D400092010E94B219882329F460E070E080E0EB
:100D500090E028C029893A894B895C89C801B7018C
:100D60000F2EF3E5EF2EF8E0FF2EFEE40F2FF2E456
:100D70001F2FF02D0F2EF5EFAF2EF2E1BF2EF3E077
:100D8000CF2EFEEBDF2EF02D0E9493110E94261A2B
:100D900028EE33E040E050E00E948E1CC901DA01E9
:100DA000BC01CD012FEF3FEF4FEF5FEF09E010E007
:100DB000E8DDED84FE840F851889C801B701A30121
:100DC00092010E94B219882329F460E070E080E06B
:100DD00090E01CC029893A894B895C89C801B70118
:100DE0000F2EF3E5EF2EF8E0FF2EFEE40F2FF2E4D6
:100DF0001F2FF02D0F2EF5EFAF2EF2E1BF2EF3E0F7
:100E0000CF2EFEEBDF2EF02D0E94D310A301920116
:100E100007E010E0E2E0EE2EF12C10DDED84FE8420
:100E20000F851889C801B701A30192010E94B21968
:100E3000882319F486E491E01DC029893A894B89F9
:100E40005C89C801B7010F2EF3E5EF2EF8E0FF2E05
:100E5000FEE40F2FF2E41F2FF02D0F2EF5EFAF2E33
:100E6000F2E1BF2EF3E0CF2EFEEBDF2EF02D0E943D
:100E7000D31030D766E070E0F8DD86EB93E0BE017A
:100E8000675E7F4FAE01495F5F4F9E01275F3F4F17
:100E9000BBD5698D7A8D8B8D9C8D2FEF3FEF4FEFFA
:100EA0005FEF06E010E06DDD6F81788580E090E017
:100EB0002FEF3FEF4FEF5FEF0AE010E062DD698553
:100EC0007A8580E090E02FEF3FEF4FEF5FEF09E092
:100ED00010E057DD86ED94E033D3C05CDF4F0FB6F2
:100EE000F894DEBF0FBECDBFCF91DF911F910F9160
:100EF000FF90EF90DF90CF90BF90AF909F908F903A
:100F00007F906F905F904F9008950F931F9389E2A9
:100F100094E040EC52E160E070E00E94C81506EDFC
:100F200014E0C80140E052EC61E070E045D1C80136
:100F30006BE471E027D4C8016CE070E04AE050E057
:100F400004D4C80167E671E001D5C801F9D2C8012F
:100F500065E771E017D4C80163E770E04AE050E04C
:100F60009BD3C801EDD2C8016AE871E0EFD4C80193
:100F700061E172E0EBD4C80164E972E0E7D41F914B
:100F80000F9108951F920F920FB60F9211242F9375
:100F90003F938F939F93AF93BF9380914904909118
:100FA0004A04A0914B04B0914C0430914D04019639
:100FB000A11DB11D232F2D5F2D3720F02D57019638
:100FC000A11DB11D20934D048093490490934A04C0
:100FD000A0934B04B0934C04809145049091460437
:100FE000A0914704B09148040196A11DB11D8093C2
:100FF000450490934604A0934704B0934804BF91DE
:10100000AF919F918F913F912F910F900FBE0F90B5
:101010001F9018958FB7F8942091490430914A0495
:1010200040914B0450914C048FBFB901CA010895FF
:10103000789484B5826084BD84B5816084BD85B5B3
:10104000826085BD85B5816085BDEEE6F0E080817A
:1010500081608083E1E8F0E010828081826080839B
:10106000808181608083E0E8F0E08081816080831E
:10107000E1EBF0E0808184608083E0EBF0E0808150
:1010800081608083EAE7F0E08081846080838081F2
:10109000826080838081816080838081806880839A
:1010A0001092C100089508951F920F920FB60F92EB
:1010B00011242F933F934F938F939F93EF93FF931D
:1010C0008091C00082FD1DC04091C60020918E0419
:1010D00030918F042F5F3F4F2F73307080919004B9
:1010E000909191042817390771F0E0918E04F091E6
:1010F0008F04E25BFB4F408330938F0420938E0478
:1011000002C08091C600FF91EF919F918F914F9106
:101110003F912F910F900FBE0F901F901895E09167
:10112000E204F091E304E05CFF4F81919191208112
:101130003181821B930B8F739070892B09F0B3CF91
:1011400008951F920F920FB60F9211242F933F9381
:101150008F939F93EF93FF932091D2043091D30408
:101160008091D4049091D5042817390731F48091E7
:10117000C1008F7D8093C10014C0E091D404F09130
:10118000D504EE56FB4F20818091D4049091D50474
:1011900001968F7390709093D5048093D40420931C
:1011A000C600FF91EF919F918F913F912F910F90EA
:1011B0000FBE0F901F901895AF92BF92DF92EF92E3
:1011C000FF920F931F93CF93DF93EC017A018B0172
:1011D000DD24403081EE580780E0680780E0780722
:1011E00011F0DD24D39491E0A92EB12CEC89FD8976
:1011F000DD2069F0C50108A002C0880F991F0A947C
:10120000E2F7808360E079E08DE390E005C0108232
:1012100060E874E88EE190E0A80197010E948E1CBE
:10122000215030404040504056954795379527957E
:1012300080E12030380720F0DD2011F0DD24D6CF0A
:10124000E889F9893083EA89FB89208319A2EE892C
:10125000FF89408121E030E0C9010C8C02C0880F79
:10126000991F0A94E2F7482B4083EE89FF89408159
:10127000C9010D8C02C0880F991F0A94E2F7482B10
:101280004083EE89FF894081C9010E8C02C0880F1E
:10129000991F0A94E2F7482B4083EE89FF898081E9
:1012A0000F8C02C0220F331F0A94E2F720952823E7
:1012B0002083DF91CF911F910F91FF90EF90DF90EE
:1012C000BF90AF900895DC011C96ED91FC911D97A5
:1012D000E05CFF4F2191319180819181281B390B76
:1012E0002F733070C9010895DC011C96ED91FC91BB
:1012F0001D97E05CFF4F20813181E054F040DF0119
:10130000AE5BBF4F8D919C9111972817390719F447
:101310002FEF3FEF07C08D919C91E80FF91F80815F
:10132000282F30E0C9010895DC011C96ED91FC9155
:101330001D97E05CFF4F20813181E054F040DF01D8
:10134000AE5BBF4F8D919C9111972817390719F407
:101350002FEF3FEF10C08D919C911197E80FF91F6F
:1013600020818D919C91119701968F7390701196A9
:101370009C938E9330E0C9010895DC0191968C9185
:101380009197882339F05496ED91FC91559780817F
:1013900086FFF9CF91961C920895CF93DF93EC01CD
:1013A000EE85FF85E05CFF4F20813181E054F04005
:1013B0002F5F3F4F2F733070DF01AE5BBF4F8D91BA
:1013C0009C91119728173907D1F3E05CFF4F80817A
:1013D0009181E054F040E80FF91F6083EE85FF85AE
:1013E000E05CFF4F31832083EE89FF89208181E01B
:1013F00090E00F8C02C0880F991F0A94E2F7282B07
:10140000208381E089A3EC89FD89808180648083C9
:1014100081E090E0DF91CF9108951092D90410926D
:10142000D80488EE93E0A0E0B0E08093DA049093D3
:10143000DB04A093DC04B093DD048DE693E090938D
:10144000D7048093D6048EE494E09093E3048093D1
:10145000E20482E994E09093E5048093E40485EC4F
:1014600090E09093E7048093E60484EC90E09093FE
:10147000E9048093E80480EC90E09093EB0480937F
:10148000EA0481EC90E09093ED048093EC0482EC0C
:1014900090E09093EF048093EE0486EC90E09093BC
:1014A000F1048093F00484E08093F20483E080935D
:1014B000F30487E08093F40485E08093F50481E0F1
:1014C0008093F6040895CF93DF93B2DD1EDDCFE85D
:1014D000D8E0FBDA2097E9F322DEFBCFCF92DF9250
:1014E000EF92FF920F931F93CF93DF937C016B01D9
:1014F0008A01C0E0D0E00FC0D6016D916D01D70127
:10150000ED91FC910190F081E02DC7010995C80F84
:10151000D91F015010400115110571F7CE01DF915F
:10152000CF911F910F91FF90EF90DF90CF90089592
:10153000DC01ED91FC910190F081E02D0995089579
:10154000EF92FF920F931F938C01DC01ED91FC91C0
:101550000190F081E02D6DE009957C01D801ED91BD
:10156000FC910190F081E02DC8016AE009959C0191
:101570002E0D3F1DC9011F910F91FF90EF9008950F
:10158000CF93DF93EC016115710519F420E030E091
:101590000FC0DB010D900020E9F71197A61BB70BD8
:1015A000E881F9810280F381E02DAD0109959C016C
:1015B000C901DF91CF9108954F925F927F928F92F0
:1015C0009F92AF92BF92CF92DF92EF92FF920F93D2
:1015D0001F93DF93CF93CDB7DEB7A1970FB6F894E3
:1015E000DEBF0FBECDBF2C01742ECB01223008F41C
:1015F0002AE019A231E2C32ED12CCC0EDD1E822EA0
:101600009924AA24BB24672D752FA50194010E945B
:101610008E1C79018A01C801B701A50194010E94BD
:101620005C1C472D461B0894C108D1084A3014F4AD
:10163000405D01C0495CF6014083E114F1040105FD
:10164000110521F07E2C5F2DC801DDCFC201B6014E
:1016500097DFA1960FB6F894DEBF0FBECDBFCF9136
:10166000DF911F910F91FF90EF90DF90CF90BF908F
:10167000AF909F908F907F905F904F900895DC0186
:101680002115310541F4ED91FC910190F081E02D9F
:10169000642F0995089590CFCF92DF92EF92FF9239
:1016A0000F931F936C017B019A0100E010E0B801D9
:1016B000A701E5DF8C01C60143DF080F191FC80130
:1016C0001F910F91FF90EF90DF90CF900895CF92F0
:1016D000DF92EF92FF920F931F93CF93DF93EC0172
:1016E0006A017B012115310541F4E881F9810190FE
:1016F000F081E02D642F09951DC02A303105C9F411
:1017000077FF16C0E881F9810190F081E02D6DE24C
:1017100009958C0144275527BA014C195D096E09BA
:101720007F09CE012AE048DF9801280F391F03C046
:101730002AE042DF9C01C901DF91CF911F910F91F7
:10174000FF90EF90DF90CF900895CF92DF92EF92CD
:10175000FF920F931F936C017B019A010027F7FC06
:101760000095102FB801A701B2DF8C01C601E8DE99
:10177000080F191FC8011F910F91FF90EF90DF9084
:10178000CF900895FDCE08957F928F929F92AF9251
:10179000BF92CF92DF92EF92FF920F931F93CF935E
:1017A000DF934C017A018B01722ECB01BA01A801A3
:1017B00097010E94301C882321F0C4016BE173E083
:1017C00021C0C0E0D0E057016801E894D7F8C60115
:1017D000B5012FEF3FEF4FE75FE70E94301C8823F2
:1017E00051F4C601B5012FEF3FEF4FE75FE70E94CD
:1017F000B219181614F0C1E0D0E0219731F0C401FD
:101800006FE173E0BDDEEC0190C0C801B7012FEFBE
:101810003FEF4FE75FE40E946B1B181654F0C801BE
:10182000B7012FEF3FEF4FE75FEC0E94B21988231B
:1018300024F4C40163E273E0E5CFC801B70120E0FE
:1018400030E040E050E00E94B21987FD03C0C0E0E4
:10185000D0E00EC0D401ED91FC910190F081E02D1B
:10186000C4016DE20995EC0117FB109517F910956D
:1018700020E030E040E05FE3DD240BC0CA01B901A5
:1018800020E030E040E251E40E94B9199B01AC0134
:10189000D394D71498F3C801B7010E94EC185B01E8
:1018A0006C010E94261A7B018C01C401B801A701BA
:1018B0002AE030E0E4DEC80FD91F772031F0C40100
:1018C00067E273E05DDEC80FD91FC801B7010E944F
:1018D000521A9B01AC01C601B5010E94EB1823C04E
:1018E00020E030E040E251E40E94761B7B018C0155
:1018F0000E94211A5B016C01CC24B7FCC094DC2C43
:10190000C401B601A5012AE030E0E1DEC80FD91F0D
:10191000C601B5010E94541A9B01AC01C801B70170
:101920000E94EB187A947720D9F6CE01DF91CF91FF
:101930001F910F91FF90EF90DF90CF90BF90AF90ED
:101940009F908F907F9008951FCF0895EF92FF9200
:101950000F931F937C0114DE8C01C701F1DD080F8A
:10196000191FC8011F910F91FF90EF900895FC017E
:101970002FEF3FEF4FEF5FEF20833183428353839D
:1019800010861186128613868FEF99ECAAE9BBE3C5
:10199000808B918BA28BB38B808F918FA28FB38F13
:1019A00080A391A3A2A3B3A380A791A7A2A7B3A743
:1019B00080AB91ABA2ABB3AB20AF31AF42AF53AF73
:1019C000E05CFF4F8FEF90E091838083349620831B
:1019D00031834283538338962083318342835383F8
:1019E000389611921082709682E081931192119232
:1019F00011921192119211921192119211921182DF
:101A00001082799710820895CF93DF93FC01EB0148
:101A10006115710561F0E759FF4F80819181A281C5
:101A2000B381E956F04088839983AA83BB8341152B
:101A3000510549F0E359FF4F80819181ED56F04007
:101A4000DA018D939C932115310539F0E159FF4F4F
:101A500080819181F90191838083DF91CF910895F5
:101A6000EF92FF920F931F93CF93DF939C01EE248D
:101A7000FC01EA5AFF4F80818D3231F4EE24E39469
:101A8000E901C95ADF4F01C0EF018E0120E030E0CB
:101A900040E050E018C0CA01B9012AE030E040E05F
:101AA00050E00E945C1C2F2D332727FD3095432FDB
:101AB000532F2053304040405040260F371F481FBF
:101AC000591F0F5F1F4FF801F0808F2D80538A3010
:101AD00010F3CA01B90124E630E040E050E00E9472
:101AE0005C1C9B01AC0101C021969881892F805319
:101AF0008A30D0F39E3229F59981892F80538A301C
:101B000000F58AE09802C0011124805E9140AA2766
:101B100097FDA095BA2F280F391F4A1F5B1F9A8186
:101B2000892F80538A3068F4892F992787FD9095F3
:101B3000C097AA2797FDA095BA2F280F391F4A1FD3
:101B40005B1FEE2039F050954095309521953F4F21
:101B50004F4F5F4FB901CA01DF91CF911F910F9194
:101B6000FF90EF9008954F925F926F927F928F92C5
:101B70009F92AF92BF92CF92DF92EF92FF920F931C
:101B80001F93CF93DF9326E5822E912C880E991E0A
:101B9000E40120E030E040E050E017C0CA01B901A4
:101BA0002AE030E040E050E00E945C1C212F332707
:101BB00027FD3095432F532F205330404040504055
:101BC000260F371F481F591F21961881812F8053D8
:101BD0008A3020F3722E632E542E452EB901CA018D
:101BE00024E630E040E050E00E948E1C20E137E225
:101BF00040E050E00E945C1C5B016C0103C0089453
:101C0000811C911CF4019081892F80538A30B8F394
:101C10009E3269F588EEE82E83E0F82E012D112D15
:101C20001DC0332727FD309520533040442737FD12
:101C30004095542FC801B7010E945C1CA60EB71E28
:101C4000C81ED91EC801B7012AE030E040E050E0CC
:101C50000E948E1CC901DA017C018D010894811C4F
:101C6000911CF4012081822F80538A30D0F2C6016A
:101C7000B50126E030E040E050E00E948E1C790182
:101C80008A01672D762D852D942D24E630E040E0E5
:101C900050E00E948E1CCA01B90120EA36E841E0FA
:101CA00050E00E945C1CE60EF71E081F191FB701CA
:101CB000C801DF91CF911F910F91FF90EF90DF90BE
:101CC000CF90BF90AF909F908F907F906F905F90DC
:101CD0004F90089520E030E044E351E40E94EC1876
:101CE00020E030E044EB51E40E94B9190E94211A2F
:101CF000DC01CB0160E170E00E947B1CFC01EE0F77
:101D0000FF1FEB57FC4F808191810895FC0160A17A
:101D100071A182A193A16F3FF9EC7F07FAE98F07C8
:101D2000FBE39F0729F4E0E074E284E769E40AC07A
:101D30000E94541A20E030E048EC52E40E94B919A5
:101D4000E62F692F2E2F372F482F562FB901CA01A2
:101D50000895FC0160A971A982A993A96F3FF9ECCC
:101D60007F07FAE98F07FBE39F0729F4E0E070E0C3
:101D70008AE764E40AC00E94521A20E030E048EC8E
:101D800052E40E94B919E62F692F2E2F372F482FC2
:101D9000562FB901CA010895EF92FF920F931F9336
:101DA000FC0160A571A582A593A56F3FF9EC7F07A3
:101DB000FAE98F07FBE39F07E9F00E94521A20E03F
:101DC00030E048EC52E40E94B9197B018C0120E01C
:101DD00030E040E85FEB0E94B219882359F0C80157
:101DE000B70126E53EE04DEE5FE30E94761BE62F4D
:101DF000692F04C0E0E070E080E86FEB2E2F372FF2
:101E0000482F562FB901CA011F910F91FF90EF90F3
:101E100008950F931F93CF93DF93FC01EB0189018A
:101E20006115710541F080859185A285B385888310
:101E30009983AA83BB834115510549F08081918123
:101E4000A281B381EA0188839983AA83BB830115A8
:101E5000110509F1EF01CC5BDF4F88819981AA81DF
:101E6000BB818F5F9F4FAF4FBF4F29F42FEF3FEFE5
:101E70004FEF5FEF0BC0CED89B01AC0188819981F9
:101E8000AA81BB81281B390B4A0B5B0BE801288315
:101E900039834A835B83DF91CF911F910F9108951E
:101EA0002F923F924F925F926F927F928F929F926A
:101EB000AF92BF92CF92DF92EF92FF920F931F9358
:101EC000DF93CF93CDB7DEB728970FB6F894DEBF78
:101ED0000FBECDBF3B012A0119019401BE016F5F06
:101EE0007F4FAE014B5F5F4F94DF61147104B9F017
:101EF00069817A818B819C8124E630E040E050E06A
:101F00000E948E1C613571051CF420ED37E002C083
:101F10002CE637E0260F371FF3013183208341146D
:101F20005104A1F069817A818B819C8124E630E0A3
:101F300040E050E00E948E1CCA01B90124E630E066
:101F400040E050E00E948E1CF201608321143104B5
:101F500061F069817A818B819C8120E137E240E0E8
:101F600050E00E948E1CF10120830115110561F0E3
:101F70006D817E818F81988520E432E44FE050E0CE
:101F80000E948E1CF8012083E114F104A1F06D8100
:101F90007E818F81988520E137E240E050E00E9409
:101FA0008E1CCA01B90124E630E040E050E00E94F6
:101FB0008E1CF7016083C114D104A1F06D817E8174
:101FC0008F81988524E630E040E050E00E948E1C2E
:101FD000CA01B90124E630E040E050E00E948E1CC6
:101FE000F6016083A114B10461F06D817E818F815F
:101FF000988524E630E040E050E00E948E1CF50118
:10200000608328960FB6F894DEBF0FBECDBFCF9188
:10201000DF911F910F91FF90EF90DF90CF90BF90D5
:10202000AF909F908F907F906F905F904F903F9078
:102030002F9008950F931F93CF93DF93FC01EB0133
:1020400089016115710541F080899189A289B3895F
:1020500088839983AA83BB834115510549F0808DFC
:10206000918DA28DB38DEA0188839983AA83BB8366
:102070000115110511F1EF01C45BDF4F88819981D2
:10208000AA81BB818F5F9F4FAF4FBF4F29F42FEFC6
:102090003FEF4FEF5FEF0CC00E940A089B01AC01BD
:1020A00088819981AA81BB81281B390B4A0B5B0B64
:1020B000E801288339834A835B83DF91CF911F91A5
:1020C0000F910895EF92FF920F931F93DF93CF9399
:1020D000CDB7DEB728970FB6F894DEBF0FBECDBFE1
:1020E0008B017A01BE016F5F7F4FAE014B5F5F4F87
:1020F000A1DF69817A818B819C816F3F29EC720716
:102100002AE982072BE3920729F4E0E070E08AE7EE
:1021100064E40AC00E94541A20E030E543EC57E41E
:102120000E94B919E62F692F2E2F372F482F562FCF
:10213000C901DA01F80180839183A283B383898185
:102140009A81AB81BC818F5F994CAA49BB4329F42A
:10215000E0E070E08AE764E40EC06D817E818F81EB
:1021600098850E94541A20E030E543EC57E40E9421
:10217000B919E62F692F2E2F372F482F562FC90157
:10218000DA01F70180839183A283B38328960FB687
:10219000F894DEBF0FBECDBFCF91DF911F910F919D
:1021A000FF90EF9008952F923F924F925F926F921F
:1021B0007F928F929F92AF92BF92CF92DF92EF92D7
:1021C000FF920F931F93DF93CF93CDB7DEB72C977A
:1021D0000FB6F894DEBF0FBECDBF3B014C01C60168
:1021E000B501F9D725E33AEF4EE85CE30E94761B90
:1021F0005B016C01C401B30125E33AEF4EE85CE3F7
:102200000E94761B3B014C01C801B70125E33AEF60
:102210004EE85CE30E94761B1B012C01B501C60150
:102220000E94D91B69877A878B879C87B101C2017D
:102230000E94B6196D837E838F839887B301C40192
:102240000E94D91B69837A838B839C83B501C60165
:102250000E94B6197B018C0169817A818B819C81F6
:102260002D813E814F8158850E94761BA8019701E0
:102270000E94761B5B016C01B301C4010E94B61978
:102280007B018C01B101C2010E94D91B9B01AC01F1
:10229000C801B7010E94761BA60195019CD77B015E
:1022A0008C0169857A858B859C852D813E814F8146
:1022B00058850E94761B9701A8010E945F197B0137
:1022C0008C0120E030E040E050E00E94B219882309
:1022D0004CF4C801B7012BED3FE049EC50E47CD74A
:1022E0007B018C01C801B70121EE3EE245E652E4D4
:1022F0000E94761B2C960FB6F894DEBF0FBECDBFA2
:10230000CF91DF911F910F91FF90EF90DF90CF90D1
:10231000BF90AF909F908F907F906F905F904F9005
:102320003F902F9008952F923F924F925F926F921D
:102330007F928F929F92AF92BF92CF92DF92EF9255
:10234000FF920F931F93DF93CF93CDB7DEB76097C4
:102350000FB6F894DEBF0FBECDBF3B014C01CA01E2
:10236000B901A601950137D725E33AEF4EE85CE3C2
:102370000E94761B5B016C01C6010E94D91B6D8710
:102380007E878F87988BB501C601F0D769877A87DA
:102390008B879C87C401B30125E33AEF4EE85CE3E9
:1023A0000E94761B5B016C01C801B70125E33AEF7F
:1023B0004EE85CE30E94761B7B018C01B501C601EF
:1023C0000E94D91B6D837E838F839887B501C601D8
:1023D000CDD769837A838B839C83B701C8010E9420
:1023E000D91B1B012C01B701C801C0D75B016C01CF
:1023F00069817A818B819C81A20191010E94761B67
:102400007B018C016D817E818F819885A60195016C
:102410000E94761B29853A854B855C850E94761B38
:102420009B01AC01C801B701D6D69B01AC010E944B
:10243000761B7B018C01C601B5012D853E854F853C
:1024400058890E94761B9B01AC010E94761B9B0160
:10245000AC01C801B701C0D60E94E31B3B014C018F
:102460006D817E818F819885A20191010E94761BEA
:102470007B018C0169817A818B819C81A601950108
:102480000E94761B29853A854B855C850E94761BC8
:102490009B01AC01C801B7019FD69B01AC01C401EF
:1024A000B3010DD726E73BE742EC5AE40E94761BC6
:1024B00060960FB6F894DEBF0FBECDBFCF91DF910F
:1024C0001F910F91FF90EF90DF90CF90BF90AF9052
:1024D0009F908F907F906F905F904F903F902F9044
:1024E0000895FF920F931F93CF93DF93EC01CB5A84
:1024F000DF4F8881C555D040882309F4E9C0CA5A06
:10250000DF4F9881C655D040892F8154863038F4EA
:10251000292F332727FD3095275330400CC0292F12
:10252000332727FD30959156963018F427553040C3
:1025300002C020533040C95ADF4F4881C755D040B0
:10254000842F8154863030F4842F992787FD90950D
:10255000C7970BC0842F992787FD90954156463029
:1025600018F48755904001C0C09754E0220F331FE4
:102570005A95E1F7982F920FCC5ADF4F8881C455B6
:10258000D040981709F09BC0C859DF4F8881C856C2
:10259000D040882309F497C1FE01E359FF4F8081A1
:1025A0009181019691838083FE01EC5BFF4FC85BB4
:1025B000DF4F88819981AA81BB81C854D040808334
:1025C0009183A283B383FE01E45BFF4FC05BDF4FC7
:1025D00088819981AA81BB8180839183A283B383FF
:1025E00065968881C556D0408823A1F1813009F0D5
:1025F00064C08C819D81AE81BF8188839983AA83C9
:10260000BB838C859D85AE85BF8588879987AA8782
:10261000BB878C899D89AE89BF89888B998BAA8B52
:10262000BB8B8C8D9D8DAE8DBF8D888F998FAA8F22
:10263000BB8F8CA59DA5AEA5BFA588A799A7AAA766
:10264000BBA78CA99DA9AEA9BFA988AB99ABAAAB22
:10265000BBAB33C08CA19DA1AEA1BFA188A399A3A0
:10266000AAA3BBA38C819D81AE81BF8188839983FE
:10267000AA83BB838C899D89AE89BF89888B998BFE
:10268000AA8BBB8B8C8D9D8DAE8DBF8D888F998FC6
:10269000AA8FBB8FFE01E05CFF4FCE5BDF4F8881CE
:1026A0009981C254D040918380838CAD9DADAEADF5
:1026B000BFAD88AF99AFAAAFBBAF81E005C1FE0146
:1026C000E159FF4F80819181019691838083FBC006
:1026D000CA59DF4F8881C656D040882321F59E0114
:1026E0002A5A3F4FD901E9E2F3E002C01196319630
:1026F0009C91992339F080819817C1F3D901EFE2B9
:10270000F3E006C0CB59DF4F81E0E7C01196319668
:102710009C91992321F080819817C1F3DBC0CB599C
:10272000DF4F1882D0C0CB59DF4F3881C556D0401B
:10273000323009F4C8C0CA5ADF4F2881C655D0408C
:10274000222309F4C0C0E32FF0E045E0EE0FFF1FA5
:102750004A95E1F790E0E82BF92B3197E932F10542
:1027600008F0B1C0EC5CFF4FEE0FFF1F0590F49135
:10277000E02D0994CE0174D96C837D838E839F8371
:102780000E940A08C85BDF4F12C0FE01E859FF4FE4
:102790001082213409F097C07BC0CE01E4D96C8B44
:1027A0007D8B8E8B9F8B0E940A08C05BDF4F6883F6
:1027B00079838A839B8387C0233509F084C08C8901
:1027C0009D89AE89BF89B095A095909581959F4FC1
:1027D000AF4FBF4F8C8B9D8BAE8BBF8B74C0CE0128
:1027E000C2D96C8F7D8F8E8F9F8F6DC0273509F07A
:1027F0006AC08C8D9D8DAE8DBF8DB095A095909546
:1028000081959F4FAF4FBF4F8C8F9D8FAE8FBF8FE6
:102810005AC0CE0125D96CA77DA78EA79FA753C00C
:10282000CE011ED96CAB7DAB8EAB9FAB4CC08E0185
:102830000A5A1F4F20E030E040E050E018C0CA01C3
:10284000B9012AE030E040E050E00E945C1C2F2DEE
:10285000332727FD3095432F532F205330404040DE
:102860005040260F371F481F591F0F5F1F4FF80199
:10287000F0808F2D80538A3010F32C873D874E8750
:102880005F8721C0FE01E859FF4F10822133DCF041
:1028900081E0808318C0CE018A5A9F4F0E94240194
:1028A000FE01EE5BFF4F808311820DC0CE01D8D8B0
:1028B0006CAF7DAF8EAF9FAF06C0CE01D1D86CA3F9
:1028C0007DA38EA39FA380E0DF91CF911F910F91F5
:1028D000FF900895CB59DF4F82E08883F4CF1F9398
:1028E000CF93DF93EC01162FFC01E759FF4F808156
:1028F0009181A281B3810196A11DB11D8083918335
:10290000A283B383643299F1DE01A959BF4F6532C6
:102910002CF46A3069F06D30C1F50AC06A3241F0BA
:102920006C3299F5FE01EC5AFF4F80818627808337
:102930008C918F3010F090E009C0FE01E80FF11D7E
:10294000EA5AFF4F1082CE01CCDD982FFE01EA59E2
:10295000FF4F80818F5F8083C959DF4F1882FE014E
:10296000729710821A3251F581E0808327C0C959CD
:10297000DF4F18821A9262971882619682E08883EC
:10298000609718826396188218C08C918E3040F43C
:10299000FE01E80FF11DEA5AFF4F10838F5F8C9301
:1029A000CB5ADF4F8881C555D040882331F4FE01D2
:1029B000EC5AFF4F80818127808390E0892FDF913F
:1029C000CF911F9108950F931F93CF93DF93FC0135
:1029D000738D76957170A685B7859585772329F0D7
:1029E0008C91892309F454C004C08C91892309F087
:1029F0004FC08389948920E001972FEF8F3F920782
:102A0000D9F7C589D689A685B785158560E031E0F7
:102A100040E050E000E0CE01202F01972FEF8F3FE4
:102A20009207D9F78C91812311F0632B03C0832F78
:102A300080956823330F4F5F5F4F4830510559F73A
:102A40008789908D20E001972FEF8F3F9207D9F76C
:102A50007111609580913A0520913B0590E00196B7
:102A60008F73907030E08217930779F0E0913A0508
:102A7000F0E0E650FB4F608380913A0590E00196CC
:102A80008F73907080933A0503C0838D8160838F2C
:102A9000DF91CF911F910F9108951F920F920FB662
:102AA0000F9211242F933F934F935F936F937F93D4
:102AB0008F939F93AF93BF93EF93FF938091F8040D
:102AC0009091F904009709F07EDFFF91EF91BF919B
:102AD000AF919F918F917F916F915F914F913F91B6
:102AE0002F910F900FBE0F901F9018951F920F926D
:102AF0000FB60F9211242F933F934F935F936F93D1
:102B00007F938F939F93AF93BF93EF93FF938091A6
:102B1000F8049091F904009709F055DFFF91EF91C7
:102B2000BF91AF919F918F917F916F915F914F91E5
:102B30003F912F910F900FBE0F901F9018951F92ED
:102B40000F920FB60F9211242F933F934F935F93E1
:102B50006F937F938F939F93AF93BF93EF93FF9365
:102B60008091F8049091F904009709F02CDFFF910F
:102B7000EF91BF91AF919F918F917F916F915F91F5
:102B80004F913F912F910F900FBE0F901F9018956E
:102B9000CF92DF92EF92FF920F931F93CF93DF9329
:102BA000EC017A018B011A8E198E188E1F8A1E8AEB
:102BB0001D8A1C8A1B8A20E030E06901CC0CDD1CD8
:102BC000C20ED31EB601660F771F660F771FAB01CB
:102BD0004B5F5E4FFA0185919591A591B4918E1549
:102BE0009F05A007B107E9F4FB01E75FFE4F859160
:102BF00094919C8B8B8BFB01E55FFE4F85919491AB
:102C00009E8B8D8BFB01E35FFE4F85919491988F96
:102C10008F8BFB01E15FFE4F859194919A8F898F95
:102C200006C02F5F3F4F2C30310509F0C6CF8F898A
:102C3000988D892B09F449C04C85463108F03DC078
:102C400090916800483010F484E005C04E3010F0D8
:102C500082E001C081E0892B80936800483028F42D
:102C6000EDE6F0E0ADE6B0E00BC04E3028F0ECE66B
:102C7000F0E0ACE6B0E004C0EBE6F0E0ABE6B0E0DC
:102C80005081483040F481E090E002C0880F991FE5
:102C90004A95E2F710C0242F30E04E3018F4285047
:102CA000304002C02E50304081E090E002C0880FDA
:102CB000991F2A95E2F7852B8C93898D9A8D20E0B8
:102CC00001972FEF8F3F9207D9F78091F8049091E9
:102CD000F9048C179D0781F08B8D8E7F8B8F9FB7AA
:102CE000F89410923A0580913A0580933B05D09371
:102CF000F904C093F8049FBFDF91CF911F910F910A
:102D0000FF90EF90DF90CF900895FC01448546310D
:102D100080F5483028F4EDE6F0E0ADE6B0E00BC019
:102D20004E3028F4EBE6F0E0ABE6B0E004C0ECE6B1
:102D3000F0E0ACE6B0E05081483040F481E090E053
:102D400002C0880F991F4A95E2F710C0242F30E087
:102D50004E3018F42850304002C02E50304081E0F0
:102D600090E002C0880F991F2A95E2F7809585238D
:102D70008C930895FC0189EA93E091838083CF01CD
:102D8000C4CF2091F8043091F9042817390731F4A1
:102D900090913B0580913A05981719F42FEF3FEF7A
:102DA0000FC0E0913B05F0E0E650FB4F20818091A1
:102DB0003B0590E001968F73907080933B0530E067
:102DC000C90108952091F8043091F90428173907B2
:102DD00019F020E030E00DC080913A0520913B05CC
:102DE00090E0805C9F4F821B910960E470E083D586
:102DF0009C01C90108950F931F93DC0159968D9191
:102E00009C915A97892B49F481E090E013969C930A
:102E10008E93129720E030E097C00FB7F8945B963E
:102E20008C915B975196ED91FC91529750962C9115
:102E3000509781FF8DC08081822B808359968D9120
:102E40009C915A97059620E001972FEF8F3F9207AC
:102E5000D9F75B968C915B9781FF35C031E040E0FC
:102E600050E070E010E0832F90E086239723519686
:102E7000ED91FC91529750962C915097892B29F007
:102E8000808120952823208303C08081822B80832A
:102E900059968D919C915A97212F01972FEF8F3F33
:102EA0009207D9F7330F4F5F5F4F48305105D9F67E
:102EB0005196ED91FC915297908150968C9150973C
:102EC0008095892333C031E040E050E070E010E0AD
:102ED000832F90E0862397235196ED91FC91529792
:102EE00050962C915097892B21F08081822B8083E2
:102EF00004C0808120952823208359968D919C9130
:102F00005A97212F01972FEF8F3F9207D9F7330F51
:102F10004F5F5F4F48305105D9F65196ED91FC91C6
:102F20005297808150969C915097892B80830FBF38
:102F300059968D919C915A9720E001972FEF8F3FE2
:102F40009207D9F721E030E0C9011F910F91089550
:102F5000808120952823208371CF2091F80430911F
:102F6000F9042817390749F49FB7F89410923A05E5
:102F700080913A0580933B059FBF08952091F80406
:102F80003091F9042817390731F490913B0580916D
:102F90003A05981719F42FEF3FEF0AC0E0913B056F
:102FA000F0E0E650FB4F8081282F332727FD309536
:102FB000C90108951F93CF93DF93EC01162F862F3D
:102FC00060E076D08B8D81FD03C0812F61E0AFD0B2
:102FD0001C87212F30E0C90189539E4FFC01849149
:102FE0008D872D543E4FF9016491E62FF0E0EE0FEE
:102FF000FF1FE755FE4F859194919F878E87DF9144
:10300000CF911F910895FF920F931F938C01F62E7D
:10301000862F61E04DD08F2D61E089D08F2D90E01B
:10302000FC01E953FE4FE491D8015096EC93509780
:103030008D549E4FFC016491E62FF0E0EE0FFF1FD0
:10304000E156FE4F8591949152969C938E935197A1
:103050001F910F91FF900895FF920F931F938C0182
:10306000F62EFC011382128288EE93E0A0E0B0E01D
:1030700084839583A683B78389EA93E091838083D1
:10308000148A138A168A158A108E178A128E118E48
:10309000838D2170220F8C7F822B838FC801642F38
:1030A000B2DFC8016F2D86DF1F910F91FF90089549
:1030B000CF93DF93482F50E0CA0189539E4FFC0104
:1030C00034914D545E4FFA018491882369F190E068
:1030D000880F991FFC01EB56FE4FA591B491FC019E
:1030E000E156FE4FC591D491662351F42FB7F89461
:1030F0008C91932F909589238C93888189230BC081
:10310000623061F42FB7F8948C91932F90958923B6
:103110008C938881832B88832FBF06C09FB7F89438
:103120008C91832B8C939FBFDF91CF910895482F73
:1031300050E0CA0185529E4FFC012491CA01895377
:103140009E4FFC0194914D545E4FFA01349133230C
:1031500009F440C0222351F1233071F0243028F4C7
:103160002130A1F0223011F514C02630B1F0273003
:10317000C1F02430D9F404C0809180008F7703C05F
:10318000809180008F7D8093800010C084B58F7700
:1031900002C084B58F7D84BD09C08091B0008F7757
:1031A00003C08091B0008F7D8093B000E32FF0E0EA
:1031B000EE0FFF1FE156FE4FA591B4912FB7F89483
:1031C000662321F48C919095892302C08C91892BE0
:1031D0008C932FBF08955058BB27AA270ED030C21A
:1031E000F0D130F0F5D120F031F49F3F11F41EF40E
:1031F000C0C10EF4E095E7FBB6C1E92F43D280F3DE
:10320000BA17620773078407950718F071F49EF5E3
:103210005BC20EF4E0950B2EBA2FA02D0B01B90165
:1032200090010C01CA01A0011124FF27591B99F03C
:10323000593F50F4503E68F11A16F040A22F232F48
:10324000342F4427585FF3CF469537952795A79598
:10325000F0405395C9F77EF41F16BA0B620B730B3F
:10326000840BBAF09150A1F0FF0FBB1F661F771FB0
:10327000881FC2F70EC0BA0F621F731F841F48F465
:10328000879577956795B795F7959E3F08F0B3CFEB
:103290009395880F08F09927EE0F979587950895D5
:1032A00090D158F080E891E009F49EEF91D128F098
:1032B00040E851E059F45EEF09C05BC105C2E92F57
:1032C000E078E0D168F3092E052AC1F32617370705
:1032D0004807590738F00E2E07F8E02569F0E02579
:1032E000E0640AC0EF6307F8009407FADB01B90154
:1032F0009D01DC01CA01AD01EF934AD0A1D10AD0F2
:103300005F91552331F02BED3FE049E450FD49EC4E
:1033100063CF0895DF93DD27B92FBF7740E85FE3E0
:103320001616170648075B0710F4D92FD8D19F93BC
:103330008F937F936F9391D2EAEBF0E01DD180D110
:103340002F913F914F915F91DDD1DD2349F090584E
:10335000A2EA2AED3FE049EC5FE3D0785D274DDF3C
:10336000DF916EC1DCD008F481E0089539D1E39596
:1033700078C10CD065C12CD140F023D130F021F4BC
:103380005F3F19F0F0C05111A0C1F3C07BD198F399
:103390009923C9F35523B1F3951B550BBB27AA27D6
:1033A00062177307840738F09F5F5F4F220F331F48
:1033B000441FAA1FA9F333D00E2E3AF0E0E830D014
:1033C00091505040E695001CCAF729D0FE2F27D017
:1033D000660F771F881FBB1F261737074807AB07E5
:1033E000B0E809F0BB0B802DBF01FF2793585F4F5A
:1033F0002AF09E3F510568F0B6C067C15F3FECF30D
:10340000983EDCF3869577956795B795F7959F5F1E
:10341000C9F7880F911D9695879597F90895E1E072
:10342000660F771F881FBB1F621773078407BA07D1
:1034300020F0621B730B840BBA0BEE1F88F7E0952C
:10344000089504D06894B11140C1089523D188F043
:103450009F5790F0B92F9927B751A0F0D1F0660F80
:10346000771F881F991F1AF0BA95C9F712C0B1309B
:1034700081F02AD1B1E0089527C1672F782F8827DE
:10348000B85F39F0B93FCCF3869577956795B395DA
:10349000D9F73EF490958095709561957F4F8F4F49
:1034A0009F4F0895E89409C097FB3EF4909580954E
:1034B000709561957F4F8F4F9F4F9923A9F0F92FFA
:1034C00096E9BB279395F695879577956795B79578
:1034D000F111F8CFFAF4BB0F11F460FF1BC06F5F5E
:1034E0007F4F8F4F9F4F16C0882311F096E911C070
:1034F000772321F09EE8872F762F05C0662371F091
:1035000096E8862F70E060E02AF09A95660F771FA4
:10351000881FDAF7880F9695879597F90895990F80
:103520000008550FAA0BE0E8FEEF16161706E8078D
:10353000F907C0F012161306E407F50798F0621BAE
:10354000730B840B950B39F40A2661F0232B242B83
:10355000252B21F408950A2609F4A140A6958FEFA2
:10356000811D811D089597F99F6780E870E060E0F4
:1035700008959FEF80EC0895DF93CF931F930F93EF
:10358000FF92EF92DF927B018C01689405C0DA2EE6
:10359000EF01B8D0FE01E894A591259135914591B0
:1035A0005591AEF3EF0129DEFE019701A801DA94EF
:1035B00079F7DF90EF90FF900F911F91CF91DF91FE
:1035C000089500240A941616170618060906089589
:1035D00000240A9412161306140605060895C9CF8E
:1035E00059D0E8F3E894EFEFBB273FE048EC5FE702
:1035F0006B3D73078407950708F1FF279F57B25A61
:103600006A4D7F40894CF04032F4BE556542704FA0
:103610008643FF4F0894EE1F915030F0BB0F661F9A
:10362000771F881FFF1FEBCF9EE7882332F0BB0F69
:10363000661F771F881F9A95C1F79395E09514C16F
:10364000092E0394000C11F4882352F0BB0F40F4B0
:10365000BF2B11F460FF04C06F5F7F4F8F4F9F4FF0
:103660000895EF93E0FF06C0A2EA2AED3FE049EC9F
:103670005FEBC3DDE5DF0F90039401FC9058E7EEAC
:10368000F0E009C157FD9058440F551F59F05F3FB6
:1036900071F04795880F97FB991F61F09F3F79F074
:1036A00087950895121613061406551FF2CF4695F6
:1036B000F1DF08C0161617061806991FF1CF869578
:1036C0007105610508940895E894BB27662777275C
:1036D000CB0197F9089523DF08F48FEF08959B013C
:1036E000AC0160E070E080E89FE343CE0BD0A8CF50
:1036F00068DF28F06DDF18F0952309F034CF39CF5B
:103700001124E3CFBFDFA0F3959FD1F3950F50E0D5
:10371000551F629FF001729FBB27F00DB11D639F83
:10372000AA27F00DB11DAA1F649F6627B00DA11D29
:10373000661F829F2227B00DA11D621F739FB00DCF
:10374000A11D621F839FA00D611D221F749F33273F
:10375000A00D611D231F849F600D211D822F762FD8
:103760006A2F11249F5750408AF0E1F088234AF0D5
:10377000EE0FFF1FBB1F661F771F881F9150504021
:10378000A9F79E3F510570F0EECE9FCF5F3FECF35F
:10379000983EDCF3869577956795B795F795E7950D
:1037A0009F5FC1F7FE2B880F911D9695879597F91E
:1037B00008959F9315DF0F9007FCEE5F52CF11F431
:1037C0000EF4D7CE51C066DFD0F39923D9F3CEF3F0
:1037D0009F57550B87FF58D056959795B0E020F42A
:1037E000660F771F881FBB1F1F930F930024900144
:1037F000A0018001F001A0E80E0F1F1F0A1E511D3D
:10380000601B710B8009B50B48F4600F711F801DA0
:10381000B51F0E1B1F0B0A0A510907C02E0F3F1FB1
:103820004A1F0E0F1F1F0A1E511D660F771F881F8C
:10383000BB1FA695F795E795F8F606171707080634
:103840005B07211D311D411D0F911F91B901842F6F
:103850009158880F9695879508959B01AC0146CFA6
:103860005EDE880B990B08959F3F49F0915028F434
:10387000869577956795B7959F5F80389F4F880F9E
:103880009695879597F9089591505040660F771F48
:10389000881FD2F708959F938F937F936F93FF9321
:1038A000EF939B01AC0122DFEF91FF9165DE2F9139
:1038B0003F914F915F911ACF629FD001739FF001AA
:1038C000829FE00DF11D649FE00DF11D929FF00DB0
:1038D000839FF00D749FF00D659FF00D9927729FE7
:1038E000B00DE11DF91F639FB00DE11DF91FBD0172
:1038F000CF011124089597FB092E07260AD077FDE2
:1039000004D02ED006D000201AF4709561957F4F18
:103910000895F6F7909581959F4F0895A1E21A2E8C
:10392000AA1BBB1BFD010DC0AA1FBB1FEE1FFF1F63
:10393000A217B307E407F50720F0A21BB30BE40BB3
:10394000F50B661F771F881F991F1A9469F76095FA
:103950007095809590959B01AC01BD01CF010895B4
:10396000AA1BBB1B51E107C0AA1FBB1FA617B707A5
:1039700010F0A61BB70B881F991F5A95A9F78095C1
:103980009095BC01CD010895EE0FFF1F0590F491B5
:10399000E02D09942F923F924F925F926F927F9207
:1039A0008F929F92AF92BF92CF92DF92EF92FF924F
:1039B0000F931F93CF93DF93CDB7DEB7CA1BDB0BFB
:1039C0000FB6F894DEBF0FBECDBF09942A883988A0
:1039D00048885F846E847D848C849B84AA84B984A7
:1039E000C884DF80EE80FD800C811B81AA81B981B3
:1039F000CE0FD11D0FB6F894DEBF0FBECDBFED01C7
:103A0000089511E0C4EFD1E003C0FE01BFDF2296AC
:0A3A1000C63FD107D1F7F894FFCFAD
:103A1A002A2A2A2A2A2A2A002000256C64002A2A0D
:103A2A002A2A2A2A2A202020202A2A2A2A2A2A2A14
:103A3A002020202000253032642F253032642F25A3
:103A4A0030326420253032643A253032643A2530E7
:103A5A003264202020002A2A2A20005465737469BF
:103A6A006E672054696E79475053206C696272619F
:103A7A00727920762E20006279204D696B616C2064
:103A8A00486172740053697A656F66286770736F4C
:103A9A00626A65637429203D20005361747320486B
:103AAA00444F50204C61746974756465204C6F6E84
:103ABA006769747564652046697820204461746575
:103ACA002020202020202054696D652020202020DD
:103ADA0020204461746520416C74202020202043FA
:103AEA006F757273652053706565642043617264F3
:103AFA00202044697374616E636520436F75727325
:103B0A0065204361726420204368617273205365A3
:103B1A006E74656E63657320436865636B73756D58
:103B2A0000202020202020202020202864656729CA
:103B3A002020202028646567292020202020416732
:103B4A006520202020202020202020202020202026
:103B5A002020202020202020204167652020286D59
:103B6A002920202020202D2D2D2066726F6D2047C0
:103B7A005053202D2D2D2D20202D2D2D2D20746FCD
:103B8A00204C6F6E646F6E20202D2D2D2D2020521B
:103B9A005820202020525820202020202020204653
:103BAA0061696C002D2D2D2D2D2D2D2D2D2D2D2DB9
:103BBA002D2D2D2D2D2D2D2D2D2D2D2D2D2D2D2D2B
:103BCA002D2D2D2D2D2D2D2D2D2D2D2D2D2D2D2D1B
:103BDA002D2D2D2D2D2D2D2D2D2D2D2D2D2D2D2D0B
:103BEA002D2D2D2D2D2D2D2D2D2D2D2D2D2D2D2DFB
:103BFA002D2D2D2D2D2D2D2D2D2D2D2D2D2D2D2DEB
:103C0A002D2D2D2D2D2D2D2D2D2D2D2D2D2D2D2DDA
:103C1A002D2D2D2D2D2D2D2D2D2D2D2D2D2D2D2DCA
:103C2A002D2D2D2D2D2D2D2D2D2D006E616E006922
:103C3A006E66006F7666002E004750524D4300476D
:103C4A0050474741004E004E4E45004E4500454EF6
:103C5A00450045004553450053450053534500531D
:103C6A000053535700535700575357005700574EA6
:103C7A0057004E57004E4E570000000000CD096E07
:103C8A000A630994097409BD0900007A440024747E
:103C9A0049000080BF350337033B033E0342034418
:103CAA000348034B034F035103550358035C035E58
:103CBA00036203650300000000FB166E0AE216C1E8
:063CCA0016BE17AD170045
:00000001FF
