:1000000034C0000059C0000057C0000055C00000B7
:1000100053C0000051C000004FC000004DC00000A0
:100020004BC0000049C0000047C0000045C00000B0
:1000300043C0000041C000003FC000003DC00000C0
:1000400043C1000039C000001CC2000067C20000AC
:1000500033C0000031C000002FC000002DC00000E0
:100060002BC0000029C00000F90311241FBECFEFF0
:10007000D8E0DEBFCDBF11E0A0E0B1E0E6EFF1E1F6
:1000800002C005900D92AA3CB107D9F712E0AAEC84
:10009000B1E001C01D92AD37B107E1F710E0CAE64B
:1000A000D0E004C02297FE010E94F508C836D107AF
:1000B000C9F7F5D30C94F908A3CFFB01DC018D91AE
:1000C000019080190110D9F3990B08950895AF920A
:1000D000BF92CF92DF92EF92FF920F931F93DF9325
:1000E000CF93CDB7DEB7CA55D0400FB6F894DEBF78
:1000F0000FBECDBF60ED77E080E090E02DD18BE5C5
:1001000092E040E052EC61E070E043D21C821B823E
:1001100025ECA22E21E0B22EBA82A98293E3E92E29
:10012000F12CEC0EFD1EFE82ED8288E2C82ED12C51
:10013000DA86C9868E010F5F1F4FC801CED5C80170
:100140004BED5FE069E470E422E030E0B3D58BE58D
:1001500092E0B701B1D51E861D86BC86AB86F88AB3
:10016000EF86DC8ACB8A8E01055F1F4FC801B5D5AB
:10017000C80160E071E0CBD4188E1F8ABE8AAD8AB8
:10018000FA8EE98EDE8ECD8E8E010B5E1F4FC8017A
:10019000A4D5C80140E851E561E070E02AE030E014
:1001A00078D41AA219A2B8A2AF8EFCA2EBA2D8A64C
:1001B000CFA28E01015E1F4FC8018FD5C80140E854
:1001C00051E561E070E020E130E063D48BE592E03E
:1001D000B70172D51CA61BA6BAA6A9A6FEA6EDA6B7
:1001E000DAAAC9AA8E01075D1F4FC80176D5C801DA
:1001F00061E171E08CD4C8014BED5FE069E470E42B
:1002000022E030E057D58BE592E0B70155D56DA5DA
:100210007EA58BE592E050D58BE592E065E271E03A
:1002200076D46FA578A98DA59EA5681B790B8BE563
:1002300092E04AE050E012D48BE592E06DE371E089
:1002400066D469A97AA98BE592E04AE050E006D429
:10025000C80143D5C8016EE471E059D46DA57EA5EF
:100260008BE592E029D5C80138D5C8016CE571E06D
:100270004ED4C8016BE671E04AD46DA57EA58BE52E
:1002800092E01AD589A99AA9892B61F08DA59EA51E
:1002900063E771E012DF009729F48BE592E069E8EB
:1002A00071E00AD5C65ADF4F0FB6F894DEBF0FBE15
:1002B000CDBFCF91DF911F910F91FF90EF90DF9015
:1002C000CF90BF90AF9008951F920F920FB60F92EC
:1002D00011242F933F938F939F93AF93BF9380915C
:1002E000CE019091CF01A091D001B091D101309178
:1002F000D2010196A11DB11D232F2D5F2D3720F0B6
:100300002D570196A11DB11D2093D2018093CE01DE
:100310009093CF01A093D001B093D1018091CA01F5
:100320009091CB01A091CC01B091CD010196A11D7E
:10033000B11D8093CA019093CB01A093CC01B093DF
:10034000CD01BF91AF919F918F913F912F910F90D0
:100350000FBE0F901F9018959B01AC017FB7F894CA
:100360008091CA019091CB01A091CC01B091CD01B7
:1003700066B5A89B05C06F3F19F00196A11DB11D80
:100380007FBFBA2FA92F982F8827860F911DA11DF7
:10039000B11D62E0880F991FAA1FBB1F6A95D1F794
:1003A000BC012DC0FFB7F8948091CA019091CB0198
:1003B000A091CC01B091CD01E6B5A89B05C0EF3F5F
:1003C00019F00196A11DB11DFFBFBA2FA92F982FBB
:1003D00088278E0F911DA11DB11DE2E0880F991F86
:1003E000AA1FBB1FEA95D1F7861B970B885E934027
:1003F000C8F2215030404040504068517C4F211598
:1004000031054105510571F60895789484B58260EF
:1004100084BD84B5816084BD85B5826085BD85B5A8
:10042000816085BDEEE6F0E0808181608083E1E857
:10043000F0E010828081826080838081816080838F
:10044000E0E8F0E0808181608083E1EBF0E0808192
:1004500084608083E0EBF0E0808181608083EAE764
:10046000F0E08081846080838081826080838081ED
:10047000816080838081806880831092C1000895AC
:1004800008951F920F920FB60F9211242F933F934E
:100490004F938F939F93EF93FF938091C00082FDC2
:1004A0001DC04091C60020911302309114022F5FAD
:1004B0003F4F2F73307080911502909116022817CC
:1004C000390771F0E0911302F0911402ED52FE4FE2
:1004D0004083309314022093130202C08091C6001F
:1004E000FF91EF919F918F914F913F912F910F909D
:1004F0000FBE0F901F901895E0916702F09168026F
:10050000E05CFF4F8191919120813181821B930B9F
:100510008F739070892B09F0B3CF08951F920F92BB
:100520000FB60F9211242F933F938F939F93EF93C6
:10053000FF93209157023091580280915902909177
:100540005A022817390731F48091C1008F7D8093BA
:10055000C10014C0E0915902F0915A02E95EFD4FCA
:1005600020818091590290915A0201968F73907068
:1005700090935A02809359022093C600FF91EF9105
:100580009F918F913F912F910F900FBE0F901F90D1
:100590001895AF92BF92DF92EF92FF920F931F9345
:1005A000CF93DF93EC017A018B01DD24403081EEA3
:1005B000580780E0680780E0780711F0DD24D394C5
:1005C00091E0A92EB12CEC89FD89DD2069F0C501EF
:1005D00008A002C0880F991F0A94E2F7808360E0A8
:1005E00079E08DE390E005C0108260E874E88EE168
:1005F00090E0A8019701D5D52150304040405040AF
:10060000569547953795279580E12030380720F09B
:10061000DD2011F0DD24D7CFE889F9893083EA891C
:10062000FB89208319A2EE89FF89408121E030E017
:10063000C9010C8C02C0880F991F0A94E2F7482B5D
:100640004083EE89FF894081C9010D8C02C0880F6B
:10065000991F0A94E2F7482B4083EE89FF89408175
:10066000C9010E8C02C0880F991F0A94E2F7482B2B
:100670004083EE89FF8980810F8C02C0220F331FD7
:100680000A94E2F7209528232083DF91CF911F91D0
:100690000F91FF90EF90DF90BF90AF900895DC0135
:1006A0001C96ED91FC911D97E05CFF4F21913191DB
:1006B00080819181281B390B2F733070C9010895F7
:1006C000DC011C96ED91FC911D97E05CFF4F2081B1
:1006D0003181E054F040DF01AE5BBF4F8D919C91C2
:1006E00011972817390719F42FEF3FEF07C08D91A5
:1006F0009C91E80FF91F8081282F30E0C9010895EF
:10070000DC011C96ED91FC911D97E05CFF4F208170
:100710003181E054F040DF01AE5BBF4F8D919C9181
:1007200011972817390719F42FEF3FEF10C08D915B
:100730009C911197E80FF91F20818D919C91119741
:1007400001968F73907011969C938E9330E0C9013F
:100750000895DC0191968C919197882339F05496F5
:10076000ED91FC915597808186FFF9CF91961C926F
:100770000895CF93DF93EC01EE85FF85E05CFF4F9A
:1007800020813181E054F0402F5F3F4F2F73307054
:10079000DF01AE5BBF4F8D919C91119728173907F0
:1007A000D1F3E05CFF4F80819181E054F040E80F8D
:1007B000F91F6083EE85FF85E05CFF4F3183208366
:1007C000EE89FF89208181E090E00F8C02C0880FC4
:1007D000991F0A94E2F7282B208381E089A3EC89F2
:1007E000FD8980818064808381E090E0DF91CF91FA
:1007F000089510925E0210925D0288EE93E0A0E0F0
:10080000B0E080935F0290936002A0936102B09386
:10081000620285EB91E090935C0280935B0283ED32
:1008200091E0909368028093670287E192E0909351
:100830006A028093690285EC90E090936C02809349
:100840006B0284EC90E090936E0280936D0280ECDA
:1008500090E09093700280936F0281EC90E090930F
:1008600072028093710282EC90E090937402809304
:10087000730286EC90E0909376028093750284E098
:100880008093770283E08093780287E080937902F7
:1008900085E080937A0281E080937B020895CF9374
:1008A000DF93B3DD14DCCCE7D2E010DC2097E9F372
:1008B00023DEFBCFCF92DF92EF92FF920F931F9335
:1008C000CF93DF937C016B018A01C0E0D0E00FC0C1
:1008D000D6016D916D01D701ED91FC910190F081F0
:1008E000E02DC7010995C80FD91F0150104001150F
:1008F000110571F7CE01DF91CF911F910F91FF90FC
:10090000EF90DF90CF900895EF92FF920F931F9397
:100910008C01DC01ED91FC910190F081E02D6DE006
:1009200009957C01D801ED91FC910190F081E02DB9
:10093000C8016AE009959C012E0D3F1DC9011F9158
:100940000F91FF90EF900895CF93DF93EC01611525
:10095000710519F420E030E00FC0DB010D9000209C
:10096000E9F71197A61BB70BE881F9810280F381A3
:10097000E02DAD0109959C01C901DF91CF9108954A
:100980004F925F927F928F929F92AF92BF92CF923F
:10099000DF92EF92FF920F931F93DF93CF93CDB728
:1009A000DEB7A1970FB6F894DEBF0FBECDBF2C0106
:1009B000742ECB01223008F42AE019A231E2C32EB2
:1009C000D12CCC0EDD1E822E9924AA24BB24672DA7
:1009D000752FA5019401E5D379018A01C801B701FA
:1009E000A5019401BFD3472D461B0894C108D10827
:1009F0004A3014F4405D01C0495CF6014083E114C3
:100A0000F1040105110521F07E2C5F2DC801DFCF17
:100A1000C201B60199DFA1960FB6F894DEBF0FBEF2
:100A2000CDBFCF91DF911F910F91FF90EF90DF909D
:100A3000CF90BF90AF909F908F907F905F904F909E
:100A40000895DC012115310541F4ED91FC910190EF
:100A5000F081E02D642F0995089592CFCF92DF9217
:100A6000EF92FF920F931F936C017B019A0100E0BC
:100A700010E0B801A701E5DF8C01C60145DF080FD2
:100A8000191FC8011F910F91FF90EF90DF90CF9039
:100A90000895CF92DF92EF92FF920F931F93CF931F
:100AA000DF93EC016A017B012115310541F4E881F6
:100AB000F9810190F081E02D642F09951DC02A3045
:100AC0003105C9F477FF16C0E881F9810190F08102
:100AD000E02D6DE209958C0144275527BA014C1988
:100AE0005D096E097F09CE012AE04ADF9801280FCF
:100AF000391F03C02AE044DF9C01C901DF91CF9177
:100B00001F910F91FF90EF90DF90CF9008951CCF31
:100B100008957F928F929F92AF92BF92CF92DF9271
:100B2000EF92FF920F931F93CF93DF934C017A01C3
:100B30008B01722ECB01BA01A80197010FD3882334
:100B400021F0C40163EA71E01FC0C0E0D0E05701AA
:100B50006801E894D7F8C601B5012FEF3FEF4FE7E2
:100B60005FE7FCD2882349F4C601B5012FEF3FEFC0
:100B70004FE75FE73DD1181614F0C1E0D0E02197B0
:100B800031F0C40167EA71E0DFDEEC0184C0C80126
:100B9000B7012FEF3FEF4FE75FE479D218164CF023
:100BA000C801B7012FEF3FEF4FE75FEC21D188235A
:100BB00024F4C4016BEA71E0E7CFC801B70120E07B
:100BC00030E040E050E014D187FD03C0C0E0D0E049
:100BD0000EC0D401ED91FC910190F081E02DC40193
:100BE0006DE20995EC0117FB109517F9109520E0BF
:100BF00030E040E05FE3DD240AC0CA01B90120E033
:100C000030E040E251E4F8D09B01AC01D394D7141A
:100C1000A0F3C801B70188D05B016C015AD17B01F8
:100C20008C01C401B801A7012AE030E00ADFC80F37
:100C3000D91F772031F0C4016FEA71E085DEC80F5B
:100C4000D91FC801B70171D19B01AC01C601B50123
:100C50006AD01FC020E030E040E251E41CD27B01AA
:100C60008C0132D15B016C01CC24B7FCC094DC2C2C
:100C7000C401B601A5012AE030E00BDFC80FD91F7F
:100C8000C601B50154D19B01AC01C801B7014BD0DD
:100C90007A947720F9F6CE01DF91CF911F910F91D1
:100CA000FF90EF90DF90CF90BF90AF909F908F908C
:100CB0007F9008952ECF0895EF92FF920F931F9388
:100CC0007C0142DE8C01C7011FDE080F191FC8011D
:100CD0001F910F91FF90EF900895FC01A481B581C1
:100CE000B783A68380859185892B09F01C9208958E
:100CF000FC01A681B781AD014F5F5F4F8481958173
:100D000020853185820F931F4817590718F020E07E
:100D100030E007C06C935783468311961C9221E004
:100D200030E0C90108955058BB27AA270ED075C1DD
:100D300066D130F06BD120F031F49F3F11F41EF4F6
:100D40005BC10EF4E095E7FB51C1E92F77D180F349
:100D5000BA17620773078407950718F071F49EF5B8
:100D60008FC10EF4E0950B2EBA2FA02D0B01B90107
:100D700090010C01CA01A0011124FF27591B99F011
:100D8000593F50F4503E68F11A16F040A22F232F1D
:100D9000342F4427585FF3CF469537952795A7956D
:100DA000F0405395C9F77EF41F16BA0B620B730B14
:100DB000840BBAF09150A1F0FF0FBB1F661F771F85
:100DC000881FC2F70EC0BA0F621F731F841F48F43A
:100DD000879577956795B795F7959E3F08F0B3CFC0
:100DE0009395880F08F09927EE0F979587950895AA
:100DF000D9D008F481E008950CD00FC107D140F09C
:100E0000FED030F021F45F3F19F0F0C0511139C12C
:100E1000F3C014D198F39923C9F35523B1F3951B6B
:100E2000550BBB27AA2762177307840738F09F5F0B
:100E30005F4F220F331F441FAA1FA9F333D00E2E7A
:100E40003AF0E0E830D091505040E695001CCAF7E7
:100E500029D0FE2F27D0660F771F881FBB1F2617AC
:100E600037074807AB07B0E809F0BB0B802DBF017F
:100E7000FF2793585F4F2AF09E3F510568F0B6C098
:100E800000C15F3FECF3983EDCF38695779567955C
:100E9000B795F7959F5FC9F7880F911D9695879530
:100EA00097F90895E1E0660F771F881FBB1F62174F
:100EB00073078407BA0720F0621B730B840BBA0B0D
:100EC000EE1F88F7E095089504D06894B111D9C059
:100ED0000895BCD088F09F5790F0B92F9927B7514B
:100EE000A0F0D1F0660F771F881F991F1AF0BA95EE
:100EF000C9F712C0B13081F0C3D0B1E00895C0C0CD
:100F0000672F782F8827B85F39F0B93FCCF38695E3
:100F100077956795B395D9F73EF490958095709540
:100F200061957F4F8F4F9F4F0895E89409C097FBBD
:100F30003EF490958095709561957F4F8F4F9F4FB0
:100F40009923A9F0F92F96E9BB279395F6958795F4
:100F500077956795B795F111F8CFFAF4BB0F11F4B7
:100F600060FF1BC06F5F7F4F8F4F9F4F16C088235E
:100F700011F096E911C0772321F09EE8872F762F94
:100F800005C0662371F096E8862F70E060E02AF0D5
:100F90009A95660F771F881FDAF7880F96958795C1
:100FA00097F90895990F0008550FAA0BE0E8FEEF96
:100FB00016161706E807F907C0F012161306E4071D
:100FC000F50798F0621B730B840B950B39F40A2616
:100FD00061F0232B242B252B21F408950A2609F4F4
:100FE000A140A6958FEF811D811D089597F99F67F8
:100FF00080E870E060E008959FEF80EC08950024A1
:101000000A941616170618060906089500240A946D
:1010100012161306140605060895092E0394000CF3
:1010200011F4882352F0BB0F40F4BF2B11F460FF82
:1010300004C06F5F7F4F8F4F9F4F089557FD9058AB
:10104000440F551F59F05F3F71F04795880F97FB8C
:10105000991F61F09F3F79F0879508951216130646
:101060001406551FF2CF4695F1DF08C01616170675
:101070001806991FF1CF86957105610508940895AA
:10108000E894BB2766277727CB0197F908958ADF75
:1010900008F48FEF08950BD0C0CFB1DF28F0B6DF92
:1010A00018F0952309F0A2CFA7CF1124EACFC6DF0D
:1010B000A0F3959FD1F3950F50E0551F629FF0016B
:1010C000729FBB27F00DB11D639FAA27F00DB11DC4
:1010D000AA1F649F6627B00DA11D661F829F22274D
:1010E000B00DA11D621F739FB00DA11D621F839FD4
:1010F000A00D611D221F749F3327A00D611D231FAA
:10110000849F600D211D822F762F6A2F11249F57F7
:1011100050408AF0E1F088234AF0EE0FFF1FBB1F1A
:10112000661F771F881F91505040A9F79E3F5105B9
:1011300070F05CCFA6CF5F3FECF3983EDCF3869572
:1011400077956795B795F795E7959F5FC1F7FE2B64
:10115000880F911D9695879597F9089523DF880B41
:10116000990B0895629FD001739FF001829FE00D5B
:10117000F11D649FE00DF11D929FF00D839FF00D16
:10118000749FF00D659FF00D9927729FB00DE11DC2
:10119000F91F639FB00DE11DF91FBD01CF0111249F
:1011A0000895A1E21A2EAA1BBB1BFD010DC0AA1FA8
:1011B000BB1FEE1FFF1FA217B307E407F50720F0C0
:1011C000A21BB30BE40BF50B661F771F881F991F3B
:1011D0001A9469F760957095809590959B01AC0184
:1011E000BD01CF010895EE0FFF1F0590F491E02D92
:0611F0000994F894FFCF02
:1011F6005072696E74696E6720737472696E677374
:10120600005468652076616C7565206F66205049CC
:10121600206973200054686520737472696E6727AD
:1012260073206C656E677468206973200049747357
:101236002063617061636974792069732000486571
:101246006C6C6F2C20776F726C642100476F6F6433
:101256006279652C20637275656C0020776F726CFD
:10126600642100476F6F646279652C20637275652F
:101276006C20776F726C6421005965732C20616C49
:1012860061732C20676F6F6462796520696E64658F
:101296006564006E616E00696E66006F7666002E8C
:1012A6000000000000B9035A044F0380036003A93D
:0A12B600030000000078065A04004F
:00000001FF
