:10000000C0C00000E5C00000E3C00000EBC000007D
:10001000DFC00000DDC00000DBC00000D9C0000070
:10002000D7C00000D5C00000D3C000000C946D09FB
:100030000C9496090C944409CBC00000C9C0000080
:10004000B5C20000C5C000007FC40000CAC40000E3
:10005000BFC00000BDC00000BBC00000B9C00000B0
:100060000C94680AB5C000005F5F50415241444F94
:100070005F5F005F5F52455F5F005F5F4652454EC6
:1000800054455F5F0020616273546F7271756552F1
:10009000696768743A2000616273546F72717565A4
:1000A0004C6566743A2000207468726F74746C65D5
:1000B00056616C75653A20007374656572696E6788
:1000C00056616C75653A20003D3D3D3D3D3D3D3DF1
:1000D0003D3D3D3D3D3D3D2046494D20205345544D
:1000E0005550203D3D3D3D3D3D3D3D3D3D3D3D3D32
:1000F0003D3D3D3D003D3D3D3D3D3D3D3D3D3D3D6D
:100100003D3D3D3D3D3D3D3D202053455455502016
:100110003D3D3D3D3D3D3D3D3D3D3D3D3D3D3D3D0F
:100120003D0000000000240027002A00000000001D
:10013000250028002B0000000000230026002900D5
:10014000040404040404040402020202020203037D
:100150000303030301020408102040800102040885
:100160001020010204081020000000070002010016
:10017000000304060000000000000000E9005C0627
:100180009D0811241FBECFEFD8E0DEBFCDBF11E028
:10019000A0E0B1E0E2EFF8E102C005900D92A432D8
:1001A000B107D9F712E0A4E2B1E001C01D92A63B6D
:1001B000B107E1F711E0C2E8D1E004C02297FE01E7
:1001C0000E94730CCC37D107C9F7CCD50C94770CAF
:1001D00017CF84E391E068E271E04CE251E022E065
:1001E0000C94BF091F920F920FB60F9211240F9318
:1001F0001F932F933F934F935F936F937F938F93AF
:100200009F93AF93BF93EF93FF9313B180913C0102
:10021000812710933C018823C1F0082F80FF09C07B
:10022000412F50E04170507084E391E060E00E9403
:10023000D00901FF0AC0412F50E056954795417003
:1002400084E391E061E00E94D009FF91EF91BF91BA
:10025000AF919F918F917F916F915F914F913F915E
:100260002F911F910F910F900FBE0F901F90189517
:100270008EEC91E068E670E0EDD586E060E070E03D
:1002800071D283E060E070E06DC28EEC91E063E7D4
:1002900070E0E0D587E061E002D385E060E0FFD266
:1002A00082E061E0FCD284E060E0F9C28EEC91E093
:1002B0006AE770E0CFD587E060E0F1D285E061E0E9
:1002C000EED282E060E0EBD284E061E0E8C20F931E
:1002D0001F93CF93DF9397FF03C0909581959F4F16
:1002E000C0910001D0910101C80FD91F9B0177FF78
:1002F00003C0309521953F4F0091020110910301F9
:10030000020F131F8EEC91E067E970E060D58EEC70
:1003100091E0BE014AE050E06AD68EEC91E065E8DB
:1003200070E055D58EEC91E0B8014AE050E071D60E
:1003300086E0BE0117D283E0B80114D2DF91CF91DD
:100340001F910F9108956F927F928F929F92AF921B
:10035000BF92CF92DF92EF92FF920F931F9384E3AD
:1003600091E00E94080A00D000D0609128017091AD
:10037000290180E090E0B6EE6B2E712C812C912C3F
:10038000EDB7FEB7618272828382948228EE33E0F9
:1003900040E050E0A0EDEA2EA7E0FA2E012D112D4D
:1003A000FAE1AF2EFFEFBF2EFFEFCF2EFFEFDF2ED4
:1003B0004DD6709327016093260160912A017091B8
:1003C0002B0180E090E0EDB7FEB7618272828382FC
:1003D000948228EE33E040E050E038D67093250157
:1003E000609324010F900F900F900F908EEC91E08E
:1003F00068EB70E0ECD460912601709127018EECDF
:1004000091E04AE050E0F3D58EEC91E067EA70E0CD
:10041000DED460912401709125018EEC91E04AE0D8
:1004200050E0F7D52091240130912501C9010996AA
:10043000439710F41DDF6BC01216130614F436DF59
:1004400001C023DF2091260130912701C9010996BF
:10045000439730F46091240170912501CB0156C07F
:10046000A901662757FD6095762F121613064CF5E5
:1004700000D000D082E390E0A0E0B0E0EDB7FEB79E
:1004800081839283A383B483CB01BA0120E030E05F
:1004900040E050E0E6EEEE2EF12C012D112DAA24C5
:1004A000BB246501D3D520912401309125010F9003
:1004B0000F900F900F90A901461B570BBA01C9016D
:1004C00025C000D000D082E390E0A0E0B0E0EDB71E
:1004D000FEB781839283A383B483CB01BA012AE15F
:1004E0003FEF4FEF5FEFEE24FF248701AA24BB24E8
:1004F0006501ACD520912401309125010F900F901A
:100500000F900F90C901861B970BB901E0DE1F9178
:100510000F91FF90EF90DF90CF90BF90AF909F90A2
:100520008F907F906F9008950EDF64E670E080E01A
:1005300090E084C00F931F9385E392E074D680E02F
:100540007BD60EEC11E0C80140E052EC61E070E0B7
:1005500083D2C80165EF70E07DD487E061E060D1AF
:1005600085E061E05DD182E061E05AD184E061E044
:1005700057D186E061E054D183E061E051D189E058
:1005800060E04ED188E060E04BD183E080936B0067
:1005900081E08093680084E391E061E057D7C8016F
:1005A00068EC70E057D41F910F9108951F920F923D
:1005B0000FB60F9211242F933F938F939F93AF9376
:1005C000BF938091410190914201A0914301B0916C
:1005D0004401309145010196A11DB11D232F2D5FCE
:1005E0002D3720F02D570196A11DB11D20934501F7
:1005F0008093410190934201A0934301B093440141
:1006000080913D0190913E01A0913F01B091400148
:100610000196A11DB11D80933D0190933E01A093D1
:100620003F01B0934001BF91AF919F918F913F9156
:100630002F910F900FBE0F901F9018959B01AC014A
:100640007FB7F89480913D0190913E01A0913F01C8
:10065000B091400166B5A89B05C06F3F19F00196A7
:10066000A11DB11D7FBFBA2FA92F982F8827860FF4
:10067000911DA11DB11D62E0880F991FAA1FBB1F0C
:100680006A95D1F7BC012DC0FFB7F89480913D0168
:1006900090913E01A0913F01B0914001E6B5A89B29
:1006A00005C0EF3F19F00196A11DB11DFFBFBA2F84
:1006B000A92F982F88278E0F911DA11DB11DE2E053
:1006C000880F991FAA1FBB1FEA95D1F7861B970BAE
:1006D000885E9340C8F221503040404050406851FD
:1006E0007C4F211531054105510571F60895789427
:1006F00084B5826084BD84B5816084BD85B5826027
:1007000085BD85B5816085BDEEE6F0E080818160C4
:100710008083E1E8F0E010828081826080838081C4
:1007200081608083E0E8F0E0808181608083E1EB9C
:10073000F0E0808184608083E0EBF0E08081816084
:100740008083EAE7F0E0808184608083808182603A
:100750008083808181608083808180688083109223
:10076000C10008951F93CF93DF93182FEB0161E031
:1007700057D0209709F44AC0CF3FD10509F449C0AA
:10078000E12FF0E0E859FE4F84918330C1F08430CE
:1007900028F4813051F08230B1F50CC0863019F167
:1007A000873049F1843079F514C084B5806884BD00
:1007B000C7BD32C084B5806284BDC8BD2DC08091E4
:1007C0008000806880938000D0938900C093880067
:1007D00023C080918000806280938000D0938B0042
:1007E000C0938A0019C08091B00080688093B000E7
:1007F000C093B30011C08091B00080628093B000BC
:10080000C093B40009C0C038D1051CF4812F60E04A
:1008100002C0812F61E043D0DF91CF911F910895F5
:10082000CF93DF93482F50E0CA018C5A9E4FFC01B2
:100830003491405C5E4FFA018491882369F190E025
:10084000880F991FFC01EE5DFE4FA591B491FC014C
:10085000E45DFE4FC591D491662351F42FB7F8940F
:100860008C91932F909589238C93888189230BC039
:10087000623061F42FB7F8948C91932F909589236F
:100880008C938881832B88832FBF06C09FB7F894F1
:100890008C91832B8C939FBFDF91CF910895482F2C
:1008A00050E0CA0188599E4FFC012491CA018C5A1C
:1008B0009E4FFC019491405C5E4FFA0134913323CA
:1008C00009F440C0222351F1233071F0243028F480
:1008D0002130A1F0223011F514C02630B1F02730BC
:1008E000C1F02430D9F404C0809180008F7703C018
:1008F000809180008F7D8093800010C084B58F77B9
:1009000002C084B58F7D84BD09C08091B0008F770F
:1009100003C08091B0008F7D8093B000E32FF0E0A2
:10092000EE0FFF1FE45DFE4FA591B4912FB7F89431
:10093000662321F48C919095892302C08C91892B98
:100940008C932FBF089508951F920F920FB60F92A8
:1009500011242F933F934F938F939F93EF93FF9384
:100960008091C00082FD1DC04091C600209186018B
:10097000309187012F5F3F4F2F7330708091880136
:10098000909189012817390771F0E0918601F09163
:100990008701EA5BFE4F40833093870120938601F5
:1009A00002C08091C600FF91EF919F918F914F916E
:1009B0003F912F910F900FBE0F901F901895E091CF
:1009C000DA01F091DB01E05CFF4F81919191208190
:1009D0003181821B930B8F739070892B09F0B3CFF9
:1009E00008951F920F920FB60F9211242F933F93E9
:1009F0008F939F93EF93FF932091CA013091CB0186
:100A00008091CC019091CD012817390731F4809164
:100A1000C1008F7D8093C10014C0E091CC01F091A2
:100A2000CD01E657FE4F20818091CC019091CD0100
:100A300001968F7390709093CD018093CC01209399
:100A4000C600FF91EF919F918F913F912F910F9051
:100A50000FBE0F901F901895AF92BF92DF92EF924A
:100A6000FF920F931F93CF93DF93EC017A018B01D9
:100A7000DD24403081EE580780E0680780E0780789
:100A800011F0DD24D39491E0A92EB12CEC89FD89DD
:100A9000DD2069F0C50108A002C0880F991F0A94E3
:100AA000E2F7808360E079E08DE390E005C010829A
:100AB00060E874E88EE190E0A8019701D5D6215056
:100AC000304040405040569547953795279580E1F6
:100AD0002030380720F0DD2011F0DD24D7CFE88961
:100AE000F9893083EA89FB89208319A2EE89FF897D
:100AF000408121E030E0C9010C8C02C0880F991FB1
:100B00000A94E2F7482B4083EE89FF894081C901AE
:100B10000D8C02C0880F991F0A94E2F7482B40837E
:100B2000EE89FF894081C9010E8C02C0880F991F90
:100B30000A94E2F7482B4083EE89FF8980810F8C6D
:100B400002C0220F331F0A94E2F720952823208346
:100B5000DF91CF911F910F91FF90EF90DF90BF90A9
:100B6000AF900895DC011C96ED91FC911D97E05C1F
:100B7000FF4F2191319180819181281B390B2F7377
:100B80003070C9010895DC011C96ED91FC911D9710
:100B9000E05CFF4F20813181E054F040DF01AE5B2B
:100BA000BF4F8D919C9111972817390719F42FEF9A
:100BB0003FEF07C08D919C91E80FF91F8081282F8E
:100BC00030E0C9010895DC011C96ED91FC911D9760
:100BD000E05CFF4F20813181E054F040DF01AE5BEB
:100BE000BF4F8D919C9111972817390719F42FEF5A
:100BF0003FEF10C08D919C911197E80FF91F208154
:100C00008D919C91119701968F73907011969C9382
:100C10008E9330E0C9010895DC0191968C919197F3
:100C2000882339F05496ED91FC915597808186FF89
:100C3000F9CF91961C920895CF93DF93EC01EE8546
:100C4000FF85E05CFF4F20813181E054F0402F5F51
:100C50003F4F2F733070DF01AE5BBF4F8D919C9182
:100C6000119728173907D1F3E05CFF4F80819181FC
:100C7000E054F040E80FF91F6083EE85FF85E05CEB
:100C8000FF4F31832083EE89FF89208181E090E04E
:100C90000F8C02C0880F991F0A94E2F7282B20833B
:100CA00081E089A3EC89FD8980818064808381E073
:100CB00090E0DF91CF9108951092D1011092D00170
:100CC00088EE93E0A0E0B0E08093D2019093D3014E
:100CD000A093D401B093D50188E091E09093CF0127
:100CE0008093CE0186E491E09093DB018093DA015A
:100CF0008AE891E09093DD018093DC0185EC90E03F
:100D00009093DF018093DE0184EC90E09093E10109
:100D10008093E00180EC90E09093E3018093E20106
:100D200081EC90E09093E5018093E40182EC90E007
:100D30009093E7018093E60186EC90E09093E901BF
:100D40008093E80184E08093EA0183E08093EB01E3
:100D500087E08093EC0185E08093ED0181E0809352
:100D6000EE010895CF93DF93C2DCE4DBCFEDD4E056
:100D7000DBDB2097E9F323DEFBCFCF92DF92EF920C
:100D8000FF920F931F93CF93DF937C016B018A0136
:100D9000C0E0D0E00FC0D6016D916D01D701ED919B
:100DA000FC910190F081E02DC7010995C80FD91F72
:100DB000015010400115110571F7CE01DF91CF915F
:100DC0001F910F91FF90EF90DF90CF900895EF92D9
:100DD000FF920F931F93CF93DF937C018B01C0E0B1
:100DE000D0E0F8010F5F1F4F6491662359F0D701DF
:100DF000ED91FC910190F081E02DC7010995C80F9C
:100E0000D91FEFCFCE01DF91CF911F910F91FF90AE
:100E1000EF900895EF92FF920F931F938C01DC01E6
:100E2000ED91FC910190F081E02D6DE009957C0140
:100E3000D801ED91FC910190F081E02DC8016AE0AC
:100E400009959C012E0D3F1DC9011F910F91FF9027
:100E5000EF900895EF92FF920F931F937C01B7DFFD
:100E60008C01C701D7DF9C01200F311FC9011F91E1
:100E70000F91FF90EF900895CF93DF93EC016115F0
:100E8000710519F420E030E00FC0DB010D90002067
:100E9000E9F71197A61BB70BE881F9810280F3816E
:100EA000E02DAD0109959C01C901DF91CF91089515
:100EB0004F925F927F928F929F92AF92BF92CF920A
:100EC000DF92EF92FF920F931F93DF93CF93CDB7F3
:100ED000DEB7A1970FB6F894DEBF0FBECDBF2C01D1
:100EE000742ECB01223008F42AE019A231E2C32E7D
:100EF000D12CCC0EDD1E822E9924AA24BB24672D72
:100F0000752FA5019401B0D479018A01C801B701F8
:100F1000A50194018AD4472D461B0894C108D10825
:100F20004A3014F4405D01C0495CF6014083E1148D
:100F3000F1040105110521F07E2C5F2DC801DFCFE2
:100F4000C201B60199DFA1960FB6F894DEBF0FBEBD
:100F5000CDBFCF91DF911F910F91FF90EF90DF9068
:100F6000CF90BF90AF909F908F907F905F904F9069
:100F70000895CF92DF92EF92FF920F931F93CF933A
:100F8000DF93EC016A017B012115310541F4E88111
:100F9000F9810190F081E02D642F09951DC02A3060
:100FA0003105C9F477FF16C0E881F9810190F0811D
:100FB000E02D6DE209958C0144275527BA014C19A3
:100FC0005D096E097F09CE012AE072DF9801280FC2
:100FD000391F03C02AE06CDF9C01C901DF91CF916A
:100FE0001F910F91FF90EF90DF90CF900895EF92B7
:100FF000FF920F931F937B019A010027F7FC009546
:10100000102FB801A701B5DF1F910F91FF90EF904E
:101010000895CF92DF92EF92FF920F931F936C018E
:101020007B019A010027F7FC0095102FB801A7015A
:10103000A0DF8C01C601EEDE080F191FC8011F9149
:101040000F91FF90EF90DF90CF9008952F923F92F5
:101050004F925F926F927F928F929F92AF92BF92C8
:10106000CF92DF92EF92FF920F931F93DF93CF9374
:10107000CDB7DEB73B014C0119012A016D897E898C
:101080008F89988D6A197B098C099D09621A730AE8
:10109000840A950AA4019301C8D3E218F30804094D
:1010A0001509A801970102D42A0D3B1D4C1D5D1D99
:1010B000B901CA01CF91DF911F910F91FF90EF907D
:1010C000DF90CF90BF90AF909F908F907F906F9068
:1010D0005F904F903F902F9008952091110230E043
:1010E00080911002281B3109C90108954091100216
:1010F00080911102481718F02FEF3FEF0AC0E42F3C
:10110000F0E0E051FE4F8081282F30E04F5F4093A8
:101110001002C9010895E091100280911102E817B0
:1011200018F0EFEFFFEF06C0F0E0E051FE4F8081D6
:10113000E82FF0E0CF010895089510923802109240
:10114000370288EE93E0A0E0B0E0809339029093FC
:101150003A02A0933B02B0933C0288E191E0909365
:101160003602809335020895CF92DF92EF92FF927C
:101170000F931F93CF93DF937C016B018A018091C2
:1011800034028823A1F0C0E0D0E00DC0D701ED917A
:10119000FC91D601AC0FBD1F0190F081E02DC7017D
:1011A0006C9109952196C017D10780F303C0CB013C
:1011B000642F73D1C801DF91CF911F910F91FF90E0
:1011C000EF90DF90CF900895DF93CF930F92CDB73C
:1011D000DEB7FC016983809134028823C9F08091D5
:1011E0003302803238F081E090E09383828320E004
:1011F00030E014C080913202E82FF0E0EE5EFD4F47
:10120000998190838F5F809332028093330204C070
:10121000CE01019661E041D121E030E0C9010F909B
:10122000CF91DF9108951092100210921102109246
:10123000320210923302DDC280934102109280008C
:10124000109281001092820010926F00109289001B
:101250001092880010928B0010928A0010928500E4
:101260001092840008958091810090E0887F209101
:10127000410230E0822B932B892B11F482E001C0D4
:1012800085E08093810008951F920F920FB60F9210
:1012900011242F933F934F935F936F937F938F937B
:1012A0009F93AF93BF93EF93FF93E0914602F0912A
:1012B0004702309709F00995FF91EF91BF91AF91E7
:1012C0009F918F917F916F915F914F913F912F915E
:1012D0000F900FBE0F901F9018951F920F920FB690
:1012E0000F9211242F933F934F935F936F937F93AC
:1012F0008F939F93AF93BF93EF93FF93E09144023B
:10130000F0914502309709F00995FF91EF91BF9157
:10131000AF919F918F917F916F915F914F913F918D
:101320002F910F900FBE0F901F9018951F920F9244
:101330000FB60F9211242F933F934F935F936F93A8
:101340007F938F939F93AF93BF93EF93FF93E0911E
:101350004202F0914302309709F00995FF91EF9115
:10136000BF91AF919F918F917F916F915F914F91BD
:101370003F912F910F900FBE0F901F901895FC0179
:10138000208381E0818373836283CA015583448310
:1013900030E0220F331F820F931F978386830895B7
:1013A000DC018FB7F89420918400309185008FBFC5
:1013B00011968C9111971496ED91FC911597481701
:1013C00071F42115310511F421E030E0862F90E011
:1013D000880F991FE80FF91F31832083089516960F
:1013E0000D90BC91A02D70E0660F771FE60FF71FE0
:1013F00080819181009719F480E090E004C0A901F8
:10140000481B590BCA01A60FB71F8D939C930895D3
:10141000CF93DF93EC0120E013C0822F90E0880F80
:10142000991FAA81BB81A80FB91FEE81FF81E80F28
:10143000F91F80819181969587958D939C932F5F5D
:101440008881281750F3DF91CF910895DC01119620
:101450006C93119720E01DC0822F90E0880F991F98
:101460001496ED91FC911597E80FF91F11821082E7
:101470001696ED91FC911797E80FF91F11821082D3
:101480001296ED91FC911397E80FF91F11821082CB
:101490002F5F8C91281700F3E6CE482F613210F0B1
:1014A00081E0089580914802843011F082E008952F
:1014B00060939302A2E7B2E0842F9C01F90102C07D
:1014C00081918D938E2F841B8617D0F380E0089531
:1014D0001F920F920FB60F9211242F933F934F93A9
:1014E0005F936F937F938F939F93AF93BF93EF938C
:1014F000FF938091B90090E0887F907080369105CD
:1015000009F4F2C081369105CCF58832910509F4D1
:101510007BC089329105B4F48031910509F46FC024
:10152000813191053CF4009709F447C1089709F00F
:101530004FC165C08831910509F466C0809709F0F4
:1015400047C182C08034910509F4A4C0813491055B
:1015500044F48033910509F482C0C89709F038C17A
:1015600089C08035910509F489C08835910509F451
:1015700096C08834910509F02BC1AEC08839910519
:1015800009F413C189399105ECF48837910509F400
:10159000ABC0893791054CF48836910509F4A4C095
:1015A0008037910509F014C19FC08838910509F46E
:1015B000FCC08039910509F49DC08038910509F07F
:1015C00007C198C0803B910509F4C6C0813B9105D5
:1015D0004CF4803A910509F49FC0883A910509F0CE
:1015E000F7C0BAC0803C910509F4E3C0883C91057E
:1015F00009F4DFC0883B910509F0EAC0C2C08091C0
:1016000049028093BB00CFC090917002809171021B
:10161000981768F490917002E92FF0E0E05BFD4FBD
:1016200080818093BB009F5F90937002BCC08091CB
:101630004A02882309F44BC085ED8093BC00809159
:10164000BC0084FDFCCFC2C080E28093B50285ED72
:101650008093BC008091BC0084FDFCCFB7C080E3C8
:101660008093B50285ED8093BC008091BC0084FD21
:10167000FCCFACC088E38093B5029BC08091700220
:101680009091BB00E82FF0E0E05BFD4F90838F5F0F
:1016900080937002909170028091710282C080915B
:1016A00070029091BB00E82FF0E0E05BFD4F90836B
:1016B0008F5F8093700280914A02882341F085ED0C
:1016C0008093BC008091BC0084FDFCCF7FC081E092
:1016D00080934B0284EA6EC085ED8093BC008091BC
:1016E000BC0084FDFCCF72C083E08093480210925E
:1016F000B40259C08091B402803208F056C0809183
:10170000B4029091BB00E82FF0E0EC56FD4F9083BF
:101710008F5F8093B40247C08091B402803230F46E
:10172000E091B402F0E0EC56FD4F108285ED80931D
:10173000BC008091BC0084FDFCCF109248026091F7
:10174000B402E0914E02F0914F0284E992E070E021
:1017500009951092B4022DC084E080934802109243
:10176000920210929302E0914C02F0914D02099581
:1017700080919302882329F481E080939302109250
:10178000720290919202E92FF0E0EE58FD4F8081B5
:101790008093BB009F5F9093920290919202809100
:1017A0009302981710F485EC01C085E88093BC0083
:1017B0000FC085EC8093BC0009C01092B50285ED86
:1017C0008093BC008091BC0084FDFCCF1092480245
:1017D000FF91EF91BF91AF919F918F917F916F9109
:1017E0005F914F913F912F910F900FBE0F901F90DF
:1017F00018951092480281E080934A0210924B02A1
:1018000082E161E04CD883E161E049D8E9EBF0E0A6
:1018100080818E7F808380818D7F808388E4809328
:10182000B80085E48093BC000895629FD001739F47
:10183000F001829FE00DF11D649FE00DF11D929F6C
:10184000F00D839FF00D749FF00D659FF00D9927AB
:10185000729FB00DE11DF91F639FB00DE11DF91FCF
:10186000BD01CF0111240895A1E21A2EAA1BBB1BB2
:10187000FD010DC0AA1FBB1FEE1FFF1FA217B3075C
:10188000E407F50720F0A21BB30BE40BF50B661F72
:10189000771F881F991F1A9469F760957095809536
:1018A00090959B01AC01BD01CF01089597FB092ED6
:1018B00005260ED057FD04D0D7DF0AD0001C38F41F
:1018C00050954095309521953F4F4F4F5F4F08956C
:1018D000F6F790958095709561957F4F8F4F9F4F4C
:1018E0000895EE0FFF1F0590F491E02D0994F894F0
:0218F000FFCF28
:1018F2000F00F1FF000000001C06BD06B205E30563
:10190200C3050C0600000000E408B4086D08760860
:041912008B089C089A
:00000001FF
