:10000000E1C0000006C1000004C1000002C1000000
:1000100000C10000FEC00000FCC00000FAC00000EB
:10002000F8C00000F6C00000F4C00000F2C00000FC
:10003000F0C00000EEC00000ECC00000EAC000000C
:1000400077C40000E6C000004FC600009AC600005A
:10005000E0C00000DEC00000DCC00000DAC000002C
:100060000C94390FD6C00000084AD73B3BCE016E36
:1000700084BCBFFDC12F3D6C74319ABD56833DDAFF
:100080003D00C77F11BED9E4BB4C3E916BAAAABE0E
:10009000000000803F203A2050415241444F21004F
:1000A000203A205245203A2000203A204652454E20
:1000B0005445203A20003D3D3D3D3D3D3D3D3D3DCB
:1000C0003D3D3D3D3D2046494D2020534554555032
:1000D000203D3D3D3D3D3D3D3D3D3D3D3D3D3D3D6D
:1000E0003D3D004D50553630353020636F6E6E65A6
:1000F0006374696F6E206661696C6564004D50556C
:100100003630353020636F6E6E656374696F6E20B4
:100110007375636365737366756C00496E697469A2
:10012000616C697A696E672049324320646576693B
:100130006365732E2E2E003D3D3D3D3D3D3D3D3DD5
:100140003D3D3D3D3D3D3D3D3D3D202053455455CC
:1001500050203D3D3D3D3D3D3D3D3D3D3D3D3D3DD9
:100160003D3D3D0000000000240027002A00000063
:100170000000250028002B000000000023002600BE
:10018000290004040404040404040202020202021A
:10019000030303030303010204081020408001024B
:1001A00004081020010204081020000000070002CB
:1001B0000100000304060000000000000000D3015D
:1001C0002D08DF0D11241FBECFEFD8E0DEBFCDBF5D
:1001D00011E0A0E0B1E0E2EAF8E202C005900D9281
:1001E000A436B107D9F713E0A4E6B1E001C01D922F
:1001F000AC31B107E1F711E0C4ECD1E004C02297C3
:10020000FE010E944B14CE3BD107C9F77CD70C945A
:100210004F14F6CEAF92BF92CF92DF92EF92FF9241
:100220000F931F93CF93DF93EC01C61BD70BD09393
:100230008A01C093890180913A0190913B01C89F46
:100240005001C99FB00CD89FB00C1124B0929001FE
:10025000A0928F0160918D0170918E016C0F7D1FB6
:1002600070938E0160938D01C0903C01D0903D0150
:10027000882777FD8095982F0E944E127B018C0174
:1002800020E030E040EA51EC0E94AF1188235CF49A
:100290000F2EF0E0EF2EF0E0FF2EF0EA0F2FF1EC42
:1002A0001F2FF02D14C0C801B70120E030E040EA54
:1002B00051E40E947813181654F40F2EF0E0EF2E3C
:1002C000F0E0FF2EF0EA0F2FF1E41F2FF02DB60122
:1002D000882777FD8095982F0E944E12A8019701DC
:1002E0000E9483130E941B127B018C017093920168
:1002F0006093910180918B0190918C019E01281B4C
:10030000390B80913E0190913F01289FB001299FB8
:10031000700D389F700D11247093940160939301B8
:10032000D0938C01C0938B016A0D7B1D6E0D7F1DD8
:10033000882777FD8095982F0E944E1220913601D4
:100340003091370140913801509139010E94831357
:100350007B018C0120E030E04FE753EC0E94AF11AD
:1003600088231CF46FEF70E012C0C801B70120E0D1
:1003700030E04FE753E40E94781318161CF461E054
:100380007FEF05C0C801B70190580E941B12CB0136
:10039000DF91CF911F910F91FF90EF90DF90CF9061
:1003A000BF90AF90089584E691E069E60E94270B24
:1003B00080914001909141019093A00180939F0111
:1003C0009093A2018093A10108952F923F924F92A2
:1003D0005F926F927F928F929F92AF92BF92CF92D5
:1003E000DF92EF92FF920F931F933C0184E691E01E
:1003F00065E771E047E751E029E731E00BE711E0FD
:10040000FDE7EF2EF1E0FF2EEFE7CE2EE1E0DE2E4E
:100410000E942A0B6091790170917A01882777FDFB
:100420008095982F0E944E127B018C01609175017E
:1004300070917601882777FD8095982F0E944E1243
:10044000A80197010E945C112BED3FE049E450E4C4
:100450000E94E91021EE3EE245E652E40E94831339
:100460001B012C01609381017093820180938301B1
:10047000909384016091770170917801882777FDCE
:100480008095982F0E944E12A80197010E945C113E
:100490002BED3FE049E450E40E94E91021EE3EE2FA
:1004A00045E652E40E9483136093850170938601B0
:1004B000809387019093880160917B0170917C010A
:1004C000882777FD8095982F0E944E1220E030E01B
:1004D00043E053E40E94B3115B016C01882477FC74
:1004E0008094982CC401B3010E944E127B018C01B0
:1004F00020E030E04AE754E40E94B3119B01AC01D4
:10050000C601B5010E9483139B01AC0160912E01CD
:1005100070912F0180913001909131010E94E9107A
:1005200060932E0170932F018093300190933101DD
:10053000C601B501A80197010E94831320E030E0B5
:100540004AE754E40E94B311209132013091330103
:1005500040913401509135010E94E9102BE734E1BC
:100560004EE65FE30E9483137B018C01C201B1015F
:1005700029E23CE54FE85DE30E9483139B01AC0157
:10058000C801B7010E94E9106093320170933301F2
:1005900080933401909335012AE3C22E22E0D22EBB
:1005A00020E030E044E353E40E94E8107B018C013A
:1005B0006091730170917401882777FD8095982F61
:1005C0000E944E129B01AC01C801B7010E94E910C4
:1005D000AB01BC01C60122E030E0DDD7C60160E01E
:1005E00071E002D760913201709133018091340142
:1005F0009091350120E030E044E353E40E94E8109C
:100600007B018C016091730170917401882777FDE3
:100610008095982F0E944E129B01AC01C801B70132
:100620000E94E9101F910F91FF90EF90DF90CF9003
:10063000BF90AF909F908F907F906F905F904F9002
:100640003F902F9008958AE392E065E970E090D59D
:100650008BE060E070E056D283E060E070E052C270
:100660000F931F938C01BC01675E7F4F8BE04AD2D2
:1006700083E0B80147D21F910F9108958AE392E079
:1006800060EA70E075D58AE061E0D9D289E060E087
:10069000D6D285E061E0D3D286E060E0D0C28AE3C2
:1006A00092E069EA70E064D58AE060E0C8D289E04F
:1006B00061E0C5D285E060E0C2D286E061E0BFC201
:1006C000AF92BF92CF92DF92EF92FF920F931F9360
:1006D0008C017C0197FF04C0EE24FF24E81AF90A7C
:1006E0008AE392E0B7014AE050E061D601151105B6
:1006F00011F4A9DF2CC017FD02C0D1DF01C0BEDF9D
:1007000000D000D0B701882777FD8095982F2FEF74
:1007100030E040E050E0EDB7FEB721833283438301
:10072000548321E030E040E050E0BFEFEB2EF12CAD
:10073000012D112DA6E9AA2EB12CC12CD12C3ED70A
:10074000DC01CB010F900F900F900F9089DF1F916C
:100750000F91FF90EF90DF90CF90BF90AF900895F2
:100760002FD12091A3013091A401621B730B7093D0
:10077000A2016093A10120914001309141016217D3
:10078000730744F4261B370BB901882777FD809542
:10079000982F24D115D12091A3013091A401621B7F
:1007A000730B7093A00160939F010AD16093A30122
:1007B0007093A4018093A5019093A60180919F015D
:1007C0009091A0010895AF92BF92CF92DF92EF92E5
:1007D000FF920F931F93CF93DF938091A701909186
:1007E000A801F3DD609395017093960180939701C2
:1007F000909398010E9489127B018C01609199016C
:1008000070919A0180919B0190919C010E941B1212
:100810005B016C01C801B7010E941B129B01AC0176
:10082000C501B901F7DCEC0190939E0180939D0115
:10083000E0909501F0909601009197011091980138
:10084000C801B70120E030E040E252EC0E9478138A
:10085000181664F4C801B70120E030E040E252E429
:100860000E94AF11882314F4CE0102C080E090E012
:1008700027DF76DF9093A8018093A701DF91CF91C6
:100880001F910F91FF90EF90DF90CF90BF90AF90AE
:10089000089582EA92E00E94770E8AE392E040E0B7
:1008A00052EC61E070E0A8D28AE392E067E371E085
:1008B000A2D48AE392E06BE171E09DD484E691E0FA
:1008C0005BD78AE392E062E071E067D684E691E06C
:1008D00081D7882329F08AE392E06DEF70E004C0AD
:1008E0008AE392E063EE70E086D480E090E0A0E8D6
:1008F000B0E48093990190939A01A0939B01B093E7
:100900009C018AE061E05CD189E061E059D185E039
:1009100061E056D186E061E053D18BE061E050D1D7
:1009200083E061E04DD18AE392E066EB70E063C45E
:100930001F920F920FB60F9211242F933F938F9314
:100940009F93AF93BF938091AD019091AE01A09121
:10095000AF01B091B0013091B1010196A11DB11D5F
:10096000232F2D5F2D3720F02D570196A11DB11D8E
:100970002093B1018093AD019093AE01A093AF019C
:10098000B093B0018091A9019091AA01A091AB010F
:10099000B091AC010196A11DB11D8093A901909366
:1009A000AA01A093AB01B093AC01BF91AF919F910D
:1009B0008F913F912F910F900FBE0F901F90189520
:1009C0008FB7F8942091AD013091AE014091AF0105
:1009D0005091B0018FBFB901CA0108959B01AC01CC
:1009E0007FB7F8948091A9019091AA01A091AB01E1
:1009F000B091AC0166B5A89B05C06F3F19F0019698
:100A0000A11DB11D7FBFBA2FA92F982F8827860F50
:100A1000911DA11DB11D62E0880F991FAA1FBB1F68
:100A20006A95D1F7BC012DC0FFB7F8948091A90158
:100A30009091AA01A091AB01B091AC01E6B5A89B41
:100A400005C0EF3F19F00196A11DB11DFFBFBA2FE0
:100A5000A92F982F88278E0F911DA11DB11DE2E0AF
:100A6000880F991FAA1FBB1FEA95D1F7861B970B0A
:100A7000885E9340C8F22150304040405040685159
:100A80007C4F211531054105510571F60895789483
:100A900084B5826084BD84B5816084BD85B5826083
:100AA00085BD85B5816085BDEEE6F0E08081816021
:100AB0008083E1E8F0E01082808182608083808121
:100AC00081608083E0E8F0E0808181608083E1EBF9
:100AD000F0E0808184608083E0EBF0E080818160E1
:100AE0008083EAE7F0E08081846080838081826097
:100AF0008083808181608083808180688083109280
:100B0000C10008951F93CF93DF93182FEB0161E08D
:100B100057D0209709F44AC0CF3FD10509F449C006
:100B2000E12FF0E0E655FE4F84918330C1F0843030
:100B300028F4813051F08230B1F50CC0863019F1C3
:100B4000873049F1843079F514C084B5806884BD5C
:100B5000C7BD32C084B5806284BDC8BD2DC0809140
:100B60008000806880938000D0938900C0938800C3
:100B700023C080918000806280938000D0938B009E
:100B8000C0938A0019C08091B00080688093B00043
:100B9000C093B30011C08091B00080628093B00018
:100BA000C093B40009C0C038D1051CF4812F60E0A7
:100BB00002C0812F61E043D0DF91CF911F91089552
:100BC000CF93DF93482F50E0CA018A569E4FFC0115
:100BD00034914E575E4FFA018491882369F190E079
:100BE000880F991FFC01EC59FE4FA591B491FC01AF
:100BF000E259FE4FC591D491662351F42FB7F89472
:100C00008C91932F909589238C93888189230BC095
:100C1000623061F42FB7F8948C91932F90958923CB
:100C20008C938881832B88832FBF06C09FB7F8944D
:100C30008C91832B8C939FBFDF91CF910895482F88
:100C400050E0CA0186559E4FFC012491CA018A5684
:100C50009E4FFC0194914E575E4FFA01349133231D
:100C600009F440C0222351F1233071F0243028F4DC
:100C70002130A1F0223011F514C02630B1F0273018
:100C8000C1F02430D9F404C0809180008F7703C074
:100C9000809180008F7D8093800010C084B58F7715
:100CA00002C084B58F7D84BD09C08091B0008F776C
:100CB00003C08091B0008F7D8093B000E32FF0E0FF
:100CC000EE0FFF1FE259FE4FA591B4912FB7F89494
:100CD000662321F48C919095892302C08C91892BF5
:100CE0008C932FBF089508951F920F920FB60F9205
:100CF00011242F933F934F938F939F93EF93FF93E1
:100D00008091C00082FD1DC04091C6002091F2017B
:100D10003091F3012F5F3F4F2F7330708091F401BA
:100D20009091F5012817390771F0E091F201F091E7
:100D3000F301EE54FE4F40833093F3012093F20110
:100D400002C08091C600FF91EF919F918F914F91CA
:100D50003F912F910F900FBE0F901F901895E0912B
:100D60004602F0914702E05CFF4F81919191208112
:100D70003181821B930B8F739070892B09F0B3CF55
:100D800008951F920F920FB60F9211242F933F9345
:100D90008F939F93EF93FF93209136023091370208
:100DA00080913802909139022817390731F48091E7
:100DB000C1008F7D8093C10014C0E0913802F09192
:100DC0003902EA50FE4F2081809138029091390219
:100DD00001968F739070909339028093380220931C
:100DE000C600FF91EF919F918F913F912F910F90AE
:100DF0000FBE0F901F901895AF92BF92DF92EF92A7
:100E0000FF920F931F93CF93DF93EC017A018B0135
:100E1000DD24403081EE580780E0680780E07807E5
:100E200011F0DD24D39491E0A92EB12CEC89FD8939
:100E3000DD2069F0C50108A002C0880F991F0A943F
:100E4000E2F7808360E079E08DE390E005C01082F6
:100E500060E874E88EE190E0A80197010E940C140C
:100E60002150304040405040569547953795279542
:100E700080E12030380720F0DD2011F0DD24D6CFCE
:100E8000E889F9893083EA89FB89208319A2EE89F0
:100E9000FF89408121E030E0C9010C8C02C0880F3D
:100EA000991F0A94E2F7482B4083EE89FF8940811D
:100EB000C9010D8C02C0880F991F0A94E2F7482BD4
:100EC0004083EE89FF894081C9010E8C02C0880FE2
:100ED000991F0A94E2F7482B4083EE89FF898081AD
:100EE0000F8C02C0220F331F0A94E2F720952823AB
:100EF0002083DF91CF911F910F91FF90EF90DF90B2
:100F0000BF90AF900895DC011C96ED91FC911D9768
:100F1000E05CFF4F2191319180819181281B390B39
:100F20002F733070C9010895DC011C96ED91FC917E
:100F30001D97E05CFF4F20813181E054F040DF01DC
:100F4000AE5BBF4F8D919C9111972817390719F40B
:100F50002FEF3FEF07C08D919C91E80FF91F808123
:100F6000282F30E0C9010895DC011C96ED91FC9119
:100F70001D97E05CFF4F20813181E054F040DF019C
:100F8000AE5BBF4F8D919C9111972817390719F4CB
:100F90002FEF3FEF10C08D919C911197E80FF91F33
:100FA00020818D919C91119701968F73907011966D
:100FB0009C938E9330E0C9010895DC0191968C9149
:100FC0009197882339F05496ED91FC915597808143
:100FD00086FFF9CF91961C920895CF93DF93EC0191
:100FE000EE85FF85E05CFF4F20813181E054F040C9
:100FF0002F5F3F4F2F733070DF01AE5BBF4F8D917E
:101000009C91119728173907D1F3E05CFF4F80813D
:101010009181E054F040E80FF91F6083EE85FF8571
:10102000E05CFF4F31832083EE89FF89208181E0DE
:1010300090E00F8C02C0880F991F0A94E2F7282BCA
:10104000208381E089A3EC89FD898081806480838D
:1010500081E090E0DF91CF91089510923D021092CF
:101060003C0288EE93E0A0E0B0E080933E029093D3
:101070003F02A0934002B093410288E491E0909334
:101080003B0280933A0282EB91E090934702809377
:10109000460286EF91E0909349028093480285ECE6
:1010A00090E090934B0280934A0284EC90E09093FE
:1010B0004D0280934C0280EC90E090934F0280931D
:1010C0004E0281EC90E0909351028093500282ECAA
:1010D00090E0909353028093520286EC90E09093BC
:1010E00055028093540284E08093560283E08093FB
:1010F000570287E08093580285E08093590281E08F
:1011000080935A020895CF93DF93C1DCC2DBCFEA0C
:10111000D6E059DB2097E9F322DEFBCFCF92DF92B6
:10112000EF92FF920F931F93CF93DF937C016B019C
:101130008A01C0E0D0E00FC0D6016D916D01D701EA
:10114000ED91FC910190F081E02DC7010995C80F48
:10115000D91F015010400115110571F7CE01DF9123
:10116000CF911F910F91FF90EF90DF90CF90089556
:10117000EF92FF920F931F93CF93DF937C018B012C
:10118000C0E0D0E0F8010F5F1F4F6491662359F073
:10119000D701ED91FC910190F081E02DC7010995F7
:1011A000C80FD91FEFCFCE01DF91CF911F910F91C3
:1011B000FF90EF900895EF92FF920F931F938C0191
:1011C000DC01ED91FC910190F081E02D6DE009953D
:1011D0007C01D801ED91FC910190F081E02DC801D6
:1011E0006AE009959C012E0D3F1DC9011F910F91C9
:1011F000FF90EF900895EF92FF920F931F937C0161
:10120000B7DF8C01C701D7DF9C01200F311FC90157
:101210001F910F91FF90EF900895CF93DF93EC0112
:101220006115710519F420E030E00FC0DB010D906D
:101230000020E9F71197A61BB70BE881F98102801E
:10124000F381E02DAD0109959C01C901DF91CF919A
:1012500008954F925F927F928F929F92AF92BF922A
:10126000CF92DF92EF92FF920F931F93DF93CF9372
:10127000CDB7DEB7A1970FB6F894DEBF0FBECDBFD6
:101280002C01742ECB01223008F42AE019A231E29D
:10129000C32ED12CCC0EDD1E822E9924AA24BB2471
:1012A000672D752FA50194010E940C1479018A0104
:1012B000C801B701A50194010E94ED13472D461BFB
:1012C0000894C108D1084A3014F4405D01C0495C5B
:1012D000F6014083E114F1040105110521F07E2C93
:1012E0005F2DC801DDCFC201B60197DFA1960FB611
:1012F000F894DEBF0FBECDBFCF91DF911F910F914C
:10130000FF90EF90DF90CF90BF90AF909F908F9025
:101310007F905F904F900895DC012115310541F4D5
:10132000ED91FC910190F081E02D642F09950895D5
:1013300090CFCF92DF92EF92FF920F931F93CF93B4
:10134000DF93EC016A017B012115310541F4E8814D
:10135000F9810190F081E02D642F09951DC02A309C
:101360003105C9F477FF16C0E881F9810190F08159
:10137000E02D6DE209958C0144275527BA014C19DF
:101380005D096E097F09CE012AE063DF9801280F0D
:10139000391F03C02AE05DDF9C01C901DF91CF91B5
:1013A0001F910F91FF90EF90DF90CF900895CF9213
:1013B000DF92EF92FF920F931F936C017B019A01D2
:1013C0000027F7FC0095102FB801A701B2DF8C01B0
:1013D000C601F1DE080F191FC8011F910F91FF9080
:1013E000EF90DF90CF90089518CF08957F928F925D
:1013F0009F92AF92BF92CF92DF92EF92FF920F93A4
:101400001F93CF93DF934C017A018B01722ECB0196
:10141000BA01A80197010E94E913882321F0C401B1
:1014200060E271E020C0C0E0D0E057016801E894BC
:10143000D7F8C601B5012FEF3FEF4FE75FE70E94F6
:10144000E913882349F4C601B5012FEF3FEF4FE7B9
:101450005FE785D7181614F0C1E0D0E0219731F08E
:10146000C40164E271E0D9DEEC0186C0C801B701B5
:101470002FEF3FEF4FE75FE40E94781318164CF010
:10148000C801B7012FEF3FEF4FE75FEC68D7882324
:1014900024F4C40168E271E0E6CFC801B70120E09E
:1014A00030E040E050E05BD787FD03C0C0E0D0E013
:1014B0000EC0D401ED91FC910190F081E02DC401AA
:1014C0006DE20995EC0117FB109517F9109520E0D6
:1014D00030E040E05FE3DD240AC0CA01B90120E04A
:1014E00030E040E251E43FD79B01AC01D394D714E4
:1014F000A0F3C801B7016DD65B016C01A1D77B01D8
:101500008C01C401B801A7012AE030E005DFC80F53
:10151000D91F772031F0C4016CE271E07EDEC80F84
:10152000D91FC801B701B8D79B01AC01C601B501ED
:101530004FD620C020E030E040E251E40E94831307
:101540007B018C0178D75B016C01CC24B7FCC09483
:10155000DC2CC401B601A5012AE030E0EADEC80FA8
:10156000D91FC601B5019AD79B01AC01C801B701CB
:101570002FD67A947720F1F6CE01DF91CF911F918B
:101580000F91FF90EF90DF90CF90BF90AF909F9022
:101590008F907F9008952ACF0895EF92FF920F9336
:1015A0001F937C013ADE8C01C70105DE080F191F6D
:1015B000C8011F910F91FF90EF9008952F923F92D5
:1015C0004F925F926F927F928F929F92AF92BF9253
:1015D000CF92DF92EF92FF920F931F93DF93CF93FF
:1015E000CDB7DEB73B014C0119012A016D897E8917
:1015F0008F89988D6A197B098C099D09621A730A73
:10160000840A950AA40193010E94ED13E218F308DD
:1016100004091509A80197010E942E142A0D3B1DEB
:101620004C1D5D1DB901CA01CF91DF911F910F9132
:10163000FF90EF90DF90CF90BF90AF909F908F90F2
:101640007F906F905F904F903F902F900895FC0196
:10165000608308952F923F924F925F926F927F9294
:101660008F929F92AF92BF92CF92DF92EF92FF92B2
:101670000F931F935C014B013A01290118019C0152
:101680002F5F3F4F0091420110914301FC01808187
:101690006BE34EE0E4D0F501918180E0228130E0FF
:1016A000822B932BF40191838083F501938180E059
:1016B000248130E0822B932BF30191838083F50109
:1016C000958180E0268130E0822B932BF20191837B
:1016D0008083F501918580E0228530E0822B932B79
:1016E000F10191838083F501938580E0248530E0CA
:1016F000822B932BF70191838083F501958580E000
:10170000268530E0822B932BF601918380831F91F5
:101710000F91FF90EF90DF90CF90BF90AF909F9090
:101720008F907F906F905F904F903F902F90089593
:10173000FC01262F80816BE646E08EC10F93FC01F1
:10174000062F80816BE642E023E03ED10F910895A1
:101750000F93FC01062F80816CE144E022E034D13C
:101760000F9108950F93FC01062F80816BE144E0F7
:1017700022E02AD10F9108950F931F938C0161E00D
:10178000DDDFC80160E0EEDFC80160E0E1DFC80135
:1017900060E0CEDF1F910F910895CF92DF92EF921C
:1017A000FF920F931F936C018C010F5F1F4FE0900E
:1017B0004201F0904301FC01808165E746E026E0AC
:1017C00083D1F60181811F910F91FF90EF90DF90FF
:1017D000CF900895E2DF90E0843309F491E0892FFF
:1017E0000895EF92FF920F931F93CF93DF93582F9B
:1017F000162FE42E022FF32E82EA92E0652FA5D158
:1018000082EA92E0612F22D2202F3F2DC901EC0104
:1018100010E005C082EA92E0699118D21F5F1E15A0
:10182000C8F382EA92E053D290E0882309F491E071
:10183000892FDF91CF911F910F91FF90EF90089525
:10184000DF93CF930F92CDB7DEB7498341E09E017E
:101850002F5F3F4FC6DF0F90CF91DF9108952F92FA
:101860003F924F925F926F927F928F929F92AF9230
:10187000BF92CF92DF92EF92FF920F931F93DF936D
:10188000CF9300D000D00F92CDB7DEB7882E6983FA
:10189000942E3B832A8394D85B016C01FF24EE24B1
:1018A000292C332428016624772443C082EA92E05D
:1018B000682D4BD182EA92E06981C8D182EA92E038
:1018C00006D282EA92E0682D40D1A1014E19510959
:1018D0004132510514F040E250E082EA92E0682D76
:1018E00004D22F2D332727FD30958A819B81280F25
:1018F000391F3D832C8382EA92E031D1892B09F490
:101900004FC00115110559F05BD86A197B098C0984
:101910009D09641575058605970508F041C082EAA2
:1019200092E026D1EC81FD818193FD83EC83F394D9
:10193000E2CFE91408F4BACF01151105C1F040D87F
:101940006A197B098C099D09980140E050E06217F3
:1019500073078407950758F02F2D332727FD3095FF
:10196000892D90E02817390714F4FF24FA948F2D5D
:101970000F900F900F900F900F90CF91DF911F91CC
:101980000F91FF90EF90DF90CF90BF90AF909F901E
:101990008F907F906F905F904F903F902F90089521
:1019A00082EA92E094D1892DF0E2F91508F480E200
:1019B000E80EBFCF0F931F93FA01890141E09F0109
:1019C0004EDF1F910F910895DF92EF92FF920F93D8
:1019D0001F93DF93CF930F92CDB7DEB7E82ED62EAD
:1019E000F42E122F2091420130914301AE014F5F3E
:1019F0005F4FE0DF882339F1212F30E04F2D50E099
:101A00004F5F5F4F421B530B81E090E002C0880F95
:101A1000991F1A95E2F70197042E02C0880F991FAB
:101A20000A94E2F7202F30E002C0220F331F4A95BC
:101A3000E2F7482F4095598145238223482B49835B
:101A40008E2D6D2DFDDE0F90CF91DF911F910F91A7
:101A5000FF90EF90DF900895EF92FF920F931F9306
:101A6000DF93CF930F92CDB7DEB7F82EE62E042F7B
:101A7000122F2091420130914301AE014F5F5F4F21
:101A800099DF2981112351F081E090E002C0880F95
:101A9000991F0A95E2F7422F482B0AC081E090E097
:101AA00002C0880F991F0A95E2F7482F40954223FC
:101AB00049838F2D6E2DC4DE0F90CF91DF911F9142
:101AC0000F91FF90EF900895CF92DF92EF92FF92E7
:101AD0000F931F93DF93CF930F92CDB7DEB7C42E32
:101AE000D22E9701AE014F5F5F4F64DF682F8823CE
:101AF00009F18D2D90E04C2D50E04F5F5F4F481B5A
:101B0000590B21E030E002C0220F331FDA94E2F7D4
:101B100021503040042E02C0220F331F0A94E2F7F6
:101B20008981822390E002C0959587954A95E2F7D6
:101B3000F8018083862F0F90CF91DF911F910F9135
:101B4000FF90EF90DF90CF90089581E08093A10205
:101B500060937E0210929F021092A002089520913D
:101B60007D0230E080917C02281B3109C901089573
:101B700040917C0280917D02481718F02FEF3FEFD3
:101B80000AC0E42FF0E0E45AFD4F8081282F30E0B6
:101B90004F5F40937C02C9010895E0917C028091DF
:101BA0007D02E81718F0EFEFFFEF06C0F0E0E45A0F
:101BB000FD4F8081E82FF0E0CF0108950895109245
:101BC000A5021092A40288EE93E0A0E0B0E080931A
:101BD000A6029093A702A093A802B093A90288E559
:101BE00091E09093A3028093A2020895CF92DF9296
:101BF000EF92FF920F931F93CF93DF937C016B01C2
:101C00008A018091A1028823A1F0C0E0D0E00DC03C
:101C1000D701ED91FC91D601AC0FBD1F0190F08171
:101C2000E02DC7016C9109952196C017D10780F36B
:101C300003C0CB01642F02D1C801DF91CF911F9166
:101C40000F91FF90EF90DF90CF900895DF93CF93A7
:101C50000F92CDB7DEB7FC0169838091A102882382
:101C6000C9F08091A002803238F081E090E0938347
:101C7000828320E030E014C080919F02E82FF0E0E2
:101C8000E158FD4F998190838F5F80939F028093ED
:101C9000A00204C0CE01019661E0D0D021E030E086
:101CA000C9010F90CF91DF9108950F93062F809176
:101CB0007E026FE772E04091A00221E06AD01092AC
:101CC0009F021092A0021092A1020F91089561E06C
:101CD000ECCF413208F040E2862F6CE572E010D084
:101CE00010927C0280937D02089521E0F2CF109241
:101CF0007C0210927D0210929F021092A0024AC2B2
:101D0000382F413210F040E042C08091AE0288236B
:101D1000E1F791E09093AE022093B0028FEF8093B1
:101D20001B031092D60241504093D7024F5F90930D
:101D3000AF028091AF02330F832B8093AF0280916B
:101D4000B102813041F41092B1028091AF028093D0
:101D5000BB0085EC01C085EE8093BC008091AE0293
:101D60008130E1F38091D602841710F44091D602BD
:101D700020E030E00AC0FB01E20FF31FD901AA54B2
:101D8000BD4F8C9180832F5F3F4F2417A0F3842F8A
:101D900008950F931F93582F122F413210F081E0B6
:101DA0004AC08091AE028823E1F782E08093AE02C0
:101DB0000093B0028FEF80931B031092D6024093E2
:101DC000D702A6EBB2E0FB0102C081918D938E2F6A
:101DD000861B8417D0F31092AF028091AF02550F8B
:101DE000852B8093AF028091B102813041F4109233
:101DF000B1028091AF028093BB0085EC01C085EEFB
:101E00008093BC00112321F08091AE028230E1F377
:101E100080911B038F3F11F480E00DC080911B0364
:101E2000803211F482E007C080911B03803311F0EF
:101E300084E001C083E01F910F910895482F613223
:101E400010F081E008958091AE02843011F082E0BC
:101E500008956093F902A8EDB2E0842F9C01F90186
:101E600002C081918D938E2F841B8617D0F380E062
:101E700008951F920F920FB60F9211242F933F9344
:101E80004F935F936F937F938F939F93AF93BF9382
:101E9000EF93FF938091B90090E0887F9070803637
:101EA000910509F4F2C081369105CCF5883291058F
:101EB00009F47BC089329105B4F48031910509F4AD
:101EC0006FC0813191053CF4009709F447C1089730
:101ED00009F04FC165C08831910509F466C080974B
:101EE00009F047C182C08034910509F4A4C081344F
:101EF000910544F48033910509F482C0C89709F034
:101F000038C189C08035910509F489C088359105AB
:101F100009F496C08834910509F02BC1AEC0883908
:101F2000910509F413C189399105ECF488379105BD
:101F300009F4ABC0893791054CF48836910509F452
:101F4000A4C08037910509F014C19FC0883891055D
:101F500009F4FCC08039910509F49DC080389105D1
:101F600009F007C198C0803B910509F4C6C0813BC8
:101F700091054CF4803A910509F49FC0883A910587
:101F800009F0F7C0BAC0803C910509F4E3C0883C71
:101F9000910509F4DFC0883B910509F0EAC0C2C091
:101FA0008091AF028093BB00CFC09091D602809108
:101FB000D702981768F49091D602E92FF0E0EA541E
:101FC000FD4F80818093BB009F5F9093D602BCC081
:101FD0008091B002882309F44BC085ED8093BC004A
:101FE0008091BC0084FDFCCFC2C080E280931B03C3
:101FF00085ED8093BC008091BC0084FDFCCFB7C010
:1020000080E380931B0385ED8093BC008091BC002E
:1020100084FDFCCFACC088E380931B039BC0809100
:10202000D6029091BB00E82FF0E0EA54FD4F908378
:102030008F5F8093D6029091D6028091D70282C0A2
:102040008091D6029091BB00E82FF0E0EA54FD4F5A
:1020500090838F5F8093D6028091B002882341F0F5
:1020600085ED8093BC008091BC0084FDFCCF7FC0D7
:1020700081E08093B10284EA6EC085ED8093BC005C
:102080008091BC0084FDFCCF72C083E08093AE02DF
:1020900010921A0359C080911A03803208F056C07A
:1020A00080911A039091BB00E82FF0E0E650FD4FBD
:1020B00090838F5F80931A0347C080911A03803208
:1020C00030F4E0911A03F0E0E650FD4F108285ED08
:1020D0008093BC008091BC0084FDFCCF1092AE02C6
:1020E00060911A03E091B402F091B5028AEF92E098
:1020F00070E0099510921A032DC084E08093AE021F
:102100001092F8021092F902E091B202F091B3023B
:1021100009958091F902882329F481E08093F902DE
:102120001092D8029091F802E92FF0E0E852FD4FAA
:1021300080818093BB009F5F9093F8029091F8029A
:102140008091F902981710F485EC01C085E880931E
:10215000BC000FC085EC8093BC0009C010921B032B
:1021600085ED8093BC008091BC0084FDFCCF109273
:10217000AE02FF91EF91BF91AF919F918F917F91AF
:102180006F915F914F913F912F910F900FBE0F90E4
:102190001F9018951092AE0281E08093B0021092C9
:1021A000B10282E161E00E941F0683E161E00E94CA
:1021B0001F06E9EBF0E080818E7F808380818D7F38
:1021C000808388E48093B80085E48093BC00089500
:1021D0005058BB27AA270ED03AC22BD230F030D2AB
:1021E00020F031F49F3F11F41EF4FBC10EF4E09592
:1021F000E7FBC6C1E92F3CD280F3BA176207730729
:102200008407950718F071F49EF56BC20EF4E09503
:102210000B2EBA2FA02D0B01B90190010C01CA01A0
:10222000A0011124FF27591B99F0593F50F4503E4B
:1022300068F11A16F040A22F232F342F4427585F3D
:10224000F3CF469537952795A795F0405395C9F755
:102250007EF41F16BA0B620B730B840BBAF091500D
:10226000A1F0FF0FBB1F661F771F881FC2F70EC0AC
:10227000BA0F621F731F841F48F48795779567957F
:10228000B795F7959E3F08F0B3CF9395880F08F068
:102290009927EE0F979587950895CBD158F080E850
:1022A00091E009F49EEFCCD128F040E851E059F4D8
:1022B0005EEF09C096C115C2E92FE078D9D168F365
:1022C000092E052AC1F3261737074807590738F0A2
:1022D0000E2E07F8E02569F0E025E0640AC0EF6300
:1022E00007F8009407FADB01B9019D01DC01CA017E
:1022F000AD01EF9347D0ABD10AD05F91552331F0B8
:102300002BED3FE049E450FD49EC63CF0895DF93A6
:10231000DD27B92FBF7740E85FE316161706480799
:102320005B0710F4D92FE8D19F938F937F936F931E
:102330004DD2E8E6F0E058D18AD12F913F914F91EC
:102340005F91EDD1DD2349F09058A2EA2AED3FE0FC
:1023500049EC5FE3D0785D274DDFDF9178C1ECD0A9
:1023600008F481E008950CD072C16AD140F061D1C7
:1023700030F021F45F3F19F003C15111B3C131C1F5
:1023800077D198F39923C9F35523B1F3951B550BD6
:10239000BB27AA2762177307840738F09F5F5F4F38
:1023A000220F331F441FAA1FA9F333D00E2E3AF079
:1023B000E0E830D091505040E695001CCAF729D093
:1023C000FE2F27D0660F771F881FBB1F26173707E2
:1023D0004807AB07B0E809F0BB0B802DBF01FF2712
:1023E00093585F4F2AF09E3F510568F0C9C07AC1EB
:1023F0005F3FECF3983EDCF3869577956795B7954C
:10240000F7959F5FC9F7880F911D9695879597F966
:102410000895E1E0660F771F881FBB1F62177307DF
:102420008407BA0720F0621B730B840BBA0BEE1FF4
:1024300088F7E095089504D06894B11153C10895C8
:102440001FD188F09F5790F0B92F9927B751A0F06E
:10245000D1F0660F771F881F991F1AF0BA95C9F738
:1024600012C0B13081F03DD1B1E008953AC1672F7B
:10247000782F8827B85F39F0B93FCCF386957795E8
:102480006795B395D9F73EF49095809570956195D1
:102490007F4F8F4F9F4F0895E89409C097FB3EF4FC
:1024A00090958095709561957F4F8F4F9F4F9923A1
:1024B000A9F0F92F96E9BB279395F695879577951F
:1024C0006795B795F111F8CFFAF4BB0F11F460FFDF
:1024D0001BC06F5F7F4F8F4F9F4F16C0882311F037
:1024E00096E911C0772321F09EE8872F762F05C04B
:1024F000662371F096E8862F70E060E02AF09A95E6
:10250000660F771F881FDAF7880F9695879597F9DA
:102510000895D0D080F09F3740F491110EF0E2C0C2
:1025200060E070E080E89FEB089526F41B16611DC3
:10253000711D811D2BC045C0990F0008550FAA0BB6
:10254000E0E8FEEF16161706E807F907C0F01216C6
:102550001306E407F50798F0621B730B840B950BC9
:1025600039F40A2661F0232B242B252B21F408951E
:102570000A2609F4A140A6958FEF811D811D0895BB
:1025800097F99F6780E870E060E00895882371F410
:10259000772321F09850872B762F07C0662311F4FC
:1025A00099270DC09051862B70E060E02AF09A9533
:1025B000660F771F881FDAF7880F9695879597F92A
:1025C00008959F3F49F0915028F486957795679537
:1025D000B7959F5F80389F4F880F9695879597F99D
:1025E00008959FEF80EC0895DF93CF931F930F938F
:1025F000FF92EF92DF927B018C01689405C0DA2E86
:10260000EF018DD0FE01E894A5912591359145917A
:102610005591AEF3EF01EEDDFE019701A801DA94CA
:1026200079F7DF90EF90FF900F911F91CF91DF919D
:10263000089500240A941616170618060906089528
:1026400000240A9412161306140605060895092E8E
:102650000394000C11F4882352F0BB0F40F4BF2BFD
:1026600011F460FF04C06F5F7F4F8F4F9F4F08953D
:1026700057FD9058440F551F59F05F3F71F0479533
:10268000880F97FB991F61F09F3F79F08795089518
:10269000121613061406551FF2CF4695F1DF08C037
:1026A000161617061806991FF1CF86957105610554
:1026B00008940895E5DFA0F0BEE7B91788F4BB27BA
:1026C0009F3860F41616B11D672F782F8827985F02
:1026D000F7CF869577956795B11D93959639C8F391
:1026E0000895E894BB2766277727CB0197F90895CB
:1026F00023DF08F48FEF08959B01AC0160E070E0E8
:1027000080E89FE330CE0BD0A2CF93DF28F098DF94
:1027100018F0952309F034CF64CF1124E3CFA8DF5C
:10272000A0F3959FD1F3950F50E0551F629FF001E4
:10273000729FBB27F00DB11D639FAA27F00DB11D3D
:10274000AA1F649F6627B00DA11D661F829F2227C6
:10275000B00DA11D621F739FB00DA11D621F839F4D
:10276000A00D611D221F749F3327A00D611D231F23
:10277000849F600D211D822F762F6A2F11249F5771
:1027800050408AF0E1F088234AF0EE0FFF1FBB1F94
:10279000661F771F881F91505040A9F79E3F510533
:1027A00070F0EECE9FCF5F3FECF3983EDCF3869562
:1027B00077956795B795F795E7959F5FC1F7FE2BDE
:1027C000880F911D9695879597F908959B01AC0107
:1027D0009ACFB2DE880B990B0895629FD001739F48
:1027E000F001829FE00DF11D649FE00DF11D929FAD
:1027F000F00D839FF00D749FF00D659FF00D9927EC
:10280000729FB00DE11DF91F639FB00DE11DF91F0F
:10281000BD01CF0111240895A1E21A2EAA1BBB1BF2
:10282000FD010DC0AA1FBB1FEE1FFF1FA217B3079C
:10283000E407F50720F0A21BB30BE40BF50B661FB2
:10284000771F881F991F1A9469F760957095809576
:1028500090959B01AC01BD01CF01089597FB092E16
:1028600005260ED057FD04D0D7DF0AD0001C38F45F
:1028700050954095309521953F4F4F4F5F4F0895AC
:10288000F6F790958095709561957F4F8F4F9F4F8C
:102890000895EE0FFF1F0590F491E02D0994F89430
:0228A000FFCF68
:1028A200090054657374696E6720646576696365AF
:1028B20020636F6E6E656374696F6E732E2E2E00C9
:1028C2006E616E00696E66006F7666002E00000013
:1028D2003443000034433333B33F030001000600A6
:1028E2000900E80300000000ED078E088307B40723
:1028F2009407DD0700000000260EF60DAF0DB80D9F
:04290200CD0DDE0D0C
:00000001FF
