:1000000062C0000085C0000083C000008AC00000FC
:100010007FC000007DC000007BC0000079C00000F0
:1000200077C0000075C0000073C00000DEC400008F
:1000300005C50000B1C400006BC0000069C000002D
:10004000B4C5000065C0000065C10000B0C100007B
:100050005FC000005DC000005BC0000059C0000030
:1000600057C0000055C00000000000002400270019
:100070002A0000000000250028002B0000000000DE
:1000800023002600290004040404040404040202DA
:100090000202020203030303030301020408102007
:1000A0004080010204081020010204081020000012
:1000B0000007000201000003040600000000000029
:1000C00000008900420311241FBECFEFD8E0DEBF3D
:1000D000CDBF11E0A0E0B1E0E2E4FDE002C0059098
:1000E0000D92A431B107D9F711E0A4E1B1E001C04C
:1000F0001D92AF3EB107E1F710E0C6ECD0E003C0BF
:100100002297FE0118D6C23CD107D1F711D317C6EA
:1001100077CF8CE291E064E171E04CE151E024E0C2
:10012000B6C41F920F920FB60F9211240F931F9314
:100130002F933F934F935F936F937F938F939F93EF
:10014000AF93BF93EF93FF9313B180913401812755
:1001500010933401882389F1082F80FF08C0412FB4
:1001600050E0417050708CE291E060E0A1D401FF5A
:1001700009C0412F50E05695479541708CE291E0BF
:1001800061E096D402FF0BC0412F50E05695479591
:100190005695479541708CE291E062E089D403FF67
:1001A0000CC0412F50E083E0569547958A95E1F7C2
:1001B00041708CE291E063E07BD4FF91EF91BF91BD
:1001C000AF919F918F917F916F915F914F913F91EF
:1001D0002F911F910F910F900FBE0F901F901895A8
:1001E000EF92FF920F931F938CE291E099D40DEB65
:1001F00011E06091140170911501C8014AE050E0CE
:1002000076D330E0E32E31E0F32EC801B7019AD364
:100210006091160170911701C8014AE050E067D360
:10022000C801B7018FD36091180170911901C801FD
:100230004AE050E05CD3C801B70184D360911A0151
:1002400070911B01C8014AE050E061D31F910F91EA
:10025000FF90EF9008958DEB91E040E052EC61E06B
:1002600070E0E0D080E070D388E060E013D089E0F7
:1002700060E010D08AE060E00DD08BE060E00AD052
:100280008FE080936B0081E0809368008CE291E0C6
:1002900061E064C4CF93DF93482F50E0CA018656D3
:1002A0009F4FFC0134914A575F4FFA018491882394
:1002B00069F190E0880F991FFC01E859FF4FA59163
:1002C000B491FC01EE58FF4FC591D491662351F4CF
:1002D0002FB7F8948C91932F909589238C938881D4
:1002E00089230BC0623061F42FB7F8948C91932F5F
:1002F000909589238C938881832B88832FBF06C098
:100300009FB7F8948C91832B8C939FBFDF91CF91F3
:10031000089508951F920F920FB60F9211242F93F4
:100320003F934F938F939F93EF93FF938091C000E0
:1003300082FD1DC04091C60020917501309176016B
:100340002F5F3F4F2F73307080917701909178012C
:100350002817390771F0E0917501F0917601EB5C97
:10036000FE4F4083309376012093750102C0809147
:10037000C600FF91EF919F918F914F913F912F91E7
:100380000F900FBE0F901F901895E091C901F0914A
:10039000CA01E05CFF4F8191919120813181821BE4
:1003A000930B8F739070892B09F0B3CF08951F9230
:1003B0000F920FB60F9211242F933F938F939F9319
:1003C000EF93FF932091B9013091BA018091BB0165
:1003D0009091BC012817390731F48091C1008F7DBD
:1003E0008093C10014C0E091BB01F091BC01E758BB
:1003F000FE4F20818091BB019091BC0101968F73CB
:1004000090709093BC018093BB012093C600FF9134
:10041000EF919F918F913F912F910F900FBE0F9071
:100420001F901895AF92BF92DF92EF92FF920F93B9
:100430001F93CF93DF93EC017A018B01DD244030D1
:1004400081EE580780E0680780E0780711F0DD242E
:10045000D39491E0A92EB12CEC89FD89DD2069F0BF
:10046000C50108A002C0880F991F0A94E2F7808393
:1004700060E079E08DE390E005C0108260E874E808
:100480008EE190E0A801970132D4215030404040E5
:100490005040569547953795279580E1203038078D
:1004A00020F0DD2011F0DD24D7CFE889F9893083F1
:1004B000EA89FB89208319A2EE89FF89408121E026
:1004C00030E0C9010C8C02C0880F991F0A94E2F732
:1004D000482B4083EE89FF894081C9010D8C02C001
:1004E000880F991F0A94E2F7482B4083EE89FF8911
:1004F0004081C9010E8C02C0880F991F0A94E2F74F
:10050000482B4083EE89FF8980810F8C02C0220F27
:10051000331F0A94E2F7209528232083DF91CF919F
:100520001F910F91FF90EF90DF90BF90AF900895D3
:10053000DC011C96ED91FC911D97E05CFF4F219131
:10054000319180819181281B390B2F733070C90143
:100550000895DC011C96ED91FC911D97E05CFF4F26
:1005600020813181E054F040DF01AE5BBF4F8D91BF
:100570009C9111972817390719F42FEF3FEF07C007
:100580008D919C91E80FF91F8081282F30E0C901DF
:100590000895DC011C96ED91FC911D97E05CFF4FE6
:1005A00020813181E054F040DF01AE5BBF4F8D917F
:1005B0009C9111972817390719F42FEF3FEF10C0BE
:1005C0008D919C911197E80FF91F20818D919C913D
:1005D000119701968F73907011969C938E9330E0D3
:1005E000C9010895DC0191968C919197882339F087
:1005F0005496ED91FC915597808186FFF9CF9196A5
:100600001C920895CF93DF93EC01EE85FF85E05CAB
:10061000FF4F20813181E054F0402F5F3F4F2F7317
:100620003070DF01AE5BBF4F8D919C911197281701
:100630003907D1F3E05CFF4F80819181E054F040B5
:10064000E80FF91F6083EE85FF85E05CFF4F318383
:100650002083EE89FF89208181E090E00F8C02C029
:10066000880F991F0A94E2F7282B208381E089A341
:10067000EC89FD8980818064808381E090E0DF9156
:10068000CF9108951092C0011092BF0188EE93E0BF
:10069000A0E0B0E08093C1019093C201A093C30198
:1006A000B093C40188E091E09093BE018093BD01B6
:1006B00085E391E09093CA018093C90189E791E0B5
:1006C0009093CC018093CB0185EC90E09093CE0188
:1006D0008093CD0184EC90E09093D0018093CF0182
:1006E00080EC90E09093D2018093D10181EC90E076
:1006F0009093D4018093D30182EC90E09093D60143
:100700008093D50186EC90E09093D8018093D70137
:1007100084E08093D90183E08093DA0187E08093BD
:10072000DB0185E08093DC0181E08093DD010895A9
:10073000CF93DF9382D28FDDC5ECD1E051DD2097DE
:10074000E9F323DEFBCFCF92DF92EF92FF920F937C
:100750001F93CF93DF937C016B018A01C0E0D0E04F
:100760000FC0D6016D916D01D701ED91FC91019003
:10077000F081E02DC7010995C80FD91F0150104025
:100780000115110571F7CE01DF91CF911F910F91E6
:10079000FF90EF90DF90CF900895EF92FF920F932C
:1007A0001F938C01DC01ED91FC910190F081E02D13
:1007B0006DE009957C01D801ED91FC910190F081EB
:1007C000E02DC8016AE009959C012E0D3F1DC9016D
:1007D0001F910F91FF90EF900895CF93DF93EC015D
:1007E0006115710519F420E030E00FC0DB010D90B8
:1007F0000020E9F71197A61BB70BE881F981028069
:10080000F381E02DAD0109959C01C901DF91CF91E4
:1008100008954F925F927F928F929F92AF92BF9274
:10082000CF92DF92EF92FF920F931F93DF93CF93BC
:10083000CDB7DEB7A1970FB6F894DEBF0FBECDBF20
:100840002C01742ECB01223008F42AE019A231E2E7
:10085000C32ED12CCC0EDD1E822E9924AA24BB24BB
:10086000672D752FA501940142D279018A01C80133
:10087000B701A50194011CD2472D461B0894C1085D
:10088000D1084A3014F4405D01C0495CF601408350
:10089000E114F1040105110521F07E2C5F2DC80142
:1008A000DFCFC201B60199DFA1960FB6F894DEBF83
:1008B0000FBECDBFCF91DF911F910F91FF90EF90B1
:1008C000DF90CF90BF90AF909F908F907F905F9080
:1008D0004F900895DC012115310541F4ED91FC9113
:1008E0000190F081E02D642F0995089592CFEF9249
:1008F000FF920F931F939A017B0100E010E0B80173
:10090000A701E8DF1F910F91FF90EF900895CF921C
:10091000DF92EF92FF920F931F936C017B019A017C
:1009200000E010E0B801A701D5DF8C01C60135DF7A
:10093000080F191FC8011F910F91FF90EF90DF90D2
:10094000CF9008954ACF08958093DF0110928000E0
:10095000109281001092820010926F001092890014
:100960001092880010928B0010928A0010928500DD
:100970001092840008958091810090E0887F2091FA
:10098000DF0130E0822B932B892B11F482E001C030
:1009900085E08093810008951F920F920FB60F9209
:1009A00011242F933F934F935F936F937F938F9374
:1009B0009F93AF93BF93EF93FF93E091E401F09186
:1009C000E501309709F00995FF91EF91BF91AF9143
:1009D0009F918F917F916F915F914F913F912F9157
:1009E0000F900FBE0F901F9018951F920F920FB689
:1009F0000F9211242F933F934F935F936F937F93A5
:100A00008F939F93AF93BF93EF93FF93E091E20196
:100A1000F091E301309709F00995FF91EF91BF91B3
:100A2000AF919F918F917F916F915F914F913F9186
:100A30002F910F900FBE0F901F9018951F920F923D
:100A40000FB60F9211242F933F934F935F936F93A1
:100A50007F938F939F93AF93BF93EF93FF93E09117
:100A6000E001F091E101309709F00995FF91EF91D4
:100A7000BF91AF919F918F917F916F915F914F91B6
:100A80003F912F910F900FBE0F901F901895FC0172
:100A9000208381E0818373836283CA015583448309
:100AA00030E0220F331F820F931F978386830895B0
:100AB000DC018FB7F89420918400309185008FBFBE
:100AC00011968C9111971496ED91FC9115974817FA
:100AD00071F42115310511F421E030E0862F90E00A
:100AE000880F991FE80FF91F318320830895169608
:100AF0000D90BC91A02D70E0660F771FE60FF71FD9
:100B000080819181009719F480E090E004C0A901F0
:100B1000481B590BCA01A60FB71F8D939C930895CC
:100B2000CF93DF93EC0120E013C0822F90E0880F79
:100B3000991FAA81BB81A80FB91FEE81FF81E80F21
:100B4000F91F80819181969587958D939C932F5F56
:100B50008881281750F3DF91CF910895DC01119619
:100B60006C93119720E01DC0822F90E0880F991F91
:100B70001496ED91FC911597E80FF91F11821082E0
:100B80001696ED91FC911797E80FF91F11821082CC
:100B90001296ED91FC911397E80FF91F11821082C4
:100BA0002F5F8C91281700F3E6CE1F920F920FB69D
:100BB0000F9211242F933F938F939F93AF93BF93E3
:100BC0008091EA019091EB01A091EC01B091ED01CF
:100BD0003091EE010196A11DB11D232F2D5F2D3700
:100BE00020F02D570196A11DB11D2093EE01809399
:100BF000EA019093EB01A093EC01B093ED01809199
:100C0000E6019091E701A091E801B091E901019618
:100C1000A11DB11D8093E6019093E701A093E80127
:100C2000B093E901BF91AF919F918F913F912F9127
:100C30000F900FBE0F901F901895789484B5826026
:100C400084BD84B5816084BD85B5826085BD85B570
:100C5000816085BDEEE6F0E0808181608083E1E81F
:100C6000F0E0108280818260808380818160808357
:100C7000E0E8F0E0808181608083E1EBF0E080815A
:100C800084608083E0EBF0E0808181608083EAE72C
:100C9000F0E08081846080838081826080838081B5
:100CA000816080838081806880831092C100089574
:100CB000629FD001739FF001829FE00DF11D649F40
:100CC000E00DF11D929FF00D839FF00D749FF00DCC
:100CD000659FF00D9927729FB00DE11DF91F639F6D
:100CE000B00DE11DF91FBD01CF0111240895A1E24E
:100CF0001A2EAA1BBB1BFD010DC0AA1FBB1FEE1F96
:100D0000FF1FA217B307E407F50720F0A21BB30BE0
:100D1000E40BF50B661F771F881F991F1A9469F75C
:100D200060957095809590959B01AC01BD01CF01B8
:100D30000895EE0FFF1F0590F491E02D0994F894AB
:020D4000FFCFE3
:100D4200202D2000000000000203A3039802C90224
:040D5200A902F202FE
:00000001FF
