:1000000062C0000087C0000085C0000083C00000FF
:1000100081C000007FC000007DC000000C94420E33
:1000200079C0000077C0000075C0000073C00000F8
:1000300071C000006FC000006DC000006BC0000008
:100040000C94FC0E67C0000045C3000090C3000084
:1000500061C000005FC000005DC000005BC0000028
:1000600059C0000057C00000000000002400270015
:100070002A0000000000250028002B0000000000DE
:1000800023002600290004040404040404040202DA
:100090000202020203030303030301020408102007
:1000A0004080010204081020010204081020000012
:1000B0000007000201000003040600000000000029
:1000C00000008901230511241FBECFEFD8E0DEBF59
:1000D000CDBF12E0A0E0B1E0E2EEF4E202C0059094
:1000E0000D92AC35B107D9F713E0ACE5B2E001C031
:1000F0001D92A03FB107E1F710E0C6ECD0E004C0CC
:100100002297FE010E946B12C23CD107C9F7F1D4BD
:100110000C946F1275CFEF92FF920F93DF93CF93F2
:10012000CDB7DEB760970FB6F894DEBF0FBECDBF78
:10013000A82F002309F461C07E010894E11CF11C82
:1001400088E0F70111928A95E9F729833A834B8376
:100150005C836D837E83AF83988780E2801BE82F6A
:10016000FF27E7FDF0954D815E816F817885181638
:1001700084F01D861E861F86188A882799278E1B65
:100180009F0B04C076956795579547958A95D2F74A
:1001900028C0202F332727FD3095DB01CA01022E0E
:1001A00004C0B695A795979587950A94D2F78D8741
:1001B0009E87AF87B88B04C0440F551F661F771FFB
:1001C000EA95D2F789819A81AB81BC8104C0B6954A
:1001D000A795979587952A95D2F7482B592B6A2B87
:1001E0007B2B49875A876B877C8729853A854B8586
:1001F0005C856D857E85AF8598898A2F60960FB660
:10020000F894DEBF0FBECDBFCF91DF910F91FF906D
:10021000EF900895EF92FF920F93DF93CF93CDB7B6
:10022000DEB760970FB6F894DEBF0FBECDBFA82F24
:10023000002309F461C07E010894E11CF11C88E0F0
:10024000F70111928A95E9F729833A834B835C83FE
:100250006D837E83AF83988780E2801BE82FFF2722
:10026000E7FDF09549815A816B817C81181684F0F5
:1002700019861A861B861C86882799278E1B9F0B3A
:1002800004C0440F551F661F771F8A95D2F728C0F8
:10029000202F332727FD3095DB01CA01022E04C031
:1002A000880F991FAA1FBB1F0A94D2F789879A87C4
:1002B000AB87BC8704C07695679557954795EA95B7
:1002C000D2F78D819E81AF81B88504C0880F991FB8
:1002D000AA1FBB1F2A95D2F7482B592B6A2B7B2BC1
:1002E0004D875E876F87788B29853A854B855C853E
:1002F0006D857E85AF8598898A2F60960FB6F894B4
:10030000DEBF0FBECDBFCF91DF910F91FF90EF9079
:1003100008956091490270914A0280E692E05EC5BC
:10032000EF92FF920F931F93FC01808191810197BF
:1003300009F0B0C1E480F5800681178187EF92E073
:1003400068E971E0E9D487EF92E0B801A7012AE0FB
:1003500030E0A4D487EF92E063EA71E0DFD48FEF5E
:10036000E8168FEFF8068FEF08078FEF180741F4B4
:10037000E0905C02F0905D0200915E0210915F02DD
:10038000E0925C02F0925D0200935E0210935F02C5
:100390008DE9E81682E6F8068FEF080780E0180777
:1003A00009F414C18EE9E81682E6F8068FEF080713
:1003B00080E018070CF083C08FECE81680E3F806A5
:1003C0008FEF080780E0180709F437C180EDE816C1
:1003D00080E3F8068FEF080780E018079CF58FEEA2
:1003E000E81680E1F8068FEF080780E0180709F4A7
:1003F00033C180EFE81680E1F8068FEF080780E050
:1004000018075CF48DEFE81682E0F8068FEF080716
:1004100080E0180709F03EC1E8C087EEE81688E1E1
:10042000F8068FEF080780E0180709F40BC18DED7F
:10043000E81682E2F8068FEF080780E0180709F057
:1004400029C1CEC085EBE8168AE4F8068FEF0807CD
:1004500080E0180709F414C186EBE8168AE4F80670
:100460008FEF080780E01807ACF487ECE81688E304
:10047000F8068FEF080780E0180709F4F2C08DEB4B
:10048000E81682E4F8068FEF080780E0180709F005
:1004900001C1F1C08DEAE81682E5F8068FEF080782
:1004A00080E0180709F4F1C085EAE8168AE5F80645
:1004B0008FEF080780E0180709F0ECC0D7C08DE582
:1004C000E81682EAF8068FEF080780E0180709F4BB
:1004D00078C08EE5E81682EAF8068FEF080780E01C
:1004E00018079CF585E8E8168AE7F8068FEF0807F5
:1004F00080E0180709F4ABC086E8E8168AE7F8063A
:100500008FEF080780E018075CF487E9E81688E6B3
:10051000F8068FEF080780E0180709F0BBC07EC01F
:100520008FE6E81680E9F8068FEF080780E01807E5
:1005300009F46FC087E6E81688E9F8068FEF080728
:1005400080E0180709F0A6C06EC08DE3E81682ECC3
:10055000F8068FEF080780E0180709F44BC08EE318
:10056000E81682ECF8068FEF080780E01807ACF475
:1005700087E5E81688EAF8068FEF080780E0180795
:1005800009F442C08FE4E81680EBF8068FEF080705
:1005900080E0180709F07EC04BC08FE1E81680EEBE
:1005A000F8068FEF080780E0180749F18DE1E8169B
:1005B00082EEF8068FEF080780E0180709F06AC09E
:1005C0000AC087EF92E067EA71E063C087EF92E0CC
:1005D00062EB71E05EC087EF92E069EB71E059C0B9
:1005E00087EF92E060EC71E054C087EF92E06DEC31
:1005F00071E04FC087EF92E065ED71E04AC087EF90
:1006000092E06FED71E045C087EF92E064EE71E03B
:1006100040C087EF92E06CEE71E03BC087EF92E064
:1006200063EF71E036C087EF92E06AEF71E031C0AE
:1006300087EF92E064E072E02CC087EF92E069E01F
:1006400072E027C087EF92E06EE072E022C087EF91
:1006500092E065E172E01DC087EF92E06CE172E02C
:1006600018C087EF92E065E272E013C087EF92E076
:100670006DE272E00EC087EF92E064E372E009C0C1
:1006800087EF92E06BE372E004C087EF92E062E4F0
:1006900072E044D31F910F91FF90EF90089580E690
:1006A00092E061E672E00E94D60D892B31F081E67E
:1006B00092E036DE80E692E096C3089587EF92E0FE
:1006C00040E052EC61E070E08DD080E692E00C9466
:1006D000E30E08951F920F920FB60F9211242F93DD
:1006E0003F934F938F939F93EF93FF938091C0001D
:1006F00082FD1DC04091C6002091AF023091B00232
:100700002F5F3F4F2F7330708091B1029091B202F2
:100710002817390771F0E091AF02F091B002E1596A
:10072000FD4F40833093B0022093AF0202C080910E
:10073000C600FF91EF919F918F914F913F912F9123
:100740000F900FBE0F901F901895E0910303F0914A
:100750000403E05CFF4F8191919120813181821BE4
:10076000930B8F739070892B09F0B3CF08951F926C
:100770000F920FB60F9211242F933F938F939F9355
:10078000EF93FF932091F3023091F4028091F502F0
:100790009091F6022817390731F48091C1008F7DBE
:1007A0008093C10014C0E091F502F091F602ED547F
:1007B000FD4F20818091F5029091F60201968F7392
:1007C00090709093F6028093F5022093C600FF91FB
:1007D000EF919F918F913F912F910F900FBE0F90AE
:1007E0001F901895AF92BF92DF92EF92FF920F93F6
:1007F0001F93CF93DF93EC017A018B01DD2440300E
:1008000081EE580780E0680780E0780711F0DD246A
:10081000D39491E0A92EB12CEC89FD89DD2069F0FB
:10082000C50108A002C0880F991F0A94E2F78083CF
:1008300060E079E08DE390E005C0108260E874E844
:100840008EE190E0A80197010E94471221503040AC
:1008500040405040569547953795279580E1203088
:10086000380720F0DD2011F0DD24D6CFE889F989A2
:100870003083EA89FB89208319A2EE89FF894081B0
:1008800021E030E0C9010C8C02C0880F991F0A9446
:10089000E2F7482B4083EE89FF894081C9010D8C26
:1008A00002C0880F991F0A94E2F7482B4083EE8913
:1008B000FF894081C9010E8C02C0880F991F0A94DC
:1008C000E2F7482B4083EE89FF8980810F8C02C0BC
:1008D000220F331F0A94E2F7209528232083DF910B
:1008E000CF911F910F91FF90EF90DF90BF90AF904D
:1008F0000895DC011C96ED91FC911D97E05CFF4F83
:100900002191319180819181281B390B2F73307097
:10091000C9010895DC011C96ED91FC911D97E05CE6
:10092000FF4F20813181E054F040DF01AE5BBF4FCB
:100930008D919C9111972817390719F42FEF3FEFEC
:1009400007C08D919C91E80FF91F8081282F30E01E
:10095000C9010895DC011C96ED91FC911D97E05CA6
:10096000FF4F20813181E054F040DF01AE5BBF4F8B
:100970008D919C9111972817390719F42FEF3FEFAC
:1009800010C08D919C911197E80FF91F20818D91D6
:100990009C91119701968F73907011969C938E93F2
:1009A00030E0C9010895DC0191968C9191978823DC
:1009B00039F05496ED91FC915597808186FFF9CFDF
:1009C00091961C920895CF93DF93EC01EE85FF85FD
:1009D000E05CFF4F20813181E054F0402F5F3F4FBA
:1009E0002F733070DF01AE5BBF4F8D919C911197DB
:1009F00028173907D1F3E05CFF4F80819181E054E3
:100A0000F040E80FF91F6083EE85FF85E05CFF4F43
:100A100031832083EE89FF89208181E090E00F8C73
:100A200002C0880F991F0A94E2F7282B208381E0E7
:100A300089A3EC89FD8980818064808381E090E0D6
:100A4000DF91CF9108951092FA021092F90288EE88
:100A500093E0A0E0B0E08093FB029093FC02A093AF
:100A6000FD02B093FE028FE492E09093F80280932F
:100A7000F7028FE692E0909304038093030383EBE5
:100A800092E0909306038093050385EC90E09093A9
:100A900008038093070384EC90E090930A0380930B
:100AA000090380EC90E090930C0380930B0381EC9E
:100AB00090E090930E0380930D0382EC90E090936E
:100AC000100380930F0386EC90E0909312038093C1
:100AD000110384E08093130383E08093140387E081
:100AE0008093150385E08093160381E080931703BC
:100AF0000895CF93DF930E94440FE0DDC5EAD3E071
:100B0000CEDD2097E9F321DEFBCFCF92DF92EF928B
:100B1000FF920F931F93CF93DF937C016B018A01A8
:100B2000C0E0D0E00FC0D6016D916D01D701ED910D
:100B3000FC910190F081E02DC7010995C80FD91FE4
:100B4000015010400115110571F7CE01DF91CF91D1
:100B50001F910F91FF90EF90DF90CF900895EF924B
:100B6000FF920F931F938C01DC01ED91FC9101909A
:100B7000F081E02D6DE009957C01D801ED91FC91AB
:100B80000190F081E02DC8016AE009959C012E0DCD
:100B90003F1DC9011F910F91FF90EF900895CF93D2
:100BA000DF93EC016115710519F420E030E00FC00E
:100BB000DB010D900020E9F71197A61BB70BE88128
:100BC000F9810280F381E02DAD0109959C01C901F5
:100BD000DF91CF9108954F925F927F928F929F9273
:100BE000AF92BF92CF92DF92EF92FF920F931F933B
:100BF000DF93CF93CDB7DEB7A1970FB6F894DEBFE2
:100C00000FBECDBF2C01742ECB01223008F42AE098
:100C100019A231E2C32ED12CCC0EDD1E822E9924D6
:100C2000AA24BB24672D752FA50194010E944712A9
:100C300079018A01C801B701A50194010E94281217
:100C4000472D461B0894C108D1084A3014F4405D72
:100C500001C0495CF6014083E114F104010511056E
:100C600021F07E2C5F2DC801DDCFC201B60197DFD8
:100C7000A1960FB6F894DEBF0FBECDBFCF91DF9126
:100C80001F910F91FF90EF90DF90CF90BF90AF90AA
:100C90009F908F907F905F904F900895CF92DF92BA
:100CA000EF92FF920F931F93CF93DF93EC016A01B2
:100CB0007B012115310541F4E881F9810190F08132
:100CC000E02D642F09951DC02A303105C9F477FF46
:100CD00016C0E881F9810190F081E02D6DE209955F
:100CE0008C0144275527BA014C195D096E097F090B
:100CF000CE012AE070DF9801280F391F03C02AE0D7
:100D00006ADF9C01C901DF91CF911F910F91FF9084
:100D1000EF90DF90CF90089542CF0895EF92FF9229
:100D20000F931F937C013BDF8C01C70118DF080F75
:100D3000191FC8011F910F91FF90EF900895DF9246
:100D4000EF92FF920F931F93CF93DF93EC018827CD
:100D500077FD8095982F0E9415117B018C0120E072
:100D600030E040E45FE30E94C51120E030E048E459
:100D700052E40E947A100E94E210C617D70714F4BA
:100D8000DD241CC0DD24C801B70120E030E040EACA
:100D90005FE30E94C51120E030E048E452E40E9485
:100DA0007A1020E030E040E85FE30E9412100E94D9
:100DB000E2106C177D0714F0DD24D3948D2D90E0A4
:100DC000DF91CF911F910F91FF90EF90DF900895E9
:100DD0006C597F4FB4CF64567040B1CF6093190304
:100DE00010921B03089582E080931A031092E60389
:100DF0000895AF92BF92CF92DF92EF92FF920F933E
:100E00001F93CF93DF936B01DB011A96CD91DC9199
:100E10001B978A819B8168E273E2DADF892B09F4F0
:100E20007AC08091E603843009F086C08C819D8170
:100E30006AEC78E0D0DF892B09F47EC08E819F8137
:100E400060E372E0C5DF892B09F476C0F6011186F4
:100E500010868FEF9FEFAFEFBFEF84839583A6835C
:100E6000B78381E090E09183808350C08C819D8125
:100E700064E971E1B0DF892B09F44DC02696EE24B8
:100E8000FF24870123E0A22EB12C8881998160E3A1
:100E900072E09EDF892B09F43EC08A819B8160E469
:100EA00076E099DF892B69F0EE0CFF1C001F111F03
:100EB00081E090E0A0E0B0E0E82AF92A0A2B1B2BA1
:100EC0000BC08A819B8160E372E085DF892B19F179
:100ED000EE0CFF1C001F111F249691E4A916B1040B
:100EE00029F0A2E0B0E0AA0EBB1ECFCF80E290E0D6
:100EF000F60191878087D6011496ED92FD920D93AD
:100F00001C93179781E090E08D939C9321E030E053
:100F100040E050E004C020E030E040E050E0B901A3
:100F2000CA01DF91CF911F910F91FF90EF90DF9059
:100F3000CF90BF90AF9008958091E603843458F32A
:100F400095CFAF92BF92CF92DF92EF92FF920F9325
:100F50001F93CF93DF936B018091E6038A3108F4EE
:100F60007CC0DB011A96CD91DC911B978881998119
:100F7000845F914080F4FB01118610868FEF9FEF14
:100F8000AFEFBFEF84839583A683B78389E090E0BA
:100F9000918380835DC08A819B8160E679E018DF60
:100FA000892B09F45AC02696EE24FF24870162E0BB
:100FB000A62EB12C2DC0229788819981229668E5B2
:100FC00072E009DF892B69F18881998160EB74E017
:100FD000FFDE892B69F0EE0CFF1C001F111F81E062
:100FE00090E0A0E0B0E0E82AF92A0A2B1B2B0BC006
:100FF0008881998168E572E0EBDE892B71F1EE0C56
:10100000FF1C001F111FA2E0B0E0AA0EBB1E249619
:101010008091E60395012F5F3F4F90E02817390735
:1010200054F2C501019795958795F60191878087C0
:101030000C971CF41186108610C0D6011496ED9200
:10104000FD920D931C93179782E090E08D939C93F3
:1010500021E030E040E050E004C020E030E040E03B
:1010600050E0B901CA01DF91CF911F910F91FF901C
:10107000EF90DF90CF90BF90AF900895AF92BF9266
:10108000CF92DF92EF92FF920F931F93CF93DF9354
:101090006B018091E6038A3108F484C0DB011A9663
:1010A000CD91DC911B97888199818052934080F487
:1010B000FB01118610868FEF9FEFAFEFBFEF8483A8
:1010C0009583A683B78389E090E09183808365C090
:1010D0008A819B816CEA7DE07BDE892B09F462C00A
:1010E0008C819D816CEA7DE073DE892B09F45AC006
:1010F0002896EE24FF248701A3E0AA2EB12C2DC050
:10110000229788819981229666EB73E064DE892BB1
:1011100069F18881998160E679E05ADE892B69F06E
:10112000EE0CFF1C001F111F81E090E0A0E0B0E07A
:10113000E82AF92A0A2B1B2B0BC0888199816CEBBA
:1011400072E046DE892B71F1EE0CFF1C001F111FAF
:10115000A2E0B0E0AA0EBB1E24968091E6039501A2
:101160002F5F3F4F90E02817390754F2C5010197D0
:1011700095958795F601918780870C971CF41186C9
:10118000108610C0D6011496ED92FD920D931C931B
:10119000179789E090E08D939C9321E030E040E048
:1011A00050E004C020E030E040E050E0B901CA0166
:1011B000DF91CF911F910F91FF90EF90DF90CF9033
:1011C000BF90AF9008956F927F928F929F92AF924F
:1011D000BF92CF92DF92EF92FF920F931F93CF9324
:1011E000DF934B018091E603823208F476C0DB0185
:1011F0001A96CD91DC911B978A819B816EE571E0F7
:10120000E7DD892B09F469C036E0A32EB12CAC0EC2
:10121000BD1EEE24FF24870122E0C22ED12C34C053
:10122000E5012297888199816EE977E0D1DD892BEC
:1012300069F0EE0CFF1C001F111F81E090E0A0E0A0
:10124000B0E0E82AF92A0A2B1B2B0CC0888199816F
:101250006EEE72E0BDDD892B09F43FC0EE0CFF1C81
:10126000001F111FD5018D919C916EE571E0B3DDDA
:10127000E4E0F0E0AE0EBF1E892B11F463010FC055
:1012800022E030E0C20ED31E36010894611C711CAE
:101290008091E60390E0681679060CF4C1CFC60190
:1012A000019795958795D40119969C938E931897DD
:1012B00040972CF419961C921E9218970EC0F401B8
:1012C000E482F582068317838AE090E0918380832D
:1012D00021E030E040E050E004C020E030E040E0B9
:1012E00050E0B901CA01DF91CF911F910F91FF909A
:1012F000EF90DF90CF90BF90AF909F908F907F90B6
:101300006F9008956F927F928F929F92AF92BF924B
:10131000CF92DF92EF92FF920F931F93CF93DF93C1
:10132000FB013A0159016801DA012D913C91848554
:1013300095852817390724F071E0E72EF12C53C06A
:10134000C901880F991F0284F385E02DE80FF91F6A
:1013500080819181982E892E20FD06C00CE91FEF17
:1013600051E0E52EF12C04C004E610E0EE24FF2449
:10137000B8016C0D7D1D892D982DE1DC892B19F0AC
:1013800021E030E01EC0E601CC0FDD1FB8016C0F7C
:101390007D1F892D982DD3DC892B19F022E030E0B8
:1013A00010C0CC0DDD1D0C0F1D1F892D982DB8010F
:1013B000C6DC892B21F4EE24EA94FE2C14C023E031
:1013C00030E0F501808191810196918380838217BD
:1013D00093074CF011821082D3018D919C9111974B
:1013E00001968D939C93C701DF91CF911F910F912F
:1013F000FF90EF90DF90CF90BF90AF909F908F9035
:101400007F906F9008952F923F924F925F926F92CC
:101410007F928F929F92AF92BF92CF92DF92EF9284
:10142000FF920F931F93DF93CF9300D000D000D093
:10143000CDB7DEB71C015B018091E6038D3008F467
:1014400079C081E090E09A8389831C821B82A3E0AB
:101450008A2E912C8C0E9D1EC1012E010894411CD8
:10146000511CA201940109E713E04CDF892B09F01C
:1014700061C0C101B501A201940144DF019709F0E7
:1014800059C0C101B501A20194013CDF892B09F0CB
:1014900051C0CC24DD24760166247724C4018D82DA
:1014A0009E832DC0C101B501A2012D813E8109E7B6
:1014B00013E028DF4C01C101B501A2012D813E815D
:1014C00021DF21E08216910479F4892B99F5CC0C67
:1014D000DD1CEE1CFF1C81E090E0A0E0B0E0C82A1B
:1014E000D92AEA2AFB2A08C0892821F5019711F593
:1014F000CC0CDD1CEE1CFF1C0894611C711C80913F
:10150000E60390E029813A81281739075CF2D5017A
:1015100019967C926E921897F501C482D582E68264
:10152000F78283E090E09183808321E030E040E027
:1015300050E004C020E030E040E050E0B901CA01D2
:1015400026960FB6F894DEBF0FBECDBFCF91DF91C8
:101550001F910F91FF90EF90DF90CF90BF90AF90D1
:101560009F908F907F906F905F904F903F902F90C3
:1015700008952F923F924F925F926F927F928F9237
:101580009F92AF92BF92CF92DF92EF92FF920F9312
:101590001F93DF93CF93CDB7DEB728970FB6F8949C
:1015A000DEBF0FBECDBF1C014B01DB011C968D9130
:1015B0009C911D97181619060CF0BCC081E090E0B4
:1015C0009A8389831A960D911C911B97F801828149
:1015D00093816AE67AE0FCDB892B09F4ABC082E0F8
:1015E00090E09A838983D80114968D919C911597E8
:1015F00069E773E0F0DB892B09F49CC083E090E09D
:101600009A8389831C821B8203E0A02EB12CAC0E2E
:10161000BD1EC101B4013E010894611C711CA301EF
:1016200095010CEB11E06EDE892B09F083C0C1013E
:10163000B401A301950166DE019709F07BC0CC24BB
:10164000DD24760144245524C501AD829E83C30167
:101650006F82988752C0C101B4014F8158852D8196
:101660003E810CEB11E04EDE3C01B3E04B16510421
:1016700059F4C101B4014F8158852D813E8142DE6C
:101680006816790609F056C0C101B4014F8158852A
:101690002D813E810CEB11E035DE5C01E3E04E165E
:1016A000510451F4C101B4014F8158852D813E810F
:1016B00029DEA816B906F1F56114710489F4F1E088
:1016C000AF16B104B9F5CC0CDD1CEE1CFF1C81E09B
:1016D00090E0A0E0B0E0C82AD92AEA2AFB2A0AC092
:1016E00091E06916710431F5AB2821F5CC0CDD1CB5
:1016F000EE1CFF1C0894411C511C29813A81D40125
:101700001C968D919C911D97281739070CF4A3CF37
:1017100019965C924E921897F401C482D582E682A3
:10172000F78284E090E09183808321E030E040E024
:1017300050E004C020E030E040E050E0B901CA01D0
:1017400028960FB6F894DEBF0FBECDBFCF91DF91C4
:101750001F910F91FF90EF90DF90CF90BF90AF90CF
:101760009F908F907F906F905F904F903F902F90C1
:1017700008956F927F928F929F92AF92BF92CF9275
:10178000DF92EF92FF920F931F93CF93DF937B0132
:10179000FB01C285D3858A819B816EEA7DE018DBDF
:1017A000892B09F470C08C819D8166ED76E010DB99
:1017B000892B09F468C0269683E0A82EB12C00E09E
:1017C00010E0DD24CC2499248824772466248881A1
:1017D000998166EF71E0FCDA892B09F454C08A81A3
:1017E0009B816CED74E0F7DA892B69F098014D2D3F
:1017F0005C2D692D782D872D962D01E00E940A0120
:10180000022F016012C08A819B8160E971E0E3DAF6
:10181000892BC9F198014D2D5C2D692D782D872DCF
:10182000962D01E00E940A01022F132FD42EC52EFF
:10183000962E872E782E692E2496F1E6AF16B104E7
:1018400029F082E090E0A80EB91EC1CFC801F701CF
:1018500004839583468357839801872D962D00E254
:101860000E948B00C901F7012283938387E090E0F7
:101870009183808380E390E09187808721E030E04E
:1018800040E050E004C020E030E040E050E0B9012A
:10189000CA01DF91CF911F910F91FF90EF90DF90E0
:1018A000CF90BF90AF909F908F907F906F90089552
:1018B0008F929F92AF92BF92CF92DF92EF92FF9260
:1018C0000F931F93CF93DF936B018091E6038232D6
:1018D00009F0ABC0DB011A96CD91DC911B978A8190
:1018E0009B8168E572E074DA892B09F49EC08091CF
:1018F000E60321E030E0281B3109220F331FC21B11
:10190000D30B8881998168E572E062DA892B09F44A
:101910008CC0F601118610868FEF9FEFAFEFBFEFFF
:1019200084839583A683B78388E090E09183808346
:1019300064C08091E603813208F464C0D501149636
:101940008D919C91159760EA7FE045DA892B09F427
:1019500059C0E5012696EE24FF24870133E0832E4B
:10196000912C8881998168E572E032DA892B09F43B
:1019700049C08A819B8160E476E02DDA892B69F089
:10198000EE0CFF1C001F111F81E090E0A0E0B0E012
:10199000E82AF92A0A2B1B2B0BC08A819B8166E25D
:1019A00072E019DA892B71F1EE0CFF1C001F111F78
:1019B000A2E0B0E08A0E9B1E2496B3E28B1691043F
:1019C00081F6E6E4F0E0AE0EBF1ED5018D919C914C
:1019D00068E572E0FDD9892BA9F080E190E0F6017D
:1019E00091878087D6011496ED92FD920D931C93FA
:1019F000179788E090E08D939C9321E030E040E0E1
:101A000050E004C020E030E040E050E0B901CA01FD
:101A1000DF91CF911F910F91FF90EF90DF90CF90CA
:101A2000BF90AF909F908F900895F601A284B384E9
:101A3000D50112968D919C91139760E47FE1C8D9EE
:101A4000892B09F076CFDECF2F923F924F925F9293
:101A50006F927F928F929F92AF92BF92CF92DF92BE
:101A6000EF92FF920F931F93DF93CF9300D0CDB7E8
:101A7000DEB71B01FB0184859585863091052CF42A
:101A800020E030E040E050E07AC0F5ECAF2EFDE918
:101A9000BF2EFCE1CF2EF1E8DF2EE6E04E2E512CDA
:101AA0009C01220F331F3A83298352C0F101A28582
:101AB000B385F2013497EA0FFB1FE080F180A40D9B
:101AC000B51D6D917C9180E090E0ADD33B014C0160
:101AD00000E010E0C801B701A6D37B018C012DEC1A
:101AE0003CEC4CE45FE351D49B01AC01C401B30175
:101AF000FDD288231CF400E010E016C0C401B3013D
:101B00002DEC3CEC4CE45FE340D49B01AC01C801FC
:101B1000B701ECD2082F112707FD10950027110FF0
:101B2000001F11270F5F1F4FC601B50123E931E0E8
:101B300040E051E08DD45801CC24B7FCC094DC2C9B
:101B4000A626B726C826D92622E030E0420E531E2C
:101B500089819A814816590609F0A8CFF101A4821B
:101B6000B582C682D78280E290E0918780878FEF2E
:101B70009FEF9183808321E030E040E050E0B901A5
:101B8000CA010F900F90CF91DF911F910F91FF909D
:101B9000EF90DF90CF90BF90AF909F908F907F900D
:101BA0006F905F904F903F902F9008950F931F93E9
:101BB000CF93DF938C01EB018EE193E09B878A87C3
:101BC0008091E6038C871D8680911A03853009F089
:101BD0004EC0C8010ED9611571058105910509F046
:101BE00049C0C801BE01ADD96115710581059105D6
:101BF00009F040C0C801BE0141DA611571058105D7
:101C00009105C1F5C801BE01DEDA611571058105D6
:101C1000910581F5C801BE01F6DB611571058105ED
:101C2000910541F5C801BE01A4DC6115710581056E
:101C3000910501F5C801BE019CDD611571058105A5
:101C40009105C1F4C801BE0133DE6115710581053E
:101C5000910581F4C801BE01F7DE611571058105AA
:101C6000910541F482E080931A031092E60320E08C
:101C700030E002C021E030E0C901DF91CF911F9137
:101C80000F9108951F920F920FB60F9211242F9368
:101C90003F934F935F936F937F938F939F93AF93F4
:101CA000BF93EF93FF938091190368D1482F8091E0
:101CB0001C0390911D03019690931D0380931C03B8
:101CC0008091E603843618F085E080931A038091B2
:101CD0001A038330D1F0843020F4823009F059C0E7
:101CE00006C0843071F1853009F053C04CC04423E4
:101CF00009F04FC080911C0390911D03843691051B
:101D000008F443C01092E6031EC0413009F041C000
:101D10008091E603E82FF0E020911C0330911D0331
:101D2000EE0FFF1FE75EFC4F368325838F5F8093A6
:101D3000E60310921D0310921C0384E080931A03A3
:101D400028C04423B9F48091E603E82FF0E0209105
:101D50001C0330911D03EE0FFF1FE75EFC4F36831F
:101D600025838F5F8093E60310921D0310921C035E
:101D700083E0E4CF80911C0390911D03853691058B
:101D800040F085E0DBCF442321F410921D03109234
:101D90001C0380911B03882329F0442311F42D9AFE
:101DA00001C02D98FF91EF91BF91AF919F918F91BD
:101DB0007F916F915F914F913F912F910F900FBE47
:101DC0000F901F901895F89492E09093B000909324
:101DD000B10084E68093B300E2EBF0E01082E08192
:101DE00090937000789482E080931A031092E60337
:101DF0008091190360E083C01F920F920FB60F927B
:101E000011242F933F938F939F93AF93BF93809110
:101E1000EB039091EC03A091ED03B091EE033091B0
:101E2000EF030196A11DB11D232F2D5F2D3720F04B
:101E30002D570196A11DB11D2093EF038093EB0355
:101E40009093EC03A093ED03B093EE038091E7032E
:101E50009091E803A091E903B091EA030196A11DD6
:101E6000B11D8093E7039093E803A093E903B09337
:101E7000EA03BF91AF919F918F913F912F910F9066
:101E80000FBE0F901F901895789484B5826084BD22
:101E900084B5816084BD85B5826085BD85B581606E
:101EA00085BDEEE6F0E0808181608083E1E8F0E0CE
:101EB0001082808182608083808181608083E0E8FD
:101EC000F0E0808181608083E1EBF0E080818460DC
:101ED0008083E0EBF0E0808181608083EAE7F0E0DE
:101EE0008081846080838081826080838081816042
:101EF00080838081806880831092C1000895CF9391
:101F0000DF93482F50E0CA0186569F4FFC01349161
:101F10004A575F4FFA018491882369F190E0880F56
:101F2000991FFC01E859FF4FA591B491FC01EE58AF
:101F3000FF4FC591D491662351F42FB7F8948C913B
:101F4000932F909589238C93888189230BC06230CD
:101F500061F42FB7F8948C91932F909589238C93EB
:101F60008881832B88832FBF06C09FB7F8948C91FC
:101F7000832B8C939FBFDF91CF910895682F70E0E2
:101F8000CB0182559F4FFC012491CB0186569F4F78
:101F9000FC0144916A577F4FFB019491992319F4F6
:101FA00020E030E03CC0222351F1233071F0243096
:101FB00028F42130A1F0223011F514C02630B1F000
:101FC0002730C1F02430D9F404C0809180008F778D
:101FD00003C0809180008F7D8093800010C084B505
:101FE0008F7702C084B58F7D84BD09C08091B00019
:101FF0008F7703C08091B0008F7D8093B000892FD0
:1020000090E0880F991F84589F4FFC01A591B491CF
:102010008C9120E030E0842311F021E030E0C90110
:1020200008955058BB27AA270ED075C166D130F04D
:102030006BD120F031F49F3F11F41EF45BC10EF41C
:10204000E095E7FB51C1E92F77D180F3BA1762071A
:1020500073078407950718F071F49EF58FC10EF48D
:10206000E0950B2EBA2FA02D0B01B90190010C01A8
:10207000CA01A0011124FF27591B99F0593F50F4C0
:10208000503E68F11A16F040A22F232F342F442718
:10209000585FF3CF469537952795A795F040539510
:1020A000C9F77EF41F16BA0B620B730B840BBAF0E0
:1020B0009150A1F0FF0FBB1F661F771F881FC2F74B
:1020C0000EC0BA0F621F731F841F48F4879577955F
:1020D0006795B795F7959E3F08F0B3CF9395880F16
:1020E00008F09927EE0F979587950895D9D008F4B1
:1020F00081E008950CD00FC107D140F0FED030F040
:1021000021F45F3F19F0F0C0511139C1F3C014D16F
:1021100098F39923C9F35523B1F3951B550BBB27AE
:10212000AA2762177307840738F09F5F5F4F220F5B
:10213000331F441FAA1FA9F333D00E2E3AF0E0E854
:1021400030D091505040E695001CCAF729D0FE2FA0
:1021500027D0660F771F881FBB1F26173707480732
:10216000AB07B0E809F0BB0B802DBF01FF279358E8
:102170005F4F2AF09E3F510568F0B6C000C15F3F37
:10218000ECF3983EDCF3869577956795B795F795D0
:102190009F5FC9F7880F911D9695879597F90895C8
:1021A000E1E0660F771F881FBB1F62177307840764
:1021B000BA0720F0621B730B840BBA0BEE1F88F773
:1021C000E095089504D06894B111D9C00895BCD0A9
:1021D00088F09F5790F0B92F9927B751A0F0D1F010
:1021E000660F771F881F991F1AF0BA95C9F712C09A
:1021F000B13081F0C3D0B1E00895C0C0672F782F0F
:102200008827B85F39F0B93FCCF386957795679505
:10221000B395D9F73EF490958095709561957F4F71
:102220008F4F9F4F0895E89409C097FB3EF4909517
:102230008095709561957F4F8F4F9F4F9923A9F09F
:10224000F92F96E9BB279395F6958795779567952E
:10225000B795F111F8CFFAF4BB0F11F460FF1BC072
:102260006F5F7F4F8F4F9F4F16C0882311F096E905
:1022700011C0772321F09EE8872F762F05C06623B3
:1022800071F096E8862F70E060E02AF09A95660F6C
:10229000771F881FDAF7880F9695879597F9089525
:1022A000990F0008550FAA0BE0E8FEEF1616170667
:1022B000E807F907C0F012161306E407F50798F0CF
:1022C000621B730B840B950B39F40A2661F0232BE8
:1022D000242B252B21F408950A2609F4A140A69564
:1022E0008FEF811D811D089597F99F6780E870E049
:1022F00060E008959FEF80EC089500240A9416167C
:10230000170618060906089500240A9412161306E3
:10231000140605060895092E0394000C11F4882371
:1023200052F0BB0F40F4BF2B11F460FF04C06F5F8D
:102330007F4F8F4F9F4F089557FD9058440F551F63
:1023400059F05F3F71F04795880F97FB991F61F037
:102350009F3F79F087950895121613061406551FAE
:10236000F2CF4695F1DF08C0161617061806991F1A
:10237000F1CF86957105610508940895E894BB270F
:1023800066277727CB0197F908950BD0C4CFB5DF27
:1023900028F0BADF18F0952309F0A6CFABCF1124AF
:1023A000EECFCADFA0F3959FD1F3950F50E0551FF4
:1023B000629FF001729FBB27F00DB11D639FAA279A
:1023C000F00DB11DAA1F649F6627B00DA11D661FE9
:1023D000829F2227B00DA11D621F739FB00DA11D0A
:1023E000621F839FA00D611D221F749F3327A00DC4
:1023F000611D231F849F600D211D822F762F6A2F60
:1024000011249F5750408AF0E1F088234AF0EE0FE4
:10241000FF1FBB1F661F771F881F91505040A9F7F1
:102420009E3F510570F060CFAACF5F3FECF3983E1E
:10243000DCF3869577956795B795F795E7959F5F58
:10244000C1F7FE2B880F911D9695879597F90895F2
:10245000629FD001739FF001829FE00DF11D649F88
:10246000E00DF11D929FF00D839FF00D749FF00D14
:10247000659FF00D9927729FB00DE11DF91F639FB5
:10248000B00DE11DF91FBD01CF0111240895A1E296
:102490001A2EAA1BBB1BFD010DC0AA1FBB1FEE1FDE
:1024A000FF1FA217B307E407F50720F0A21BB30B29
:1024B000E40BF50B661F771F881F991F1A9469F7A5
:1024C00060957095809590959B01AC01BD01CF0101
:1024D0000895EE0FFF1F0590F491E02D0994F894F4
:0224E000FFCF2C
:1024E200556E6B6E6F776E20656E636F64696E6793
:1024F2003A20004465636F646564204E45433A2088
:10250200004465636F64656420534F4E593A20005E
:102512004465636F646564205243353A2000446524
:10252200636F646564205243363A20004465636FEA
:102532006465642050414E41534F4E4943202D2043
:10254200416464726573733A20002056616C75654C
:102552003A20004465636F646564204A56433A201A
:1025620000202800206269747329005261772028B4
:1025720000293A2000200000204465636F646564EE
:102582003A2000203A200020506F776572204F4E8B
:102592002000204D6F64652000204D757465200079
:1025A20020506C61792F5061757365200020566F41
:1025B2006C7461200020416469616E7461200020A6
:1025C20045512000204D656E6F732000204D6169DA
:1025D200732000205A65726F200020496E76657262
:1025E20074652000205553440020554D200020449E
:1025F2004F49532000205452455320002051554149
:1026020054524F20002043494E434F20002053454F
:102612004953200020534554452000204F49544F30
:102622002000204E4F564520000A0000000000E323
:0C2632000485057904AA048A04D304007E
:00000001FF
