:1000000062C0000085C0000083C0000081C0000005
:100010007FC000007DC000007BC0000079C00000F0
:1000200077C0000075C0000073C0000071C0000000
:100030006FC000006DC000006BC0000069C0000010
:10004000D6C0000065C00000AFC10000FAC10000CA
:100050005FC000005DC000005BC0000059C0000030
:100060000DC6000055C0000000000000240027005D
:100070002A0000000000250028002B0000000000DE
:1000800023002600290004040404040404040202DA
:100090000202020203030303030301020408102007
:1000A0004080010204081020010204081020000012
:1000B0000007000201000003040600000000000029
:1000C00000008C033B0511241FBECFEFD8E0DEBF3C
:1000D000CDBF11E0A0E0B1E0E0E1F1E102C00590A8
:1000E0000D92A439B107D9F713E0A4E9B1E001C03A
:1000F0001D92A730B107E1F710E0C6ECD0E003C0D5
:100100002297FE01FFD7C23CD107D1F75BD3FEC7D0
:1001100077CF1F93CF93DF9385E292E060E071E0A9
:100120005FD410E0C0E0D0E08DE892E0612F69D4A8
:100130008DE892E028D58823C9F485E292E06CE04E
:1001400071E04CD4103128F485E292E06BE271E06A
:1001500045D485E292E0612F40E150E012D485E27F
:1001600092E06DE271E03CD4219614C0843091F4A9
:1001700085E292E060E371E031D4103128F485E249
:1001800092E06BE271E02AD485E292E0612F40E1D7
:1001900050E008D41F5F103809F0C6CFCD2B29F4EA
:1001A00085E292E06BE471E004C085E292E061E6F2
:1001B00071E016D460E47FE180E090E060D0DF91F0
:1001C000CF911F9108950F931F938DE892E0DDD496
:1001D00005E212E0C80140E855E260E070E06CD151
:1001E000C80167E671E0FCD31F910F9108951F923B
:1001F0000F920FB60F9211242F933F938F939F93DB
:10020000AF93BF938091980190919901A0919A0129
:10021000B0919B0130919C010196A11DB11D232F2E
:100220002D5F2D3720F02D570196A11DB11D209374
:100230009C018093980190939901A0939A01B093A7
:100240009B018091940190919501A0919601B091AC
:1002500097010196A11DB11D809394019093950182
:10026000A0939601B0939701BF91AF919F918F9109
:100270003F912F910F900FBE0F901F9018959B01EB
:10028000AC017FB7F8948091940190919501A09171
:100290009601B091970166B5A89B05C06F3F19F014
:1002A0000196A11DB11D7FBFBA2FA92F982F8827B6
:1002B000860F911DA11DB11D62E0880F991FAA1F15
:1002C000BB1F6A95D1F7BC012DC0FFB7F894809190
:1002D000940190919501A0919601B0919701E6B596
:1002E000A89B05C0EF3F19F00196A11DB11DFFBFEE
:1002F000BA2FA92F982F88278E0F911DA11DB11DF0
:10030000E2E0880F991FAA1FBB1FEA95D1F7861B51
:10031000970B885E9340C8F22150304040405040D7
:1003200068517C4F211531054105510571F608953D
:10033000789484B5826084BD84B5816084BD85B5C0
:10034000826085BD85B5816085BDEEE6F0E0808187
:1003500081608083E1E8F0E01082808182608083A8
:10036000808181608083E0E8F0E08081816080832B
:10037000E1EBF0E0808184608083E0EBF0E080815D
:1003800081608083EAE7F0E08081846080838081FF
:1003900082608083808181608083808180688083A7
:1003A0001092C100089508951F920F920FB60F92F8
:1003B00011242F933F934F938F939F93EF93FF932A
:1003C0008091C00082FD1DC04091C6002091DD01DA
:1003D0003091DE012F5F3F4F2F7330708091DF012E
:1003E0009091E0012817390771F0E091DD01F0915B
:1003F000DE01E356FE4F40833093DE012093DD01A2
:1004000002C08091C600FF91EF919F918F914F9113
:100410003F912F910F900FBE0F901F901895E09174
:100420003102F0913202E05CFF4F81919191208185
:100430003181821B930B8F739070892B09F0B3CF9E
:1004400008951F920F920FB60F9211242F933F938E
:100450008F939F93EF93FF9320912102309122027B
:1004600080912302909124022817390731F480915A
:10047000C1008F7D8093C10014C0E0912302F091F0
:100480002402EF51FE4F208180912302909124029B
:1004900001968F739070909324028093230220938F
:1004A000C600FF91EF919F918F913F912F910F90F7
:1004B0000FBE0F901F901895AF92BF92DF92EF92F0
:1004C000FF920F931F93CF93DF93EC017A018B017F
:1004D000DD24403081EE580780E0680780E078072F
:1004E00011F0DD24D39491E0A92EB12CEC89FD8983
:1004F000DD2069F0C50108A002C0880F991F0A9489
:10050000E2F7808360E079E08DE390E005C010823F
:1005100060E874E88EE190E0A8019701CFD5215002
:10052000304040405040569547953795279580E19B
:100530002030380720F0DD2011F0DD24D7CFE88906
:10054000F9893083EA89FB89208319A2EE89FF8922
:10055000408121E030E0C9010C8C02C0880F991F56
:100560000A94E2F7482B4083EE89FF894081C90154
:100570000D8C02C0880F991F0A94E2F7482B408324
:10058000EE89FF894081C9010E8C02C0880F991F36
:100590000A94E2F7482B4083EE89FF8980810F8C13
:1005A00002C0220F331F0A94E2F7209528232083EC
:1005B000DF91CF911F910F91FF90EF90DF90BF904F
:1005C000AF900895DC011C96ED91FC911D97E05CC5
:1005D000FF4F2191319180819181281B390B2F731D
:1005E0003070C9010895DC011C96ED91FC911D97B6
:1005F000E05CFF4F20813181E054F040DF01AE5BD1
:10060000BF4F8D919C9111972817390719F42FEF3F
:100610003FEF07C08D919C91E80FF91F8081282F33
:1006200030E0C9010895DC011C96ED91FC911D9705
:10063000E05CFF4F20813181E054F040DF01AE5B90
:10064000BF4F8D919C9111972817390719F42FEFFF
:100650003FEF10C08D919C911197E80FF91F2081F9
:100660008D919C91119701968F73907011969C9328
:100670008E9330E0C9010895DC0191968C91919799
:10068000882339F05496ED91FC915597808186FF2F
:10069000F9CF91961C920895CF93DF93EC01EE85EC
:1006A000FF85E05CFF4F20813181E054F0402F5FF7
:1006B0003F4F2F733070DF01AE5BBF4F8D919C9128
:1006C000119728173907D1F3E05CFF4F80819181A2
:1006D000E054F040E80FF91F6083EE85FF85E05C91
:1006E000FF4F31832083EE89FF89208181E090E0F4
:1006F0000F8C02C0880F991F0A94E2F7282B2083E1
:1007000081E089A3EC89FD8980818064808381E018
:1007100090E0DF91CF910895109228021092270265
:1007200088EE93E0A0E0B0E08093290290932A0243
:10073000A0932B02B0932C0288E791E090932602BD
:10074000809325028DE991E09093320280933102EB
:1007500081EE91E0909334028093330285EC90E037
:10076000909336028093350284EC90E090933802A7
:100770008093370280EC90E090933A0280933902A4
:1007800081EC90E090933C0280933B0282EC90E0FD
:1007900090933E0280933D0286EC90E0909340025D
:1007A00080933F0284E08093410283E08093420281
:1007B00087E08093430285E08093440281E0809348
:1007C00045020895CF93DF93B3DDFDDCCFE0D2E0A7
:1007D000A0DC2097E9F323DEFBCFCF92DF92EF92EC
:1007E000FF920F931F93CF93DF937C016B018A01DC
:1007F000C0E0D0E00FC0D6016D916D01D701ED9141
:10080000FC910190F081E02DC7010995C80FD91F17
:10081000015010400115110571F7CE01DF91CF9104
:100820001F910F91FF90EF90DF90CF900895EF927E
:10083000FF920F931F938C01DC01ED91FC910190CD
:10084000F081E02D6DE009957C01D801ED91FC91DE
:100850000190F081E02DC8016AE009959C012E0D00
:100860003F1DC9011F910F91FF90EF900895CF9305
:10087000DF93EC016115710519F420E030E00FC041
:10088000DB010D900020E9F71197A61BB70BE8815B
:10089000F9810280F381E02DAD0109959C01C90128
:1008A000DF91CF9108954F925F927F928F929F92A6
:1008B000AF92BF92CF92DF92EF92FF920F931F936E
:1008C000DF93CF93CDB7DEB7A1970FB6F894DEBF15
:1008D0000FBECDBF2C01742ECB01223008F42AE0CC
:1008E00019A231E2C32ED12CCC0EDD1E822E99240A
:1008F000AA24BB24672D752FA5019401DFD37901AC
:100900008A01C801B701A5019401B9D3472D461B3F
:100910000894C108D1084A3014F4405D01C0495C14
:10092000F6014083E114F1040105110521F07E2C4C
:100930005F2DC801DFCFC201B60199DFA1960FB6C6
:10094000F894DEBF0FBECDBFCF91DF911F910F9105
:10095000FF90EF90DF90CF90BF90AF909F908F90DF
:100960007F905F904F900895DC012115310541F48F
:10097000ED91FC910190F081E02D642F099508958F
:1009800092CFEF92FF920F931F939A01E62EFF24CE
:1009900000E010E0B801A701E7DF1F910F91FF9081
:1009A000EF900895CF92DF92EF92FF920F931F93F3
:1009B0006C01E62E9A01FF2400E010E0B801A701C7
:1009C000D3DF8C01C60133DF080F191FC8011F9147
:1009D0000F91FF90EF90DF90CF90089548CF08954A
:1009E000EF92FF920F931F937C0141DF8C01C701AF
:1009F0001EDF080F191FC8011F910F91FF90EF9084
:100A0000089581E080938C026093690210928A02BB
:100A100010928B0208952091680230E08091670265
:100A2000281B3109C901089540916702809168022D
:100A3000481718F02FEF3FEF0AC0E42FF0E0E95B12
:100A4000FD4F8081282F30E04F5F40936702C9013E
:100A50000895E091670280916802E81718F0EFEFBF
:100A6000FFEF06C0F0E0E95BFD4F8081E82FF0E08A
:100A7000CF01089508951092900210928F0288EE8F
:100A800093E0A0E0B0E08093910290939202A09353
:100A90009302B093940288E891E090938E02809341
:100AA0008D020895CF92DF92EF92FF920F931F93E2
:100AB000CF93DF937C016B018A0180918C028823A4
:100AC000A1F0C0E0D0E00DC0D701ED91FC91D601BE
:100AD000AC0FBD1F0190F081E02DC7016C9109950D
:100AE0002196C017D10780F303C0CB01642FABD090
:100AF000C801DF91CF911F910F91FF90EF90DF9090
:100B0000CF900895DF93CF930F92CDB7DEB7FC015E
:100B1000698380918C028823C9F080918B02803296
:100B200038F081E090E09383828320E030E014C0CD
:100B300080918A02E82FF0E0E659FD4F9981908379
:100B40008F5F80938A0280938B0204C0CE0101964E
:100B500061E079D021E030E0C9010F90CF91DF91C1
:100B600008950F93062F809169026AE672E0409122
:100B70008B0221E013D010928A0210928B02109205
:100B80008C020F91089561E0ECCF109267021092F1
:100B9000680210928A0210928B0201C20F931F9377
:100BA000582F122F413210F081E04AC080919902F3
:100BB0008823E1F782E08093990200939B028FEFF4
:100BC000809306031092C1024093C202A1EAB2E0F0
:100BD000FB0102C081918D938E2F861B8417D0F369
:100BE00010929A0280919A02550F852B80939A0257
:100BF00080919C02813041F410929C0280919A0273
:100C00008093BB0085EC01C085EE8093BC0011236E
:100C100021F0809199028230E1F3809106038F3FA9
:100C200011F480E00DC080910603803211F482E05F
:100C300007C080910603803311F084E001C083E097
:100C40001F910F910895482F613210F081E00895AF
:100C500080919902843011F082E008956093E4025B
:100C6000A3ECB2E0842F9C01F90102C081918D9325
:100C70008E2F841B8617D0F380E008951F920F9269
:100C80000FB60F9211242F933F934F935F936F935F
:100C90007F938F939F93AF93BF93EF93FF93809135
:100CA000B90090E0887F90708036910509F4F2C019
:100CB00081369105CCF58832910509F47BC08932E3
:100CC0009105B4F48031910509F46FC0813191052B
:100CD0003CF4009709F447C1089709F04FC165C07B
:100CE0008831910509F466C0809709F047C182C038
:100CF0008034910509F4A4C08134910544F4803313
:100D0000910509F482C0C89709F038C189C08035BF
:100D1000910509F489C08835910509F496C0883495
:100D2000910509F02BC1AEC08839910509F413C1B2
:100D300089399105ECF48837910509F4ABC08937FE
:100D400091054CF48836910509F4A4C080379105CB
:100D500009F014C19FC08838910509F4FCC080399E
:100D6000910509F49DC08038910509F007C198C02C
:100D7000803B910509F4C6C0813B91054CF4803A53
:100D8000910509F49FC0883A910509F0F7C0BAC0EF
:100D9000803C910509F4E3C0883C910509F4DFC06B
:100DA000883B910509F0EAC0C2C080919A02809305
:100DB000BB00CFC09091C1028091C202981768F425
:100DC0009091C102E92FF0E0EF55FD4F80818093B3
:100DD000BB009F5F9093C102BCC080919B0288239F
:100DE00009F44BC085ED8093BC008091BC0084FD6C
:100DF000FCCFC2C080E28093060385ED8093BC00E7
:100E00008091BC0084FDFCCFB7C080E380930603D3
:100E100085ED8093BC008091BC0084FDFCCFACC00C
:100E200088E3809306039BC08091C1029091BB0030
:100E3000E82FF0E0EF55FD4F90838F5F8093C10264
:100E40009091C1028091C20282C08091C1029091B2
:100E5000BB00E82FF0E0EF55FD4F90838F5F80934C
:100E6000C10280919B02882341F085ED8093BC00F4
:100E70008091BC0084FDFCCF7FC081E080939C0208
:100E800084EA6EC085ED8093BC008091BC0084FD37
:100E9000FCCF72C083E0809399021092050359C081
:100EA00080910503803208F056C08091050390912F
:100EB000BB00E82FF0E0EB51FD4F90838F5F8093F4
:100EC000050347C080910503803230F4E0910503AB
:100ED000F0E0EB51FD4F108285ED8093BC008091D6
:100EE000BC0084FDFCCF1092990260910503E09153
:100EF0009F02F091A00285EE92E070E009951092B9
:100F000005032DC084E0809399021092E3021092B1
:100F1000E402E0919D02F0919E0209958091E40225
:100F2000882329F481E08093E4021092C302909117
:100F3000E302E92FF0E0ED53FD4F80818093BB0089
:100F40009F5F9093E3029091E3028091E4029817EF
:100F500010F485EC01C085E88093BC000FC085ECDF
:100F60008093BC0009C01092060385ED8093BC00FD
:100F70008091BC0084FDFCCF10929902FF91EF910B
:100F8000BF91AF919F918F917F916F915F914F91A1
:100F90003F912F910F900FBE0F901F9018951092B8
:100FA000990281E080939B0210929C0282E161E0B1
:100FB00012D083E161E00FD0E9EBF0E080818E7F19
:100FC000808380818D7F808388E48093B80085E46E
:100FD0008093BC000895482F50E0CA0182559F4F6E
:100FE000FC012491CA0186569F4FFC0194914A57F7
:100FF0005F4FFA013491332309F440C0222351F1A9
:10100000233071F0243028F42130A1F0223011F582
:1010100014C02630B1F02730C1F02430D9F404C018
:10102000809180008F7703C0809180008F7D8093B6
:10103000800010C084B58F7702C084B58F7D84BDD9
:1010400009C08091B0008F7703C08091B0008F7D80
:101050008093B000E32FF0E0EE0FFF1FEE58FF4F3C
:10106000A591B4912FB7F894662321F48C919095B3
:10107000892302C08C91892B8C932FBF0895629F86
:10108000D001739FF001829FE00DF11D649FE00D80
:10109000F11D929FF00D839FF00D749FF00D659FE1
:1010A000F00D9927729FB00DE11DF91F639FB00DE0
:1010B000E11DF91FBD01CF0111240895A1E21A2EEF
:1010C000AA1BBB1BFD010DC0AA1FBB1FEE1FFF1FEC
:1010D000A217B307E407F50720F0A21BB30BE40B3C
:1010E000F50B661F771F881F991F1A9469F7609583
:1010F0007095809590959B01AC01BD01CF0108953D
:10110000EE0FFF1F0590F491E02D0994F894FFCFA6
:101110005363616E6E696E672E2E2E004932432036
:1011200064657669636520666F756E6420617420FE
:101130006164647265737320307800300020210090
:10114000556E6B6E6F77206572726F7220617420BE
:1011500061646472657373203078004E6F20493289
:1011600043206465766963657320666F756E640AF3
:1011700000646F6E650A000A493243205363616E52
:101180006E657200000000004C03ED03E2021303E1
:10119000F3023C0300000000820552050B05140514
:0411A00029053A05DE
:00000001FF
